{
	"chapter9/Ex9_3.sol": {
		"Ex9_3": {
			"abi": [
				{
					"inputs": [
						{
							"internalType": "address payable",
							"name": "_address",
							"type": "address"
						}
					],
					"name": "ethDelivery1",
					"outputs": [],
					"stateMutability": "payable",
					"type": "function"
				},
				{
					"inputs": [
						{
							"internalType": "address payable",
							"name": "_address",
							"type": "address"
						}
					],
					"name": "ethDelivery2",
					"outputs": [],
					"stateMutability": "payable",
					"type": "function"
				},
				{
					"inputs": [],
					"name": "etherUnits",
					"outputs": [
						{
							"internalType": "uint256",
							"name": "",
							"type": "uint256"
						},
						{
							"internalType": "uint256",
							"name": "",
							"type": "uint256"
						},
						{
							"internalType": "uint256",
							"name": "",
							"type": "uint256"
						}
					],
					"stateMutability": "pure",
					"type": "function"
				},
				{
					"inputs": [
						{
							"internalType": "address",
							"name": "_address",
							"type": "address"
						}
					],
					"name": "getBalance",
					"outputs": [
						{
							"internalType": "uint256",
							"name": "",
							"type": "uint256"
						}
					],
					"stateMutability": "view",
					"type": "function"
				}
			],
			"devdoc": {
				"kind": "dev",
				"methods": {},
				"version": 1
			},
			"evm": {
				"assembly": "    /* \"chapter9/Ex9_3.sol\":445:1294  contract Ex9_3 {\r... */\n  mstore(0x40, 0x80)\n  callvalue\n  dup1\n  iszero\n  tag_1\n  jumpi\n  0x00\n  dup1\n  revert\ntag_1:\n  pop\n  dataSize(sub_0)\n  dup1\n  dataOffset(sub_0)\n  0x00\n  codecopy\n  0x00\n  return\nstop\n\nsub_0: assembly {\n        /* \"chapter9/Ex9_3.sol\":445:1294  contract Ex9_3 {\r... */\n      mstore(0x40, 0x80)\n      jumpi(tag_1, lt(calldatasize, 0x04))\n      shr(0xe0, calldataload(0x00))\n      dup1\n      0x37b3dbc1\n      eq\n      tag_2\n      jumpi\n      dup1\n      0x534fbd9e\n      eq\n      tag_3\n      jumpi\n      dup1\n      0xf8b2cb4f\n      eq\n      tag_4\n      jumpi\n      dup1\n      0xfd384e17\n      eq\n      tag_5\n      jumpi\n    tag_1:\n      0x00\n      dup1\n      revert\n        /* \"chapter9/Ex9_3.sol\":701:856  function ethDelivery1(address payable _address) public payable {\r... */\n    tag_2:\n      tag_6\n      0x04\n      dup1\n      calldatasize\n      sub\n      0x20\n      dup2\n      lt\n      iszero\n      tag_7\n      jumpi\n      0x00\n      dup1\n      revert\n    tag_7:\n      dup2\n      add\n      swap1\n      dup1\n      dup1\n      calldataload\n      0xffffffffffffffffffffffffffffffffffffffff\n      and\n      swap1\n      0x20\n      add\n      swap1\n      swap3\n      swap2\n      swap1\n      pop\n      pop\n      pop\n      tag_8\n      jump\t// in\n    tag_6:\n      stop\n        /* \"chapter9/Ex9_3.sol\":1032:1142  function ethDelivery2(address payable _address) public payable {\r... */\n    tag_3:\n      tag_9\n      0x04\n      dup1\n      calldatasize\n      sub\n      0x20\n      dup2\n      lt\n      iszero\n      tag_10\n      jumpi\n      0x00\n      dup1\n      revert\n    tag_10:\n      dup2\n      add\n      swap1\n      dup1\n      dup1\n      calldataload\n      0xffffffffffffffffffffffffffffffffffffffff\n      and\n      swap1\n      0x20\n      add\n      swap1\n      swap3\n      swap2\n      swap1\n      pop\n      pop\n      pop\n      tag_11\n      jump\t// in\n    tag_9:\n      stop\n        /* \"chapter9/Ex9_3.sol\":469:575  function getBalance(address _address) public view returns(uint) {\r... */\n    tag_4:\n      callvalue\n      dup1\n      iszero\n      tag_12\n      jumpi\n      0x00\n      dup1\n      revert\n    tag_12:\n      pop\n      tag_13\n      0x04\n      dup1\n      calldatasize\n      sub\n      0x20\n      dup2\n      lt\n      iszero\n      tag_14\n      jumpi\n      0x00\n      dup1\n      revert\n    tag_14:\n      dup2\n      add\n      swap1\n      dup1\n      dup1\n      calldataload\n      0xffffffffffffffffffffffffffffffffffffffff\n      and\n      swap1\n      0x20\n      add\n      swap1\n      swap3\n      swap2\n      swap1\n      pop\n      pop\n      pop\n      tag_15\n      jump\t// in\n    tag_13:\n      mload(0x40)\n      dup1\n      dup3\n      dup2\n      mstore\n      0x20\n      add\n      swap2\n      pop\n      pop\n      mload(0x40)\n      dup1\n      swap2\n      sub\n      swap1\n      return\n        /* \"chapter9/Ex9_3.sol\":583:693  function etherUnits() public pure returns(uint, uint, uint) {\r... */\n    tag_5:\n      callvalue\n      dup1\n      iszero\n      tag_16\n      jumpi\n      0x00\n      dup1\n      revert\n    tag_16:\n      pop\n      tag_17\n      tag_18\n      jump\t// in\n    tag_17:\n      mload(0x40)\n      dup1\n      dup5\n      dup2\n      mstore\n      0x20\n      add\n      dup4\n      dup2\n      mstore\n      0x20\n      add\n      dup3\n      dup2\n      mstore\n      0x20\n      add\n      swap4\n      pop\n      pop\n      pop\n      pop\n      mload(0x40)\n      dup1\n      swap2\n      sub\n      swap1\n      return\n        /* \"chapter9/Ex9_3.sol\":701:856  function ethDelivery1(address payable _address) public payable {\r... */\n    tag_8:\n        /* \"chapter9/Ex9_3.sol\":775:786  bool result */\n      0x00\n        /* \"chapter9/Ex9_3.sol\":789:797  _address */\n      dup2\n        /* \"chapter9/Ex9_3.sol\":789:802  _address.send */\n      0xffffffffffffffffffffffffffffffffffffffff\n      and\n        /* \"chapter9/Ex9_3.sol\":789:812  _address.send(10 ether) */\n      0x08fc\n        /* \"chapter9/Ex9_3.sol\":803:811  10 ether */\n      0x8ac7230489e80000\n        /* \"chapter9/Ex9_3.sol\":789:812  _address.send(10 ether) */\n      swap1\n      dup2\n      iszero\n      mul\n      swap1\n      mload(0x40)\n      0x00\n      mload(0x40)\n      dup1\n      dup4\n      sub\n      dup2\n      dup6\n      dup9\n      dup9\n      call\n      swap4\n      pop\n      pop\n      pop\n      pop\n        /* \"chapter9/Ex9_3.sol\":775:812  bool result = _address.send(10 ether) */\n      swap1\n      pop\n        /* \"chapter9/Ex9_3.sol\":831:837  result */\n      dup1\n        /* \"chapter9/Ex9_3.sol\":823:848  require(result, \"Failed\") */\n      tag_21\n      jumpi\n      mload(0x40)\n      0x08c379a000000000000000000000000000000000000000000000000000000000\n      dup2\n      mstore\n      0x04\n      add\n      dup1\n      dup1\n      0x20\n      add\n      dup3\n      dup2\n      sub\n      dup3\n      mstore\n      0x06\n      dup2\n      mstore\n      0x20\n      add\n      dup1\n      0x4661696c65640000000000000000000000000000000000000000000000000000\n      dup2\n      mstore\n      pop\n      0x20\n      add\n      swap2\n      pop\n      pop\n      mload(0x40)\n      dup1\n      swap2\n      sub\n      swap1\n      revert\n    tag_21:\n        /* \"chapter9/Ex9_3.sol\":701:856  function ethDelivery1(address payable _address) public payable {\r... */\n      pop\n      pop\n      jump\t// out\n        /* \"chapter9/Ex9_3.sol\":1032:1142  function ethDelivery2(address payable _address) public payable {\r... */\n    tag_11:\n        /* \"chapter9/Ex9_3.sol\":1106:1114  _address */\n      dup1\n        /* \"chapter9/Ex9_3.sol\":1106:1123  _address.transfer */\n      0xffffffffffffffffffffffffffffffffffffffff\n      and\n        /* \"chapter9/Ex9_3.sol\":1106:1134  _address.transfer(msg.value) */\n      0x08fc\n        /* \"chapter9/Ex9_3.sol\":1124:1133  msg.value */\n      callvalue\n        /* \"chapter9/Ex9_3.sol\":1106:1134  _address.transfer(msg.value) */\n      swap1\n      dup2\n      iszero\n      mul\n      swap1\n      mload(0x40)\n      0x00\n      mload(0x40)\n      dup1\n      dup4\n      sub\n      dup2\n      dup6\n      dup9\n      dup9\n      call\n      swap4\n      pop\n      pop\n      pop\n      pop\n      iszero\n      dup1\n      iszero\n      tag_24\n      jumpi\n      returndatasize\n      0x00\n      dup1\n      returndatacopy\n      revert(0x00, returndatasize)\n    tag_24:\n      pop\n        /* \"chapter9/Ex9_3.sol\":1032:1142  function ethDelivery2(address payable _address) public payable {\r... */\n      pop\n      jump\t// out\n        /* \"chapter9/Ex9_3.sol\":469:575  function getBalance(address _address) public view returns(uint) {\r... */\n    tag_15:\n        /* \"chapter9/Ex9_3.sol\":527:531  uint */\n      0x00\n        /* \"chapter9/Ex9_3.sol\":551:559  _address */\n      dup2\n        /* \"chapter9/Ex9_3.sol\":551:567  _address.balance */\n      0xffffffffffffffffffffffffffffffffffffffff\n      and\n      balance\n        /* \"chapter9/Ex9_3.sol\":544:567  return _address.balance */\n      swap1\n      pop\n        /* \"chapter9/Ex9_3.sol\":469:575  function getBalance(address _address) public view returns(uint) {\r... */\n      swap2\n      swap1\n      pop\n      jump\t// out\n        /* \"chapter9/Ex9_3.sol\":583:693  function etherUnits() public pure returns(uint, uint, uint) {\r... */\n    tag_18:\n        /* \"chapter9/Ex9_3.sol\":625:629  uint */\n      0x00\n        /* \"chapter9/Ex9_3.sol\":631:635  uint */\n      dup1\n        /* \"chapter9/Ex9_3.sol\":637:641  uint */\n      0x00\n        /* \"chapter9/Ex9_3.sol\":662:669  1 ether */\n      0x0de0b6b3a7640000\n        /* \"chapter9/Ex9_3.sol\":671:677  1 gwei */\n      0x3b9aca00\n        /* \"chapter9/Ex9_3.sol\":679:684  1 wei */\n      0x01\n        /* \"chapter9/Ex9_3.sol\":654:685  return (1 ether, 1 gwei, 1 wei) */\n      swap3\n      pop\n      swap3\n      pop\n      swap3\n      pop\n        /* \"chapter9/Ex9_3.sol\":583:693  function etherUnits() public pure returns(uint, uint, uint) {\r... */\n      swap1\n      swap2\n      swap3\n      jump\t// out\n\n    auxdata: 0xa26469706673582212204afc7f04e0d7b5fc8d249bdc4ba6bb666d8b3105d97b14a435543c5b0c2dead064736f6c63430007060033\n}\n",
				"bytecode": {
					"linkReferences": {},
					"object": "608060405234801561001057600080fd5b506102e3806100206000396000f3fe60806040526004361061003f5760003560e01c806337b3dbc114610044578063534fbd9e14610088578063f8b2cb4f146100cc578063fd384e1714610131575b600080fd5b6100866004803603602081101561005a57600080fd5b81019080803573ffffffffffffffffffffffffffffffffffffffff16906020019092919050505061016a565b005b6100ca6004803603602081101561009e57600080fd5b81019080803573ffffffffffffffffffffffffffffffffffffffff169060200190929190505050610222565b005b3480156100d857600080fd5b5061011b600480360360208110156100ef57600080fd5b81019080803573ffffffffffffffffffffffffffffffffffffffff16906020019092919050505061026c565b6040518082815260200191505060405180910390f35b34801561013d57600080fd5b5061014661028d565b60405180848152602001838152602001828152602001935050505060405180910390f35b60008173ffffffffffffffffffffffffffffffffffffffff166108fc678ac7230489e800009081150290604051600060405180830381858888f1935050505090508061021e576040517f08c379a00000000000000000000000000000000000000000000000000000000081526004018080602001828103825260068152602001807f4661696c6564000000000000000000000000000000000000000000000000000081525060200191505060405180910390fd5b5050565b8073ffffffffffffffffffffffffffffffffffffffff166108fc349081150290604051600060405180830381858888f19350505050158015610268573d6000803e3d6000fd5b5050565b60008173ffffffffffffffffffffffffffffffffffffffff16319050919050565b6000806000670de0b6b3a7640000633b9aca00600192509250925090919256fea26469706673582212204afc7f04e0d7b5fc8d249bdc4ba6bb666d8b3105d97b14a435543c5b0c2dead064736f6c63430007060033",
					"opcodes": "PUSH1 0x80 PUSH1 0x40 MSTORE CALLVALUE DUP1 ISZERO PUSH2 0x10 JUMPI PUSH1 0x0 DUP1 REVERT JUMPDEST POP PUSH2 0x2E3 DUP1 PUSH2 0x20 PUSH1 0x0 CODECOPY PUSH1 0x0 RETURN INVALID PUSH1 0x80 PUSH1 0x40 MSTORE PUSH1 0x4 CALLDATASIZE LT PUSH2 0x3F JUMPI PUSH1 0x0 CALLDATALOAD PUSH1 0xE0 SHR DUP1 PUSH4 0x37B3DBC1 EQ PUSH2 0x44 JUMPI DUP1 PUSH4 0x534FBD9E EQ PUSH2 0x88 JUMPI DUP1 PUSH4 0xF8B2CB4F EQ PUSH2 0xCC JUMPI DUP1 PUSH4 0xFD384E17 EQ PUSH2 0x131 JUMPI JUMPDEST PUSH1 0x0 DUP1 REVERT JUMPDEST PUSH2 0x86 PUSH1 0x4 DUP1 CALLDATASIZE SUB PUSH1 0x20 DUP2 LT ISZERO PUSH2 0x5A JUMPI PUSH1 0x0 DUP1 REVERT JUMPDEST DUP2 ADD SWAP1 DUP1 DUP1 CALLDATALOAD PUSH20 0xFFFFFFFFFFFFFFFFFFFFFFFFFFFFFFFFFFFFFFFF AND SWAP1 PUSH1 0x20 ADD SWAP1 SWAP3 SWAP2 SWAP1 POP POP POP PUSH2 0x16A JUMP JUMPDEST STOP JUMPDEST PUSH2 0xCA PUSH1 0x4 DUP1 CALLDATASIZE SUB PUSH1 0x20 DUP2 LT ISZERO PUSH2 0x9E JUMPI PUSH1 0x0 DUP1 REVERT JUMPDEST DUP2 ADD SWAP1 DUP1 DUP1 CALLDATALOAD PUSH20 0xFFFFFFFFFFFFFFFFFFFFFFFFFFFFFFFFFFFFFFFF AND SWAP1 PUSH1 0x20 ADD SWAP1 SWAP3 SWAP2 SWAP1 POP POP POP PUSH2 0x222 JUMP JUMPDEST STOP JUMPDEST CALLVALUE DUP1 ISZERO PUSH2 0xD8 JUMPI PUSH1 0x0 DUP1 REVERT JUMPDEST POP PUSH2 0x11B PUSH1 0x4 DUP1 CALLDATASIZE SUB PUSH1 0x20 DUP2 LT ISZERO PUSH2 0xEF JUMPI PUSH1 0x0 DUP1 REVERT JUMPDEST DUP2 ADD SWAP1 DUP1 DUP1 CALLDATALOAD PUSH20 0xFFFFFFFFFFFFFFFFFFFFFFFFFFFFFFFFFFFFFFFF AND SWAP1 PUSH1 0x20 ADD SWAP1 SWAP3 SWAP2 SWAP1 POP POP POP PUSH2 0x26C JUMP JUMPDEST PUSH1 0x40 MLOAD DUP1 DUP3 DUP2 MSTORE PUSH1 0x20 ADD SWAP2 POP POP PUSH1 0x40 MLOAD DUP1 SWAP2 SUB SWAP1 RETURN JUMPDEST CALLVALUE DUP1 ISZERO PUSH2 0x13D JUMPI PUSH1 0x0 DUP1 REVERT JUMPDEST POP PUSH2 0x146 PUSH2 0x28D JUMP JUMPDEST PUSH1 0x40 MLOAD DUP1 DUP5 DUP2 MSTORE PUSH1 0x20 ADD DUP4 DUP2 MSTORE PUSH1 0x20 ADD DUP3 DUP2 MSTORE PUSH1 0x20 ADD SWAP4 POP POP POP POP PUSH1 0x40 MLOAD DUP1 SWAP2 SUB SWAP1 RETURN JUMPDEST PUSH1 0x0 DUP2 PUSH20 0xFFFFFFFFFFFFFFFFFFFFFFFFFFFFFFFFFFFFFFFF AND PUSH2 0x8FC PUSH8 0x8AC7230489E80000 SWAP1 DUP2 ISZERO MUL SWAP1 PUSH1 0x40 MLOAD PUSH1 0x0 PUSH1 0x40 MLOAD DUP1 DUP4 SUB DUP2 DUP6 DUP9 DUP9 CALL SWAP4 POP POP POP POP SWAP1 POP DUP1 PUSH2 0x21E JUMPI PUSH1 0x40 MLOAD PUSH32 0x8C379A000000000000000000000000000000000000000000000000000000000 DUP2 MSTORE PUSH1 0x4 ADD DUP1 DUP1 PUSH1 0x20 ADD DUP3 DUP2 SUB DUP3 MSTORE PUSH1 0x6 DUP2 MSTORE PUSH1 0x20 ADD DUP1 PUSH32 0x4661696C65640000000000000000000000000000000000000000000000000000 DUP2 MSTORE POP PUSH1 0x20 ADD SWAP2 POP POP PUSH1 0x40 MLOAD DUP1 SWAP2 SUB SWAP1 REVERT JUMPDEST POP POP JUMP JUMPDEST DUP1 PUSH20 0xFFFFFFFFFFFFFFFFFFFFFFFFFFFFFFFFFFFFFFFF AND PUSH2 0x8FC CALLVALUE SWAP1 DUP2 ISZERO MUL SWAP1 PUSH1 0x40 MLOAD PUSH1 0x0 PUSH1 0x40 MLOAD DUP1 DUP4 SUB DUP2 DUP6 DUP9 DUP9 CALL SWAP4 POP POP POP POP ISZERO DUP1 ISZERO PUSH2 0x268 JUMPI RETURNDATASIZE PUSH1 0x0 DUP1 RETURNDATACOPY RETURNDATASIZE PUSH1 0x0 REVERT JUMPDEST POP POP JUMP JUMPDEST PUSH1 0x0 DUP2 PUSH20 0xFFFFFFFFFFFFFFFFFFFFFFFFFFFFFFFFFFFFFFFF AND BALANCE SWAP1 POP SWAP2 SWAP1 POP JUMP JUMPDEST PUSH1 0x0 DUP1 PUSH1 0x0 PUSH8 0xDE0B6B3A7640000 PUSH4 0x3B9ACA00 PUSH1 0x1 SWAP3 POP SWAP3 POP SWAP3 POP SWAP1 SWAP2 SWAP3 JUMP INVALID LOG2 PUSH5 0x6970667358 0x22 SLT KECCAK256 0x4A 0xFC PUSH32 0x4E0D7B5FC8D249BDC4BA6BB666D8B3105D97B14A435543C5B0C2DEAD064736F PUSH13 0x63430007060033000000000000 "
				},
				"gasEstimates": {
					"creation": {
						"codeDepositCost": "147800",
						"executionCost": "196",
						"totalCost": "147996"
					},
					"external": {
						"ethDelivery1(address)": "infinite",
						"ethDelivery2(address)": "infinite",
						"etherUnits()": "325",
						"getBalance(address)": "1034"
					}
				},
				"methodIdentifiers": {
					"ethDelivery1(address)": "37b3dbc1",
					"ethDelivery2(address)": "534fbd9e",
					"etherUnits()": "fd384e17",
					"getBalance(address)": "f8b2cb4f"
				}
			},
			"storageLayout": {
				"storage": [],
				"types": null
			},
			"userdoc": {
				"kind": "user",
				"methods": {},
				"version": 1
			}
		}
	}
}