{
	"chapter9/Ex9_8.sol": {
		"Ex9_7": {
			"abi": [
				{
					"inputs": [],
					"stateMutability": "payable",
					"type": "constructor"
				},
				{
					"anonymous": false,
					"inputs": [
						{
							"indexed": false,
							"internalType": "address",
							"name": "from",
							"type": "address"
						},
						{
							"indexed": false,
							"internalType": "uint256",
							"name": "amount",
							"type": "uint256"
						}
					],
					"name": "Obtain",
					"type": "event"
				},
				{
					"inputs": [
						{
							"internalType": "address",
							"name": "_address",
							"type": "address"
						}
					],
					"name": "getBalance",
					"outputs": [
						{
							"internalType": "uint256",
							"name": "",
							"type": "uint256"
						}
					],
					"stateMutability": "view",
					"type": "function"
				}
			],
			"devdoc": {
				"kind": "dev",
				"methods": {},
				"version": 1
			},
			"evm": {
				"assembly": "    /* \"chapter9/Ex9_8.sol\":72:336  contract Ex9_7 {... */\n  mstore(0x40, 0x80)\n    /* \"chapter9/Ex9_8.sol\":180:209  Obtain(msg.sender, msg.value) */\n  0x0368838220383a15f8cb55f018fd7c72a2a7b39241ce69b3633d92b2dcb3aca7\n    /* \"chapter9/Ex9_8.sol\":187:197  msg.sender */\n  caller\n    /* \"chapter9/Ex9_8.sol\":199:208  msg.value */\n  callvalue\n    /* \"chapter9/Ex9_8.sol\":180:209  Obtain(msg.sender, msg.value) */\n  mload(0x40)\n  tag_3\n  swap3\n  swap2\n  swap1\n  tag_4\n  jump\t// in\ntag_3:\n  mload(0x40)\n  dup1\n  swap2\n  sub\n  swap1\n  log1\n    /* \"chapter9/Ex9_8.sol\":72:336  contract Ex9_7 {... */\n  jump(tag_5)\n    /* \"#utility.yul\":7:133   */\ntag_6:\n    /* \"#utility.yul\":44:51   */\n  0x00\n    /* \"#utility.yul\":84:126   */\n  0xffffffffffffffffffffffffffffffffffffffff\n    /* \"#utility.yul\":77:82   */\n  dup3\n    /* \"#utility.yul\":73:127   */\n  and\n    /* \"#utility.yul\":62:127   */\n  swap1\n  pop\n    /* \"#utility.yul\":7:133   */\n  swap2\n  swap1\n  pop\n  jump\t// out\n    /* \"#utility.yul\":139:235   */\ntag_7:\n    /* \"#utility.yul\":176:183   */\n  0x00\n    /* \"#utility.yul\":205:229   */\n  tag_14\n    /* \"#utility.yul\":223:228   */\n  dup3\n    /* \"#utility.yul\":205:229   */\n  tag_6\n  jump\t// in\ntag_14:\n    /* \"#utility.yul\":194:229   */\n  swap1\n  pop\n    /* \"#utility.yul\":139:235   */\n  swap2\n  swap1\n  pop\n  jump\t// out\n    /* \"#utility.yul\":241:359   */\ntag_8:\n    /* \"#utility.yul\":328:352   */\n  tag_16\n    /* \"#utility.yul\":346:351   */\n  dup2\n    /* \"#utility.yul\":328:352   */\n  tag_7\n  jump\t// in\ntag_16:\n    /* \"#utility.yul\":323:326   */\n  dup3\n    /* \"#utility.yul\":316:353   */\n  mstore\n    /* \"#utility.yul\":241:359   */\n  pop\n  pop\n  jump\t// out\n    /* \"#utility.yul\":365:442   */\ntag_9:\n    /* \"#utility.yul\":402:409   */\n  0x00\n    /* \"#utility.yul\":431:436   */\n  dup2\n    /* \"#utility.yul\":420:436   */\n  swap1\n  pop\n    /* \"#utility.yul\":365:442   */\n  swap2\n  swap1\n  pop\n  jump\t// out\n    /* \"#utility.yul\":448:566   */\ntag_10:\n    /* \"#utility.yul\":535:559   */\n  tag_19\n    /* \"#utility.yul\":553:558   */\n  dup2\n    /* \"#utility.yul\":535:559   */\n  tag_9\n  jump\t// in\ntag_19:\n    /* \"#utility.yul\":530:533   */\n  dup3\n    /* \"#utility.yul\":523:560   */\n  mstore\n    /* \"#utility.yul\":448:566   */\n  pop\n  pop\n  jump\t// out\n    /* \"#utility.yul\":572:904   */\ntag_4:\n    /* \"#utility.yul\":693:697   */\n  0x00\n    /* \"#utility.yul\":731:733   */\n  0x40\n    /* \"#utility.yul\":720:729   */\n  dup3\n    /* \"#utility.yul\":716:734   */\n  add\n    /* \"#utility.yul\":708:734   */\n  swap1\n  pop\n    /* \"#utility.yul\":744:815   */\n  tag_21\n    /* \"#utility.yul\":812:813   */\n  0x00\n    /* \"#utility.yul\":801:810   */\n  dup4\n    /* \"#utility.yul\":797:814   */\n  add\n    /* \"#utility.yul\":788:794   */\n  dup6\n    /* \"#utility.yul\":744:815   */\n  tag_8\n  jump\t// in\ntag_21:\n    /* \"#utility.yul\":825:897   */\n  tag_22\n    /* \"#utility.yul\":893:895   */\n  0x20\n    /* \"#utility.yul\":882:891   */\n  dup4\n    /* \"#utility.yul\":878:896   */\n  add\n    /* \"#utility.yul\":869:875   */\n  dup5\n    /* \"#utility.yul\":825:897   */\n  tag_10\n  jump\t// in\ntag_22:\n    /* \"#utility.yul\":572:904   */\n  swap4\n  swap3\n  pop\n  pop\n  pop\n  jump\t// out\n    /* \"chapter9/Ex9_8.sol\":72:336  contract Ex9_7 {... */\ntag_5:\n  dataSize(sub_0)\n  dup1\n  dataOffset(sub_0)\n  0x00\n  codecopy\n  0x00\n  return\nstop\n\nsub_0: assembly {\n        /* \"chapter9/Ex9_8.sol\":72:336  contract Ex9_7 {... */\n      mstore(0x40, 0x80)\n      callvalue\n      dup1\n      iszero\n      tag_1\n      jumpi\n      0x00\n      dup1\n      revert\n    tag_1:\n      pop\n      jumpi(tag_2, lt(calldatasize, 0x04))\n      shr(0xe0, calldataload(0x00))\n      dup1\n      0xf8b2cb4f\n      eq\n      tag_3\n      jumpi\n    tag_2:\n      0x00\n      dup1\n      revert\n        /* \"chapter9/Ex9_8.sol\":225:331  function getBalance(address _address) public view returns(uint) {... */\n    tag_3:\n      tag_4\n      0x04\n      dup1\n      calldatasize\n      sub\n      dup2\n      add\n      swap1\n      tag_5\n      swap2\n      swap1\n      tag_6\n      jump\t// in\n    tag_5:\n      tag_7\n      jump\t// in\n    tag_4:\n      mload(0x40)\n      tag_8\n      swap2\n      swap1\n      tag_9\n      jump\t// in\n    tag_8:\n      mload(0x40)\n      dup1\n      swap2\n      sub\n      swap1\n      return\n    tag_7:\n        /* \"chapter9/Ex9_8.sol\":283:287  uint */\n      0x00\n        /* \"chapter9/Ex9_8.sol\":307:315  _address */\n      dup2\n        /* \"chapter9/Ex9_8.sol\":307:323  _address.balance */\n      0xffffffffffffffffffffffffffffffffffffffff\n      and\n      balance\n        /* \"chapter9/Ex9_8.sol\":300:323  return _address.balance */\n      swap1\n      pop\n        /* \"chapter9/Ex9_8.sol\":225:331  function getBalance(address _address) public view returns(uint) {... */\n      swap2\n      swap1\n      pop\n      jump\t// out\n        /* \"#utility.yul\":88:205   */\n    tag_12:\n        /* \"#utility.yul\":197:198   */\n      0x00\n        /* \"#utility.yul\":194:195   */\n      dup1\n        /* \"#utility.yul\":187:199   */\n      revert\n        /* \"#utility.yul\":334:460   */\n    tag_14:\n        /* \"#utility.yul\":371:378   */\n      0x00\n        /* \"#utility.yul\":411:453   */\n      0xffffffffffffffffffffffffffffffffffffffff\n        /* \"#utility.yul\":404:409   */\n      dup3\n        /* \"#utility.yul\":400:454   */\n      and\n        /* \"#utility.yul\":389:454   */\n      swap1\n      pop\n        /* \"#utility.yul\":334:460   */\n      swap2\n      swap1\n      pop\n      jump\t// out\n        /* \"#utility.yul\":466:562   */\n    tag_15:\n        /* \"#utility.yul\":503:510   */\n      0x00\n        /* \"#utility.yul\":532:556   */\n      tag_26\n        /* \"#utility.yul\":550:555   */\n      dup3\n        /* \"#utility.yul\":532:556   */\n      tag_14\n      jump\t// in\n    tag_26:\n        /* \"#utility.yul\":521:556   */\n      swap1\n      pop\n        /* \"#utility.yul\":466:562   */\n      swap2\n      swap1\n      pop\n      jump\t// out\n        /* \"#utility.yul\":568:690   */\n    tag_16:\n        /* \"#utility.yul\":641:665   */\n      tag_28\n        /* \"#utility.yul\":659:664   */\n      dup2\n        /* \"#utility.yul\":641:665   */\n      tag_15\n      jump\t// in\n    tag_28:\n        /* \"#utility.yul\":634:639   */\n      dup2\n        /* \"#utility.yul\":631:666   */\n      eq\n        /* \"#utility.yul\":621:684   */\n      tag_29\n      jumpi\n        /* \"#utility.yul\":680:681   */\n      0x00\n        /* \"#utility.yul\":677:678   */\n      dup1\n        /* \"#utility.yul\":670:682   */\n      revert\n        /* \"#utility.yul\":621:684   */\n    tag_29:\n        /* \"#utility.yul\":568:690   */\n      pop\n      jump\t// out\n        /* \"#utility.yul\":696:835   */\n    tag_17:\n        /* \"#utility.yul\":742:747   */\n      0x00\n        /* \"#utility.yul\":780:786   */\n      dup2\n        /* \"#utility.yul\":767:787   */\n      calldataload\n        /* \"#utility.yul\":758:787   */\n      swap1\n      pop\n        /* \"#utility.yul\":796:829   */\n      tag_31\n        /* \"#utility.yul\":823:828   */\n      dup2\n        /* \"#utility.yul\":796:829   */\n      tag_16\n      jump\t// in\n    tag_31:\n        /* \"#utility.yul\":696:835   */\n      swap3\n      swap2\n      pop\n      pop\n      jump\t// out\n        /* \"#utility.yul\":841:1170   */\n    tag_6:\n        /* \"#utility.yul\":900:906   */\n      0x00\n        /* \"#utility.yul\":949:951   */\n      0x20\n        /* \"#utility.yul\":937:946   */\n      dup3\n        /* \"#utility.yul\":928:935   */\n      dup5\n        /* \"#utility.yul\":924:947   */\n      sub\n        /* \"#utility.yul\":920:952   */\n      slt\n        /* \"#utility.yul\":917:1036   */\n      iszero\n      tag_33\n      jumpi\n        /* \"#utility.yul\":955:1034   */\n      tag_34\n      tag_12\n      jump\t// in\n    tag_34:\n        /* \"#utility.yul\":917:1036   */\n    tag_33:\n        /* \"#utility.yul\":1075:1076   */\n      0x00\n        /* \"#utility.yul\":1100:1153   */\n      tag_35\n        /* \"#utility.yul\":1145:1152   */\n      dup5\n        /* \"#utility.yul\":1136:1142   */\n      dup3\n        /* \"#utility.yul\":1125:1134   */\n      dup6\n        /* \"#utility.yul\":1121:1143   */\n      add\n        /* \"#utility.yul\":1100:1153   */\n      tag_17\n      jump\t// in\n    tag_35:\n        /* \"#utility.yul\":1090:1153   */\n      swap2\n      pop\n        /* \"#utility.yul\":1046:1163   */\n      pop\n        /* \"#utility.yul\":841:1170   */\n      swap3\n      swap2\n      pop\n      pop\n      jump\t// out\n        /* \"#utility.yul\":1176:1253   */\n    tag_18:\n        /* \"#utility.yul\":1213:1220   */\n      0x00\n        /* \"#utility.yul\":1242:1247   */\n      dup2\n        /* \"#utility.yul\":1231:1247   */\n      swap1\n      pop\n        /* \"#utility.yul\":1176:1253   */\n      swap2\n      swap1\n      pop\n      jump\t// out\n        /* \"#utility.yul\":1259:1377   */\n    tag_19:\n        /* \"#utility.yul\":1346:1370   */\n      tag_38\n        /* \"#utility.yul\":1364:1369   */\n      dup2\n        /* \"#utility.yul\":1346:1370   */\n      tag_18\n      jump\t// in\n    tag_38:\n        /* \"#utility.yul\":1341:1344   */\n      dup3\n        /* \"#utility.yul\":1334:1371   */\n      mstore\n        /* \"#utility.yul\":1259:1377   */\n      pop\n      pop\n      jump\t// out\n        /* \"#utility.yul\":1383:1605   */\n    tag_9:\n        /* \"#utility.yul\":1476:1480   */\n      0x00\n        /* \"#utility.yul\":1514:1516   */\n      0x20\n        /* \"#utility.yul\":1503:1512   */\n      dup3\n        /* \"#utility.yul\":1499:1517   */\n      add\n        /* \"#utility.yul\":1491:1517   */\n      swap1\n      pop\n        /* \"#utility.yul\":1527:1598   */\n      tag_40\n        /* \"#utility.yul\":1595:1596   */\n      0x00\n        /* \"#utility.yul\":1584:1593   */\n      dup4\n        /* \"#utility.yul\":1580:1597   */\n      add\n        /* \"#utility.yul\":1571:1577   */\n      dup5\n        /* \"#utility.yul\":1527:1598   */\n      tag_19\n      jump\t// in\n    tag_40:\n        /* \"#utility.yul\":1383:1605   */\n      swap3\n      swap2\n      pop\n      pop\n      jump\t// out\n\n    auxdata: 0xa2646970667358221220c9d432d16765096d0dc6e17de971e810cca890a89aaa2ca1d8708f7c9cd4102664736f6c63430008170033\n}\n",
				"bytecode": {
					"linkReferences": {},
					"object": "60806040527f0368838220383a15f8cb55f018fd7c72a2a7b39241ce69b3633d92b2dcb3aca73334604051610035929190610099565b60405180910390a16100c0565b5f73ffffffffffffffffffffffffffffffffffffffff82169050919050565b5f61006b82610042565b9050919050565b61007b81610061565b82525050565b5f819050919050565b61009381610081565b82525050565b5f6040820190506100ac5f830185610072565b6100b9602083018461008a565b9392505050565b61016d806100cd5f395ff3fe608060405234801561000f575f80fd5b5060043610610029575f3560e01c8063f8b2cb4f1461002d575b5f80fd5b610047600480360381019061004291906100db565b61005d565b604051610054919061011e565b60405180910390f35b5f8173ffffffffffffffffffffffffffffffffffffffff16319050919050565b5f80fd5b5f73ffffffffffffffffffffffffffffffffffffffff82169050919050565b5f6100aa82610081565b9050919050565b6100ba816100a0565b81146100c4575f80fd5b50565b5f813590506100d5816100b1565b92915050565b5f602082840312156100f0576100ef61007d565b5b5f6100fd848285016100c7565b91505092915050565b5f819050919050565b61011881610106565b82525050565b5f6020820190506101315f83018461010f565b9291505056fea2646970667358221220c9d432d16765096d0dc6e17de971e810cca890a89aaa2ca1d8708f7c9cd4102664736f6c63430008170033",
					"opcodes": "PUSH1 0x80 PUSH1 0x40 MSTORE PUSH32 0x368838220383A15F8CB55F018FD7C72A2A7B39241CE69B3633D92B2DCB3ACA7 CALLER CALLVALUE PUSH1 0x40 MLOAD PUSH2 0x35 SWAP3 SWAP2 SWAP1 PUSH2 0x99 JUMP JUMPDEST PUSH1 0x40 MLOAD DUP1 SWAP2 SUB SWAP1 LOG1 PUSH2 0xC0 JUMP JUMPDEST PUSH0 PUSH20 0xFFFFFFFFFFFFFFFFFFFFFFFFFFFFFFFFFFFFFFFF DUP3 AND SWAP1 POP SWAP2 SWAP1 POP JUMP JUMPDEST PUSH0 PUSH2 0x6B DUP3 PUSH2 0x42 JUMP JUMPDEST SWAP1 POP SWAP2 SWAP1 POP JUMP JUMPDEST PUSH2 0x7B DUP2 PUSH2 0x61 JUMP JUMPDEST DUP3 MSTORE POP POP JUMP JUMPDEST PUSH0 DUP2 SWAP1 POP SWAP2 SWAP1 POP JUMP JUMPDEST PUSH2 0x93 DUP2 PUSH2 0x81 JUMP JUMPDEST DUP3 MSTORE POP POP JUMP JUMPDEST PUSH0 PUSH1 0x40 DUP3 ADD SWAP1 POP PUSH2 0xAC PUSH0 DUP4 ADD DUP6 PUSH2 0x72 JUMP JUMPDEST PUSH2 0xB9 PUSH1 0x20 DUP4 ADD DUP5 PUSH2 0x8A JUMP JUMPDEST SWAP4 SWAP3 POP POP POP JUMP JUMPDEST PUSH2 0x16D DUP1 PUSH2 0xCD PUSH0 CODECOPY PUSH0 RETURN INVALID PUSH1 0x80 PUSH1 0x40 MSTORE CALLVALUE DUP1 ISZERO PUSH2 0xF JUMPI PUSH0 DUP1 REVERT JUMPDEST POP PUSH1 0x4 CALLDATASIZE LT PUSH2 0x29 JUMPI PUSH0 CALLDATALOAD PUSH1 0xE0 SHR DUP1 PUSH4 0xF8B2CB4F EQ PUSH2 0x2D JUMPI JUMPDEST PUSH0 DUP1 REVERT JUMPDEST PUSH2 0x47 PUSH1 0x4 DUP1 CALLDATASIZE SUB DUP2 ADD SWAP1 PUSH2 0x42 SWAP2 SWAP1 PUSH2 0xDB JUMP JUMPDEST PUSH2 0x5D JUMP JUMPDEST PUSH1 0x40 MLOAD PUSH2 0x54 SWAP2 SWAP1 PUSH2 0x11E JUMP JUMPDEST PUSH1 0x40 MLOAD DUP1 SWAP2 SUB SWAP1 RETURN JUMPDEST PUSH0 DUP2 PUSH20 0xFFFFFFFFFFFFFFFFFFFFFFFFFFFFFFFFFFFFFFFF AND BALANCE SWAP1 POP SWAP2 SWAP1 POP JUMP JUMPDEST PUSH0 DUP1 REVERT JUMPDEST PUSH0 PUSH20 0xFFFFFFFFFFFFFFFFFFFFFFFFFFFFFFFFFFFFFFFF DUP3 AND SWAP1 POP SWAP2 SWAP1 POP JUMP JUMPDEST PUSH0 PUSH2 0xAA DUP3 PUSH2 0x81 JUMP JUMPDEST SWAP1 POP SWAP2 SWAP1 POP JUMP JUMPDEST PUSH2 0xBA DUP2 PUSH2 0xA0 JUMP JUMPDEST DUP2 EQ PUSH2 0xC4 JUMPI PUSH0 DUP1 REVERT JUMPDEST POP JUMP JUMPDEST PUSH0 DUP2 CALLDATALOAD SWAP1 POP PUSH2 0xD5 DUP2 PUSH2 0xB1 JUMP JUMPDEST SWAP3 SWAP2 POP POP JUMP JUMPDEST PUSH0 PUSH1 0x20 DUP3 DUP5 SUB SLT ISZERO PUSH2 0xF0 JUMPI PUSH2 0xEF PUSH2 0x7D JUMP JUMPDEST JUMPDEST PUSH0 PUSH2 0xFD DUP5 DUP3 DUP6 ADD PUSH2 0xC7 JUMP JUMPDEST SWAP2 POP POP SWAP3 SWAP2 POP POP JUMP JUMPDEST PUSH0 DUP2 SWAP1 POP SWAP2 SWAP1 POP JUMP JUMPDEST PUSH2 0x118 DUP2 PUSH2 0x106 JUMP JUMPDEST DUP3 MSTORE POP POP JUMP JUMPDEST PUSH0 PUSH1 0x20 DUP3 ADD SWAP1 POP PUSH2 0x131 PUSH0 DUP4 ADD DUP5 PUSH2 0x10F JUMP JUMPDEST SWAP3 SWAP2 POP POP JUMP INVALID LOG2 PUSH5 0x6970667358 0x22 SLT KECCAK256 0xC9 0xD4 ORIGIN 0xD1 PUSH8 0x65096D0DC6E17DE9 PUSH18 0xE810CCA890A89AAA2CA1D8708F7C9CD41026 PUSH5 0x736F6C6343 STOP ADDMOD OR STOP CALLER "
				},
				"gasEstimates": {
					"creation": {
						"codeDepositCost": "73000",
						"executionCost": "1692",
						"totalCost": "74692"
					},
					"external": {
						"getBalance(address)": "3225"
					}
				},
				"methodIdentifiers": {
					"getBalance(address)": "f8b2cb4f"
				}
			},
			"storageLayout": {
				"storage": [],
				"types": null
			},
			"userdoc": {
				"kind": "user",
				"methods": {},
				"version": 1
			}
		}
	}
}