{
	"chapter9/Ex9_9.sol": {
		"Math": {
			"abi": [
				{
					"inputs": [
						{
							"internalType": "uint256",
							"name": "_num1",
							"type": "uint256"
						},
						{
							"internalType": "uint256",
							"name": "_num2",
							"type": "uint256"
						}
					],
					"name": "add",
					"outputs": [],
					"stateMutability": "nonpayable",
					"type": "function"
				},
				{
					"inputs": [],
					"name": "returnResult",
					"outputs": [
						{
							"internalType": "uint256",
							"name": "",
							"type": "uint256"
						}
					],
					"stateMutability": "view",
					"type": "function"
				}
			],
			"devdoc": {
				"kind": "dev",
				"methods": {},
				"version": 1
			},
			"evm": {
				"assembly": "    /* \"chapter9/Ex9_9.sol\":72:299  contract Math {... */\n  mstore(0x40, 0x80)\n    /* \"chapter9/Ex9_9.sol\":107:108  0 */\n  0x00\n    /* \"chapter9/Ex9_9.sol\":93:108  uint result = 0 */\n  dup1\n  sstore\n    /* \"chapter9/Ex9_9.sol\":72:299  contract Math {... */\n  callvalue\n  dup1\n  iszero\n  tag_1\n  jumpi\n  0x00\n  dup1\n  revert\ntag_1:\n  pop\n  dataSize(sub_0)\n  dup1\n  dataOffset(sub_0)\n  0x00\n  codecopy\n  0x00\n  return\nstop\n\nsub_0: assembly {\n        /* \"chapter9/Ex9_9.sol\":72:299  contract Math {... */\n      mstore(0x40, 0x80)\n      callvalue\n      dup1\n      iszero\n      tag_1\n      jumpi\n      0x00\n      dup1\n      revert\n    tag_1:\n      pop\n      jumpi(tag_2, lt(calldatasize, 0x04))\n      shr(0xe0, calldataload(0x00))\n      dup1\n      0x1801a346\n      eq\n      tag_3\n      jumpi\n      dup1\n      0x771602f7\n      eq\n      tag_4\n      jumpi\n    tag_2:\n      0x00\n      dup1\n      revert\n        /* \"chapter9/Ex9_9.sol\":214:296  function returnResult() public view returns(uint) {... */\n    tag_3:\n      tag_5\n      tag_6\n      jump\t// in\n    tag_5:\n      mload(0x40)\n      tag_7\n      swap2\n      swap1\n      tag_8\n      jump\t// in\n    tag_7:\n      mload(0x40)\n      dup1\n      swap2\n      sub\n      swap1\n      return\n        /* \"chapter9/Ex9_9.sol\":115:206  function add(uint256 _num1, uint256 _num2) public {... */\n    tag_4:\n      tag_9\n      0x04\n      dup1\n      calldatasize\n      sub\n      dup2\n      add\n      swap1\n      tag_10\n      swap2\n      swap1\n      tag_11\n      jump\t// in\n    tag_10:\n      tag_12\n      jump\t// in\n    tag_9:\n      stop\n        /* \"chapter9/Ex9_9.sol\":214:296  function returnResult() public view returns(uint) {... */\n    tag_6:\n        /* \"chapter9/Ex9_9.sol\":258:262  uint */\n      0x00\n        /* \"chapter9/Ex9_9.sol\":282:288  result */\n      dup1\n      sload\n        /* \"chapter9/Ex9_9.sol\":275:288  return result */\n      swap1\n      pop\n        /* \"chapter9/Ex9_9.sol\":214:296  function returnResult() public view returns(uint) {... */\n      swap1\n      jump\t// out\n        /* \"chapter9/Ex9_9.sol\":115:206  function add(uint256 _num1, uint256 _num2) public {... */\n    tag_12:\n        /* \"chapter9/Ex9_9.sol\":193:198  _num2 */\n      dup1\n        /* \"chapter9/Ex9_9.sol\":185:190  _num1 */\n      dup3\n        /* \"chapter9/Ex9_9.sol\":185:198  _num1 + _num2 */\n      tag_15\n      swap2\n      swap1\n      tag_16\n      jump\t// in\n    tag_15:\n        /* \"chapter9/Ex9_9.sol\":176:182  result */\n      0x00\n        /* \"chapter9/Ex9_9.sol\":176:198  result = _num1 + _num2 */\n      dup2\n      swap1\n      sstore\n      pop\n        /* \"chapter9/Ex9_9.sol\":115:206  function add(uint256 _num1, uint256 _num2) public {... */\n      pop\n      pop\n      jump\t// out\n        /* \"#utility.yul\":7:84   */\n    tag_17:\n        /* \"#utility.yul\":44:51   */\n      0x00\n        /* \"#utility.yul\":73:78   */\n      dup2\n        /* \"#utility.yul\":62:78   */\n      swap1\n      pop\n        /* \"#utility.yul\":7:84   */\n      swap2\n      swap1\n      pop\n      jump\t// out\n        /* \"#utility.yul\":90:208   */\n    tag_18:\n        /* \"#utility.yul\":177:201   */\n      tag_28\n        /* \"#utility.yul\":195:200   */\n      dup2\n        /* \"#utility.yul\":177:201   */\n      tag_17\n      jump\t// in\n    tag_28:\n        /* \"#utility.yul\":172:175   */\n      dup3\n        /* \"#utility.yul\":165:202   */\n      mstore\n        /* \"#utility.yul\":90:208   */\n      pop\n      pop\n      jump\t// out\n        /* \"#utility.yul\":214:436   */\n    tag_8:\n        /* \"#utility.yul\":307:311   */\n      0x00\n        /* \"#utility.yul\":345:347   */\n      0x20\n        /* \"#utility.yul\":334:343   */\n      dup3\n        /* \"#utility.yul\":330:348   */\n      add\n        /* \"#utility.yul\":322:348   */\n      swap1\n      pop\n        /* \"#utility.yul\":358:429   */\n      tag_30\n        /* \"#utility.yul\":426:427   */\n      0x00\n        /* \"#utility.yul\":415:424   */\n      dup4\n        /* \"#utility.yul\":411:428   */\n      add\n        /* \"#utility.yul\":402:408   */\n      dup5\n        /* \"#utility.yul\":358:429   */\n      tag_18\n      jump\t// in\n    tag_30:\n        /* \"#utility.yul\":214:436   */\n      swap3\n      swap2\n      pop\n      pop\n      jump\t// out\n        /* \"#utility.yul\":523:640   */\n    tag_20:\n        /* \"#utility.yul\":632:633   */\n      0x00\n        /* \"#utility.yul\":629:630   */\n      dup1\n        /* \"#utility.yul\":622:634   */\n      revert\n        /* \"#utility.yul\":769:891   */\n    tag_22:\n        /* \"#utility.yul\":842:866   */\n      tag_35\n        /* \"#utility.yul\":860:865   */\n      dup2\n        /* \"#utility.yul\":842:866   */\n      tag_17\n      jump\t// in\n    tag_35:\n        /* \"#utility.yul\":835:840   */\n      dup2\n        /* \"#utility.yul\":832:867   */\n      eq\n        /* \"#utility.yul\":822:885   */\n      tag_36\n      jumpi\n        /* \"#utility.yul\":881:882   */\n      0x00\n        /* \"#utility.yul\":878:879   */\n      dup1\n        /* \"#utility.yul\":871:883   */\n      revert\n        /* \"#utility.yul\":822:885   */\n    tag_36:\n        /* \"#utility.yul\":769:891   */\n      pop\n      jump\t// out\n        /* \"#utility.yul\":897:1036   */\n    tag_23:\n        /* \"#utility.yul\":943:948   */\n      0x00\n        /* \"#utility.yul\":981:987   */\n      dup2\n        /* \"#utility.yul\":968:988   */\n      calldataload\n        /* \"#utility.yul\":959:988   */\n      swap1\n      pop\n        /* \"#utility.yul\":997:1030   */\n      tag_38\n        /* \"#utility.yul\":1024:1029   */\n      dup2\n        /* \"#utility.yul\":997:1030   */\n      tag_22\n      jump\t// in\n    tag_38:\n        /* \"#utility.yul\":897:1036   */\n      swap3\n      swap2\n      pop\n      pop\n      jump\t// out\n        /* \"#utility.yul\":1042:1516   */\n    tag_11:\n        /* \"#utility.yul\":1110:1116   */\n      0x00\n        /* \"#utility.yul\":1118:1124   */\n      dup1\n        /* \"#utility.yul\":1167:1169   */\n      0x40\n        /* \"#utility.yul\":1155:1164   */\n      dup4\n        /* \"#utility.yul\":1146:1153   */\n      dup6\n        /* \"#utility.yul\":1142:1165   */\n      sub\n        /* \"#utility.yul\":1138:1170   */\n      slt\n        /* \"#utility.yul\":1135:1254   */\n      iszero\n      tag_40\n      jumpi\n        /* \"#utility.yul\":1173:1252   */\n      tag_41\n      tag_20\n      jump\t// in\n    tag_41:\n        /* \"#utility.yul\":1135:1254   */\n    tag_40:\n        /* \"#utility.yul\":1293:1294   */\n      0x00\n        /* \"#utility.yul\":1318:1371   */\n      tag_42\n        /* \"#utility.yul\":1363:1370   */\n      dup6\n        /* \"#utility.yul\":1354:1360   */\n      dup3\n        /* \"#utility.yul\":1343:1352   */\n      dup7\n        /* \"#utility.yul\":1339:1361   */\n      add\n        /* \"#utility.yul\":1318:1371   */\n      tag_23\n      jump\t// in\n    tag_42:\n        /* \"#utility.yul\":1308:1371   */\n      swap3\n      pop\n        /* \"#utility.yul\":1264:1381   */\n      pop\n        /* \"#utility.yul\":1420:1422   */\n      0x20\n        /* \"#utility.yul\":1446:1499   */\n      tag_43\n        /* \"#utility.yul\":1491:1498   */\n      dup6\n        /* \"#utility.yul\":1482:1488   */\n      dup3\n        /* \"#utility.yul\":1471:1480   */\n      dup7\n        /* \"#utility.yul\":1467:1489   */\n      add\n        /* \"#utility.yul\":1446:1499   */\n      tag_23\n      jump\t// in\n    tag_43:\n        /* \"#utility.yul\":1436:1499   */\n      swap2\n      pop\n        /* \"#utility.yul\":1391:1509   */\n      pop\n        /* \"#utility.yul\":1042:1516   */\n      swap3\n      pop\n      swap3\n      swap1\n      pop\n      jump\t// out\n        /* \"#utility.yul\":1522:1702   */\n    tag_24:\n        /* \"#utility.yul\":1570:1647   */\n      0x4e487b7100000000000000000000000000000000000000000000000000000000\n        /* \"#utility.yul\":1567:1568   */\n      0x00\n        /* \"#utility.yul\":1560:1648   */\n      mstore\n        /* \"#utility.yul\":1667:1671   */\n      0x11\n        /* \"#utility.yul\":1664:1665   */\n      0x04\n        /* \"#utility.yul\":1657:1672   */\n      mstore\n        /* \"#utility.yul\":1691:1695   */\n      0x24\n        /* \"#utility.yul\":1688:1689   */\n      0x00\n        /* \"#utility.yul\":1681:1696   */\n      revert\n        /* \"#utility.yul\":1708:1899   */\n    tag_16:\n        /* \"#utility.yul\":1748:1751   */\n      0x00\n        /* \"#utility.yul\":1767:1787   */\n      tag_46\n        /* \"#utility.yul\":1785:1786   */\n      dup3\n        /* \"#utility.yul\":1767:1787   */\n      tag_17\n      jump\t// in\n    tag_46:\n        /* \"#utility.yul\":1762:1787   */\n      swap2\n      pop\n        /* \"#utility.yul\":1801:1821   */\n      tag_47\n        /* \"#utility.yul\":1819:1820   */\n      dup4\n        /* \"#utility.yul\":1801:1821   */\n      tag_17\n      jump\t// in\n    tag_47:\n        /* \"#utility.yul\":1796:1821   */\n      swap3\n      pop\n        /* \"#utility.yul\":1844:1845   */\n      dup3\n        /* \"#utility.yul\":1841:1842   */\n      dup3\n        /* \"#utility.yul\":1837:1846   */\n      add\n        /* \"#utility.yul\":1830:1846   */\n      swap1\n      pop\n        /* \"#utility.yul\":1865:1868   */\n      dup1\n        /* \"#utility.yul\":1862:1863   */\n      dup3\n        /* \"#utility.yul\":1859:1869   */\n      gt\n        /* \"#utility.yul\":1856:1892   */\n      iszero\n      tag_48\n      jumpi\n        /* \"#utility.yul\":1872:1890   */\n      tag_49\n      tag_24\n      jump\t// in\n    tag_49:\n        /* \"#utility.yul\":1856:1892   */\n    tag_48:\n        /* \"#utility.yul\":1708:1899   */\n      swap3\n      swap2\n      pop\n      pop\n      jump\t// out\n\n    auxdata: 0xa2646970667358221220d8f5ed9338bec485e00eae972360b45f530e7b384bc2dc2bcd5171bf6d961ca564736f6c63430008170033\n}\n",
				"bytecode": {
					"linkReferences": {},
					"object": "60806040525f8055348015610012575f80fd5b506101c2806100205f395ff3fe608060405234801561000f575f80fd5b5060043610610034575f3560e01c80631801a34614610038578063771602f714610056575b5f80fd5b610040610072565b60405161004d91906100a7565b60405180910390f35b610070600480360381019061006b91906100ee565b61007a565b005b5f8054905090565b80826100869190610159565b5f819055505050565b5f819050919050565b6100a18161008f565b82525050565b5f6020820190506100ba5f830184610098565b92915050565b5f80fd5b6100cd8161008f565b81146100d7575f80fd5b50565b5f813590506100e8816100c4565b92915050565b5f8060408385031215610104576101036100c0565b5b5f610111858286016100da565b9250506020610122858286016100da565b9150509250929050565b7f4e487b71000000000000000000000000000000000000000000000000000000005f52601160045260245ffd5b5f6101638261008f565b915061016e8361008f565b92508282019050808211156101865761018561012c565b5b9291505056fea2646970667358221220d8f5ed9338bec485e00eae972360b45f530e7b384bc2dc2bcd5171bf6d961ca564736f6c63430008170033",
					"opcodes": "PUSH1 0x80 PUSH1 0x40 MSTORE PUSH0 DUP1 SSTORE CALLVALUE DUP1 ISZERO PUSH2 0x12 JUMPI PUSH0 DUP1 REVERT JUMPDEST POP PUSH2 0x1C2 DUP1 PUSH2 0x20 PUSH0 CODECOPY PUSH0 RETURN INVALID PUSH1 0x80 PUSH1 0x40 MSTORE CALLVALUE DUP1 ISZERO PUSH2 0xF JUMPI PUSH0 DUP1 REVERT JUMPDEST POP PUSH1 0x4 CALLDATASIZE LT PUSH2 0x34 JUMPI PUSH0 CALLDATALOAD PUSH1 0xE0 SHR DUP1 PUSH4 0x1801A346 EQ PUSH2 0x38 JUMPI DUP1 PUSH4 0x771602F7 EQ PUSH2 0x56 JUMPI JUMPDEST PUSH0 DUP1 REVERT JUMPDEST PUSH2 0x40 PUSH2 0x72 JUMP JUMPDEST PUSH1 0x40 MLOAD PUSH2 0x4D SWAP2 SWAP1 PUSH2 0xA7 JUMP JUMPDEST PUSH1 0x40 MLOAD DUP1 SWAP2 SUB SWAP1 RETURN JUMPDEST PUSH2 0x70 PUSH1 0x4 DUP1 CALLDATASIZE SUB DUP2 ADD SWAP1 PUSH2 0x6B SWAP2 SWAP1 PUSH2 0xEE JUMP JUMPDEST PUSH2 0x7A JUMP JUMPDEST STOP JUMPDEST PUSH0 DUP1 SLOAD SWAP1 POP SWAP1 JUMP JUMPDEST DUP1 DUP3 PUSH2 0x86 SWAP2 SWAP1 PUSH2 0x159 JUMP JUMPDEST PUSH0 DUP2 SWAP1 SSTORE POP POP POP JUMP JUMPDEST PUSH0 DUP2 SWAP1 POP SWAP2 SWAP1 POP JUMP JUMPDEST PUSH2 0xA1 DUP2 PUSH2 0x8F JUMP JUMPDEST DUP3 MSTORE POP POP JUMP JUMPDEST PUSH0 PUSH1 0x20 DUP3 ADD SWAP1 POP PUSH2 0xBA PUSH0 DUP4 ADD DUP5 PUSH2 0x98 JUMP JUMPDEST SWAP3 SWAP2 POP POP JUMP JUMPDEST PUSH0 DUP1 REVERT JUMPDEST PUSH2 0xCD DUP2 PUSH2 0x8F JUMP JUMPDEST DUP2 EQ PUSH2 0xD7 JUMPI PUSH0 DUP1 REVERT JUMPDEST POP JUMP JUMPDEST PUSH0 DUP2 CALLDATALOAD SWAP1 POP PUSH2 0xE8 DUP2 PUSH2 0xC4 JUMP JUMPDEST SWAP3 SWAP2 POP POP JUMP JUMPDEST PUSH0 DUP1 PUSH1 0x40 DUP4 DUP6 SUB SLT ISZERO PUSH2 0x104 JUMPI PUSH2 0x103 PUSH2 0xC0 JUMP JUMPDEST JUMPDEST PUSH0 PUSH2 0x111 DUP6 DUP3 DUP7 ADD PUSH2 0xDA JUMP JUMPDEST SWAP3 POP POP PUSH1 0x20 PUSH2 0x122 DUP6 DUP3 DUP7 ADD PUSH2 0xDA JUMP JUMPDEST SWAP2 POP POP SWAP3 POP SWAP3 SWAP1 POP JUMP JUMPDEST PUSH32 0x4E487B7100000000000000000000000000000000000000000000000000000000 PUSH0 MSTORE PUSH1 0x11 PUSH1 0x4 MSTORE PUSH1 0x24 PUSH0 REVERT JUMPDEST PUSH0 PUSH2 0x163 DUP3 PUSH2 0x8F JUMP JUMPDEST SWAP2 POP PUSH2 0x16E DUP4 PUSH2 0x8F JUMP JUMPDEST SWAP3 POP DUP3 DUP3 ADD SWAP1 POP DUP1 DUP3 GT ISZERO PUSH2 0x186 JUMPI PUSH2 0x185 PUSH2 0x12C JUMP JUMPDEST JUMPDEST SWAP3 SWAP2 POP POP JUMP INVALID LOG2 PUSH5 0x6970667358 0x22 SLT KECCAK256 0xD8 CREATE2 0xED SWAP4 CODESIZE 0xBE 0xC4 DUP6 0xE0 0xE 0xAE SWAP8 0x23 PUSH1 0xB4 PUSH0 MSTORE8 0xE PUSH28 0x384BC2DC2BCD5171BF6D961CA564736F6C6343000817003300000000 "
				},
				"gasEstimates": {
					"creation": {
						"codeDepositCost": "90000",
						"executionCost": "5144",
						"totalCost": "95144"
					},
					"external": {
						"add(uint256,uint256)": "infinite",
						"returnResult()": "2410"
					}
				},
				"methodIdentifiers": {
					"add(uint256,uint256)": "771602f7",
					"returnResult()": "1801a346"
				}
			},
			"storageLayout": {
				"storage": [
					{
						"astId": 4,
						"contract": "chapter9/Ex9_9.sol:Math",
						"label": "result",
						"offset": 0,
						"slot": "0",
						"type": "t_uint256"
					}
				],
				"types": {
					"t_uint256": {
						"encoding": "inplace",
						"label": "uint256",
						"numberOfBytes": "32"
					}
				}
			},
			"userdoc": {
				"kind": "user",
				"methods": {},
				"version": 1
			}
		}
	}
}