{
	"data": {
		"bytecode": {
			"linkReferences": {},
			"object": "608060405234801561000f575f80fd5b506107238061001d5f395ff3fe608060405234801561000f575f80fd5b5060043610610029575f3560e01c806344a034cd1461002d575b5f80fd5b61003561004b565b60405161004291906103ce565b60405180910390f35b60605f8061005991906101f0565b5f8060018154018082558091505060019003905f5260205f20015f6040518060400160405280600781526020017f456e676c69736800000000000000000000000000000000000000000000000000815250909190915090816100bb919061061e565b505f8060018154018082558091505060019003905f5260205f20015f6040518060400160405280600581526020017f4d757369630000000000000000000000000000000000000000000000000000008152509091909150908161011e919061061e565b505f805480602002602001604051908101604052809291908181526020015f905b828210156101e7578382905f5260205f2001805461015c90610448565b80601f016020809104026020016040519081016040528092919081815260200182805461018890610448565b80156101d35780601f106101aa576101008083540402835291602001916101d3565b820191905f5260205f20905b8154815290600101906020018083116101b657829003601f168201915b50505050508152602001906001019061013f565b50505050905090565b5080545f8255905f5260205f209081019061020b919061020e565b50565b5b8082111561022d575f81816102249190610231565b5060010161020f565b5090565b50805461023d90610448565b5f825580601f1061024e575061026b565b601f0160209004905f5260205f209081019061026a919061026e565b5b50565b5b80821115610285575f815f90555060010161026f565b5090565b5f81519050919050565b5f82825260208201905092915050565b5f819050602082019050919050565b5f81519050919050565b5f82825260208201905092915050565b5f5b838110156102e95780820151818401526020810190506102ce565b5f8484015250505050565b5f601f19601f8301169050919050565b5f61030e826102b2565b61031881856102bc565b93506103288185602086016102cc565b610331816102f4565b840191505092915050565b5f6103478383610304565b905092915050565b5f602082019050919050565b5f61036582610289565b61036f8185610293565b935083602082028501610381856102a3565b805f5b858110156103bc578484038952815161039d858261033c565b94506103a88361034f565b925060208a01995050600181019050610384565b50829750879550505050505092915050565b5f6020820190508181035f8301526103e6818461035b565b905092915050565b7f4e487b71000000000000000000000000000000000000000000000000000000005f52604160045260245ffd5b7f4e487b71000000000000000000000000000000000000000000000000000000005f52602260045260245ffd5b5f600282049050600182168061045f57607f821691505b6020821081036104725761047161041b565b5b50919050565b5f819050815f5260205f209050919050565b5f6020601f8301049050919050565b5f82821b905092915050565b5f600883026104d47fffffffffffffffffffffffffffffffffffffffffffffffffffffffffffffffff82610499565b6104de8683610499565b95508019841693508086168417925050509392505050565b5f819050919050565b5f819050919050565b5f61052261051d610518846104f6565b6104ff565b6104f6565b9050919050565b5f819050919050565b61053b83610508565b61054f61054782610529565b8484546104a5565b825550505050565b5f90565b610563610557565b61056e818484610532565b505050565b5b81811015610591576105865f8261055b565b600181019050610574565b5050565b601f8211156105d6576105a781610478565b6105b08461048a565b810160208510156105bf578190505b6105d36105cb8561048a565b830182610573565b50505b505050565b5f82821c905092915050565b5f6105f65f19846008026105db565b1980831691505092915050565b5f61060e83836105e7565b9150826002028217905092915050565b610627826102b2565b67ffffffffffffffff8111156106405761063f6103ee565b5b61064a8254610448565b610655828285610595565b5f60209050601f831160018114610686575f8415610674578287015190505b61067e8582610603565b8655506106e5565b601f19841661069486610478565b5f5b828110156106bb57848901518255600182019150602085019450602081019050610696565b868310156106d857848901516106d4601f8916826105e7565b8355505b6001600288020188555050505b50505050505056fea2646970667358221220c08f96277c22b729d7124f30f37ecbb4d111da6ca172cc82ca870b0de380bd6264736f6c63430008170033",
			"opcodes": "PUSH1 0x80 PUSH1 0x40 MSTORE CALLVALUE DUP1 ISZERO PUSH2 0xF JUMPI PUSH0 DUP1 REVERT JUMPDEST POP PUSH2 0x723 DUP1 PUSH2 0x1D PUSH0 CODECOPY PUSH0 RETURN INVALID PUSH1 0x80 PUSH1 0x40 MSTORE CALLVALUE DUP1 ISZERO PUSH2 0xF JUMPI PUSH0 DUP1 REVERT JUMPDEST POP PUSH1 0x4 CALLDATASIZE LT PUSH2 0x29 JUMPI PUSH0 CALLDATALOAD PUSH1 0xE0 SHR DUP1 PUSH4 0x44A034CD EQ PUSH2 0x2D JUMPI JUMPDEST PUSH0 DUP1 REVERT JUMPDEST PUSH2 0x35 PUSH2 0x4B JUMP JUMPDEST PUSH1 0x40 MLOAD PUSH2 0x42 SWAP2 SWAP1 PUSH2 0x3CE JUMP JUMPDEST PUSH1 0x40 MLOAD DUP1 SWAP2 SUB SWAP1 RETURN JUMPDEST PUSH1 0x60 PUSH0 DUP1 PUSH2 0x59 SWAP2 SWAP1 PUSH2 0x1F0 JUMP JUMPDEST PUSH0 DUP1 PUSH1 0x1 DUP2 SLOAD ADD DUP1 DUP3 SSTORE DUP1 SWAP2 POP POP PUSH1 0x1 SWAP1 SUB SWAP1 PUSH0 MSTORE PUSH1 0x20 PUSH0 KECCAK256 ADD PUSH0 PUSH1 0x40 MLOAD DUP1 PUSH1 0x40 ADD PUSH1 0x40 MSTORE DUP1 PUSH1 0x7 DUP2 MSTORE PUSH1 0x20 ADD PUSH32 0x456E676C69736800000000000000000000000000000000000000000000000000 DUP2 MSTORE POP SWAP1 SWAP2 SWAP1 SWAP2 POP SWAP1 DUP2 PUSH2 0xBB SWAP2 SWAP1 PUSH2 0x61E JUMP JUMPDEST POP PUSH0 DUP1 PUSH1 0x1 DUP2 SLOAD ADD DUP1 DUP3 SSTORE DUP1 SWAP2 POP POP PUSH1 0x1 SWAP1 SUB SWAP1 PUSH0 MSTORE PUSH1 0x20 PUSH0 KECCAK256 ADD PUSH0 PUSH1 0x40 MLOAD DUP1 PUSH1 0x40 ADD PUSH1 0x40 MSTORE DUP1 PUSH1 0x5 DUP2 MSTORE PUSH1 0x20 ADD PUSH32 0x4D75736963000000000000000000000000000000000000000000000000000000 DUP2 MSTORE POP SWAP1 SWAP2 SWAP1 SWAP2 POP SWAP1 DUP2 PUSH2 0x11E SWAP2 SWAP1 PUSH2 0x61E JUMP JUMPDEST POP PUSH0 DUP1 SLOAD DUP1 PUSH1 0x20 MUL PUSH1 0x20 ADD PUSH1 0x40 MLOAD SWAP1 DUP2 ADD PUSH1 0x40 MSTORE DUP1 SWAP3 SWAP2 SWAP1 DUP2 DUP2 MSTORE PUSH1 0x20 ADD PUSH0 SWAP1 JUMPDEST DUP3 DUP3 LT ISZERO PUSH2 0x1E7 JUMPI DUP4 DUP3 SWAP1 PUSH0 MSTORE PUSH1 0x20 PUSH0 KECCAK256 ADD DUP1 SLOAD PUSH2 0x15C SWAP1 PUSH2 0x448 JUMP JUMPDEST DUP1 PUSH1 0x1F ADD PUSH1 0x20 DUP1 SWAP2 DIV MUL PUSH1 0x20 ADD PUSH1 0x40 MLOAD SWAP1 DUP2 ADD PUSH1 0x40 MSTORE DUP1 SWAP3 SWAP2 SWAP1 DUP2 DUP2 MSTORE PUSH1 0x20 ADD DUP3 DUP1 SLOAD PUSH2 0x188 SWAP1 PUSH2 0x448 JUMP JUMPDEST DUP1 ISZERO PUSH2 0x1D3 JUMPI DUP1 PUSH1 0x1F LT PUSH2 0x1AA JUMPI PUSH2 0x100 DUP1 DUP4 SLOAD DIV MUL DUP4 MSTORE SWAP2 PUSH1 0x20 ADD SWAP2 PUSH2 0x1D3 JUMP JUMPDEST DUP3 ADD SWAP2 SWAP1 PUSH0 MSTORE PUSH1 0x20 PUSH0 KECCAK256 SWAP1 JUMPDEST DUP2 SLOAD DUP2 MSTORE SWAP1 PUSH1 0x1 ADD SWAP1 PUSH1 0x20 ADD DUP1 DUP4 GT PUSH2 0x1B6 JUMPI DUP3 SWAP1 SUB PUSH1 0x1F AND DUP3 ADD SWAP2 JUMPDEST POP POP POP POP POP DUP2 MSTORE PUSH1 0x20 ADD SWAP1 PUSH1 0x1 ADD SWAP1 PUSH2 0x13F JUMP JUMPDEST POP POP POP POP SWAP1 POP SWAP1 JUMP JUMPDEST POP DUP1 SLOAD PUSH0 DUP3 SSTORE SWAP1 PUSH0 MSTORE PUSH1 0x20 PUSH0 KECCAK256 SWAP1 DUP2 ADD SWAP1 PUSH2 0x20B SWAP2 SWAP1 PUSH2 0x20E JUMP JUMPDEST POP JUMP JUMPDEST JUMPDEST DUP1 DUP3 GT ISZERO PUSH2 0x22D JUMPI PUSH0 DUP2 DUP2 PUSH2 0x224 SWAP2 SWAP1 PUSH2 0x231 JUMP JUMPDEST POP PUSH1 0x1 ADD PUSH2 0x20F JUMP JUMPDEST POP SWAP1 JUMP JUMPDEST POP DUP1 SLOAD PUSH2 0x23D SWAP1 PUSH2 0x448 JUMP JUMPDEST PUSH0 DUP3 SSTORE DUP1 PUSH1 0x1F LT PUSH2 0x24E JUMPI POP PUSH2 0x26B JUMP JUMPDEST PUSH1 0x1F ADD PUSH1 0x20 SWAP1 DIV SWAP1 PUSH0 MSTORE PUSH1 0x20 PUSH0 KECCAK256 SWAP1 DUP2 ADD SWAP1 PUSH2 0x26A SWAP2 SWAP1 PUSH2 0x26E JUMP JUMPDEST JUMPDEST POP JUMP JUMPDEST JUMPDEST DUP1 DUP3 GT ISZERO PUSH2 0x285 JUMPI PUSH0 DUP2 PUSH0 SWAP1 SSTORE POP PUSH1 0x1 ADD PUSH2 0x26F JUMP JUMPDEST POP SWAP1 JUMP JUMPDEST PUSH0 DUP2 MLOAD SWAP1 POP SWAP2 SWAP1 POP JUMP JUMPDEST PUSH0 DUP3 DUP3 MSTORE PUSH1 0x20 DUP3 ADD SWAP1 POP SWAP3 SWAP2 POP POP JUMP JUMPDEST PUSH0 DUP2 SWAP1 POP PUSH1 0x20 DUP3 ADD SWAP1 POP SWAP2 SWAP1 POP JUMP JUMPDEST PUSH0 DUP2 MLOAD SWAP1 POP SWAP2 SWAP1 POP JUMP JUMPDEST PUSH0 DUP3 DUP3 MSTORE PUSH1 0x20 DUP3 ADD SWAP1 POP SWAP3 SWAP2 POP POP JUMP JUMPDEST PUSH0 JUMPDEST DUP4 DUP2 LT ISZERO PUSH2 0x2E9 JUMPI DUP1 DUP3 ADD MLOAD DUP2 DUP5 ADD MSTORE PUSH1 0x20 DUP2 ADD SWAP1 POP PUSH2 0x2CE JUMP JUMPDEST PUSH0 DUP5 DUP5 ADD MSTORE POP POP POP POP JUMP JUMPDEST PUSH0 PUSH1 0x1F NOT PUSH1 0x1F DUP4 ADD AND SWAP1 POP SWAP2 SWAP1 POP JUMP JUMPDEST PUSH0 PUSH2 0x30E DUP3 PUSH2 0x2B2 JUMP JUMPDEST PUSH2 0x318 DUP2 DUP6 PUSH2 0x2BC JUMP JUMPDEST SWAP4 POP PUSH2 0x328 DUP2 DUP6 PUSH1 0x20 DUP7 ADD PUSH2 0x2CC JUMP JUMPDEST PUSH2 0x331 DUP2 PUSH2 0x2F4 JUMP JUMPDEST DUP5 ADD SWAP2 POP POP SWAP3 SWAP2 POP POP JUMP JUMPDEST PUSH0 PUSH2 0x347 DUP4 DUP4 PUSH2 0x304 JUMP JUMPDEST SWAP1 POP SWAP3 SWAP2 POP POP JUMP JUMPDEST PUSH0 PUSH1 0x20 DUP3 ADD SWAP1 POP SWAP2 SWAP1 POP JUMP JUMPDEST PUSH0 PUSH2 0x365 DUP3 PUSH2 0x289 JUMP JUMPDEST PUSH2 0x36F DUP2 DUP6 PUSH2 0x293 JUMP JUMPDEST SWAP4 POP DUP4 PUSH1 0x20 DUP3 MUL DUP6 ADD PUSH2 0x381 DUP6 PUSH2 0x2A3 JUMP JUMPDEST DUP1 PUSH0 JUMPDEST DUP6 DUP2 LT ISZERO PUSH2 0x3BC JUMPI DUP5 DUP5 SUB DUP10 MSTORE DUP2 MLOAD PUSH2 0x39D DUP6 DUP3 PUSH2 0x33C JUMP JUMPDEST SWAP5 POP PUSH2 0x3A8 DUP4 PUSH2 0x34F JUMP JUMPDEST SWAP3 POP PUSH1 0x20 DUP11 ADD SWAP10 POP POP PUSH1 0x1 DUP2 ADD SWAP1 POP PUSH2 0x384 JUMP JUMPDEST POP DUP3 SWAP8 POP DUP8 SWAP6 POP POP POP POP POP POP SWAP3 SWAP2 POP POP JUMP JUMPDEST PUSH0 PUSH1 0x20 DUP3 ADD SWAP1 POP DUP2 DUP2 SUB PUSH0 DUP4 ADD MSTORE PUSH2 0x3E6 DUP2 DUP5 PUSH2 0x35B JUMP JUMPDEST SWAP1 POP SWAP3 SWAP2 POP POP JUMP JUMPDEST PUSH32 0x4E487B7100000000000000000000000000000000000000000000000000000000 PUSH0 MSTORE PUSH1 0x41 PUSH1 0x4 MSTORE PUSH1 0x24 PUSH0 REVERT JUMPDEST PUSH32 0x4E487B7100000000000000000000000000000000000000000000000000000000 PUSH0 MSTORE PUSH1 0x22 PUSH1 0x4 MSTORE PUSH1 0x24 PUSH0 REVERT JUMPDEST PUSH0 PUSH1 0x2 DUP3 DIV SWAP1 POP PUSH1 0x1 DUP3 AND DUP1 PUSH2 0x45F JUMPI PUSH1 0x7F DUP3 AND SWAP2 POP JUMPDEST PUSH1 0x20 DUP3 LT DUP2 SUB PUSH2 0x472 JUMPI PUSH2 0x471 PUSH2 0x41B JUMP JUMPDEST JUMPDEST POP SWAP2 SWAP1 POP JUMP JUMPDEST PUSH0 DUP2 SWAP1 POP DUP2 PUSH0 MSTORE PUSH1 0x20 PUSH0 KECCAK256 SWAP1 POP SWAP2 SWAP1 POP JUMP JUMPDEST PUSH0 PUSH1 0x20 PUSH1 0x1F DUP4 ADD DIV SWAP1 POP SWAP2 SWAP1 POP JUMP JUMPDEST PUSH0 DUP3 DUP3 SHL SWAP1 POP SWAP3 SWAP2 POP POP JUMP JUMPDEST PUSH0 PUSH1 0x8 DUP4 MUL PUSH2 0x4D4 PUSH32 0xFFFFFFFFFFFFFFFFFFFFFFFFFFFFFFFFFFFFFFFFFFFFFFFFFFFFFFFFFFFFFFFF DUP3 PUSH2 0x499 JUMP JUMPDEST PUSH2 0x4DE DUP7 DUP4 PUSH2 0x499 JUMP JUMPDEST SWAP6 POP DUP1 NOT DUP5 AND SWAP4 POP DUP1 DUP7 AND DUP5 OR SWAP3 POP POP POP SWAP4 SWAP3 POP POP POP JUMP JUMPDEST PUSH0 DUP2 SWAP1 POP SWAP2 SWAP1 POP JUMP JUMPDEST PUSH0 DUP2 SWAP1 POP SWAP2 SWAP1 POP JUMP JUMPDEST PUSH0 PUSH2 0x522 PUSH2 0x51D PUSH2 0x518 DUP5 PUSH2 0x4F6 JUMP JUMPDEST PUSH2 0x4FF JUMP JUMPDEST PUSH2 0x4F6 JUMP JUMPDEST SWAP1 POP SWAP2 SWAP1 POP JUMP JUMPDEST PUSH0 DUP2 SWAP1 POP SWAP2 SWAP1 POP JUMP JUMPDEST PUSH2 0x53B DUP4 PUSH2 0x508 JUMP JUMPDEST PUSH2 0x54F PUSH2 0x547 DUP3 PUSH2 0x529 JUMP JUMPDEST DUP5 DUP5 SLOAD PUSH2 0x4A5 JUMP JUMPDEST DUP3 SSTORE POP POP POP POP JUMP JUMPDEST PUSH0 SWAP1 JUMP JUMPDEST PUSH2 0x563 PUSH2 0x557 JUMP JUMPDEST PUSH2 0x56E DUP2 DUP5 DUP5 PUSH2 0x532 JUMP JUMPDEST POP POP POP JUMP JUMPDEST JUMPDEST DUP2 DUP2 LT ISZERO PUSH2 0x591 JUMPI PUSH2 0x586 PUSH0 DUP3 PUSH2 0x55B JUMP JUMPDEST PUSH1 0x1 DUP2 ADD SWAP1 POP PUSH2 0x574 JUMP JUMPDEST POP POP JUMP JUMPDEST PUSH1 0x1F DUP3 GT ISZERO PUSH2 0x5D6 JUMPI PUSH2 0x5A7 DUP2 PUSH2 0x478 JUMP JUMPDEST PUSH2 0x5B0 DUP5 PUSH2 0x48A JUMP JUMPDEST DUP2 ADD PUSH1 0x20 DUP6 LT ISZERO PUSH2 0x5BF JUMPI DUP2 SWAP1 POP JUMPDEST PUSH2 0x5D3 PUSH2 0x5CB DUP6 PUSH2 0x48A JUMP JUMPDEST DUP4 ADD DUP3 PUSH2 0x573 JUMP JUMPDEST POP POP JUMPDEST POP POP POP JUMP JUMPDEST PUSH0 DUP3 DUP3 SHR SWAP1 POP SWAP3 SWAP2 POP POP JUMP JUMPDEST PUSH0 PUSH2 0x5F6 PUSH0 NOT DUP5 PUSH1 0x8 MUL PUSH2 0x5DB JUMP JUMPDEST NOT DUP1 DUP4 AND SWAP2 POP POP SWAP3 SWAP2 POP POP JUMP JUMPDEST PUSH0 PUSH2 0x60E DUP4 DUP4 PUSH2 0x5E7 JUMP JUMPDEST SWAP2 POP DUP3 PUSH1 0x2 MUL DUP3 OR SWAP1 POP SWAP3 SWAP2 POP POP JUMP JUMPDEST PUSH2 0x627 DUP3 PUSH2 0x2B2 JUMP JUMPDEST PUSH8 0xFFFFFFFFFFFFFFFF DUP2 GT ISZERO PUSH2 0x640 JUMPI PUSH2 0x63F PUSH2 0x3EE JUMP JUMPDEST JUMPDEST PUSH2 0x64A DUP3 SLOAD PUSH2 0x448 JUMP JUMPDEST PUSH2 0x655 DUP3 DUP3 DUP6 PUSH2 0x595 JUMP JUMPDEST PUSH0 PUSH1 0x20 SWAP1 POP PUSH1 0x1F DUP4 GT PUSH1 0x1 DUP2 EQ PUSH2 0x686 JUMPI PUSH0 DUP5 ISZERO PUSH2 0x674 JUMPI DUP3 DUP8 ADD MLOAD SWAP1 POP JUMPDEST PUSH2 0x67E DUP6 DUP3 PUSH2 0x603 JUMP JUMPDEST DUP7 SSTORE POP PUSH2 0x6E5 JUMP JUMPDEST PUSH1 0x1F NOT DUP5 AND PUSH2 0x694 DUP7 PUSH2 0x478 JUMP JUMPDEST PUSH0 JUMPDEST DUP3 DUP2 LT ISZERO PUSH2 0x6BB JUMPI DUP5 DUP10 ADD MLOAD DUP3 SSTORE PUSH1 0x1 DUP3 ADD SWAP2 POP PUSH1 0x20 DUP6 ADD SWAP5 POP PUSH1 0x20 DUP2 ADD SWAP1 POP PUSH2 0x696 JUMP JUMPDEST DUP7 DUP4 LT ISZERO PUSH2 0x6D8 JUMPI DUP5 DUP10 ADD MLOAD PUSH2 0x6D4 PUSH1 0x1F DUP10 AND DUP3 PUSH2 0x5E7 JUMP JUMPDEST DUP4 SSTORE POP JUMPDEST PUSH1 0x1 PUSH1 0x2 DUP9 MUL ADD DUP9 SSTORE POP POP POP JUMPDEST POP POP POP POP POP POP JUMP INVALID LOG2 PUSH5 0x6970667358 0x22 SLT KECCAK256 0xC0 DUP16 SWAP7 0x27 PUSH29 0x22B729D7124F30F37ECBB4D111DA6CA172CC82CA870B0DE380BD626473 PUSH16 0x6C634300081700330000000000000000 "
		},
		"gasEstimates": {
			"creation": {
				"codeDepositCost": "365400",
				"executionCost": "403",
				"totalCost": "365803"
			},
			"external": {
				"showCourses()": "infinite"
			}
		},
		"methodIdentifiers": {
			"showCourses()": "44a034cd"
		}
	},
	"abi": [
		{
			"inputs": [],
			"name": "showCourses",
			"outputs": [
				{
					"internalType": "string[]",
					"name": "",
					"type": "string[]"
				}
			],
			"stateMutability": "nonpayable",
			"type": "function"
		}
	]
}