{
	"chapter8/Ex8_6.sol": {
		"Ex8_6": {
			"abi": [
				{
					"inputs": [
						{
							"internalType": "uint8",
							"name": "_num1",
							"type": "uint8"
						},
						{
							"internalType": "uint8",
							"name": "_num2",
							"type": "uint8"
						}
					],
					"name": "noOverflow",
					"outputs": [
						{
							"internalType": "uint8",
							"name": "",
							"type": "uint8"
						}
					],
					"stateMutability": "pure",
					"type": "function"
				},
				{
					"inputs": [
						{
							"internalType": "uint8",
							"name": "_num1",
							"type": "uint8"
						},
						{
							"internalType": "uint8",
							"name": "_num2",
							"type": "uint8"
						}
					],
					"name": "noOverflow2",
					"outputs": [
						{
							"internalType": "uint8",
							"name": "",
							"type": "uint8"
						}
					],
					"stateMutability": "pure",
					"type": "function"
				},
				{
					"inputs": [
						{
							"internalType": "uint8",
							"name": "_num1",
							"type": "uint8"
						},
						{
							"internalType": "uint8",
							"name": "_num2",
							"type": "uint8"
						}
					],
					"name": "overflow",
					"outputs": [
						{
							"internalType": "uint8",
							"name": "",
							"type": "uint8"
						}
					],
					"stateMutability": "pure",
					"type": "function"
				}
			],
			"devdoc": {
				"kind": "dev",
				"methods": {},
				"version": 1
			},
			"evm": {
				"assembly": "    /* \"chapter8/Ex8_6.sol\":244:655  contract Ex8_6 {\r... */\n  mstore(0x40, 0x80)\n  callvalue\n  dup1\n  iszero\n  tag_1\n  jumpi\n  0x00\n  dup1\n  revert\ntag_1:\n  pop\n  dataSize(sub_0)\n  dup1\n  dataOffset(sub_0)\n  0x00\n  codecopy\n  0x00\n  return\nstop\n\nsub_0: assembly {\n        /* \"chapter8/Ex8_6.sol\":244:655  contract Ex8_6 {\r... */\n      mstore(0x40, 0x80)\n      callvalue\n      dup1\n      iszero\n      tag_1\n      jumpi\n      0x00\n      dup1\n      revert\n    tag_1:\n      pop\n      jumpi(tag_2, lt(calldatasize, 0x04))\n      shr(0xe0, calldataload(0x00))\n      dup1\n      0x1fe4e680\n      eq\n      tag_3\n      jumpi\n      dup1\n      0x50839710\n      eq\n      tag_4\n      jumpi\n      dup1\n      0x56e2778c\n      eq\n      tag_5\n      jumpi\n    tag_2:\n      0x00\n      dup1\n      revert\n        /* \"chapter8/Ex8_6.sol\":409:530  function noOverflow(uint8 _num1, uint8 _num2) public pure returns(uint8) {\r... */\n    tag_3:\n      tag_6\n      0x04\n      dup1\n      calldatasize\n      sub\n      0x40\n      dup2\n      lt\n      iszero\n      tag_7\n      jumpi\n      0x00\n      dup1\n      revert\n    tag_7:\n      dup2\n      add\n      swap1\n      dup1\n      dup1\n      calldataload\n      0xff\n      and\n      swap1\n      0x20\n      add\n      swap1\n      swap3\n      swap2\n      swap1\n      dup1\n      calldataload\n      0xff\n      and\n      swap1\n      0x20\n      add\n      swap1\n      swap3\n      swap2\n      swap1\n      pop\n      pop\n      pop\n      tag_8\n      jump\t// in\n    tag_6:\n      mload(0x40)\n      dup1\n      dup3\n      0xff\n      and\n      dup2\n      mstore\n      0x20\n      add\n      swap2\n      pop\n      pop\n      mload(0x40)\n      dup1\n      swap2\n      sub\n      swap1\n      return\n        /* \"chapter8/Ex8_6.sol\":536:652  function noOverflow2(uint8 _num1, uint8 _num2) public pure returns(uint8) {\r... */\n    tag_4:\n      tag_9\n      0x04\n      dup1\n      calldatasize\n      sub\n      0x40\n      dup2\n      lt\n      iszero\n      tag_10\n      jumpi\n      0x00\n      dup1\n      revert\n    tag_10:\n      dup2\n      add\n      swap1\n      dup1\n      dup1\n      calldataload\n      0xff\n      and\n      swap1\n      0x20\n      add\n      swap1\n      swap3\n      swap2\n      swap1\n      dup1\n      calldataload\n      0xff\n      and\n      swap1\n      0x20\n      add\n      swap1\n      swap3\n      swap2\n      swap1\n      pop\n      pop\n      pop\n      tag_11\n      jump\t// in\n    tag_9:\n      mload(0x40)\n      dup1\n      dup3\n      0xff\n      and\n      dup2\n      mstore\n      0x20\n      add\n      swap2\n      pop\n      pop\n      mload(0x40)\n      dup1\n      swap2\n      sub\n      swap1\n      return\n        /* \"chapter8/Ex8_6.sol\":293:403  function overflow(uint8 _num1, uint8 _num2) public pure returns(uint8) {\r... */\n    tag_5:\n      tag_12\n      0x04\n      dup1\n      calldatasize\n      sub\n      0x40\n      dup2\n      lt\n      iszero\n      tag_13\n      jumpi\n      0x00\n      dup1\n      revert\n    tag_13:\n      dup2\n      add\n      swap1\n      dup1\n      dup1\n      calldataload\n      0xff\n      and\n      swap1\n      0x20\n      add\n      swap1\n      swap3\n      swap2\n      swap1\n      dup1\n      calldataload\n      0xff\n      and\n      swap1\n      0x20\n      add\n      swap1\n      swap3\n      swap2\n      swap1\n      pop\n      pop\n      pop\n      tag_14\n      jump\t// in\n    tag_12:\n      mload(0x40)\n      dup1\n      dup3\n      0xff\n      and\n      dup2\n      mstore\n      0x20\n      add\n      swap2\n      pop\n      pop\n      mload(0x40)\n      dup1\n      swap2\n      sub\n      swap1\n      return\n        /* \"chapter8/Ex8_6.sol\":409:530  function noOverflow(uint8 _num1, uint8 _num2) public pure returns(uint8) {\r... */\n    tag_8:\n        /* \"chapter8/Ex8_6.sol\":475:480  uint8 */\n      0x00\n        /* \"chapter8/Ex8_6.sol\":500:522  Math.add(_num1, _num2) */\n      tag_16\n        /* \"chapter8/Ex8_6.sol\":509:514  _num1 */\n      dup4\n        /* \"chapter8/Ex8_6.sol\":516:521  _num2 */\n      dup4\n        /* \"chapter8/Ex8_6.sol\":500:508  Math.add */\n      tag_17\n        /* \"chapter8/Ex8_6.sol\":500:522  Math.add(_num1, _num2) */\n      jump\t// in\n    tag_16:\n        /* \"chapter8/Ex8_6.sol\":493:522  return Math.add(_num1, _num2) */\n      swap1\n      pop\n        /* \"chapter8/Ex8_6.sol\":409:530  function noOverflow(uint8 _num1, uint8 _num2) public pure returns(uint8) {\r... */\n      swap3\n      swap2\n      pop\n      pop\n      jump\t// out\n        /* \"chapter8/Ex8_6.sol\":536:652  function noOverflow2(uint8 _num1, uint8 _num2) public pure returns(uint8) {\r... */\n    tag_11:\n        /* \"chapter8/Ex8_6.sol\":603:608  uint8 */\n      0x00\n        /* \"chapter8/Ex8_6.sol\":628:644  _num1.add(_num2) */\n      tag_19\n        /* \"chapter8/Ex8_6.sol\":638:643  _num2 */\n      dup3\n        /* \"chapter8/Ex8_6.sol\":628:633  _num1 */\n      dup5\n        /* \"chapter8/Ex8_6.sol\":628:637  _num1.add */\n      0xff\n      and\n      tag_17\n      swap1\n        /* \"chapter8/Ex8_6.sol\":628:644  _num1.add(_num2) */\n      swap2\n      swap1\n      0xffffffff\n      and\n      jump\t// in\n    tag_19:\n        /* \"chapter8/Ex8_6.sol\":621:644  return _num1.add(_num2) */\n      swap1\n      pop\n        /* \"chapter8/Ex8_6.sol\":536:652  function noOverflow2(uint8 _num1, uint8 _num2) public pure returns(uint8) {\r... */\n      swap3\n      swap2\n      pop\n      pop\n      jump\t// out\n        /* \"chapter8/Ex8_6.sol\":293:403  function overflow(uint8 _num1, uint8 _num2) public pure returns(uint8) {\r... */\n    tag_14:\n        /* \"chapter8/Ex8_6.sol\":357:362  uint8 */\n      0x00\n        /* \"chapter8/Ex8_6.sol\":390:395  _num2 */\n      dup2\n        /* \"chapter8/Ex8_6.sol\":382:387  _num1 */\n      dup4\n        /* \"chapter8/Ex8_6.sol\":382:395  _num1 + _num2 */\n      add\n        /* \"chapter8/Ex8_6.sol\":375:395  return _num1 + _num2 */\n      swap1\n      pop\n        /* \"chapter8/Ex8_6.sol\":293:403  function overflow(uint8 _num1, uint8 _num2) public pure returns(uint8) {\r... */\n      swap3\n      swap2\n      pop\n      pop\n      jump\t// out\n        /* \"chapter8/Ex8_6.sol\":92:237  function add(uint8 a, uint8 b) internal pure returns(uint8) {\r... */\n    tag_17:\n        /* \"chapter8/Ex8_6.sol\":145:150  uint8 */\n      0x00\n        /* \"chapter8/Ex8_6.sol\":178:179  a */\n      dup3\n        /* \"chapter8/Ex8_6.sol\":171:179  a+b >= a */\n      0xff\n      and\n        /* \"chapter8/Ex8_6.sol\":173:174  b */\n      dup3\n        /* \"chapter8/Ex8_6.sol\":171:172  a */\n      dup5\n        /* \"chapter8/Ex8_6.sol\":171:174  a+b */\n      add\n        /* \"chapter8/Ex8_6.sol\":171:179  a+b >= a */\n      0xff\n      and\n      lt\n      iszero\n        /* \"chapter8/Ex8_6.sol\":163:208  require(a+b >= a, \"Erorr: addition overflow\") */\n      tag_22\n      jumpi\n      mload(0x40)\n      0x08c379a000000000000000000000000000000000000000000000000000000000\n      dup2\n      mstore\n      0x04\n      add\n      dup1\n      dup1\n      0x20\n      add\n      dup3\n      dup2\n      sub\n      dup3\n      mstore\n      0x18\n      dup2\n      mstore\n      0x20\n      add\n      dup1\n      0x45726f72723a206164646974696f6e206f766572666c6f770000000000000000\n      dup2\n      mstore\n      pop\n      0x20\n      add\n      swap2\n      pop\n      pop\n      mload(0x40)\n      dup1\n      swap2\n      sub\n      swap1\n      revert\n    tag_22:\n        /* \"chapter8/Ex8_6.sol\":228:229  b */\n      dup2\n        /* \"chapter8/Ex8_6.sol\":226:227  a */\n      dup4\n        /* \"chapter8/Ex8_6.sol\":226:229  a+b */\n      add\n        /* \"chapter8/Ex8_6.sol\":219:229  return a+b */\n      swap1\n      pop\n        /* \"chapter8/Ex8_6.sol\":92:237  function add(uint8 a, uint8 b) internal pure returns(uint8) {\r... */\n      swap3\n      swap2\n      pop\n      pop\n      jump\t// out\n\n    auxdata: 0xa264697066735822122006e7b1107eef8002a24840a50755fb6a94ef9c67422ec1afbb0fe45516f76bb264736f6c63430007060033\n}\n",
				"bytecode": {
					"linkReferences": {},
					"object": "608060405234801561001057600080fd5b50610247806100206000396000f3fe608060405234801561001057600080fd5b50600436106100415760003560e01c80631fe4e68014610046578063508397101461009b57806356e2778c146100f0575b600080fd5b6100826004803603604081101561005c57600080fd5b81019080803560ff169060200190929190803560ff169060200190929190505050610145565b604051808260ff16815260200191505060405180910390f35b6100d7600480360360408110156100b157600080fd5b81019080803560ff169060200190929190803560ff169060200190929190505050610159565b604051808260ff16815260200191505060405180910390f35b61012c6004803603604081101561010657600080fd5b81019080803560ff169060200190929190803560ff169060200190929190505050610179565b604051808260ff16815260200191505060405180910390f35b60006101518383610186565b905092915050565b6000610171828460ff1661018690919063ffffffff16565b905092915050565b6000818301905092915050565b60008260ff1682840160ff161015610206576040517f08c379a00000000000000000000000000000000000000000000000000000000081526004018080602001828103825260188152602001807f45726f72723a206164646974696f6e206f766572666c6f77000000000000000081525060200191505060405180910390fd5b81830190509291505056fea264697066735822122006e7b1107eef8002a24840a50755fb6a94ef9c67422ec1afbb0fe45516f76bb264736f6c63430007060033",
					"opcodes": "PUSH1 0x80 PUSH1 0x40 MSTORE CALLVALUE DUP1 ISZERO PUSH2 0x10 JUMPI PUSH1 0x0 DUP1 REVERT JUMPDEST POP PUSH2 0x247 DUP1 PUSH2 0x20 PUSH1 0x0 CODECOPY PUSH1 0x0 RETURN INVALID PUSH1 0x80 PUSH1 0x40 MSTORE CALLVALUE DUP1 ISZERO PUSH2 0x10 JUMPI PUSH1 0x0 DUP1 REVERT JUMPDEST POP PUSH1 0x4 CALLDATASIZE LT PUSH2 0x41 JUMPI PUSH1 0x0 CALLDATALOAD PUSH1 0xE0 SHR DUP1 PUSH4 0x1FE4E680 EQ PUSH2 0x46 JUMPI DUP1 PUSH4 0x50839710 EQ PUSH2 0x9B JUMPI DUP1 PUSH4 0x56E2778C EQ PUSH2 0xF0 JUMPI JUMPDEST PUSH1 0x0 DUP1 REVERT JUMPDEST PUSH2 0x82 PUSH1 0x4 DUP1 CALLDATASIZE SUB PUSH1 0x40 DUP2 LT ISZERO PUSH2 0x5C JUMPI PUSH1 0x0 DUP1 REVERT JUMPDEST DUP2 ADD SWAP1 DUP1 DUP1 CALLDATALOAD PUSH1 0xFF AND SWAP1 PUSH1 0x20 ADD SWAP1 SWAP3 SWAP2 SWAP1 DUP1 CALLDATALOAD PUSH1 0xFF AND SWAP1 PUSH1 0x20 ADD SWAP1 SWAP3 SWAP2 SWAP1 POP POP POP PUSH2 0x145 JUMP JUMPDEST PUSH1 0x40 MLOAD DUP1 DUP3 PUSH1 0xFF AND DUP2 MSTORE PUSH1 0x20 ADD SWAP2 POP POP PUSH1 0x40 MLOAD DUP1 SWAP2 SUB SWAP1 RETURN JUMPDEST PUSH2 0xD7 PUSH1 0x4 DUP1 CALLDATASIZE SUB PUSH1 0x40 DUP2 LT ISZERO PUSH2 0xB1 JUMPI PUSH1 0x0 DUP1 REVERT JUMPDEST DUP2 ADD SWAP1 DUP1 DUP1 CALLDATALOAD PUSH1 0xFF AND SWAP1 PUSH1 0x20 ADD SWAP1 SWAP3 SWAP2 SWAP1 DUP1 CALLDATALOAD PUSH1 0xFF AND SWAP1 PUSH1 0x20 ADD SWAP1 SWAP3 SWAP2 SWAP1 POP POP POP PUSH2 0x159 JUMP JUMPDEST PUSH1 0x40 MLOAD DUP1 DUP3 PUSH1 0xFF AND DUP2 MSTORE PUSH1 0x20 ADD SWAP2 POP POP PUSH1 0x40 MLOAD DUP1 SWAP2 SUB SWAP1 RETURN JUMPDEST PUSH2 0x12C PUSH1 0x4 DUP1 CALLDATASIZE SUB PUSH1 0x40 DUP2 LT ISZERO PUSH2 0x106 JUMPI PUSH1 0x0 DUP1 REVERT JUMPDEST DUP2 ADD SWAP1 DUP1 DUP1 CALLDATALOAD PUSH1 0xFF AND SWAP1 PUSH1 0x20 ADD SWAP1 SWAP3 SWAP2 SWAP1 DUP1 CALLDATALOAD PUSH1 0xFF AND SWAP1 PUSH1 0x20 ADD SWAP1 SWAP3 SWAP2 SWAP1 POP POP POP PUSH2 0x179 JUMP JUMPDEST PUSH1 0x40 MLOAD DUP1 DUP3 PUSH1 0xFF AND DUP2 MSTORE PUSH1 0x20 ADD SWAP2 POP POP PUSH1 0x40 MLOAD DUP1 SWAP2 SUB SWAP1 RETURN JUMPDEST PUSH1 0x0 PUSH2 0x151 DUP4 DUP4 PUSH2 0x186 JUMP JUMPDEST SWAP1 POP SWAP3 SWAP2 POP POP JUMP JUMPDEST PUSH1 0x0 PUSH2 0x171 DUP3 DUP5 PUSH1 0xFF AND PUSH2 0x186 SWAP1 SWAP2 SWAP1 PUSH4 0xFFFFFFFF AND JUMP JUMPDEST SWAP1 POP SWAP3 SWAP2 POP POP JUMP JUMPDEST PUSH1 0x0 DUP2 DUP4 ADD SWAP1 POP SWAP3 SWAP2 POP POP JUMP JUMPDEST PUSH1 0x0 DUP3 PUSH1 0xFF AND DUP3 DUP5 ADD PUSH1 0xFF AND LT ISZERO PUSH2 0x206 JUMPI PUSH1 0x40 MLOAD PUSH32 0x8C379A000000000000000000000000000000000000000000000000000000000 DUP2 MSTORE PUSH1 0x4 ADD DUP1 DUP1 PUSH1 0x20 ADD DUP3 DUP2 SUB DUP3 MSTORE PUSH1 0x18 DUP2 MSTORE PUSH1 0x20 ADD DUP1 PUSH32 0x45726F72723A206164646974696F6E206F766572666C6F770000000000000000 DUP2 MSTORE POP PUSH1 0x20 ADD SWAP2 POP POP PUSH1 0x40 MLOAD DUP1 SWAP2 SUB SWAP1 REVERT JUMPDEST DUP2 DUP4 ADD SWAP1 POP SWAP3 SWAP2 POP POP JUMP INVALID LOG2 PUSH5 0x6970667358 0x22 SLT KECCAK256 MOD 0xE7 0xB1 LT PUSH31 0xEF8002A24840A50755FB6A94EF9C67422EC1AFBB0FE45516F76BB264736F6C PUSH4 0x43000706 STOP CALLER "
				},
				"gasEstimates": {
					"creation": {
						"codeDepositCost": "116600",
						"executionCost": "165",
						"totalCost": "116765"
					},
					"external": {
						"noOverflow(uint8,uint8)": "427",
						"noOverflow2(uint8,uint8)": "infinite",
						"overflow(uint8,uint8)": "375"
					}
				},
				"methodIdentifiers": {
					"noOverflow(uint8,uint8)": "1fe4e680",
					"noOverflow2(uint8,uint8)": "50839710",
					"overflow(uint8,uint8)": "56e2778c"
				}
			},
			"storageLayout": {
				"storage": [],
				"types": null
			},
			"userdoc": {
				"kind": "user",
				"methods": {},
				"version": 1
			}
		}
	}
}