{
	"chapter8/Ex8_7.sol": {
		"Ex8_7": {
			"abi": [
				{
					"inputs": [],
					"name": "MAX_UINT",
					"outputs": [
						{
							"internalType": "uint256",
							"name": "",
							"type": "uint256"
						}
					],
					"stateMutability": "view",
					"type": "function"
				},
				{
					"inputs": [
						{
							"internalType": "uint256",
							"name": "_num",
							"type": "uint256"
						}
					],
					"name": "addition",
					"outputs": [
						{
							"internalType": "uint256",
							"name": "",
							"type": "uint256"
						}
					],
					"stateMutability": "pure",
					"type": "function"
				},
				{
					"inputs": [
						{
							"internalType": "uint256",
							"name": "_num",
							"type": "uint256"
						}
					],
					"name": "division",
					"outputs": [
						{
							"internalType": "uint256",
							"name": "",
							"type": "uint256"
						}
					],
					"stateMutability": "pure",
					"type": "function"
				},
				{
					"inputs": [
						{
							"internalType": "uint256",
							"name": "_num",
							"type": "uint256"
						}
					],
					"name": "modulo",
					"outputs": [
						{
							"internalType": "uint256",
							"name": "",
							"type": "uint256"
						}
					],
					"stateMutability": "pure",
					"type": "function"
				},
				{
					"inputs": [
						{
							"internalType": "uint256",
							"name": "_num",
							"type": "uint256"
						}
					],
					"name": "multiplication",
					"outputs": [
						{
							"internalType": "uint256",
							"name": "",
							"type": "uint256"
						}
					],
					"stateMutability": "pure",
					"type": "function"
				},
				{
					"inputs": [
						{
							"internalType": "uint256",
							"name": "_num1",
							"type": "uint256"
						},
						{
							"internalType": "uint256",
							"name": "_num2",
							"type": "uint256"
						}
					],
					"name": "subtraction",
					"outputs": [
						{
							"internalType": "uint256",
							"name": "",
							"type": "uint256"
						}
					],
					"stateMutability": "pure",
					"type": "function"
				}
			],
			"devdoc": {
				"kind": "dev",
				"methods": {},
				"version": 1
			},
			"evm": {
				"assembly": "    /* \"chapter8/Ex8_7.sol\":197:922  contract Ex8_7 {\r... */\n  mstore(0x40, 0x80)\n  callvalue\n  dup1\n  iszero\n  tag_1\n  jumpi\n  0x00\n  dup1\n  revert\ntag_1:\n  pop\n  dataSize(sub_0)\n  dup1\n  dataOffset(sub_0)\n  0x00\n  codecopy\n  0x00\n  return\nstop\n\nsub_0: assembly {\n        /* \"chapter8/Ex8_7.sol\":197:922  contract Ex8_7 {\r... */\n      mstore(0x40, 0x80)\n      callvalue\n      dup1\n      iszero\n      tag_1\n      jumpi\n      0x00\n      dup1\n      revert\n    tag_1:\n      pop\n      jumpi(tag_2, lt(calldatasize, 0x04))\n      shr(0xe0, calldataload(0x00))\n      dup1\n      0x45bd069b\n      eq\n      tag_3\n      jumpi\n      dup1\n      0x543209b7\n      eq\n      tag_4\n      jumpi\n      dup1\n      0x886c6f51\n      eq\n      tag_5\n      jumpi\n      dup1\n      0x900683d0\n      eq\n      tag_6\n      jumpi\n      dup1\n      0xc6162c61\n      eq\n      tag_7\n      jumpi\n      dup1\n      0xe5b5019a\n      eq\n      tag_8\n      jumpi\n    tag_2:\n      0x00\n      dup1\n      revert\n        /* \"chapter8/Ex8_7.sol\":598:697  function division(uint _num) public pure returns(uint) {\r... */\n    tag_3:\n      tag_9\n      0x04\n      dup1\n      calldatasize\n      sub\n      0x20\n      dup2\n      lt\n      iszero\n      tag_10\n      jumpi\n      0x00\n      dup1\n      revert\n    tag_10:\n      dup2\n      add\n      swap1\n      dup1\n      dup1\n      calldataload\n      swap1\n      0x20\n      add\n      swap1\n      swap3\n      swap2\n      swap1\n      pop\n      pop\n      pop\n      tag_11\n      jump\t// in\n    tag_9:\n      mload(0x40)\n      dup1\n      dup3\n      dup2\n      mstore\n      0x20\n      add\n      swap2\n      pop\n      pop\n      mload(0x40)\n      dup1\n      swap2\n      sub\n      swap1\n      return\n        /* \"chapter8/Ex8_7.sol\":382:481  function addition(uint _num) public pure returns(uint) {\r... */\n    tag_4:\n      tag_12\n      0x04\n      dup1\n      calldatasize\n      sub\n      0x20\n      dup2\n      lt\n      iszero\n      tag_13\n      jumpi\n      0x00\n      dup1\n      revert\n    tag_13:\n      dup2\n      add\n      swap1\n      dup1\n      dup1\n      calldataload\n      swap1\n      0x20\n      add\n      swap1\n      swap3\n      swap2\n      swap1\n      pop\n      pop\n      pop\n      tag_14\n      jump\t// in\n    tag_12:\n      mload(0x40)\n      dup1\n      dup3\n      dup2\n      mstore\n      0x20\n      add\n      swap2\n      pop\n      pop\n      mload(0x40)\n      dup1\n      swap2\n      sub\n      swap1\n      return\n        /* \"chapter8/Ex8_7.sol\":703:800  function modulo(uint _num) public pure returns(uint) {\r... */\n    tag_5:\n      tag_15\n      0x04\n      dup1\n      calldatasize\n      sub\n      0x20\n      dup2\n      lt\n      iszero\n      tag_16\n      jumpi\n      0x00\n      dup1\n      revert\n    tag_16:\n      dup2\n      add\n      swap1\n      dup1\n      dup1\n      calldataload\n      swap1\n      0x20\n      add\n      swap1\n      swap3\n      swap2\n      swap1\n      pop\n      pop\n      pop\n      tag_17\n      jump\t// in\n    tag_15:\n      mload(0x40)\n      dup1\n      dup3\n      dup2\n      mstore\n      0x20\n      add\n      swap2\n      pop\n      pop\n      mload(0x40)\n      dup1\n      swap2\n      sub\n      swap1\n      return\n        /* \"chapter8/Ex8_7.sol\":806:919  function subtraction(uint _num1, uint _num2) public pure returns(uint) {\r... */\n    tag_6:\n      tag_18\n      0x04\n      dup1\n      calldatasize\n      sub\n      0x40\n      dup2\n      lt\n      iszero\n      tag_19\n      jumpi\n      0x00\n      dup1\n      revert\n    tag_19:\n      dup2\n      add\n      swap1\n      dup1\n      dup1\n      calldataload\n      swap1\n      0x20\n      add\n      swap1\n      swap3\n      swap2\n      swap1\n      dup1\n      calldataload\n      swap1\n      0x20\n      add\n      swap1\n      swap3\n      swap2\n      swap1\n      pop\n      pop\n      pop\n      tag_20\n      jump\t// in\n    tag_18:\n      mload(0x40)\n      dup1\n      dup3\n      dup2\n      mstore\n      0x20\n      add\n      swap2\n      pop\n      pop\n      mload(0x40)\n      dup1\n      swap2\n      sub\n      swap1\n      return\n        /* \"chapter8/Ex8_7.sol\":487:592  function multiplication(uint _num) public pure returns(uint) {\r... */\n    tag_7:\n      tag_21\n      0x04\n      dup1\n      calldatasize\n      sub\n      0x20\n      dup2\n      lt\n      iszero\n      tag_22\n      jumpi\n      0x00\n      dup1\n      revert\n    tag_22:\n      dup2\n      add\n      swap1\n      dup1\n      dup1\n      calldataload\n      swap1\n      0x20\n      add\n      swap1\n      swap3\n      swap2\n      swap1\n      pop\n      pop\n      pop\n      tag_23\n      jump\t// in\n    tag_21:\n      mload(0x40)\n      dup1\n      dup3\n      dup2\n      mstore\n      0x20\n      add\n      swap2\n      pop\n      pop\n      mload(0x40)\n      dup1\n      swap2\n      sub\n      swap1\n      return\n        /* \"chapter8/Ex8_7.sol\":268:308  uint constant public MAX_UINT = ~uint(0) */\n    tag_8:\n      tag_24\n      tag_25\n      jump\t// in\n    tag_24:\n      mload(0x40)\n      dup1\n      dup3\n      dup2\n      mstore\n      0x20\n      add\n      swap2\n      pop\n      pop\n      mload(0x40)\n      dup1\n      swap2\n      sub\n      swap1\n      return\n        /* \"chapter8/Ex8_7.sol\":598:697  function division(uint _num) public pure returns(uint) {\r... */\n    tag_11:\n        /* \"chapter8/Ex8_7.sol\":647:651  uint */\n      0x00\n        /* \"chapter8/Ex8_7.sol\":671:689  MAX_UINT.div(_num) */\n      tag_27\n        /* \"chapter8/Ex8_7.sol\":684:688  _num */\n      dup3\n        /* \"chapter8/Ex8_7.sol\":306:307  0 */\n      0x00\n        /* \"chapter8/Ex8_7.sol\":300:308  ~uint(0) */\n      not\n        /* \"chapter8/Ex8_7.sol\":671:683  MAX_UINT.div */\n      tag_28\n      swap1\n        /* \"chapter8/Ex8_7.sol\":671:689  MAX_UINT.div(_num) */\n      swap2\n      swap1\n      0xffffffff\n      and\n      jump\t// in\n    tag_27:\n        /* \"chapter8/Ex8_7.sol\":664:689  return MAX_UINT.div(_num) */\n      swap1\n      pop\n        /* \"chapter8/Ex8_7.sol\":598:697  function division(uint _num) public pure returns(uint) {\r... */\n      swap2\n      swap1\n      pop\n      jump\t// out\n        /* \"chapter8/Ex8_7.sol\":382:481  function addition(uint _num) public pure returns(uint) {\r... */\n    tag_14:\n        /* \"chapter8/Ex8_7.sol\":431:435  uint */\n      0x00\n        /* \"chapter8/Ex8_7.sol\":455:473  MAX_UINT.add(_num) */\n      tag_30\n        /* \"chapter8/Ex8_7.sol\":468:472  _num */\n      dup3\n        /* \"chapter8/Ex8_7.sol\":306:307  0 */\n      0x00\n        /* \"chapter8/Ex8_7.sol\":300:308  ~uint(0) */\n      not\n        /* \"chapter8/Ex8_7.sol\":455:467  MAX_UINT.add */\n      tag_31\n      swap1\n        /* \"chapter8/Ex8_7.sol\":455:473  MAX_UINT.add(_num) */\n      swap2\n      swap1\n      0xffffffff\n      and\n      jump\t// in\n    tag_30:\n        /* \"chapter8/Ex8_7.sol\":448:473  return MAX_UINT.add(_num) */\n      swap1\n      pop\n        /* \"chapter8/Ex8_7.sol\":382:481  function addition(uint _num) public pure returns(uint) {\r... */\n      swap2\n      swap1\n      pop\n      jump\t// out\n        /* \"chapter8/Ex8_7.sol\":703:800  function modulo(uint _num) public pure returns(uint) {\r... */\n    tag_17:\n        /* \"chapter8/Ex8_7.sol\":750:754  uint */\n      0x00\n        /* \"chapter8/Ex8_7.sol\":774:792  MAX_UINT.mod(_num) */\n      tag_33\n        /* \"chapter8/Ex8_7.sol\":787:791  _num */\n      dup3\n        /* \"chapter8/Ex8_7.sol\":306:307  0 */\n      0x00\n        /* \"chapter8/Ex8_7.sol\":300:308  ~uint(0) */\n      not\n        /* \"chapter8/Ex8_7.sol\":774:786  MAX_UINT.mod */\n      tag_34\n      swap1\n        /* \"chapter8/Ex8_7.sol\":774:792  MAX_UINT.mod(_num) */\n      swap2\n      swap1\n      0xffffffff\n      and\n      jump\t// in\n    tag_33:\n        /* \"chapter8/Ex8_7.sol\":767:792  return MAX_UINT.mod(_num) */\n      swap1\n      pop\n        /* \"chapter8/Ex8_7.sol\":703:800  function modulo(uint _num) public pure returns(uint) {\r... */\n      swap2\n      swap1\n      pop\n      jump\t// out\n        /* \"chapter8/Ex8_7.sol\":806:919  function subtraction(uint _num1, uint _num2) public pure returns(uint) {\r... */\n    tag_20:\n        /* \"chapter8/Ex8_7.sol\":871:875  uint */\n      0x00\n        /* \"chapter8/Ex8_7.sol\":895:911  _num1.add(_num2) */\n      tag_36\n        /* \"chapter8/Ex8_7.sol\":905:910  _num2 */\n      dup3\n        /* \"chapter8/Ex8_7.sol\":895:900  _num1 */\n      dup5\n        /* \"chapter8/Ex8_7.sol\":895:904  _num1.add */\n      tag_31\n      swap1\n        /* \"chapter8/Ex8_7.sol\":895:911  _num1.add(_num2) */\n      swap2\n      swap1\n      0xffffffff\n      and\n      jump\t// in\n    tag_36:\n        /* \"chapter8/Ex8_7.sol\":888:911  return _num1.add(_num2) */\n      swap1\n      pop\n        /* \"chapter8/Ex8_7.sol\":806:919  function subtraction(uint _num1, uint _num2) public pure returns(uint) {\r... */\n      swap3\n      swap2\n      pop\n      pop\n      jump\t// out\n        /* \"chapter8/Ex8_7.sol\":487:592  function multiplication(uint _num) public pure returns(uint) {\r... */\n    tag_23:\n        /* \"chapter8/Ex8_7.sol\":542:546  uint */\n      0x00\n        /* \"chapter8/Ex8_7.sol\":566:584  MAX_UINT.mul(_num) */\n      tag_38\n        /* \"chapter8/Ex8_7.sol\":579:583  _num */\n      dup3\n        /* \"chapter8/Ex8_7.sol\":306:307  0 */\n      0x00\n        /* \"chapter8/Ex8_7.sol\":300:308  ~uint(0) */\n      not\n        /* \"chapter8/Ex8_7.sol\":566:578  MAX_UINT.mul */\n      tag_39\n      swap1\n        /* \"chapter8/Ex8_7.sol\":566:584  MAX_UINT.mul(_num) */\n      swap2\n      swap1\n      0xffffffff\n      and\n      jump\t// in\n    tag_38:\n        /* \"chapter8/Ex8_7.sol\":559:584  return MAX_UINT.mul(_num) */\n      swap1\n      pop\n        /* \"chapter8/Ex8_7.sol\":487:592  function multiplication(uint _num) public pure returns(uint) {\r... */\n      swap2\n      swap1\n      pop\n      jump\t// out\n        /* \"chapter8/Ex8_7.sol\":268:308  uint constant public MAX_UINT = ~uint(0) */\n    tag_25:\n        /* \"chapter8/Ex8_7.sol\":306:307  0 */\n      0x00\n        /* \"chapter8/Ex8_7.sol\":300:308  ~uint(0) */\n      not\n        /* \"chapter8/Ex8_7.sol\":268:308  uint constant public MAX_UINT = ~uint(0) */\n      dup2\n      jump\t// out\n        /* \"https://github.com/OpenZeppelin/openzeppelin-contracts/blob/release-v3.2.0-solc-0.7/contracts/math/SafeMath.sol\":3101:3231  function div(uint256 a, uint256 b) internal pure returns (uint256) {... */\n    tag_28:\n        /* \"https://github.com/OpenZeppelin/openzeppelin-contracts/blob/release-v3.2.0-solc-0.7/contracts/math/SafeMath.sol\":3159:3166  uint256 */\n      0x00\n        /* \"https://github.com/OpenZeppelin/openzeppelin-contracts/blob/release-v3.2.0-solc-0.7/contracts/math/SafeMath.sol\":3185:3224  div(a, b, \"SafeMath: division by zero\") */\n      tag_41\n        /* \"https://github.com/OpenZeppelin/openzeppelin-contracts/blob/release-v3.2.0-solc-0.7/contracts/math/SafeMath.sol\":3189:3190  a */\n      dup4\n        /* \"https://github.com/OpenZeppelin/openzeppelin-contracts/blob/release-v3.2.0-solc-0.7/contracts/math/SafeMath.sol\":3192:3193  b */\n      dup4\n        /* \"https://github.com/OpenZeppelin/openzeppelin-contracts/blob/release-v3.2.0-solc-0.7/contracts/math/SafeMath.sol\":3185:3224  div(a, b, \"SafeMath: division by zero\") */\n      mload(0x40)\n      dup1\n      0x40\n      add\n      0x40\n      mstore\n      dup1\n      0x1a\n      dup2\n      mstore\n      0x20\n      add\n      0x536166654d6174683a206469766973696f6e206279207a65726f000000000000\n      dup2\n      mstore\n      pop\n        /* \"https://github.com/OpenZeppelin/openzeppelin-contracts/blob/release-v3.2.0-solc-0.7/contracts/math/SafeMath.sol\":3185:3188  div */\n      tag_42\n        /* \"https://github.com/OpenZeppelin/openzeppelin-contracts/blob/release-v3.2.0-solc-0.7/contracts/math/SafeMath.sol\":3185:3224  div(a, b, \"SafeMath: division by zero\") */\n      jump\t// in\n    tag_41:\n        /* \"https://github.com/OpenZeppelin/openzeppelin-contracts/blob/release-v3.2.0-solc-0.7/contracts/math/SafeMath.sol\":3178:3224  return div(a, b, \"SafeMath: division by zero\") */\n      swap1\n      pop\n        /* \"https://github.com/OpenZeppelin/openzeppelin-contracts/blob/release-v3.2.0-solc-0.7/contracts/math/SafeMath.sol\":3101:3231  function div(uint256 a, uint256 b) internal pure returns (uint256) {... */\n      swap3\n      swap2\n      pop\n      pop\n      jump\t// out\n        /* \"https://github.com/OpenZeppelin/openzeppelin-contracts/blob/release-v3.2.0-solc-0.7/contracts/math/SafeMath.sol\":874:1050  function add(uint256 a, uint256 b) internal pure returns (uint256) {... */\n    tag_31:\n        /* \"https://github.com/OpenZeppelin/openzeppelin-contracts/blob/release-v3.2.0-solc-0.7/contracts/math/SafeMath.sol\":932:939  uint256 */\n      0x00\n        /* \"https://github.com/OpenZeppelin/openzeppelin-contracts/blob/release-v3.2.0-solc-0.7/contracts/math/SafeMath.sol\":951:960  uint256 c */\n      dup1\n        /* \"https://github.com/OpenZeppelin/openzeppelin-contracts/blob/release-v3.2.0-solc-0.7/contracts/math/SafeMath.sol\":967:968  b */\n      dup3\n        /* \"https://github.com/OpenZeppelin/openzeppelin-contracts/blob/release-v3.2.0-solc-0.7/contracts/math/SafeMath.sol\":963:964  a */\n      dup5\n        /* \"https://github.com/OpenZeppelin/openzeppelin-contracts/blob/release-v3.2.0-solc-0.7/contracts/math/SafeMath.sol\":963:968  a + b */\n      add\n        /* \"https://github.com/OpenZeppelin/openzeppelin-contracts/blob/release-v3.2.0-solc-0.7/contracts/math/SafeMath.sol\":951:968  uint256 c = a + b */\n      swap1\n      pop\n        /* \"https://github.com/OpenZeppelin/openzeppelin-contracts/blob/release-v3.2.0-solc-0.7/contracts/math/SafeMath.sol\":991:992  a */\n      dup4\n        /* \"https://github.com/OpenZeppelin/openzeppelin-contracts/blob/release-v3.2.0-solc-0.7/contracts/math/SafeMath.sol\":986:987  c */\n      dup2\n        /* \"https://github.com/OpenZeppelin/openzeppelin-contracts/blob/release-v3.2.0-solc-0.7/contracts/math/SafeMath.sol\":986:992  c >= a */\n      lt\n      iszero\n        /* \"https://github.com/OpenZeppelin/openzeppelin-contracts/blob/release-v3.2.0-solc-0.7/contracts/math/SafeMath.sol\":978:1024  require(c >= a, \"SafeMath: addition overflow\") */\n      tag_44\n      jumpi\n      mload(0x40)\n      0x08c379a000000000000000000000000000000000000000000000000000000000\n      dup2\n      mstore\n      0x04\n      add\n      dup1\n      dup1\n      0x20\n      add\n      dup3\n      dup2\n      sub\n      dup3\n      mstore\n      0x1b\n      dup2\n      mstore\n      0x20\n      add\n      dup1\n      0x536166654d6174683a206164646974696f6e206f766572666c6f770000000000\n      dup2\n      mstore\n      pop\n      0x20\n      add\n      swap2\n      pop\n      pop\n      mload(0x40)\n      dup1\n      swap2\n      sub\n      swap1\n      revert\n    tag_44:\n        /* \"https://github.com/OpenZeppelin/openzeppelin-contracts/blob/release-v3.2.0-solc-0.7/contracts/math/SafeMath.sol\":1042:1043  c */\n      dup1\n        /* \"https://github.com/OpenZeppelin/openzeppelin-contracts/blob/release-v3.2.0-solc-0.7/contracts/math/SafeMath.sol\":1035:1043  return c */\n      swap2\n      pop\n      pop\n        /* \"https://github.com/OpenZeppelin/openzeppelin-contracts/blob/release-v3.2.0-solc-0.7/contracts/math/SafeMath.sol\":874:1050  function add(uint256 a, uint256 b) internal pure returns (uint256) {... */\n      swap3\n      swap2\n      pop\n      pop\n      jump\t// out\n        /* \"https://github.com/OpenZeppelin/openzeppelin-contracts/blob/release-v3.2.0-solc-0.7/contracts/math/SafeMath.sol\":4436:4564  function mod(uint256 a, uint256 b) internal pure returns (uint256) {... */\n    tag_34:\n        /* \"https://github.com/OpenZeppelin/openzeppelin-contracts/blob/release-v3.2.0-solc-0.7/contracts/math/SafeMath.sol\":4494:4501  uint256 */\n      0x00\n        /* \"https://github.com/OpenZeppelin/openzeppelin-contracts/blob/release-v3.2.0-solc-0.7/contracts/math/SafeMath.sol\":4520:4557  mod(a, b, \"SafeMath: modulo by zero\") */\n      tag_46\n        /* \"https://github.com/OpenZeppelin/openzeppelin-contracts/blob/release-v3.2.0-solc-0.7/contracts/math/SafeMath.sol\":4524:4525  a */\n      dup4\n        /* \"https://github.com/OpenZeppelin/openzeppelin-contracts/blob/release-v3.2.0-solc-0.7/contracts/math/SafeMath.sol\":4527:4528  b */\n      dup4\n        /* \"https://github.com/OpenZeppelin/openzeppelin-contracts/blob/release-v3.2.0-solc-0.7/contracts/math/SafeMath.sol\":4520:4557  mod(a, b, \"SafeMath: modulo by zero\") */\n      mload(0x40)\n      dup1\n      0x40\n      add\n      0x40\n      mstore\n      dup1\n      0x18\n      dup2\n      mstore\n      0x20\n      add\n      0x536166654d6174683a206d6f64756c6f206279207a65726f0000000000000000\n      dup2\n      mstore\n      pop\n        /* \"https://github.com/OpenZeppelin/openzeppelin-contracts/blob/release-v3.2.0-solc-0.7/contracts/math/SafeMath.sol\":4520:4523  mod */\n      tag_47\n        /* \"https://github.com/OpenZeppelin/openzeppelin-contracts/blob/release-v3.2.0-solc-0.7/contracts/math/SafeMath.sol\":4520:4557  mod(a, b, \"SafeMath: modulo by zero\") */\n      jump\t// in\n    tag_46:\n        /* \"https://github.com/OpenZeppelin/openzeppelin-contracts/blob/release-v3.2.0-solc-0.7/contracts/math/SafeMath.sol\":4513:4557  return mod(a, b, \"SafeMath: modulo by zero\") */\n      swap1\n      pop\n        /* \"https://github.com/OpenZeppelin/openzeppelin-contracts/blob/release-v3.2.0-solc-0.7/contracts/math/SafeMath.sol\":4436:4564  function mod(uint256 a, uint256 b) internal pure returns (uint256) {... */\n      swap3\n      swap2\n      pop\n      pop\n      jump\t// out\n        /* \"https://github.com/OpenZeppelin/openzeppelin-contracts/blob/release-v3.2.0-solc-0.7/contracts/math/SafeMath.sol\":2180:2639  function mul(uint256 a, uint256 b) internal pure returns (uint256) {... */\n    tag_39:\n        /* \"https://github.com/OpenZeppelin/openzeppelin-contracts/blob/release-v3.2.0-solc-0.7/contracts/math/SafeMath.sol\":2238:2245  uint256 */\n      0x00\n        /* \"https://github.com/OpenZeppelin/openzeppelin-contracts/blob/release-v3.2.0-solc-0.7/contracts/math/SafeMath.sol\":2484:2485  0 */\n      dup1\n        /* \"https://github.com/OpenZeppelin/openzeppelin-contracts/blob/release-v3.2.0-solc-0.7/contracts/math/SafeMath.sol\":2479:2480  a */\n      dup4\n        /* \"https://github.com/OpenZeppelin/openzeppelin-contracts/blob/release-v3.2.0-solc-0.7/contracts/math/SafeMath.sol\":2479:2485  a == 0 */\n      eq\n        /* \"https://github.com/OpenZeppelin/openzeppelin-contracts/blob/release-v3.2.0-solc-0.7/contracts/math/SafeMath.sol\":2475:2520  if (a == 0) {... */\n      iszero\n      tag_49\n      jumpi\n        /* \"https://github.com/OpenZeppelin/openzeppelin-contracts/blob/release-v3.2.0-solc-0.7/contracts/math/SafeMath.sol\":2508:2509  0 */\n      0x00\n        /* \"https://github.com/OpenZeppelin/openzeppelin-contracts/blob/release-v3.2.0-solc-0.7/contracts/math/SafeMath.sol\":2501:2509  return 0 */\n      swap1\n      pop\n      jump(tag_48)\n        /* \"https://github.com/OpenZeppelin/openzeppelin-contracts/blob/release-v3.2.0-solc-0.7/contracts/math/SafeMath.sol\":2475:2520  if (a == 0) {... */\n    tag_49:\n        /* \"https://github.com/OpenZeppelin/openzeppelin-contracts/blob/release-v3.2.0-solc-0.7/contracts/math/SafeMath.sol\":2530:2539  uint256 c */\n      0x00\n        /* \"https://github.com/OpenZeppelin/openzeppelin-contracts/blob/release-v3.2.0-solc-0.7/contracts/math/SafeMath.sol\":2546:2547  b */\n      dup3\n        /* \"https://github.com/OpenZeppelin/openzeppelin-contracts/blob/release-v3.2.0-solc-0.7/contracts/math/SafeMath.sol\":2542:2543  a */\n      dup5\n        /* \"https://github.com/OpenZeppelin/openzeppelin-contracts/blob/release-v3.2.0-solc-0.7/contracts/math/SafeMath.sol\":2542:2547  a * b */\n      mul\n        /* \"https://github.com/OpenZeppelin/openzeppelin-contracts/blob/release-v3.2.0-solc-0.7/contracts/math/SafeMath.sol\":2530:2547  uint256 c = a * b */\n      swap1\n      pop\n        /* \"https://github.com/OpenZeppelin/openzeppelin-contracts/blob/release-v3.2.0-solc-0.7/contracts/math/SafeMath.sol\":2574:2575  b */\n      dup3\n        /* \"https://github.com/OpenZeppelin/openzeppelin-contracts/blob/release-v3.2.0-solc-0.7/contracts/math/SafeMath.sol\":2569:2570  a */\n      dup5\n        /* \"https://github.com/OpenZeppelin/openzeppelin-contracts/blob/release-v3.2.0-solc-0.7/contracts/math/SafeMath.sol\":2565:2566  c */\n      dup3\n        /* \"https://github.com/OpenZeppelin/openzeppelin-contracts/blob/release-v3.2.0-solc-0.7/contracts/math/SafeMath.sol\":2565:2570  c / a */\n      dup2\n      tag_50\n      jumpi\n      invalid\n    tag_50:\n      div\n        /* \"https://github.com/OpenZeppelin/openzeppelin-contracts/blob/release-v3.2.0-solc-0.7/contracts/math/SafeMath.sol\":2565:2575  c / a == b */\n      eq\n        /* \"https://github.com/OpenZeppelin/openzeppelin-contracts/blob/release-v3.2.0-solc-0.7/contracts/math/SafeMath.sol\":2557:2613  require(c / a == b, \"SafeMath: multiplication overflow\") */\n      tag_51\n      jumpi\n      mload(0x40)\n      0x08c379a000000000000000000000000000000000000000000000000000000000\n      dup2\n      mstore\n      0x04\n      add\n      dup1\n      dup1\n      0x20\n      add\n      dup3\n      dup2\n      sub\n      dup3\n      mstore\n      0x21\n      dup2\n      mstore\n      0x20\n      add\n      dup1\n      data_9113bb53c2876a3805b2c9242029423fc540a728243ce887ab24c82cf119fba3\n      0x21\n      swap2\n      codecopy\n      0x40\n      add\n      swap2\n      pop\n      pop\n      mload(0x40)\n      dup1\n      swap2\n      sub\n      swap1\n      revert\n    tag_51:\n        /* \"https://github.com/OpenZeppelin/openzeppelin-contracts/blob/release-v3.2.0-solc-0.7/contracts/math/SafeMath.sol\":2631:2632  c */\n      dup1\n        /* \"https://github.com/OpenZeppelin/openzeppelin-contracts/blob/release-v3.2.0-solc-0.7/contracts/math/SafeMath.sol\":2624:2632  return c */\n      swap2\n      pop\n      pop\n        /* \"https://github.com/OpenZeppelin/openzeppelin-contracts/blob/release-v3.2.0-solc-0.7/contracts/math/SafeMath.sol\":2180:2639  function mul(uint256 a, uint256 b) internal pure returns (uint256) {... */\n    tag_48:\n      swap3\n      swap2\n      pop\n      pop\n      jump\t// out\n        /* \"https://github.com/OpenZeppelin/openzeppelin-contracts/blob/release-v3.2.0-solc-0.7/contracts/math/SafeMath.sol\":3713:3985  function div(uint256 a, uint256 b, string memory errorMessage) internal pure returns (uint256) {... */\n    tag_42:\n        /* \"https://github.com/OpenZeppelin/openzeppelin-contracts/blob/release-v3.2.0-solc-0.7/contracts/math/SafeMath.sol\":3799:3806  uint256 */\n      0x00\n        /* \"https://github.com/OpenZeppelin/openzeppelin-contracts/blob/release-v3.2.0-solc-0.7/contracts/math/SafeMath.sol\":3830:3831  0 */\n      dup1\n        /* \"https://github.com/OpenZeppelin/openzeppelin-contracts/blob/release-v3.2.0-solc-0.7/contracts/math/SafeMath.sol\":3826:3827  b */\n      dup4\n        /* \"https://github.com/OpenZeppelin/openzeppelin-contracts/blob/release-v3.2.0-solc-0.7/contracts/math/SafeMath.sol\":3826:3831  b > 0 */\n      gt\n        /* \"https://github.com/OpenZeppelin/openzeppelin-contracts/blob/release-v3.2.0-solc-0.7/contracts/math/SafeMath.sol\":3833:3845  errorMessage */\n      dup3\n        /* \"https://github.com/OpenZeppelin/openzeppelin-contracts/blob/release-v3.2.0-solc-0.7/contracts/math/SafeMath.sol\":3818:3846  require(b > 0, errorMessage) */\n      swap1\n      tag_53\n      jumpi\n      mload(0x40)\n      0x08c379a000000000000000000000000000000000000000000000000000000000\n      dup2\n      mstore\n      0x04\n      add\n      dup1\n      dup1\n      0x20\n      add\n      dup3\n      dup2\n      sub\n      dup3\n      mstore\n      dup4\n      dup2\n      dup2\n      mload\n      dup2\n      mstore\n      0x20\n      add\n      swap2\n      pop\n      dup1\n      mload\n      swap1\n      0x20\n      add\n      swap1\n      dup1\n      dup4\n      dup4\n      0x00\n    tag_54:\n      dup4\n      dup2\n      lt\n      iszero\n      tag_56\n      jumpi\n      dup1\n      dup3\n      add\n      mload\n      dup2\n      dup5\n      add\n      mstore\n      0x20\n      dup2\n      add\n      swap1\n      pop\n      jump(tag_54)\n    tag_56:\n      pop\n      pop\n      pop\n      pop\n      swap1\n      pop\n      swap1\n      dup2\n      add\n      swap1\n      0x1f\n      and\n      dup1\n      iszero\n      tag_57\n      jumpi\n      dup1\n      dup3\n      sub\n      dup1\n      mload\n      0x01\n      dup4\n      0x20\n      sub\n      0x0100\n      exp\n      sub\n      not\n      and\n      dup2\n      mstore\n      0x20\n      add\n      swap2\n      pop\n    tag_57:\n      pop\n      swap3\n      pop\n      pop\n      pop\n      mload(0x40)\n      dup1\n      swap2\n      sub\n      swap1\n      revert\n    tag_53:\n      pop\n        /* \"https://github.com/OpenZeppelin/openzeppelin-contracts/blob/release-v3.2.0-solc-0.7/contracts/math/SafeMath.sol\":3856:3865  uint256 c */\n      0x00\n        /* \"https://github.com/OpenZeppelin/openzeppelin-contracts/blob/release-v3.2.0-solc-0.7/contracts/math/SafeMath.sol\":3872:3873  b */\n      dup4\n        /* \"https://github.com/OpenZeppelin/openzeppelin-contracts/blob/release-v3.2.0-solc-0.7/contracts/math/SafeMath.sol\":3868:3869  a */\n      dup6\n        /* \"https://github.com/OpenZeppelin/openzeppelin-contracts/blob/release-v3.2.0-solc-0.7/contracts/math/SafeMath.sol\":3868:3873  a / b */\n      dup2\n      tag_58\n      jumpi\n      invalid\n    tag_58:\n      div\n        /* \"https://github.com/OpenZeppelin/openzeppelin-contracts/blob/release-v3.2.0-solc-0.7/contracts/math/SafeMath.sol\":3856:3873  uint256 c = a / b */\n      swap1\n      pop\n        /* \"https://github.com/OpenZeppelin/openzeppelin-contracts/blob/release-v3.2.0-solc-0.7/contracts/math/SafeMath.sol\":3977:3978  c */\n      dup1\n        /* \"https://github.com/OpenZeppelin/openzeppelin-contracts/blob/release-v3.2.0-solc-0.7/contracts/math/SafeMath.sol\":3970:3978  return c */\n      swap2\n      pop\n      pop\n        /* \"https://github.com/OpenZeppelin/openzeppelin-contracts/blob/release-v3.2.0-solc-0.7/contracts/math/SafeMath.sol\":3713:3985  function div(uint256 a, uint256 b, string memory errorMessage) internal pure returns (uint256) {... */\n      swap4\n      swap3\n      pop\n      pop\n      pop\n      jump\t// out\n        /* \"https://github.com/OpenZeppelin/openzeppelin-contracts/blob/release-v3.2.0-solc-0.7/contracts/math/SafeMath.sol\":5035:5198  function mod(uint256 a, uint256 b, string memory errorMessage) internal pure returns (uint256) {... */\n    tag_47:\n        /* \"https://github.com/OpenZeppelin/openzeppelin-contracts/blob/release-v3.2.0-solc-0.7/contracts/math/SafeMath.sol\":5121:5128  uint256 */\n      0x00\n        /* \"https://github.com/OpenZeppelin/openzeppelin-contracts/blob/release-v3.2.0-solc-0.7/contracts/math/SafeMath.sol\":5153:5154  0 */\n      dup1\n        /* \"https://github.com/OpenZeppelin/openzeppelin-contracts/blob/release-v3.2.0-solc-0.7/contracts/math/SafeMath.sol\":5148:5149  b */\n      dup4\n        /* \"https://github.com/OpenZeppelin/openzeppelin-contracts/blob/release-v3.2.0-solc-0.7/contracts/math/SafeMath.sol\":5148:5154  b != 0 */\n      eq\n      iszero\n        /* \"https://github.com/OpenZeppelin/openzeppelin-contracts/blob/release-v3.2.0-solc-0.7/contracts/math/SafeMath.sol\":5156:5168  errorMessage */\n      dup3\n        /* \"https://github.com/OpenZeppelin/openzeppelin-contracts/blob/release-v3.2.0-solc-0.7/contracts/math/SafeMath.sol\":5140:5169  require(b != 0, errorMessage) */\n      swap1\n      tag_60\n      jumpi\n      mload(0x40)\n      0x08c379a000000000000000000000000000000000000000000000000000000000\n      dup2\n      mstore\n      0x04\n      add\n      dup1\n      dup1\n      0x20\n      add\n      dup3\n      dup2\n      sub\n      dup3\n      mstore\n      dup4\n      dup2\n      dup2\n      mload\n      dup2\n      mstore\n      0x20\n      add\n      swap2\n      pop\n      dup1\n      mload\n      swap1\n      0x20\n      add\n      swap1\n      dup1\n      dup4\n      dup4\n      0x00\n    tag_61:\n      dup4\n      dup2\n      lt\n      iszero\n      tag_63\n      jumpi\n      dup1\n      dup3\n      add\n      mload\n      dup2\n      dup5\n      add\n      mstore\n      0x20\n      dup2\n      add\n      swap1\n      pop\n      jump(tag_61)\n    tag_63:\n      pop\n      pop\n      pop\n      pop\n      swap1\n      pop\n      swap1\n      dup2\n      add\n      swap1\n      0x1f\n      and\n      dup1\n      iszero\n      tag_64\n      jumpi\n      dup1\n      dup3\n      sub\n      dup1\n      mload\n      0x01\n      dup4\n      0x20\n      sub\n      0x0100\n      exp\n      sub\n      not\n      and\n      dup2\n      mstore\n      0x20\n      add\n      swap2\n      pop\n    tag_64:\n      pop\n      swap3\n      pop\n      pop\n      pop\n      mload(0x40)\n      dup1\n      swap2\n      sub\n      swap1\n      revert\n    tag_60:\n      pop\n        /* \"https://github.com/OpenZeppelin/openzeppelin-contracts/blob/release-v3.2.0-solc-0.7/contracts/math/SafeMath.sol\":5190:5191  b */\n      dup3\n        /* \"https://github.com/OpenZeppelin/openzeppelin-contracts/blob/release-v3.2.0-solc-0.7/contracts/math/SafeMath.sol\":5186:5187  a */\n      dup5\n        /* \"https://github.com/OpenZeppelin/openzeppelin-contracts/blob/release-v3.2.0-solc-0.7/contracts/math/SafeMath.sol\":5186:5191  a % b */\n      dup2\n      tag_65\n      jumpi\n      invalid\n    tag_65:\n      mod\n        /* \"https://github.com/OpenZeppelin/openzeppelin-contracts/blob/release-v3.2.0-solc-0.7/contracts/math/SafeMath.sol\":5179:5191  return a % b */\n      swap1\n      pop\n        /* \"https://github.com/OpenZeppelin/openzeppelin-contracts/blob/release-v3.2.0-solc-0.7/contracts/math/SafeMath.sol\":5035:5198  function mod(uint256 a, uint256 b, string memory errorMessage) internal pure returns (uint256) {... */\n      swap4\n      swap3\n      pop\n      pop\n      pop\n      jump\t// out\n    stop\n    data_9113bb53c2876a3805b2c9242029423fc540a728243ce887ab24c82cf119fba3 536166654d6174683a206d756c7469706c69636174696f6e206f766572666c6f77\n\n    auxdata: 0xa2646970667358221220363bcdf6af6c02fefc846a29db6d794b742307fd1e19507040db05e4e2bc90ad64736f6c63430007060033\n}\n",
				"bytecode": {
					"linkReferences": {},
					"object": "608060405234801561001057600080fd5b506105f4806100206000396000f3fe608060405234801561001057600080fd5b50600436106100625760003560e01c806345bd069b14610067578063543209b7146100a9578063886c6f51146100eb578063900683d01461012d578063c6162c6114610179578063e5b5019a146101bb575b600080fd5b6100936004803603602081101561007d57600080fd5b81019080803590602001909291905050506101d9565b6040518082815260200191505060405180910390f35b6100d5600480360360208110156100bf57600080fd5b81019080803590602001909291905050506101f7565b6040518082815260200191505060405180910390f35b6101176004803603602081101561010157600080fd5b8101908080359060200190929190505050610215565b6040518082815260200191505060405180910390f35b6101636004803603604081101561014357600080fd5b810190808035906020019092919080359060200190929190505050610233565b6040518082815260200191505060405180910390f35b6101a56004803603602081101561018f57600080fd5b8101908080359060200190929190505050610250565b6040518082815260200191505060405180910390f35b6101c361026e565b6040518082815260200191505060405180910390f35b60006101f08260001961027490919063ffffffff16565b9050919050565b600061020e826000196102be90919063ffffffff16565b9050919050565b600061022c8260001961034690919063ffffffff16565b9050919050565b600061024882846102be90919063ffffffff16565b905092915050565b60006102678260001961039090919063ffffffff16565b9050919050565b60001981565b60006102b683836040518060400160405280601a81526020017f536166654d6174683a206469766973696f6e206279207a65726f000000000000815250610416565b905092915050565b60008082840190508381101561033c576040517f08c379a000000000000000000000000000000000000000000000000000000000815260040180806020018281038252601b8152602001807f536166654d6174683a206164646974696f6e206f766572666c6f77000000000081525060200191505060405180910390fd5b8091505092915050565b600061038883836040518060400160405280601881526020017f536166654d6174683a206d6f64756c6f206279207a65726f00000000000000008152506104dc565b905092915050565b6000808314156103a35760009050610410565b60008284029050828482816103b457fe5b041461040b576040517f08c379a000000000000000000000000000000000000000000000000000000000815260040180806020018281038252602181526020018061059e6021913960400191505060405180910390fd5b809150505b92915050565b600080831182906104c2576040517f08c379a00000000000000000000000000000000000000000000000000000000081526004018080602001828103825283818151815260200191508051906020019080838360005b8381101561048757808201518184015260208101905061046c565b50505050905090810190601f1680156104b45780820380516001836020036101000a031916815260200191505b509250505060405180910390fd5b5060008385816104ce57fe5b049050809150509392505050565b6000808314158290610589576040517f08c379a00000000000000000000000000000000000000000000000000000000081526004018080602001828103825283818151815260200191508051906020019080838360005b8381101561054e578082015181840152602081019050610533565b50505050905090810190601f16801561057b5780820380516001836020036101000a031916815260200191505b509250505060405180910390fd5b5082848161059357fe5b069050939250505056fe536166654d6174683a206d756c7469706c69636174696f6e206f766572666c6f77a2646970667358221220363bcdf6af6c02fefc846a29db6d794b742307fd1e19507040db05e4e2bc90ad64736f6c63430007060033",
					"opcodes": "PUSH1 0x80 PUSH1 0x40 MSTORE CALLVALUE DUP1 ISZERO PUSH2 0x10 JUMPI PUSH1 0x0 DUP1 REVERT JUMPDEST POP PUSH2 0x5F4 DUP1 PUSH2 0x20 PUSH1 0x0 CODECOPY PUSH1 0x0 RETURN INVALID PUSH1 0x80 PUSH1 0x40 MSTORE CALLVALUE DUP1 ISZERO PUSH2 0x10 JUMPI PUSH1 0x0 DUP1 REVERT JUMPDEST POP PUSH1 0x4 CALLDATASIZE LT PUSH2 0x62 JUMPI PUSH1 0x0 CALLDATALOAD PUSH1 0xE0 SHR DUP1 PUSH4 0x45BD069B EQ PUSH2 0x67 JUMPI DUP1 PUSH4 0x543209B7 EQ PUSH2 0xA9 JUMPI DUP1 PUSH4 0x886C6F51 EQ PUSH2 0xEB JUMPI DUP1 PUSH4 0x900683D0 EQ PUSH2 0x12D JUMPI DUP1 PUSH4 0xC6162C61 EQ PUSH2 0x179 JUMPI DUP1 PUSH4 0xE5B5019A EQ PUSH2 0x1BB JUMPI JUMPDEST PUSH1 0x0 DUP1 REVERT JUMPDEST PUSH2 0x93 PUSH1 0x4 DUP1 CALLDATASIZE SUB PUSH1 0x20 DUP2 LT ISZERO PUSH2 0x7D JUMPI PUSH1 0x0 DUP1 REVERT JUMPDEST DUP2 ADD SWAP1 DUP1 DUP1 CALLDATALOAD SWAP1 PUSH1 0x20 ADD SWAP1 SWAP3 SWAP2 SWAP1 POP POP POP PUSH2 0x1D9 JUMP JUMPDEST PUSH1 0x40 MLOAD DUP1 DUP3 DUP2 MSTORE PUSH1 0x20 ADD SWAP2 POP POP PUSH1 0x40 MLOAD DUP1 SWAP2 SUB SWAP1 RETURN JUMPDEST PUSH2 0xD5 PUSH1 0x4 DUP1 CALLDATASIZE SUB PUSH1 0x20 DUP2 LT ISZERO PUSH2 0xBF JUMPI PUSH1 0x0 DUP1 REVERT JUMPDEST DUP2 ADD SWAP1 DUP1 DUP1 CALLDATALOAD SWAP1 PUSH1 0x20 ADD SWAP1 SWAP3 SWAP2 SWAP1 POP POP POP PUSH2 0x1F7 JUMP JUMPDEST PUSH1 0x40 MLOAD DUP1 DUP3 DUP2 MSTORE PUSH1 0x20 ADD SWAP2 POP POP PUSH1 0x40 MLOAD DUP1 SWAP2 SUB SWAP1 RETURN JUMPDEST PUSH2 0x117 PUSH1 0x4 DUP1 CALLDATASIZE SUB PUSH1 0x20 DUP2 LT ISZERO PUSH2 0x101 JUMPI PUSH1 0x0 DUP1 REVERT JUMPDEST DUP2 ADD SWAP1 DUP1 DUP1 CALLDATALOAD SWAP1 PUSH1 0x20 ADD SWAP1 SWAP3 SWAP2 SWAP1 POP POP POP PUSH2 0x215 JUMP JUMPDEST PUSH1 0x40 MLOAD DUP1 DUP3 DUP2 MSTORE PUSH1 0x20 ADD SWAP2 POP POP PUSH1 0x40 MLOAD DUP1 SWAP2 SUB SWAP1 RETURN JUMPDEST PUSH2 0x163 PUSH1 0x4 DUP1 CALLDATASIZE SUB PUSH1 0x40 DUP2 LT ISZERO PUSH2 0x143 JUMPI PUSH1 0x0 DUP1 REVERT JUMPDEST DUP2 ADD SWAP1 DUP1 DUP1 CALLDATALOAD SWAP1 PUSH1 0x20 ADD SWAP1 SWAP3 SWAP2 SWAP1 DUP1 CALLDATALOAD SWAP1 PUSH1 0x20 ADD SWAP1 SWAP3 SWAP2 SWAP1 POP POP POP PUSH2 0x233 JUMP JUMPDEST PUSH1 0x40 MLOAD DUP1 DUP3 DUP2 MSTORE PUSH1 0x20 ADD SWAP2 POP POP PUSH1 0x40 MLOAD DUP1 SWAP2 SUB SWAP1 RETURN JUMPDEST PUSH2 0x1A5 PUSH1 0x4 DUP1 CALLDATASIZE SUB PUSH1 0x20 DUP2 LT ISZERO PUSH2 0x18F JUMPI PUSH1 0x0 DUP1 REVERT JUMPDEST DUP2 ADD SWAP1 DUP1 DUP1 CALLDATALOAD SWAP1 PUSH1 0x20 ADD SWAP1 SWAP3 SWAP2 SWAP1 POP POP POP PUSH2 0x250 JUMP JUMPDEST PUSH1 0x40 MLOAD DUP1 DUP3 DUP2 MSTORE PUSH1 0x20 ADD SWAP2 POP POP PUSH1 0x40 MLOAD DUP1 SWAP2 SUB SWAP1 RETURN JUMPDEST PUSH2 0x1C3 PUSH2 0x26E JUMP JUMPDEST PUSH1 0x40 MLOAD DUP1 DUP3 DUP2 MSTORE PUSH1 0x20 ADD SWAP2 POP POP PUSH1 0x40 MLOAD DUP1 SWAP2 SUB SWAP1 RETURN JUMPDEST PUSH1 0x0 PUSH2 0x1F0 DUP3 PUSH1 0x0 NOT PUSH2 0x274 SWAP1 SWAP2 SWAP1 PUSH4 0xFFFFFFFF AND JUMP JUMPDEST SWAP1 POP SWAP2 SWAP1 POP JUMP JUMPDEST PUSH1 0x0 PUSH2 0x20E DUP3 PUSH1 0x0 NOT PUSH2 0x2BE SWAP1 SWAP2 SWAP1 PUSH4 0xFFFFFFFF AND JUMP JUMPDEST SWAP1 POP SWAP2 SWAP1 POP JUMP JUMPDEST PUSH1 0x0 PUSH2 0x22C DUP3 PUSH1 0x0 NOT PUSH2 0x346 SWAP1 SWAP2 SWAP1 PUSH4 0xFFFFFFFF AND JUMP JUMPDEST SWAP1 POP SWAP2 SWAP1 POP JUMP JUMPDEST PUSH1 0x0 PUSH2 0x248 DUP3 DUP5 PUSH2 0x2BE SWAP1 SWAP2 SWAP1 PUSH4 0xFFFFFFFF AND JUMP JUMPDEST SWAP1 POP SWAP3 SWAP2 POP POP JUMP JUMPDEST PUSH1 0x0 PUSH2 0x267 DUP3 PUSH1 0x0 NOT PUSH2 0x390 SWAP1 SWAP2 SWAP1 PUSH4 0xFFFFFFFF AND JUMP JUMPDEST SWAP1 POP SWAP2 SWAP1 POP JUMP JUMPDEST PUSH1 0x0 NOT DUP2 JUMP JUMPDEST PUSH1 0x0 PUSH2 0x2B6 DUP4 DUP4 PUSH1 0x40 MLOAD DUP1 PUSH1 0x40 ADD PUSH1 0x40 MSTORE DUP1 PUSH1 0x1A DUP2 MSTORE PUSH1 0x20 ADD PUSH32 0x536166654D6174683A206469766973696F6E206279207A65726F000000000000 DUP2 MSTORE POP PUSH2 0x416 JUMP JUMPDEST SWAP1 POP SWAP3 SWAP2 POP POP JUMP JUMPDEST PUSH1 0x0 DUP1 DUP3 DUP5 ADD SWAP1 POP DUP4 DUP2 LT ISZERO PUSH2 0x33C JUMPI PUSH1 0x40 MLOAD PUSH32 0x8C379A000000000000000000000000000000000000000000000000000000000 DUP2 MSTORE PUSH1 0x4 ADD DUP1 DUP1 PUSH1 0x20 ADD DUP3 DUP2 SUB DUP3 MSTORE PUSH1 0x1B DUP2 MSTORE PUSH1 0x20 ADD DUP1 PUSH32 0x536166654D6174683A206164646974696F6E206F766572666C6F770000000000 DUP2 MSTORE POP PUSH1 0x20 ADD SWAP2 POP POP PUSH1 0x40 MLOAD DUP1 SWAP2 SUB SWAP1 REVERT JUMPDEST DUP1 SWAP2 POP POP SWAP3 SWAP2 POP POP JUMP JUMPDEST PUSH1 0x0 PUSH2 0x388 DUP4 DUP4 PUSH1 0x40 MLOAD DUP1 PUSH1 0x40 ADD PUSH1 0x40 MSTORE DUP1 PUSH1 0x18 DUP2 MSTORE PUSH1 0x20 ADD PUSH32 0x536166654D6174683A206D6F64756C6F206279207A65726F0000000000000000 DUP2 MSTORE POP PUSH2 0x4DC JUMP JUMPDEST SWAP1 POP SWAP3 SWAP2 POP POP JUMP JUMPDEST PUSH1 0x0 DUP1 DUP4 EQ ISZERO PUSH2 0x3A3 JUMPI PUSH1 0x0 SWAP1 POP PUSH2 0x410 JUMP JUMPDEST PUSH1 0x0 DUP3 DUP5 MUL SWAP1 POP DUP3 DUP5 DUP3 DUP2 PUSH2 0x3B4 JUMPI INVALID JUMPDEST DIV EQ PUSH2 0x40B JUMPI PUSH1 0x40 MLOAD PUSH32 0x8C379A000000000000000000000000000000000000000000000000000000000 DUP2 MSTORE PUSH1 0x4 ADD DUP1 DUP1 PUSH1 0x20 ADD DUP3 DUP2 SUB DUP3 MSTORE PUSH1 0x21 DUP2 MSTORE PUSH1 0x20 ADD DUP1 PUSH2 0x59E PUSH1 0x21 SWAP2 CODECOPY PUSH1 0x40 ADD SWAP2 POP POP PUSH1 0x40 MLOAD DUP1 SWAP2 SUB SWAP1 REVERT JUMPDEST DUP1 SWAP2 POP POP JUMPDEST SWAP3 SWAP2 POP POP JUMP JUMPDEST PUSH1 0x0 DUP1 DUP4 GT DUP3 SWAP1 PUSH2 0x4C2 JUMPI PUSH1 0x40 MLOAD PUSH32 0x8C379A000000000000000000000000000000000000000000000000000000000 DUP2 MSTORE PUSH1 0x4 ADD DUP1 DUP1 PUSH1 0x20 ADD DUP3 DUP2 SUB DUP3 MSTORE DUP4 DUP2 DUP2 MLOAD DUP2 MSTORE PUSH1 0x20 ADD SWAP2 POP DUP1 MLOAD SWAP1 PUSH1 0x20 ADD SWAP1 DUP1 DUP4 DUP4 PUSH1 0x0 JUMPDEST DUP4 DUP2 LT ISZERO PUSH2 0x487 JUMPI DUP1 DUP3 ADD MLOAD DUP2 DUP5 ADD MSTORE PUSH1 0x20 DUP2 ADD SWAP1 POP PUSH2 0x46C JUMP JUMPDEST POP POP POP POP SWAP1 POP SWAP1 DUP2 ADD SWAP1 PUSH1 0x1F AND DUP1 ISZERO PUSH2 0x4B4 JUMPI DUP1 DUP3 SUB DUP1 MLOAD PUSH1 0x1 DUP4 PUSH1 0x20 SUB PUSH2 0x100 EXP SUB NOT AND DUP2 MSTORE PUSH1 0x20 ADD SWAP2 POP JUMPDEST POP SWAP3 POP POP POP PUSH1 0x40 MLOAD DUP1 SWAP2 SUB SWAP1 REVERT JUMPDEST POP PUSH1 0x0 DUP4 DUP6 DUP2 PUSH2 0x4CE JUMPI INVALID JUMPDEST DIV SWAP1 POP DUP1 SWAP2 POP POP SWAP4 SWAP3 POP POP POP JUMP JUMPDEST PUSH1 0x0 DUP1 DUP4 EQ ISZERO DUP3 SWAP1 PUSH2 0x589 JUMPI PUSH1 0x40 MLOAD PUSH32 0x8C379A000000000000000000000000000000000000000000000000000000000 DUP2 MSTORE PUSH1 0x4 ADD DUP1 DUP1 PUSH1 0x20 ADD DUP3 DUP2 SUB DUP3 MSTORE DUP4 DUP2 DUP2 MLOAD DUP2 MSTORE PUSH1 0x20 ADD SWAP2 POP DUP1 MLOAD SWAP1 PUSH1 0x20 ADD SWAP1 DUP1 DUP4 DUP4 PUSH1 0x0 JUMPDEST DUP4 DUP2 LT ISZERO PUSH2 0x54E JUMPI DUP1 DUP3 ADD MLOAD DUP2 DUP5 ADD MSTORE PUSH1 0x20 DUP2 ADD SWAP1 POP PUSH2 0x533 JUMP JUMPDEST POP POP POP POP SWAP1 POP SWAP1 DUP2 ADD SWAP1 PUSH1 0x1F AND DUP1 ISZERO PUSH2 0x57B JUMPI DUP1 DUP3 SUB DUP1 MLOAD PUSH1 0x1 DUP4 PUSH1 0x20 SUB PUSH2 0x100 EXP SUB NOT AND DUP2 MSTORE PUSH1 0x20 ADD SWAP2 POP JUMPDEST POP SWAP3 POP POP POP PUSH1 0x40 MLOAD DUP1 SWAP2 SUB SWAP1 REVERT JUMPDEST POP DUP3 DUP5 DUP2 PUSH2 0x593 JUMPI INVALID JUMPDEST MOD SWAP1 POP SWAP4 SWAP3 POP POP POP JUMP INVALID MSTORE8 PUSH2 0x6665 0x4D PUSH2 0x7468 GASPRICE KECCAK256 PUSH14 0x756C7469706C69636174696F6E20 PUSH16 0x766572666C6F77A26469706673582212 KECCAK256 CALLDATASIZE EXTCODESIZE 0xCD 0xF6 0xAF PUSH13 0x2FEFC846A29DB6D794B742307 REVERT 0x1E NOT POP PUSH17 0x40DB05E4E2BC90AD64736F6C6343000706 STOP CALLER "
				},
				"gasEstimates": {
					"creation": {
						"codeDepositCost": "304800",
						"executionCost": "343",
						"totalCost": "305143"
					},
					"external": {
						"MAX_UINT()": "296",
						"addition(uint256)": "infinite",
						"division(uint256)": "infinite",
						"modulo(uint256)": "infinite",
						"multiplication(uint256)": "infinite",
						"subtraction(uint256,uint256)": "infinite"
					}
				},
				"methodIdentifiers": {
					"MAX_UINT()": "e5b5019a",
					"addition(uint256)": "543209b7",
					"division(uint256)": "45bd069b",
					"modulo(uint256)": "886c6f51",
					"multiplication(uint256)": "c6162c61",
					"subtraction(uint256,uint256)": "900683d0"
				}
			},
			"storageLayout": {
				"storage": [],
				"types": null
			},
			"userdoc": {
				"kind": "user",
				"methods": {},
				"version": 1
			}
		}
	}
}