{
	"chapter8/Ex8_1.sol": {
		"Ex8_1": {
			"abi": [
				{
					"inputs": [
						{
							"internalType": "uint256",
							"name": "_num",
							"type": "uint256"
						}
					],
					"name": "getValue1",
					"outputs": [
						{
							"internalType": "uint256",
							"name": "",
							"type": "uint256"
						}
					],
					"stateMutability": "pure",
					"type": "function"
				},
				{
					"inputs": [
						{
							"internalType": "uint256",
							"name": "_num",
							"type": "uint256"
						}
					],
					"name": "getValue2",
					"outputs": [
						{
							"internalType": "uint256",
							"name": "",
							"type": "uint256"
						}
					],
					"stateMutability": "pure",
					"type": "function"
				}
			],
			"devdoc": {
				"kind": "dev",
				"methods": {},
				"version": 1
			},
			"evm": {
				"assembly": "    /* \"chapter8/Ex8_1.sol\":94:455  contract Ex8_1 {... */\n  mstore(0x40, 0x80)\n  callvalue\n  dup1\n  iszero\n  tag_1\n  jumpi\n  0x00\n  dup1\n  revert\ntag_1:\n  pop\n  dataSize(sub_0)\n  dup1\n  dataOffset(sub_0)\n  0x00\n  codecopy\n  0x00\n  return\nstop\n\nsub_0: assembly {\n        /* \"chapter8/Ex8_1.sol\":94:455  contract Ex8_1 {... */\n      mstore(0x40, 0x80)\n      callvalue\n      dup1\n      iszero\n      tag_1\n      jumpi\n      0x00\n      dup1\n      revert\n    tag_1:\n      pop\n      jumpi(tag_2, lt(calldatasize, 0x04))\n      shr(0xe0, calldataload(0x00))\n      dup1\n      0x159c8256\n      eq\n      tag_3\n      jumpi\n      dup1\n      0x491460cf\n      eq\n      tag_4\n      jumpi\n    tag_2:\n      0x00\n      dup1\n      revert\n        /* \"chapter8/Ex8_1.sol\":234:338  function getValue1(uint _num) public pure numMoreThan1(_num) returns(uint){... */\n    tag_3:\n      tag_5\n      0x04\n      dup1\n      calldatasize\n      sub\n      dup2\n      add\n      swap1\n      tag_6\n      swap2\n      swap1\n      tag_7\n      jump\t// in\n    tag_6:\n      tag_8\n      jump\t// in\n    tag_5:\n      mload(0x40)\n      tag_9\n      swap2\n      swap1\n      tag_10\n      jump\t// in\n    tag_9:\n      mload(0x40)\n      dup1\n      swap2\n      sub\n      swap1\n      return\n        /* \"chapter8/Ex8_1.sol\":346:452  function getValue2(uint _num) public pure numMoreThan1(_num) returns(uint){... */\n    tag_4:\n      tag_11\n      0x04\n      dup1\n      calldatasize\n      sub\n      dup2\n      add\n      swap1\n      tag_12\n      swap2\n      swap1\n      tag_7\n      jump\t// in\n    tag_12:\n      tag_13\n      jump\t// in\n    tag_11:\n      mload(0x40)\n      tag_14\n      swap2\n      swap1\n      tag_10\n      jump\t// in\n    tag_14:\n      mload(0x40)\n      dup1\n      swap2\n      sub\n      swap1\n      return\n        /* \"chapter8/Ex8_1.sol\":234:338  function getValue1(uint _num) public pure numMoreThan1(_num) returns(uint){... */\n    tag_8:\n        /* \"chapter8/Ex8_1.sol\":303:307  uint */\n      0x00\n        /* \"chapter8/Ex8_1.sol\":289:293  _num */\n      dup2\n        /* \"chapter8/Ex8_1.sol\":176:177  1 */\n      0x01\n        /* \"chapter8/Ex8_1.sol\":169:173  _num */\n      dup2\n        /* \"chapter8/Ex8_1.sol\":169:177  _num > 1 */\n      gt\n        /* \"chapter8/Ex8_1.sol\":160:206  require (_num > 1, \"_num must be more than 1\") */\n      tag_16\n      jumpi\n      mload(0x40)\n      0x08c379a000000000000000000000000000000000000000000000000000000000\n      dup2\n      mstore\n      0x04\n      add\n      tag_17\n      swap1\n      tag_18\n      jump\t// in\n    tag_17:\n      mload(0x40)\n      dup1\n      swap2\n      sub\n      swap1\n      revert\n    tag_16:\n        /* \"chapter8/Ex8_1.sol\":326:330  _num */\n      dup3\n        /* \"chapter8/Ex8_1.sol\":319:330  return _num */\n      swap2\n      pop\n        /* \"chapter8/Ex8_1.sol\":234:338  function getValue1(uint _num) public pure numMoreThan1(_num) returns(uint){... */\n      pop\n      swap2\n      swap1\n      pop\n      jump\t// out\n        /* \"chapter8/Ex8_1.sol\":346:452  function getValue2(uint _num) public pure numMoreThan1(_num) returns(uint){... */\n    tag_13:\n        /* \"chapter8/Ex8_1.sol\":415:419  uint */\n      0x00\n        /* \"chapter8/Ex8_1.sol\":401:405  _num */\n      dup2\n        /* \"chapter8/Ex8_1.sol\":176:177  1 */\n      0x01\n        /* \"chapter8/Ex8_1.sol\":169:173  _num */\n      dup2\n        /* \"chapter8/Ex8_1.sol\":169:177  _num > 1 */\n      gt\n        /* \"chapter8/Ex8_1.sol\":160:206  require (_num > 1, \"_num must be more than 1\") */\n      tag_21\n      jumpi\n      mload(0x40)\n      0x08c379a000000000000000000000000000000000000000000000000000000000\n      dup2\n      mstore\n      0x04\n      add\n      tag_22\n      swap1\n      tag_18\n      jump\t// in\n    tag_22:\n      mload(0x40)\n      dup1\n      swap2\n      sub\n      swap1\n      revert\n    tag_21:\n        /* \"chapter8/Ex8_1.sol\":443:444  2 */\n      0x02\n        /* \"chapter8/Ex8_1.sol\":438:442  _num */\n      dup4\n        /* \"chapter8/Ex8_1.sol\":438:444  _num*2 */\n      tag_24\n      swap2\n      swap1\n      tag_25\n      jump\t// in\n    tag_24:\n        /* \"chapter8/Ex8_1.sol\":431:444  return _num*2 */\n      swap2\n      pop\n        /* \"chapter8/Ex8_1.sol\":346:452  function getValue2(uint _num) public pure numMoreThan1(_num) returns(uint){... */\n      pop\n      swap2\n      swap1\n      pop\n      jump\t// out\n        /* \"#utility.yul\":88:205   */\n    tag_27:\n        /* \"#utility.yul\":197:198   */\n      0x00\n        /* \"#utility.yul\":194:195   */\n      dup1\n        /* \"#utility.yul\":187:199   */\n      revert\n        /* \"#utility.yul\":334:411   */\n    tag_29:\n        /* \"#utility.yul\":371:378   */\n      0x00\n        /* \"#utility.yul\":400:405   */\n      dup2\n        /* \"#utility.yul\":389:405   */\n      swap1\n      pop\n        /* \"#utility.yul\":334:411   */\n      swap2\n      swap1\n      pop\n      jump\t// out\n        /* \"#utility.yul\":417:539   */\n    tag_30:\n        /* \"#utility.yul\":490:514   */\n      tag_43\n        /* \"#utility.yul\":508:513   */\n      dup2\n        /* \"#utility.yul\":490:514   */\n      tag_29\n      jump\t// in\n    tag_43:\n        /* \"#utility.yul\":483:488   */\n      dup2\n        /* \"#utility.yul\":480:515   */\n      eq\n        /* \"#utility.yul\":470:533   */\n      tag_44\n      jumpi\n        /* \"#utility.yul\":529:530   */\n      0x00\n        /* \"#utility.yul\":526:527   */\n      dup1\n        /* \"#utility.yul\":519:531   */\n      revert\n        /* \"#utility.yul\":470:533   */\n    tag_44:\n        /* \"#utility.yul\":417:539   */\n      pop\n      jump\t// out\n        /* \"#utility.yul\":545:684   */\n    tag_31:\n        /* \"#utility.yul\":591:596   */\n      0x00\n        /* \"#utility.yul\":629:635   */\n      dup2\n        /* \"#utility.yul\":616:636   */\n      calldataload\n        /* \"#utility.yul\":607:636   */\n      swap1\n      pop\n        /* \"#utility.yul\":645:678   */\n      tag_46\n        /* \"#utility.yul\":672:677   */\n      dup2\n        /* \"#utility.yul\":645:678   */\n      tag_30\n      jump\t// in\n    tag_46:\n        /* \"#utility.yul\":545:684   */\n      swap3\n      swap2\n      pop\n      pop\n      jump\t// out\n        /* \"#utility.yul\":690:1019   */\n    tag_7:\n        /* \"#utility.yul\":749:755   */\n      0x00\n        /* \"#utility.yul\":798:800   */\n      0x20\n        /* \"#utility.yul\":786:795   */\n      dup3\n        /* \"#utility.yul\":777:784   */\n      dup5\n        /* \"#utility.yul\":773:796   */\n      sub\n        /* \"#utility.yul\":769:801   */\n      slt\n        /* \"#utility.yul\":766:885   */\n      iszero\n      tag_48\n      jumpi\n        /* \"#utility.yul\":804:883   */\n      tag_49\n      tag_27\n      jump\t// in\n    tag_49:\n        /* \"#utility.yul\":766:885   */\n    tag_48:\n        /* \"#utility.yul\":924:925   */\n      0x00\n        /* \"#utility.yul\":949:1002   */\n      tag_50\n        /* \"#utility.yul\":994:1001   */\n      dup5\n        /* \"#utility.yul\":985:991   */\n      dup3\n        /* \"#utility.yul\":974:983   */\n      dup6\n        /* \"#utility.yul\":970:992   */\n      add\n        /* \"#utility.yul\":949:1002   */\n      tag_31\n      jump\t// in\n    tag_50:\n        /* \"#utility.yul\":939:1002   */\n      swap2\n      pop\n        /* \"#utility.yul\":895:1012   */\n      pop\n        /* \"#utility.yul\":690:1019   */\n      swap3\n      swap2\n      pop\n      pop\n      jump\t// out\n        /* \"#utility.yul\":1025:1143   */\n    tag_32:\n        /* \"#utility.yul\":1112:1136   */\n      tag_52\n        /* \"#utility.yul\":1130:1135   */\n      dup2\n        /* \"#utility.yul\":1112:1136   */\n      tag_29\n      jump\t// in\n    tag_52:\n        /* \"#utility.yul\":1107:1110   */\n      dup3\n        /* \"#utility.yul\":1100:1137   */\n      mstore\n        /* \"#utility.yul\":1025:1143   */\n      pop\n      pop\n      jump\t// out\n        /* \"#utility.yul\":1149:1371   */\n    tag_10:\n        /* \"#utility.yul\":1242:1246   */\n      0x00\n        /* \"#utility.yul\":1280:1282   */\n      0x20\n        /* \"#utility.yul\":1269:1278   */\n      dup3\n        /* \"#utility.yul\":1265:1283   */\n      add\n        /* \"#utility.yul\":1257:1283   */\n      swap1\n      pop\n        /* \"#utility.yul\":1293:1364   */\n      tag_54\n        /* \"#utility.yul\":1361:1362   */\n      0x00\n        /* \"#utility.yul\":1350:1359   */\n      dup4\n        /* \"#utility.yul\":1346:1363   */\n      add\n        /* \"#utility.yul\":1337:1343   */\n      dup5\n        /* \"#utility.yul\":1293:1364   */\n      tag_32\n      jump\t// in\n    tag_54:\n        /* \"#utility.yul\":1149:1371   */\n      swap3\n      swap2\n      pop\n      pop\n      jump\t// out\n        /* \"#utility.yul\":1377:1546   */\n    tag_33:\n        /* \"#utility.yul\":1461:1472   */\n      0x00\n        /* \"#utility.yul\":1495:1501   */\n      dup3\n        /* \"#utility.yul\":1490:1493   */\n      dup3\n        /* \"#utility.yul\":1483:1502   */\n      mstore\n        /* \"#utility.yul\":1535:1539   */\n      0x20\n        /* \"#utility.yul\":1530:1533   */\n      dup3\n        /* \"#utility.yul\":1526:1540   */\n      add\n        /* \"#utility.yul\":1511:1540   */\n      swap1\n      pop\n        /* \"#utility.yul\":1377:1546   */\n      swap3\n      swap2\n      pop\n      pop\n      jump\t// out\n        /* \"#utility.yul\":1552:1726   */\n    tag_34:\n        /* \"#utility.yul\":1692:1718   */\n      0x5f6e756d206d757374206265206d6f7265207468616e20310000000000000000\n        /* \"#utility.yul\":1688:1689   */\n      0x00\n        /* \"#utility.yul\":1680:1686   */\n      dup3\n        /* \"#utility.yul\":1676:1690   */\n      add\n        /* \"#utility.yul\":1669:1719   */\n      mstore\n        /* \"#utility.yul\":1552:1726   */\n      pop\n      jump\t// out\n        /* \"#utility.yul\":1732:2098   */\n    tag_35:\n        /* \"#utility.yul\":1874:1877   */\n      0x00\n        /* \"#utility.yul\":1895:1962   */\n      tag_58\n        /* \"#utility.yul\":1959:1961   */\n      0x18\n        /* \"#utility.yul\":1954:1957   */\n      dup4\n        /* \"#utility.yul\":1895:1962   */\n      tag_33\n      jump\t// in\n    tag_58:\n        /* \"#utility.yul\":1888:1962   */\n      swap2\n      pop\n        /* \"#utility.yul\":1971:2064   */\n      tag_59\n        /* \"#utility.yul\":2060:2063   */\n      dup3\n        /* \"#utility.yul\":1971:2064   */\n      tag_34\n      jump\t// in\n    tag_59:\n        /* \"#utility.yul\":2089:2091   */\n      0x20\n        /* \"#utility.yul\":2084:2087   */\n      dup3\n        /* \"#utility.yul\":2080:2092   */\n      add\n        /* \"#utility.yul\":2073:2092   */\n      swap1\n      pop\n        /* \"#utility.yul\":1732:2098   */\n      swap2\n      swap1\n      pop\n      jump\t// out\n        /* \"#utility.yul\":2104:2523   */\n    tag_18:\n        /* \"#utility.yul\":2270:2274   */\n      0x00\n        /* \"#utility.yul\":2308:2310   */\n      0x20\n        /* \"#utility.yul\":2297:2306   */\n      dup3\n        /* \"#utility.yul\":2293:2311   */\n      add\n        /* \"#utility.yul\":2285:2311   */\n      swap1\n      pop\n        /* \"#utility.yul\":2357:2366   */\n      dup2\n        /* \"#utility.yul\":2351:2355   */\n      dup2\n        /* \"#utility.yul\":2347:2367   */\n      sub\n        /* \"#utility.yul\":2343:2344   */\n      0x00\n        /* \"#utility.yul\":2332:2341   */\n      dup4\n        /* \"#utility.yul\":2328:2345   */\n      add\n        /* \"#utility.yul\":2321:2368   */\n      mstore\n        /* \"#utility.yul\":2385:2516   */\n      tag_61\n        /* \"#utility.yul\":2511:2515   */\n      dup2\n        /* \"#utility.yul\":2385:2516   */\n      tag_35\n      jump\t// in\n    tag_61:\n        /* \"#utility.yul\":2377:2516   */\n      swap1\n      pop\n        /* \"#utility.yul\":2104:2523   */\n      swap2\n      swap1\n      pop\n      jump\t// out\n        /* \"#utility.yul\":2529:2709   */\n    tag_36:\n        /* \"#utility.yul\":2577:2654   */\n      0x4e487b7100000000000000000000000000000000000000000000000000000000\n        /* \"#utility.yul\":2574:2575   */\n      0x00\n        /* \"#utility.yul\":2567:2655   */\n      mstore\n        /* \"#utility.yul\":2674:2678   */\n      0x11\n        /* \"#utility.yul\":2671:2672   */\n      0x04\n        /* \"#utility.yul\":2664:2679   */\n      mstore\n        /* \"#utility.yul\":2698:2702   */\n      0x24\n        /* \"#utility.yul\":2695:2696   */\n      0x00\n        /* \"#utility.yul\":2688:2703   */\n      revert\n        /* \"#utility.yul\":2715:3125   */\n    tag_25:\n        /* \"#utility.yul\":2755:2762   */\n      0x00\n        /* \"#utility.yul\":2778:2798   */\n      tag_64\n        /* \"#utility.yul\":2796:2797   */\n      dup3\n        /* \"#utility.yul\":2778:2798   */\n      tag_29\n      jump\t// in\n    tag_64:\n        /* \"#utility.yul\":2773:2798   */\n      swap2\n      pop\n        /* \"#utility.yul\":2812:2832   */\n      tag_65\n        /* \"#utility.yul\":2830:2831   */\n      dup4\n        /* \"#utility.yul\":2812:2832   */\n      tag_29\n      jump\t// in\n    tag_65:\n        /* \"#utility.yul\":2807:2832   */\n      swap3\n      pop\n        /* \"#utility.yul\":2867:2868   */\n      dup3\n        /* \"#utility.yul\":2864:2865   */\n      dup3\n        /* \"#utility.yul\":2860:2869   */\n      mul\n        /* \"#utility.yul\":2889:2919   */\n      tag_66\n        /* \"#utility.yul\":2907:2918   */\n      dup2\n        /* \"#utility.yul\":2889:2919   */\n      tag_29\n      jump\t// in\n    tag_66:\n        /* \"#utility.yul\":2878:2919   */\n      swap2\n      pop\n        /* \"#utility.yul\":3068:3069   */\n      dup3\n        /* \"#utility.yul\":3059:3066   */\n      dup3\n        /* \"#utility.yul\":3055:3070   */\n      div\n        /* \"#utility.yul\":3052:3053   */\n      dup5\n        /* \"#utility.yul\":3049:3071   */\n      eq\n        /* \"#utility.yul\":3029:3030   */\n      dup4\n        /* \"#utility.yul\":3022:3031   */\n      iszero\n        /* \"#utility.yul\":3002:3085   */\n      or\n        /* \"#utility.yul\":2979:3118   */\n      tag_67\n      jumpi\n        /* \"#utility.yul\":3098:3116   */\n      tag_68\n      tag_36\n      jump\t// in\n    tag_68:\n        /* \"#utility.yul\":2979:3118   */\n    tag_67:\n        /* \"#utility.yul\":2763:3125   */\n      pop\n        /* \"#utility.yul\":2715:3125   */\n      swap3\n      swap2\n      pop\n      pop\n      jump\t// out\n\n    auxdata: 0xa2646970667358221220bcd487bcc481bfd97716c941232b1ce1e6ea916978893a225f6b6b54222ec14064736f6c63430008170033\n}\n",
				"bytecode": {
					"linkReferences": {},
					"object": "608060405234801561000f575f80fd5b506102e68061001d5f395ff3fe608060405234801561000f575f80fd5b5060043610610034575f3560e01c8063159c825614610038578063491460cf14610068575b5f80fd5b610052600480360381019061004d9190610177565b610098565b60405161005f91906101b1565b60405180910390f35b610082600480360381019061007d9190610177565b6100e6565b60405161008f91906101b1565b60405180910390f35b5f81600181116100dd576040517f08c379a00000000000000000000000000000000000000000000000000000000081526004016100d490610224565b60405180910390fd5b82915050919050565b5f816001811161012b576040517f08c379a000000000000000000000000000000000000000000000000000000000815260040161012290610224565b60405180910390fd5b600283610138919061026f565b915050919050565b5f80fd5b5f819050919050565b61015681610144565b8114610160575f80fd5b50565b5f813590506101718161014d565b92915050565b5f6020828403121561018c5761018b610140565b5b5f61019984828501610163565b91505092915050565b6101ab81610144565b82525050565b5f6020820190506101c45f8301846101a2565b92915050565b5f82825260208201905092915050565b7f5f6e756d206d757374206265206d6f7265207468616e203100000000000000005f82015250565b5f61020e6018836101ca565b9150610219826101da565b602082019050919050565b5f6020820190508181035f83015261023b81610202565b9050919050565b7f4e487b71000000000000000000000000000000000000000000000000000000005f52601160045260245ffd5b5f61027982610144565b915061028483610144565b925082820261029281610144565b915082820484148315176102a9576102a8610242565b5b509291505056fea2646970667358221220bcd487bcc481bfd97716c941232b1ce1e6ea916978893a225f6b6b54222ec14064736f6c63430008170033",
					"opcodes": "PUSH1 0x80 PUSH1 0x40 MSTORE CALLVALUE DUP1 ISZERO PUSH2 0xF JUMPI PUSH0 DUP1 REVERT JUMPDEST POP PUSH2 0x2E6 DUP1 PUSH2 0x1D PUSH0 CODECOPY PUSH0 RETURN INVALID PUSH1 0x80 PUSH1 0x40 MSTORE CALLVALUE DUP1 ISZERO PUSH2 0xF JUMPI PUSH0 DUP1 REVERT JUMPDEST POP PUSH1 0x4 CALLDATASIZE LT PUSH2 0x34 JUMPI PUSH0 CALLDATALOAD PUSH1 0xE0 SHR DUP1 PUSH4 0x159C8256 EQ PUSH2 0x38 JUMPI DUP1 PUSH4 0x491460CF EQ PUSH2 0x68 JUMPI JUMPDEST PUSH0 DUP1 REVERT JUMPDEST PUSH2 0x52 PUSH1 0x4 DUP1 CALLDATASIZE SUB DUP2 ADD SWAP1 PUSH2 0x4D SWAP2 SWAP1 PUSH2 0x177 JUMP JUMPDEST PUSH2 0x98 JUMP JUMPDEST PUSH1 0x40 MLOAD PUSH2 0x5F SWAP2 SWAP1 PUSH2 0x1B1 JUMP JUMPDEST PUSH1 0x40 MLOAD DUP1 SWAP2 SUB SWAP1 RETURN JUMPDEST PUSH2 0x82 PUSH1 0x4 DUP1 CALLDATASIZE SUB DUP2 ADD SWAP1 PUSH2 0x7D SWAP2 SWAP1 PUSH2 0x177 JUMP JUMPDEST PUSH2 0xE6 JUMP JUMPDEST PUSH1 0x40 MLOAD PUSH2 0x8F SWAP2 SWAP1 PUSH2 0x1B1 JUMP JUMPDEST PUSH1 0x40 MLOAD DUP1 SWAP2 SUB SWAP1 RETURN JUMPDEST PUSH0 DUP2 PUSH1 0x1 DUP2 GT PUSH2 0xDD JUMPI PUSH1 0x40 MLOAD PUSH32 0x8C379A000000000000000000000000000000000000000000000000000000000 DUP2 MSTORE PUSH1 0x4 ADD PUSH2 0xD4 SWAP1 PUSH2 0x224 JUMP JUMPDEST PUSH1 0x40 MLOAD DUP1 SWAP2 SUB SWAP1 REVERT JUMPDEST DUP3 SWAP2 POP POP SWAP2 SWAP1 POP JUMP JUMPDEST PUSH0 DUP2 PUSH1 0x1 DUP2 GT PUSH2 0x12B JUMPI PUSH1 0x40 MLOAD PUSH32 0x8C379A000000000000000000000000000000000000000000000000000000000 DUP2 MSTORE PUSH1 0x4 ADD PUSH2 0x122 SWAP1 PUSH2 0x224 JUMP JUMPDEST PUSH1 0x40 MLOAD DUP1 SWAP2 SUB SWAP1 REVERT JUMPDEST PUSH1 0x2 DUP4 PUSH2 0x138 SWAP2 SWAP1 PUSH2 0x26F JUMP JUMPDEST SWAP2 POP POP SWAP2 SWAP1 POP JUMP JUMPDEST PUSH0 DUP1 REVERT JUMPDEST PUSH0 DUP2 SWAP1 POP SWAP2 SWAP1 POP JUMP JUMPDEST PUSH2 0x156 DUP2 PUSH2 0x144 JUMP JUMPDEST DUP2 EQ PUSH2 0x160 JUMPI PUSH0 DUP1 REVERT JUMPDEST POP JUMP JUMPDEST PUSH0 DUP2 CALLDATALOAD SWAP1 POP PUSH2 0x171 DUP2 PUSH2 0x14D JUMP JUMPDEST SWAP3 SWAP2 POP POP JUMP JUMPDEST PUSH0 PUSH1 0x20 DUP3 DUP5 SUB SLT ISZERO PUSH2 0x18C JUMPI PUSH2 0x18B PUSH2 0x140 JUMP JUMPDEST JUMPDEST PUSH0 PUSH2 0x199 DUP5 DUP3 DUP6 ADD PUSH2 0x163 JUMP JUMPDEST SWAP2 POP POP SWAP3 SWAP2 POP POP JUMP JUMPDEST PUSH2 0x1AB DUP2 PUSH2 0x144 JUMP JUMPDEST DUP3 MSTORE POP POP JUMP JUMPDEST PUSH0 PUSH1 0x20 DUP3 ADD SWAP1 POP PUSH2 0x1C4 PUSH0 DUP4 ADD DUP5 PUSH2 0x1A2 JUMP JUMPDEST SWAP3 SWAP2 POP POP JUMP JUMPDEST PUSH0 DUP3 DUP3 MSTORE PUSH1 0x20 DUP3 ADD SWAP1 POP SWAP3 SWAP2 POP POP JUMP JUMPDEST PUSH32 0x5F6E756D206D757374206265206D6F7265207468616E20310000000000000000 PUSH0 DUP3 ADD MSTORE POP JUMP JUMPDEST PUSH0 PUSH2 0x20E PUSH1 0x18 DUP4 PUSH2 0x1CA JUMP JUMPDEST SWAP2 POP PUSH2 0x219 DUP3 PUSH2 0x1DA JUMP JUMPDEST PUSH1 0x20 DUP3 ADD SWAP1 POP SWAP2 SWAP1 POP JUMP JUMPDEST PUSH0 PUSH1 0x20 DUP3 ADD SWAP1 POP DUP2 DUP2 SUB PUSH0 DUP4 ADD MSTORE PUSH2 0x23B DUP2 PUSH2 0x202 JUMP JUMPDEST SWAP1 POP SWAP2 SWAP1 POP JUMP JUMPDEST PUSH32 0x4E487B7100000000000000000000000000000000000000000000000000000000 PUSH0 MSTORE PUSH1 0x11 PUSH1 0x4 MSTORE PUSH1 0x24 PUSH0 REVERT JUMPDEST PUSH0 PUSH2 0x279 DUP3 PUSH2 0x144 JUMP JUMPDEST SWAP2 POP PUSH2 0x284 DUP4 PUSH2 0x144 JUMP JUMPDEST SWAP3 POP DUP3 DUP3 MUL PUSH2 0x292 DUP2 PUSH2 0x144 JUMP JUMPDEST SWAP2 POP DUP3 DUP3 DIV DUP5 EQ DUP4 ISZERO OR PUSH2 0x2A9 JUMPI PUSH2 0x2A8 PUSH2 0x242 JUMP JUMPDEST JUMPDEST POP SWAP3 SWAP2 POP POP JUMP INVALID LOG2 PUSH5 0x6970667358 0x22 SLT KECCAK256 0xBC 0xD4 DUP8 0xBC 0xC4 DUP2 0xBF 0xD9 PUSH24 0x16C941232B1CE1E6EA916978893A225F6B6B54222EC14064 PUSH20 0x6F6C634300081700330000000000000000000000 "
				},
				"gasEstimates": {
					"creation": {
						"codeDepositCost": "148400",
						"executionCost": "194",
						"totalCost": "148594"
					},
					"external": {
						"getValue1(uint256)": "infinite",
						"getValue2(uint256)": "infinite"
					}
				},
				"methodIdentifiers": {
					"getValue1(uint256)": "159c8256",
					"getValue2(uint256)": "491460cf"
				}
			},
			"storageLayout": {
				"storage": [],
				"types": null
			},
			"userdoc": {
				"kind": "user",
				"methods": {},
				"version": 1
			}
		}
	}
}