{
	"chapter8/Ex8_9.sol": {
		"Ex8_9": {
			"abi": [
				{
					"inputs": [
						{
							"internalType": "uint256",
							"name": "_num1",
							"type": "uint256"
						},
						{
							"internalType": "uint256",
							"name": "_num2",
							"type": "uint256"
						}
					],
					"name": "subtraction",
					"outputs": [
						{
							"internalType": "uint256",
							"name": "",
							"type": "uint256"
						}
					],
					"stateMutability": "pure",
					"type": "function"
				}
			],
			"devdoc": {
				"kind": "dev",
				"methods": {},
				"version": 1
			},
			"evm": {
				"assembly": "    /* \"chapter8/Ex8_9.sol\":398:562  contract Ex8_9 {\r... */\n  mstore(0x40, 0x80)\n  callvalue\n  dup1\n  iszero\n  tag_1\n  jumpi\n  0x00\n  dup1\n  revert\ntag_1:\n  pop\n  dataSize(sub_0)\n  dup1\n  dataOffset(sub_0)\n  0x00\n  codecopy\n  0x00\n  return\nstop\n\nsub_0: assembly {\n        /* \"chapter8/Ex8_9.sol\":398:562  contract Ex8_9 {\r... */\n      mstore(0x40, 0x80)\n      callvalue\n      dup1\n      iszero\n      tag_1\n      jumpi\n      0x00\n      dup1\n      revert\n    tag_1:\n      pop\n      jumpi(tag_2, lt(calldatasize, 0x04))\n      shr(0xe0, calldataload(0x00))\n      dup1\n      0x900683d0\n      eq\n      tag_3\n      jumpi\n    tag_2:\n      0x00\n      dup1\n      revert\n        /* \"chapter8/Ex8_9.sol\":446:559  function subtraction(uint _num1, uint _num2) public pure returns(uint) {\r... */\n    tag_3:\n      tag_4\n      0x04\n      dup1\n      calldatasize\n      sub\n      0x40\n      dup2\n      lt\n      iszero\n      tag_5\n      jumpi\n      0x00\n      dup1\n      revert\n    tag_5:\n      dup2\n      add\n      swap1\n      dup1\n      dup1\n      calldataload\n      swap1\n      0x20\n      add\n      swap1\n      swap3\n      swap2\n      swap1\n      dup1\n      calldataload\n      swap1\n      0x20\n      add\n      swap1\n      swap3\n      swap2\n      swap1\n      pop\n      pop\n      pop\n      tag_6\n      jump\t// in\n    tag_4:\n      mload(0x40)\n      dup1\n      dup3\n      dup2\n      mstore\n      0x20\n      add\n      swap2\n      pop\n      pop\n      mload(0x40)\n      dup1\n      swap2\n      sub\n      swap1\n      return\n    tag_6:\n        /* \"chapter8/Ex8_9.sol\":511:515  uint */\n      0x00\n        /* \"chapter8/Ex8_9.sol\":535:551  _num1.sub(_num2) */\n      tag_8\n        /* \"chapter8/Ex8_9.sol\":545:550  _num2 */\n      dup3\n        /* \"chapter8/Ex8_9.sol\":535:540  _num1 */\n      dup5\n        /* \"chapter8/Ex8_9.sol\":535:544  _num1.sub */\n      tag_9\n      swap1\n        /* \"chapter8/Ex8_9.sol\":535:551  _num1.sub(_num2) */\n      swap2\n      swap1\n      0xffffffff\n      and\n      jump\t// in\n    tag_8:\n        /* \"chapter8/Ex8_9.sol\":528:551  return _num1.sub(_num2) */\n      swap1\n      pop\n        /* \"chapter8/Ex8_9.sol\":446:559  function subtraction(uint _num1, uint _num2) public pure returns(uint) {\r... */\n      swap3\n      swap2\n      pop\n      pop\n      jump\t// out\n        /* \"chapter8/Ex8_9.sol\":219:389  function sub(uint _num1, uint _num2) internal pure returns(uint) {\r... */\n    tag_9:\n        /* \"chapter8/Ex8_9.sol\":278:282  uint */\n      0x00\n        /* \"chapter8/Ex8_9.sol\":312:317  _num2 */\n      dup2\n        /* \"chapter8/Ex8_9.sol\":303:308  _num1 */\n      dup4\n        /* \"chapter8/Ex8_9.sol\":303:317  _num1 >= _num2 */\n      lt\n      iszero\n        /* \"chapter8/Ex8_9.sol\":295:350  require(_num1 >= _num2, \"Error: subtraction underflow\") */\n      tag_11\n      jumpi\n      mload(0x40)\n      0x08c379a000000000000000000000000000000000000000000000000000000000\n      dup2\n      mstore\n      0x04\n      add\n      dup1\n      dup1\n      0x20\n      add\n      dup3\n      dup2\n      sub\n      dup3\n      mstore\n      0x1c\n      dup2\n      mstore\n      0x20\n      add\n      dup1\n      0x4572726f723a207375627472616374696f6e20756e646572666c6f7700000000\n      dup2\n      mstore\n      pop\n      0x20\n      add\n      swap2\n      pop\n      pop\n      mload(0x40)\n      dup1\n      swap2\n      sub\n      swap1\n      revert\n    tag_11:\n        /* \"chapter8/Ex8_9.sol\":376:381  _num2 */\n      dup2\n        /* \"chapter8/Ex8_9.sol\":368:373  _num1 */\n      dup4\n        /* \"chapter8/Ex8_9.sol\":368:381  _num1 - _num2 */\n      sub\n        /* \"chapter8/Ex8_9.sol\":361:381  return _num1 - _num2 */\n      swap1\n      pop\n        /* \"chapter8/Ex8_9.sol\":219:389  function sub(uint _num1, uint _num2) internal pure returns(uint) {\r... */\n      swap3\n      swap2\n      pop\n      pop\n      jump\t// out\n\n    auxdata: 0xa2646970667358221220835387d78d6c8a8a8fa29d1f7bd28b194458d964fcbd6f0f34bcf4135771dd5a64736f6c63430007060033\n}\n",
				"bytecode": {
					"linkReferences": {},
					"object": "608060405234801561001057600080fd5b50610152806100206000396000f3fe608060405234801561001057600080fd5b506004361061002b5760003560e01c8063900683d014610030575b600080fd5b6100666004803603604081101561004657600080fd5b81019080803590602001909291908035906020019092919050505061007c565b6040518082815260200191505060405180910390f35b6000610091828461009990919063ffffffff16565b905092915050565b600081831015610111576040517f08c379a000000000000000000000000000000000000000000000000000000000815260040180806020018281038252601c8152602001807f4572726f723a207375627472616374696f6e20756e646572666c6f770000000081525060200191505060405180910390fd5b81830390509291505056fea2646970667358221220835387d78d6c8a8a8fa29d1f7bd28b194458d964fcbd6f0f34bcf4135771dd5a64736f6c63430007060033",
					"opcodes": "PUSH1 0x80 PUSH1 0x40 MSTORE CALLVALUE DUP1 ISZERO PUSH2 0x10 JUMPI PUSH1 0x0 DUP1 REVERT JUMPDEST POP PUSH2 0x152 DUP1 PUSH2 0x20 PUSH1 0x0 CODECOPY PUSH1 0x0 RETURN INVALID PUSH1 0x80 PUSH1 0x40 MSTORE CALLVALUE DUP1 ISZERO PUSH2 0x10 JUMPI PUSH1 0x0 DUP1 REVERT JUMPDEST POP PUSH1 0x4 CALLDATASIZE LT PUSH2 0x2B JUMPI PUSH1 0x0 CALLDATALOAD PUSH1 0xE0 SHR DUP1 PUSH4 0x900683D0 EQ PUSH2 0x30 JUMPI JUMPDEST PUSH1 0x0 DUP1 REVERT JUMPDEST PUSH2 0x66 PUSH1 0x4 DUP1 CALLDATASIZE SUB PUSH1 0x40 DUP2 LT ISZERO PUSH2 0x46 JUMPI PUSH1 0x0 DUP1 REVERT JUMPDEST DUP2 ADD SWAP1 DUP1 DUP1 CALLDATALOAD SWAP1 PUSH1 0x20 ADD SWAP1 SWAP3 SWAP2 SWAP1 DUP1 CALLDATALOAD SWAP1 PUSH1 0x20 ADD SWAP1 SWAP3 SWAP2 SWAP1 POP POP POP PUSH2 0x7C JUMP JUMPDEST PUSH1 0x40 MLOAD DUP1 DUP3 DUP2 MSTORE PUSH1 0x20 ADD SWAP2 POP POP PUSH1 0x40 MLOAD DUP1 SWAP2 SUB SWAP1 RETURN JUMPDEST PUSH1 0x0 PUSH2 0x91 DUP3 DUP5 PUSH2 0x99 SWAP1 SWAP2 SWAP1 PUSH4 0xFFFFFFFF AND JUMP JUMPDEST SWAP1 POP SWAP3 SWAP2 POP POP JUMP JUMPDEST PUSH1 0x0 DUP2 DUP4 LT ISZERO PUSH2 0x111 JUMPI PUSH1 0x40 MLOAD PUSH32 0x8C379A000000000000000000000000000000000000000000000000000000000 DUP2 MSTORE PUSH1 0x4 ADD DUP1 DUP1 PUSH1 0x20 ADD DUP3 DUP2 SUB DUP3 MSTORE PUSH1 0x1C DUP2 MSTORE PUSH1 0x20 ADD DUP1 PUSH32 0x4572726F723A207375627472616374696F6E20756E646572666C6F7700000000 DUP2 MSTORE POP PUSH1 0x20 ADD SWAP2 POP POP PUSH1 0x40 MLOAD DUP1 SWAP2 SUB SWAP1 REVERT JUMPDEST DUP2 DUP4 SUB SWAP1 POP SWAP3 SWAP2 POP POP JUMP INVALID LOG2 PUSH5 0x6970667358 0x22 SLT KECCAK256 DUP4 MSTORE8 DUP8 0xD7 DUP14 PUSH13 0x8A8A8FA29D1F7BD28B194458D9 PUSH5 0xFCBD6F0F34 0xBC DELEGATECALL SGT JUMPI PUSH18 0xDD5A64736F6C634300070600330000000000 "
				},
				"gasEstimates": {
					"creation": {
						"codeDepositCost": "67600",
						"executionCost": "117",
						"totalCost": "67717"
					},
					"external": {
						"subtraction(uint256,uint256)": "infinite"
					}
				},
				"methodIdentifiers": {
					"subtraction(uint256,uint256)": "900683d0"
				}
			},
			"storageLayout": {
				"storage": [],
				"types": null
			},
			"userdoc": {
				"kind": "user",
				"methods": {},
				"version": 1
			}
		}
	}
}