{
	"chapter8/Ex8_3.sol": {
		"Ex8_3": {
			"abi": [
				{
					"inputs": [],
					"stateMutability": "nonpayable",
					"type": "constructor"
				},
				{
					"anonymous": false,
					"inputs": [
						{
							"indexed": false,
							"internalType": "string",
							"name": "info",
							"type": "string"
						}
					],
					"name": "Information",
					"type": "event"
				},
				{
					"inputs": [],
					"name": "deliveryFood",
					"outputs": [],
					"stateMutability": "nonpayable",
					"type": "function"
				},
				{
					"inputs": [],
					"name": "foodStatus",
					"outputs": [
						{
							"internalType": "enum Ex8_3.FoodProcess",
							"name": "",
							"type": "uint8"
						}
					],
					"stateMutability": "view",
					"type": "function"
				},
				{
					"inputs": [],
					"name": "orderFood",
					"outputs": [],
					"stateMutability": "nonpayable",
					"type": "function"
				},
				{
					"inputs": [],
					"name": "paymentFood",
					"outputs": [],
					"stateMutability": "nonpayable",
					"type": "function"
				},
				{
					"inputs": [],
					"name": "takeAwayFood",
					"outputs": [],
					"stateMutability": "nonpayable",
					"type": "function"
				}
			],
			"devdoc": {
				"kind": "dev",
				"methods": {},
				"version": 1
			},
			"evm": {
				"assembly": "    /* \"chapter8/Ex8_3.sol\":72:1212  contract Ex8_3 {... */\n  mstore(0x40, 0x80)\n    /* \"chapter8/Ex8_3.sol\":269:333  constructor(){... */\n  callvalue\n  dup1\n  iszero\n  tag_1\n  jumpi\n  0x00\n  dup1\n  revert\ntag_1:\n  pop\n    /* \"chapter8/Ex8_3.sol\":306:325  FoodProcess.payment */\n  0x03\n    /* \"chapter8/Ex8_3.sol\":293:303  foodStatus */\n  0x00\n  dup1\n    /* \"chapter8/Ex8_3.sol\":293:325  foodStatus = FoodProcess.payment */\n  0x0100\n  exp\n  dup2\n  sload\n  dup2\n  0xff\n  mul\n  not\n  and\n  swap1\n  dup4\n  0x03\n  dup2\n  gt\n  iszero\n  tag_4\n  jumpi\n  tag_5\n  tag_6\n  jump\t// in\ntag_5:\ntag_4:\n  mul\n  or\n  swap1\n  sstore\n  pop\n    /* \"chapter8/Ex8_3.sol\":72:1212  contract Ex8_3 {... */\n  jump(tag_7)\n    /* \"#utility.yul\":7:187   */\ntag_6:\n    /* \"#utility.yul\":55:132   */\n  0x4e487b7100000000000000000000000000000000000000000000000000000000\n    /* \"#utility.yul\":52:53   */\n  0x00\n    /* \"#utility.yul\":45:133   */\n  mstore\n    /* \"#utility.yul\":152:156   */\n  0x21\n    /* \"#utility.yul\":149:150   */\n  0x04\n    /* \"#utility.yul\":142:157   */\n  mstore\n    /* \"#utility.yul\":176:180   */\n  0x24\n    /* \"#utility.yul\":173:174   */\n  0x00\n    /* \"#utility.yul\":166:181   */\n  revert\n    /* \"chapter8/Ex8_3.sol\":72:1212  contract Ex8_3 {... */\ntag_7:\n  dataSize(sub_0)\n  dup1\n  dataOffset(sub_0)\n  0x00\n  codecopy\n  0x00\n  return\nstop\n\nsub_0: assembly {\n        /* \"chapter8/Ex8_3.sol\":72:1212  contract Ex8_3 {... */\n      mstore(0x40, 0x80)\n      callvalue\n      dup1\n      iszero\n      tag_1\n      jumpi\n      0x00\n      dup1\n      revert\n    tag_1:\n      pop\n      jumpi(tag_2, lt(calldatasize, 0x04))\n      shr(0xe0, calldataload(0x00))\n      dup1\n      0x429268ae\n      eq\n      tag_3\n      jumpi\n      dup1\n      0x94d15a9e\n      eq\n      tag_4\n      jumpi\n      dup1\n      0xc62efc2b\n      eq\n      tag_5\n      jumpi\n      dup1\n      0xd3e9ff83\n      eq\n      tag_6\n      jumpi\n      dup1\n      0xd9c966fd\n      eq\n      tag_7\n      jumpi\n    tag_2:\n      0x00\n      dup1\n      revert\n        /* \"chapter8/Ex8_3.sol\":339:546  function orderFood() public {... */\n    tag_3:\n      tag_8\n      tag_9\n      jump\t// in\n    tag_8:\n      stop\n        /* \"chapter8/Ex8_3.sol\":552:764  function takeAwayFood() public {... */\n    tag_4:\n      tag_10\n      tag_11\n      jump\t// in\n    tag_10:\n      stop\n        /* \"chapter8/Ex8_3.sol\":994:1209  function paymentFood() public {... */\n    tag_5:\n      tag_12\n      tag_13\n      jump\t// in\n    tag_12:\n      stop\n        /* \"chapter8/Ex8_3.sol\":770:988  function deliveryFood() public {... */\n    tag_6:\n      tag_14\n      tag_15\n      jump\t// in\n    tag_14:\n      stop\n        /* \"chapter8/Ex8_3.sol\":233:262  FoodProcess public foodStatus */\n    tag_7:\n      tag_16\n      tag_17\n      jump\t// in\n    tag_16:\n      mload(0x40)\n      tag_18\n      swap2\n      swap1\n      tag_19\n      jump\t// in\n    tag_18:\n      mload(0x40)\n      dup1\n      swap2\n      sub\n      swap1\n      return\n        /* \"chapter8/Ex8_3.sol\":339:546  function orderFood() public {... */\n    tag_9:\n        /* \"chapter8/Ex8_3.sol\":400:419  FoodProcess.payment */\n      0x03\n        /* \"chapter8/Ex8_3.sol\":386:419  foodStatus == FoodProcess.payment */\n      dup1\n      dup2\n      gt\n      iszero\n      tag_21\n      jumpi\n      tag_22\n      tag_23\n      jump\t// in\n    tag_22:\n    tag_21:\n        /* \"chapter8/Ex8_3.sol\":386:396  foodStatus */\n      0x00\n      dup1\n      sload\n      swap1\n      0x0100\n      exp\n      swap1\n      div\n      0xff\n      and\n        /* \"chapter8/Ex8_3.sol\":386:419  foodStatus == FoodProcess.payment */\n      0x03\n      dup2\n      gt\n      iszero\n      tag_24\n      jumpi\n      tag_25\n      tag_23\n      jump\t// in\n    tag_25:\n    tag_24:\n      eq\n        /* \"chapter8/Ex8_3.sol\":378:453  require(foodStatus == FoodProcess.payment, \"It must be the payment status\") */\n      tag_26\n      jumpi\n      mload(0x40)\n      0x08c379a000000000000000000000000000000000000000000000000000000000\n      dup2\n      mstore\n      0x04\n      add\n      tag_27\n      swap1\n      tag_28\n      jump\t// in\n    tag_27:\n      mload(0x40)\n      dup1\n      swap2\n      sub\n      swap1\n      revert\n    tag_26:\n        /* \"chapter8/Ex8_3.sol\":477:494  FoodProcess.order */\n      0x00\n        /* \"chapter8/Ex8_3.sol\":464:474  foodStatus */\n      dup1\n      0x00\n        /* \"chapter8/Ex8_3.sol\":464:494  foodStatus = FoodProcess.order */\n      0x0100\n      exp\n      dup2\n      sload\n      dup2\n      0xff\n      mul\n      not\n      and\n      swap1\n      dup4\n      0x03\n      dup2\n      gt\n      iszero\n      tag_29\n      jumpi\n      tag_30\n      tag_23\n      jump\t// in\n    tag_30:\n    tag_29:\n      mul\n      or\n      swap1\n      sstore\n      pop\n        /* \"chapter8/Ex8_3.sol\":510:538  Information(\"Order success\") */\n      0xff8fea957fb7cb582ef297c1c74436fe7a9914efbc52adf197600dc9d171efbc\n      mload(0x40)\n      tag_31\n      swap1\n      tag_32\n      jump\t// in\n    tag_31:\n      mload(0x40)\n      dup1\n      swap2\n      sub\n      swap1\n      log1\n        /* \"chapter8/Ex8_3.sol\":339:546  function orderFood() public {... */\n      jump\t// out\n        /* \"chapter8/Ex8_3.sol\":552:764  function takeAwayFood() public {... */\n    tag_11:\n        /* \"chapter8/Ex8_3.sol\":616:633  FoodProcess.order */\n      0x00\n        /* \"chapter8/Ex8_3.sol\":602:633  foodStatus == FoodProcess.order */\n      0x03\n      dup2\n      gt\n      iszero\n      tag_34\n      jumpi\n      tag_35\n      tag_23\n      jump\t// in\n    tag_35:\n    tag_34:\n        /* \"chapter8/Ex8_3.sol\":602:612  foodStatus */\n      0x00\n      dup1\n      sload\n      swap1\n      0x0100\n      exp\n      swap1\n      div\n      0xff\n      and\n        /* \"chapter8/Ex8_3.sol\":602:633  foodStatus == FoodProcess.order */\n      0x03\n      dup2\n      gt\n      iszero\n      tag_36\n      jumpi\n      tag_37\n      tag_23\n      jump\t// in\n    tag_37:\n    tag_36:\n      eq\n        /* \"chapter8/Ex8_3.sol\":594:665  require(foodStatus == FoodProcess.order, \"It must be the order status\") */\n      tag_38\n      jumpi\n      mload(0x40)\n      0x08c379a000000000000000000000000000000000000000000000000000000000\n      dup2\n      mstore\n      0x04\n      add\n      tag_39\n      swap1\n      tag_40\n      jump\t// in\n    tag_39:\n      mload(0x40)\n      dup1\n      swap2\n      sub\n      swap1\n      revert\n    tag_38:\n        /* \"chapter8/Ex8_3.sol\":689:709  FoodProcess.takeAway */\n      0x01\n        /* \"chapter8/Ex8_3.sol\":676:686  foodStatus */\n      0x00\n      dup1\n        /* \"chapter8/Ex8_3.sol\":676:709  foodStatus = FoodProcess.takeAway */\n      0x0100\n      exp\n      dup2\n      sload\n      dup2\n      0xff\n      mul\n      not\n      and\n      swap1\n      dup4\n      0x03\n      dup2\n      gt\n      iszero\n      tag_41\n      jumpi\n      tag_42\n      tag_23\n      jump\t// in\n    tag_42:\n    tag_41:\n      mul\n      or\n      swap1\n      sstore\n      pop\n        /* \"chapter8/Ex8_3.sol\":725:756  Information(\"TakeAway success\") */\n      0xff8fea957fb7cb582ef297c1c74436fe7a9914efbc52adf197600dc9d171efbc\n      mload(0x40)\n      tag_43\n      swap1\n      tag_44\n      jump\t// in\n    tag_43:\n      mload(0x40)\n      dup1\n      swap2\n      sub\n      swap1\n      log1\n        /* \"chapter8/Ex8_3.sol\":552:764  function takeAwayFood() public {... */\n      jump\t// out\n        /* \"chapter8/Ex8_3.sol\":994:1209  function paymentFood() public {... */\n    tag_13:\n        /* \"chapter8/Ex8_3.sol\":1057:1077  FoodProcess.delivery */\n      0x02\n        /* \"chapter8/Ex8_3.sol\":1043:1077  foodStatus == FoodProcess.delivery */\n      0x03\n      dup2\n      gt\n      iszero\n      tag_46\n      jumpi\n      tag_47\n      tag_23\n      jump\t// in\n    tag_47:\n    tag_46:\n        /* \"chapter8/Ex8_3.sol\":1043:1053  foodStatus */\n      0x00\n      dup1\n      sload\n      swap1\n      0x0100\n      exp\n      swap1\n      div\n      0xff\n      and\n        /* \"chapter8/Ex8_3.sol\":1043:1077  foodStatus == FoodProcess.delivery */\n      0x03\n      dup2\n      gt\n      iszero\n      tag_48\n      jumpi\n      tag_49\n      tag_23\n      jump\t// in\n    tag_49:\n    tag_48:\n      eq\n        /* \"chapter8/Ex8_3.sol\":1035:1112  require(foodStatus == FoodProcess.delivery, \"It must be the delivery status\") */\n      tag_50\n      jumpi\n      mload(0x40)\n      0x08c379a000000000000000000000000000000000000000000000000000000000\n      dup2\n      mstore\n      0x04\n      add\n      tag_51\n      swap1\n      tag_52\n      jump\t// in\n    tag_51:\n      mload(0x40)\n      dup1\n      swap2\n      sub\n      swap1\n      revert\n    tag_50:\n        /* \"chapter8/Ex8_3.sol\":1136:1155  FoodProcess.payment */\n      0x03\n        /* \"chapter8/Ex8_3.sol\":1123:1133  foodStatus */\n      0x00\n      dup1\n        /* \"chapter8/Ex8_3.sol\":1123:1155  foodStatus = FoodProcess.payment */\n      0x0100\n      exp\n      dup2\n      sload\n      dup2\n      0xff\n      mul\n      not\n      and\n      swap1\n      dup4\n      0x03\n      dup2\n      gt\n      iszero\n      tag_53\n      jumpi\n      tag_54\n      tag_23\n      jump\t// in\n    tag_54:\n    tag_53:\n      mul\n      or\n      swap1\n      sstore\n      pop\n        /* \"chapter8/Ex8_3.sol\":1171:1201  Information(\"Payment success\") */\n      0xff8fea957fb7cb582ef297c1c74436fe7a9914efbc52adf197600dc9d171efbc\n      mload(0x40)\n      tag_55\n      swap1\n      tag_56\n      jump\t// in\n    tag_55:\n      mload(0x40)\n      dup1\n      swap2\n      sub\n      swap1\n      log1\n        /* \"chapter8/Ex8_3.sol\":994:1209  function paymentFood() public {... */\n      jump\t// out\n        /* \"chapter8/Ex8_3.sol\":770:988  function deliveryFood() public {... */\n    tag_15:\n        /* \"chapter8/Ex8_3.sol\":834:854  FoodProcess.takeAway */\n      0x01\n        /* \"chapter8/Ex8_3.sol\":820:854  foodStatus == FoodProcess.takeAway */\n      0x03\n      dup2\n      gt\n      iszero\n      tag_58\n      jumpi\n      tag_59\n      tag_23\n      jump\t// in\n    tag_59:\n    tag_58:\n        /* \"chapter8/Ex8_3.sol\":820:830  foodStatus */\n      0x00\n      dup1\n      sload\n      swap1\n      0x0100\n      exp\n      swap1\n      div\n      0xff\n      and\n        /* \"chapter8/Ex8_3.sol\":820:854  foodStatus == FoodProcess.takeAway */\n      0x03\n      dup2\n      gt\n      iszero\n      tag_60\n      jumpi\n      tag_61\n      tag_23\n      jump\t// in\n    tag_61:\n    tag_60:\n      eq\n        /* \"chapter8/Ex8_3.sol\":812:889  require(foodStatus == FoodProcess.takeAway, \"It must be the takeAway status\") */\n      tag_62\n      jumpi\n      mload(0x40)\n      0x08c379a000000000000000000000000000000000000000000000000000000000\n      dup2\n      mstore\n      0x04\n      add\n      tag_63\n      swap1\n      tag_64\n      jump\t// in\n    tag_63:\n      mload(0x40)\n      dup1\n      swap2\n      sub\n      swap1\n      revert\n    tag_62:\n        /* \"chapter8/Ex8_3.sol\":913:933  FoodProcess.delivery */\n      0x02\n        /* \"chapter8/Ex8_3.sol\":900:910  foodStatus */\n      0x00\n      dup1\n        /* \"chapter8/Ex8_3.sol\":900:933  foodStatus = FoodProcess.delivery */\n      0x0100\n      exp\n      dup2\n      sload\n      dup2\n      0xff\n      mul\n      not\n      and\n      swap1\n      dup4\n      0x03\n      dup2\n      gt\n      iszero\n      tag_65\n      jumpi\n      tag_66\n      tag_23\n      jump\t// in\n    tag_66:\n    tag_65:\n      mul\n      or\n      swap1\n      sstore\n      pop\n        /* \"chapter8/Ex8_3.sol\":949:980  Information(\"Delivery success\") */\n      0xff8fea957fb7cb582ef297c1c74436fe7a9914efbc52adf197600dc9d171efbc\n      mload(0x40)\n      tag_67\n      swap1\n      tag_68\n      jump\t// in\n    tag_67:\n      mload(0x40)\n      dup1\n      swap2\n      sub\n      swap1\n      log1\n        /* \"chapter8/Ex8_3.sol\":770:988  function deliveryFood() public {... */\n      jump\t// out\n        /* \"chapter8/Ex8_3.sol\":233:262  FoodProcess public foodStatus */\n    tag_17:\n      0x00\n      dup1\n      sload\n      swap1\n      0x0100\n      exp\n      swap1\n      div\n      0xff\n      and\n      dup2\n      jump\t// out\n        /* \"#utility.yul\":7:187   */\n    tag_23:\n        /* \"#utility.yul\":55:132   */\n      0x4e487b7100000000000000000000000000000000000000000000000000000000\n        /* \"#utility.yul\":52:53   */\n      0x00\n        /* \"#utility.yul\":45:133   */\n      mstore\n        /* \"#utility.yul\":152:156   */\n      0x21\n        /* \"#utility.yul\":149:150   */\n      0x04\n        /* \"#utility.yul\":142:157   */\n      mstore\n        /* \"#utility.yul\":176:180   */\n      0x24\n        /* \"#utility.yul\":173:174   */\n      0x00\n        /* \"#utility.yul\":166:181   */\n      revert\n        /* \"#utility.yul\":193:312   */\n    tag_69:\n        /* \"#utility.yul\":280:281   */\n      0x04\n        /* \"#utility.yul\":273:278   */\n      dup2\n        /* \"#utility.yul\":270:282   */\n      lt\n        /* \"#utility.yul\":260:306   */\n      tag_93\n      jumpi\n        /* \"#utility.yul\":286:304   */\n      tag_94\n      tag_23\n      jump\t// in\n    tag_94:\n        /* \"#utility.yul\":260:306   */\n    tag_93:\n        /* \"#utility.yul\":193:312   */\n      pop\n      jump\t// out\n        /* \"#utility.yul\":318:457   */\n    tag_70:\n        /* \"#utility.yul\":369:376   */\n      0x00\n        /* \"#utility.yul\":398:403   */\n      dup2\n        /* \"#utility.yul\":387:403   */\n      swap1\n      pop\n        /* \"#utility.yul\":404:451   */\n      tag_96\n        /* \"#utility.yul\":445:450   */\n      dup3\n        /* \"#utility.yul\":404:451   */\n      tag_69\n      jump\t// in\n    tag_96:\n        /* \"#utility.yul\":318:457   */\n      swap2\n      swap1\n      pop\n      jump\t// out\n        /* \"#utility.yul\":463:602   */\n    tag_71:\n        /* \"#utility.yul\":525:534   */\n      0x00\n        /* \"#utility.yul\":558:596   */\n      tag_98\n        /* \"#utility.yul\":590:595   */\n      dup3\n        /* \"#utility.yul\":558:596   */\n      tag_70\n      jump\t// in\n    tag_98:\n        /* \"#utility.yul\":545:596   */\n      swap1\n      pop\n        /* \"#utility.yul\":463:602   */\n      swap2\n      swap1\n      pop\n      jump\t// out\n        /* \"#utility.yul\":608:763   */\n    tag_72:\n        /* \"#utility.yul\":707:756   */\n      tag_100\n        /* \"#utility.yul\":750:755   */\n      dup2\n        /* \"#utility.yul\":707:756   */\n      tag_71\n      jump\t// in\n    tag_100:\n        /* \"#utility.yul\":702:705   */\n      dup3\n        /* \"#utility.yul\":695:757   */\n      mstore\n        /* \"#utility.yul\":608:763   */\n      pop\n      pop\n      jump\t// out\n        /* \"#utility.yul\":769:1015   */\n    tag_19:\n        /* \"#utility.yul\":874:878   */\n      0x00\n        /* \"#utility.yul\":912:914   */\n      0x20\n        /* \"#utility.yul\":901:910   */\n      dup3\n        /* \"#utility.yul\":897:915   */\n      add\n        /* \"#utility.yul\":889:915   */\n      swap1\n      pop\n        /* \"#utility.yul\":925:1008   */\n      tag_102\n        /* \"#utility.yul\":1005:1006   */\n      0x00\n        /* \"#utility.yul\":994:1003   */\n      dup4\n        /* \"#utility.yul\":990:1007   */\n      add\n        /* \"#utility.yul\":981:987   */\n      dup5\n        /* \"#utility.yul\":925:1008   */\n      tag_72\n      jump\t// in\n    tag_102:\n        /* \"#utility.yul\":769:1015   */\n      swap3\n      swap2\n      pop\n      pop\n      jump\t// out\n        /* \"#utility.yul\":1021:1190   */\n    tag_73:\n        /* \"#utility.yul\":1105:1116   */\n      0x00\n        /* \"#utility.yul\":1139:1145   */\n      dup3\n        /* \"#utility.yul\":1134:1137   */\n      dup3\n        /* \"#utility.yul\":1127:1146   */\n      mstore\n        /* \"#utility.yul\":1179:1183   */\n      0x20\n        /* \"#utility.yul\":1174:1177   */\n      dup3\n        /* \"#utility.yul\":1170:1184   */\n      add\n        /* \"#utility.yul\":1155:1184   */\n      swap1\n      pop\n        /* \"#utility.yul\":1021:1190   */\n      swap3\n      swap2\n      pop\n      pop\n      jump\t// out\n        /* \"#utility.yul\":1196:1375   */\n    tag_74:\n        /* \"#utility.yul\":1336:1367   */\n      0x4974206d75737420626520746865207061796d656e7420737461747573000000\n        /* \"#utility.yul\":1332:1333   */\n      0x00\n        /* \"#utility.yul\":1324:1330   */\n      dup3\n        /* \"#utility.yul\":1320:1334   */\n      add\n        /* \"#utility.yul\":1313:1368   */\n      mstore\n        /* \"#utility.yul\":1196:1375   */\n      pop\n      jump\t// out\n        /* \"#utility.yul\":1381:1747   */\n    tag_75:\n        /* \"#utility.yul\":1523:1526   */\n      0x00\n        /* \"#utility.yul\":1544:1611   */\n      tag_106\n        /* \"#utility.yul\":1608:1610   */\n      0x1d\n        /* \"#utility.yul\":1603:1606   */\n      dup4\n        /* \"#utility.yul\":1544:1611   */\n      tag_73\n      jump\t// in\n    tag_106:\n        /* \"#utility.yul\":1537:1611   */\n      swap2\n      pop\n        /* \"#utility.yul\":1620:1713   */\n      tag_107\n        /* \"#utility.yul\":1709:1712   */\n      dup3\n        /* \"#utility.yul\":1620:1713   */\n      tag_74\n      jump\t// in\n    tag_107:\n        /* \"#utility.yul\":1738:1740   */\n      0x20\n        /* \"#utility.yul\":1733:1736   */\n      dup3\n        /* \"#utility.yul\":1729:1741   */\n      add\n        /* \"#utility.yul\":1722:1741   */\n      swap1\n      pop\n        /* \"#utility.yul\":1381:1747   */\n      swap2\n      swap1\n      pop\n      jump\t// out\n        /* \"#utility.yul\":1753:2172   */\n    tag_28:\n        /* \"#utility.yul\":1919:1923   */\n      0x00\n        /* \"#utility.yul\":1957:1959   */\n      0x20\n        /* \"#utility.yul\":1946:1955   */\n      dup3\n        /* \"#utility.yul\":1942:1960   */\n      add\n        /* \"#utility.yul\":1934:1960   */\n      swap1\n      pop\n        /* \"#utility.yul\":2006:2015   */\n      dup2\n        /* \"#utility.yul\":2000:2004   */\n      dup2\n        /* \"#utility.yul\":1996:2016   */\n      sub\n        /* \"#utility.yul\":1992:1993   */\n      0x00\n        /* \"#utility.yul\":1981:1990   */\n      dup4\n        /* \"#utility.yul\":1977:1994   */\n      add\n        /* \"#utility.yul\":1970:2017   */\n      mstore\n        /* \"#utility.yul\":2034:2165   */\n      tag_109\n        /* \"#utility.yul\":2160:2164   */\n      dup2\n        /* \"#utility.yul\":2034:2165   */\n      tag_75\n      jump\t// in\n    tag_109:\n        /* \"#utility.yul\":2026:2165   */\n      swap1\n      pop\n        /* \"#utility.yul\":1753:2172   */\n      swap2\n      swap1\n      pop\n      jump\t// out\n        /* \"#utility.yul\":2178:2341   */\n    tag_76:\n        /* \"#utility.yul\":2318:2333   */\n      0x4f72646572207375636365737300000000000000000000000000000000000000\n        /* \"#utility.yul\":2314:2315   */\n      0x00\n        /* \"#utility.yul\":2306:2312   */\n      dup3\n        /* \"#utility.yul\":2302:2316   */\n      add\n        /* \"#utility.yul\":2295:2334   */\n      mstore\n        /* \"#utility.yul\":2178:2341   */\n      pop\n      jump\t// out\n        /* \"#utility.yul\":2347:2713   */\n    tag_77:\n        /* \"#utility.yul\":2489:2492   */\n      0x00\n        /* \"#utility.yul\":2510:2577   */\n      tag_112\n        /* \"#utility.yul\":2574:2576   */\n      0x0d\n        /* \"#utility.yul\":2569:2572   */\n      dup4\n        /* \"#utility.yul\":2510:2577   */\n      tag_73\n      jump\t// in\n    tag_112:\n        /* \"#utility.yul\":2503:2577   */\n      swap2\n      pop\n        /* \"#utility.yul\":2586:2679   */\n      tag_113\n        /* \"#utility.yul\":2675:2678   */\n      dup3\n        /* \"#utility.yul\":2586:2679   */\n      tag_76\n      jump\t// in\n    tag_113:\n        /* \"#utility.yul\":2704:2706   */\n      0x20\n        /* \"#utility.yul\":2699:2702   */\n      dup3\n        /* \"#utility.yul\":2695:2707   */\n      add\n        /* \"#utility.yul\":2688:2707   */\n      swap1\n      pop\n        /* \"#utility.yul\":2347:2713   */\n      swap2\n      swap1\n      pop\n      jump\t// out\n        /* \"#utility.yul\":2719:3138   */\n    tag_32:\n        /* \"#utility.yul\":2885:2889   */\n      0x00\n        /* \"#utility.yul\":2923:2925   */\n      0x20\n        /* \"#utility.yul\":2912:2921   */\n      dup3\n        /* \"#utility.yul\":2908:2926   */\n      add\n        /* \"#utility.yul\":2900:2926   */\n      swap1\n      pop\n        /* \"#utility.yul\":2972:2981   */\n      dup2\n        /* \"#utility.yul\":2966:2970   */\n      dup2\n        /* \"#utility.yul\":2962:2982   */\n      sub\n        /* \"#utility.yul\":2958:2959   */\n      0x00\n        /* \"#utility.yul\":2947:2956   */\n      dup4\n        /* \"#utility.yul\":2943:2960   */\n      add\n        /* \"#utility.yul\":2936:2983   */\n      mstore\n        /* \"#utility.yul\":3000:3131   */\n      tag_115\n        /* \"#utility.yul\":3126:3130   */\n      dup2\n        /* \"#utility.yul\":3000:3131   */\n      tag_77\n      jump\t// in\n    tag_115:\n        /* \"#utility.yul\":2992:3131   */\n      swap1\n      pop\n        /* \"#utility.yul\":2719:3138   */\n      swap2\n      swap1\n      pop\n      jump\t// out\n        /* \"#utility.yul\":3144:3321   */\n    tag_78:\n        /* \"#utility.yul\":3284:3313   */\n      0x4974206d75737420626520746865206f72646572207374617475730000000000\n        /* \"#utility.yul\":3280:3281   */\n      0x00\n        /* \"#utility.yul\":3272:3278   */\n      dup3\n        /* \"#utility.yul\":3268:3282   */\n      add\n        /* \"#utility.yul\":3261:3314   */\n      mstore\n        /* \"#utility.yul\":3144:3321   */\n      pop\n      jump\t// out\n        /* \"#utility.yul\":3327:3693   */\n    tag_79:\n        /* \"#utility.yul\":3469:3472   */\n      0x00\n        /* \"#utility.yul\":3490:3557   */\n      tag_118\n        /* \"#utility.yul\":3554:3556   */\n      0x1b\n        /* \"#utility.yul\":3549:3552   */\n      dup4\n        /* \"#utility.yul\":3490:3557   */\n      tag_73\n      jump\t// in\n    tag_118:\n        /* \"#utility.yul\":3483:3557   */\n      swap2\n      pop\n        /* \"#utility.yul\":3566:3659   */\n      tag_119\n        /* \"#utility.yul\":3655:3658   */\n      dup3\n        /* \"#utility.yul\":3566:3659   */\n      tag_78\n      jump\t// in\n    tag_119:\n        /* \"#utility.yul\":3684:3686   */\n      0x20\n        /* \"#utility.yul\":3679:3682   */\n      dup3\n        /* \"#utility.yul\":3675:3687   */\n      add\n        /* \"#utility.yul\":3668:3687   */\n      swap1\n      pop\n        /* \"#utility.yul\":3327:3693   */\n      swap2\n      swap1\n      pop\n      jump\t// out\n        /* \"#utility.yul\":3699:4118   */\n    tag_40:\n        /* \"#utility.yul\":3865:3869   */\n      0x00\n        /* \"#utility.yul\":3903:3905   */\n      0x20\n        /* \"#utility.yul\":3892:3901   */\n      dup3\n        /* \"#utility.yul\":3888:3906   */\n      add\n        /* \"#utility.yul\":3880:3906   */\n      swap1\n      pop\n        /* \"#utility.yul\":3952:3961   */\n      dup2\n        /* \"#utility.yul\":3946:3950   */\n      dup2\n        /* \"#utility.yul\":3942:3962   */\n      sub\n        /* \"#utility.yul\":3938:3939   */\n      0x00\n        /* \"#utility.yul\":3927:3936   */\n      dup4\n        /* \"#utility.yul\":3923:3940   */\n      add\n        /* \"#utility.yul\":3916:3963   */\n      mstore\n        /* \"#utility.yul\":3980:4111   */\n      tag_121\n        /* \"#utility.yul\":4106:4110   */\n      dup2\n        /* \"#utility.yul\":3980:4111   */\n      tag_79\n      jump\t// in\n    tag_121:\n        /* \"#utility.yul\":3972:4111   */\n      swap1\n      pop\n        /* \"#utility.yul\":3699:4118   */\n      swap2\n      swap1\n      pop\n      jump\t// out\n        /* \"#utility.yul\":4124:4290   */\n    tag_80:\n        /* \"#utility.yul\":4264:4282   */\n      0x54616b6541776179207375636365737300000000000000000000000000000000\n        /* \"#utility.yul\":4260:4261   */\n      0x00\n        /* \"#utility.yul\":4252:4258   */\n      dup3\n        /* \"#utility.yul\":4248:4262   */\n      add\n        /* \"#utility.yul\":4241:4283   */\n      mstore\n        /* \"#utility.yul\":4124:4290   */\n      pop\n      jump\t// out\n        /* \"#utility.yul\":4296:4662   */\n    tag_81:\n        /* \"#utility.yul\":4438:4441   */\n      0x00\n        /* \"#utility.yul\":4459:4526   */\n      tag_124\n        /* \"#utility.yul\":4523:4525   */\n      0x10\n        /* \"#utility.yul\":4518:4521   */\n      dup4\n        /* \"#utility.yul\":4459:4526   */\n      tag_73\n      jump\t// in\n    tag_124:\n        /* \"#utility.yul\":4452:4526   */\n      swap2\n      pop\n        /* \"#utility.yul\":4535:4628   */\n      tag_125\n        /* \"#utility.yul\":4624:4627   */\n      dup3\n        /* \"#utility.yul\":4535:4628   */\n      tag_80\n      jump\t// in\n    tag_125:\n        /* \"#utility.yul\":4653:4655   */\n      0x20\n        /* \"#utility.yul\":4648:4651   */\n      dup3\n        /* \"#utility.yul\":4644:4656   */\n      add\n        /* \"#utility.yul\":4637:4656   */\n      swap1\n      pop\n        /* \"#utility.yul\":4296:4662   */\n      swap2\n      swap1\n      pop\n      jump\t// out\n        /* \"#utility.yul\":4668:5087   */\n    tag_44:\n        /* \"#utility.yul\":4834:4838   */\n      0x00\n        /* \"#utility.yul\":4872:4874   */\n      0x20\n        /* \"#utility.yul\":4861:4870   */\n      dup3\n        /* \"#utility.yul\":4857:4875   */\n      add\n        /* \"#utility.yul\":4849:4875   */\n      swap1\n      pop\n        /* \"#utility.yul\":4921:4930   */\n      dup2\n        /* \"#utility.yul\":4915:4919   */\n      dup2\n        /* \"#utility.yul\":4911:4931   */\n      sub\n        /* \"#utility.yul\":4907:4908   */\n      0x00\n        /* \"#utility.yul\":4896:4905   */\n      dup4\n        /* \"#utility.yul\":4892:4909   */\n      add\n        /* \"#utility.yul\":4885:4932   */\n      mstore\n        /* \"#utility.yul\":4949:5080   */\n      tag_127\n        /* \"#utility.yul\":5075:5079   */\n      dup2\n        /* \"#utility.yul\":4949:5080   */\n      tag_81\n      jump\t// in\n    tag_127:\n        /* \"#utility.yul\":4941:5080   */\n      swap1\n      pop\n        /* \"#utility.yul\":4668:5087   */\n      swap2\n      swap1\n      pop\n      jump\t// out\n        /* \"#utility.yul\":5093:5273   */\n    tag_82:\n        /* \"#utility.yul\":5233:5265   */\n      0x4974206d757374206265207468652064656c6976657279207374617475730000\n        /* \"#utility.yul\":5229:5230   */\n      0x00\n        /* \"#utility.yul\":5221:5227   */\n      dup3\n        /* \"#utility.yul\":5217:5231   */\n      add\n        /* \"#utility.yul\":5210:5266   */\n      mstore\n        /* \"#utility.yul\":5093:5273   */\n      pop\n      jump\t// out\n        /* \"#utility.yul\":5279:5645   */\n    tag_83:\n        /* \"#utility.yul\":5421:5424   */\n      0x00\n        /* \"#utility.yul\":5442:5509   */\n      tag_130\n        /* \"#utility.yul\":5506:5508   */\n      0x1e\n        /* \"#utility.yul\":5501:5504   */\n      dup4\n        /* \"#utility.yul\":5442:5509   */\n      tag_73\n      jump\t// in\n    tag_130:\n        /* \"#utility.yul\":5435:5509   */\n      swap2\n      pop\n        /* \"#utility.yul\":5518:5611   */\n      tag_131\n        /* \"#utility.yul\":5607:5610   */\n      dup3\n        /* \"#utility.yul\":5518:5611   */\n      tag_82\n      jump\t// in\n    tag_131:\n        /* \"#utility.yul\":5636:5638   */\n      0x20\n        /* \"#utility.yul\":5631:5634   */\n      dup3\n        /* \"#utility.yul\":5627:5639   */\n      add\n        /* \"#utility.yul\":5620:5639   */\n      swap1\n      pop\n        /* \"#utility.yul\":5279:5645   */\n      swap2\n      swap1\n      pop\n      jump\t// out\n        /* \"#utility.yul\":5651:6070   */\n    tag_52:\n        /* \"#utility.yul\":5817:5821   */\n      0x00\n        /* \"#utility.yul\":5855:5857   */\n      0x20\n        /* \"#utility.yul\":5844:5853   */\n      dup3\n        /* \"#utility.yul\":5840:5858   */\n      add\n        /* \"#utility.yul\":5832:5858   */\n      swap1\n      pop\n        /* \"#utility.yul\":5904:5913   */\n      dup2\n        /* \"#utility.yul\":5898:5902   */\n      dup2\n        /* \"#utility.yul\":5894:5914   */\n      sub\n        /* \"#utility.yul\":5890:5891   */\n      0x00\n        /* \"#utility.yul\":5879:5888   */\n      dup4\n        /* \"#utility.yul\":5875:5892   */\n      add\n        /* \"#utility.yul\":5868:5915   */\n      mstore\n        /* \"#utility.yul\":5932:6063   */\n      tag_133\n        /* \"#utility.yul\":6058:6062   */\n      dup2\n        /* \"#utility.yul\":5932:6063   */\n      tag_83\n      jump\t// in\n    tag_133:\n        /* \"#utility.yul\":5924:6063   */\n      swap1\n      pop\n        /* \"#utility.yul\":5651:6070   */\n      swap2\n      swap1\n      pop\n      jump\t// out\n        /* \"#utility.yul\":6076:6241   */\n    tag_84:\n        /* \"#utility.yul\":6216:6233   */\n      0x5061796d656e7420737563636573730000000000000000000000000000000000\n        /* \"#utility.yul\":6212:6213   */\n      0x00\n        /* \"#utility.yul\":6204:6210   */\n      dup3\n        /* \"#utility.yul\":6200:6214   */\n      add\n        /* \"#utility.yul\":6193:6234   */\n      mstore\n        /* \"#utility.yul\":6076:6241   */\n      pop\n      jump\t// out\n        /* \"#utility.yul\":6247:6613   */\n    tag_85:\n        /* \"#utility.yul\":6389:6392   */\n      0x00\n        /* \"#utility.yul\":6410:6477   */\n      tag_136\n        /* \"#utility.yul\":6474:6476   */\n      0x0f\n        /* \"#utility.yul\":6469:6472   */\n      dup4\n        /* \"#utility.yul\":6410:6477   */\n      tag_73\n      jump\t// in\n    tag_136:\n        /* \"#utility.yul\":6403:6477   */\n      swap2\n      pop\n        /* \"#utility.yul\":6486:6579   */\n      tag_137\n        /* \"#utility.yul\":6575:6578   */\n      dup3\n        /* \"#utility.yul\":6486:6579   */\n      tag_84\n      jump\t// in\n    tag_137:\n        /* \"#utility.yul\":6604:6606   */\n      0x20\n        /* \"#utility.yul\":6599:6602   */\n      dup3\n        /* \"#utility.yul\":6595:6607   */\n      add\n        /* \"#utility.yul\":6588:6607   */\n      swap1\n      pop\n        /* \"#utility.yul\":6247:6613   */\n      swap2\n      swap1\n      pop\n      jump\t// out\n        /* \"#utility.yul\":6619:7038   */\n    tag_56:\n        /* \"#utility.yul\":6785:6789   */\n      0x00\n        /* \"#utility.yul\":6823:6825   */\n      0x20\n        /* \"#utility.yul\":6812:6821   */\n      dup3\n        /* \"#utility.yul\":6808:6826   */\n      add\n        /* \"#utility.yul\":6800:6826   */\n      swap1\n      pop\n        /* \"#utility.yul\":6872:6881   */\n      dup2\n        /* \"#utility.yul\":6866:6870   */\n      dup2\n        /* \"#utility.yul\":6862:6882   */\n      sub\n        /* \"#utility.yul\":6858:6859   */\n      0x00\n        /* \"#utility.yul\":6847:6856   */\n      dup4\n        /* \"#utility.yul\":6843:6860   */\n      add\n        /* \"#utility.yul\":6836:6883   */\n      mstore\n        /* \"#utility.yul\":6900:7031   */\n      tag_139\n        /* \"#utility.yul\":7026:7030   */\n      dup2\n        /* \"#utility.yul\":6900:7031   */\n      tag_85\n      jump\t// in\n    tag_139:\n        /* \"#utility.yul\":6892:7031   */\n      swap1\n      pop\n        /* \"#utility.yul\":6619:7038   */\n      swap2\n      swap1\n      pop\n      jump\t// out\n        /* \"#utility.yul\":7044:7224   */\n    tag_86:\n        /* \"#utility.yul\":7184:7216   */\n      0x4974206d757374206265207468652074616b6541776179207374617475730000\n        /* \"#utility.yul\":7180:7181   */\n      0x00\n        /* \"#utility.yul\":7172:7178   */\n      dup3\n        /* \"#utility.yul\":7168:7182   */\n      add\n        /* \"#utility.yul\":7161:7217   */\n      mstore\n        /* \"#utility.yul\":7044:7224   */\n      pop\n      jump\t// out\n        /* \"#utility.yul\":7230:7596   */\n    tag_87:\n        /* \"#utility.yul\":7372:7375   */\n      0x00\n        /* \"#utility.yul\":7393:7460   */\n      tag_142\n        /* \"#utility.yul\":7457:7459   */\n      0x1e\n        /* \"#utility.yul\":7452:7455   */\n      dup4\n        /* \"#utility.yul\":7393:7460   */\n      tag_73\n      jump\t// in\n    tag_142:\n        /* \"#utility.yul\":7386:7460   */\n      swap2\n      pop\n        /* \"#utility.yul\":7469:7562   */\n      tag_143\n        /* \"#utility.yul\":7558:7561   */\n      dup3\n        /* \"#utility.yul\":7469:7562   */\n      tag_86\n      jump\t// in\n    tag_143:\n        /* \"#utility.yul\":7587:7589   */\n      0x20\n        /* \"#utility.yul\":7582:7585   */\n      dup3\n        /* \"#utility.yul\":7578:7590   */\n      add\n        /* \"#utility.yul\":7571:7590   */\n      swap1\n      pop\n        /* \"#utility.yul\":7230:7596   */\n      swap2\n      swap1\n      pop\n      jump\t// out\n        /* \"#utility.yul\":7602:8021   */\n    tag_64:\n        /* \"#utility.yul\":7768:7772   */\n      0x00\n        /* \"#utility.yul\":7806:7808   */\n      0x20\n        /* \"#utility.yul\":7795:7804   */\n      dup3\n        /* \"#utility.yul\":7791:7809   */\n      add\n        /* \"#utility.yul\":7783:7809   */\n      swap1\n      pop\n        /* \"#utility.yul\":7855:7864   */\n      dup2\n        /* \"#utility.yul\":7849:7853   */\n      dup2\n        /* \"#utility.yul\":7845:7865   */\n      sub\n        /* \"#utility.yul\":7841:7842   */\n      0x00\n        /* \"#utility.yul\":7830:7839   */\n      dup4\n        /* \"#utility.yul\":7826:7843   */\n      add\n        /* \"#utility.yul\":7819:7866   */\n      mstore\n        /* \"#utility.yul\":7883:8014   */\n      tag_145\n        /* \"#utility.yul\":8009:8013   */\n      dup2\n        /* \"#utility.yul\":7883:8014   */\n      tag_87\n      jump\t// in\n    tag_145:\n        /* \"#utility.yul\":7875:8014   */\n      swap1\n      pop\n        /* \"#utility.yul\":7602:8021   */\n      swap2\n      swap1\n      pop\n      jump\t// out\n        /* \"#utility.yul\":8027:8193   */\n    tag_88:\n        /* \"#utility.yul\":8167:8185   */\n      0x44656c6976657279207375636365737300000000000000000000000000000000\n        /* \"#utility.yul\":8163:8164   */\n      0x00\n        /* \"#utility.yul\":8155:8161   */\n      dup3\n        /* \"#utility.yul\":8151:8165   */\n      add\n        /* \"#utility.yul\":8144:8186   */\n      mstore\n        /* \"#utility.yul\":8027:8193   */\n      pop\n      jump\t// out\n        /* \"#utility.yul\":8199:8565   */\n    tag_89:\n        /* \"#utility.yul\":8341:8344   */\n      0x00\n        /* \"#utility.yul\":8362:8429   */\n      tag_148\n        /* \"#utility.yul\":8426:8428   */\n      0x10\n        /* \"#utility.yul\":8421:8424   */\n      dup4\n        /* \"#utility.yul\":8362:8429   */\n      tag_73\n      jump\t// in\n    tag_148:\n        /* \"#utility.yul\":8355:8429   */\n      swap2\n      pop\n        /* \"#utility.yul\":8438:8531   */\n      tag_149\n        /* \"#utility.yul\":8527:8530   */\n      dup3\n        /* \"#utility.yul\":8438:8531   */\n      tag_88\n      jump\t// in\n    tag_149:\n        /* \"#utility.yul\":8556:8558   */\n      0x20\n        /* \"#utility.yul\":8551:8554   */\n      dup3\n        /* \"#utility.yul\":8547:8559   */\n      add\n        /* \"#utility.yul\":8540:8559   */\n      swap1\n      pop\n        /* \"#utility.yul\":8199:8565   */\n      swap2\n      swap1\n      pop\n      jump\t// out\n        /* \"#utility.yul\":8571:8990   */\n    tag_68:\n        /* \"#utility.yul\":8737:8741   */\n      0x00\n        /* \"#utility.yul\":8775:8777   */\n      0x20\n        /* \"#utility.yul\":8764:8773   */\n      dup3\n        /* \"#utility.yul\":8760:8778   */\n      add\n        /* \"#utility.yul\":8752:8778   */\n      swap1\n      pop\n        /* \"#utility.yul\":8824:8833   */\n      dup2\n        /* \"#utility.yul\":8818:8822   */\n      dup2\n        /* \"#utility.yul\":8814:8834   */\n      sub\n        /* \"#utility.yul\":8810:8811   */\n      0x00\n        /* \"#utility.yul\":8799:8808   */\n      dup4\n        /* \"#utility.yul\":8795:8812   */\n      add\n        /* \"#utility.yul\":8788:8835   */\n      mstore\n        /* \"#utility.yul\":8852:8983   */\n      tag_151\n        /* \"#utility.yul\":8978:8982   */\n      dup2\n        /* \"#utility.yul\":8852:8983   */\n      tag_89\n      jump\t// in\n    tag_151:\n        /* \"#utility.yul\":8844:8983   */\n      swap1\n      pop\n        /* \"#utility.yul\":8571:8990   */\n      swap2\n      swap1\n      pop\n      jump\t// out\n\n    auxdata: 0xa2646970667358221220cfe7e2b6f3c6d424978b69b2f20772f2f1e611d1cfbdbf473884902126f2a38264736f6c63430008170033\n}\n",
				"bytecode": {
					"linkReferences": {},
					"object": "608060405234801561000f575f80fd5b5060035f806101000a81548160ff021916908360038111156100345761003361003e565b5b021790555061006b565b7f4e487b71000000000000000000000000000000000000000000000000000000005f52602160045260245ffd5b61080a806100785f395ff3fe608060405234801561000f575f80fd5b5060043610610055575f3560e01c8063429268ae1461005957806394d15a9e14610063578063c62efc2b1461006d578063d3e9ff8314610077578063d9c966fd14610081575b5f80fd5b61006161009f565b005b61006b610170565b005b610075610242565b005b61007f610315565b005b6100896103e8565b604051610096919061046b565b60405180910390f35b6003808111156100b2576100b16103f8565b5b5f8054906101000a900460ff1660038111156100d1576100d06103f8565b5b14610111576040517f08c379a0000000000000000000000000000000000000000000000000000000008152600401610108906104de565b60405180910390fd5b5f805f6101000a81548160ff02191690836003811115610134576101336103f8565b5b02179055507fff8fea957fb7cb582ef297c1c74436fe7a9914efbc52adf197600dc9d171efbc60405161016690610546565b60405180910390a1565b5f6003811115610183576101826103f8565b5b5f8054906101000a900460ff1660038111156101a2576101a16103f8565b5b146101e2576040517f08c379a00000000000000000000000000000000000000000000000000000000081526004016101d9906105ae565b60405180910390fd5b60015f806101000a81548160ff02191690836003811115610206576102056103f8565b5b02179055507fff8fea957fb7cb582ef297c1c74436fe7a9914efbc52adf197600dc9d171efbc60405161023890610616565b60405180910390a1565b60026003811115610256576102556103f8565b5b5f8054906101000a900460ff166003811115610275576102746103f8565b5b146102b5576040517f08c379a00000000000000000000000000000000000000000000000000000000081526004016102ac9061067e565b60405180910390fd5b60035f806101000a81548160ff021916908360038111156102d9576102d86103f8565b5b02179055507fff8fea957fb7cb582ef297c1c74436fe7a9914efbc52adf197600dc9d171efbc60405161030b906106e6565b60405180910390a1565b60016003811115610329576103286103f8565b5b5f8054906101000a900460ff166003811115610348576103476103f8565b5b14610388576040517f08c379a000000000000000000000000000000000000000000000000000000000815260040161037f9061074e565b60405180910390fd5b60025f806101000a81548160ff021916908360038111156103ac576103ab6103f8565b5b02179055507fff8fea957fb7cb582ef297c1c74436fe7a9914efbc52adf197600dc9d171efbc6040516103de906107b6565b60405180910390a1565b5f8054906101000a900460ff1681565b7f4e487b71000000000000000000000000000000000000000000000000000000005f52602160045260245ffd5b60048110610436576104356103f8565b5b50565b5f81905061044682610425565b919050565b5f61045582610439565b9050919050565b6104658161044b565b82525050565b5f60208201905061047e5f83018461045c565b92915050565b5f82825260208201905092915050565b7f4974206d75737420626520746865207061796d656e74207374617475730000005f82015250565b5f6104c8601d83610484565b91506104d382610494565b602082019050919050565b5f6020820190508181035f8301526104f5816104bc565b9050919050565b7f4f726465722073756363657373000000000000000000000000000000000000005f82015250565b5f610530600d83610484565b915061053b826104fc565b602082019050919050565b5f6020820190508181035f83015261055d81610524565b9050919050565b7f4974206d75737420626520746865206f726465722073746174757300000000005f82015250565b5f610598601b83610484565b91506105a382610564565b602082019050919050565b5f6020820190508181035f8301526105c58161058c565b9050919050565b7f54616b65417761792073756363657373000000000000000000000000000000005f82015250565b5f610600601083610484565b915061060b826105cc565b602082019050919050565b5f6020820190508181035f83015261062d816105f4565b9050919050565b7f4974206d757374206265207468652064656c69766572792073746174757300005f82015250565b5f610668601e83610484565b915061067382610634565b602082019050919050565b5f6020820190508181035f8301526106958161065c565b9050919050565b7f5061796d656e74207375636365737300000000000000000000000000000000005f82015250565b5f6106d0600f83610484565b91506106db8261069c565b602082019050919050565b5f6020820190508181035f8301526106fd816106c4565b9050919050565b7f4974206d757374206265207468652074616b65417761792073746174757300005f82015250565b5f610738601e83610484565b915061074382610704565b602082019050919050565b5f6020820190508181035f8301526107658161072c565b9050919050565b7f44656c69766572792073756363657373000000000000000000000000000000005f82015250565b5f6107a0601083610484565b91506107ab8261076c565b602082019050919050565b5f6020820190508181035f8301526107cd81610794565b905091905056fea2646970667358221220cfe7e2b6f3c6d424978b69b2f20772f2f1e611d1cfbdbf473884902126f2a38264736f6c63430008170033",
					"opcodes": "PUSH1 0x80 PUSH1 0x40 MSTORE CALLVALUE DUP1 ISZERO PUSH2 0xF JUMPI PUSH0 DUP1 REVERT JUMPDEST POP PUSH1 0x3 PUSH0 DUP1 PUSH2 0x100 EXP DUP2 SLOAD DUP2 PUSH1 0xFF MUL NOT AND SWAP1 DUP4 PUSH1 0x3 DUP2 GT ISZERO PUSH2 0x34 JUMPI PUSH2 0x33 PUSH2 0x3E JUMP JUMPDEST JUMPDEST MUL OR SWAP1 SSTORE POP PUSH2 0x6B JUMP JUMPDEST PUSH32 0x4E487B7100000000000000000000000000000000000000000000000000000000 PUSH0 MSTORE PUSH1 0x21 PUSH1 0x4 MSTORE PUSH1 0x24 PUSH0 REVERT JUMPDEST PUSH2 0x80A DUP1 PUSH2 0x78 PUSH0 CODECOPY PUSH0 RETURN INVALID PUSH1 0x80 PUSH1 0x40 MSTORE CALLVALUE DUP1 ISZERO PUSH2 0xF JUMPI PUSH0 DUP1 REVERT JUMPDEST POP PUSH1 0x4 CALLDATASIZE LT PUSH2 0x55 JUMPI PUSH0 CALLDATALOAD PUSH1 0xE0 SHR DUP1 PUSH4 0x429268AE EQ PUSH2 0x59 JUMPI DUP1 PUSH4 0x94D15A9E EQ PUSH2 0x63 JUMPI DUP1 PUSH4 0xC62EFC2B EQ PUSH2 0x6D JUMPI DUP1 PUSH4 0xD3E9FF83 EQ PUSH2 0x77 JUMPI DUP1 PUSH4 0xD9C966FD EQ PUSH2 0x81 JUMPI JUMPDEST PUSH0 DUP1 REVERT JUMPDEST PUSH2 0x61 PUSH2 0x9F JUMP JUMPDEST STOP JUMPDEST PUSH2 0x6B PUSH2 0x170 JUMP JUMPDEST STOP JUMPDEST PUSH2 0x75 PUSH2 0x242 JUMP JUMPDEST STOP JUMPDEST PUSH2 0x7F PUSH2 0x315 JUMP JUMPDEST STOP JUMPDEST PUSH2 0x89 PUSH2 0x3E8 JUMP JUMPDEST PUSH1 0x40 MLOAD PUSH2 0x96 SWAP2 SWAP1 PUSH2 0x46B JUMP JUMPDEST PUSH1 0x40 MLOAD DUP1 SWAP2 SUB SWAP1 RETURN JUMPDEST PUSH1 0x3 DUP1 DUP2 GT ISZERO PUSH2 0xB2 JUMPI PUSH2 0xB1 PUSH2 0x3F8 JUMP JUMPDEST JUMPDEST PUSH0 DUP1 SLOAD SWAP1 PUSH2 0x100 EXP SWAP1 DIV PUSH1 0xFF AND PUSH1 0x3 DUP2 GT ISZERO PUSH2 0xD1 JUMPI PUSH2 0xD0 PUSH2 0x3F8 JUMP JUMPDEST JUMPDEST EQ PUSH2 0x111 JUMPI PUSH1 0x40 MLOAD PUSH32 0x8C379A000000000000000000000000000000000000000000000000000000000 DUP2 MSTORE PUSH1 0x4 ADD PUSH2 0x108 SWAP1 PUSH2 0x4DE JUMP JUMPDEST PUSH1 0x40 MLOAD DUP1 SWAP2 SUB SWAP1 REVERT JUMPDEST PUSH0 DUP1 PUSH0 PUSH2 0x100 EXP DUP2 SLOAD DUP2 PUSH1 0xFF MUL NOT AND SWAP1 DUP4 PUSH1 0x3 DUP2 GT ISZERO PUSH2 0x134 JUMPI PUSH2 0x133 PUSH2 0x3F8 JUMP JUMPDEST JUMPDEST MUL OR SWAP1 SSTORE POP PUSH32 0xFF8FEA957FB7CB582EF297C1C74436FE7A9914EFBC52ADF197600DC9D171EFBC PUSH1 0x40 MLOAD PUSH2 0x166 SWAP1 PUSH2 0x546 JUMP JUMPDEST PUSH1 0x40 MLOAD DUP1 SWAP2 SUB SWAP1 LOG1 JUMP JUMPDEST PUSH0 PUSH1 0x3 DUP2 GT ISZERO PUSH2 0x183 JUMPI PUSH2 0x182 PUSH2 0x3F8 JUMP JUMPDEST JUMPDEST PUSH0 DUP1 SLOAD SWAP1 PUSH2 0x100 EXP SWAP1 DIV PUSH1 0xFF AND PUSH1 0x3 DUP2 GT ISZERO PUSH2 0x1A2 JUMPI PUSH2 0x1A1 PUSH2 0x3F8 JUMP JUMPDEST JUMPDEST EQ PUSH2 0x1E2 JUMPI PUSH1 0x40 MLOAD PUSH32 0x8C379A000000000000000000000000000000000000000000000000000000000 DUP2 MSTORE PUSH1 0x4 ADD PUSH2 0x1D9 SWAP1 PUSH2 0x5AE JUMP JUMPDEST PUSH1 0x40 MLOAD DUP1 SWAP2 SUB SWAP1 REVERT JUMPDEST PUSH1 0x1 PUSH0 DUP1 PUSH2 0x100 EXP DUP2 SLOAD DUP2 PUSH1 0xFF MUL NOT AND SWAP1 DUP4 PUSH1 0x3 DUP2 GT ISZERO PUSH2 0x206 JUMPI PUSH2 0x205 PUSH2 0x3F8 JUMP JUMPDEST JUMPDEST MUL OR SWAP1 SSTORE POP PUSH32 0xFF8FEA957FB7CB582EF297C1C74436FE7A9914EFBC52ADF197600DC9D171EFBC PUSH1 0x40 MLOAD PUSH2 0x238 SWAP1 PUSH2 0x616 JUMP JUMPDEST PUSH1 0x40 MLOAD DUP1 SWAP2 SUB SWAP1 LOG1 JUMP JUMPDEST PUSH1 0x2 PUSH1 0x3 DUP2 GT ISZERO PUSH2 0x256 JUMPI PUSH2 0x255 PUSH2 0x3F8 JUMP JUMPDEST JUMPDEST PUSH0 DUP1 SLOAD SWAP1 PUSH2 0x100 EXP SWAP1 DIV PUSH1 0xFF AND PUSH1 0x3 DUP2 GT ISZERO PUSH2 0x275 JUMPI PUSH2 0x274 PUSH2 0x3F8 JUMP JUMPDEST JUMPDEST EQ PUSH2 0x2B5 JUMPI PUSH1 0x40 MLOAD PUSH32 0x8C379A000000000000000000000000000000000000000000000000000000000 DUP2 MSTORE PUSH1 0x4 ADD PUSH2 0x2AC SWAP1 PUSH2 0x67E JUMP JUMPDEST PUSH1 0x40 MLOAD DUP1 SWAP2 SUB SWAP1 REVERT JUMPDEST PUSH1 0x3 PUSH0 DUP1 PUSH2 0x100 EXP DUP2 SLOAD DUP2 PUSH1 0xFF MUL NOT AND SWAP1 DUP4 PUSH1 0x3 DUP2 GT ISZERO PUSH2 0x2D9 JUMPI PUSH2 0x2D8 PUSH2 0x3F8 JUMP JUMPDEST JUMPDEST MUL OR SWAP1 SSTORE POP PUSH32 0xFF8FEA957FB7CB582EF297C1C74436FE7A9914EFBC52ADF197600DC9D171EFBC PUSH1 0x40 MLOAD PUSH2 0x30B SWAP1 PUSH2 0x6E6 JUMP JUMPDEST PUSH1 0x40 MLOAD DUP1 SWAP2 SUB SWAP1 LOG1 JUMP JUMPDEST PUSH1 0x1 PUSH1 0x3 DUP2 GT ISZERO PUSH2 0x329 JUMPI PUSH2 0x328 PUSH2 0x3F8 JUMP JUMPDEST JUMPDEST PUSH0 DUP1 SLOAD SWAP1 PUSH2 0x100 EXP SWAP1 DIV PUSH1 0xFF AND PUSH1 0x3 DUP2 GT ISZERO PUSH2 0x348 JUMPI PUSH2 0x347 PUSH2 0x3F8 JUMP JUMPDEST JUMPDEST EQ PUSH2 0x388 JUMPI PUSH1 0x40 MLOAD PUSH32 0x8C379A000000000000000000000000000000000000000000000000000000000 DUP2 MSTORE PUSH1 0x4 ADD PUSH2 0x37F SWAP1 PUSH2 0x74E JUMP JUMPDEST PUSH1 0x40 MLOAD DUP1 SWAP2 SUB SWAP1 REVERT JUMPDEST PUSH1 0x2 PUSH0 DUP1 PUSH2 0x100 EXP DUP2 SLOAD DUP2 PUSH1 0xFF MUL NOT AND SWAP1 DUP4 PUSH1 0x3 DUP2 GT ISZERO PUSH2 0x3AC JUMPI PUSH2 0x3AB PUSH2 0x3F8 JUMP JUMPDEST JUMPDEST MUL OR SWAP1 SSTORE POP PUSH32 0xFF8FEA957FB7CB582EF297C1C74436FE7A9914EFBC52ADF197600DC9D171EFBC PUSH1 0x40 MLOAD PUSH2 0x3DE SWAP1 PUSH2 0x7B6 JUMP JUMPDEST PUSH1 0x40 MLOAD DUP1 SWAP2 SUB SWAP1 LOG1 JUMP JUMPDEST PUSH0 DUP1 SLOAD SWAP1 PUSH2 0x100 EXP SWAP1 DIV PUSH1 0xFF AND DUP2 JUMP JUMPDEST PUSH32 0x4E487B7100000000000000000000000000000000000000000000000000000000 PUSH0 MSTORE PUSH1 0x21 PUSH1 0x4 MSTORE PUSH1 0x24 PUSH0 REVERT JUMPDEST PUSH1 0x4 DUP2 LT PUSH2 0x436 JUMPI PUSH2 0x435 PUSH2 0x3F8 JUMP JUMPDEST JUMPDEST POP JUMP JUMPDEST PUSH0 DUP2 SWAP1 POP PUSH2 0x446 DUP3 PUSH2 0x425 JUMP JUMPDEST SWAP2 SWAP1 POP JUMP JUMPDEST PUSH0 PUSH2 0x455 DUP3 PUSH2 0x439 JUMP JUMPDEST SWAP1 POP SWAP2 SWAP1 POP JUMP JUMPDEST PUSH2 0x465 DUP2 PUSH2 0x44B JUMP JUMPDEST DUP3 MSTORE POP POP JUMP JUMPDEST PUSH0 PUSH1 0x20 DUP3 ADD SWAP1 POP PUSH2 0x47E PUSH0 DUP4 ADD DUP5 PUSH2 0x45C JUMP JUMPDEST SWAP3 SWAP2 POP POP JUMP JUMPDEST PUSH0 DUP3 DUP3 MSTORE PUSH1 0x20 DUP3 ADD SWAP1 POP SWAP3 SWAP2 POP POP JUMP JUMPDEST PUSH32 0x4974206D75737420626520746865207061796D656E7420737461747573000000 PUSH0 DUP3 ADD MSTORE POP JUMP JUMPDEST PUSH0 PUSH2 0x4C8 PUSH1 0x1D DUP4 PUSH2 0x484 JUMP JUMPDEST SWAP2 POP PUSH2 0x4D3 DUP3 PUSH2 0x494 JUMP JUMPDEST PUSH1 0x20 DUP3 ADD SWAP1 POP SWAP2 SWAP1 POP JUMP JUMPDEST PUSH0 PUSH1 0x20 DUP3 ADD SWAP1 POP DUP2 DUP2 SUB PUSH0 DUP4 ADD MSTORE PUSH2 0x4F5 DUP2 PUSH2 0x4BC JUMP JUMPDEST SWAP1 POP SWAP2 SWAP1 POP JUMP JUMPDEST PUSH32 0x4F72646572207375636365737300000000000000000000000000000000000000 PUSH0 DUP3 ADD MSTORE POP JUMP JUMPDEST PUSH0 PUSH2 0x530 PUSH1 0xD DUP4 PUSH2 0x484 JUMP JUMPDEST SWAP2 POP PUSH2 0x53B DUP3 PUSH2 0x4FC JUMP JUMPDEST PUSH1 0x20 DUP3 ADD SWAP1 POP SWAP2 SWAP1 POP JUMP JUMPDEST PUSH0 PUSH1 0x20 DUP3 ADD SWAP1 POP DUP2 DUP2 SUB PUSH0 DUP4 ADD MSTORE PUSH2 0x55D DUP2 PUSH2 0x524 JUMP JUMPDEST SWAP1 POP SWAP2 SWAP1 POP JUMP JUMPDEST PUSH32 0x4974206D75737420626520746865206F72646572207374617475730000000000 PUSH0 DUP3 ADD MSTORE POP JUMP JUMPDEST PUSH0 PUSH2 0x598 PUSH1 0x1B DUP4 PUSH2 0x484 JUMP JUMPDEST SWAP2 POP PUSH2 0x5A3 DUP3 PUSH2 0x564 JUMP JUMPDEST PUSH1 0x20 DUP3 ADD SWAP1 POP SWAP2 SWAP1 POP JUMP JUMPDEST PUSH0 PUSH1 0x20 DUP3 ADD SWAP1 POP DUP2 DUP2 SUB PUSH0 DUP4 ADD MSTORE PUSH2 0x5C5 DUP2 PUSH2 0x58C JUMP JUMPDEST SWAP1 POP SWAP2 SWAP1 POP JUMP JUMPDEST PUSH32 0x54616B6541776179207375636365737300000000000000000000000000000000 PUSH0 DUP3 ADD MSTORE POP JUMP JUMPDEST PUSH0 PUSH2 0x600 PUSH1 0x10 DUP4 PUSH2 0x484 JUMP JUMPDEST SWAP2 POP PUSH2 0x60B DUP3 PUSH2 0x5CC JUMP JUMPDEST PUSH1 0x20 DUP3 ADD SWAP1 POP SWAP2 SWAP1 POP JUMP JUMPDEST PUSH0 PUSH1 0x20 DUP3 ADD SWAP1 POP DUP2 DUP2 SUB PUSH0 DUP4 ADD MSTORE PUSH2 0x62D DUP2 PUSH2 0x5F4 JUMP JUMPDEST SWAP1 POP SWAP2 SWAP1 POP JUMP JUMPDEST PUSH32 0x4974206D757374206265207468652064656C6976657279207374617475730000 PUSH0 DUP3 ADD MSTORE POP JUMP JUMPDEST PUSH0 PUSH2 0x668 PUSH1 0x1E DUP4 PUSH2 0x484 JUMP JUMPDEST SWAP2 POP PUSH2 0x673 DUP3 PUSH2 0x634 JUMP JUMPDEST PUSH1 0x20 DUP3 ADD SWAP1 POP SWAP2 SWAP1 POP JUMP JUMPDEST PUSH0 PUSH1 0x20 DUP3 ADD SWAP1 POP DUP2 DUP2 SUB PUSH0 DUP4 ADD MSTORE PUSH2 0x695 DUP2 PUSH2 0x65C JUMP JUMPDEST SWAP1 POP SWAP2 SWAP1 POP JUMP JUMPDEST PUSH32 0x5061796D656E7420737563636573730000000000000000000000000000000000 PUSH0 DUP3 ADD MSTORE POP JUMP JUMPDEST PUSH0 PUSH2 0x6D0 PUSH1 0xF DUP4 PUSH2 0x484 JUMP JUMPDEST SWAP2 POP PUSH2 0x6DB DUP3 PUSH2 0x69C JUMP JUMPDEST PUSH1 0x20 DUP3 ADD SWAP1 POP SWAP2 SWAP1 POP JUMP JUMPDEST PUSH0 PUSH1 0x20 DUP3 ADD SWAP1 POP DUP2 DUP2 SUB PUSH0 DUP4 ADD MSTORE PUSH2 0x6FD DUP2 PUSH2 0x6C4 JUMP JUMPDEST SWAP1 POP SWAP2 SWAP1 POP JUMP JUMPDEST PUSH32 0x4974206D757374206265207468652074616B6541776179207374617475730000 PUSH0 DUP3 ADD MSTORE POP JUMP JUMPDEST PUSH0 PUSH2 0x738 PUSH1 0x1E DUP4 PUSH2 0x484 JUMP JUMPDEST SWAP2 POP PUSH2 0x743 DUP3 PUSH2 0x704 JUMP JUMPDEST PUSH1 0x20 DUP3 ADD SWAP1 POP SWAP2 SWAP1 POP JUMP JUMPDEST PUSH0 PUSH1 0x20 DUP3 ADD SWAP1 POP DUP2 DUP2 SUB PUSH0 DUP4 ADD MSTORE PUSH2 0x765 DUP2 PUSH2 0x72C JUMP JUMPDEST SWAP1 POP SWAP2 SWAP1 POP JUMP JUMPDEST PUSH32 0x44656C6976657279207375636365737300000000000000000000000000000000 PUSH0 DUP3 ADD MSTORE POP JUMP JUMPDEST PUSH0 PUSH2 0x7A0 PUSH1 0x10 DUP4 PUSH2 0x484 JUMP JUMPDEST SWAP2 POP PUSH2 0x7AB DUP3 PUSH2 0x76C JUMP JUMPDEST PUSH1 0x20 DUP3 ADD SWAP1 POP SWAP2 SWAP1 POP JUMP JUMPDEST PUSH0 PUSH1 0x20 DUP3 ADD SWAP1 POP DUP2 DUP2 SUB PUSH0 DUP4 ADD MSTORE PUSH2 0x7CD DUP2 PUSH2 0x794 JUMP JUMPDEST SWAP1 POP SWAP2 SWAP1 POP JUMP INVALID LOG2 PUSH5 0x6970667358 0x22 SLT KECCAK256 0xCF 0xE7 0xE2 0xB6 RETURN 0xC6 0xD4 0x24 SWAP8 DUP12 PUSH10 0xB2F20772F2F1E611D1CF 0xBD 0xBF SELFBALANCE CODESIZE DUP5 SWAP1 0x21 0x26 CALLCODE LOG3 DUP3 PUSH5 0x736F6C6343 STOP ADDMOD OR STOP CALLER "
				},
				"gasEstimates": {
					"creation": {
						"codeDepositCost": "411600",
						"executionCost": "24745",
						"totalCost": "436345"
					},
					"external": {
						"deliveryFood()": "28477",
						"foodStatus()": "2617",
						"orderFood()": "28410",
						"paymentFood()": "28455",
						"takeAwayFood()": "28432"
					}
				},
				"methodIdentifiers": {
					"deliveryFood()": "d3e9ff83",
					"foodStatus()": "d9c966fd",
					"orderFood()": "429268ae",
					"paymentFood()": "c62efc2b",
					"takeAwayFood()": "94d15a9e"
				}
			},
			"storageLayout": {
				"storage": [
					{
						"astId": 13,
						"contract": "chapter8/Ex8_3.sol:Ex8_3",
						"label": "foodStatus",
						"offset": 0,
						"slot": "0",
						"type": "t_enum(FoodProcess)10"
					}
				],
				"types": {
					"t_enum(FoodProcess)10": {
						"encoding": "inplace",
						"label": "enum Ex8_3.FoodProcess",
						"numberOfBytes": "1"
					}
				}
			},
			"userdoc": {
				"kind": "user",
				"methods": {},
				"version": 1
			}
		}
	}
}