{
	"chapter5/Ex5_7.sol": {
		"Ex5_7": {
			"abi": [
				{
					"inputs": [
						{
							"internalType": "string",
							"name": "_job",
							"type": "string"
						}
					],
					"name": "changeJobHuman1",
					"outputs": [],
					"stateMutability": "nonpayable",
					"type": "function"
				},
				{
					"inputs": [],
					"name": "getHuman1",
					"outputs": [
						{
							"components": [
								{
									"internalType": "string",
									"name": "name",
									"type": "string"
								},
								{
									"internalType": "uint256",
									"name": "age",
									"type": "uint256"
								},
								{
									"internalType": "string",
									"name": "job",
									"type": "string"
								}
							],
							"internalType": "struct Ex5_7.Human",
							"name": "",
							"type": "tuple"
						}
					],
					"stateMutability": "view",
					"type": "function"
				},
				{
					"inputs": [],
					"name": "getHuman2",
					"outputs": [
						{
							"components": [
								{
									"internalType": "string",
									"name": "name",
									"type": "string"
								},
								{
									"internalType": "uint256",
									"name": "age",
									"type": "uint256"
								},
								{
									"internalType": "string",
									"name": "job",
									"type": "string"
								}
							],
							"internalType": "struct Ex5_7.Human",
							"name": "",
							"type": "tuple"
						}
					],
					"stateMutability": "view",
					"type": "function"
				},
				{
					"inputs": [],
					"name": "human1",
					"outputs": [
						{
							"internalType": "string",
							"name": "name",
							"type": "string"
						},
						{
							"internalType": "uint256",
							"name": "age",
							"type": "uint256"
						},
						{
							"internalType": "string",
							"name": "job",
							"type": "string"
						}
					],
					"stateMutability": "view",
					"type": "function"
				},
				{
					"inputs": [],
					"name": "human2",
					"outputs": [
						{
							"internalType": "string",
							"name": "name",
							"type": "string"
						},
						{
							"internalType": "uint256",
							"name": "age",
							"type": "uint256"
						},
						{
							"internalType": "string",
							"name": "job",
							"type": "string"
						}
					],
					"stateMutability": "view",
					"type": "function"
				},
				{
					"inputs": [
						{
							"internalType": "string",
							"name": "_name",
							"type": "string"
						},
						{
							"internalType": "uint256",
							"name": "_age",
							"type": "uint256"
						},
						{
							"internalType": "string",
							"name": "_job",
							"type": "string"
						}
					],
					"name": "initializegetHuman2",
					"outputs": [],
					"stateMutability": "nonpayable",
					"type": "function"
				}
			],
			"devdoc": {
				"kind": "dev",
				"methods": {},
				"version": 1
			},
			"evm": {
				"assembly": "    /* \"chapter5/Ex5_7.sol\":72:696  contract Ex5_7 {... */\n  mstore(0x40, 0x80)\n    /* \"chapter5/Ex5_7.sol\":207:234  Human(\"ploy\", 25, \"artist\") */\n  mload(0x40)\n  dup1\n  0x60\n  add\n  0x40\n  mstore\n  dup1\n  mload(0x40)\n  dup1\n  0x40\n  add\n  0x40\n  mstore\n  dup1\n  0x04\n  dup2\n  mstore\n  0x20\n  add\n  0x706c6f7900000000000000000000000000000000000000000000000000000000\n  dup2\n  mstore\n  pop\n  dup2\n  mstore\n  0x20\n  add\n    /* \"chapter5/Ex5_7.sol\":221:223  25 */\n  0x19\n    /* \"chapter5/Ex5_7.sol\":207:234  Human(\"ploy\", 25, \"artist\") */\n  dup2\n  mstore\n  0x20\n  add\n  mload(0x40)\n  dup1\n  0x40\n  add\n  0x40\n  mstore\n  dup1\n  0x06\n  dup2\n  mstore\n  0x20\n  add\n  0x6172746973740000000000000000000000000000000000000000000000000000\n  dup2\n  mstore\n  pop\n  dup2\n  mstore\n  pop\n    /* \"chapter5/Ex5_7.sol\":185:234  Human public human1 = Human(\"ploy\", 25, \"artist\") */\n  0x00\n  dup1\n  dup3\n  add\n  mload\n  dup2\n  0x00\n  add\n  swap1\n  dup2\n  tag_1\n  swap2\n  swap1\n  tag_2\n  jump\t// in\ntag_1:\n  pop\n  0x20\n  dup3\n  add\n  mload\n  dup2\n  0x01\n  add\n  sstore\n  0x40\n  dup3\n  add\n  mload\n  dup2\n  0x02\n  add\n  swap1\n  dup2\n  tag_3\n  swap2\n  swap1\n  tag_2\n  jump\t// in\ntag_3:\n  pop\n  pop\n  pop\n    /* \"chapter5/Ex5_7.sol\":72:696  contract Ex5_7 {... */\n  callvalue\n  dup1\n  iszero\n  tag_4\n  jumpi\n  0x00\n  dup1\n  revert\ntag_4:\n  pop\n  jump(tag_5)\n    /* \"#utility.yul\":7:106   */\ntag_6:\n    /* \"#utility.yul\":59:65   */\n  0x00\n    /* \"#utility.yul\":93:98   */\n  dup2\n    /* \"#utility.yul\":87:99   */\n  mload\n    /* \"#utility.yul\":77:99   */\n  swap1\n  pop\n    /* \"#utility.yul\":7:106   */\n  swap2\n  swap1\n  pop\n  jump\t// out\n    /* \"#utility.yul\":112:292   */\ntag_7:\n    /* \"#utility.yul\":160:237   */\n  0x4e487b7100000000000000000000000000000000000000000000000000000000\n    /* \"#utility.yul\":157:158   */\n  0x00\n    /* \"#utility.yul\":150:238   */\n  mstore\n    /* \"#utility.yul\":257:261   */\n  0x41\n    /* \"#utility.yul\":254:255   */\n  0x04\n    /* \"#utility.yul\":247:262   */\n  mstore\n    /* \"#utility.yul\":281:285   */\n  0x24\n    /* \"#utility.yul\":278:279   */\n  0x00\n    /* \"#utility.yul\":271:286   */\n  revert\n    /* \"#utility.yul\":298:478   */\ntag_8:\n    /* \"#utility.yul\":346:423   */\n  0x4e487b7100000000000000000000000000000000000000000000000000000000\n    /* \"#utility.yul\":343:344   */\n  0x00\n    /* \"#utility.yul\":336:424   */\n  mstore\n    /* \"#utility.yul\":443:447   */\n  0x22\n    /* \"#utility.yul\":440:441   */\n  0x04\n    /* \"#utility.yul\":433:448   */\n  mstore\n    /* \"#utility.yul\":467:471   */\n  0x24\n    /* \"#utility.yul\":464:465   */\n  0x00\n    /* \"#utility.yul\":457:472   */\n  revert\n    /* \"#utility.yul\":484:804   */\ntag_9:\n    /* \"#utility.yul\":528:534   */\n  0x00\n    /* \"#utility.yul\":565:566   */\n  0x02\n    /* \"#utility.yul\":559:563   */\n  dup3\n    /* \"#utility.yul\":555:567   */\n  div\n    /* \"#utility.yul\":545:567   */\n  swap1\n  pop\n    /* \"#utility.yul\":612:613   */\n  0x01\n    /* \"#utility.yul\":606:610   */\n  dup3\n    /* \"#utility.yul\":602:614   */\n  and\n    /* \"#utility.yul\":633:651   */\n  dup1\n    /* \"#utility.yul\":623:704   */\n  tag_31\n  jumpi\n    /* \"#utility.yul\":689:693   */\n  0x7f\n    /* \"#utility.yul\":681:687   */\n  dup3\n    /* \"#utility.yul\":677:694   */\n  and\n    /* \"#utility.yul\":667:694   */\n  swap2\n  pop\n    /* \"#utility.yul\":623:704   */\ntag_31:\n    /* \"#utility.yul\":751:753   */\n  0x20\n    /* \"#utility.yul\":743:749   */\n  dup3\n    /* \"#utility.yul\":740:754   */\n  lt\n    /* \"#utility.yul\":720:738   */\n  dup2\n    /* \"#utility.yul\":717:755   */\n  sub\n    /* \"#utility.yul\":714:798   */\n  tag_32\n  jumpi\n    /* \"#utility.yul\":770:788   */\n  tag_33\n  tag_8\n  jump\t// in\ntag_33:\n    /* \"#utility.yul\":714:798   */\ntag_32:\n    /* \"#utility.yul\":535:804   */\n  pop\n    /* \"#utility.yul\":484:804   */\n  swap2\n  swap1\n  pop\n  jump\t// out\n    /* \"#utility.yul\":810:951   */\ntag_10:\n    /* \"#utility.yul\":859:863   */\n  0x00\n    /* \"#utility.yul\":882:885   */\n  dup2\n    /* \"#utility.yul\":874:885   */\n  swap1\n  pop\n    /* \"#utility.yul\":905:908   */\n  dup2\n    /* \"#utility.yul\":902:903   */\n  0x00\n    /* \"#utility.yul\":895:909   */\n  mstore\n    /* \"#utility.yul\":939:943   */\n  0x20\n    /* \"#utility.yul\":936:937   */\n  0x00\n    /* \"#utility.yul\":926:944   */\n  keccak256\n    /* \"#utility.yul\":918:944   */\n  swap1\n  pop\n    /* \"#utility.yul\":810:951   */\n  swap2\n  swap1\n  pop\n  jump\t// out\n    /* \"#utility.yul\":957:1050   */\ntag_11:\n    /* \"#utility.yul\":994:1000   */\n  0x00\n    /* \"#utility.yul\":1041:1043   */\n  0x20\n    /* \"#utility.yul\":1036:1038   */\n  0x1f\n    /* \"#utility.yul\":1029:1034   */\n  dup4\n    /* \"#utility.yul\":1025:1039   */\n  add\n    /* \"#utility.yul\":1021:1044   */\n  div\n    /* \"#utility.yul\":1011:1044   */\n  swap1\n  pop\n    /* \"#utility.yul\":957:1050   */\n  swap2\n  swap1\n  pop\n  jump\t// out\n    /* \"#utility.yul\":1056:1163   */\ntag_12:\n    /* \"#utility.yul\":1100:1108   */\n  0x00\n    /* \"#utility.yul\":1150:1155   */\n  dup3\n    /* \"#utility.yul\":1144:1148   */\n  dup3\n    /* \"#utility.yul\":1140:1156   */\n  shl\n    /* \"#utility.yul\":1119:1156   */\n  swap1\n  pop\n    /* \"#utility.yul\":1056:1163   */\n  swap3\n  swap2\n  pop\n  pop\n  jump\t// out\n    /* \"#utility.yul\":1169:1562   */\ntag_13:\n    /* \"#utility.yul\":1238:1244   */\n  0x00\n    /* \"#utility.yul\":1288:1289   */\n  0x08\n    /* \"#utility.yul\":1276:1286   */\n  dup4\n    /* \"#utility.yul\":1272:1290   */\n  mul\n    /* \"#utility.yul\":1311:1408   */\n  tag_38\n    /* \"#utility.yul\":1341:1407   */\n  0xffffffffffffffffffffffffffffffffffffffffffffffffffffffffffffffff\n    /* \"#utility.yul\":1330:1339   */\n  dup3\n    /* \"#utility.yul\":1311:1408   */\n  tag_12\n  jump\t// in\ntag_38:\n    /* \"#utility.yul\":1429:1468   */\n  tag_39\n    /* \"#utility.yul\":1459:1467   */\n  dup7\n    /* \"#utility.yul\":1448:1457   */\n  dup4\n    /* \"#utility.yul\":1429:1468   */\n  tag_12\n  jump\t// in\ntag_39:\n    /* \"#utility.yul\":1417:1468   */\n  swap6\n  pop\n    /* \"#utility.yul\":1501:1505   */\n  dup1\n    /* \"#utility.yul\":1497:1506   */\n  not\n    /* \"#utility.yul\":1490:1495   */\n  dup5\n    /* \"#utility.yul\":1486:1507   */\n  and\n    /* \"#utility.yul\":1477:1507   */\n  swap4\n  pop\n    /* \"#utility.yul\":1550:1554   */\n  dup1\n    /* \"#utility.yul\":1540:1548   */\n  dup7\n    /* \"#utility.yul\":1536:1555   */\n  and\n    /* \"#utility.yul\":1529:1534   */\n  dup5\n    /* \"#utility.yul\":1526:1556   */\n  or\n    /* \"#utility.yul\":1516:1556   */\n  swap3\n  pop\n    /* \"#utility.yul\":1245:1562   */\n  pop\n  pop\n    /* \"#utility.yul\":1169:1562   */\n  swap4\n  swap3\n  pop\n  pop\n  pop\n  jump\t// out\n    /* \"#utility.yul\":1568:1645   */\ntag_14:\n    /* \"#utility.yul\":1605:1612   */\n  0x00\n    /* \"#utility.yul\":1634:1639   */\n  dup2\n    /* \"#utility.yul\":1623:1639   */\n  swap1\n  pop\n    /* \"#utility.yul\":1568:1645   */\n  swap2\n  swap1\n  pop\n  jump\t// out\n    /* \"#utility.yul\":1651:1711   */\ntag_15:\n    /* \"#utility.yul\":1679:1682   */\n  0x00\n    /* \"#utility.yul\":1700:1705   */\n  dup2\n    /* \"#utility.yul\":1693:1705   */\n  swap1\n  pop\n    /* \"#utility.yul\":1651:1711   */\n  swap2\n  swap1\n  pop\n  jump\t// out\n    /* \"#utility.yul\":1717:1859   */\ntag_16:\n    /* \"#utility.yul\":1767:1776   */\n  0x00\n    /* \"#utility.yul\":1800:1853   */\n  tag_43\n    /* \"#utility.yul\":1818:1852   */\n  tag_44\n    /* \"#utility.yul\":1827:1851   */\n  tag_45\n    /* \"#utility.yul\":1845:1850   */\n  dup5\n    /* \"#utility.yul\":1827:1851   */\n  tag_14\n  jump\t// in\ntag_45:\n    /* \"#utility.yul\":1818:1852   */\n  tag_15\n  jump\t// in\ntag_44:\n    /* \"#utility.yul\":1800:1853   */\n  tag_14\n  jump\t// in\ntag_43:\n    /* \"#utility.yul\":1787:1853   */\n  swap1\n  pop\n    /* \"#utility.yul\":1717:1859   */\n  swap2\n  swap1\n  pop\n  jump\t// out\n    /* \"#utility.yul\":1865:1940   */\ntag_17:\n    /* \"#utility.yul\":1908:1911   */\n  0x00\n    /* \"#utility.yul\":1929:1934   */\n  dup2\n    /* \"#utility.yul\":1922:1934   */\n  swap1\n  pop\n    /* \"#utility.yul\":1865:1940   */\n  swap2\n  swap1\n  pop\n  jump\t// out\n    /* \"#utility.yul\":1946:2215   */\ntag_18:\n    /* \"#utility.yul\":2056:2095   */\n  tag_48\n    /* \"#utility.yul\":2087:2094   */\n  dup4\n    /* \"#utility.yul\":2056:2095   */\n  tag_16\n  jump\t// in\ntag_48:\n    /* \"#utility.yul\":2117:2208   */\n  tag_49\n    /* \"#utility.yul\":2166:2207   */\n  tag_50\n    /* \"#utility.yul\":2190:2206   */\n  dup3\n    /* \"#utility.yul\":2166:2207   */\n  tag_17\n  jump\t// in\ntag_50:\n    /* \"#utility.yul\":2158:2164   */\n  dup5\n    /* \"#utility.yul\":2151:2155   */\n  dup5\n    /* \"#utility.yul\":2145:2156   */\n  sload\n    /* \"#utility.yul\":2117:2208   */\n  tag_13\n  jump\t// in\ntag_49:\n    /* \"#utility.yul\":2111:2115   */\n  dup3\n    /* \"#utility.yul\":2104:2209   */\n  sstore\n    /* \"#utility.yul\":2022:2215   */\n  pop\n    /* \"#utility.yul\":1946:2215   */\n  pop\n  pop\n  pop\n  jump\t// out\n    /* \"#utility.yul\":2221:2294   */\ntag_19:\n    /* \"#utility.yul\":2266:2269   */\n  0x00\n    /* \"#utility.yul\":2221:2294   */\n  swap1\n  jump\t// out\n    /* \"#utility.yul\":2300:2489   */\ntag_20:\n    /* \"#utility.yul\":2377:2409   */\n  tag_53\n  tag_19\n  jump\t// in\ntag_53:\n    /* \"#utility.yul\":2418:2483   */\n  tag_54\n    /* \"#utility.yul\":2476:2482   */\n  dup2\n    /* \"#utility.yul\":2468:2474   */\n  dup5\n    /* \"#utility.yul\":2462:2466   */\n  dup5\n    /* \"#utility.yul\":2418:2483   */\n  tag_18\n  jump\t// in\ntag_54:\n    /* \"#utility.yul\":2353:2489   */\n  pop\n    /* \"#utility.yul\":2300:2489   */\n  pop\n  pop\n  jump\t// out\n    /* \"#utility.yul\":2495:2681   */\ntag_21:\n    /* \"#utility.yul\":2555:2675   */\ntag_56:\n    /* \"#utility.yul\":2572:2575   */\n  dup2\n    /* \"#utility.yul\":2565:2570   */\n  dup2\n    /* \"#utility.yul\":2562:2576   */\n  lt\n    /* \"#utility.yul\":2555:2675   */\n  iszero\n  tag_58\n  jumpi\n    /* \"#utility.yul\":2626:2665   */\n  tag_59\n    /* \"#utility.yul\":2663:2664   */\n  0x00\n    /* \"#utility.yul\":2656:2661   */\n  dup3\n    /* \"#utility.yul\":2626:2665   */\n  tag_20\n  jump\t// in\ntag_59:\n    /* \"#utility.yul\":2599:2600   */\n  0x01\n    /* \"#utility.yul\":2592:2597   */\n  dup2\n    /* \"#utility.yul\":2588:2601   */\n  add\n    /* \"#utility.yul\":2579:2601   */\n  swap1\n  pop\n    /* \"#utility.yul\":2555:2675   */\n  jump(tag_56)\ntag_58:\n    /* \"#utility.yul\":2495:2681   */\n  pop\n  pop\n  jump\t// out\n    /* \"#utility.yul\":2687:3230   */\ntag_22:\n    /* \"#utility.yul\":2788:2790   */\n  0x1f\n    /* \"#utility.yul\":2783:2786   */\n  dup3\n    /* \"#utility.yul\":2780:2791   */\n  gt\n    /* \"#utility.yul\":2777:3223   */\n  iszero\n  tag_61\n  jumpi\n    /* \"#utility.yul\":2822:2860   */\n  tag_62\n    /* \"#utility.yul\":2854:2859   */\n  dup2\n    /* \"#utility.yul\":2822:2860   */\n  tag_10\n  jump\t// in\ntag_62:\n    /* \"#utility.yul\":2906:2935   */\n  tag_63\n    /* \"#utility.yul\":2924:2934   */\n  dup5\n    /* \"#utility.yul\":2906:2935   */\n  tag_11\n  jump\t// in\ntag_63:\n    /* \"#utility.yul\":2896:2904   */\n  dup2\n    /* \"#utility.yul\":2892:2936   */\n  add\n    /* \"#utility.yul\":3089:3091   */\n  0x20\n    /* \"#utility.yul\":3077:3087   */\n  dup6\n    /* \"#utility.yul\":3074:3092   */\n  lt\n    /* \"#utility.yul\":3071:3120   */\n  iszero\n  tag_64\n  jumpi\n    /* \"#utility.yul\":3110:3118   */\n  dup2\n    /* \"#utility.yul\":3095:3118   */\n  swap1\n  pop\n    /* \"#utility.yul\":3071:3120   */\ntag_64:\n    /* \"#utility.yul\":3133:3213   */\n  tag_65\n    /* \"#utility.yul\":3189:3211   */\n  tag_66\n    /* \"#utility.yul\":3207:3210   */\n  dup6\n    /* \"#utility.yul\":3189:3211   */\n  tag_11\n  jump\t// in\ntag_66:\n    /* \"#utility.yul\":3179:3187   */\n  dup4\n    /* \"#utility.yul\":3175:3212   */\n  add\n    /* \"#utility.yul\":3162:3173   */\n  dup3\n    /* \"#utility.yul\":3133:3213   */\n  tag_21\n  jump\t// in\ntag_65:\n    /* \"#utility.yul\":2792:3223   */\n  pop\n  pop\n    /* \"#utility.yul\":2777:3223   */\ntag_61:\n    /* \"#utility.yul\":2687:3230   */\n  pop\n  pop\n  pop\n  jump\t// out\n    /* \"#utility.yul\":3236:3353   */\ntag_23:\n    /* \"#utility.yul\":3290:3298   */\n  0x00\n    /* \"#utility.yul\":3340:3345   */\n  dup3\n    /* \"#utility.yul\":3334:3338   */\n  dup3\n    /* \"#utility.yul\":3330:3346   */\n  shr\n    /* \"#utility.yul\":3309:3346   */\n  swap1\n  pop\n    /* \"#utility.yul\":3236:3353   */\n  swap3\n  swap2\n  pop\n  pop\n  jump\t// out\n    /* \"#utility.yul\":3359:3528   */\ntag_24:\n    /* \"#utility.yul\":3403:3409   */\n  0x00\n    /* \"#utility.yul\":3436:3487   */\n  tag_69\n    /* \"#utility.yul\":3484:3485   */\n  0x00\n    /* \"#utility.yul\":3480:3486   */\n  not\n    /* \"#utility.yul\":3472:3477   */\n  dup5\n    /* \"#utility.yul\":3469:3470   */\n  0x08\n    /* \"#utility.yul\":3465:3478   */\n  mul\n    /* \"#utility.yul\":3436:3487   */\n  tag_23\n  jump\t// in\ntag_69:\n    /* \"#utility.yul\":3432:3488   */\n  not\n    /* \"#utility.yul\":3517:3521   */\n  dup1\n    /* \"#utility.yul\":3511:3515   */\n  dup4\n    /* \"#utility.yul\":3507:3522   */\n  and\n    /* \"#utility.yul\":3497:3522   */\n  swap2\n  pop\n    /* \"#utility.yul\":3410:3528   */\n  pop\n    /* \"#utility.yul\":3359:3528   */\n  swap3\n  swap2\n  pop\n  pop\n  jump\t// out\n    /* \"#utility.yul\":3533:3828   */\ntag_25:\n    /* \"#utility.yul\":3609:3613   */\n  0x00\n    /* \"#utility.yul\":3755:3784   */\n  tag_71\n    /* \"#utility.yul\":3780:3783   */\n  dup4\n    /* \"#utility.yul\":3774:3778   */\n  dup4\n    /* \"#utility.yul\":3755:3784   */\n  tag_24\n  jump\t// in\ntag_71:\n    /* \"#utility.yul\":3747:3784   */\n  swap2\n  pop\n    /* \"#utility.yul\":3817:3820   */\n  dup3\n    /* \"#utility.yul\":3814:3815   */\n  0x02\n    /* \"#utility.yul\":3810:3821   */\n  mul\n    /* \"#utility.yul\":3804:3808   */\n  dup3\n    /* \"#utility.yul\":3801:3822   */\n  or\n    /* \"#utility.yul\":3793:3822   */\n  swap1\n  pop\n    /* \"#utility.yul\":3533:3828   */\n  swap3\n  swap2\n  pop\n  pop\n  jump\t// out\n    /* \"#utility.yul\":3833:5228   */\ntag_2:\n    /* \"#utility.yul\":3950:3987   */\n  tag_73\n    /* \"#utility.yul\":3983:3986   */\n  dup3\n    /* \"#utility.yul\":3950:3987   */\n  tag_6\n  jump\t// in\ntag_73:\n    /* \"#utility.yul\":4052:4070   */\n  0xffffffffffffffff\n    /* \"#utility.yul\":4044:4050   */\n  dup2\n    /* \"#utility.yul\":4041:4071   */\n  gt\n    /* \"#utility.yul\":4038:4094   */\n  iszero\n  tag_74\n  jumpi\n    /* \"#utility.yul\":4074:4092   */\n  tag_75\n  tag_7\n  jump\t// in\ntag_75:\n    /* \"#utility.yul\":4038:4094   */\ntag_74:\n    /* \"#utility.yul\":4118:4156   */\n  tag_76\n    /* \"#utility.yul\":4150:4154   */\n  dup3\n    /* \"#utility.yul\":4144:4155   */\n  sload\n    /* \"#utility.yul\":4118:4156   */\n  tag_9\n  jump\t// in\ntag_76:\n    /* \"#utility.yul\":4203:4270   */\n  tag_77\n    /* \"#utility.yul\":4263:4269   */\n  dup3\n    /* \"#utility.yul\":4255:4261   */\n  dup3\n    /* \"#utility.yul\":4249:4253   */\n  dup6\n    /* \"#utility.yul\":4203:4270   */\n  tag_22\n  jump\t// in\ntag_77:\n    /* \"#utility.yul\":4297:4298   */\n  0x00\n    /* \"#utility.yul\":4321:4325   */\n  0x20\n    /* \"#utility.yul\":4308:4325   */\n  swap1\n  pop\n    /* \"#utility.yul\":4353:4355   */\n  0x1f\n    /* \"#utility.yul\":4345:4351   */\n  dup4\n    /* \"#utility.yul\":4342:4356   */\n  gt\n    /* \"#utility.yul\":4370:4371   */\n  0x01\n    /* \"#utility.yul\":4365:4983   */\n  dup2\n  eq\n  tag_79\n  jumpi\n    /* \"#utility.yul\":5027:5028   */\n  0x00\n    /* \"#utility.yul\":5044:5050   */\n  dup5\n    /* \"#utility.yul\":5041:5118   */\n  iszero\n  tag_80\n  jumpi\n    /* \"#utility.yul\":5093:5102   */\n  dup3\n    /* \"#utility.yul\":5088:5091   */\n  dup8\n    /* \"#utility.yul\":5084:5103   */\n  add\n    /* \"#utility.yul\":5078:5104   */\n  mload\n    /* \"#utility.yul\":5069:5104   */\n  swap1\n  pop\n    /* \"#utility.yul\":5041:5118   */\ntag_80:\n    /* \"#utility.yul\":5144:5211   */\n  tag_81\n    /* \"#utility.yul\":5204:5210   */\n  dup6\n    /* \"#utility.yul\":5197:5202   */\n  dup3\n    /* \"#utility.yul\":5144:5211   */\n  tag_25\n  jump\t// in\ntag_81:\n    /* \"#utility.yul\":5138:5142   */\n  dup7\n    /* \"#utility.yul\":5131:5212   */\n  sstore\n    /* \"#utility.yul\":5000:5222   */\n  pop\n    /* \"#utility.yul\":4335:5222   */\n  jump(tag_78)\n    /* \"#utility.yul\":4365:4983   */\ntag_79:\n    /* \"#utility.yul\":4417:4421   */\n  0x1f\n    /* \"#utility.yul\":4413:4422   */\n  not\n    /* \"#utility.yul\":4405:4411   */\n  dup5\n    /* \"#utility.yul\":4401:4423   */\n  and\n    /* \"#utility.yul\":4451:4488   */\n  tag_82\n    /* \"#utility.yul\":4483:4487   */\n  dup7\n    /* \"#utility.yul\":4451:4488   */\n  tag_10\n  jump\t// in\ntag_82:\n    /* \"#utility.yul\":4510:4511   */\n  0x00\n    /* \"#utility.yul\":4524:4732   */\ntag_83:\n    /* \"#utility.yul\":4538:4545   */\n  dup3\n    /* \"#utility.yul\":4535:4536   */\n  dup2\n    /* \"#utility.yul\":4532:4546   */\n  lt\n    /* \"#utility.yul\":4524:4732   */\n  iszero\n  tag_85\n  jumpi\n    /* \"#utility.yul\":4617:4626   */\n  dup5\n    /* \"#utility.yul\":4612:4615   */\n  dup10\n    /* \"#utility.yul\":4608:4627   */\n  add\n    /* \"#utility.yul\":4602:4628   */\n  mload\n    /* \"#utility.yul\":4594:4600   */\n  dup3\n    /* \"#utility.yul\":4587:4629   */\n  sstore\n    /* \"#utility.yul\":4668:4669   */\n  0x01\n    /* \"#utility.yul\":4660:4666   */\n  dup3\n    /* \"#utility.yul\":4656:4670   */\n  add\n    /* \"#utility.yul\":4646:4670   */\n  swap2\n  pop\n    /* \"#utility.yul\":4715:4717   */\n  0x20\n    /* \"#utility.yul\":4704:4713   */\n  dup6\n    /* \"#utility.yul\":4700:4718   */\n  add\n    /* \"#utility.yul\":4687:4718   */\n  swap5\n  pop\n    /* \"#utility.yul\":4561:4565   */\n  0x20\n    /* \"#utility.yul\":4558:4559   */\n  dup2\n    /* \"#utility.yul\":4554:4566   */\n  add\n    /* \"#utility.yul\":4549:4566   */\n  swap1\n  pop\n    /* \"#utility.yul\":4524:4732   */\n  jump(tag_83)\ntag_85:\n    /* \"#utility.yul\":4760:4766   */\n  dup7\n    /* \"#utility.yul\":4751:4758   */\n  dup4\n    /* \"#utility.yul\":4748:4767   */\n  lt\n    /* \"#utility.yul\":4745:4924   */\n  iszero\n  tag_86\n  jumpi\n    /* \"#utility.yul\":4818:4827   */\n  dup5\n    /* \"#utility.yul\":4813:4816   */\n  dup10\n    /* \"#utility.yul\":4809:4828   */\n  add\n    /* \"#utility.yul\":4803:4829   */\n  mload\n    /* \"#utility.yul\":4861:4909   */\n  tag_87\n    /* \"#utility.yul\":4903:4907   */\n  0x1f\n    /* \"#utility.yul\":4895:4901   */\n  dup10\n    /* \"#utility.yul\":4891:4908   */\n  and\n    /* \"#utility.yul\":4880:4889   */\n  dup3\n    /* \"#utility.yul\":4861:4909   */\n  tag_24\n  jump\t// in\ntag_87:\n    /* \"#utility.yul\":4853:4859   */\n  dup4\n    /* \"#utility.yul\":4846:4910   */\n  sstore\n    /* \"#utility.yul\":4768:4924   */\n  pop\n    /* \"#utility.yul\":4745:4924   */\ntag_86:\n    /* \"#utility.yul\":4970:4971   */\n  0x01\n    /* \"#utility.yul\":4966:4967   */\n  0x02\n    /* \"#utility.yul\":4958:4964   */\n  dup9\n    /* \"#utility.yul\":4954:4968   */\n  mul\n    /* \"#utility.yul\":4950:4972   */\n  add\n    /* \"#utility.yul\":4944:4948   */\n  dup9\n    /* \"#utility.yul\":4937:4973   */\n  sstore\n    /* \"#utility.yul\":4372:4983   */\n  pop\n  pop\n  pop\n    /* \"#utility.yul\":4335:5222   */\ntag_78:\n  pop\n    /* \"#utility.yul\":3925:5228   */\n  pop\n  pop\n  pop\n    /* \"#utility.yul\":3833:5228   */\n  pop\n  pop\n  jump\t// out\n    /* \"chapter5/Ex5_7.sol\":72:696  contract Ex5_7 {... */\ntag_5:\n  dataSize(sub_0)\n  dup1\n  dataOffset(sub_0)\n  0x00\n  codecopy\n  0x00\n  return\nstop\n\nsub_0: assembly {\n        /* \"chapter5/Ex5_7.sol\":72:696  contract Ex5_7 {... */\n      mstore(0x40, 0x80)\n      callvalue\n      dup1\n      iszero\n      tag_1\n      jumpi\n      0x00\n      dup1\n      revert\n    tag_1:\n      pop\n      jumpi(tag_2, lt(calldatasize, 0x04))\n      shr(0xe0, calldataload(0x00))\n      dup1\n      0x396466b7\n      eq\n      tag_3\n      jumpi\n      dup1\n      0x427156f3\n      eq\n      tag_4\n      jumpi\n      dup1\n      0x757f29c6\n      eq\n      tag_5\n      jumpi\n      dup1\n      0xae5e1170\n      eq\n      tag_6\n      jumpi\n      dup1\n      0xddd6016c\n      eq\n      tag_7\n      jumpi\n      dup1\n      0xf4ca3fdc\n      eq\n      tag_8\n      jumpi\n    tag_2:\n      0x00\n      dup1\n      revert\n        /* \"chapter5/Ex5_7.sol\":241:260  Human public human2 */\n    tag_3:\n      tag_9\n      tag_10\n      jump\t// in\n    tag_9:\n      mload(0x40)\n      tag_11\n      swap4\n      swap3\n      swap2\n      swap1\n      tag_12\n      jump\t// in\n    tag_11:\n      mload(0x40)\n      dup1\n      swap2\n      sub\n      swap1\n      return\n        /* \"chapter5/Ex5_7.sol\":269:355  function getHuman1() public view returns(Human memory){... */\n    tag_4:\n      tag_13\n      tag_14\n      jump\t// in\n    tag_13:\n      mload(0x40)\n      tag_15\n      swap2\n      swap1\n      tag_16\n      jump\t// in\n    tag_15:\n      mload(0x40)\n      dup1\n      swap2\n      sub\n      swap1\n      return\n        /* \"chapter5/Ex5_7.sol\":363:449  function getHuman2() public view returns(Human memory){... */\n    tag_5:\n      tag_17\n      tag_18\n      jump\t// in\n    tag_17:\n      mload(0x40)\n      tag_19\n      swap2\n      swap1\n      tag_16\n      jump\t// in\n    tag_19:\n      mload(0x40)\n      dup1\n      swap2\n      sub\n      swap1\n      return\n        /* \"chapter5/Ex5_7.sol\":185:234  Human public human1 = Human(\"ploy\", 25, \"artist\") */\n    tag_6:\n      tag_20\n      tag_21\n      jump\t// in\n    tag_20:\n      mload(0x40)\n      tag_22\n      swap4\n      swap3\n      swap2\n      swap1\n      tag_12\n      jump\t// in\n    tag_22:\n      mload(0x40)\n      dup1\n      swap2\n      sub\n      swap1\n      return\n        /* \"chapter5/Ex5_7.sol\":604:693  function changeJobHuman1(string memory _job) public  {... */\n    tag_7:\n      tag_23\n      0x04\n      dup1\n      calldatasize\n      sub\n      dup2\n      add\n      swap1\n      tag_24\n      swap2\n      swap1\n      tag_25\n      jump\t// in\n    tag_24:\n      tag_26\n      jump\t// in\n    tag_23:\n      stop\n        /* \"chapter5/Ex5_7.sol\":457:596  function initializegetHuman2(string memory _name, uint _age, string memory _job) public{... */\n    tag_8:\n      tag_27\n      0x04\n      dup1\n      calldatasize\n      sub\n      dup2\n      add\n      swap1\n      tag_28\n      swap2\n      swap1\n      tag_29\n      jump\t// in\n    tag_28:\n      tag_30\n      jump\t// in\n    tag_27:\n      stop\n        /* \"chapter5/Ex5_7.sol\":241:260  Human public human2 */\n    tag_10:\n      0x03\n      dup1\n      0x00\n      add\n      dup1\n      sload\n      tag_31\n      swap1\n      tag_32\n      jump\t// in\n    tag_31:\n      dup1\n      0x1f\n      add\n      0x20\n      dup1\n      swap2\n      div\n      mul\n      0x20\n      add\n      mload(0x40)\n      swap1\n      dup2\n      add\n      0x40\n      mstore\n      dup1\n      swap3\n      swap2\n      swap1\n      dup2\n      dup2\n      mstore\n      0x20\n      add\n      dup3\n      dup1\n      sload\n      tag_33\n      swap1\n      tag_32\n      jump\t// in\n    tag_33:\n      dup1\n      iszero\n      tag_34\n      jumpi\n      dup1\n      0x1f\n      lt\n      tag_35\n      jumpi\n      0x0100\n      dup1\n      dup4\n      sload\n      div\n      mul\n      dup4\n      mstore\n      swap2\n      0x20\n      add\n      swap2\n      jump(tag_34)\n    tag_35:\n      dup3\n      add\n      swap2\n      swap1\n      0x00\n      mstore\n      keccak256(0x00, 0x20)\n      swap1\n    tag_36:\n      dup2\n      sload\n      dup2\n      mstore\n      swap1\n      0x01\n      add\n      swap1\n      0x20\n      add\n      dup1\n      dup4\n      gt\n      tag_36\n      jumpi\n      dup3\n      swap1\n      sub\n      0x1f\n      and\n      dup3\n      add\n      swap2\n    tag_34:\n      pop\n      pop\n      pop\n      pop\n      pop\n      swap1\n      dup1\n      0x01\n      add\n      sload\n      swap1\n      dup1\n      0x02\n      add\n      dup1\n      sload\n      tag_37\n      swap1\n      tag_32\n      jump\t// in\n    tag_37:\n      dup1\n      0x1f\n      add\n      0x20\n      dup1\n      swap2\n      div\n      mul\n      0x20\n      add\n      mload(0x40)\n      swap1\n      dup2\n      add\n      0x40\n      mstore\n      dup1\n      swap3\n      swap2\n      swap1\n      dup2\n      dup2\n      mstore\n      0x20\n      add\n      dup3\n      dup1\n      sload\n      tag_38\n      swap1\n      tag_32\n      jump\t// in\n    tag_38:\n      dup1\n      iszero\n      tag_39\n      jumpi\n      dup1\n      0x1f\n      lt\n      tag_40\n      jumpi\n      0x0100\n      dup1\n      dup4\n      sload\n      div\n      mul\n      dup4\n      mstore\n      swap2\n      0x20\n      add\n      swap2\n      jump(tag_39)\n    tag_40:\n      dup3\n      add\n      swap2\n      swap1\n      0x00\n      mstore\n      keccak256(0x00, 0x20)\n      swap1\n    tag_41:\n      dup2\n      sload\n      dup2\n      mstore\n      swap1\n      0x01\n      add\n      swap1\n      0x20\n      add\n      dup1\n      dup4\n      gt\n      tag_41\n      jumpi\n      dup3\n      swap1\n      sub\n      0x1f\n      and\n      dup3\n      add\n      swap2\n    tag_39:\n      pop\n      pop\n      pop\n      pop\n      pop\n      swap1\n      pop\n      dup4\n      jump\t// out\n        /* \"chapter5/Ex5_7.sol\":269:355  function getHuman1() public view returns(Human memory){... */\n    tag_14:\n        /* \"chapter5/Ex5_7.sol\":310:322  Human memory */\n      tag_42\n      tag_43\n      jump\t// in\n    tag_42:\n        /* \"chapter5/Ex5_7.sol\":341:347  human1 */\n      0x00\n        /* \"chapter5/Ex5_7.sol\":334:347  return human1 */\n      mload(0x40)\n      dup1\n      0x60\n      add\n      0x40\n      mstore\n      swap1\n      dup2\n      0x00\n      dup3\n      add\n      dup1\n      sload\n      tag_45\n      swap1\n      tag_32\n      jump\t// in\n    tag_45:\n      dup1\n      0x1f\n      add\n      0x20\n      dup1\n      swap2\n      div\n      mul\n      0x20\n      add\n      mload(0x40)\n      swap1\n      dup2\n      add\n      0x40\n      mstore\n      dup1\n      swap3\n      swap2\n      swap1\n      dup2\n      dup2\n      mstore\n      0x20\n      add\n      dup3\n      dup1\n      sload\n      tag_46\n      swap1\n      tag_32\n      jump\t// in\n    tag_46:\n      dup1\n      iszero\n      tag_47\n      jumpi\n      dup1\n      0x1f\n      lt\n      tag_48\n      jumpi\n      0x0100\n      dup1\n      dup4\n      sload\n      div\n      mul\n      dup4\n      mstore\n      swap2\n      0x20\n      add\n      swap2\n      jump(tag_47)\n    tag_48:\n      dup3\n      add\n      swap2\n      swap1\n      0x00\n      mstore\n      keccak256(0x00, 0x20)\n      swap1\n    tag_49:\n      dup2\n      sload\n      dup2\n      mstore\n      swap1\n      0x01\n      add\n      swap1\n      0x20\n      add\n      dup1\n      dup4\n      gt\n      tag_49\n      jumpi\n      dup3\n      swap1\n      sub\n      0x1f\n      and\n      dup3\n      add\n      swap2\n    tag_47:\n      pop\n      pop\n      pop\n      pop\n      pop\n      dup2\n      mstore\n      0x20\n      add\n      0x01\n      dup3\n      add\n      sload\n      dup2\n      mstore\n      0x20\n      add\n      0x02\n      dup3\n      add\n      dup1\n      sload\n      tag_50\n      swap1\n      tag_32\n      jump\t// in\n    tag_50:\n      dup1\n      0x1f\n      add\n      0x20\n      dup1\n      swap2\n      div\n      mul\n      0x20\n      add\n      mload(0x40)\n      swap1\n      dup2\n      add\n      0x40\n      mstore\n      dup1\n      swap3\n      swap2\n      swap1\n      dup2\n      dup2\n      mstore\n      0x20\n      add\n      dup3\n      dup1\n      sload\n      tag_51\n      swap1\n      tag_32\n      jump\t// in\n    tag_51:\n      dup1\n      iszero\n      tag_52\n      jumpi\n      dup1\n      0x1f\n      lt\n      tag_53\n      jumpi\n      0x0100\n      dup1\n      dup4\n      sload\n      div\n      mul\n      dup4\n      mstore\n      swap2\n      0x20\n      add\n      swap2\n      jump(tag_52)\n    tag_53:\n      dup3\n      add\n      swap2\n      swap1\n      0x00\n      mstore\n      keccak256(0x00, 0x20)\n      swap1\n    tag_54:\n      dup2\n      sload\n      dup2\n      mstore\n      swap1\n      0x01\n      add\n      swap1\n      0x20\n      add\n      dup1\n      dup4\n      gt\n      tag_54\n      jumpi\n      dup3\n      swap1\n      sub\n      0x1f\n      and\n      dup3\n      add\n      swap2\n    tag_52:\n      pop\n      pop\n      pop\n      pop\n      pop\n      dup2\n      mstore\n      pop\n      pop\n      swap1\n      pop\n        /* \"chapter5/Ex5_7.sol\":269:355  function getHuman1() public view returns(Human memory){... */\n      swap1\n      jump\t// out\n        /* \"chapter5/Ex5_7.sol\":363:449  function getHuman2() public view returns(Human memory){... */\n    tag_18:\n        /* \"chapter5/Ex5_7.sol\":404:416  Human memory */\n      tag_55\n      tag_43\n      jump\t// in\n    tag_55:\n        /* \"chapter5/Ex5_7.sol\":435:441  human2 */\n      0x03\n        /* \"chapter5/Ex5_7.sol\":428:441  return human2 */\n      mload(0x40)\n      dup1\n      0x60\n      add\n      0x40\n      mstore\n      swap1\n      dup2\n      0x00\n      dup3\n      add\n      dup1\n      sload\n      tag_57\n      swap1\n      tag_32\n      jump\t// in\n    tag_57:\n      dup1\n      0x1f\n      add\n      0x20\n      dup1\n      swap2\n      div\n      mul\n      0x20\n      add\n      mload(0x40)\n      swap1\n      dup2\n      add\n      0x40\n      mstore\n      dup1\n      swap3\n      swap2\n      swap1\n      dup2\n      dup2\n      mstore\n      0x20\n      add\n      dup3\n      dup1\n      sload\n      tag_58\n      swap1\n      tag_32\n      jump\t// in\n    tag_58:\n      dup1\n      iszero\n      tag_59\n      jumpi\n      dup1\n      0x1f\n      lt\n      tag_60\n      jumpi\n      0x0100\n      dup1\n      dup4\n      sload\n      div\n      mul\n      dup4\n      mstore\n      swap2\n      0x20\n      add\n      swap2\n      jump(tag_59)\n    tag_60:\n      dup3\n      add\n      swap2\n      swap1\n      0x00\n      mstore\n      keccak256(0x00, 0x20)\n      swap1\n    tag_61:\n      dup2\n      sload\n      dup2\n      mstore\n      swap1\n      0x01\n      add\n      swap1\n      0x20\n      add\n      dup1\n      dup4\n      gt\n      tag_61\n      jumpi\n      dup3\n      swap1\n      sub\n      0x1f\n      and\n      dup3\n      add\n      swap2\n    tag_59:\n      pop\n      pop\n      pop\n      pop\n      pop\n      dup2\n      mstore\n      0x20\n      add\n      0x01\n      dup3\n      add\n      sload\n      dup2\n      mstore\n      0x20\n      add\n      0x02\n      dup3\n      add\n      dup1\n      sload\n      tag_62\n      swap1\n      tag_32\n      jump\t// in\n    tag_62:\n      dup1\n      0x1f\n      add\n      0x20\n      dup1\n      swap2\n      div\n      mul\n      0x20\n      add\n      mload(0x40)\n      swap1\n      dup2\n      add\n      0x40\n      mstore\n      dup1\n      swap3\n      swap2\n      swap1\n      dup2\n      dup2\n      mstore\n      0x20\n      add\n      dup3\n      dup1\n      sload\n      tag_63\n      swap1\n      tag_32\n      jump\t// in\n    tag_63:\n      dup1\n      iszero\n      tag_64\n      jumpi\n      dup1\n      0x1f\n      lt\n      tag_65\n      jumpi\n      0x0100\n      dup1\n      dup4\n      sload\n      div\n      mul\n      dup4\n      mstore\n      swap2\n      0x20\n      add\n      swap2\n      jump(tag_64)\n    tag_65:\n      dup3\n      add\n      swap2\n      swap1\n      0x00\n      mstore\n      keccak256(0x00, 0x20)\n      swap1\n    tag_66:\n      dup2\n      sload\n      dup2\n      mstore\n      swap1\n      0x01\n      add\n      swap1\n      0x20\n      add\n      dup1\n      dup4\n      gt\n      tag_66\n      jumpi\n      dup3\n      swap1\n      sub\n      0x1f\n      and\n      dup3\n      add\n      swap2\n    tag_64:\n      pop\n      pop\n      pop\n      pop\n      pop\n      dup2\n      mstore\n      pop\n      pop\n      swap1\n      pop\n        /* \"chapter5/Ex5_7.sol\":363:449  function getHuman2() public view returns(Human memory){... */\n      swap1\n      jump\t// out\n        /* \"chapter5/Ex5_7.sol\":185:234  Human public human1 = Human(\"ploy\", 25, \"artist\") */\n    tag_21:\n      0x00\n      dup1\n      0x00\n      add\n      dup1\n      sload\n      tag_67\n      swap1\n      tag_32\n      jump\t// in\n    tag_67:\n      dup1\n      0x1f\n      add\n      0x20\n      dup1\n      swap2\n      div\n      mul\n      0x20\n      add\n      mload(0x40)\n      swap1\n      dup2\n      add\n      0x40\n      mstore\n      dup1\n      swap3\n      swap2\n      swap1\n      dup2\n      dup2\n      mstore\n      0x20\n      add\n      dup3\n      dup1\n      sload\n      tag_68\n      swap1\n      tag_32\n      jump\t// in\n    tag_68:\n      dup1\n      iszero\n      tag_69\n      jumpi\n      dup1\n      0x1f\n      lt\n      tag_70\n      jumpi\n      0x0100\n      dup1\n      dup4\n      sload\n      div\n      mul\n      dup4\n      mstore\n      swap2\n      0x20\n      add\n      swap2\n      jump(tag_69)\n    tag_70:\n      dup3\n      add\n      swap2\n      swap1\n      0x00\n      mstore\n      keccak256(0x00, 0x20)\n      swap1\n    tag_71:\n      dup2\n      sload\n      dup2\n      mstore\n      swap1\n      0x01\n      add\n      swap1\n      0x20\n      add\n      dup1\n      dup4\n      gt\n      tag_71\n      jumpi\n      dup3\n      swap1\n      sub\n      0x1f\n      and\n      dup3\n      add\n      swap2\n    tag_69:\n      pop\n      pop\n      pop\n      pop\n      pop\n      swap1\n      dup1\n      0x01\n      add\n      sload\n      swap1\n      dup1\n      0x02\n      add\n      dup1\n      sload\n      tag_72\n      swap1\n      tag_32\n      jump\t// in\n    tag_72:\n      dup1\n      0x1f\n      add\n      0x20\n      dup1\n      swap2\n      div\n      mul\n      0x20\n      add\n      mload(0x40)\n      swap1\n      dup2\n      add\n      0x40\n      mstore\n      dup1\n      swap3\n      swap2\n      swap1\n      dup2\n      dup2\n      mstore\n      0x20\n      add\n      dup3\n      dup1\n      sload\n      tag_73\n      swap1\n      tag_32\n      jump\t// in\n    tag_73:\n      dup1\n      iszero\n      tag_74\n      jumpi\n      dup1\n      0x1f\n      lt\n      tag_75\n      jumpi\n      0x0100\n      dup1\n      dup4\n      sload\n      div\n      mul\n      dup4\n      mstore\n      swap2\n      0x20\n      add\n      swap2\n      jump(tag_74)\n    tag_75:\n      dup3\n      add\n      swap2\n      swap1\n      0x00\n      mstore\n      keccak256(0x00, 0x20)\n      swap1\n    tag_76:\n      dup2\n      sload\n      dup2\n      mstore\n      swap1\n      0x01\n      add\n      swap1\n      0x20\n      add\n      dup1\n      dup4\n      gt\n      tag_76\n      jumpi\n      dup3\n      swap1\n      sub\n      0x1f\n      and\n      dup3\n      add\n      swap2\n    tag_74:\n      pop\n      pop\n      pop\n      pop\n      pop\n      swap1\n      pop\n      dup4\n      jump\t// out\n        /* \"chapter5/Ex5_7.sol\":604:693  function changeJobHuman1(string memory _job) public  {... */\n    tag_26:\n        /* \"chapter5/Ex5_7.sol\":681:685  _job */\n      dup1\n        /* \"chapter5/Ex5_7.sol\":668:674  human1 */\n      0x00\n        /* \"chapter5/Ex5_7.sol\":668:678  human1.job */\n      0x02\n      add\n        /* \"chapter5/Ex5_7.sol\":668:685  human1.job = _job */\n      swap1\n      dup2\n      tag_78\n      swap2\n      swap1\n      tag_79\n      jump\t// in\n    tag_78:\n      pop\n        /* \"chapter5/Ex5_7.sol\":604:693  function changeJobHuman1(string memory _job) public  {... */\n      pop\n      jump\t// out\n        /* \"chapter5/Ex5_7.sol\":457:596  function initializegetHuman2(string memory _name, uint _age, string memory _job) public{... */\n    tag_30:\n        /* \"chapter5/Ex5_7.sol\":564:588  Human(_name, _age, _job) */\n      mload(0x40)\n      dup1\n      0x60\n      add\n      0x40\n      mstore\n      dup1\n        /* \"chapter5/Ex5_7.sol\":570:575  _name */\n      dup5\n        /* \"chapter5/Ex5_7.sol\":564:588  Human(_name, _age, _job) */\n      dup2\n      mstore\n      0x20\n      add\n        /* \"chapter5/Ex5_7.sol\":577:581  _age */\n      dup4\n        /* \"chapter5/Ex5_7.sol\":564:588  Human(_name, _age, _job) */\n      dup2\n      mstore\n      0x20\n      add\n        /* \"chapter5/Ex5_7.sol\":583:587  _job */\n      dup3\n        /* \"chapter5/Ex5_7.sol\":564:588  Human(_name, _age, _job) */\n      dup2\n      mstore\n      pop\n        /* \"chapter5/Ex5_7.sol\":555:561  human2 */\n      0x03\n        /* \"chapter5/Ex5_7.sol\":555:588  human2 = Human(_name, _age, _job) */\n      0x00\n      dup3\n      add\n      mload\n      dup2\n      0x00\n      add\n      swap1\n      dup2\n      tag_81\n      swap2\n      swap1\n      tag_79\n      jump\t// in\n    tag_81:\n      pop\n      0x20\n      dup3\n      add\n      mload\n      dup2\n      0x01\n      add\n      sstore\n      0x40\n      dup3\n      add\n      mload\n      dup2\n      0x02\n      add\n      swap1\n      dup2\n      tag_82\n      swap2\n      swap1\n      tag_79\n      jump\t// in\n    tag_82:\n      pop\n      swap1\n      pop\n      pop\n        /* \"chapter5/Ex5_7.sol\":457:596  function initializegetHuman2(string memory _name, uint _age, string memory _job) public{... */\n      pop\n      pop\n      pop\n      jump\t// out\n    tag_43:\n      mload(0x40)\n      dup1\n      0x60\n      add\n      0x40\n      mstore\n      dup1\n      0x60\n      dup2\n      mstore\n      0x20\n      add\n      0x00\n      dup2\n      mstore\n      0x20\n      add\n      0x60\n      dup2\n      mstore\n      pop\n      swap1\n      jump\t// out\n        /* \"#utility.yul\":7:106   */\n    tag_83:\n        /* \"#utility.yul\":59:65   */\n      0x00\n        /* \"#utility.yul\":93:98   */\n      dup2\n        /* \"#utility.yul\":87:99   */\n      mload\n        /* \"#utility.yul\":77:99   */\n      swap1\n      pop\n        /* \"#utility.yul\":7:106   */\n      swap2\n      swap1\n      pop\n      jump\t// out\n        /* \"#utility.yul\":112:281   */\n    tag_84:\n        /* \"#utility.yul\":196:207   */\n      0x00\n        /* \"#utility.yul\":230:236   */\n      dup3\n        /* \"#utility.yul\":225:228   */\n      dup3\n        /* \"#utility.yul\":218:237   */\n      mstore\n        /* \"#utility.yul\":270:274   */\n      0x20\n        /* \"#utility.yul\":265:268   */\n      dup3\n        /* \"#utility.yul\":261:275   */\n      add\n        /* \"#utility.yul\":246:275   */\n      swap1\n      pop\n        /* \"#utility.yul\":112:281   */\n      swap3\n      swap2\n      pop\n      pop\n      jump\t// out\n        /* \"#utility.yul\":287:533   */\n    tag_85:\n        /* \"#utility.yul\":368:369   */\n      0x00\n        /* \"#utility.yul\":378:491   */\n    tag_128:\n        /* \"#utility.yul\":392:398   */\n      dup4\n        /* \"#utility.yul\":389:390   */\n      dup2\n        /* \"#utility.yul\":386:399   */\n      lt\n        /* \"#utility.yul\":378:491   */\n      iszero\n      tag_130\n      jumpi\n        /* \"#utility.yul\":477:478   */\n      dup1\n        /* \"#utility.yul\":472:475   */\n      dup3\n        /* \"#utility.yul\":468:479   */\n      add\n        /* \"#utility.yul\":462:480   */\n      mload\n        /* \"#utility.yul\":458:459   */\n      dup2\n        /* \"#utility.yul\":453:456   */\n      dup5\n        /* \"#utility.yul\":449:460   */\n      add\n        /* \"#utility.yul\":442:481   */\n      mstore\n        /* \"#utility.yul\":414:416   */\n      0x20\n        /* \"#utility.yul\":411:412   */\n      dup2\n        /* \"#utility.yul\":407:417   */\n      add\n        /* \"#utility.yul\":402:417   */\n      swap1\n      pop\n        /* \"#utility.yul\":378:491   */\n      jump(tag_128)\n    tag_130:\n        /* \"#utility.yul\":525:526   */\n      0x00\n        /* \"#utility.yul\":516:522   */\n      dup5\n        /* \"#utility.yul\":511:514   */\n      dup5\n        /* \"#utility.yul\":507:523   */\n      add\n        /* \"#utility.yul\":500:527   */\n      mstore\n        /* \"#utility.yul\":349:533   */\n      pop\n        /* \"#utility.yul\":287:533   */\n      pop\n      pop\n      pop\n      jump\t// out\n        /* \"#utility.yul\":539:641   */\n    tag_86:\n        /* \"#utility.yul\":580:586   */\n      0x00\n        /* \"#utility.yul\":631:633   */\n      0x1f\n        /* \"#utility.yul\":627:634   */\n      not\n        /* \"#utility.yul\":622:624   */\n      0x1f\n        /* \"#utility.yul\":615:620   */\n      dup4\n        /* \"#utility.yul\":611:625   */\n      add\n        /* \"#utility.yul\":607:635   */\n      and\n        /* \"#utility.yul\":597:635   */\n      swap1\n      pop\n        /* \"#utility.yul\":539:641   */\n      swap2\n      swap1\n      pop\n      jump\t// out\n        /* \"#utility.yul\":647:1024   */\n    tag_87:\n        /* \"#utility.yul\":735:738   */\n      0x00\n        /* \"#utility.yul\":763:802   */\n      tag_133\n        /* \"#utility.yul\":796:801   */\n      dup3\n        /* \"#utility.yul\":763:802   */\n      tag_83\n      jump\t// in\n    tag_133:\n        /* \"#utility.yul\":818:889   */\n      tag_134\n        /* \"#utility.yul\":882:888   */\n      dup2\n        /* \"#utility.yul\":877:880   */\n      dup6\n        /* \"#utility.yul\":818:889   */\n      tag_84\n      jump\t// in\n    tag_134:\n        /* \"#utility.yul\":811:889   */\n      swap4\n      pop\n        /* \"#utility.yul\":898:963   */\n      tag_135\n        /* \"#utility.yul\":956:962   */\n      dup2\n        /* \"#utility.yul\":951:954   */\n      dup6\n        /* \"#utility.yul\":944:948   */\n      0x20\n        /* \"#utility.yul\":937:942   */\n      dup7\n        /* \"#utility.yul\":933:949   */\n      add\n        /* \"#utility.yul\":898:963   */\n      tag_85\n      jump\t// in\n    tag_135:\n        /* \"#utility.yul\":988:1017   */\n      tag_136\n        /* \"#utility.yul\":1010:1016   */\n      dup2\n        /* \"#utility.yul\":988:1017   */\n      tag_86\n      jump\t// in\n    tag_136:\n        /* \"#utility.yul\":983:986   */\n      dup5\n        /* \"#utility.yul\":979:1018   */\n      add\n        /* \"#utility.yul\":972:1018   */\n      swap2\n      pop\n        /* \"#utility.yul\":739:1024   */\n      pop\n        /* \"#utility.yul\":647:1024   */\n      swap3\n      swap2\n      pop\n      pop\n      jump\t// out\n        /* \"#utility.yul\":1030:1107   */\n    tag_88:\n        /* \"#utility.yul\":1067:1074   */\n      0x00\n        /* \"#utility.yul\":1096:1101   */\n      dup2\n        /* \"#utility.yul\":1085:1101   */\n      swap1\n      pop\n        /* \"#utility.yul\":1030:1107   */\n      swap2\n      swap1\n      pop\n      jump\t// out\n        /* \"#utility.yul\":1113:1231   */\n    tag_89:\n        /* \"#utility.yul\":1200:1224   */\n      tag_139\n        /* \"#utility.yul\":1218:1223   */\n      dup2\n        /* \"#utility.yul\":1200:1224   */\n      tag_88\n      jump\t// in\n    tag_139:\n        /* \"#utility.yul\":1195:1198   */\n      dup3\n        /* \"#utility.yul\":1188:1225   */\n      mstore\n        /* \"#utility.yul\":1113:1231   */\n      pop\n      pop\n      jump\t// out\n        /* \"#utility.yul\":1237:1861   */\n    tag_12:\n        /* \"#utility.yul\":1426:1430   */\n      0x00\n        /* \"#utility.yul\":1464:1466   */\n      0x60\n        /* \"#utility.yul\":1453:1462   */\n      dup3\n        /* \"#utility.yul\":1449:1467   */\n      add\n        /* \"#utility.yul\":1441:1467   */\n      swap1\n      pop\n        /* \"#utility.yul\":1513:1522   */\n      dup2\n        /* \"#utility.yul\":1507:1511   */\n      dup2\n        /* \"#utility.yul\":1503:1523   */\n      sub\n        /* \"#utility.yul\":1499:1500   */\n      0x00\n        /* \"#utility.yul\":1488:1497   */\n      dup4\n        /* \"#utility.yul\":1484:1501   */\n      add\n        /* \"#utility.yul\":1477:1524   */\n      mstore\n        /* \"#utility.yul\":1541:1619   */\n      tag_141\n        /* \"#utility.yul\":1614:1618   */\n      dup2\n        /* \"#utility.yul\":1605:1611   */\n      dup7\n        /* \"#utility.yul\":1541:1619   */\n      tag_87\n      jump\t// in\n    tag_141:\n        /* \"#utility.yul\":1533:1619   */\n      swap1\n      pop\n        /* \"#utility.yul\":1629:1701   */\n      tag_142\n        /* \"#utility.yul\":1697:1699   */\n      0x20\n        /* \"#utility.yul\":1686:1695   */\n      dup4\n        /* \"#utility.yul\":1682:1700   */\n      add\n        /* \"#utility.yul\":1673:1679   */\n      dup6\n        /* \"#utility.yul\":1629:1701   */\n      tag_89\n      jump\t// in\n    tag_142:\n        /* \"#utility.yul\":1748:1757   */\n      dup2\n        /* \"#utility.yul\":1742:1746   */\n      dup2\n        /* \"#utility.yul\":1738:1758   */\n      sub\n        /* \"#utility.yul\":1733:1735   */\n      0x40\n        /* \"#utility.yul\":1722:1731   */\n      dup4\n        /* \"#utility.yul\":1718:1736   */\n      add\n        /* \"#utility.yul\":1711:1759   */\n      mstore\n        /* \"#utility.yul\":1776:1854   */\n      tag_143\n        /* \"#utility.yul\":1849:1853   */\n      dup2\n        /* \"#utility.yul\":1840:1846   */\n      dup5\n        /* \"#utility.yul\":1776:1854   */\n      tag_87\n      jump\t// in\n    tag_143:\n        /* \"#utility.yul\":1768:1854   */\n      swap1\n      pop\n        /* \"#utility.yul\":1237:1861   */\n      swap5\n      swap4\n      pop\n      pop\n      pop\n      pop\n      jump\t// out\n        /* \"#utility.yul\":1867:2026   */\n    tag_90:\n        /* \"#utility.yul\":1941:1952   */\n      0x00\n        /* \"#utility.yul\":1975:1981   */\n      dup3\n        /* \"#utility.yul\":1970:1973   */\n      dup3\n        /* \"#utility.yul\":1963:1982   */\n      mstore\n        /* \"#utility.yul\":2015:2019   */\n      0x20\n        /* \"#utility.yul\":2010:2013   */\n      dup3\n        /* \"#utility.yul\":2006:2020   */\n      add\n        /* \"#utility.yul\":1991:2020   */\n      swap1\n      pop\n        /* \"#utility.yul\":1867:2026   */\n      swap3\n      swap2\n      pop\n      pop\n      jump\t// out\n        /* \"#utility.yul\":2032:2389   */\n    tag_91:\n        /* \"#utility.yul\":2110:2113   */\n      0x00\n        /* \"#utility.yul\":2138:2177   */\n      tag_146\n        /* \"#utility.yul\":2171:2176   */\n      dup3\n        /* \"#utility.yul\":2138:2177   */\n      tag_83\n      jump\t// in\n    tag_146:\n        /* \"#utility.yul\":2193:2254   */\n      tag_147\n        /* \"#utility.yul\":2247:2253   */\n      dup2\n        /* \"#utility.yul\":2242:2245   */\n      dup6\n        /* \"#utility.yul\":2193:2254   */\n      tag_90\n      jump\t// in\n    tag_147:\n        /* \"#utility.yul\":2186:2254   */\n      swap4\n      pop\n        /* \"#utility.yul\":2263:2328   */\n      tag_148\n        /* \"#utility.yul\":2321:2327   */\n      dup2\n        /* \"#utility.yul\":2316:2319   */\n      dup6\n        /* \"#utility.yul\":2309:2313   */\n      0x20\n        /* \"#utility.yul\":2302:2307   */\n      dup7\n        /* \"#utility.yul\":2298:2314   */\n      add\n        /* \"#utility.yul\":2263:2328   */\n      tag_85\n      jump\t// in\n    tag_148:\n        /* \"#utility.yul\":2353:2382   */\n      tag_149\n        /* \"#utility.yul\":2375:2381   */\n      dup2\n        /* \"#utility.yul\":2353:2382   */\n      tag_86\n      jump\t// in\n    tag_149:\n        /* \"#utility.yul\":2348:2351   */\n      dup5\n        /* \"#utility.yul\":2344:2383   */\n      add\n        /* \"#utility.yul\":2337:2383   */\n      swap2\n      pop\n        /* \"#utility.yul\":2114:2389   */\n      pop\n        /* \"#utility.yul\":2032:2389   */\n      swap3\n      swap2\n      pop\n      pop\n      jump\t// out\n        /* \"#utility.yul\":2395:2503   */\n    tag_92:\n        /* \"#utility.yul\":2472:2496   */\n      tag_151\n        /* \"#utility.yul\":2490:2495   */\n      dup2\n        /* \"#utility.yul\":2472:2496   */\n      tag_88\n      jump\t// in\n    tag_151:\n        /* \"#utility.yul\":2467:2470   */\n      dup3\n        /* \"#utility.yul\":2460:2497   */\n      mstore\n        /* \"#utility.yul\":2395:2503   */\n      pop\n      pop\n      jump\t// out\n        /* \"#utility.yul\":2557:3396   */\n    tag_93:\n        /* \"#utility.yul\":2666:2669   */\n      0x00\n        /* \"#utility.yul\":2702:2706   */\n      0x60\n        /* \"#utility.yul\":2697:2700   */\n      dup4\n        /* \"#utility.yul\":2693:2707   */\n      add\n        /* \"#utility.yul\":2789:2793   */\n      0x00\n        /* \"#utility.yul\":2782:2787   */\n      dup4\n        /* \"#utility.yul\":2778:2794   */\n      add\n        /* \"#utility.yul\":2772:2795   */\n      mload\n        /* \"#utility.yul\":2842:2845   */\n      dup5\n        /* \"#utility.yul\":2836:2840   */\n      dup3\n        /* \"#utility.yul\":2832:2846   */\n      sub\n        /* \"#utility.yul\":2825:2829   */\n      0x00\n        /* \"#utility.yul\":2820:2823   */\n      dup7\n        /* \"#utility.yul\":2816:2830   */\n      add\n        /* \"#utility.yul\":2809:2847   */\n      mstore\n        /* \"#utility.yul\":2868:2941   */\n      tag_153\n        /* \"#utility.yul\":2936:2940   */\n      dup3\n        /* \"#utility.yul\":2922:2934   */\n      dup3\n        /* \"#utility.yul\":2868:2941   */\n      tag_91\n      jump\t// in\n    tag_153:\n        /* \"#utility.yul\":2860:2941   */\n      swap2\n      pop\n        /* \"#utility.yul\":2717:2952   */\n      pop\n        /* \"#utility.yul\":3033:3037   */\n      0x20\n        /* \"#utility.yul\":3026:3031   */\n      dup4\n        /* \"#utility.yul\":3022:3038   */\n      add\n        /* \"#utility.yul\":3016:3039   */\n      mload\n        /* \"#utility.yul\":3052:3115   */\n      tag_154\n        /* \"#utility.yul\":3109:3113   */\n      0x20\n        /* \"#utility.yul\":3104:3107   */\n      dup7\n        /* \"#utility.yul\":3100:3114   */\n      add\n        /* \"#utility.yul\":3086:3098   */\n      dup3\n        /* \"#utility.yul\":3052:3115   */\n      tag_92\n      jump\t// in\n    tag_154:\n        /* \"#utility.yul\":2962:3125   */\n      pop\n        /* \"#utility.yul\":3206:3210   */\n      0x40\n        /* \"#utility.yul\":3199:3204   */\n      dup4\n        /* \"#utility.yul\":3195:3211   */\n      add\n        /* \"#utility.yul\":3189:3212   */\n      mload\n        /* \"#utility.yul\":3259:3262   */\n      dup5\n        /* \"#utility.yul\":3253:3257   */\n      dup3\n        /* \"#utility.yul\":3249:3263   */\n      sub\n        /* \"#utility.yul\":3242:3246   */\n      0x40\n        /* \"#utility.yul\":3237:3240   */\n      dup7\n        /* \"#utility.yul\":3233:3247   */\n      add\n        /* \"#utility.yul\":3226:3264   */\n      mstore\n        /* \"#utility.yul\":3285:3358   */\n      tag_155\n        /* \"#utility.yul\":3353:3357   */\n      dup3\n        /* \"#utility.yul\":3339:3351   */\n      dup3\n        /* \"#utility.yul\":3285:3358   */\n      tag_91\n      jump\t// in\n    tag_155:\n        /* \"#utility.yul\":3277:3358   */\n      swap2\n      pop\n        /* \"#utility.yul\":3135:3369   */\n      pop\n        /* \"#utility.yul\":3386:3390   */\n      dup1\n        /* \"#utility.yul\":3379:3390   */\n      swap2\n      pop\n        /* \"#utility.yul\":2671:3396   */\n      pop\n        /* \"#utility.yul\":2557:3396   */\n      swap3\n      swap2\n      pop\n      pop\n      jump\t// out\n        /* \"#utility.yul\":3402:3755   */\n    tag_16:\n        /* \"#utility.yul\":3535:3539   */\n      0x00\n        /* \"#utility.yul\":3573:3575   */\n      0x20\n        /* \"#utility.yul\":3562:3571   */\n      dup3\n        /* \"#utility.yul\":3558:3576   */\n      add\n        /* \"#utility.yul\":3550:3576   */\n      swap1\n      pop\n        /* \"#utility.yul\":3622:3631   */\n      dup2\n        /* \"#utility.yul\":3616:3620   */\n      dup2\n        /* \"#utility.yul\":3612:3632   */\n      sub\n        /* \"#utility.yul\":3608:3609   */\n      0x00\n        /* \"#utility.yul\":3597:3606   */\n      dup4\n        /* \"#utility.yul\":3593:3610   */\n      add\n        /* \"#utility.yul\":3586:3633   */\n      mstore\n        /* \"#utility.yul\":3650:3748   */\n      tag_157\n        /* \"#utility.yul\":3743:3747   */\n      dup2\n        /* \"#utility.yul\":3734:3740   */\n      dup5\n        /* \"#utility.yul\":3650:3748   */\n      tag_93\n      jump\t// in\n    tag_157:\n        /* \"#utility.yul\":3642:3748   */\n      swap1\n      pop\n        /* \"#utility.yul\":3402:3755   */\n      swap3\n      swap2\n      pop\n      pop\n      jump\t// out\n        /* \"#utility.yul\":3761:3836   */\n    tag_94:\n        /* \"#utility.yul\":3794:3800   */\n      0x00\n        /* \"#utility.yul\":3827:3829   */\n      0x40\n        /* \"#utility.yul\":3821:3830   */\n      mload\n        /* \"#utility.yul\":3811:3830   */\n      swap1\n      pop\n        /* \"#utility.yul\":3761:3836   */\n      swap1\n      jump\t// out\n        /* \"#utility.yul\":3842:3959   */\n    tag_95:\n        /* \"#utility.yul\":3951:3952   */\n      0x00\n        /* \"#utility.yul\":3948:3949   */\n      dup1\n        /* \"#utility.yul\":3941:3953   */\n      revert\n        /* \"#utility.yul\":3965:4082   */\n    tag_96:\n        /* \"#utility.yul\":4074:4075   */\n      0x00\n        /* \"#utility.yul\":4071:4072   */\n      dup1\n        /* \"#utility.yul\":4064:4076   */\n      revert\n        /* \"#utility.yul\":4088:4205   */\n    tag_97:\n        /* \"#utility.yul\":4197:4198   */\n      0x00\n        /* \"#utility.yul\":4194:4195   */\n      dup1\n        /* \"#utility.yul\":4187:4199   */\n      revert\n        /* \"#utility.yul\":4211:4328   */\n    tag_98:\n        /* \"#utility.yul\":4320:4321   */\n      0x00\n        /* \"#utility.yul\":4317:4318   */\n      dup1\n        /* \"#utility.yul\":4310:4322   */\n      revert\n        /* \"#utility.yul\":4334:4514   */\n    tag_99:\n        /* \"#utility.yul\":4382:4459   */\n      0x4e487b7100000000000000000000000000000000000000000000000000000000\n        /* \"#utility.yul\":4379:4380   */\n      0x00\n        /* \"#utility.yul\":4372:4460   */\n      mstore\n        /* \"#utility.yul\":4479:4483   */\n      0x41\n        /* \"#utility.yul\":4476:4477   */\n      0x04\n        /* \"#utility.yul\":4469:4484   */\n      mstore\n        /* \"#utility.yul\":4503:4507   */\n      0x24\n        /* \"#utility.yul\":4500:4501   */\n      0x00\n        /* \"#utility.yul\":4493:4508   */\n      revert\n        /* \"#utility.yul\":4520:4801   */\n    tag_100:\n        /* \"#utility.yul\":4603:4630   */\n      tag_165\n        /* \"#utility.yul\":4625:4629   */\n      dup3\n        /* \"#utility.yul\":4603:4630   */\n      tag_86\n      jump\t// in\n    tag_165:\n        /* \"#utility.yul\":4595:4601   */\n      dup2\n        /* \"#utility.yul\":4591:4631   */\n      add\n        /* \"#utility.yul\":4733:4739   */\n      dup2\n        /* \"#utility.yul\":4721:4731   */\n      dup2\n        /* \"#utility.yul\":4718:4740   */\n      lt\n        /* \"#utility.yul\":4697:4715   */\n      0xffffffffffffffff\n        /* \"#utility.yul\":4685:4695   */\n      dup3\n        /* \"#utility.yul\":4682:4716   */\n      gt\n        /* \"#utility.yul\":4679:4741   */\n      or\n        /* \"#utility.yul\":4676:4764   */\n      iszero\n      tag_166\n      jumpi\n        /* \"#utility.yul\":4744:4762   */\n      tag_167\n      tag_99\n      jump\t// in\n    tag_167:\n        /* \"#utility.yul\":4676:4764   */\n    tag_166:\n        /* \"#utility.yul\":4784:4794   */\n      dup1\n        /* \"#utility.yul\":4780:4782   */\n      0x40\n        /* \"#utility.yul\":4773:4795   */\n      mstore\n        /* \"#utility.yul\":4563:4801   */\n      pop\n        /* \"#utility.yul\":4520:4801   */\n      pop\n      pop\n      jump\t// out\n        /* \"#utility.yul\":4807:4936   */\n    tag_101:\n        /* \"#utility.yul\":4841:4847   */\n      0x00\n        /* \"#utility.yul\":4868:4888   */\n      tag_169\n      tag_94\n      jump\t// in\n    tag_169:\n        /* \"#utility.yul\":4858:4888   */\n      swap1\n      pop\n        /* \"#utility.yul\":4897:4930   */\n      tag_170\n        /* \"#utility.yul\":4925:4929   */\n      dup3\n        /* \"#utility.yul\":4917:4923   */\n      dup3\n        /* \"#utility.yul\":4897:4930   */\n      tag_100\n      jump\t// in\n    tag_170:\n        /* \"#utility.yul\":4807:4936   */\n      swap2\n      swap1\n      pop\n      jump\t// out\n        /* \"#utility.yul\":4942:5250   */\n    tag_102:\n        /* \"#utility.yul\":5004:5008   */\n      0x00\n        /* \"#utility.yul\":5094:5112   */\n      0xffffffffffffffff\n        /* \"#utility.yul\":5086:5092   */\n      dup3\n        /* \"#utility.yul\":5083:5113   */\n      gt\n        /* \"#utility.yul\":5080:5136   */\n      iszero\n      tag_172\n      jumpi\n        /* \"#utility.yul\":5116:5134   */\n      tag_173\n      tag_99\n      jump\t// in\n    tag_173:\n        /* \"#utility.yul\":5080:5136   */\n    tag_172:\n        /* \"#utility.yul\":5154:5183   */\n      tag_174\n        /* \"#utility.yul\":5176:5182   */\n      dup3\n        /* \"#utility.yul\":5154:5183   */\n      tag_86\n      jump\t// in\n    tag_174:\n        /* \"#utility.yul\":5146:5183   */\n      swap1\n      pop\n        /* \"#utility.yul\":5238:5242   */\n      0x20\n        /* \"#utility.yul\":5232:5236   */\n      dup2\n        /* \"#utility.yul\":5228:5243   */\n      add\n        /* \"#utility.yul\":5220:5243   */\n      swap1\n      pop\n        /* \"#utility.yul\":4942:5250   */\n      swap2\n      swap1\n      pop\n      jump\t// out\n        /* \"#utility.yul\":5256:5402   */\n    tag_103:\n        /* \"#utility.yul\":5353:5359   */\n      dup3\n        /* \"#utility.yul\":5348:5351   */\n      dup2\n        /* \"#utility.yul\":5343:5346   */\n      dup4\n        /* \"#utility.yul\":5330:5360   */\n      calldatacopy\n        /* \"#utility.yul\":5394:5395   */\n      0x00\n        /* \"#utility.yul\":5385:5391   */\n      dup4\n        /* \"#utility.yul\":5380:5383   */\n      dup4\n        /* \"#utility.yul\":5376:5392   */\n      add\n        /* \"#utility.yul\":5369:5396   */\n      mstore\n        /* \"#utility.yul\":5256:5402   */\n      pop\n      pop\n      pop\n      jump\t// out\n        /* \"#utility.yul\":5408:5833   */\n    tag_104:\n        /* \"#utility.yul\":5486:5491   */\n      0x00\n        /* \"#utility.yul\":5511:5577   */\n      tag_177\n        /* \"#utility.yul\":5527:5576   */\n      tag_178\n        /* \"#utility.yul\":5569:5575   */\n      dup5\n        /* \"#utility.yul\":5527:5576   */\n      tag_102\n      jump\t// in\n    tag_178:\n        /* \"#utility.yul\":5511:5577   */\n      tag_101\n      jump\t// in\n    tag_177:\n        /* \"#utility.yul\":5502:5577   */\n      swap1\n      pop\n        /* \"#utility.yul\":5600:5606   */\n      dup3\n        /* \"#utility.yul\":5593:5598   */\n      dup2\n        /* \"#utility.yul\":5586:5607   */\n      mstore\n        /* \"#utility.yul\":5638:5642   */\n      0x20\n        /* \"#utility.yul\":5631:5636   */\n      dup2\n        /* \"#utility.yul\":5627:5643   */\n      add\n        /* \"#utility.yul\":5676:5679   */\n      dup5\n        /* \"#utility.yul\":5667:5673   */\n      dup5\n        /* \"#utility.yul\":5662:5665   */\n      dup5\n        /* \"#utility.yul\":5658:5674   */\n      add\n        /* \"#utility.yul\":5655:5680   */\n      gt\n        /* \"#utility.yul\":5652:5764   */\n      iszero\n      tag_179\n      jumpi\n        /* \"#utility.yul\":5683:5762   */\n      tag_180\n      tag_98\n      jump\t// in\n    tag_180:\n        /* \"#utility.yul\":5652:5764   */\n    tag_179:\n        /* \"#utility.yul\":5773:5827   */\n      tag_181\n        /* \"#utility.yul\":5820:5826   */\n      dup5\n        /* \"#utility.yul\":5815:5818   */\n      dup3\n        /* \"#utility.yul\":5810:5813   */\n      dup6\n        /* \"#utility.yul\":5773:5827   */\n      tag_103\n      jump\t// in\n    tag_181:\n        /* \"#utility.yul\":5492:5833   */\n      pop\n        /* \"#utility.yul\":5408:5833   */\n      swap4\n      swap3\n      pop\n      pop\n      pop\n      jump\t// out\n        /* \"#utility.yul\":5853:6193   */\n    tag_105:\n        /* \"#utility.yul\":5909:5914   */\n      0x00\n        /* \"#utility.yul\":5958:5961   */\n      dup3\n        /* \"#utility.yul\":5951:5955   */\n      0x1f\n        /* \"#utility.yul\":5943:5949   */\n      dup4\n        /* \"#utility.yul\":5939:5956   */\n      add\n        /* \"#utility.yul\":5935:5962   */\n      slt\n        /* \"#utility.yul\":5925:6047   */\n      tag_183\n      jumpi\n        /* \"#utility.yul\":5966:6045   */\n      tag_184\n      tag_97\n      jump\t// in\n    tag_184:\n        /* \"#utility.yul\":5925:6047   */\n    tag_183:\n        /* \"#utility.yul\":6083:6089   */\n      dup2\n        /* \"#utility.yul\":6070:6090   */\n      calldataload\n        /* \"#utility.yul\":6108:6187   */\n      tag_185\n        /* \"#utility.yul\":6183:6186   */\n      dup5\n        /* \"#utility.yul\":6175:6181   */\n      dup3\n        /* \"#utility.yul\":6168:6172   */\n      0x20\n        /* \"#utility.yul\":6160:6166   */\n      dup7\n        /* \"#utility.yul\":6156:6173   */\n      add\n        /* \"#utility.yul\":6108:6187   */\n      tag_104\n      jump\t// in\n    tag_185:\n        /* \"#utility.yul\":6099:6187   */\n      swap2\n      pop\n        /* \"#utility.yul\":5915:6193   */\n      pop\n        /* \"#utility.yul\":5853:6193   */\n      swap3\n      swap2\n      pop\n      pop\n      jump\t// out\n        /* \"#utility.yul\":6199:6708   */\n    tag_25:\n        /* \"#utility.yul\":6268:6274   */\n      0x00\n        /* \"#utility.yul\":6317:6319   */\n      0x20\n        /* \"#utility.yul\":6305:6314   */\n      dup3\n        /* \"#utility.yul\":6296:6303   */\n      dup5\n        /* \"#utility.yul\":6292:6315   */\n      sub\n        /* \"#utility.yul\":6288:6320   */\n      slt\n        /* \"#utility.yul\":6285:6404   */\n      iszero\n      tag_187\n      jumpi\n        /* \"#utility.yul\":6323:6402   */\n      tag_188\n      tag_95\n      jump\t// in\n    tag_188:\n        /* \"#utility.yul\":6285:6404   */\n    tag_187:\n        /* \"#utility.yul\":6471:6472   */\n      0x00\n        /* \"#utility.yul\":6460:6469   */\n      dup3\n        /* \"#utility.yul\":6456:6473   */\n      add\n        /* \"#utility.yul\":6443:6474   */\n      calldataload\n        /* \"#utility.yul\":6501:6519   */\n      0xffffffffffffffff\n        /* \"#utility.yul\":6493:6499   */\n      dup2\n        /* \"#utility.yul\":6490:6520   */\n      gt\n        /* \"#utility.yul\":6487:6604   */\n      iszero\n      tag_189\n      jumpi\n        /* \"#utility.yul\":6523:6602   */\n      tag_190\n      tag_96\n      jump\t// in\n    tag_190:\n        /* \"#utility.yul\":6487:6604   */\n    tag_189:\n        /* \"#utility.yul\":6628:6691   */\n      tag_191\n        /* \"#utility.yul\":6683:6690   */\n      dup5\n        /* \"#utility.yul\":6674:6680   */\n      dup3\n        /* \"#utility.yul\":6663:6672   */\n      dup6\n        /* \"#utility.yul\":6659:6681   */\n      add\n        /* \"#utility.yul\":6628:6691   */\n      tag_105\n      jump\t// in\n    tag_191:\n        /* \"#utility.yul\":6618:6691   */\n      swap2\n      pop\n        /* \"#utility.yul\":6414:6701   */\n      pop\n        /* \"#utility.yul\":6199:6708   */\n      swap3\n      swap2\n      pop\n      pop\n      jump\t// out\n        /* \"#utility.yul\":6714:6836   */\n    tag_106:\n        /* \"#utility.yul\":6787:6811   */\n      tag_193\n        /* \"#utility.yul\":6805:6810   */\n      dup2\n        /* \"#utility.yul\":6787:6811   */\n      tag_88\n      jump\t// in\n    tag_193:\n        /* \"#utility.yul\":6780:6785   */\n      dup2\n        /* \"#utility.yul\":6777:6812   */\n      eq\n        /* \"#utility.yul\":6767:6830   */\n      tag_194\n      jumpi\n        /* \"#utility.yul\":6826:6827   */\n      0x00\n        /* \"#utility.yul\":6823:6824   */\n      dup1\n        /* \"#utility.yul\":6816:6828   */\n      revert\n        /* \"#utility.yul\":6767:6830   */\n    tag_194:\n        /* \"#utility.yul\":6714:6836   */\n      pop\n      jump\t// out\n        /* \"#utility.yul\":6842:6981   */\n    tag_107:\n        /* \"#utility.yul\":6888:6893   */\n      0x00\n        /* \"#utility.yul\":6926:6932   */\n      dup2\n        /* \"#utility.yul\":6913:6933   */\n      calldataload\n        /* \"#utility.yul\":6904:6933   */\n      swap1\n      pop\n        /* \"#utility.yul\":6942:6975   */\n      tag_196\n        /* \"#utility.yul\":6969:6974   */\n      dup2\n        /* \"#utility.yul\":6942:6975   */\n      tag_106\n      jump\t// in\n    tag_196:\n        /* \"#utility.yul\":6842:6981   */\n      swap3\n      swap2\n      pop\n      pop\n      jump\t// out\n        /* \"#utility.yul\":6987:7966   */\n    tag_29:\n        /* \"#utility.yul\":7084:7090   */\n      0x00\n        /* \"#utility.yul\":7092:7098   */\n      dup1\n        /* \"#utility.yul\":7100:7106   */\n      0x00\n        /* \"#utility.yul\":7149:7151   */\n      0x60\n        /* \"#utility.yul\":7137:7146   */\n      dup5\n        /* \"#utility.yul\":7128:7135   */\n      dup7\n        /* \"#utility.yul\":7124:7147   */\n      sub\n        /* \"#utility.yul\":7120:7152   */\n      slt\n        /* \"#utility.yul\":7117:7236   */\n      iszero\n      tag_198\n      jumpi\n        /* \"#utility.yul\":7155:7234   */\n      tag_199\n      tag_95\n      jump\t// in\n    tag_199:\n        /* \"#utility.yul\":7117:7236   */\n    tag_198:\n        /* \"#utility.yul\":7303:7304   */\n      0x00\n        /* \"#utility.yul\":7292:7301   */\n      dup5\n        /* \"#utility.yul\":7288:7305   */\n      add\n        /* \"#utility.yul\":7275:7306   */\n      calldataload\n        /* \"#utility.yul\":7333:7351   */\n      0xffffffffffffffff\n        /* \"#utility.yul\":7325:7331   */\n      dup2\n        /* \"#utility.yul\":7322:7352   */\n      gt\n        /* \"#utility.yul\":7319:7436   */\n      iszero\n      tag_200\n      jumpi\n        /* \"#utility.yul\":7355:7434   */\n      tag_201\n      tag_96\n      jump\t// in\n    tag_201:\n        /* \"#utility.yul\":7319:7436   */\n    tag_200:\n        /* \"#utility.yul\":7460:7523   */\n      tag_202\n        /* \"#utility.yul\":7515:7522   */\n      dup7\n        /* \"#utility.yul\":7506:7512   */\n      dup3\n        /* \"#utility.yul\":7495:7504   */\n      dup8\n        /* \"#utility.yul\":7491:7513   */\n      add\n        /* \"#utility.yul\":7460:7523   */\n      tag_105\n      jump\t// in\n    tag_202:\n        /* \"#utility.yul\":7450:7523   */\n      swap4\n      pop\n        /* \"#utility.yul\":7246:7533   */\n      pop\n        /* \"#utility.yul\":7572:7574   */\n      0x20\n        /* \"#utility.yul\":7598:7651   */\n      tag_203\n        /* \"#utility.yul\":7643:7650   */\n      dup7\n        /* \"#utility.yul\":7634:7640   */\n      dup3\n        /* \"#utility.yul\":7623:7632   */\n      dup8\n        /* \"#utility.yul\":7619:7641   */\n      add\n        /* \"#utility.yul\":7598:7651   */\n      tag_107\n      jump\t// in\n    tag_203:\n        /* \"#utility.yul\":7588:7651   */\n      swap3\n      pop\n        /* \"#utility.yul\":7543:7661   */\n      pop\n        /* \"#utility.yul\":7728:7730   */\n      0x40\n        /* \"#utility.yul\":7717:7726   */\n      dup5\n        /* \"#utility.yul\":7713:7731   */\n      add\n        /* \"#utility.yul\":7700:7732   */\n      calldataload\n        /* \"#utility.yul\":7759:7777   */\n      0xffffffffffffffff\n        /* \"#utility.yul\":7751:7757   */\n      dup2\n        /* \"#utility.yul\":7748:7778   */\n      gt\n        /* \"#utility.yul\":7745:7862   */\n      iszero\n      tag_204\n      jumpi\n        /* \"#utility.yul\":7781:7860   */\n      tag_205\n      tag_96\n      jump\t// in\n    tag_205:\n        /* \"#utility.yul\":7745:7862   */\n    tag_204:\n        /* \"#utility.yul\":7886:7949   */\n      tag_206\n        /* \"#utility.yul\":7941:7948   */\n      dup7\n        /* \"#utility.yul\":7932:7938   */\n      dup3\n        /* \"#utility.yul\":7921:7930   */\n      dup8\n        /* \"#utility.yul\":7917:7939   */\n      add\n        /* \"#utility.yul\":7886:7949   */\n      tag_105\n      jump\t// in\n    tag_206:\n        /* \"#utility.yul\":7876:7949   */\n      swap2\n      pop\n        /* \"#utility.yul\":7671:7959   */\n      pop\n        /* \"#utility.yul\":6987:7966   */\n      swap3\n      pop\n      swap3\n      pop\n      swap3\n      jump\t// out\n        /* \"#utility.yul\":7972:8152   */\n    tag_108:\n        /* \"#utility.yul\":8020:8097   */\n      0x4e487b7100000000000000000000000000000000000000000000000000000000\n        /* \"#utility.yul\":8017:8018   */\n      0x00\n        /* \"#utility.yul\":8010:8098   */\n      mstore\n        /* \"#utility.yul\":8117:8121   */\n      0x22\n        /* \"#utility.yul\":8114:8115   */\n      0x04\n        /* \"#utility.yul\":8107:8122   */\n      mstore\n        /* \"#utility.yul\":8141:8145   */\n      0x24\n        /* \"#utility.yul\":8138:8139   */\n      0x00\n        /* \"#utility.yul\":8131:8146   */\n      revert\n        /* \"#utility.yul\":8158:8478   */\n    tag_32:\n        /* \"#utility.yul\":8202:8208   */\n      0x00\n        /* \"#utility.yul\":8239:8240   */\n      0x02\n        /* \"#utility.yul\":8233:8237   */\n      dup3\n        /* \"#utility.yul\":8229:8241   */\n      div\n        /* \"#utility.yul\":8219:8241   */\n      swap1\n      pop\n        /* \"#utility.yul\":8286:8287   */\n      0x01\n        /* \"#utility.yul\":8280:8284   */\n      dup3\n        /* \"#utility.yul\":8276:8288   */\n      and\n        /* \"#utility.yul\":8307:8325   */\n      dup1\n        /* \"#utility.yul\":8297:8378   */\n      tag_209\n      jumpi\n        /* \"#utility.yul\":8363:8367   */\n      0x7f\n        /* \"#utility.yul\":8355:8361   */\n      dup3\n        /* \"#utility.yul\":8351:8368   */\n      and\n        /* \"#utility.yul\":8341:8368   */\n      swap2\n      pop\n        /* \"#utility.yul\":8297:8378   */\n    tag_209:\n        /* \"#utility.yul\":8425:8427   */\n      0x20\n        /* \"#utility.yul\":8417:8423   */\n      dup3\n        /* \"#utility.yul\":8414:8428   */\n      lt\n        /* \"#utility.yul\":8394:8412   */\n      dup2\n        /* \"#utility.yul\":8391:8429   */\n      sub\n        /* \"#utility.yul\":8388:8472   */\n      tag_210\n      jumpi\n        /* \"#utility.yul\":8444:8462   */\n      tag_211\n      tag_108\n      jump\t// in\n    tag_211:\n        /* \"#utility.yul\":8388:8472   */\n    tag_210:\n        /* \"#utility.yul\":8209:8478   */\n      pop\n        /* \"#utility.yul\":8158:8478   */\n      swap2\n      swap1\n      pop\n      jump\t// out\n        /* \"#utility.yul\":8484:8625   */\n    tag_109:\n        /* \"#utility.yul\":8533:8537   */\n      0x00\n        /* \"#utility.yul\":8556:8559   */\n      dup2\n        /* \"#utility.yul\":8548:8559   */\n      swap1\n      pop\n        /* \"#utility.yul\":8579:8582   */\n      dup2\n        /* \"#utility.yul\":8576:8577   */\n      0x00\n        /* \"#utility.yul\":8569:8583   */\n      mstore\n        /* \"#utility.yul\":8613:8617   */\n      0x20\n        /* \"#utility.yul\":8610:8611   */\n      0x00\n        /* \"#utility.yul\":8600:8618   */\n      keccak256\n        /* \"#utility.yul\":8592:8618   */\n      swap1\n      pop\n        /* \"#utility.yul\":8484:8625   */\n      swap2\n      swap1\n      pop\n      jump\t// out\n        /* \"#utility.yul\":8631:8724   */\n    tag_110:\n        /* \"#utility.yul\":8668:8674   */\n      0x00\n        /* \"#utility.yul\":8715:8717   */\n      0x20\n        /* \"#utility.yul\":8710:8712   */\n      0x1f\n        /* \"#utility.yul\":8703:8708   */\n      dup4\n        /* \"#utility.yul\":8699:8713   */\n      add\n        /* \"#utility.yul\":8695:8718   */\n      div\n        /* \"#utility.yul\":8685:8718   */\n      swap1\n      pop\n        /* \"#utility.yul\":8631:8724   */\n      swap2\n      swap1\n      pop\n      jump\t// out\n        /* \"#utility.yul\":8730:8837   */\n    tag_111:\n        /* \"#utility.yul\":8774:8782   */\n      0x00\n        /* \"#utility.yul\":8824:8829   */\n      dup3\n        /* \"#utility.yul\":8818:8822   */\n      dup3\n        /* \"#utility.yul\":8814:8830   */\n      shl\n        /* \"#utility.yul\":8793:8830   */\n      swap1\n      pop\n        /* \"#utility.yul\":8730:8837   */\n      swap3\n      swap2\n      pop\n      pop\n      jump\t// out\n        /* \"#utility.yul\":8843:9236   */\n    tag_112:\n        /* \"#utility.yul\":8912:8918   */\n      0x00\n        /* \"#utility.yul\":8962:8963   */\n      0x08\n        /* \"#utility.yul\":8950:8960   */\n      dup4\n        /* \"#utility.yul\":8946:8964   */\n      mul\n        /* \"#utility.yul\":8985:9082   */\n      tag_216\n        /* \"#utility.yul\":9015:9081   */\n      0xffffffffffffffffffffffffffffffffffffffffffffffffffffffffffffffff\n        /* \"#utility.yul\":9004:9013   */\n      dup3\n        /* \"#utility.yul\":8985:9082   */\n      tag_111\n      jump\t// in\n    tag_216:\n        /* \"#utility.yul\":9103:9142   */\n      tag_217\n        /* \"#utility.yul\":9133:9141   */\n      dup7\n        /* \"#utility.yul\":9122:9131   */\n      dup4\n        /* \"#utility.yul\":9103:9142   */\n      tag_111\n      jump\t// in\n    tag_217:\n        /* \"#utility.yul\":9091:9142   */\n      swap6\n      pop\n        /* \"#utility.yul\":9175:9179   */\n      dup1\n        /* \"#utility.yul\":9171:9180   */\n      not\n        /* \"#utility.yul\":9164:9169   */\n      dup5\n        /* \"#utility.yul\":9160:9181   */\n      and\n        /* \"#utility.yul\":9151:9181   */\n      swap4\n      pop\n        /* \"#utility.yul\":9224:9228   */\n      dup1\n        /* \"#utility.yul\":9214:9222   */\n      dup7\n        /* \"#utility.yul\":9210:9229   */\n      and\n        /* \"#utility.yul\":9203:9208   */\n      dup5\n        /* \"#utility.yul\":9200:9230   */\n      or\n        /* \"#utility.yul\":9190:9230   */\n      swap3\n      pop\n        /* \"#utility.yul\":8919:9236   */\n      pop\n      pop\n        /* \"#utility.yul\":8843:9236   */\n      swap4\n      swap3\n      pop\n      pop\n      pop\n      jump\t// out\n        /* \"#utility.yul\":9242:9302   */\n    tag_113:\n        /* \"#utility.yul\":9270:9273   */\n      0x00\n        /* \"#utility.yul\":9291:9296   */\n      dup2\n        /* \"#utility.yul\":9284:9296   */\n      swap1\n      pop\n        /* \"#utility.yul\":9242:9302   */\n      swap2\n      swap1\n      pop\n      jump\t// out\n        /* \"#utility.yul\":9308:9450   */\n    tag_114:\n        /* \"#utility.yul\":9358:9367   */\n      0x00\n        /* \"#utility.yul\":9391:9444   */\n      tag_220\n        /* \"#utility.yul\":9409:9443   */\n      tag_221\n        /* \"#utility.yul\":9418:9442   */\n      tag_222\n        /* \"#utility.yul\":9436:9441   */\n      dup5\n        /* \"#utility.yul\":9418:9442   */\n      tag_88\n      jump\t// in\n    tag_222:\n        /* \"#utility.yul\":9409:9443   */\n      tag_113\n      jump\t// in\n    tag_221:\n        /* \"#utility.yul\":9391:9444   */\n      tag_88\n      jump\t// in\n    tag_220:\n        /* \"#utility.yul\":9378:9444   */\n      swap1\n      pop\n        /* \"#utility.yul\":9308:9450   */\n      swap2\n      swap1\n      pop\n      jump\t// out\n        /* \"#utility.yul\":9456:9531   */\n    tag_115:\n        /* \"#utility.yul\":9499:9502   */\n      0x00\n        /* \"#utility.yul\":9520:9525   */\n      dup2\n        /* \"#utility.yul\":9513:9525   */\n      swap1\n      pop\n        /* \"#utility.yul\":9456:9531   */\n      swap2\n      swap1\n      pop\n      jump\t// out\n        /* \"#utility.yul\":9537:9806   */\n    tag_116:\n        /* \"#utility.yul\":9647:9686   */\n      tag_225\n        /* \"#utility.yul\":9678:9685   */\n      dup4\n        /* \"#utility.yul\":9647:9686   */\n      tag_114\n      jump\t// in\n    tag_225:\n        /* \"#utility.yul\":9708:9799   */\n      tag_226\n        /* \"#utility.yul\":9757:9798   */\n      tag_227\n        /* \"#utility.yul\":9781:9797   */\n      dup3\n        /* \"#utility.yul\":9757:9798   */\n      tag_115\n      jump\t// in\n    tag_227:\n        /* \"#utility.yul\":9749:9755   */\n      dup5\n        /* \"#utility.yul\":9742:9746   */\n      dup5\n        /* \"#utility.yul\":9736:9747   */\n      sload\n        /* \"#utility.yul\":9708:9799   */\n      tag_112\n      jump\t// in\n    tag_226:\n        /* \"#utility.yul\":9702:9706   */\n      dup3\n        /* \"#utility.yul\":9695:9800   */\n      sstore\n        /* \"#utility.yul\":9613:9806   */\n      pop\n        /* \"#utility.yul\":9537:9806   */\n      pop\n      pop\n      pop\n      jump\t// out\n        /* \"#utility.yul\":9812:9885   */\n    tag_117:\n        /* \"#utility.yul\":9857:9860   */\n      0x00\n        /* \"#utility.yul\":9812:9885   */\n      swap1\n      jump\t// out\n        /* \"#utility.yul\":9891:10080   */\n    tag_118:\n        /* \"#utility.yul\":9968:10000   */\n      tag_230\n      tag_117\n      jump\t// in\n    tag_230:\n        /* \"#utility.yul\":10009:10074   */\n      tag_231\n        /* \"#utility.yul\":10067:10073   */\n      dup2\n        /* \"#utility.yul\":10059:10065   */\n      dup5\n        /* \"#utility.yul\":10053:10057   */\n      dup5\n        /* \"#utility.yul\":10009:10074   */\n      tag_116\n      jump\t// in\n    tag_231:\n        /* \"#utility.yul\":9944:10080   */\n      pop\n        /* \"#utility.yul\":9891:10080   */\n      pop\n      pop\n      jump\t// out\n        /* \"#utility.yul\":10086:10272   */\n    tag_119:\n        /* \"#utility.yul\":10146:10266   */\n    tag_233:\n        /* \"#utility.yul\":10163:10166   */\n      dup2\n        /* \"#utility.yul\":10156:10161   */\n      dup2\n        /* \"#utility.yul\":10153:10167   */\n      lt\n        /* \"#utility.yul\":10146:10266   */\n      iszero\n      tag_235\n      jumpi\n        /* \"#utility.yul\":10217:10256   */\n      tag_236\n        /* \"#utility.yul\":10254:10255   */\n      0x00\n        /* \"#utility.yul\":10247:10252   */\n      dup3\n        /* \"#utility.yul\":10217:10256   */\n      tag_118\n      jump\t// in\n    tag_236:\n        /* \"#utility.yul\":10190:10191   */\n      0x01\n        /* \"#utility.yul\":10183:10188   */\n      dup2\n        /* \"#utility.yul\":10179:10192   */\n      add\n        /* \"#utility.yul\":10170:10192   */\n      swap1\n      pop\n        /* \"#utility.yul\":10146:10266   */\n      jump(tag_233)\n    tag_235:\n        /* \"#utility.yul\":10086:10272   */\n      pop\n      pop\n      jump\t// out\n        /* \"#utility.yul\":10278:10821   */\n    tag_120:\n        /* \"#utility.yul\":10379:10381   */\n      0x1f\n        /* \"#utility.yul\":10374:10377   */\n      dup3\n        /* \"#utility.yul\":10371:10382   */\n      gt\n        /* \"#utility.yul\":10368:10814   */\n      iszero\n      tag_238\n      jumpi\n        /* \"#utility.yul\":10413:10451   */\n      tag_239\n        /* \"#utility.yul\":10445:10450   */\n      dup2\n        /* \"#utility.yul\":10413:10451   */\n      tag_109\n      jump\t// in\n    tag_239:\n        /* \"#utility.yul\":10497:10526   */\n      tag_240\n        /* \"#utility.yul\":10515:10525   */\n      dup5\n        /* \"#utility.yul\":10497:10526   */\n      tag_110\n      jump\t// in\n    tag_240:\n        /* \"#utility.yul\":10487:10495   */\n      dup2\n        /* \"#utility.yul\":10483:10527   */\n      add\n        /* \"#utility.yul\":10680:10682   */\n      0x20\n        /* \"#utility.yul\":10668:10678   */\n      dup6\n        /* \"#utility.yul\":10665:10683   */\n      lt\n        /* \"#utility.yul\":10662:10711   */\n      iszero\n      tag_241\n      jumpi\n        /* \"#utility.yul\":10701:10709   */\n      dup2\n        /* \"#utility.yul\":10686:10709   */\n      swap1\n      pop\n        /* \"#utility.yul\":10662:10711   */\n    tag_241:\n        /* \"#utility.yul\":10724:10804   */\n      tag_242\n        /* \"#utility.yul\":10780:10802   */\n      tag_243\n        /* \"#utility.yul\":10798:10801   */\n      dup6\n        /* \"#utility.yul\":10780:10802   */\n      tag_110\n      jump\t// in\n    tag_243:\n        /* \"#utility.yul\":10770:10778   */\n      dup4\n        /* \"#utility.yul\":10766:10803   */\n      add\n        /* \"#utility.yul\":10753:10764   */\n      dup3\n        /* \"#utility.yul\":10724:10804   */\n      tag_119\n      jump\t// in\n    tag_242:\n        /* \"#utility.yul\":10383:10814   */\n      pop\n      pop\n        /* \"#utility.yul\":10368:10814   */\n    tag_238:\n        /* \"#utility.yul\":10278:10821   */\n      pop\n      pop\n      pop\n      jump\t// out\n        /* \"#utility.yul\":10827:10944   */\n    tag_121:\n        /* \"#utility.yul\":10881:10889   */\n      0x00\n        /* \"#utility.yul\":10931:10936   */\n      dup3\n        /* \"#utility.yul\":10925:10929   */\n      dup3\n        /* \"#utility.yul\":10921:10937   */\n      shr\n        /* \"#utility.yul\":10900:10937   */\n      swap1\n      pop\n        /* \"#utility.yul\":10827:10944   */\n      swap3\n      swap2\n      pop\n      pop\n      jump\t// out\n        /* \"#utility.yul\":10950:11119   */\n    tag_122:\n        /* \"#utility.yul\":10994:11000   */\n      0x00\n        /* \"#utility.yul\":11027:11078   */\n      tag_246\n        /* \"#utility.yul\":11075:11076   */\n      0x00\n        /* \"#utility.yul\":11071:11077   */\n      not\n        /* \"#utility.yul\":11063:11068   */\n      dup5\n        /* \"#utility.yul\":11060:11061   */\n      0x08\n        /* \"#utility.yul\":11056:11069   */\n      mul\n        /* \"#utility.yul\":11027:11078   */\n      tag_121\n      jump\t// in\n    tag_246:\n        /* \"#utility.yul\":11023:11079   */\n      not\n        /* \"#utility.yul\":11108:11112   */\n      dup1\n        /* \"#utility.yul\":11102:11106   */\n      dup4\n        /* \"#utility.yul\":11098:11113   */\n      and\n        /* \"#utility.yul\":11088:11113   */\n      swap2\n      pop\n        /* \"#utility.yul\":11001:11119   */\n      pop\n        /* \"#utility.yul\":10950:11119   */\n      swap3\n      swap2\n      pop\n      pop\n      jump\t// out\n        /* \"#utility.yul\":11124:11419   */\n    tag_123:\n        /* \"#utility.yul\":11200:11204   */\n      0x00\n        /* \"#utility.yul\":11346:11375   */\n      tag_248\n        /* \"#utility.yul\":11371:11374   */\n      dup4\n        /* \"#utility.yul\":11365:11369   */\n      dup4\n        /* \"#utility.yul\":11346:11375   */\n      tag_122\n      jump\t// in\n    tag_248:\n        /* \"#utility.yul\":11338:11375   */\n      swap2\n      pop\n        /* \"#utility.yul\":11408:11411   */\n      dup3\n        /* \"#utility.yul\":11405:11406   */\n      0x02\n        /* \"#utility.yul\":11401:11412   */\n      mul\n        /* \"#utility.yul\":11395:11399   */\n      dup3\n        /* \"#utility.yul\":11392:11413   */\n      or\n        /* \"#utility.yul\":11384:11413   */\n      swap1\n      pop\n        /* \"#utility.yul\":11124:11419   */\n      swap3\n      swap2\n      pop\n      pop\n      jump\t// out\n        /* \"#utility.yul\":11424:12819   */\n    tag_79:\n        /* \"#utility.yul\":11541:11578   */\n      tag_250\n        /* \"#utility.yul\":11574:11577   */\n      dup3\n        /* \"#utility.yul\":11541:11578   */\n      tag_83\n      jump\t// in\n    tag_250:\n        /* \"#utility.yul\":11643:11661   */\n      0xffffffffffffffff\n        /* \"#utility.yul\":11635:11641   */\n      dup2\n        /* \"#utility.yul\":11632:11662   */\n      gt\n        /* \"#utility.yul\":11629:11685   */\n      iszero\n      tag_251\n      jumpi\n        /* \"#utility.yul\":11665:11683   */\n      tag_252\n      tag_99\n      jump\t// in\n    tag_252:\n        /* \"#utility.yul\":11629:11685   */\n    tag_251:\n        /* \"#utility.yul\":11709:11747   */\n      tag_253\n        /* \"#utility.yul\":11741:11745   */\n      dup3\n        /* \"#utility.yul\":11735:11746   */\n      sload\n        /* \"#utility.yul\":11709:11747   */\n      tag_32\n      jump\t// in\n    tag_253:\n        /* \"#utility.yul\":11794:11861   */\n      tag_254\n        /* \"#utility.yul\":11854:11860   */\n      dup3\n        /* \"#utility.yul\":11846:11852   */\n      dup3\n        /* \"#utility.yul\":11840:11844   */\n      dup6\n        /* \"#utility.yul\":11794:11861   */\n      tag_120\n      jump\t// in\n    tag_254:\n        /* \"#utility.yul\":11888:11889   */\n      0x00\n        /* \"#utility.yul\":11912:11916   */\n      0x20\n        /* \"#utility.yul\":11899:11916   */\n      swap1\n      pop\n        /* \"#utility.yul\":11944:11946   */\n      0x1f\n        /* \"#utility.yul\":11936:11942   */\n      dup4\n        /* \"#utility.yul\":11933:11947   */\n      gt\n        /* \"#utility.yul\":11961:11962   */\n      0x01\n        /* \"#utility.yul\":11956:12574   */\n      dup2\n      eq\n      tag_256\n      jumpi\n        /* \"#utility.yul\":12618:12619   */\n      0x00\n        /* \"#utility.yul\":12635:12641   */\n      dup5\n        /* \"#utility.yul\":12632:12709   */\n      iszero\n      tag_257\n      jumpi\n        /* \"#utility.yul\":12684:12693   */\n      dup3\n        /* \"#utility.yul\":12679:12682   */\n      dup8\n        /* \"#utility.yul\":12675:12694   */\n      add\n        /* \"#utility.yul\":12669:12695   */\n      mload\n        /* \"#utility.yul\":12660:12695   */\n      swap1\n      pop\n        /* \"#utility.yul\":12632:12709   */\n    tag_257:\n        /* \"#utility.yul\":12735:12802   */\n      tag_258\n        /* \"#utility.yul\":12795:12801   */\n      dup6\n        /* \"#utility.yul\":12788:12793   */\n      dup3\n        /* \"#utility.yul\":12735:12802   */\n      tag_123\n      jump\t// in\n    tag_258:\n        /* \"#utility.yul\":12729:12733   */\n      dup7\n        /* \"#utility.yul\":12722:12803   */\n      sstore\n        /* \"#utility.yul\":12591:12813   */\n      pop\n        /* \"#utility.yul\":11926:12813   */\n      jump(tag_255)\n        /* \"#utility.yul\":11956:12574   */\n    tag_256:\n        /* \"#utility.yul\":12008:12012   */\n      0x1f\n        /* \"#utility.yul\":12004:12013   */\n      not\n        /* \"#utility.yul\":11996:12002   */\n      dup5\n        /* \"#utility.yul\":11992:12014   */\n      and\n        /* \"#utility.yul\":12042:12079   */\n      tag_259\n        /* \"#utility.yul\":12074:12078   */\n      dup7\n        /* \"#utility.yul\":12042:12079   */\n      tag_109\n      jump\t// in\n    tag_259:\n        /* \"#utility.yul\":12101:12102   */\n      0x00\n        /* \"#utility.yul\":12115:12323   */\n    tag_260:\n        /* \"#utility.yul\":12129:12136   */\n      dup3\n        /* \"#utility.yul\":12126:12127   */\n      dup2\n        /* \"#utility.yul\":12123:12137   */\n      lt\n        /* \"#utility.yul\":12115:12323   */\n      iszero\n      tag_262\n      jumpi\n        /* \"#utility.yul\":12208:12217   */\n      dup5\n        /* \"#utility.yul\":12203:12206   */\n      dup10\n        /* \"#utility.yul\":12199:12218   */\n      add\n        /* \"#utility.yul\":12193:12219   */\n      mload\n        /* \"#utility.yul\":12185:12191   */\n      dup3\n        /* \"#utility.yul\":12178:12220   */\n      sstore\n        /* \"#utility.yul\":12259:12260   */\n      0x01\n        /* \"#utility.yul\":12251:12257   */\n      dup3\n        /* \"#utility.yul\":12247:12261   */\n      add\n        /* \"#utility.yul\":12237:12261   */\n      swap2\n      pop\n        /* \"#utility.yul\":12306:12308   */\n      0x20\n        /* \"#utility.yul\":12295:12304   */\n      dup6\n        /* \"#utility.yul\":12291:12309   */\n      add\n        /* \"#utility.yul\":12278:12309   */\n      swap5\n      pop\n        /* \"#utility.yul\":12152:12156   */\n      0x20\n        /* \"#utility.yul\":12149:12150   */\n      dup2\n        /* \"#utility.yul\":12145:12157   */\n      add\n        /* \"#utility.yul\":12140:12157   */\n      swap1\n      pop\n        /* \"#utility.yul\":12115:12323   */\n      jump(tag_260)\n    tag_262:\n        /* \"#utility.yul\":12351:12357   */\n      dup7\n        /* \"#utility.yul\":12342:12349   */\n      dup4\n        /* \"#utility.yul\":12339:12358   */\n      lt\n        /* \"#utility.yul\":12336:12515   */\n      iszero\n      tag_263\n      jumpi\n        /* \"#utility.yul\":12409:12418   */\n      dup5\n        /* \"#utility.yul\":12404:12407   */\n      dup10\n        /* \"#utility.yul\":12400:12419   */\n      add\n        /* \"#utility.yul\":12394:12420   */\n      mload\n        /* \"#utility.yul\":12452:12500   */\n      tag_264\n        /* \"#utility.yul\":12494:12498   */\n      0x1f\n        /* \"#utility.yul\":12486:12492   */\n      dup10\n        /* \"#utility.yul\":12482:12499   */\n      and\n        /* \"#utility.yul\":12471:12480   */\n      dup3\n        /* \"#utility.yul\":12452:12500   */\n      tag_122\n      jump\t// in\n    tag_264:\n        /* \"#utility.yul\":12444:12450   */\n      dup4\n        /* \"#utility.yul\":12437:12501   */\n      sstore\n        /* \"#utility.yul\":12359:12515   */\n      pop\n        /* \"#utility.yul\":12336:12515   */\n    tag_263:\n        /* \"#utility.yul\":12561:12562   */\n      0x01\n        /* \"#utility.yul\":12557:12558   */\n      0x02\n        /* \"#utility.yul\":12549:12555   */\n      dup9\n        /* \"#utility.yul\":12545:12559   */\n      mul\n        /* \"#utility.yul\":12541:12563   */\n      add\n        /* \"#utility.yul\":12535:12539   */\n      dup9\n        /* \"#utility.yul\":12528:12564   */\n      sstore\n        /* \"#utility.yul\":11963:12574   */\n      pop\n      pop\n      pop\n        /* \"#utility.yul\":11926:12813   */\n    tag_255:\n      pop\n        /* \"#utility.yul\":11516:12819   */\n      pop\n      pop\n      pop\n        /* \"#utility.yul\":11424:12819   */\n      pop\n      pop\n      jump\t// out\n\n    auxdata: 0xa264697066735822122079fd548867f73252962e42be237381be99c41417389d272d763abe244d0eb7e364736f6c63430008160033\n}\n",
				"bytecode": {
					"linkReferences": {},
					"object": "608060405260405180606001604052806040518060400160405280600481526020017f706c6f79000000000000000000000000000000000000000000000000000000008152508152602001601981526020016040518060400160405280600681526020017f61727469737400000000000000000000000000000000000000000000000000008152508152505f80820151815f019081620000a091906200033c565b50602082015181600101556040820151816002019081620000c291906200033c565b505050348015620000d1575f80fd5b5062000420565b5f81519050919050565b7f4e487b71000000000000000000000000000000000000000000000000000000005f52604160045260245ffd5b7f4e487b71000000000000000000000000000000000000000000000000000000005f52602260045260245ffd5b5f60028204905060018216806200015457607f821691505b6020821081036200016a57620001696200010f565b5b50919050565b5f819050815f5260205f209050919050565b5f6020601f8301049050919050565b5f82821b905092915050565b5f60088302620001ce7fffffffffffffffffffffffffffffffffffffffffffffffffffffffffffffffff8262000191565b620001da868362000191565b95508019841693508086168417925050509392505050565b5f819050919050565b5f819050919050565b5f620002246200021e6200021884620001f2565b620001fb565b620001f2565b9050919050565b5f819050919050565b6200023f8362000204565b620002576200024e826200022b565b8484546200019d565b825550505050565b5f90565b6200026d6200025f565b6200027a81848462000234565b505050565b5b81811015620002a157620002955f8262000263565b60018101905062000280565b5050565b601f821115620002f057620002ba8162000170565b620002c58462000182565b81016020851015620002d5578190505b620002ed620002e48562000182565b8301826200027f565b50505b505050565b5f82821c905092915050565b5f620003125f1984600802620002f5565b1980831691505092915050565b5f6200032c838362000301565b9150826002028217905092915050565b6200034782620000d8565b67ffffffffffffffff811115620003635762000362620000e2565b5b6200036f82546200013c565b6200037c828285620002a5565b5f60209050601f831160018114620003b2575f84156200039d578287015190505b620003a985826200031f565b86555062000418565b601f198416620003c28662000170565b5f5b82811015620003eb57848901518255600182019150602085019450602081019050620003c4565b868310156200040b578489015162000407601f89168262000301565b8355505b6001600288020188555050505b505050505050565b610d55806200042e5f395ff3fe608060405234801561000f575f80fd5b5060043610610060575f3560e01c8063396466b714610064578063427156f314610084578063757f29c6146100a2578063ae5e1170146100c0578063ddd6016c146100e0578063f4ca3fdc146100fc575b5f80fd5b61006c610118565b60405161007b93929190610712565b60405180910390f35b61008c61023b565b6040516100999190610800565b60405180910390f35b6100aa61037d565b6040516100b79190610800565b60405180910390f35b6100c86104c0565b6040516100d793929190610712565b60405180910390f35b6100fa60048036038101906100f5919061095d565b6105e2565b005b610116600480360381019061011191906109ce565b6105f7565b005b6003805f01805461012890610a83565b80601f016020809104026020016040519081016040528092919081815260200182805461015490610a83565b801561019f5780601f106101765761010080835404028352916020019161019f565b820191905f5260205f20905b81548152906001019060200180831161018257829003601f168201915b5050505050908060010154908060020180546101ba90610a83565b80601f01602080910402602001604051908101604052809291908181526020018280546101e690610a83565b80156102315780601f1061020857610100808354040283529160200191610231565b820191905f5260205f20905b81548152906001019060200180831161021457829003601f168201915b5050505050905083565b610243610650565b5f6040518060600160405290815f8201805461025e90610a83565b80601f016020809104026020016040519081016040528092919081815260200182805461028a90610a83565b80156102d55780601f106102ac576101008083540402835291602001916102d5565b820191905f5260205f20905b8154815290600101906020018083116102b857829003601f168201915b50505050508152602001600182015481526020016002820180546102f890610a83565b80601f016020809104026020016040519081016040528092919081815260200182805461032490610a83565b801561036f5780601f106103465761010080835404028352916020019161036f565b820191905f5260205f20905b81548152906001019060200180831161035257829003601f168201915b505050505081525050905090565b610385610650565b60036040518060600160405290815f820180546103a190610a83565b80601f01602080910402602001604051908101604052809291908181526020018280546103cd90610a83565b80156104185780601f106103ef57610100808354040283529160200191610418565b820191905f5260205f20905b8154815290600101906020018083116103fb57829003601f168201915b505050505081526020016001820154815260200160028201805461043b90610a83565b80601f016020809104026020016040519081016040528092919081815260200182805461046790610a83565b80156104b25780601f10610489576101008083540402835291602001916104b2565b820191905f5260205f20905b81548152906001019060200180831161049557829003601f168201915b505050505081525050905090565b5f805f0180546104cf90610a83565b80601f01602080910402602001604051908101604052809291908181526020018280546104fb90610a83565b80156105465780601f1061051d57610100808354040283529160200191610546565b820191905f5260205f20905b81548152906001019060200180831161052957829003601f168201915b50505050509080600101549080600201805461056190610a83565b80601f016020809104026020016040519081016040528092919081815260200182805461058d90610a83565b80156105d85780601f106105af576101008083540402835291602001916105d8565b820191905f5260205f20905b8154815290600101906020018083116105bb57829003601f168201915b5050505050905083565b805f60020190816105f39190610c50565b5050565b60405180606001604052808481526020018381526020018281525060035f820151815f0190816106279190610c50565b506020820151816001015560408201518160020190816106479190610c50565b50905050505050565b6040518060600160405280606081526020015f8152602001606081525090565b5f81519050919050565b5f82825260208201905092915050565b5f5b838110156106a757808201518184015260208101905061068c565b5f8484015250505050565b5f601f19601f8301169050919050565b5f6106cc82610670565b6106d6818561067a565b93506106e681856020860161068a565b6106ef816106b2565b840191505092915050565b5f819050919050565b61070c816106fa565b82525050565b5f6060820190508181035f83015261072a81866106c2565b90506107396020830185610703565b818103604083015261074b81846106c2565b9050949350505050565b5f82825260208201905092915050565b5f61076f82610670565b6107798185610755565b935061078981856020860161068a565b610792816106b2565b840191505092915050565b6107a6816106fa565b82525050565b5f606083015f8301518482035f8601526107c68282610765565b91505060208301516107db602086018261079d565b50604083015184820360408601526107f38282610765565b9150508091505092915050565b5f6020820190508181035f83015261081881846107ac565b905092915050565b5f604051905090565b5f80fd5b5f80fd5b5f80fd5b5f80fd5b7f4e487b71000000000000000000000000000000000000000000000000000000005f52604160045260245ffd5b61086f826106b2565b810181811067ffffffffffffffff8211171561088e5761088d610839565b5b80604052505050565b5f6108a0610820565b90506108ac8282610866565b919050565b5f67ffffffffffffffff8211156108cb576108ca610839565b5b6108d4826106b2565b9050602081019050919050565b828183375f83830152505050565b5f6109016108fc846108b1565b610897565b90508281526020810184848401111561091d5761091c610835565b5b6109288482856108e1565b509392505050565b5f82601f83011261094457610943610831565b5b81356109548482602086016108ef565b91505092915050565b5f6020828403121561097257610971610829565b5b5f82013567ffffffffffffffff81111561098f5761098e61082d565b5b61099b84828501610930565b91505092915050565b6109ad816106fa565b81146109b7575f80fd5b50565b5f813590506109c8816109a4565b92915050565b5f805f606084860312156109e5576109e4610829565b5b5f84013567ffffffffffffffff811115610a0257610a0161082d565b5b610a0e86828701610930565b9350506020610a1f868287016109ba565b925050604084013567ffffffffffffffff811115610a4057610a3f61082d565b5b610a4c86828701610930565b9150509250925092565b7f4e487b71000000000000000000000000000000000000000000000000000000005f52602260045260245ffd5b5f6002820490506001821680610a9a57607f821691505b602082108103610aad57610aac610a56565b5b50919050565b5f819050815f5260205f209050919050565b5f6020601f8301049050919050565b5f82821b905092915050565b5f60088302610b0f7fffffffffffffffffffffffffffffffffffffffffffffffffffffffffffffffff82610ad4565b610b198683610ad4565b95508019841693508086168417925050509392505050565b5f819050919050565b5f610b54610b4f610b4a846106fa565b610b31565b6106fa565b9050919050565b5f819050919050565b610b6d83610b3a565b610b81610b7982610b5b565b848454610ae0565b825550505050565b5f90565b610b95610b89565b610ba0818484610b64565b505050565b5b81811015610bc357610bb85f82610b8d565b600181019050610ba6565b5050565b601f821115610c0857610bd981610ab3565b610be284610ac5565b81016020851015610bf1578190505b610c05610bfd85610ac5565b830182610ba5565b50505b505050565b5f82821c905092915050565b5f610c285f1984600802610c0d565b1980831691505092915050565b5f610c408383610c19565b9150826002028217905092915050565b610c5982610670565b67ffffffffffffffff811115610c7257610c71610839565b5b610c7c8254610a83565b610c87828285610bc7565b5f60209050601f831160018114610cb8575f8415610ca6578287015190505b610cb08582610c35565b865550610d17565b601f198416610cc686610ab3565b5f5b82811015610ced57848901518255600182019150602085019450602081019050610cc8565b86831015610d0a5784890151610d06601f891682610c19565b8355505b6001600288020188555050505b50505050505056fea264697066735822122079fd548867f73252962e42be237381be99c41417389d272d763abe244d0eb7e364736f6c63430008160033",
					"opcodes": "PUSH1 0x80 PUSH1 0x40 MSTORE PUSH1 0x40 MLOAD DUP1 PUSH1 0x60 ADD PUSH1 0x40 MSTORE DUP1 PUSH1 0x40 MLOAD DUP1 PUSH1 0x40 ADD PUSH1 0x40 MSTORE DUP1 PUSH1 0x4 DUP2 MSTORE PUSH1 0x20 ADD PUSH32 0x706C6F7900000000000000000000000000000000000000000000000000000000 DUP2 MSTORE POP DUP2 MSTORE PUSH1 0x20 ADD PUSH1 0x19 DUP2 MSTORE PUSH1 0x20 ADD PUSH1 0x40 MLOAD DUP1 PUSH1 0x40 ADD PUSH1 0x40 MSTORE DUP1 PUSH1 0x6 DUP2 MSTORE PUSH1 0x20 ADD PUSH32 0x6172746973740000000000000000000000000000000000000000000000000000 DUP2 MSTORE POP DUP2 MSTORE POP PUSH0 DUP1 DUP3 ADD MLOAD DUP2 PUSH0 ADD SWAP1 DUP2 PUSH3 0xA0 SWAP2 SWAP1 PUSH3 0x33C JUMP JUMPDEST POP PUSH1 0x20 DUP3 ADD MLOAD DUP2 PUSH1 0x1 ADD SSTORE PUSH1 0x40 DUP3 ADD MLOAD DUP2 PUSH1 0x2 ADD SWAP1 DUP2 PUSH3 0xC2 SWAP2 SWAP1 PUSH3 0x33C JUMP JUMPDEST POP POP POP CALLVALUE DUP1 ISZERO PUSH3 0xD1 JUMPI PUSH0 DUP1 REVERT JUMPDEST POP PUSH3 0x420 JUMP JUMPDEST PUSH0 DUP2 MLOAD SWAP1 POP SWAP2 SWAP1 POP JUMP JUMPDEST PUSH32 0x4E487B7100000000000000000000000000000000000000000000000000000000 PUSH0 MSTORE PUSH1 0x41 PUSH1 0x4 MSTORE PUSH1 0x24 PUSH0 REVERT JUMPDEST PUSH32 0x4E487B7100000000000000000000000000000000000000000000000000000000 PUSH0 MSTORE PUSH1 0x22 PUSH1 0x4 MSTORE PUSH1 0x24 PUSH0 REVERT JUMPDEST PUSH0 PUSH1 0x2 DUP3 DIV SWAP1 POP PUSH1 0x1 DUP3 AND DUP1 PUSH3 0x154 JUMPI PUSH1 0x7F DUP3 AND SWAP2 POP JUMPDEST PUSH1 0x20 DUP3 LT DUP2 SUB PUSH3 0x16A JUMPI PUSH3 0x169 PUSH3 0x10F JUMP JUMPDEST JUMPDEST POP SWAP2 SWAP1 POP JUMP JUMPDEST PUSH0 DUP2 SWAP1 POP DUP2 PUSH0 MSTORE PUSH1 0x20 PUSH0 KECCAK256 SWAP1 POP SWAP2 SWAP1 POP JUMP JUMPDEST PUSH0 PUSH1 0x20 PUSH1 0x1F DUP4 ADD DIV SWAP1 POP SWAP2 SWAP1 POP JUMP JUMPDEST PUSH0 DUP3 DUP3 SHL SWAP1 POP SWAP3 SWAP2 POP POP JUMP JUMPDEST PUSH0 PUSH1 0x8 DUP4 MUL PUSH3 0x1CE PUSH32 0xFFFFFFFFFFFFFFFFFFFFFFFFFFFFFFFFFFFFFFFFFFFFFFFFFFFFFFFFFFFFFFFF DUP3 PUSH3 0x191 JUMP JUMPDEST PUSH3 0x1DA DUP7 DUP4 PUSH3 0x191 JUMP JUMPDEST SWAP6 POP DUP1 NOT DUP5 AND SWAP4 POP DUP1 DUP7 AND DUP5 OR SWAP3 POP POP POP SWAP4 SWAP3 POP POP POP JUMP JUMPDEST PUSH0 DUP2 SWAP1 POP SWAP2 SWAP1 POP JUMP JUMPDEST PUSH0 DUP2 SWAP1 POP SWAP2 SWAP1 POP JUMP JUMPDEST PUSH0 PUSH3 0x224 PUSH3 0x21E PUSH3 0x218 DUP5 PUSH3 0x1F2 JUMP JUMPDEST PUSH3 0x1FB JUMP JUMPDEST PUSH3 0x1F2 JUMP JUMPDEST SWAP1 POP SWAP2 SWAP1 POP JUMP JUMPDEST PUSH0 DUP2 SWAP1 POP SWAP2 SWAP1 POP JUMP JUMPDEST PUSH3 0x23F DUP4 PUSH3 0x204 JUMP JUMPDEST PUSH3 0x257 PUSH3 0x24E DUP3 PUSH3 0x22B JUMP JUMPDEST DUP5 DUP5 SLOAD PUSH3 0x19D JUMP JUMPDEST DUP3 SSTORE POP POP POP POP JUMP JUMPDEST PUSH0 SWAP1 JUMP JUMPDEST PUSH3 0x26D PUSH3 0x25F JUMP JUMPDEST PUSH3 0x27A DUP2 DUP5 DUP5 PUSH3 0x234 JUMP JUMPDEST POP POP POP JUMP JUMPDEST JUMPDEST DUP2 DUP2 LT ISZERO PUSH3 0x2A1 JUMPI PUSH3 0x295 PUSH0 DUP3 PUSH3 0x263 JUMP JUMPDEST PUSH1 0x1 DUP2 ADD SWAP1 POP PUSH3 0x280 JUMP JUMPDEST POP POP JUMP JUMPDEST PUSH1 0x1F DUP3 GT ISZERO PUSH3 0x2F0 JUMPI PUSH3 0x2BA DUP2 PUSH3 0x170 JUMP JUMPDEST PUSH3 0x2C5 DUP5 PUSH3 0x182 JUMP JUMPDEST DUP2 ADD PUSH1 0x20 DUP6 LT ISZERO PUSH3 0x2D5 JUMPI DUP2 SWAP1 POP JUMPDEST PUSH3 0x2ED PUSH3 0x2E4 DUP6 PUSH3 0x182 JUMP JUMPDEST DUP4 ADD DUP3 PUSH3 0x27F JUMP JUMPDEST POP POP JUMPDEST POP POP POP JUMP JUMPDEST PUSH0 DUP3 DUP3 SHR SWAP1 POP SWAP3 SWAP2 POP POP JUMP JUMPDEST PUSH0 PUSH3 0x312 PUSH0 NOT DUP5 PUSH1 0x8 MUL PUSH3 0x2F5 JUMP JUMPDEST NOT DUP1 DUP4 AND SWAP2 POP POP SWAP3 SWAP2 POP POP JUMP JUMPDEST PUSH0 PUSH3 0x32C DUP4 DUP4 PUSH3 0x301 JUMP JUMPDEST SWAP2 POP DUP3 PUSH1 0x2 MUL DUP3 OR SWAP1 POP SWAP3 SWAP2 POP POP JUMP JUMPDEST PUSH3 0x347 DUP3 PUSH3 0xD8 JUMP JUMPDEST PUSH8 0xFFFFFFFFFFFFFFFF DUP2 GT ISZERO PUSH3 0x363 JUMPI PUSH3 0x362 PUSH3 0xE2 JUMP JUMPDEST JUMPDEST PUSH3 0x36F DUP3 SLOAD PUSH3 0x13C JUMP JUMPDEST PUSH3 0x37C DUP3 DUP3 DUP6 PUSH3 0x2A5 JUMP JUMPDEST PUSH0 PUSH1 0x20 SWAP1 POP PUSH1 0x1F DUP4 GT PUSH1 0x1 DUP2 EQ PUSH3 0x3B2 JUMPI PUSH0 DUP5 ISZERO PUSH3 0x39D JUMPI DUP3 DUP8 ADD MLOAD SWAP1 POP JUMPDEST PUSH3 0x3A9 DUP6 DUP3 PUSH3 0x31F JUMP JUMPDEST DUP7 SSTORE POP PUSH3 0x418 JUMP JUMPDEST PUSH1 0x1F NOT DUP5 AND PUSH3 0x3C2 DUP7 PUSH3 0x170 JUMP JUMPDEST PUSH0 JUMPDEST DUP3 DUP2 LT ISZERO PUSH3 0x3EB JUMPI DUP5 DUP10 ADD MLOAD DUP3 SSTORE PUSH1 0x1 DUP3 ADD SWAP2 POP PUSH1 0x20 DUP6 ADD SWAP5 POP PUSH1 0x20 DUP2 ADD SWAP1 POP PUSH3 0x3C4 JUMP JUMPDEST DUP7 DUP4 LT ISZERO PUSH3 0x40B JUMPI DUP5 DUP10 ADD MLOAD PUSH3 0x407 PUSH1 0x1F DUP10 AND DUP3 PUSH3 0x301 JUMP JUMPDEST DUP4 SSTORE POP JUMPDEST PUSH1 0x1 PUSH1 0x2 DUP9 MUL ADD DUP9 SSTORE POP POP POP JUMPDEST POP POP POP POP POP POP JUMP JUMPDEST PUSH2 0xD55 DUP1 PUSH3 0x42E PUSH0 CODECOPY PUSH0 RETURN INVALID PUSH1 0x80 PUSH1 0x40 MSTORE CALLVALUE DUP1 ISZERO PUSH2 0xF JUMPI PUSH0 DUP1 REVERT JUMPDEST POP PUSH1 0x4 CALLDATASIZE LT PUSH2 0x60 JUMPI PUSH0 CALLDATALOAD PUSH1 0xE0 SHR DUP1 PUSH4 0x396466B7 EQ PUSH2 0x64 JUMPI DUP1 PUSH4 0x427156F3 EQ PUSH2 0x84 JUMPI DUP1 PUSH4 0x757F29C6 EQ PUSH2 0xA2 JUMPI DUP1 PUSH4 0xAE5E1170 EQ PUSH2 0xC0 JUMPI DUP1 PUSH4 0xDDD6016C EQ PUSH2 0xE0 JUMPI DUP1 PUSH4 0xF4CA3FDC EQ PUSH2 0xFC JUMPI JUMPDEST PUSH0 DUP1 REVERT JUMPDEST PUSH2 0x6C PUSH2 0x118 JUMP JUMPDEST PUSH1 0x40 MLOAD PUSH2 0x7B SWAP4 SWAP3 SWAP2 SWAP1 PUSH2 0x712 JUMP JUMPDEST PUSH1 0x40 MLOAD DUP1 SWAP2 SUB SWAP1 RETURN JUMPDEST PUSH2 0x8C PUSH2 0x23B JUMP JUMPDEST PUSH1 0x40 MLOAD PUSH2 0x99 SWAP2 SWAP1 PUSH2 0x800 JUMP JUMPDEST PUSH1 0x40 MLOAD DUP1 SWAP2 SUB SWAP1 RETURN JUMPDEST PUSH2 0xAA PUSH2 0x37D JUMP JUMPDEST PUSH1 0x40 MLOAD PUSH2 0xB7 SWAP2 SWAP1 PUSH2 0x800 JUMP JUMPDEST PUSH1 0x40 MLOAD DUP1 SWAP2 SUB SWAP1 RETURN JUMPDEST PUSH2 0xC8 PUSH2 0x4C0 JUMP JUMPDEST PUSH1 0x40 MLOAD PUSH2 0xD7 SWAP4 SWAP3 SWAP2 SWAP1 PUSH2 0x712 JUMP JUMPDEST PUSH1 0x40 MLOAD DUP1 SWAP2 SUB SWAP1 RETURN JUMPDEST PUSH2 0xFA PUSH1 0x4 DUP1 CALLDATASIZE SUB DUP2 ADD SWAP1 PUSH2 0xF5 SWAP2 SWAP1 PUSH2 0x95D JUMP JUMPDEST PUSH2 0x5E2 JUMP JUMPDEST STOP JUMPDEST PUSH2 0x116 PUSH1 0x4 DUP1 CALLDATASIZE SUB DUP2 ADD SWAP1 PUSH2 0x111 SWAP2 SWAP1 PUSH2 0x9CE JUMP JUMPDEST PUSH2 0x5F7 JUMP JUMPDEST STOP JUMPDEST PUSH1 0x3 DUP1 PUSH0 ADD DUP1 SLOAD PUSH2 0x128 SWAP1 PUSH2 0xA83 JUMP JUMPDEST DUP1 PUSH1 0x1F ADD PUSH1 0x20 DUP1 SWAP2 DIV MUL PUSH1 0x20 ADD PUSH1 0x40 MLOAD SWAP1 DUP2 ADD PUSH1 0x40 MSTORE DUP1 SWAP3 SWAP2 SWAP1 DUP2 DUP2 MSTORE PUSH1 0x20 ADD DUP3 DUP1 SLOAD PUSH2 0x154 SWAP1 PUSH2 0xA83 JUMP JUMPDEST DUP1 ISZERO PUSH2 0x19F JUMPI DUP1 PUSH1 0x1F LT PUSH2 0x176 JUMPI PUSH2 0x100 DUP1 DUP4 SLOAD DIV MUL DUP4 MSTORE SWAP2 PUSH1 0x20 ADD SWAP2 PUSH2 0x19F JUMP JUMPDEST DUP3 ADD SWAP2 SWAP1 PUSH0 MSTORE PUSH1 0x20 PUSH0 KECCAK256 SWAP1 JUMPDEST DUP2 SLOAD DUP2 MSTORE SWAP1 PUSH1 0x1 ADD SWAP1 PUSH1 0x20 ADD DUP1 DUP4 GT PUSH2 0x182 JUMPI DUP3 SWAP1 SUB PUSH1 0x1F AND DUP3 ADD SWAP2 JUMPDEST POP POP POP POP POP SWAP1 DUP1 PUSH1 0x1 ADD SLOAD SWAP1 DUP1 PUSH1 0x2 ADD DUP1 SLOAD PUSH2 0x1BA SWAP1 PUSH2 0xA83 JUMP JUMPDEST DUP1 PUSH1 0x1F ADD PUSH1 0x20 DUP1 SWAP2 DIV MUL PUSH1 0x20 ADD PUSH1 0x40 MLOAD SWAP1 DUP2 ADD PUSH1 0x40 MSTORE DUP1 SWAP3 SWAP2 SWAP1 DUP2 DUP2 MSTORE PUSH1 0x20 ADD DUP3 DUP1 SLOAD PUSH2 0x1E6 SWAP1 PUSH2 0xA83 JUMP JUMPDEST DUP1 ISZERO PUSH2 0x231 JUMPI DUP1 PUSH1 0x1F LT PUSH2 0x208 JUMPI PUSH2 0x100 DUP1 DUP4 SLOAD DIV MUL DUP4 MSTORE SWAP2 PUSH1 0x20 ADD SWAP2 PUSH2 0x231 JUMP JUMPDEST DUP3 ADD SWAP2 SWAP1 PUSH0 MSTORE PUSH1 0x20 PUSH0 KECCAK256 SWAP1 JUMPDEST DUP2 SLOAD DUP2 MSTORE SWAP1 PUSH1 0x1 ADD SWAP1 PUSH1 0x20 ADD DUP1 DUP4 GT PUSH2 0x214 JUMPI DUP3 SWAP1 SUB PUSH1 0x1F AND DUP3 ADD SWAP2 JUMPDEST POP POP POP POP POP SWAP1 POP DUP4 JUMP JUMPDEST PUSH2 0x243 PUSH2 0x650 JUMP JUMPDEST PUSH0 PUSH1 0x40 MLOAD DUP1 PUSH1 0x60 ADD PUSH1 0x40 MSTORE SWAP1 DUP2 PUSH0 DUP3 ADD DUP1 SLOAD PUSH2 0x25E SWAP1 PUSH2 0xA83 JUMP JUMPDEST DUP1 PUSH1 0x1F ADD PUSH1 0x20 DUP1 SWAP2 DIV MUL PUSH1 0x20 ADD PUSH1 0x40 MLOAD SWAP1 DUP2 ADD PUSH1 0x40 MSTORE DUP1 SWAP3 SWAP2 SWAP1 DUP2 DUP2 MSTORE PUSH1 0x20 ADD DUP3 DUP1 SLOAD PUSH2 0x28A SWAP1 PUSH2 0xA83 JUMP JUMPDEST DUP1 ISZERO PUSH2 0x2D5 JUMPI DUP1 PUSH1 0x1F LT PUSH2 0x2AC JUMPI PUSH2 0x100 DUP1 DUP4 SLOAD DIV MUL DUP4 MSTORE SWAP2 PUSH1 0x20 ADD SWAP2 PUSH2 0x2D5 JUMP JUMPDEST DUP3 ADD SWAP2 SWAP1 PUSH0 MSTORE PUSH1 0x20 PUSH0 KECCAK256 SWAP1 JUMPDEST DUP2 SLOAD DUP2 MSTORE SWAP1 PUSH1 0x1 ADD SWAP1 PUSH1 0x20 ADD DUP1 DUP4 GT PUSH2 0x2B8 JUMPI DUP3 SWAP1 SUB PUSH1 0x1F AND DUP3 ADD SWAP2 JUMPDEST POP POP POP POP POP DUP2 MSTORE PUSH1 0x20 ADD PUSH1 0x1 DUP3 ADD SLOAD DUP2 MSTORE PUSH1 0x20 ADD PUSH1 0x2 DUP3 ADD DUP1 SLOAD PUSH2 0x2F8 SWAP1 PUSH2 0xA83 JUMP JUMPDEST DUP1 PUSH1 0x1F ADD PUSH1 0x20 DUP1 SWAP2 DIV MUL PUSH1 0x20 ADD PUSH1 0x40 MLOAD SWAP1 DUP2 ADD PUSH1 0x40 MSTORE DUP1 SWAP3 SWAP2 SWAP1 DUP2 DUP2 MSTORE PUSH1 0x20 ADD DUP3 DUP1 SLOAD PUSH2 0x324 SWAP1 PUSH2 0xA83 JUMP JUMPDEST DUP1 ISZERO PUSH2 0x36F JUMPI DUP1 PUSH1 0x1F LT PUSH2 0x346 JUMPI PUSH2 0x100 DUP1 DUP4 SLOAD DIV MUL DUP4 MSTORE SWAP2 PUSH1 0x20 ADD SWAP2 PUSH2 0x36F JUMP JUMPDEST DUP3 ADD SWAP2 SWAP1 PUSH0 MSTORE PUSH1 0x20 PUSH0 KECCAK256 SWAP1 JUMPDEST DUP2 SLOAD DUP2 MSTORE SWAP1 PUSH1 0x1 ADD SWAP1 PUSH1 0x20 ADD DUP1 DUP4 GT PUSH2 0x352 JUMPI DUP3 SWAP1 SUB PUSH1 0x1F AND DUP3 ADD SWAP2 JUMPDEST POP POP POP POP POP DUP2 MSTORE POP POP SWAP1 POP SWAP1 JUMP JUMPDEST PUSH2 0x385 PUSH2 0x650 JUMP JUMPDEST PUSH1 0x3 PUSH1 0x40 MLOAD DUP1 PUSH1 0x60 ADD PUSH1 0x40 MSTORE SWAP1 DUP2 PUSH0 DUP3 ADD DUP1 SLOAD PUSH2 0x3A1 SWAP1 PUSH2 0xA83 JUMP JUMPDEST DUP1 PUSH1 0x1F ADD PUSH1 0x20 DUP1 SWAP2 DIV MUL PUSH1 0x20 ADD PUSH1 0x40 MLOAD SWAP1 DUP2 ADD PUSH1 0x40 MSTORE DUP1 SWAP3 SWAP2 SWAP1 DUP2 DUP2 MSTORE PUSH1 0x20 ADD DUP3 DUP1 SLOAD PUSH2 0x3CD SWAP1 PUSH2 0xA83 JUMP JUMPDEST DUP1 ISZERO PUSH2 0x418 JUMPI DUP1 PUSH1 0x1F LT PUSH2 0x3EF JUMPI PUSH2 0x100 DUP1 DUP4 SLOAD DIV MUL DUP4 MSTORE SWAP2 PUSH1 0x20 ADD SWAP2 PUSH2 0x418 JUMP JUMPDEST DUP3 ADD SWAP2 SWAP1 PUSH0 MSTORE PUSH1 0x20 PUSH0 KECCAK256 SWAP1 JUMPDEST DUP2 SLOAD DUP2 MSTORE SWAP1 PUSH1 0x1 ADD SWAP1 PUSH1 0x20 ADD DUP1 DUP4 GT PUSH2 0x3FB JUMPI DUP3 SWAP1 SUB PUSH1 0x1F AND DUP3 ADD SWAP2 JUMPDEST POP POP POP POP POP DUP2 MSTORE PUSH1 0x20 ADD PUSH1 0x1 DUP3 ADD SLOAD DUP2 MSTORE PUSH1 0x20 ADD PUSH1 0x2 DUP3 ADD DUP1 SLOAD PUSH2 0x43B SWAP1 PUSH2 0xA83 JUMP JUMPDEST DUP1 PUSH1 0x1F ADD PUSH1 0x20 DUP1 SWAP2 DIV MUL PUSH1 0x20 ADD PUSH1 0x40 MLOAD SWAP1 DUP2 ADD PUSH1 0x40 MSTORE DUP1 SWAP3 SWAP2 SWAP1 DUP2 DUP2 MSTORE PUSH1 0x20 ADD DUP3 DUP1 SLOAD PUSH2 0x467 SWAP1 PUSH2 0xA83 JUMP JUMPDEST DUP1 ISZERO PUSH2 0x4B2 JUMPI DUP1 PUSH1 0x1F LT PUSH2 0x489 JUMPI PUSH2 0x100 DUP1 DUP4 SLOAD DIV MUL DUP4 MSTORE SWAP2 PUSH1 0x20 ADD SWAP2 PUSH2 0x4B2 JUMP JUMPDEST DUP3 ADD SWAP2 SWAP1 PUSH0 MSTORE PUSH1 0x20 PUSH0 KECCAK256 SWAP1 JUMPDEST DUP2 SLOAD DUP2 MSTORE SWAP1 PUSH1 0x1 ADD SWAP1 PUSH1 0x20 ADD DUP1 DUP4 GT PUSH2 0x495 JUMPI DUP3 SWAP1 SUB PUSH1 0x1F AND DUP3 ADD SWAP2 JUMPDEST POP POP POP POP POP DUP2 MSTORE POP POP SWAP1 POP SWAP1 JUMP JUMPDEST PUSH0 DUP1 PUSH0 ADD DUP1 SLOAD PUSH2 0x4CF SWAP1 PUSH2 0xA83 JUMP JUMPDEST DUP1 PUSH1 0x1F ADD PUSH1 0x20 DUP1 SWAP2 DIV MUL PUSH1 0x20 ADD PUSH1 0x40 MLOAD SWAP1 DUP2 ADD PUSH1 0x40 MSTORE DUP1 SWAP3 SWAP2 SWAP1 DUP2 DUP2 MSTORE PUSH1 0x20 ADD DUP3 DUP1 SLOAD PUSH2 0x4FB SWAP1 PUSH2 0xA83 JUMP JUMPDEST DUP1 ISZERO PUSH2 0x546 JUMPI DUP1 PUSH1 0x1F LT PUSH2 0x51D JUMPI PUSH2 0x100 DUP1 DUP4 SLOAD DIV MUL DUP4 MSTORE SWAP2 PUSH1 0x20 ADD SWAP2 PUSH2 0x546 JUMP JUMPDEST DUP3 ADD SWAP2 SWAP1 PUSH0 MSTORE PUSH1 0x20 PUSH0 KECCAK256 SWAP1 JUMPDEST DUP2 SLOAD DUP2 MSTORE SWAP1 PUSH1 0x1 ADD SWAP1 PUSH1 0x20 ADD DUP1 DUP4 GT PUSH2 0x529 JUMPI DUP3 SWAP1 SUB PUSH1 0x1F AND DUP3 ADD SWAP2 JUMPDEST POP POP POP POP POP SWAP1 DUP1 PUSH1 0x1 ADD SLOAD SWAP1 DUP1 PUSH1 0x2 ADD DUP1 SLOAD PUSH2 0x561 SWAP1 PUSH2 0xA83 JUMP JUMPDEST DUP1 PUSH1 0x1F ADD PUSH1 0x20 DUP1 SWAP2 DIV MUL PUSH1 0x20 ADD PUSH1 0x40 MLOAD SWAP1 DUP2 ADD PUSH1 0x40 MSTORE DUP1 SWAP3 SWAP2 SWAP1 DUP2 DUP2 MSTORE PUSH1 0x20 ADD DUP3 DUP1 SLOAD PUSH2 0x58D SWAP1 PUSH2 0xA83 JUMP JUMPDEST DUP1 ISZERO PUSH2 0x5D8 JUMPI DUP1 PUSH1 0x1F LT PUSH2 0x5AF JUMPI PUSH2 0x100 DUP1 DUP4 SLOAD DIV MUL DUP4 MSTORE SWAP2 PUSH1 0x20 ADD SWAP2 PUSH2 0x5D8 JUMP JUMPDEST DUP3 ADD SWAP2 SWAP1 PUSH0 MSTORE PUSH1 0x20 PUSH0 KECCAK256 SWAP1 JUMPDEST DUP2 SLOAD DUP2 MSTORE SWAP1 PUSH1 0x1 ADD SWAP1 PUSH1 0x20 ADD DUP1 DUP4 GT PUSH2 0x5BB JUMPI DUP3 SWAP1 SUB PUSH1 0x1F AND DUP3 ADD SWAP2 JUMPDEST POP POP POP POP POP SWAP1 POP DUP4 JUMP JUMPDEST DUP1 PUSH0 PUSH1 0x2 ADD SWAP1 DUP2 PUSH2 0x5F3 SWAP2 SWAP1 PUSH2 0xC50 JUMP JUMPDEST POP POP JUMP JUMPDEST PUSH1 0x40 MLOAD DUP1 PUSH1 0x60 ADD PUSH1 0x40 MSTORE DUP1 DUP5 DUP2 MSTORE PUSH1 0x20 ADD DUP4 DUP2 MSTORE PUSH1 0x20 ADD DUP3 DUP2 MSTORE POP PUSH1 0x3 PUSH0 DUP3 ADD MLOAD DUP2 PUSH0 ADD SWAP1 DUP2 PUSH2 0x627 SWAP2 SWAP1 PUSH2 0xC50 JUMP JUMPDEST POP PUSH1 0x20 DUP3 ADD MLOAD DUP2 PUSH1 0x1 ADD SSTORE PUSH1 0x40 DUP3 ADD MLOAD DUP2 PUSH1 0x2 ADD SWAP1 DUP2 PUSH2 0x647 SWAP2 SWAP1 PUSH2 0xC50 JUMP JUMPDEST POP SWAP1 POP POP POP POP POP JUMP JUMPDEST PUSH1 0x40 MLOAD DUP1 PUSH1 0x60 ADD PUSH1 0x40 MSTORE DUP1 PUSH1 0x60 DUP2 MSTORE PUSH1 0x20 ADD PUSH0 DUP2 MSTORE PUSH1 0x20 ADD PUSH1 0x60 DUP2 MSTORE POP SWAP1 JUMP JUMPDEST PUSH0 DUP2 MLOAD SWAP1 POP SWAP2 SWAP1 POP JUMP JUMPDEST PUSH0 DUP3 DUP3 MSTORE PUSH1 0x20 DUP3 ADD SWAP1 POP SWAP3 SWAP2 POP POP JUMP JUMPDEST PUSH0 JUMPDEST DUP4 DUP2 LT ISZERO PUSH2 0x6A7 JUMPI DUP1 DUP3 ADD MLOAD DUP2 DUP5 ADD MSTORE PUSH1 0x20 DUP2 ADD SWAP1 POP PUSH2 0x68C JUMP JUMPDEST PUSH0 DUP5 DUP5 ADD MSTORE POP POP POP POP JUMP JUMPDEST PUSH0 PUSH1 0x1F NOT PUSH1 0x1F DUP4 ADD AND SWAP1 POP SWAP2 SWAP1 POP JUMP JUMPDEST PUSH0 PUSH2 0x6CC DUP3 PUSH2 0x670 JUMP JUMPDEST PUSH2 0x6D6 DUP2 DUP6 PUSH2 0x67A JUMP JUMPDEST SWAP4 POP PUSH2 0x6E6 DUP2 DUP6 PUSH1 0x20 DUP7 ADD PUSH2 0x68A JUMP JUMPDEST PUSH2 0x6EF DUP2 PUSH2 0x6B2 JUMP JUMPDEST DUP5 ADD SWAP2 POP POP SWAP3 SWAP2 POP POP JUMP JUMPDEST PUSH0 DUP2 SWAP1 POP SWAP2 SWAP1 POP JUMP JUMPDEST PUSH2 0x70C DUP2 PUSH2 0x6FA JUMP JUMPDEST DUP3 MSTORE POP POP JUMP JUMPDEST PUSH0 PUSH1 0x60 DUP3 ADD SWAP1 POP DUP2 DUP2 SUB PUSH0 DUP4 ADD MSTORE PUSH2 0x72A DUP2 DUP7 PUSH2 0x6C2 JUMP JUMPDEST SWAP1 POP PUSH2 0x739 PUSH1 0x20 DUP4 ADD DUP6 PUSH2 0x703 JUMP JUMPDEST DUP2 DUP2 SUB PUSH1 0x40 DUP4 ADD MSTORE PUSH2 0x74B DUP2 DUP5 PUSH2 0x6C2 JUMP JUMPDEST SWAP1 POP SWAP5 SWAP4 POP POP POP POP JUMP JUMPDEST PUSH0 DUP3 DUP3 MSTORE PUSH1 0x20 DUP3 ADD SWAP1 POP SWAP3 SWAP2 POP POP JUMP JUMPDEST PUSH0 PUSH2 0x76F DUP3 PUSH2 0x670 JUMP JUMPDEST PUSH2 0x779 DUP2 DUP6 PUSH2 0x755 JUMP JUMPDEST SWAP4 POP PUSH2 0x789 DUP2 DUP6 PUSH1 0x20 DUP7 ADD PUSH2 0x68A JUMP JUMPDEST PUSH2 0x792 DUP2 PUSH2 0x6B2 JUMP JUMPDEST DUP5 ADD SWAP2 POP POP SWAP3 SWAP2 POP POP JUMP JUMPDEST PUSH2 0x7A6 DUP2 PUSH2 0x6FA JUMP JUMPDEST DUP3 MSTORE POP POP JUMP JUMPDEST PUSH0 PUSH1 0x60 DUP4 ADD PUSH0 DUP4 ADD MLOAD DUP5 DUP3 SUB PUSH0 DUP7 ADD MSTORE PUSH2 0x7C6 DUP3 DUP3 PUSH2 0x765 JUMP JUMPDEST SWAP2 POP POP PUSH1 0x20 DUP4 ADD MLOAD PUSH2 0x7DB PUSH1 0x20 DUP7 ADD DUP3 PUSH2 0x79D JUMP JUMPDEST POP PUSH1 0x40 DUP4 ADD MLOAD DUP5 DUP3 SUB PUSH1 0x40 DUP7 ADD MSTORE PUSH2 0x7F3 DUP3 DUP3 PUSH2 0x765 JUMP JUMPDEST SWAP2 POP POP DUP1 SWAP2 POP POP SWAP3 SWAP2 POP POP JUMP JUMPDEST PUSH0 PUSH1 0x20 DUP3 ADD SWAP1 POP DUP2 DUP2 SUB PUSH0 DUP4 ADD MSTORE PUSH2 0x818 DUP2 DUP5 PUSH2 0x7AC JUMP JUMPDEST SWAP1 POP SWAP3 SWAP2 POP POP JUMP JUMPDEST PUSH0 PUSH1 0x40 MLOAD SWAP1 POP SWAP1 JUMP JUMPDEST PUSH0 DUP1 REVERT JUMPDEST PUSH0 DUP1 REVERT JUMPDEST PUSH0 DUP1 REVERT JUMPDEST PUSH0 DUP1 REVERT JUMPDEST PUSH32 0x4E487B7100000000000000000000000000000000000000000000000000000000 PUSH0 MSTORE PUSH1 0x41 PUSH1 0x4 MSTORE PUSH1 0x24 PUSH0 REVERT JUMPDEST PUSH2 0x86F DUP3 PUSH2 0x6B2 JUMP JUMPDEST DUP2 ADD DUP2 DUP2 LT PUSH8 0xFFFFFFFFFFFFFFFF DUP3 GT OR ISZERO PUSH2 0x88E JUMPI PUSH2 0x88D PUSH2 0x839 JUMP JUMPDEST JUMPDEST DUP1 PUSH1 0x40 MSTORE POP POP POP JUMP JUMPDEST PUSH0 PUSH2 0x8A0 PUSH2 0x820 JUMP JUMPDEST SWAP1 POP PUSH2 0x8AC DUP3 DUP3 PUSH2 0x866 JUMP JUMPDEST SWAP2 SWAP1 POP JUMP JUMPDEST PUSH0 PUSH8 0xFFFFFFFFFFFFFFFF DUP3 GT ISZERO PUSH2 0x8CB JUMPI PUSH2 0x8CA PUSH2 0x839 JUMP JUMPDEST JUMPDEST PUSH2 0x8D4 DUP3 PUSH2 0x6B2 JUMP JUMPDEST SWAP1 POP PUSH1 0x20 DUP2 ADD SWAP1 POP SWAP2 SWAP1 POP JUMP JUMPDEST DUP3 DUP2 DUP4 CALLDATACOPY PUSH0 DUP4 DUP4 ADD MSTORE POP POP POP JUMP JUMPDEST PUSH0 PUSH2 0x901 PUSH2 0x8FC DUP5 PUSH2 0x8B1 JUMP JUMPDEST PUSH2 0x897 JUMP JUMPDEST SWAP1 POP DUP3 DUP2 MSTORE PUSH1 0x20 DUP2 ADD DUP5 DUP5 DUP5 ADD GT ISZERO PUSH2 0x91D JUMPI PUSH2 0x91C PUSH2 0x835 JUMP JUMPDEST JUMPDEST PUSH2 0x928 DUP5 DUP3 DUP6 PUSH2 0x8E1 JUMP JUMPDEST POP SWAP4 SWAP3 POP POP POP JUMP JUMPDEST PUSH0 DUP3 PUSH1 0x1F DUP4 ADD SLT PUSH2 0x944 JUMPI PUSH2 0x943 PUSH2 0x831 JUMP JUMPDEST JUMPDEST DUP2 CALLDATALOAD PUSH2 0x954 DUP5 DUP3 PUSH1 0x20 DUP7 ADD PUSH2 0x8EF JUMP JUMPDEST SWAP2 POP POP SWAP3 SWAP2 POP POP JUMP JUMPDEST PUSH0 PUSH1 0x20 DUP3 DUP5 SUB SLT ISZERO PUSH2 0x972 JUMPI PUSH2 0x971 PUSH2 0x829 JUMP JUMPDEST JUMPDEST PUSH0 DUP3 ADD CALLDATALOAD PUSH8 0xFFFFFFFFFFFFFFFF DUP2 GT ISZERO PUSH2 0x98F JUMPI PUSH2 0x98E PUSH2 0x82D JUMP JUMPDEST JUMPDEST PUSH2 0x99B DUP5 DUP3 DUP6 ADD PUSH2 0x930 JUMP JUMPDEST SWAP2 POP POP SWAP3 SWAP2 POP POP JUMP JUMPDEST PUSH2 0x9AD DUP2 PUSH2 0x6FA JUMP JUMPDEST DUP2 EQ PUSH2 0x9B7 JUMPI PUSH0 DUP1 REVERT JUMPDEST POP JUMP JUMPDEST PUSH0 DUP2 CALLDATALOAD SWAP1 POP PUSH2 0x9C8 DUP2 PUSH2 0x9A4 JUMP JUMPDEST SWAP3 SWAP2 POP POP JUMP JUMPDEST PUSH0 DUP1 PUSH0 PUSH1 0x60 DUP5 DUP7 SUB SLT ISZERO PUSH2 0x9E5 JUMPI PUSH2 0x9E4 PUSH2 0x829 JUMP JUMPDEST JUMPDEST PUSH0 DUP5 ADD CALLDATALOAD PUSH8 0xFFFFFFFFFFFFFFFF DUP2 GT ISZERO PUSH2 0xA02 JUMPI PUSH2 0xA01 PUSH2 0x82D JUMP JUMPDEST JUMPDEST PUSH2 0xA0E DUP7 DUP3 DUP8 ADD PUSH2 0x930 JUMP JUMPDEST SWAP4 POP POP PUSH1 0x20 PUSH2 0xA1F DUP7 DUP3 DUP8 ADD PUSH2 0x9BA JUMP JUMPDEST SWAP3 POP POP PUSH1 0x40 DUP5 ADD CALLDATALOAD PUSH8 0xFFFFFFFFFFFFFFFF DUP2 GT ISZERO PUSH2 0xA40 JUMPI PUSH2 0xA3F PUSH2 0x82D JUMP JUMPDEST JUMPDEST PUSH2 0xA4C DUP7 DUP3 DUP8 ADD PUSH2 0x930 JUMP JUMPDEST SWAP2 POP POP SWAP3 POP SWAP3 POP SWAP3 JUMP JUMPDEST PUSH32 0x4E487B7100000000000000000000000000000000000000000000000000000000 PUSH0 MSTORE PUSH1 0x22 PUSH1 0x4 MSTORE PUSH1 0x24 PUSH0 REVERT JUMPDEST PUSH0 PUSH1 0x2 DUP3 DIV SWAP1 POP PUSH1 0x1 DUP3 AND DUP1 PUSH2 0xA9A JUMPI PUSH1 0x7F DUP3 AND SWAP2 POP JUMPDEST PUSH1 0x20 DUP3 LT DUP2 SUB PUSH2 0xAAD JUMPI PUSH2 0xAAC PUSH2 0xA56 JUMP JUMPDEST JUMPDEST POP SWAP2 SWAP1 POP JUMP JUMPDEST PUSH0 DUP2 SWAP1 POP DUP2 PUSH0 MSTORE PUSH1 0x20 PUSH0 KECCAK256 SWAP1 POP SWAP2 SWAP1 POP JUMP JUMPDEST PUSH0 PUSH1 0x20 PUSH1 0x1F DUP4 ADD DIV SWAP1 POP SWAP2 SWAP1 POP JUMP JUMPDEST PUSH0 DUP3 DUP3 SHL SWAP1 POP SWAP3 SWAP2 POP POP JUMP JUMPDEST PUSH0 PUSH1 0x8 DUP4 MUL PUSH2 0xB0F PUSH32 0xFFFFFFFFFFFFFFFFFFFFFFFFFFFFFFFFFFFFFFFFFFFFFFFFFFFFFFFFFFFFFFFF DUP3 PUSH2 0xAD4 JUMP JUMPDEST PUSH2 0xB19 DUP7 DUP4 PUSH2 0xAD4 JUMP JUMPDEST SWAP6 POP DUP1 NOT DUP5 AND SWAP4 POP DUP1 DUP7 AND DUP5 OR SWAP3 POP POP POP SWAP4 SWAP3 POP POP POP JUMP JUMPDEST PUSH0 DUP2 SWAP1 POP SWAP2 SWAP1 POP JUMP JUMPDEST PUSH0 PUSH2 0xB54 PUSH2 0xB4F PUSH2 0xB4A DUP5 PUSH2 0x6FA JUMP JUMPDEST PUSH2 0xB31 JUMP JUMPDEST PUSH2 0x6FA JUMP JUMPDEST SWAP1 POP SWAP2 SWAP1 POP JUMP JUMPDEST PUSH0 DUP2 SWAP1 POP SWAP2 SWAP1 POP JUMP JUMPDEST PUSH2 0xB6D DUP4 PUSH2 0xB3A JUMP JUMPDEST PUSH2 0xB81 PUSH2 0xB79 DUP3 PUSH2 0xB5B JUMP JUMPDEST DUP5 DUP5 SLOAD PUSH2 0xAE0 JUMP JUMPDEST DUP3 SSTORE POP POP POP POP JUMP JUMPDEST PUSH0 SWAP1 JUMP JUMPDEST PUSH2 0xB95 PUSH2 0xB89 JUMP JUMPDEST PUSH2 0xBA0 DUP2 DUP5 DUP5 PUSH2 0xB64 JUMP JUMPDEST POP POP POP JUMP JUMPDEST JUMPDEST DUP2 DUP2 LT ISZERO PUSH2 0xBC3 JUMPI PUSH2 0xBB8 PUSH0 DUP3 PUSH2 0xB8D JUMP JUMPDEST PUSH1 0x1 DUP2 ADD SWAP1 POP PUSH2 0xBA6 JUMP JUMPDEST POP POP JUMP JUMPDEST PUSH1 0x1F DUP3 GT ISZERO PUSH2 0xC08 JUMPI PUSH2 0xBD9 DUP2 PUSH2 0xAB3 JUMP JUMPDEST PUSH2 0xBE2 DUP5 PUSH2 0xAC5 JUMP JUMPDEST DUP2 ADD PUSH1 0x20 DUP6 LT ISZERO PUSH2 0xBF1 JUMPI DUP2 SWAP1 POP JUMPDEST PUSH2 0xC05 PUSH2 0xBFD DUP6 PUSH2 0xAC5 JUMP JUMPDEST DUP4 ADD DUP3 PUSH2 0xBA5 JUMP JUMPDEST POP POP JUMPDEST POP POP POP JUMP JUMPDEST PUSH0 DUP3 DUP3 SHR SWAP1 POP SWAP3 SWAP2 POP POP JUMP JUMPDEST PUSH0 PUSH2 0xC28 PUSH0 NOT DUP5 PUSH1 0x8 MUL PUSH2 0xC0D JUMP JUMPDEST NOT DUP1 DUP4 AND SWAP2 POP POP SWAP3 SWAP2 POP POP JUMP JUMPDEST PUSH0 PUSH2 0xC40 DUP4 DUP4 PUSH2 0xC19 JUMP JUMPDEST SWAP2 POP DUP3 PUSH1 0x2 MUL DUP3 OR SWAP1 POP SWAP3 SWAP2 POP POP JUMP JUMPDEST PUSH2 0xC59 DUP3 PUSH2 0x670 JUMP JUMPDEST PUSH8 0xFFFFFFFFFFFFFFFF DUP2 GT ISZERO PUSH2 0xC72 JUMPI PUSH2 0xC71 PUSH2 0x839 JUMP JUMPDEST JUMPDEST PUSH2 0xC7C DUP3 SLOAD PUSH2 0xA83 JUMP JUMPDEST PUSH2 0xC87 DUP3 DUP3 DUP6 PUSH2 0xBC7 JUMP JUMPDEST PUSH0 PUSH1 0x20 SWAP1 POP PUSH1 0x1F DUP4 GT PUSH1 0x1 DUP2 EQ PUSH2 0xCB8 JUMPI PUSH0 DUP5 ISZERO PUSH2 0xCA6 JUMPI DUP3 DUP8 ADD MLOAD SWAP1 POP JUMPDEST PUSH2 0xCB0 DUP6 DUP3 PUSH2 0xC35 JUMP JUMPDEST DUP7 SSTORE POP PUSH2 0xD17 JUMP JUMPDEST PUSH1 0x1F NOT DUP5 AND PUSH2 0xCC6 DUP7 PUSH2 0xAB3 JUMP JUMPDEST PUSH0 JUMPDEST DUP3 DUP2 LT ISZERO PUSH2 0xCED JUMPI DUP5 DUP10 ADD MLOAD DUP3 SSTORE PUSH1 0x1 DUP3 ADD SWAP2 POP PUSH1 0x20 DUP6 ADD SWAP5 POP PUSH1 0x20 DUP2 ADD SWAP1 POP PUSH2 0xCC8 JUMP JUMPDEST DUP7 DUP4 LT ISZERO PUSH2 0xD0A JUMPI DUP5 DUP10 ADD MLOAD PUSH2 0xD06 PUSH1 0x1F DUP10 AND DUP3 PUSH2 0xC19 JUMP JUMPDEST DUP4 SSTORE POP JUMPDEST PUSH1 0x1 PUSH1 0x2 DUP9 MUL ADD DUP9 SSTORE POP POP POP JUMPDEST POP POP POP POP POP POP JUMP INVALID LOG2 PUSH5 0x6970667358 0x22 SLT KECCAK256 PUSH26 0xFD548867F73252962E42BE237381BE99C41417389D272D763ABE 0x24 0x4D 0xE 0xB7 0xE3 PUSH5 0x736F6C6343 STOP ADDMOD AND STOP CALLER "
				},
				"gasEstimates": {
					"creation": {
						"codeDepositCost": "682600",
						"executionCost": "infinite",
						"totalCost": "infinite"
					},
					"external": {
						"changeJobHuman1(string)": "infinite",
						"getHuman1()": "infinite",
						"getHuman2()": "infinite",
						"human1()": "infinite",
						"human2()": "infinite",
						"initializegetHuman2(string,uint256,string)": "infinite"
					}
				},
				"methodIdentifiers": {
					"changeJobHuman1(string)": "ddd6016c",
					"getHuman1()": "427156f3",
					"getHuman2()": "757f29c6",
					"human1()": "ae5e1170",
					"human2()": "396466b7",
					"initializegetHuman2(string,uint256,string)": "f4ca3fdc"
				}
			},
			"storageLayout": {
				"storage": [
					{
						"astId": 16,
						"contract": "chapter5/Ex5_7.sol:Ex5_7",
						"label": "human1",
						"offset": 0,
						"slot": "0",
						"type": "t_struct(Human)8_storage"
					},
					{
						"astId": 19,
						"contract": "chapter5/Ex5_7.sol:Ex5_7",
						"label": "human2",
						"offset": 0,
						"slot": "3",
						"type": "t_struct(Human)8_storage"
					}
				],
				"types": {
					"t_string_storage": {
						"encoding": "bytes",
						"label": "string",
						"numberOfBytes": "32"
					},
					"t_struct(Human)8_storage": {
						"encoding": "inplace",
						"label": "struct Ex5_7.Human",
						"members": [
							{
								"astId": 3,
								"contract": "chapter5/Ex5_7.sol:Ex5_7",
								"label": "name",
								"offset": 0,
								"slot": "0",
								"type": "t_string_storage"
							},
							{
								"astId": 5,
								"contract": "chapter5/Ex5_7.sol:Ex5_7",
								"label": "age",
								"offset": 0,
								"slot": "1",
								"type": "t_uint256"
							},
							{
								"astId": 7,
								"contract": "chapter5/Ex5_7.sol:Ex5_7",
								"label": "job",
								"offset": 0,
								"slot": "2",
								"type": "t_string_storage"
							}
						],
						"numberOfBytes": "96"
					},
					"t_uint256": {
						"encoding": "inplace",
						"label": "uint256",
						"numberOfBytes": "32"
					}
				}
			},
			"userdoc": {
				"kind": "user",
				"methods": {},
				"version": 1
			}
		}
	}
}