{
	"chapter5/Ex5_3.sol": {
		"Ex5_3": {
			"abi": [
				{
					"inputs": [
						{
							"internalType": "uint256",
							"name": "_value",
							"type": "uint256"
						}
					],
					"name": "addArray1",
					"outputs": [],
					"stateMutability": "nonpayable",
					"type": "function"
				},
				{
					"inputs": [
						{
							"internalType": "uint256",
							"name": "",
							"type": "uint256"
						}
					],
					"name": "array1",
					"outputs": [
						{
							"internalType": "uint256",
							"name": "",
							"type": "uint256"
						}
					],
					"stateMutability": "view",
					"type": "function"
				},
				{
					"inputs": [
						{
							"internalType": "uint256",
							"name": "",
							"type": "uint256"
						}
					],
					"name": "array2",
					"outputs": [
						{
							"internalType": "string",
							"name": "",
							"type": "string"
						}
					],
					"stateMutability": "view",
					"type": "function"
				},
				{
					"inputs": [
						{
							"internalType": "uint256",
							"name": "_index",
							"type": "uint256"
						},
						{
							"internalType": "uint256",
							"name": "_value",
							"type": "uint256"
						}
					],
					"name": "changeArray1",
					"outputs": [],
					"stateMutability": "nonpayable",
					"type": "function"
				},
				{
					"inputs": [
						{
							"internalType": "uint256",
							"name": "_index",
							"type": "uint256"
						},
						{
							"internalType": "string",
							"name": "_value",
							"type": "string"
						}
					],
					"name": "changeArray2",
					"outputs": [],
					"stateMutability": "nonpayable",
					"type": "function"
				},
				{
					"inputs": [
						{
							"internalType": "uint256",
							"name": "_index",
							"type": "uint256"
						}
					],
					"name": "deleteArray",
					"outputs": [],
					"stateMutability": "nonpayable",
					"type": "function"
				},
				{
					"inputs": [],
					"name": "getLength1",
					"outputs": [
						{
							"internalType": "uint256",
							"name": "",
							"type": "uint256"
						}
					],
					"stateMutability": "view",
					"type": "function"
				},
				{
					"inputs": [],
					"name": "getLength2",
					"outputs": [
						{
							"internalType": "uint256",
							"name": "",
							"type": "uint256"
						}
					],
					"stateMutability": "view",
					"type": "function"
				},
				{
					"inputs": [],
					"name": "popArray",
					"outputs": [],
					"stateMutability": "nonpayable",
					"type": "function"
				}
			],
			"devdoc": {
				"kind": "dev",
				"methods": {},
				"version": 1
			},
			"evm": {
				"assembly": "    /* \"chapter5/Ex5_3.sol\":72:1208  contract Ex5_3 {\r... */\n  mstore(0x40, 0x80)\n    /* \"chapter5/Ex5_3.sol\":121:177  string[5] public array2 = [\"apple\", \"banana\", \"coconut\"] */\n  mload(0x40)\n  dup1\n  0x60\n  add\n  0x40\n  mstore\n  dup1\n  mload(0x40)\n  dup1\n  0x40\n  add\n  0x40\n  mstore\n  dup1\n  0x05\n  dup2\n  mstore\n  0x20\n  add\n  0x6170706c65000000000000000000000000000000000000000000000000000000\n  dup2\n  mstore\n  pop\n  dup2\n  mstore\n  0x20\n  add\n  mload(0x40)\n  dup1\n  0x40\n  add\n  0x40\n  mstore\n  dup1\n  0x06\n  dup2\n  mstore\n  0x20\n  add\n  0x62616e616e610000000000000000000000000000000000000000000000000000\n  dup2\n  mstore\n  pop\n  dup2\n  mstore\n  0x20\n  add\n  mload(0x40)\n  dup1\n  0x40\n  add\n  0x40\n  mstore\n  dup1\n  0x07\n  dup2\n  mstore\n  0x20\n  add\n  0x636f636f6e757400000000000000000000000000000000000000000000000000\n  dup2\n  mstore\n  pop\n  dup2\n  mstore\n  pop\n  0x01\n  swap1\n  0x03\n  tag_1\n  swap3\n  swap2\n  swap1\n  tag_2\n  jump\t// in\ntag_1:\n  pop\n    /* \"chapter5/Ex5_3.sol\":72:1208  contract Ex5_3 {\r... */\n  callvalue\n  dup1\n  iszero\n  tag_3\n  jumpi\n  0x00\n  dup1\n  revert\ntag_3:\n  pop\n  jump(tag_4)\ntag_2:\n  dup3\n  0x05\n  dup2\n  add\n  swap3\n  dup3\n  iszero\n  tag_5\n  jumpi\n  swap2\n  0x20\n  mul\n  dup3\n  add\ntag_6:\n  dup3\n  dup2\n  gt\n  iszero\n  tag_7\n  jumpi\n  dup3\n  mload\n  dup3\n  swap1\n  dup1\n  mload\n  swap1\n  0x20\n  add\n  swap1\n  tag_8\n  swap3\n  swap2\n  swap1\n  tag_9\n  jump\t// in\ntag_8:\n  pop\n  swap2\n  0x20\n  add\n  swap2\n  swap1\n  0x01\n  add\n  swap1\n  jump(tag_6)\ntag_7:\ntag_5:\n  pop\n  swap1\n  pop\n  tag_10\n  swap2\n  swap1\n  tag_11\n  jump\t// in\ntag_10:\n  pop\n  swap1\n  jump\t// out\ntag_9:\n  dup3\n  dup1\n  sload\n  tag_12\n  swap1\n  tag_13\n  jump\t// in\ntag_12:\n  swap1\n  0x00\n  mstore\n  keccak256(0x00, 0x20)\n  swap1\n  0x1f\n  add\n  0x20\n  swap1\n  div\n  dup2\n  add\n  swap3\n  dup3\n  tag_15\n  jumpi\n  0x00\n  dup6\n  sstore\n  jump(tag_14)\ntag_15:\n  dup3\n  0x1f\n  lt\n  tag_16\n  jumpi\n  dup1\n  mload\n  not(0xff)\n  and\n  dup4\n  dup1\n  add\n  or\n  dup6\n  sstore\n  jump(tag_14)\ntag_16:\n  dup3\n  dup1\n  add\n  0x01\n  add\n  dup6\n  sstore\n  dup3\n  iszero\n  tag_14\n  jumpi\n  swap2\n  dup3\n  add\ntag_17:\n  dup3\n  dup2\n  gt\n  iszero\n  tag_18\n  jumpi\n  dup3\n  mload\n  dup3\n  sstore\n  swap2\n  0x20\n  add\n  swap2\n  swap1\n  0x01\n  add\n  swap1\n  jump(tag_17)\ntag_18:\ntag_14:\n  pop\n  swap1\n  pop\n  tag_19\n  swap2\n  swap1\n  tag_20\n  jump\t// in\ntag_19:\n  pop\n  swap1\n  jump\t// out\ntag_11:\ntag_21:\n  dup1\n  dup3\n  gt\n  iszero\n  tag_22\n  jumpi\n  0x00\n  dup2\n  dup2\n  tag_23\n  swap2\n  swap1\n  tag_24\n  jump\t// in\ntag_23:\n  pop\n  0x01\n  add\n  jump(tag_21)\ntag_22:\n  pop\n  swap1\n  jump\t// out\ntag_20:\ntag_25:\n  dup1\n  dup3\n  gt\n  iszero\n  tag_26\n  jumpi\n  0x00\n  dup2\n  0x00\n  swap1\n  sstore\n  pop\n  0x01\n  add\n  jump(tag_25)\ntag_26:\n  pop\n  swap1\n  jump\t// out\ntag_24:\n  pop\n  dup1\n  sload\n  tag_27\n  swap1\n  tag_13\n  jump\t// in\ntag_27:\n  0x00\n  dup3\n  sstore\n  dup1\n  0x1f\n  lt\n  tag_29\n  jumpi\n  pop\n  jump(tag_28)\ntag_29:\n  0x1f\n  add\n  0x20\n  swap1\n  div\n  swap1\n  0x00\n  mstore\n  keccak256(0x00, 0x20)\n  swap1\n  dup2\n  add\n  swap1\n  tag_30\n  swap2\n  swap1\n  tag_20\n  jump\t// in\ntag_30:\ntag_28:\n  pop\n  jump\t// out\n    /* \"#utility.yul\":7:327   */\ntag_13:\n    /* \"#utility.yul\":51:57   */\n  0x00\n    /* \"#utility.yul\":88:89   */\n  0x02\n    /* \"#utility.yul\":82:86   */\n  dup3\n    /* \"#utility.yul\":78:90   */\n  div\n    /* \"#utility.yul\":68:90   */\n  swap1\n  pop\n    /* \"#utility.yul\":135:136   */\n  0x01\n    /* \"#utility.yul\":129:133   */\n  dup3\n    /* \"#utility.yul\":125:137   */\n  and\n    /* \"#utility.yul\":156:174   */\n  dup1\n    /* \"#utility.yul\":146:227   */\n  tag_33\n  jumpi\n    /* \"#utility.yul\":212:216   */\n  0x7f\n    /* \"#utility.yul\":204:210   */\n  dup3\n    /* \"#utility.yul\":200:217   */\n  and\n    /* \"#utility.yul\":190:217   */\n  swap2\n  pop\n    /* \"#utility.yul\":146:227   */\ntag_33:\n    /* \"#utility.yul\":274:276   */\n  0x20\n    /* \"#utility.yul\":266:272   */\n  dup3\n    /* \"#utility.yul\":263:277   */\n  lt\n    /* \"#utility.yul\":243:261   */\n  dup2\n    /* \"#utility.yul\":240:278   */\n  eq\n    /* \"#utility.yul\":237:321   */\n  iszero\n  tag_34\n  jumpi\n    /* \"#utility.yul\":293:311   */\n  tag_35\n  tag_36\n  jump\t// in\ntag_35:\n    /* \"#utility.yul\":237:321   */\ntag_34:\n    /* \"#utility.yul\":58:327   */\n  pop\n    /* \"#utility.yul\":7:327   */\n  swap2\n  swap1\n  pop\n  jump\t// out\n    /* \"#utility.yul\":333:513   */\ntag_36:\n    /* \"#utility.yul\":381:458   */\n  0x4e487b7100000000000000000000000000000000000000000000000000000000\n    /* \"#utility.yul\":378:379   */\n  0x00\n    /* \"#utility.yul\":371:459   */\n  mstore\n    /* \"#utility.yul\":478:482   */\n  0x22\n    /* \"#utility.yul\":475:476   */\n  0x04\n    /* \"#utility.yul\":468:483   */\n  mstore\n    /* \"#utility.yul\":502:506   */\n  0x24\n    /* \"#utility.yul\":499:500   */\n  0x00\n    /* \"#utility.yul\":492:507   */\n  revert\n    /* \"chapter5/Ex5_3.sol\":72:1208  contract Ex5_3 {\r... */\ntag_4:\n  dataSize(sub_0)\n  dup1\n  dataOffset(sub_0)\n  0x00\n  codecopy\n  0x00\n  return\nstop\n\nsub_0: assembly {\n        /* \"chapter5/Ex5_3.sol\":72:1208  contract Ex5_3 {\r... */\n      mstore(0x40, 0x80)\n      callvalue\n      dup1\n      iszero\n      tag_1\n      jumpi\n      0x00\n      dup1\n      revert\n    tag_1:\n      pop\n      jumpi(tag_2, lt(calldatasize, 0x04))\n      shr(0xe0, calldataload(0x00))\n      dup1\n      0x64924310\n      gt\n      tag_12\n      jumpi\n      dup1\n      0x64924310\n      eq\n      tag_7\n      jumpi\n      dup1\n      0x7952deae\n      eq\n      tag_8\n      jumpi\n      dup1\n      0x8c00eb04\n      eq\n      tag_9\n      jumpi\n      dup1\n      0xae713d2a\n      eq\n      tag_10\n      jumpi\n      dup1\n      0xed85188e\n      eq\n      tag_11\n      jumpi\n      jump(tag_2)\n    tag_12:\n      dup1\n      0x0df904c3\n      eq\n      tag_3\n      jumpi\n      dup1\n      0x2aab02d0\n      eq\n      tag_4\n      jumpi\n      dup1\n      0x4bae89cb\n      eq\n      tag_5\n      jumpi\n      dup1\n      0x61125b63\n      eq\n      tag_6\n      jumpi\n    tag_2:\n      0x00\n      dup1\n      revert\n        /* \"chapter5/Ex5_3.sol\":944:1050  function changeArray2(uint _index, string memory _value) public {\r... */\n    tag_3:\n      tag_13\n      0x04\n      dup1\n      calldatasize\n      sub\n      dup2\n      add\n      swap1\n      tag_14\n      swap2\n      swap1\n      tag_15\n      jump\t// in\n    tag_14:\n      tag_16\n      jump\t// in\n    tag_13:\n      stop\n        /* \"chapter5/Ex5_3.sol\":281:368  function getLength2() public view returns(uint) {\r... */\n    tag_4:\n      tag_17\n      tag_18\n      jump\t// in\n    tag_17:\n      mload(0x40)\n      tag_19\n      swap2\n      swap1\n      tag_20\n      jump\t// in\n    tag_19:\n      mload(0x40)\n      dup1\n      swap2\n      sub\n      swap1\n      return\n        /* \"chapter5/Ex5_3.sol\":94:114  uint[] public array1 */\n    tag_5:\n      tag_21\n      0x04\n      dup1\n      calldatasize\n      sub\n      dup2\n      add\n      swap1\n      tag_22\n      swap2\n      swap1\n      tag_23\n      jump\t// in\n    tag_22:\n      tag_24\n      jump\t// in\n    tag_21:\n      mload(0x40)\n      tag_25\n      swap2\n      swap1\n      tag_20\n      jump\t// in\n    tag_25:\n      mload(0x40)\n      dup1\n      swap2\n      sub\n      swap1\n      return\n        /* \"chapter5/Ex5_3.sol\":121:177  string[5] public array2 = [\"apple\", \"banana\", \"coconut\"] */\n    tag_6:\n      tag_26\n      0x04\n      dup1\n      calldatasize\n      sub\n      dup2\n      add\n      swap1\n      tag_27\n      swap2\n      swap1\n      tag_23\n      jump\t// in\n    tag_27:\n      tag_28\n      jump\t// in\n    tag_26:\n      mload(0x40)\n      tag_29\n      swap2\n      swap1\n      tag_30\n      jump\t// in\n    tag_29:\n      mload(0x40)\n      dup1\n      swap2\n      sub\n      swap1\n      return\n        /* \"chapter5/Ex5_3.sol\":605:682  function addArray1(uint _value) public {\r... */\n    tag_7:\n      tag_31\n      0x04\n      dup1\n      calldatasize\n      sub\n      dup2\n      add\n      swap1\n      tag_32\n      swap2\n      swap1\n      tag_23\n      jump\t// in\n    tag_32:\n      tag_33\n      jump\t// in\n    tag_31:\n      stop\n        /* \"chapter5/Ex5_3.sol\":1124:1205  function deleteArray(uint _index) public {\r... */\n    tag_8:\n      tag_34\n      0x04\n      dup1\n      calldatasize\n      sub\n      dup2\n      add\n      swap1\n      tag_35\n      swap2\n      swap1\n      tag_23\n      jump\t// in\n    tag_35:\n      tag_36\n      jump\t// in\n    tag_34:\n      stop\n        /* \"chapter5/Ex5_3.sol\":839:936  function changeArray1(uint _index, uint _value) public {\r... */\n    tag_9:\n      tag_37\n      0x04\n      dup1\n      calldatasize\n      sub\n      dup2\n      add\n      swap1\n      tag_38\n      swap2\n      swap1\n      tag_39\n      jump\t// in\n    tag_38:\n      tag_40\n      jump\t// in\n    tag_37:\n      stop\n        /* \"chapter5/Ex5_3.sol\":1058:1116  function popArray() public {\r... */\n    tag_10:\n      tag_41\n      tag_42\n      jump\t// in\n    tag_41:\n      stop\n        /* \"chapter5/Ex5_3.sol\":186:273  function getLength1() public view returns(uint) {\r... */\n    tag_11:\n      tag_43\n      tag_44\n      jump\t// in\n    tag_43:\n      mload(0x40)\n      tag_45\n      swap2\n      swap1\n      tag_20\n      jump\t// in\n    tag_45:\n      mload(0x40)\n      dup1\n      swap2\n      sub\n      swap1\n      return\n        /* \"chapter5/Ex5_3.sol\":944:1050  function changeArray2(uint _index, string memory _value) public {\r... */\n    tag_16:\n        /* \"chapter5/Ex5_3.sol\":1036:1042  _value */\n      dup1\n        /* \"chapter5/Ex5_3.sol\":1019:1025  array2 */\n      0x01\n        /* \"chapter5/Ex5_3.sol\":1026:1032  _index */\n      dup4\n        /* \"chapter5/Ex5_3.sol\":1019:1033  array2[_index] */\n      0x05\n      dup2\n      lt\n      tag_47\n      jumpi\n      tag_48\n      tag_49\n      jump\t// in\n    tag_48:\n    tag_47:\n      add\n        /* \"chapter5/Ex5_3.sol\":1019:1042  array2[_index] = _value */\n      swap1\n      dup1\n      mload\n      swap1\n      0x20\n      add\n      swap1\n      tag_51\n      swap3\n      swap2\n      swap1\n      tag_52\n      jump\t// in\n    tag_51:\n      pop\n        /* \"chapter5/Ex5_3.sol\":944:1050  function changeArray2(uint _index, string memory _value) public {\r... */\n      pop\n      pop\n      jump\t// out\n        /* \"chapter5/Ex5_3.sol\":281:368  function getLength2() public view returns(uint) {\r... */\n    tag_18:\n        /* \"chapter5/Ex5_3.sol\":323:327  uint */\n      0x00\n        /* \"chapter5/Ex5_3.sol\":347:360  array2.length */\n      0x05\n        /* \"chapter5/Ex5_3.sol\":340:360  return array2.length */\n      swap1\n      pop\n        /* \"chapter5/Ex5_3.sol\":281:368  function getLength2() public view returns(uint) {\r... */\n      swap1\n      jump\t// out\n        /* \"chapter5/Ex5_3.sol\":94:114  uint[] public array1 */\n    tag_24:\n      0x00\n      dup2\n      dup2\n      sload\n      dup2\n      lt\n      tag_54\n      jumpi\n      0x00\n      dup1\n      revert\n    tag_54:\n      swap1\n      0x00\n      mstore\n      keccak256(0x00, 0x20)\n      add\n      0x00\n      swap2\n      pop\n      swap1\n      pop\n      sload\n      dup2\n      jump\t// out\n        /* \"chapter5/Ex5_3.sol\":121:177  string[5] public array2 = [\"apple\", \"banana\", \"coconut\"] */\n    tag_28:\n      0x01\n      dup2\n      0x05\n      dup2\n      lt\n      tag_56\n      jumpi\n      0x00\n      dup1\n      revert\n    tag_56:\n      add\n      0x00\n      swap2\n      pop\n      swap1\n      pop\n      dup1\n      sload\n      tag_58\n      swap1\n      tag_59\n      jump\t// in\n    tag_58:\n      dup1\n      0x1f\n      add\n      0x20\n      dup1\n      swap2\n      div\n      mul\n      0x20\n      add\n      mload(0x40)\n      swap1\n      dup2\n      add\n      0x40\n      mstore\n      dup1\n      swap3\n      swap2\n      swap1\n      dup2\n      dup2\n      mstore\n      0x20\n      add\n      dup3\n      dup1\n      sload\n      tag_60\n      swap1\n      tag_59\n      jump\t// in\n    tag_60:\n      dup1\n      iszero\n      tag_61\n      jumpi\n      dup1\n      0x1f\n      lt\n      tag_62\n      jumpi\n      0x0100\n      dup1\n      dup4\n      sload\n      div\n      mul\n      dup4\n      mstore\n      swap2\n      0x20\n      add\n      swap2\n      jump(tag_61)\n    tag_62:\n      dup3\n      add\n      swap2\n      swap1\n      0x00\n      mstore\n      keccak256(0x00, 0x20)\n      swap1\n    tag_63:\n      dup2\n      sload\n      dup2\n      mstore\n      swap1\n      0x01\n      add\n      swap1\n      0x20\n      add\n      dup1\n      dup4\n      gt\n      tag_63\n      jumpi\n      dup3\n      swap1\n      sub\n      0x1f\n      and\n      dup3\n      add\n      swap2\n    tag_61:\n      pop\n      pop\n      pop\n      pop\n      pop\n      dup2\n      jump\t// out\n        /* \"chapter5/Ex5_3.sol\":605:682  function addArray1(uint _value) public {\r... */\n    tag_33:\n        /* \"chapter5/Ex5_3.sol\":655:661  array1 */\n      0x00\n        /* \"chapter5/Ex5_3.sol\":667:673  _value */\n      dup2\n        /* \"chapter5/Ex5_3.sol\":655:674  array1.push(_value) */\n      swap1\n      dup1\n      0x01\n      dup2\n      sload\n      add\n      dup1\n      dup3\n      sstore\n      dup1\n      swap2\n      pop\n      pop\n      0x01\n      swap1\n      sub\n      swap1\n      0x00\n      mstore\n      keccak256(0x00, 0x20)\n      add\n      0x00\n      swap1\n      swap2\n      swap1\n      swap2\n      swap1\n      swap2\n      pop\n      sstore\n        /* \"chapter5/Ex5_3.sol\":605:682  function addArray1(uint _value) public {\r... */\n      pop\n      jump\t// out\n        /* \"chapter5/Ex5_3.sol\":1124:1205  function deleteArray(uint _index) public {\r... */\n    tag_36:\n        /* \"chapter5/Ex5_3.sol\":1183:1189  array1 */\n      0x00\n        /* \"chapter5/Ex5_3.sol\":1190:1196  _index */\n      dup2\n        /* \"chapter5/Ex5_3.sol\":1183:1197  array1[_index] */\n      dup2\n      sload\n      dup2\n      lt\n      tag_67\n      jumpi\n      tag_68\n      tag_49\n      jump\t// in\n    tag_68:\n    tag_67:\n      swap1\n      0x00\n      mstore\n      keccak256(0x00, 0x20)\n      add\n        /* \"chapter5/Ex5_3.sol\":1176:1197  delete array1[_index] */\n      0x00\n      swap1\n      sstore\n        /* \"chapter5/Ex5_3.sol\":1124:1205  function deleteArray(uint _index) public {\r... */\n      pop\n      jump\t// out\n        /* \"chapter5/Ex5_3.sol\":839:936  function changeArray1(uint _index, uint _value) public {\r... */\n    tag_40:\n        /* \"chapter5/Ex5_3.sol\":922:928  _value */\n      dup1\n        /* \"chapter5/Ex5_3.sol\":905:911  array1 */\n      0x00\n        /* \"chapter5/Ex5_3.sol\":912:918  _index */\n      dup4\n        /* \"chapter5/Ex5_3.sol\":905:919  array1[_index] */\n      dup2\n      sload\n      dup2\n      lt\n      tag_71\n      jumpi\n      tag_72\n      tag_49\n      jump\t// in\n    tag_72:\n    tag_71:\n      swap1\n      0x00\n      mstore\n      keccak256(0x00, 0x20)\n      add\n        /* \"chapter5/Ex5_3.sol\":905:928  array1[_index] = _value */\n      dup2\n      swap1\n      sstore\n      pop\n        /* \"chapter5/Ex5_3.sol\":839:936  function changeArray1(uint _index, uint _value) public {\r... */\n      pop\n      pop\n      jump\t// out\n        /* \"chapter5/Ex5_3.sol\":1058:1116  function popArray() public {\r... */\n    tag_42:\n        /* \"chapter5/Ex5_3.sol\":1096:1102  array1 */\n      0x00\n        /* \"chapter5/Ex5_3.sol\":1096:1108  array1.pop() */\n      dup1\n      sload\n      dup1\n      tag_75\n      jumpi\n      tag_76\n      tag_77\n      jump\t// in\n    tag_76:\n    tag_75:\n      0x01\n      swap1\n      sub\n      dup2\n      dup2\n      swap1\n      0x00\n      mstore\n      keccak256(0x00, 0x20)\n      add\n      0x00\n      swap1\n      sstore\n      swap1\n      sstore\n        /* \"chapter5/Ex5_3.sol\":1058:1116  function popArray() public {\r... */\n      jump\t// out\n        /* \"chapter5/Ex5_3.sol\":186:273  function getLength1() public view returns(uint) {\r... */\n    tag_44:\n        /* \"chapter5/Ex5_3.sol\":228:232  uint */\n      0x00\n        /* \"chapter5/Ex5_3.sol\":252:258  array1 */\n      dup1\n        /* \"chapter5/Ex5_3.sol\":252:265  array1.length */\n      dup1\n      sload\n      swap1\n      pop\n        /* \"chapter5/Ex5_3.sol\":245:265  return array1.length */\n      swap1\n      pop\n        /* \"chapter5/Ex5_3.sol\":186:273  function getLength1() public view returns(uint) {\r... */\n      swap1\n      jump\t// out\n    tag_52:\n      dup3\n      dup1\n      sload\n      tag_80\n      swap1\n      tag_59\n      jump\t// in\n    tag_80:\n      swap1\n      0x00\n      mstore\n      keccak256(0x00, 0x20)\n      swap1\n      0x1f\n      add\n      0x20\n      swap1\n      div\n      dup2\n      add\n      swap3\n      dup3\n      tag_82\n      jumpi\n      0x00\n      dup6\n      sstore\n      jump(tag_81)\n    tag_82:\n      dup3\n      0x1f\n      lt\n      tag_83\n      jumpi\n      dup1\n      mload\n      not(0xff)\n      and\n      dup4\n      dup1\n      add\n      or\n      dup6\n      sstore\n      jump(tag_81)\n    tag_83:\n      dup3\n      dup1\n      add\n      0x01\n      add\n      dup6\n      sstore\n      dup3\n      iszero\n      tag_81\n      jumpi\n      swap2\n      dup3\n      add\n    tag_84:\n      dup3\n      dup2\n      gt\n      iszero\n      tag_85\n      jumpi\n      dup3\n      mload\n      dup3\n      sstore\n      swap2\n      0x20\n      add\n      swap2\n      swap1\n      0x01\n      add\n      swap1\n      jump(tag_84)\n    tag_85:\n    tag_81:\n      pop\n      swap1\n      pop\n      tag_86\n      swap2\n      swap1\n      tag_87\n      jump\t// in\n    tag_86:\n      pop\n      swap1\n      jump\t// out\n    tag_87:\n    tag_88:\n      dup1\n      dup3\n      gt\n      iszero\n      tag_89\n      jumpi\n      0x00\n      dup2\n      0x00\n      swap1\n      sstore\n      pop\n      0x01\n      add\n      jump(tag_88)\n    tag_89:\n      pop\n      swap1\n      jump\t// out\n        /* \"#utility.yul\":7:419   */\n    tag_91:\n        /* \"#utility.yul\":85:90   */\n      0x00\n        /* \"#utility.yul\":110:176   */\n      tag_93\n        /* \"#utility.yul\":126:175   */\n      tag_94\n        /* \"#utility.yul\":168:174   */\n      dup5\n        /* \"#utility.yul\":126:175   */\n      tag_95\n      jump\t// in\n    tag_94:\n        /* \"#utility.yul\":110:176   */\n      tag_96\n      jump\t// in\n    tag_93:\n        /* \"#utility.yul\":101:176   */\n      swap1\n      pop\n        /* \"#utility.yul\":199:205   */\n      dup3\n        /* \"#utility.yul\":192:197   */\n      dup2\n        /* \"#utility.yul\":185:206   */\n      mstore\n        /* \"#utility.yul\":237:241   */\n      0x20\n        /* \"#utility.yul\":230:235   */\n      dup2\n        /* \"#utility.yul\":226:242   */\n      add\n        /* \"#utility.yul\":275:278   */\n      dup5\n        /* \"#utility.yul\":266:272   */\n      dup5\n        /* \"#utility.yul\":261:264   */\n      dup5\n        /* \"#utility.yul\":257:273   */\n      add\n        /* \"#utility.yul\":254:279   */\n      gt\n        /* \"#utility.yul\":251:363   */\n      iszero\n      tag_97\n      jumpi\n        /* \"#utility.yul\":282:361   */\n      tag_98\n      tag_99\n      jump\t// in\n    tag_98:\n        /* \"#utility.yul\":251:363   */\n    tag_97:\n        /* \"#utility.yul\":372:413   */\n      tag_100\n        /* \"#utility.yul\":406:412   */\n      dup5\n        /* \"#utility.yul\":401:404   */\n      dup3\n        /* \"#utility.yul\":396:399   */\n      dup6\n        /* \"#utility.yul\":372:413   */\n      tag_101\n      jump\t// in\n    tag_100:\n        /* \"#utility.yul\":91:419   */\n      pop\n        /* \"#utility.yul\":7:419   */\n      swap4\n      swap3\n      pop\n      pop\n      pop\n      jump\t// out\n        /* \"#utility.yul\":439:779   */\n    tag_102:\n        /* \"#utility.yul\":495:500   */\n      0x00\n        /* \"#utility.yul\":544:547   */\n      dup3\n        /* \"#utility.yul\":537:541   */\n      0x1f\n        /* \"#utility.yul\":529:535   */\n      dup4\n        /* \"#utility.yul\":525:542   */\n      add\n        /* \"#utility.yul\":521:548   */\n      slt\n        /* \"#utility.yul\":511:633   */\n      tag_104\n      jumpi\n        /* \"#utility.yul\":552:631   */\n      tag_105\n      tag_106\n      jump\t// in\n    tag_105:\n        /* \"#utility.yul\":511:633   */\n    tag_104:\n        /* \"#utility.yul\":669:675   */\n      dup2\n        /* \"#utility.yul\":656:676   */\n      calldataload\n        /* \"#utility.yul\":694:773   */\n      tag_107\n        /* \"#utility.yul\":769:772   */\n      dup5\n        /* \"#utility.yul\":761:767   */\n      dup3\n        /* \"#utility.yul\":754:758   */\n      0x20\n        /* \"#utility.yul\":746:752   */\n      dup7\n        /* \"#utility.yul\":742:759   */\n      add\n        /* \"#utility.yul\":694:773   */\n      tag_91\n      jump\t// in\n    tag_107:\n        /* \"#utility.yul\":685:773   */\n      swap2\n      pop\n        /* \"#utility.yul\":501:779   */\n      pop\n        /* \"#utility.yul\":439:779   */\n      swap3\n      swap2\n      pop\n      pop\n      jump\t// out\n        /* \"#utility.yul\":785:924   */\n    tag_108:\n        /* \"#utility.yul\":831:836   */\n      0x00\n        /* \"#utility.yul\":869:875   */\n      dup2\n        /* \"#utility.yul\":856:876   */\n      calldataload\n        /* \"#utility.yul\":847:876   */\n      swap1\n      pop\n        /* \"#utility.yul\":885:918   */\n      tag_110\n        /* \"#utility.yul\":912:917   */\n      dup2\n        /* \"#utility.yul\":885:918   */\n      tag_111\n      jump\t// in\n    tag_110:\n        /* \"#utility.yul\":785:924   */\n      swap3\n      swap2\n      pop\n      pop\n      jump\t// out\n        /* \"#utility.yul\":930:1259   */\n    tag_23:\n        /* \"#utility.yul\":989:995   */\n      0x00\n        /* \"#utility.yul\":1038:1040   */\n      0x20\n        /* \"#utility.yul\":1026:1035   */\n      dup3\n        /* \"#utility.yul\":1017:1024   */\n      dup5\n        /* \"#utility.yul\":1013:1036   */\n      sub\n        /* \"#utility.yul\":1009:1041   */\n      slt\n        /* \"#utility.yul\":1006:1125   */\n      iszero\n      tag_113\n      jumpi\n        /* \"#utility.yul\":1044:1123   */\n      tag_114\n      tag_115\n      jump\t// in\n    tag_114:\n        /* \"#utility.yul\":1006:1125   */\n    tag_113:\n        /* \"#utility.yul\":1164:1165   */\n      0x00\n        /* \"#utility.yul\":1189:1242   */\n      tag_116\n        /* \"#utility.yul\":1234:1241   */\n      dup5\n        /* \"#utility.yul\":1225:1231   */\n      dup3\n        /* \"#utility.yul\":1214:1223   */\n      dup6\n        /* \"#utility.yul\":1210:1232   */\n      add\n        /* \"#utility.yul\":1189:1242   */\n      tag_108\n      jump\t// in\n    tag_116:\n        /* \"#utility.yul\":1179:1242   */\n      swap2\n      pop\n        /* \"#utility.yul\":1135:1252   */\n      pop\n        /* \"#utility.yul\":930:1259   */\n      swap3\n      swap2\n      pop\n      pop\n      jump\t// out\n        /* \"#utility.yul\":1265:1919   */\n    tag_15:\n        /* \"#utility.yul\":1343:1349   */\n      0x00\n        /* \"#utility.yul\":1351:1357   */\n      dup1\n        /* \"#utility.yul\":1400:1402   */\n      0x40\n        /* \"#utility.yul\":1388:1397   */\n      dup4\n        /* \"#utility.yul\":1379:1386   */\n      dup6\n        /* \"#utility.yul\":1375:1398   */\n      sub\n        /* \"#utility.yul\":1371:1403   */\n      slt\n        /* \"#utility.yul\":1368:1487   */\n      iszero\n      tag_118\n      jumpi\n        /* \"#utility.yul\":1406:1485   */\n      tag_119\n      tag_115\n      jump\t// in\n    tag_119:\n        /* \"#utility.yul\":1368:1487   */\n    tag_118:\n        /* \"#utility.yul\":1526:1527   */\n      0x00\n        /* \"#utility.yul\":1551:1604   */\n      tag_120\n        /* \"#utility.yul\":1596:1603   */\n      dup6\n        /* \"#utility.yul\":1587:1593   */\n      dup3\n        /* \"#utility.yul\":1576:1585   */\n      dup7\n        /* \"#utility.yul\":1572:1594   */\n      add\n        /* \"#utility.yul\":1551:1604   */\n      tag_108\n      jump\t// in\n    tag_120:\n        /* \"#utility.yul\":1541:1604   */\n      swap3\n      pop\n        /* \"#utility.yul\":1497:1614   */\n      pop\n        /* \"#utility.yul\":1681:1683   */\n      0x20\n        /* \"#utility.yul\":1670:1679   */\n      dup4\n        /* \"#utility.yul\":1666:1684   */\n      add\n        /* \"#utility.yul\":1653:1685   */\n      calldataload\n        /* \"#utility.yul\":1712:1730   */\n      0xffffffffffffffff\n        /* \"#utility.yul\":1704:1710   */\n      dup2\n        /* \"#utility.yul\":1701:1731   */\n      gt\n        /* \"#utility.yul\":1698:1815   */\n      iszero\n      tag_121\n      jumpi\n        /* \"#utility.yul\":1734:1813   */\n      tag_122\n      tag_123\n      jump\t// in\n    tag_122:\n        /* \"#utility.yul\":1698:1815   */\n    tag_121:\n        /* \"#utility.yul\":1839:1902   */\n      tag_124\n        /* \"#utility.yul\":1894:1901   */\n      dup6\n        /* \"#utility.yul\":1885:1891   */\n      dup3\n        /* \"#utility.yul\":1874:1883   */\n      dup7\n        /* \"#utility.yul\":1870:1892   */\n      add\n        /* \"#utility.yul\":1839:1902   */\n      tag_102\n      jump\t// in\n    tag_124:\n        /* \"#utility.yul\":1829:1902   */\n      swap2\n      pop\n        /* \"#utility.yul\":1624:1912   */\n      pop\n        /* \"#utility.yul\":1265:1919   */\n      swap3\n      pop\n      swap3\n      swap1\n      pop\n      jump\t// out\n        /* \"#utility.yul\":1925:2399   */\n    tag_39:\n        /* \"#utility.yul\":1993:1999   */\n      0x00\n        /* \"#utility.yul\":2001:2007   */\n      dup1\n        /* \"#utility.yul\":2050:2052   */\n      0x40\n        /* \"#utility.yul\":2038:2047   */\n      dup4\n        /* \"#utility.yul\":2029:2036   */\n      dup6\n        /* \"#utility.yul\":2025:2048   */\n      sub\n        /* \"#utility.yul\":2021:2053   */\n      slt\n        /* \"#utility.yul\":2018:2137   */\n      iszero\n      tag_126\n      jumpi\n        /* \"#utility.yul\":2056:2135   */\n      tag_127\n      tag_115\n      jump\t// in\n    tag_127:\n        /* \"#utility.yul\":2018:2137   */\n    tag_126:\n        /* \"#utility.yul\":2176:2177   */\n      0x00\n        /* \"#utility.yul\":2201:2254   */\n      tag_128\n        /* \"#utility.yul\":2246:2253   */\n      dup6\n        /* \"#utility.yul\":2237:2243   */\n      dup3\n        /* \"#utility.yul\":2226:2235   */\n      dup7\n        /* \"#utility.yul\":2222:2244   */\n      add\n        /* \"#utility.yul\":2201:2254   */\n      tag_108\n      jump\t// in\n    tag_128:\n        /* \"#utility.yul\":2191:2254   */\n      swap3\n      pop\n        /* \"#utility.yul\":2147:2264   */\n      pop\n        /* \"#utility.yul\":2303:2305   */\n      0x20\n        /* \"#utility.yul\":2329:2382   */\n      tag_129\n        /* \"#utility.yul\":2374:2381   */\n      dup6\n        /* \"#utility.yul\":2365:2371   */\n      dup3\n        /* \"#utility.yul\":2354:2363   */\n      dup7\n        /* \"#utility.yul\":2350:2372   */\n      add\n        /* \"#utility.yul\":2329:2382   */\n      tag_108\n      jump\t// in\n    tag_129:\n        /* \"#utility.yul\":2319:2382   */\n      swap2\n      pop\n        /* \"#utility.yul\":2274:2392   */\n      pop\n        /* \"#utility.yul\":1925:2399   */\n      swap3\n      pop\n      swap3\n      swap1\n      pop\n      jump\t// out\n        /* \"#utility.yul\":2405:2769   */\n    tag_130:\n        /* \"#utility.yul\":2493:2496   */\n      0x00\n        /* \"#utility.yul\":2521:2560   */\n      tag_132\n        /* \"#utility.yul\":2554:2559   */\n      dup3\n        /* \"#utility.yul\":2521:2560   */\n      tag_133\n      jump\t// in\n    tag_132:\n        /* \"#utility.yul\":2576:2647   */\n      tag_134\n        /* \"#utility.yul\":2640:2646   */\n      dup2\n        /* \"#utility.yul\":2635:2638   */\n      dup6\n        /* \"#utility.yul\":2576:2647   */\n      tag_135\n      jump\t// in\n    tag_134:\n        /* \"#utility.yul\":2569:2647   */\n      swap4\n      pop\n        /* \"#utility.yul\":2656:2708   */\n      tag_136\n        /* \"#utility.yul\":2701:2707   */\n      dup2\n        /* \"#utility.yul\":2696:2699   */\n      dup6\n        /* \"#utility.yul\":2689:2693   */\n      0x20\n        /* \"#utility.yul\":2682:2687   */\n      dup7\n        /* \"#utility.yul\":2678:2694   */\n      add\n        /* \"#utility.yul\":2656:2708   */\n      tag_137\n      jump\t// in\n    tag_136:\n        /* \"#utility.yul\":2733:2762   */\n      tag_138\n        /* \"#utility.yul\":2755:2761   */\n      dup2\n        /* \"#utility.yul\":2733:2762   */\n      tag_139\n      jump\t// in\n    tag_138:\n        /* \"#utility.yul\":2728:2731   */\n      dup5\n        /* \"#utility.yul\":2724:2763   */\n      add\n        /* \"#utility.yul\":2717:2763   */\n      swap2\n      pop\n        /* \"#utility.yul\":2497:2769   */\n      pop\n        /* \"#utility.yul\":2405:2769   */\n      swap3\n      swap2\n      pop\n      pop\n      jump\t// out\n        /* \"#utility.yul\":2775:2893   */\n    tag_140:\n        /* \"#utility.yul\":2862:2886   */\n      tag_142\n        /* \"#utility.yul\":2880:2885   */\n      dup2\n        /* \"#utility.yul\":2862:2886   */\n      tag_143\n      jump\t// in\n    tag_142:\n        /* \"#utility.yul\":2857:2860   */\n      dup3\n        /* \"#utility.yul\":2850:2887   */\n      mstore\n        /* \"#utility.yul\":2775:2893   */\n      pop\n      pop\n      jump\t// out\n        /* \"#utility.yul\":2899:3212   */\n    tag_30:\n        /* \"#utility.yul\":3012:3016   */\n      0x00\n        /* \"#utility.yul\":3050:3052   */\n      0x20\n        /* \"#utility.yul\":3039:3048   */\n      dup3\n        /* \"#utility.yul\":3035:3053   */\n      add\n        /* \"#utility.yul\":3027:3053   */\n      swap1\n      pop\n        /* \"#utility.yul\":3099:3108   */\n      dup2\n        /* \"#utility.yul\":3093:3097   */\n      dup2\n        /* \"#utility.yul\":3089:3109   */\n      sub\n        /* \"#utility.yul\":3085:3086   */\n      0x00\n        /* \"#utility.yul\":3074:3083   */\n      dup4\n        /* \"#utility.yul\":3070:3087   */\n      add\n        /* \"#utility.yul\":3063:3110   */\n      mstore\n        /* \"#utility.yul\":3127:3205   */\n      tag_145\n        /* \"#utility.yul\":3200:3204   */\n      dup2\n        /* \"#utility.yul\":3191:3197   */\n      dup5\n        /* \"#utility.yul\":3127:3205   */\n      tag_130\n      jump\t// in\n    tag_145:\n        /* \"#utility.yul\":3119:3205   */\n      swap1\n      pop\n        /* \"#utility.yul\":2899:3212   */\n      swap3\n      swap2\n      pop\n      pop\n      jump\t// out\n        /* \"#utility.yul\":3218:3440   */\n    tag_20:\n        /* \"#utility.yul\":3311:3315   */\n      0x00\n        /* \"#utility.yul\":3349:3351   */\n      0x20\n        /* \"#utility.yul\":3338:3347   */\n      dup3\n        /* \"#utility.yul\":3334:3352   */\n      add\n        /* \"#utility.yul\":3326:3352   */\n      swap1\n      pop\n        /* \"#utility.yul\":3362:3433   */\n      tag_147\n        /* \"#utility.yul\":3430:3431   */\n      0x00\n        /* \"#utility.yul\":3419:3428   */\n      dup4\n        /* \"#utility.yul\":3415:3432   */\n      add\n        /* \"#utility.yul\":3406:3412   */\n      dup5\n        /* \"#utility.yul\":3362:3433   */\n      tag_140\n      jump\t// in\n    tag_147:\n        /* \"#utility.yul\":3218:3440   */\n      swap3\n      swap2\n      pop\n      pop\n      jump\t// out\n        /* \"#utility.yul\":3446:3575   */\n    tag_96:\n        /* \"#utility.yul\":3480:3486   */\n      0x00\n        /* \"#utility.yul\":3507:3527   */\n      tag_149\n      tag_150\n      jump\t// in\n    tag_149:\n        /* \"#utility.yul\":3497:3527   */\n      swap1\n      pop\n        /* \"#utility.yul\":3536:3569   */\n      tag_151\n        /* \"#utility.yul\":3564:3568   */\n      dup3\n        /* \"#utility.yul\":3556:3562   */\n      dup3\n        /* \"#utility.yul\":3536:3569   */\n      tag_152\n      jump\t// in\n    tag_151:\n        /* \"#utility.yul\":3446:3575   */\n      swap2\n      swap1\n      pop\n      jump\t// out\n        /* \"#utility.yul\":3581:3656   */\n    tag_150:\n        /* \"#utility.yul\":3614:3620   */\n      0x00\n        /* \"#utility.yul\":3647:3649   */\n      0x40\n        /* \"#utility.yul\":3641:3650   */\n      mload\n        /* \"#utility.yul\":3631:3650   */\n      swap1\n      pop\n        /* \"#utility.yul\":3581:3656   */\n      swap1\n      jump\t// out\n        /* \"#utility.yul\":3662:3970   */\n    tag_95:\n        /* \"#utility.yul\":3724:3728   */\n      0x00\n        /* \"#utility.yul\":3814:3832   */\n      0xffffffffffffffff\n        /* \"#utility.yul\":3806:3812   */\n      dup3\n        /* \"#utility.yul\":3803:3833   */\n      gt\n        /* \"#utility.yul\":3800:3856   */\n      iszero\n      tag_155\n      jumpi\n        /* \"#utility.yul\":3836:3854   */\n      tag_156\n      tag_157\n      jump\t// in\n    tag_156:\n        /* \"#utility.yul\":3800:3856   */\n    tag_155:\n        /* \"#utility.yul\":3874:3903   */\n      tag_158\n        /* \"#utility.yul\":3896:3902   */\n      dup3\n        /* \"#utility.yul\":3874:3903   */\n      tag_139\n      jump\t// in\n    tag_158:\n        /* \"#utility.yul\":3866:3903   */\n      swap1\n      pop\n        /* \"#utility.yul\":3958:3962   */\n      0x20\n        /* \"#utility.yul\":3952:3956   */\n      dup2\n        /* \"#utility.yul\":3948:3963   */\n      add\n        /* \"#utility.yul\":3940:3963   */\n      swap1\n      pop\n        /* \"#utility.yul\":3662:3970   */\n      swap2\n      swap1\n      pop\n      jump\t// out\n        /* \"#utility.yul\":3976:4075   */\n    tag_133:\n        /* \"#utility.yul\":4028:4034   */\n      0x00\n        /* \"#utility.yul\":4062:4067   */\n      dup2\n        /* \"#utility.yul\":4056:4068   */\n      mload\n        /* \"#utility.yul\":4046:4068   */\n      swap1\n      pop\n        /* \"#utility.yul\":3976:4075   */\n      swap2\n      swap1\n      pop\n      jump\t// out\n        /* \"#utility.yul\":4081:4250   */\n    tag_135:\n        /* \"#utility.yul\":4165:4176   */\n      0x00\n        /* \"#utility.yul\":4199:4205   */\n      dup3\n        /* \"#utility.yul\":4194:4197   */\n      dup3\n        /* \"#utility.yul\":4187:4206   */\n      mstore\n        /* \"#utility.yul\":4239:4243   */\n      0x20\n        /* \"#utility.yul\":4234:4237   */\n      dup3\n        /* \"#utility.yul\":4230:4244   */\n      add\n        /* \"#utility.yul\":4215:4244   */\n      swap1\n      pop\n        /* \"#utility.yul\":4081:4250   */\n      swap3\n      swap2\n      pop\n      pop\n      jump\t// out\n        /* \"#utility.yul\":4256:4333   */\n    tag_143:\n        /* \"#utility.yul\":4293:4300   */\n      0x00\n        /* \"#utility.yul\":4322:4327   */\n      dup2\n        /* \"#utility.yul\":4311:4327   */\n      swap1\n      pop\n        /* \"#utility.yul\":4256:4333   */\n      swap2\n      swap1\n      pop\n      jump\t// out\n        /* \"#utility.yul\":4339:4493   */\n    tag_101:\n        /* \"#utility.yul\":4423:4429   */\n      dup3\n        /* \"#utility.yul\":4418:4421   */\n      dup2\n        /* \"#utility.yul\":4413:4416   */\n      dup4\n        /* \"#utility.yul\":4400:4430   */\n      calldatacopy\n        /* \"#utility.yul\":4485:4486   */\n      0x00\n        /* \"#utility.yul\":4476:4482   */\n      dup4\n        /* \"#utility.yul\":4471:4474   */\n      dup4\n        /* \"#utility.yul\":4467:4483   */\n      add\n        /* \"#utility.yul\":4460:4487   */\n      mstore\n        /* \"#utility.yul\":4339:4493   */\n      pop\n      pop\n      pop\n      jump\t// out\n        /* \"#utility.yul\":4499:4806   */\n    tag_137:\n        /* \"#utility.yul\":4567:4568   */\n      0x00\n        /* \"#utility.yul\":4577:4690   */\n    tag_164:\n        /* \"#utility.yul\":4591:4597   */\n      dup4\n        /* \"#utility.yul\":4588:4589   */\n      dup2\n        /* \"#utility.yul\":4585:4598   */\n      lt\n        /* \"#utility.yul\":4577:4690   */\n      iszero\n      tag_166\n      jumpi\n        /* \"#utility.yul\":4676:4677   */\n      dup1\n        /* \"#utility.yul\":4671:4674   */\n      dup3\n        /* \"#utility.yul\":4667:4678   */\n      add\n        /* \"#utility.yul\":4661:4679   */\n      mload\n        /* \"#utility.yul\":4657:4658   */\n      dup2\n        /* \"#utility.yul\":4652:4655   */\n      dup5\n        /* \"#utility.yul\":4648:4659   */\n      add\n        /* \"#utility.yul\":4641:4680   */\n      mstore\n        /* \"#utility.yul\":4613:4615   */\n      0x20\n        /* \"#utility.yul\":4610:4611   */\n      dup2\n        /* \"#utility.yul\":4606:4616   */\n      add\n        /* \"#utility.yul\":4601:4616   */\n      swap1\n      pop\n        /* \"#utility.yul\":4577:4690   */\n      jump(tag_164)\n    tag_166:\n        /* \"#utility.yul\":4708:4714   */\n      dup4\n        /* \"#utility.yul\":4705:4706   */\n      dup2\n        /* \"#utility.yul\":4702:4715   */\n      gt\n        /* \"#utility.yul\":4699:4800   */\n      iszero\n      tag_167\n      jumpi\n        /* \"#utility.yul\":4788:4789   */\n      0x00\n        /* \"#utility.yul\":4779:4785   */\n      dup5\n        /* \"#utility.yul\":4774:4777   */\n      dup5\n        /* \"#utility.yul\":4770:4786   */\n      add\n        /* \"#utility.yul\":4763:4790   */\n      mstore\n        /* \"#utility.yul\":4699:4800   */\n    tag_167:\n        /* \"#utility.yul\":4548:4806   */\n      pop\n        /* \"#utility.yul\":4499:4806   */\n      pop\n      pop\n      pop\n      jump\t// out\n        /* \"#utility.yul\":4812:5132   */\n    tag_59:\n        /* \"#utility.yul\":4856:4862   */\n      0x00\n        /* \"#utility.yul\":4893:4894   */\n      0x02\n        /* \"#utility.yul\":4887:4891   */\n      dup3\n        /* \"#utility.yul\":4883:4895   */\n      div\n        /* \"#utility.yul\":4873:4895   */\n      swap1\n      pop\n        /* \"#utility.yul\":4940:4941   */\n      0x01\n        /* \"#utility.yul\":4934:4938   */\n      dup3\n        /* \"#utility.yul\":4930:4942   */\n      and\n        /* \"#utility.yul\":4961:4979   */\n      dup1\n        /* \"#utility.yul\":4951:5032   */\n      tag_169\n      jumpi\n        /* \"#utility.yul\":5017:5021   */\n      0x7f\n        /* \"#utility.yul\":5009:5015   */\n      dup3\n        /* \"#utility.yul\":5005:5022   */\n      and\n        /* \"#utility.yul\":4995:5022   */\n      swap2\n      pop\n        /* \"#utility.yul\":4951:5032   */\n    tag_169:\n        /* \"#utility.yul\":5079:5081   */\n      0x20\n        /* \"#utility.yul\":5071:5077   */\n      dup3\n        /* \"#utility.yul\":5068:5082   */\n      lt\n        /* \"#utility.yul\":5048:5066   */\n      dup2\n        /* \"#utility.yul\":5045:5083   */\n      eq\n        /* \"#utility.yul\":5042:5126   */\n      iszero\n      tag_170\n      jumpi\n        /* \"#utility.yul\":5098:5116   */\n      tag_171\n      tag_172\n      jump\t// in\n    tag_171:\n        /* \"#utility.yul\":5042:5126   */\n    tag_170:\n        /* \"#utility.yul\":4863:5132   */\n      pop\n        /* \"#utility.yul\":4812:5132   */\n      swap2\n      swap1\n      pop\n      jump\t// out\n        /* \"#utility.yul\":5138:5419   */\n    tag_152:\n        /* \"#utility.yul\":5221:5248   */\n      tag_174\n        /* \"#utility.yul\":5243:5247   */\n      dup3\n        /* \"#utility.yul\":5221:5248   */\n      tag_139\n      jump\t// in\n    tag_174:\n        /* \"#utility.yul\":5213:5219   */\n      dup2\n        /* \"#utility.yul\":5209:5249   */\n      add\n        /* \"#utility.yul\":5351:5357   */\n      dup2\n        /* \"#utility.yul\":5339:5349   */\n      dup2\n        /* \"#utility.yul\":5336:5358   */\n      lt\n        /* \"#utility.yul\":5315:5333   */\n      0xffffffffffffffff\n        /* \"#utility.yul\":5303:5313   */\n      dup3\n        /* \"#utility.yul\":5300:5334   */\n      gt\n        /* \"#utility.yul\":5297:5359   */\n      or\n        /* \"#utility.yul\":5294:5382   */\n      iszero\n      tag_175\n      jumpi\n        /* \"#utility.yul\":5362:5380   */\n      tag_176\n      tag_157\n      jump\t// in\n    tag_176:\n        /* \"#utility.yul\":5294:5382   */\n    tag_175:\n        /* \"#utility.yul\":5402:5412   */\n      dup1\n        /* \"#utility.yul\":5398:5400   */\n      0x40\n        /* \"#utility.yul\":5391:5413   */\n      mstore\n        /* \"#utility.yul\":5181:5419   */\n      pop\n        /* \"#utility.yul\":5138:5419   */\n      pop\n      pop\n      jump\t// out\n        /* \"#utility.yul\":5425:5605   */\n    tag_172:\n        /* \"#utility.yul\":5473:5550   */\n      0x4e487b7100000000000000000000000000000000000000000000000000000000\n        /* \"#utility.yul\":5470:5471   */\n      0x00\n        /* \"#utility.yul\":5463:5551   */\n      mstore\n        /* \"#utility.yul\":5570:5574   */\n      0x22\n        /* \"#utility.yul\":5567:5568   */\n      0x04\n        /* \"#utility.yul\":5560:5575   */\n      mstore\n        /* \"#utility.yul\":5594:5598   */\n      0x24\n        /* \"#utility.yul\":5591:5592   */\n      0x00\n        /* \"#utility.yul\":5584:5599   */\n      revert\n        /* \"#utility.yul\":5611:5791   */\n    tag_77:\n        /* \"#utility.yul\":5659:5736   */\n      0x4e487b7100000000000000000000000000000000000000000000000000000000\n        /* \"#utility.yul\":5656:5657   */\n      0x00\n        /* \"#utility.yul\":5649:5737   */\n      mstore\n        /* \"#utility.yul\":5756:5760   */\n      0x31\n        /* \"#utility.yul\":5753:5754   */\n      0x04\n        /* \"#utility.yul\":5746:5761   */\n      mstore\n        /* \"#utility.yul\":5780:5784   */\n      0x24\n        /* \"#utility.yul\":5777:5778   */\n      0x00\n        /* \"#utility.yul\":5770:5785   */\n      revert\n        /* \"#utility.yul\":5797:5977   */\n    tag_49:\n        /* \"#utility.yul\":5845:5922   */\n      0x4e487b7100000000000000000000000000000000000000000000000000000000\n        /* \"#utility.yul\":5842:5843   */\n      0x00\n        /* \"#utility.yul\":5835:5923   */\n      mstore\n        /* \"#utility.yul\":5942:5946   */\n      0x32\n        /* \"#utility.yul\":5939:5940   */\n      0x04\n        /* \"#utility.yul\":5932:5947   */\n      mstore\n        /* \"#utility.yul\":5966:5970   */\n      0x24\n        /* \"#utility.yul\":5963:5964   */\n      0x00\n        /* \"#utility.yul\":5956:5971   */\n      revert\n        /* \"#utility.yul\":5983:6163   */\n    tag_157:\n        /* \"#utility.yul\":6031:6108   */\n      0x4e487b7100000000000000000000000000000000000000000000000000000000\n        /* \"#utility.yul\":6028:6029   */\n      0x00\n        /* \"#utility.yul\":6021:6109   */\n      mstore\n        /* \"#utility.yul\":6128:6132   */\n      0x41\n        /* \"#utility.yul\":6125:6126   */\n      0x04\n        /* \"#utility.yul\":6118:6133   */\n      mstore\n        /* \"#utility.yul\":6152:6156   */\n      0x24\n        /* \"#utility.yul\":6149:6150   */\n      0x00\n        /* \"#utility.yul\":6142:6157   */\n      revert\n        /* \"#utility.yul\":6169:6286   */\n    tag_106:\n        /* \"#utility.yul\":6278:6279   */\n      0x00\n        /* \"#utility.yul\":6275:6276   */\n      dup1\n        /* \"#utility.yul\":6268:6280   */\n      revert\n        /* \"#utility.yul\":6292:6409   */\n    tag_99:\n        /* \"#utility.yul\":6401:6402   */\n      0x00\n        /* \"#utility.yul\":6398:6399   */\n      dup1\n        /* \"#utility.yul\":6391:6403   */\n      revert\n        /* \"#utility.yul\":6415:6532   */\n    tag_123:\n        /* \"#utility.yul\":6524:6525   */\n      0x00\n        /* \"#utility.yul\":6521:6522   */\n      dup1\n        /* \"#utility.yul\":6514:6526   */\n      revert\n        /* \"#utility.yul\":6538:6655   */\n    tag_115:\n        /* \"#utility.yul\":6647:6648   */\n      0x00\n        /* \"#utility.yul\":6644:6645   */\n      dup1\n        /* \"#utility.yul\":6637:6649   */\n      revert\n        /* \"#utility.yul\":6661:6763   */\n    tag_139:\n        /* \"#utility.yul\":6702:6708   */\n      0x00\n        /* \"#utility.yul\":6753:6755   */\n      0x1f\n        /* \"#utility.yul\":6749:6756   */\n      not\n        /* \"#utility.yul\":6744:6746   */\n      0x1f\n        /* \"#utility.yul\":6737:6742   */\n      dup4\n        /* \"#utility.yul\":6733:6747   */\n      add\n        /* \"#utility.yul\":6729:6757   */\n      and\n        /* \"#utility.yul\":6719:6757   */\n      swap1\n      pop\n        /* \"#utility.yul\":6661:6763   */\n      swap2\n      swap1\n      pop\n      jump\t// out\n        /* \"#utility.yul\":6769:6891   */\n    tag_111:\n        /* \"#utility.yul\":6842:6866   */\n      tag_187\n        /* \"#utility.yul\":6860:6865   */\n      dup2\n        /* \"#utility.yul\":6842:6866   */\n      tag_143\n      jump\t// in\n    tag_187:\n        /* \"#utility.yul\":6835:6840   */\n      dup2\n        /* \"#utility.yul\":6832:6867   */\n      eq\n        /* \"#utility.yul\":6822:6885   */\n      tag_188\n      jumpi\n        /* \"#utility.yul\":6881:6882   */\n      0x00\n        /* \"#utility.yul\":6878:6879   */\n      dup1\n        /* \"#utility.yul\":6871:6883   */\n      revert\n        /* \"#utility.yul\":6822:6885   */\n    tag_188:\n        /* \"#utility.yul\":6769:6891   */\n      pop\n      jump\t// out\n\n    auxdata: 0xa264697066735822122058ed149a41ebb6e10c860afe659d818dba8e2dc09a9d426d451a216551d4aa2e64736f6c63430008070033\n}\n",
				"bytecode": {
					"linkReferences": {},
					"object": "608060405260405180606001604052806040518060400160405280600581526020017f6170706c6500000000000000000000000000000000000000000000000000000081525081526020016040518060400160405280600681526020017f62616e616e61000000000000000000000000000000000000000000000000000081525081526020016040518060400160405280600781526020017f636f636f6e7574000000000000000000000000000000000000000000000000008152508152506001906003620000d0929190620000e5565b50348015620000de57600080fd5b50620002c2565b82600581019282156200012c579160200282015b828111156200012b5782518290805190602001906200011a9291906200013f565b5091602001919060010190620000f9565b5b5090506200013b9190620001d0565b5090565b8280546200014d906200025d565b90600052602060002090601f016020900481019282620001715760008555620001bd565b82601f106200018c57805160ff1916838001178555620001bd565b82800160010185558215620001bd579182015b82811115620001bc5782518255916020019190600101906200019f565b5b509050620001cc9190620001f8565b5090565b5b80821115620001f45760008181620001ea919062000217565b50600101620001d1565b5090565b5b8082111562000213576000816000905550600101620001f9565b5090565b50805462000225906200025d565b6000825580601f106200023957506200025a565b601f016020900490600052602060002090810190620002599190620001f8565b5b50565b600060028204905060018216806200027657607f821691505b602082108114156200028d576200028c62000293565b5b50919050565b7f4e487b7100000000000000000000000000000000000000000000000000000000600052602260045260246000fd5b61081f80620002d26000396000f3fe608060405234801561001057600080fd5b50600436106100935760003560e01c8063649243101161006657806364924310146101325780637952deae1461014e5780638c00eb041461016a578063ae713d2a14610186578063ed85188e1461019057610093565b80630df904c3146100985780632aab02d0146100b45780634bae89cb146100d257806361125b6314610102575b600080fd5b6100b260048036038101906100ad91906104af565b6101ae565b005b6100bc6101dc565b6040516100c991906105b5565b60405180910390f35b6100ec60048036038101906100e79190610482565b6101e5565b6040516100f991906105b5565b60405180910390f35b61011c60048036038101906101179190610482565b610209565b6040516101299190610593565b60405180910390f35b61014c60048036038101906101479190610482565b6102ac565b005b61016860048036038101906101639190610482565b6102d8565b005b610184600480360381019061017f919061050b565b6102fd565b005b61018e610324565b005b61019861034e565b6040516101a591906105b5565b60405180910390f35b80600183600581106101c3576101c261074f565b5b0190805190602001906101d792919061035a565b505050565b60006005905090565b600081815481106101f557600080fd5b906000526020600020016000915090505481565b6001816005811061021957600080fd5b01600091509050805461022b9061068e565b80601f01602080910402602001604051908101604052809291908181526020018280546102579061068e565b80156102a45780601f10610279576101008083540402835291602001916102a4565b820191906000526020600020905b81548152906001019060200180831161028757829003601f168201915b505050505081565b600081908060018154018082558091505060019003906000526020600020016000909190919091505550565b600081815481106102ec576102eb61074f565b5b906000526020600020016000905550565b80600083815481106103125761031161074f565b5b90600052602060002001819055505050565b600080548061033657610335610720565b5b60019003818190600052602060002001600090559055565b60008080549050905090565b8280546103669061068e565b90600052602060002090601f01602090048101928261038857600085556103cf565b82601f106103a157805160ff19168380011785556103cf565b828001600101855582156103cf579182015b828111156103ce5782518255916020019190600101906103b3565b5b5090506103dc91906103e0565b5090565b5b808211156103f95760008160009055506001016103e1565b5090565b600061041061040b846105f5565b6105d0565b90508281526020810184848401111561042c5761042b6107b2565b5b61043784828561064c565b509392505050565b600082601f830112610454576104536107ad565b5b81356104648482602086016103fd565b91505092915050565b60008135905061047c816107d2565b92915050565b600060208284031215610498576104976107bc565b5b60006104a68482850161046d565b91505092915050565b600080604083850312156104c6576104c56107bc565b5b60006104d48582860161046d565b925050602083013567ffffffffffffffff8111156104f5576104f46107b7565b5b6105018582860161043f565b9150509250929050565b60008060408385031215610522576105216107bc565b5b60006105308582860161046d565b92505060206105418582860161046d565b9150509250929050565b600061055682610626565b6105608185610631565b935061057081856020860161065b565b610579816107c1565b840191505092915050565b61058d81610642565b82525050565b600060208201905081810360008301526105ad818461054b565b905092915050565b60006020820190506105ca6000830184610584565b92915050565b60006105da6105eb565b90506105e682826106c0565b919050565b6000604051905090565b600067ffffffffffffffff8211156106105761060f61077e565b5b610619826107c1565b9050602081019050919050565b600081519050919050565b600082825260208201905092915050565b6000819050919050565b82818337600083830152505050565b60005b8381101561067957808201518184015260208101905061065e565b83811115610688576000848401525b50505050565b600060028204905060018216806106a657607f821691505b602082108114156106ba576106b96106f1565b5b50919050565b6106c9826107c1565b810181811067ffffffffffffffff821117156106e8576106e761077e565b5b80604052505050565b7f4e487b7100000000000000000000000000000000000000000000000000000000600052602260045260246000fd5b7f4e487b7100000000000000000000000000000000000000000000000000000000600052603160045260246000fd5b7f4e487b7100000000000000000000000000000000000000000000000000000000600052603260045260246000fd5b7f4e487b7100000000000000000000000000000000000000000000000000000000600052604160045260246000fd5b600080fd5b600080fd5b600080fd5b600080fd5b6000601f19601f8301169050919050565b6107db81610642565b81146107e657600080fd5b5056fea264697066735822122058ed149a41ebb6e10c860afe659d818dba8e2dc09a9d426d451a216551d4aa2e64736f6c63430008070033",
					"opcodes": "PUSH1 0x80 PUSH1 0x40 MSTORE PUSH1 0x40 MLOAD DUP1 PUSH1 0x60 ADD PUSH1 0x40 MSTORE DUP1 PUSH1 0x40 MLOAD DUP1 PUSH1 0x40 ADD PUSH1 0x40 MSTORE DUP1 PUSH1 0x5 DUP2 MSTORE PUSH1 0x20 ADD PUSH32 0x6170706C65000000000000000000000000000000000000000000000000000000 DUP2 MSTORE POP DUP2 MSTORE PUSH1 0x20 ADD PUSH1 0x40 MLOAD DUP1 PUSH1 0x40 ADD PUSH1 0x40 MSTORE DUP1 PUSH1 0x6 DUP2 MSTORE PUSH1 0x20 ADD PUSH32 0x62616E616E610000000000000000000000000000000000000000000000000000 DUP2 MSTORE POP DUP2 MSTORE PUSH1 0x20 ADD PUSH1 0x40 MLOAD DUP1 PUSH1 0x40 ADD PUSH1 0x40 MSTORE DUP1 PUSH1 0x7 DUP2 MSTORE PUSH1 0x20 ADD PUSH32 0x636F636F6E757400000000000000000000000000000000000000000000000000 DUP2 MSTORE POP DUP2 MSTORE POP PUSH1 0x1 SWAP1 PUSH1 0x3 PUSH3 0xD0 SWAP3 SWAP2 SWAP1 PUSH3 0xE5 JUMP JUMPDEST POP CALLVALUE DUP1 ISZERO PUSH3 0xDE JUMPI PUSH1 0x0 DUP1 REVERT JUMPDEST POP PUSH3 0x2C2 JUMP JUMPDEST DUP3 PUSH1 0x5 DUP2 ADD SWAP3 DUP3 ISZERO PUSH3 0x12C JUMPI SWAP2 PUSH1 0x20 MUL DUP3 ADD JUMPDEST DUP3 DUP2 GT ISZERO PUSH3 0x12B JUMPI DUP3 MLOAD DUP3 SWAP1 DUP1 MLOAD SWAP1 PUSH1 0x20 ADD SWAP1 PUSH3 0x11A SWAP3 SWAP2 SWAP1 PUSH3 0x13F JUMP JUMPDEST POP SWAP2 PUSH1 0x20 ADD SWAP2 SWAP1 PUSH1 0x1 ADD SWAP1 PUSH3 0xF9 JUMP JUMPDEST JUMPDEST POP SWAP1 POP PUSH3 0x13B SWAP2 SWAP1 PUSH3 0x1D0 JUMP JUMPDEST POP SWAP1 JUMP JUMPDEST DUP3 DUP1 SLOAD PUSH3 0x14D SWAP1 PUSH3 0x25D JUMP JUMPDEST SWAP1 PUSH1 0x0 MSTORE PUSH1 0x20 PUSH1 0x0 KECCAK256 SWAP1 PUSH1 0x1F ADD PUSH1 0x20 SWAP1 DIV DUP2 ADD SWAP3 DUP3 PUSH3 0x171 JUMPI PUSH1 0x0 DUP6 SSTORE PUSH3 0x1BD JUMP JUMPDEST DUP3 PUSH1 0x1F LT PUSH3 0x18C JUMPI DUP1 MLOAD PUSH1 0xFF NOT AND DUP4 DUP1 ADD OR DUP6 SSTORE PUSH3 0x1BD JUMP JUMPDEST DUP3 DUP1 ADD PUSH1 0x1 ADD DUP6 SSTORE DUP3 ISZERO PUSH3 0x1BD JUMPI SWAP2 DUP3 ADD JUMPDEST DUP3 DUP2 GT ISZERO PUSH3 0x1BC JUMPI DUP3 MLOAD DUP3 SSTORE SWAP2 PUSH1 0x20 ADD SWAP2 SWAP1 PUSH1 0x1 ADD SWAP1 PUSH3 0x19F JUMP JUMPDEST JUMPDEST POP SWAP1 POP PUSH3 0x1CC SWAP2 SWAP1 PUSH3 0x1F8 JUMP JUMPDEST POP SWAP1 JUMP JUMPDEST JUMPDEST DUP1 DUP3 GT ISZERO PUSH3 0x1F4 JUMPI PUSH1 0x0 DUP2 DUP2 PUSH3 0x1EA SWAP2 SWAP1 PUSH3 0x217 JUMP JUMPDEST POP PUSH1 0x1 ADD PUSH3 0x1D1 JUMP JUMPDEST POP SWAP1 JUMP JUMPDEST JUMPDEST DUP1 DUP3 GT ISZERO PUSH3 0x213 JUMPI PUSH1 0x0 DUP2 PUSH1 0x0 SWAP1 SSTORE POP PUSH1 0x1 ADD PUSH3 0x1F9 JUMP JUMPDEST POP SWAP1 JUMP JUMPDEST POP DUP1 SLOAD PUSH3 0x225 SWAP1 PUSH3 0x25D JUMP JUMPDEST PUSH1 0x0 DUP3 SSTORE DUP1 PUSH1 0x1F LT PUSH3 0x239 JUMPI POP PUSH3 0x25A JUMP JUMPDEST PUSH1 0x1F ADD PUSH1 0x20 SWAP1 DIV SWAP1 PUSH1 0x0 MSTORE PUSH1 0x20 PUSH1 0x0 KECCAK256 SWAP1 DUP2 ADD SWAP1 PUSH3 0x259 SWAP2 SWAP1 PUSH3 0x1F8 JUMP JUMPDEST JUMPDEST POP JUMP JUMPDEST PUSH1 0x0 PUSH1 0x2 DUP3 DIV SWAP1 POP PUSH1 0x1 DUP3 AND DUP1 PUSH3 0x276 JUMPI PUSH1 0x7F DUP3 AND SWAP2 POP JUMPDEST PUSH1 0x20 DUP3 LT DUP2 EQ ISZERO PUSH3 0x28D JUMPI PUSH3 0x28C PUSH3 0x293 JUMP JUMPDEST JUMPDEST POP SWAP2 SWAP1 POP JUMP JUMPDEST PUSH32 0x4E487B7100000000000000000000000000000000000000000000000000000000 PUSH1 0x0 MSTORE PUSH1 0x22 PUSH1 0x4 MSTORE PUSH1 0x24 PUSH1 0x0 REVERT JUMPDEST PUSH2 0x81F DUP1 PUSH3 0x2D2 PUSH1 0x0 CODECOPY PUSH1 0x0 RETURN INVALID PUSH1 0x80 PUSH1 0x40 MSTORE CALLVALUE DUP1 ISZERO PUSH2 0x10 JUMPI PUSH1 0x0 DUP1 REVERT JUMPDEST POP PUSH1 0x4 CALLDATASIZE LT PUSH2 0x93 JUMPI PUSH1 0x0 CALLDATALOAD PUSH1 0xE0 SHR DUP1 PUSH4 0x64924310 GT PUSH2 0x66 JUMPI DUP1 PUSH4 0x64924310 EQ PUSH2 0x132 JUMPI DUP1 PUSH4 0x7952DEAE EQ PUSH2 0x14E JUMPI DUP1 PUSH4 0x8C00EB04 EQ PUSH2 0x16A JUMPI DUP1 PUSH4 0xAE713D2A EQ PUSH2 0x186 JUMPI DUP1 PUSH4 0xED85188E EQ PUSH2 0x190 JUMPI PUSH2 0x93 JUMP JUMPDEST DUP1 PUSH4 0xDF904C3 EQ PUSH2 0x98 JUMPI DUP1 PUSH4 0x2AAB02D0 EQ PUSH2 0xB4 JUMPI DUP1 PUSH4 0x4BAE89CB EQ PUSH2 0xD2 JUMPI DUP1 PUSH4 0x61125B63 EQ PUSH2 0x102 JUMPI JUMPDEST PUSH1 0x0 DUP1 REVERT JUMPDEST PUSH2 0xB2 PUSH1 0x4 DUP1 CALLDATASIZE SUB DUP2 ADD SWAP1 PUSH2 0xAD SWAP2 SWAP1 PUSH2 0x4AF JUMP JUMPDEST PUSH2 0x1AE JUMP JUMPDEST STOP JUMPDEST PUSH2 0xBC PUSH2 0x1DC JUMP JUMPDEST PUSH1 0x40 MLOAD PUSH2 0xC9 SWAP2 SWAP1 PUSH2 0x5B5 JUMP JUMPDEST PUSH1 0x40 MLOAD DUP1 SWAP2 SUB SWAP1 RETURN JUMPDEST PUSH2 0xEC PUSH1 0x4 DUP1 CALLDATASIZE SUB DUP2 ADD SWAP1 PUSH2 0xE7 SWAP2 SWAP1 PUSH2 0x482 JUMP JUMPDEST PUSH2 0x1E5 JUMP JUMPDEST PUSH1 0x40 MLOAD PUSH2 0xF9 SWAP2 SWAP1 PUSH2 0x5B5 JUMP JUMPDEST PUSH1 0x40 MLOAD DUP1 SWAP2 SUB SWAP1 RETURN JUMPDEST PUSH2 0x11C PUSH1 0x4 DUP1 CALLDATASIZE SUB DUP2 ADD SWAP1 PUSH2 0x117 SWAP2 SWAP1 PUSH2 0x482 JUMP JUMPDEST PUSH2 0x209 JUMP JUMPDEST PUSH1 0x40 MLOAD PUSH2 0x129 SWAP2 SWAP1 PUSH2 0x593 JUMP JUMPDEST PUSH1 0x40 MLOAD DUP1 SWAP2 SUB SWAP1 RETURN JUMPDEST PUSH2 0x14C PUSH1 0x4 DUP1 CALLDATASIZE SUB DUP2 ADD SWAP1 PUSH2 0x147 SWAP2 SWAP1 PUSH2 0x482 JUMP JUMPDEST PUSH2 0x2AC JUMP JUMPDEST STOP JUMPDEST PUSH2 0x168 PUSH1 0x4 DUP1 CALLDATASIZE SUB DUP2 ADD SWAP1 PUSH2 0x163 SWAP2 SWAP1 PUSH2 0x482 JUMP JUMPDEST PUSH2 0x2D8 JUMP JUMPDEST STOP JUMPDEST PUSH2 0x184 PUSH1 0x4 DUP1 CALLDATASIZE SUB DUP2 ADD SWAP1 PUSH2 0x17F SWAP2 SWAP1 PUSH2 0x50B JUMP JUMPDEST PUSH2 0x2FD JUMP JUMPDEST STOP JUMPDEST PUSH2 0x18E PUSH2 0x324 JUMP JUMPDEST STOP JUMPDEST PUSH2 0x198 PUSH2 0x34E JUMP JUMPDEST PUSH1 0x40 MLOAD PUSH2 0x1A5 SWAP2 SWAP1 PUSH2 0x5B5 JUMP JUMPDEST PUSH1 0x40 MLOAD DUP1 SWAP2 SUB SWAP1 RETURN JUMPDEST DUP1 PUSH1 0x1 DUP4 PUSH1 0x5 DUP2 LT PUSH2 0x1C3 JUMPI PUSH2 0x1C2 PUSH2 0x74F JUMP JUMPDEST JUMPDEST ADD SWAP1 DUP1 MLOAD SWAP1 PUSH1 0x20 ADD SWAP1 PUSH2 0x1D7 SWAP3 SWAP2 SWAP1 PUSH2 0x35A JUMP JUMPDEST POP POP POP JUMP JUMPDEST PUSH1 0x0 PUSH1 0x5 SWAP1 POP SWAP1 JUMP JUMPDEST PUSH1 0x0 DUP2 DUP2 SLOAD DUP2 LT PUSH2 0x1F5 JUMPI PUSH1 0x0 DUP1 REVERT JUMPDEST SWAP1 PUSH1 0x0 MSTORE PUSH1 0x20 PUSH1 0x0 KECCAK256 ADD PUSH1 0x0 SWAP2 POP SWAP1 POP SLOAD DUP2 JUMP JUMPDEST PUSH1 0x1 DUP2 PUSH1 0x5 DUP2 LT PUSH2 0x219 JUMPI PUSH1 0x0 DUP1 REVERT JUMPDEST ADD PUSH1 0x0 SWAP2 POP SWAP1 POP DUP1 SLOAD PUSH2 0x22B SWAP1 PUSH2 0x68E JUMP JUMPDEST DUP1 PUSH1 0x1F ADD PUSH1 0x20 DUP1 SWAP2 DIV MUL PUSH1 0x20 ADD PUSH1 0x40 MLOAD SWAP1 DUP2 ADD PUSH1 0x40 MSTORE DUP1 SWAP3 SWAP2 SWAP1 DUP2 DUP2 MSTORE PUSH1 0x20 ADD DUP3 DUP1 SLOAD PUSH2 0x257 SWAP1 PUSH2 0x68E JUMP JUMPDEST DUP1 ISZERO PUSH2 0x2A4 JUMPI DUP1 PUSH1 0x1F LT PUSH2 0x279 JUMPI PUSH2 0x100 DUP1 DUP4 SLOAD DIV MUL DUP4 MSTORE SWAP2 PUSH1 0x20 ADD SWAP2 PUSH2 0x2A4 JUMP JUMPDEST DUP3 ADD SWAP2 SWAP1 PUSH1 0x0 MSTORE PUSH1 0x20 PUSH1 0x0 KECCAK256 SWAP1 JUMPDEST DUP2 SLOAD DUP2 MSTORE SWAP1 PUSH1 0x1 ADD SWAP1 PUSH1 0x20 ADD DUP1 DUP4 GT PUSH2 0x287 JUMPI DUP3 SWAP1 SUB PUSH1 0x1F AND DUP3 ADD SWAP2 JUMPDEST POP POP POP POP POP DUP2 JUMP JUMPDEST PUSH1 0x0 DUP2 SWAP1 DUP1 PUSH1 0x1 DUP2 SLOAD ADD DUP1 DUP3 SSTORE DUP1 SWAP2 POP POP PUSH1 0x1 SWAP1 SUB SWAP1 PUSH1 0x0 MSTORE PUSH1 0x20 PUSH1 0x0 KECCAK256 ADD PUSH1 0x0 SWAP1 SWAP2 SWAP1 SWAP2 SWAP1 SWAP2 POP SSTORE POP JUMP JUMPDEST PUSH1 0x0 DUP2 DUP2 SLOAD DUP2 LT PUSH2 0x2EC JUMPI PUSH2 0x2EB PUSH2 0x74F JUMP JUMPDEST JUMPDEST SWAP1 PUSH1 0x0 MSTORE PUSH1 0x20 PUSH1 0x0 KECCAK256 ADD PUSH1 0x0 SWAP1 SSTORE POP JUMP JUMPDEST DUP1 PUSH1 0x0 DUP4 DUP2 SLOAD DUP2 LT PUSH2 0x312 JUMPI PUSH2 0x311 PUSH2 0x74F JUMP JUMPDEST JUMPDEST SWAP1 PUSH1 0x0 MSTORE PUSH1 0x20 PUSH1 0x0 KECCAK256 ADD DUP2 SWAP1 SSTORE POP POP POP JUMP JUMPDEST PUSH1 0x0 DUP1 SLOAD DUP1 PUSH2 0x336 JUMPI PUSH2 0x335 PUSH2 0x720 JUMP JUMPDEST JUMPDEST PUSH1 0x1 SWAP1 SUB DUP2 DUP2 SWAP1 PUSH1 0x0 MSTORE PUSH1 0x20 PUSH1 0x0 KECCAK256 ADD PUSH1 0x0 SWAP1 SSTORE SWAP1 SSTORE JUMP JUMPDEST PUSH1 0x0 DUP1 DUP1 SLOAD SWAP1 POP SWAP1 POP SWAP1 JUMP JUMPDEST DUP3 DUP1 SLOAD PUSH2 0x366 SWAP1 PUSH2 0x68E JUMP JUMPDEST SWAP1 PUSH1 0x0 MSTORE PUSH1 0x20 PUSH1 0x0 KECCAK256 SWAP1 PUSH1 0x1F ADD PUSH1 0x20 SWAP1 DIV DUP2 ADD SWAP3 DUP3 PUSH2 0x388 JUMPI PUSH1 0x0 DUP6 SSTORE PUSH2 0x3CF JUMP JUMPDEST DUP3 PUSH1 0x1F LT PUSH2 0x3A1 JUMPI DUP1 MLOAD PUSH1 0xFF NOT AND DUP4 DUP1 ADD OR DUP6 SSTORE PUSH2 0x3CF JUMP JUMPDEST DUP3 DUP1 ADD PUSH1 0x1 ADD DUP6 SSTORE DUP3 ISZERO PUSH2 0x3CF JUMPI SWAP2 DUP3 ADD JUMPDEST DUP3 DUP2 GT ISZERO PUSH2 0x3CE JUMPI DUP3 MLOAD DUP3 SSTORE SWAP2 PUSH1 0x20 ADD SWAP2 SWAP1 PUSH1 0x1 ADD SWAP1 PUSH2 0x3B3 JUMP JUMPDEST JUMPDEST POP SWAP1 POP PUSH2 0x3DC SWAP2 SWAP1 PUSH2 0x3E0 JUMP JUMPDEST POP SWAP1 JUMP JUMPDEST JUMPDEST DUP1 DUP3 GT ISZERO PUSH2 0x3F9 JUMPI PUSH1 0x0 DUP2 PUSH1 0x0 SWAP1 SSTORE POP PUSH1 0x1 ADD PUSH2 0x3E1 JUMP JUMPDEST POP SWAP1 JUMP JUMPDEST PUSH1 0x0 PUSH2 0x410 PUSH2 0x40B DUP5 PUSH2 0x5F5 JUMP JUMPDEST PUSH2 0x5D0 JUMP JUMPDEST SWAP1 POP DUP3 DUP2 MSTORE PUSH1 0x20 DUP2 ADD DUP5 DUP5 DUP5 ADD GT ISZERO PUSH2 0x42C JUMPI PUSH2 0x42B PUSH2 0x7B2 JUMP JUMPDEST JUMPDEST PUSH2 0x437 DUP5 DUP3 DUP6 PUSH2 0x64C JUMP JUMPDEST POP SWAP4 SWAP3 POP POP POP JUMP JUMPDEST PUSH1 0x0 DUP3 PUSH1 0x1F DUP4 ADD SLT PUSH2 0x454 JUMPI PUSH2 0x453 PUSH2 0x7AD JUMP JUMPDEST JUMPDEST DUP2 CALLDATALOAD PUSH2 0x464 DUP5 DUP3 PUSH1 0x20 DUP7 ADD PUSH2 0x3FD JUMP JUMPDEST SWAP2 POP POP SWAP3 SWAP2 POP POP JUMP JUMPDEST PUSH1 0x0 DUP2 CALLDATALOAD SWAP1 POP PUSH2 0x47C DUP2 PUSH2 0x7D2 JUMP JUMPDEST SWAP3 SWAP2 POP POP JUMP JUMPDEST PUSH1 0x0 PUSH1 0x20 DUP3 DUP5 SUB SLT ISZERO PUSH2 0x498 JUMPI PUSH2 0x497 PUSH2 0x7BC JUMP JUMPDEST JUMPDEST PUSH1 0x0 PUSH2 0x4A6 DUP5 DUP3 DUP6 ADD PUSH2 0x46D JUMP JUMPDEST SWAP2 POP POP SWAP3 SWAP2 POP POP JUMP JUMPDEST PUSH1 0x0 DUP1 PUSH1 0x40 DUP4 DUP6 SUB SLT ISZERO PUSH2 0x4C6 JUMPI PUSH2 0x4C5 PUSH2 0x7BC JUMP JUMPDEST JUMPDEST PUSH1 0x0 PUSH2 0x4D4 DUP6 DUP3 DUP7 ADD PUSH2 0x46D JUMP JUMPDEST SWAP3 POP POP PUSH1 0x20 DUP4 ADD CALLDATALOAD PUSH8 0xFFFFFFFFFFFFFFFF DUP2 GT ISZERO PUSH2 0x4F5 JUMPI PUSH2 0x4F4 PUSH2 0x7B7 JUMP JUMPDEST JUMPDEST PUSH2 0x501 DUP6 DUP3 DUP7 ADD PUSH2 0x43F JUMP JUMPDEST SWAP2 POP POP SWAP3 POP SWAP3 SWAP1 POP JUMP JUMPDEST PUSH1 0x0 DUP1 PUSH1 0x40 DUP4 DUP6 SUB SLT ISZERO PUSH2 0x522 JUMPI PUSH2 0x521 PUSH2 0x7BC JUMP JUMPDEST JUMPDEST PUSH1 0x0 PUSH2 0x530 DUP6 DUP3 DUP7 ADD PUSH2 0x46D JUMP JUMPDEST SWAP3 POP POP PUSH1 0x20 PUSH2 0x541 DUP6 DUP3 DUP7 ADD PUSH2 0x46D JUMP JUMPDEST SWAP2 POP POP SWAP3 POP SWAP3 SWAP1 POP JUMP JUMPDEST PUSH1 0x0 PUSH2 0x556 DUP3 PUSH2 0x626 JUMP JUMPDEST PUSH2 0x560 DUP2 DUP6 PUSH2 0x631 JUMP JUMPDEST SWAP4 POP PUSH2 0x570 DUP2 DUP6 PUSH1 0x20 DUP7 ADD PUSH2 0x65B JUMP JUMPDEST PUSH2 0x579 DUP2 PUSH2 0x7C1 JUMP JUMPDEST DUP5 ADD SWAP2 POP POP SWAP3 SWAP2 POP POP JUMP JUMPDEST PUSH2 0x58D DUP2 PUSH2 0x642 JUMP JUMPDEST DUP3 MSTORE POP POP JUMP JUMPDEST PUSH1 0x0 PUSH1 0x20 DUP3 ADD SWAP1 POP DUP2 DUP2 SUB PUSH1 0x0 DUP4 ADD MSTORE PUSH2 0x5AD DUP2 DUP5 PUSH2 0x54B JUMP JUMPDEST SWAP1 POP SWAP3 SWAP2 POP POP JUMP JUMPDEST PUSH1 0x0 PUSH1 0x20 DUP3 ADD SWAP1 POP PUSH2 0x5CA PUSH1 0x0 DUP4 ADD DUP5 PUSH2 0x584 JUMP JUMPDEST SWAP3 SWAP2 POP POP JUMP JUMPDEST PUSH1 0x0 PUSH2 0x5DA PUSH2 0x5EB JUMP JUMPDEST SWAP1 POP PUSH2 0x5E6 DUP3 DUP3 PUSH2 0x6C0 JUMP JUMPDEST SWAP2 SWAP1 POP JUMP JUMPDEST PUSH1 0x0 PUSH1 0x40 MLOAD SWAP1 POP SWAP1 JUMP JUMPDEST PUSH1 0x0 PUSH8 0xFFFFFFFFFFFFFFFF DUP3 GT ISZERO PUSH2 0x610 JUMPI PUSH2 0x60F PUSH2 0x77E JUMP JUMPDEST JUMPDEST PUSH2 0x619 DUP3 PUSH2 0x7C1 JUMP JUMPDEST SWAP1 POP PUSH1 0x20 DUP2 ADD SWAP1 POP SWAP2 SWAP1 POP JUMP JUMPDEST PUSH1 0x0 DUP2 MLOAD SWAP1 POP SWAP2 SWAP1 POP JUMP JUMPDEST PUSH1 0x0 DUP3 DUP3 MSTORE PUSH1 0x20 DUP3 ADD SWAP1 POP SWAP3 SWAP2 POP POP JUMP JUMPDEST PUSH1 0x0 DUP2 SWAP1 POP SWAP2 SWAP1 POP JUMP JUMPDEST DUP3 DUP2 DUP4 CALLDATACOPY PUSH1 0x0 DUP4 DUP4 ADD MSTORE POP POP POP JUMP JUMPDEST PUSH1 0x0 JUMPDEST DUP4 DUP2 LT ISZERO PUSH2 0x679 JUMPI DUP1 DUP3 ADD MLOAD DUP2 DUP5 ADD MSTORE PUSH1 0x20 DUP2 ADD SWAP1 POP PUSH2 0x65E JUMP JUMPDEST DUP4 DUP2 GT ISZERO PUSH2 0x688 JUMPI PUSH1 0x0 DUP5 DUP5 ADD MSTORE JUMPDEST POP POP POP POP JUMP JUMPDEST PUSH1 0x0 PUSH1 0x2 DUP3 DIV SWAP1 POP PUSH1 0x1 DUP3 AND DUP1 PUSH2 0x6A6 JUMPI PUSH1 0x7F DUP3 AND SWAP2 POP JUMPDEST PUSH1 0x20 DUP3 LT DUP2 EQ ISZERO PUSH2 0x6BA JUMPI PUSH2 0x6B9 PUSH2 0x6F1 JUMP JUMPDEST JUMPDEST POP SWAP2 SWAP1 POP JUMP JUMPDEST PUSH2 0x6C9 DUP3 PUSH2 0x7C1 JUMP JUMPDEST DUP2 ADD DUP2 DUP2 LT PUSH8 0xFFFFFFFFFFFFFFFF DUP3 GT OR ISZERO PUSH2 0x6E8 JUMPI PUSH2 0x6E7 PUSH2 0x77E JUMP JUMPDEST JUMPDEST DUP1 PUSH1 0x40 MSTORE POP POP POP JUMP JUMPDEST PUSH32 0x4E487B7100000000000000000000000000000000000000000000000000000000 PUSH1 0x0 MSTORE PUSH1 0x22 PUSH1 0x4 MSTORE PUSH1 0x24 PUSH1 0x0 REVERT JUMPDEST PUSH32 0x4E487B7100000000000000000000000000000000000000000000000000000000 PUSH1 0x0 MSTORE PUSH1 0x31 PUSH1 0x4 MSTORE PUSH1 0x24 PUSH1 0x0 REVERT JUMPDEST PUSH32 0x4E487B7100000000000000000000000000000000000000000000000000000000 PUSH1 0x0 MSTORE PUSH1 0x32 PUSH1 0x4 MSTORE PUSH1 0x24 PUSH1 0x0 REVERT JUMPDEST PUSH32 0x4E487B7100000000000000000000000000000000000000000000000000000000 PUSH1 0x0 MSTORE PUSH1 0x41 PUSH1 0x4 MSTORE PUSH1 0x24 PUSH1 0x0 REVERT JUMPDEST PUSH1 0x0 DUP1 REVERT JUMPDEST PUSH1 0x0 DUP1 REVERT JUMPDEST PUSH1 0x0 DUP1 REVERT JUMPDEST PUSH1 0x0 DUP1 REVERT JUMPDEST PUSH1 0x0 PUSH1 0x1F NOT PUSH1 0x1F DUP4 ADD AND SWAP1 POP SWAP2 SWAP1 POP JUMP JUMPDEST PUSH2 0x7DB DUP2 PUSH2 0x642 JUMP JUMPDEST DUP2 EQ PUSH2 0x7E6 JUMPI PUSH1 0x0 DUP1 REVERT JUMPDEST POP JUMP INVALID LOG2 PUSH5 0x6970667358 0x22 SLT KECCAK256 PC 0xED EQ SWAP11 COINBASE 0xEB 0xB6 0xE1 0xC DUP7 EXP INVALID PUSH6 0x9D818DBA8E2D 0xC0 SWAP11 SWAP14 TIMESTAMP PUSH14 0x451A216551D4AA2E64736F6C6343 STOP ADDMOD SMOD STOP CALLER "
				},
				"gasEstimates": {
					"creation": {
						"codeDepositCost": "415800",
						"executionCost": "infinite",
						"totalCost": "infinite"
					},
					"external": {
						"addArray1(uint256)": "46829",
						"array1(uint256)": "infinite",
						"array2(uint256)": "infinite",
						"changeArray1(uint256,uint256)": "infinite",
						"changeArray2(uint256,string)": "infinite",
						"deleteArray(uint256)": "7617",
						"getLength1()": "2533",
						"getLength2()": "360",
						"popArray()": "29511"
					}
				},
				"methodIdentifiers": {
					"addArray1(uint256)": "64924310",
					"array1(uint256)": "4bae89cb",
					"array2(uint256)": "61125b63",
					"changeArray1(uint256,uint256)": "8c00eb04",
					"changeArray2(uint256,string)": "0df904c3",
					"deleteArray(uint256)": "7952deae",
					"getLength1()": "ed85188e",
					"getLength2()": "2aab02d0",
					"popArray()": "ae713d2a"
				}
			},
			"storageLayout": {
				"storage": [
					{
						"astId": 4,
						"contract": "chapter5/Ex5_3.sol:Ex5_3",
						"label": "array1",
						"offset": 0,
						"slot": "0",
						"type": "t_array(t_uint256)dyn_storage"
					},
					{
						"astId": 12,
						"contract": "chapter5/Ex5_3.sol:Ex5_3",
						"label": "array2",
						"offset": 0,
						"slot": "1",
						"type": "t_array(t_string_storage)5_storage"
					}
				],
				"types": {
					"t_array(t_string_storage)5_storage": {
						"base": "t_string_storage",
						"encoding": "inplace",
						"label": "string[5]",
						"numberOfBytes": "160"
					},
					"t_array(t_uint256)dyn_storage": {
						"base": "t_uint256",
						"encoding": "dynamic_array",
						"label": "uint256[]",
						"numberOfBytes": "32"
					},
					"t_string_storage": {
						"encoding": "bytes",
						"label": "string",
						"numberOfBytes": "32"
					},
					"t_uint256": {
						"encoding": "inplace",
						"label": "uint256",
						"numberOfBytes": "32"
					}
				}
			},
			"userdoc": {
				"kind": "user",
				"methods": {},
				"version": 1
			}
		}
	}
}