{
	"chapter10/RandomGame.sol": {
		"RandomGame": {
			"abi": [
				{
					"inputs": [
						{
							"internalType": "string",
							"name": "_key1",
							"type": "string"
						},
						{
							"internalType": "uint256",
							"name": "_key2",
							"type": "uint256"
						}
					],
					"stateMutability": "nonpayable",
					"type": "constructor"
				},
				{
					"anonymous": false,
					"inputs": [
						{
							"indexed": true,
							"internalType": "address",
							"name": "sender",
							"type": "address"
						},
						{
							"indexed": false,
							"internalType": "uint256",
							"name": "payment",
							"type": "uint256"
						}
					],
					"name": "PaidAddress",
					"type": "event"
				},
				{
					"anonymous": false,
					"inputs": [
						{
							"indexed": true,
							"internalType": "address",
							"name": "winner",
							"type": "address"
						}
					],
					"name": "WinnerAddress",
					"type": "event"
				},
				{
					"inputs": [],
					"name": "getBalance",
					"outputs": [
						{
							"internalType": "uint256",
							"name": "",
							"type": "uint256"
						}
					],
					"stateMutability": "view",
					"type": "function"
				},
				{
					"inputs": [],
					"name": "getRound",
					"outputs": [
						{
							"internalType": "uint256",
							"name": "",
							"type": "uint256"
						}
					],
					"stateMutability": "view",
					"type": "function"
				},
				{
					"inputs": [],
					"name": "getSecretKey",
					"outputs": [
						{
							"internalType": "string",
							"name": "",
							"type": "string"
						},
						{
							"internalType": "uint256",
							"name": "",
							"type": "uint256"
						}
					],
					"stateMutability": "view",
					"type": "function"
				},
				{
					"inputs": [],
					"name": "getWinnerNumber",
					"outputs": [
						{
							"internalType": "uint256",
							"name": "",
							"type": "uint256"
						}
					],
					"stateMutability": "view",
					"type": "function"
				},
				{
					"inputs": [],
					"name": "owner",
					"outputs": [
						{
							"internalType": "address",
							"name": "",
							"type": "address"
						}
					],
					"stateMutability": "view",
					"type": "function"
				},
				{
					"inputs": [
						{
							"internalType": "uint256",
							"name": "",
							"type": "uint256"
						},
						{
							"internalType": "address",
							"name": "",
							"type": "address"
						}
					],
					"name": "paidAddressList",
					"outputs": [
						{
							"internalType": "bool",
							"name": "",
							"type": "bool"
						}
					],
					"stateMutability": "view",
					"type": "function"
				},
				{
					"inputs": [],
					"name": "playNumber",
					"outputs": [
						{
							"internalType": "uint256",
							"name": "",
							"type": "uint256"
						}
					],
					"stateMutability": "view",
					"type": "function"
				},
				{
					"inputs": [],
					"name": "round",
					"outputs": [
						{
							"internalType": "uint256",
							"name": "",
							"type": "uint256"
						}
					],
					"stateMutability": "view",
					"type": "function"
				},
				{
					"inputs": [
						{
							"internalType": "string",
							"name": "_key1",
							"type": "string"
						},
						{
							"internalType": "uint256",
							"name": "_key2",
							"type": "uint256"
						}
					],
					"name": "setSecretKey",
					"outputs": [],
					"stateMutability": "nonpayable",
					"type": "function"
				},
				{
					"stateMutability": "payable",
					"type": "receive"
				}
			],
			"devdoc": {
				"kind": "dev",
				"methods": {},
				"version": 1
			},
			"evm": {
				"assembly": "    /* \"chapter10/RandomGame.sol\":505:3172  contract RandomGame {... */\n  mstore(0x40, 0x80)\n    /* \"chapter10/RandomGame.sol\":1199:1200  0 */\n  0x00\n    /* \"chapter10/RandomGame.sol\":1171:1200  uint private winnerNumber = 0 */\n  0x02\n  sstore\n    /* \"chapter10/RandomGame.sol\":1280:1281  1 */\n  0x01\n    /* \"chapter10/RandomGame.sol\":1260:1281  uint public round = 1 */\n  0x05\n  sstore\n    /* \"chapter10/RandomGame.sol\":1313:1314  0 */\n  0x00\n    /* \"chapter10/RandomGame.sol\":1288:1314  uint public playNumber = 0 */\n  0x06\n  sstore\n    /* \"chapter10/RandomGame.sol\":1323:1491  constructor(string memory _key1, uint _key2) {... */\n  callvalue\n  dup1\n  iszero\n  tag_1\n  jumpi\n  0x00\n  dup1\n  revert\ntag_1:\n  pop\n  mload(0x40)\n  sub(codesize, bytecodeSize)\n  dup1\n  bytecodeSize\n  dup4\n  codecopy\n  dup2\n  dup2\n  add\n  0x40\n  mstore\n  dup2\n  add\n  swap1\n  tag_2\n  swap2\n  swap1\n  tag_3\n  jump\t// in\ntag_2:\n    /* \"chapter10/RandomGame.sol\":1387:1397  msg.sender */\n  caller\n    /* \"chapter10/RandomGame.sol\":1379:1384  owner */\n  0x01\n  0x00\n    /* \"chapter10/RandomGame.sol\":1379:1397  owner = msg.sender */\n  0x0100\n  exp\n  dup2\n  sload\n  dup2\n  0xffffffffffffffffffffffffffffffffffffffff\n  mul\n  not\n  and\n  swap1\n  dup4\n  0xffffffffffffffffffffffffffffffffffffffff\n  and\n  mul\n  or\n  swap1\n  sstore\n  pop\n    /* \"chapter10/RandomGame.sol\":1415:1420  _key1 */\n  dup2\n    /* \"chapter10/RandomGame.sol\":1408:1412  key1 */\n  0x03\n    /* \"chapter10/RandomGame.sol\":1408:1420  key1 = _key1 */\n  swap1\n  dup2\n  tag_6\n  swap2\n  swap1\n  tag_7\n  jump\t// in\ntag_6:\n  pop\n    /* \"chapter10/RandomGame.sol\":1438:1443  _key2 */\n  dup1\n    /* \"chapter10/RandomGame.sol\":1431:1435  key2 */\n  0x04\n    /* \"chapter10/RandomGame.sol\":1431:1443  key2 = _key2 */\n  dup2\n  swap1\n  sstore\n  pop\n    /* \"chapter10/RandomGame.sol\":1469:1483  randomNumber() */\n  tag_8\n    /* \"chapter10/RandomGame.sol\":1469:1481  randomNumber */\n  shl(0x20, tag_9)\n    /* \"chapter10/RandomGame.sol\":1469:1483  randomNumber() */\n  0x20\n  shr\n  jump\t// in\ntag_8:\n    /* \"chapter10/RandomGame.sol\":1454:1466  winnerNumber */\n  0x02\n    /* \"chapter10/RandomGame.sol\":1454:1483  winnerNumber = randomNumber() */\n  dup2\n  swap1\n  sstore\n  pop\n    /* \"chapter10/RandomGame.sol\":1323:1491  constructor(string memory _key1, uint _key2) {... */\n  pop\n  pop\n    /* \"chapter10/RandomGame.sol\":505:3172  contract RandomGame {... */\n  jump(tag_10)\n    /* \"chapter10/RandomGame.sol\":1499:1939  function randomNumber() private view returns(uint) {... */\ntag_9:\n    /* \"chapter10/RandomGame.sol\":1544:1548  uint */\n  0x00\n    /* \"chapter10/RandomGame.sol\":1561:1569  uint num */\n  dup1\n    /* \"chapter10/RandomGame.sol\":1635:1647  block.number */\n  number\n    /* \"chapter10/RandomGame.sol\":1616:1631  block.timestamp */\n  timestamp\n    /* \"chapter10/RandomGame.sol\":1608:1612  key2 */\n  sload(0x04)\n    /* \"chapter10/RandomGame.sol\":1598:1602  key1 */\n  0x03\n    /* \"chapter10/RandomGame.sol\":1587:1603  abi.encode(key1) */\n  add(0x20, mload(0x40))\n  tag_12\n  swap2\n  swap1\n  tag_13\n  jump\t// in\ntag_12:\n  mload(0x40)\n  0x20\n  dup2\n  dup4\n  sub\n  sub\n  dup2\n  mstore\n  swap1\n  0x40\n  mstore\n    /* \"chapter10/RandomGame.sol\":1577:1604  keccak256(abi.encode(key1)) */\n  dup1\n  mload\n  swap1\n  0x20\n  add\n  keccak256\n    /* \"chapter10/RandomGame.sol\":1572:1605  uint(keccak256(abi.encode(key1))) */\n  0x00\n  shr\n    /* \"chapter10/RandomGame.sol\":1572:1612  uint(keccak256(abi.encode(key1))) + key2 */\n  tag_14\n  swap2\n  swap1\n  tag_15\n  jump\t// in\ntag_14:\n    /* \"chapter10/RandomGame.sol\":1572:1632  uint(keccak256(abi.encode(key1))) + key2 + (block.timestamp) */\n  tag_16\n  swap2\n  swap1\n  tag_15\n  jump\t// in\ntag_16:\n    /* \"chapter10/RandomGame.sol\":1572:1648  uint(keccak256(abi.encode(key1))) + key2 + (block.timestamp) +(block.number) */\n  tag_17\n  swap2\n  swap1\n  tag_15\n  jump\t// in\ntag_17:\n    /* \"chapter10/RandomGame.sol\":1561:1648  uint num = uint(keccak256(abi.encode(key1))) + key2 + (block.timestamp) +(block.number) */\n  swap1\n  pop\n    /* \"chapter10/RandomGame.sol\":1930:1931  1 */\n  0x01\n    /* \"chapter10/RandomGame.sol\":1926:1927  2 */\n  0x02\n    /* \"chapter10/RandomGame.sol\":1923:1924  2 */\n  dup1\n    /* \"chapter10/RandomGame.sol\":1919:1922  num */\n  dup4\n    /* \"chapter10/RandomGame.sol\":1919:1924  num/2 */\n  tag_18\n  swap2\n  swap1\n  tag_19\n  jump\t// in\ntag_18:\n    /* \"chapter10/RandomGame.sol\":1918:1927  (num/2)*2 */\n  tag_20\n  swap2\n  swap1\n  tag_21\n  jump\t// in\ntag_20:\n    /* \"chapter10/RandomGame.sol\":1912:1915  num */\n  dup3\n    /* \"chapter10/RandomGame.sol\":1912:1927  num - (num/2)*2 */\n  tag_22\n  swap2\n  swap1\n  tag_23\n  jump\t// in\ntag_22:\n    /* \"chapter10/RandomGame.sol\":1911:1931  (num - (num/2)*2) +1 */\n  tag_24\n  swap2\n  swap1\n  tag_15\n  jump\t// in\ntag_24:\n    /* \"chapter10/RandomGame.sol\":1904:1931  return (num - (num/2)*2) +1 */\n  swap2\n  pop\n  pop\n    /* \"chapter10/RandomGame.sol\":1499:1939  function randomNumber() private view returns(uint) {... */\n  swap1\n  jump\t// out\n    /* \"#utility.yul\":7:82   */\ntag_25:\n    /* \"#utility.yul\":40:46   */\n  0x00\n    /* \"#utility.yul\":73:75   */\n  0x40\n    /* \"#utility.yul\":67:76   */\n  mload\n    /* \"#utility.yul\":57:76   */\n  swap1\n  pop\n    /* \"#utility.yul\":7:82   */\n  swap1\n  jump\t// out\n    /* \"#utility.yul\":88:205   */\ntag_26:\n    /* \"#utility.yul\":197:198   */\n  0x00\n    /* \"#utility.yul\":194:195   */\n  dup1\n    /* \"#utility.yul\":187:199   */\n  revert\n    /* \"#utility.yul\":211:328   */\ntag_27:\n    /* \"#utility.yul\":320:321   */\n  0x00\n    /* \"#utility.yul\":317:318   */\n  dup1\n    /* \"#utility.yul\":310:322   */\n  revert\n    /* \"#utility.yul\":334:451   */\ntag_28:\n    /* \"#utility.yul\":443:444   */\n  0x00\n    /* \"#utility.yul\":440:441   */\n  dup1\n    /* \"#utility.yul\":433:445   */\n  revert\n    /* \"#utility.yul\":457:574   */\ntag_29:\n    /* \"#utility.yul\":566:567   */\n  0x00\n    /* \"#utility.yul\":563:564   */\n  dup1\n    /* \"#utility.yul\":556:568   */\n  revert\n    /* \"#utility.yul\":580:682   */\ntag_30:\n    /* \"#utility.yul\":621:627   */\n  0x00\n    /* \"#utility.yul\":672:674   */\n  0x1f\n    /* \"#utility.yul\":668:675   */\n  not\n    /* \"#utility.yul\":663:665   */\n  0x1f\n    /* \"#utility.yul\":656:661   */\n  dup4\n    /* \"#utility.yul\":652:666   */\n  add\n    /* \"#utility.yul\":648:676   */\n  and\n    /* \"#utility.yul\":638:676   */\n  swap1\n  pop\n    /* \"#utility.yul\":580:682   */\n  swap2\n  swap1\n  pop\n  jump\t// out\n    /* \"#utility.yul\":688:868   */\ntag_31:\n    /* \"#utility.yul\":736:813   */\n  0x4e487b7100000000000000000000000000000000000000000000000000000000\n    /* \"#utility.yul\":733:734   */\n  0x00\n    /* \"#utility.yul\":726:814   */\n  mstore\n    /* \"#utility.yul\":833:837   */\n  0x41\n    /* \"#utility.yul\":830:831   */\n  0x04\n    /* \"#utility.yul\":823:838   */\n  mstore\n    /* \"#utility.yul\":857:861   */\n  0x24\n    /* \"#utility.yul\":854:855   */\n  0x00\n    /* \"#utility.yul\":847:862   */\n  revert\n    /* \"#utility.yul\":874:1155   */\ntag_32:\n    /* \"#utility.yul\":957:984   */\n  tag_72\n    /* \"#utility.yul\":979:983   */\n  dup3\n    /* \"#utility.yul\":957:984   */\n  tag_30\n  jump\t// in\ntag_72:\n    /* \"#utility.yul\":949:955   */\n  dup2\n    /* \"#utility.yul\":945:985   */\n  add\n    /* \"#utility.yul\":1087:1093   */\n  dup2\n    /* \"#utility.yul\":1075:1085   */\n  dup2\n    /* \"#utility.yul\":1072:1094   */\n  lt\n    /* \"#utility.yul\":1051:1069   */\n  0xffffffffffffffff\n    /* \"#utility.yul\":1039:1049   */\n  dup3\n    /* \"#utility.yul\":1036:1070   */\n  gt\n    /* \"#utility.yul\":1033:1095   */\n  or\n    /* \"#utility.yul\":1030:1118   */\n  iszero\n  tag_73\n  jumpi\n    /* \"#utility.yul\":1098:1116   */\n  tag_74\n  tag_31\n  jump\t// in\ntag_74:\n    /* \"#utility.yul\":1030:1118   */\ntag_73:\n    /* \"#utility.yul\":1138:1148   */\n  dup1\n    /* \"#utility.yul\":1134:1136   */\n  0x40\n    /* \"#utility.yul\":1127:1149   */\n  mstore\n    /* \"#utility.yul\":917:1155   */\n  pop\n    /* \"#utility.yul\":874:1155   */\n  pop\n  pop\n  jump\t// out\n    /* \"#utility.yul\":1161:1290   */\ntag_33:\n    /* \"#utility.yul\":1195:1201   */\n  0x00\n    /* \"#utility.yul\":1222:1242   */\n  tag_76\n  tag_25\n  jump\t// in\ntag_76:\n    /* \"#utility.yul\":1212:1242   */\n  swap1\n  pop\n    /* \"#utility.yul\":1251:1284   */\n  tag_77\n    /* \"#utility.yul\":1279:1283   */\n  dup3\n    /* \"#utility.yul\":1271:1277   */\n  dup3\n    /* \"#utility.yul\":1251:1284   */\n  tag_32\n  jump\t// in\ntag_77:\n    /* \"#utility.yul\":1161:1290   */\n  swap2\n  swap1\n  pop\n  jump\t// out\n    /* \"#utility.yul\":1296:1604   */\ntag_34:\n    /* \"#utility.yul\":1358:1362   */\n  0x00\n    /* \"#utility.yul\":1448:1466   */\n  0xffffffffffffffff\n    /* \"#utility.yul\":1440:1446   */\n  dup3\n    /* \"#utility.yul\":1437:1467   */\n  gt\n    /* \"#utility.yul\":1434:1490   */\n  iszero\n  tag_79\n  jumpi\n    /* \"#utility.yul\":1470:1488   */\n  tag_80\n  tag_31\n  jump\t// in\ntag_80:\n    /* \"#utility.yul\":1434:1490   */\ntag_79:\n    /* \"#utility.yul\":1508:1537   */\n  tag_81\n    /* \"#utility.yul\":1530:1536   */\n  dup3\n    /* \"#utility.yul\":1508:1537   */\n  tag_30\n  jump\t// in\ntag_81:\n    /* \"#utility.yul\":1500:1537   */\n  swap1\n  pop\n    /* \"#utility.yul\":1592:1596   */\n  0x20\n    /* \"#utility.yul\":1586:1590   */\n  dup2\n    /* \"#utility.yul\":1582:1597   */\n  add\n    /* \"#utility.yul\":1574:1597   */\n  swap1\n  pop\n    /* \"#utility.yul\":1296:1604   */\n  swap2\n  swap1\n  pop\n  jump\t// out\n    /* \"#utility.yul\":1610:1856   */\ntag_35:\n    /* \"#utility.yul\":1691:1692   */\n  0x00\n    /* \"#utility.yul\":1701:1814   */\ntag_83:\n    /* \"#utility.yul\":1715:1721   */\n  dup4\n    /* \"#utility.yul\":1712:1713   */\n  dup2\n    /* \"#utility.yul\":1709:1722   */\n  lt\n    /* \"#utility.yul\":1701:1814   */\n  iszero\n  tag_85\n  jumpi\n    /* \"#utility.yul\":1800:1801   */\n  dup1\n    /* \"#utility.yul\":1795:1798   */\n  dup3\n    /* \"#utility.yul\":1791:1802   */\n  add\n    /* \"#utility.yul\":1785:1803   */\n  mload\n    /* \"#utility.yul\":1781:1782   */\n  dup2\n    /* \"#utility.yul\":1776:1779   */\n  dup5\n    /* \"#utility.yul\":1772:1783   */\n  add\n    /* \"#utility.yul\":1765:1804   */\n  mstore\n    /* \"#utility.yul\":1737:1739   */\n  0x20\n    /* \"#utility.yul\":1734:1735   */\n  dup2\n    /* \"#utility.yul\":1730:1740   */\n  add\n    /* \"#utility.yul\":1725:1740   */\n  swap1\n  pop\n    /* \"#utility.yul\":1701:1814   */\n  jump(tag_83)\ntag_85:\n    /* \"#utility.yul\":1848:1849   */\n  0x00\n    /* \"#utility.yul\":1839:1845   */\n  dup5\n    /* \"#utility.yul\":1834:1837   */\n  dup5\n    /* \"#utility.yul\":1830:1846   */\n  add\n    /* \"#utility.yul\":1823:1850   */\n  mstore\n    /* \"#utility.yul\":1672:1856   */\n  pop\n    /* \"#utility.yul\":1610:1856   */\n  pop\n  pop\n  pop\n  jump\t// out\n    /* \"#utility.yul\":1862:2296   */\ntag_36:\n    /* \"#utility.yul\":1951:1956   */\n  0x00\n    /* \"#utility.yul\":1976:2042   */\n  tag_87\n    /* \"#utility.yul\":1992:2041   */\n  tag_88\n    /* \"#utility.yul\":2034:2040   */\n  dup5\n    /* \"#utility.yul\":1992:2041   */\n  tag_34\n  jump\t// in\ntag_88:\n    /* \"#utility.yul\":1976:2042   */\n  tag_33\n  jump\t// in\ntag_87:\n    /* \"#utility.yul\":1967:2042   */\n  swap1\n  pop\n    /* \"#utility.yul\":2065:2071   */\n  dup3\n    /* \"#utility.yul\":2058:2063   */\n  dup2\n    /* \"#utility.yul\":2051:2072   */\n  mstore\n    /* \"#utility.yul\":2103:2107   */\n  0x20\n    /* \"#utility.yul\":2096:2101   */\n  dup2\n    /* \"#utility.yul\":2092:2108   */\n  add\n    /* \"#utility.yul\":2141:2144   */\n  dup5\n    /* \"#utility.yul\":2132:2138   */\n  dup5\n    /* \"#utility.yul\":2127:2130   */\n  dup5\n    /* \"#utility.yul\":2123:2139   */\n  add\n    /* \"#utility.yul\":2120:2145   */\n  gt\n    /* \"#utility.yul\":2117:2229   */\n  iszero\n  tag_89\n  jumpi\n    /* \"#utility.yul\":2148:2227   */\n  tag_90\n  tag_29\n  jump\t// in\ntag_90:\n    /* \"#utility.yul\":2117:2229   */\ntag_89:\n    /* \"#utility.yul\":2238:2290   */\n  tag_91\n    /* \"#utility.yul\":2283:2289   */\n  dup5\n    /* \"#utility.yul\":2278:2281   */\n  dup3\n    /* \"#utility.yul\":2273:2276   */\n  dup6\n    /* \"#utility.yul\":2238:2290   */\n  tag_35\n  jump\t// in\ntag_91:\n    /* \"#utility.yul\":1957:2296   */\n  pop\n    /* \"#utility.yul\":1862:2296   */\n  swap4\n  swap3\n  pop\n  pop\n  pop\n  jump\t// out\n    /* \"#utility.yul\":2316:2671   */\ntag_37:\n    /* \"#utility.yul\":2383:2388   */\n  0x00\n    /* \"#utility.yul\":2432:2435   */\n  dup3\n    /* \"#utility.yul\":2425:2429   */\n  0x1f\n    /* \"#utility.yul\":2417:2423   */\n  dup4\n    /* \"#utility.yul\":2413:2430   */\n  add\n    /* \"#utility.yul\":2409:2436   */\n  slt\n    /* \"#utility.yul\":2399:2521   */\n  tag_93\n  jumpi\n    /* \"#utility.yul\":2440:2519   */\n  tag_94\n  tag_28\n  jump\t// in\ntag_94:\n    /* \"#utility.yul\":2399:2521   */\ntag_93:\n    /* \"#utility.yul\":2550:2556   */\n  dup2\n    /* \"#utility.yul\":2544:2557   */\n  mload\n    /* \"#utility.yul\":2575:2665   */\n  tag_95\n    /* \"#utility.yul\":2661:2664   */\n  dup5\n    /* \"#utility.yul\":2653:2659   */\n  dup3\n    /* \"#utility.yul\":2646:2650   */\n  0x20\n    /* \"#utility.yul\":2638:2644   */\n  dup7\n    /* \"#utility.yul\":2634:2651   */\n  add\n    /* \"#utility.yul\":2575:2665   */\n  tag_36\n  jump\t// in\ntag_95:\n    /* \"#utility.yul\":2566:2665   */\n  swap2\n  pop\n    /* \"#utility.yul\":2389:2671   */\n  pop\n    /* \"#utility.yul\":2316:2671   */\n  swap3\n  swap2\n  pop\n  pop\n  jump\t// out\n    /* \"#utility.yul\":2677:2754   */\ntag_38:\n    /* \"#utility.yul\":2714:2721   */\n  0x00\n    /* \"#utility.yul\":2743:2748   */\n  dup2\n    /* \"#utility.yul\":2732:2748   */\n  swap1\n  pop\n    /* \"#utility.yul\":2677:2754   */\n  swap2\n  swap1\n  pop\n  jump\t// out\n    /* \"#utility.yul\":2760:2882   */\ntag_39:\n    /* \"#utility.yul\":2833:2857   */\n  tag_98\n    /* \"#utility.yul\":2851:2856   */\n  dup2\n    /* \"#utility.yul\":2833:2857   */\n  tag_38\n  jump\t// in\ntag_98:\n    /* \"#utility.yul\":2826:2831   */\n  dup2\n    /* \"#utility.yul\":2823:2858   */\n  eq\n    /* \"#utility.yul\":2813:2876   */\n  tag_99\n  jumpi\n    /* \"#utility.yul\":2872:2873   */\n  0x00\n    /* \"#utility.yul\":2869:2870   */\n  dup1\n    /* \"#utility.yul\":2862:2874   */\n  revert\n    /* \"#utility.yul\":2813:2876   */\ntag_99:\n    /* \"#utility.yul\":2760:2882   */\n  pop\n  jump\t// out\n    /* \"#utility.yul\":2888:3031   */\ntag_40:\n    /* \"#utility.yul\":2945:2950   */\n  0x00\n    /* \"#utility.yul\":2976:2982   */\n  dup2\n    /* \"#utility.yul\":2970:2983   */\n  mload\n    /* \"#utility.yul\":2961:2983   */\n  swap1\n  pop\n    /* \"#utility.yul\":2992:3025   */\n  tag_101\n    /* \"#utility.yul\":3019:3024   */\n  dup2\n    /* \"#utility.yul\":2992:3025   */\n  tag_39\n  jump\t// in\ntag_101:\n    /* \"#utility.yul\":2888:3031   */\n  swap3\n  swap2\n  pop\n  pop\n  jump\t// out\n    /* \"#utility.yul\":3037:3717   */\ntag_3:\n    /* \"#utility.yul\":3126:3132   */\n  0x00\n    /* \"#utility.yul\":3134:3140   */\n  dup1\n    /* \"#utility.yul\":3183:3185   */\n  0x40\n    /* \"#utility.yul\":3171:3180   */\n  dup4\n    /* \"#utility.yul\":3162:3169   */\n  dup6\n    /* \"#utility.yul\":3158:3181   */\n  sub\n    /* \"#utility.yul\":3154:3186   */\n  slt\n    /* \"#utility.yul\":3151:3270   */\n  iszero\n  tag_103\n  jumpi\n    /* \"#utility.yul\":3189:3268   */\n  tag_104\n  tag_26\n  jump\t// in\ntag_104:\n    /* \"#utility.yul\":3151:3270   */\ntag_103:\n    /* \"#utility.yul\":3330:3331   */\n  0x00\n    /* \"#utility.yul\":3319:3328   */\n  dup4\n    /* \"#utility.yul\":3315:3332   */\n  add\n    /* \"#utility.yul\":3309:3333   */\n  mload\n    /* \"#utility.yul\":3360:3378   */\n  0xffffffffffffffff\n    /* \"#utility.yul\":3352:3358   */\n  dup2\n    /* \"#utility.yul\":3349:3379   */\n  gt\n    /* \"#utility.yul\":3346:3463   */\n  iszero\n  tag_105\n  jumpi\n    /* \"#utility.yul\":3382:3461   */\n  tag_106\n  tag_27\n  jump\t// in\ntag_106:\n    /* \"#utility.yul\":3346:3463   */\ntag_105:\n    /* \"#utility.yul\":3487:3561   */\n  tag_107\n    /* \"#utility.yul\":3553:3560   */\n  dup6\n    /* \"#utility.yul\":3544:3550   */\n  dup3\n    /* \"#utility.yul\":3533:3542   */\n  dup7\n    /* \"#utility.yul\":3529:3551   */\n  add\n    /* \"#utility.yul\":3487:3561   */\n  tag_37\n  jump\t// in\ntag_107:\n    /* \"#utility.yul\":3477:3561   */\n  swap3\n  pop\n    /* \"#utility.yul\":3280:3571   */\n  pop\n    /* \"#utility.yul\":3610:3612   */\n  0x20\n    /* \"#utility.yul\":3636:3700   */\n  tag_108\n    /* \"#utility.yul\":3692:3699   */\n  dup6\n    /* \"#utility.yul\":3683:3689   */\n  dup3\n    /* \"#utility.yul\":3672:3681   */\n  dup7\n    /* \"#utility.yul\":3668:3690   */\n  add\n    /* \"#utility.yul\":3636:3700   */\n  tag_40\n  jump\t// in\ntag_108:\n    /* \"#utility.yul\":3626:3700   */\n  swap2\n  pop\n    /* \"#utility.yul\":3581:3710   */\n  pop\n    /* \"#utility.yul\":3037:3717   */\n  swap3\n  pop\n  swap3\n  swap1\n  pop\n  jump\t// out\n    /* \"#utility.yul\":3723:3822   */\ntag_41:\n    /* \"#utility.yul\":3775:3781   */\n  0x00\n    /* \"#utility.yul\":3809:3814   */\n  dup2\n    /* \"#utility.yul\":3803:3815   */\n  mload\n    /* \"#utility.yul\":3793:3815   */\n  swap1\n  pop\n    /* \"#utility.yul\":3723:3822   */\n  swap2\n  swap1\n  pop\n  jump\t// out\n    /* \"#utility.yul\":3828:4008   */\ntag_42:\n    /* \"#utility.yul\":3876:3953   */\n  0x4e487b7100000000000000000000000000000000000000000000000000000000\n    /* \"#utility.yul\":3873:3874   */\n  0x00\n    /* \"#utility.yul\":3866:3954   */\n  mstore\n    /* \"#utility.yul\":3973:3977   */\n  0x22\n    /* \"#utility.yul\":3970:3971   */\n  0x04\n    /* \"#utility.yul\":3963:3978   */\n  mstore\n    /* \"#utility.yul\":3997:4001   */\n  0x24\n    /* \"#utility.yul\":3994:3995   */\n  0x00\n    /* \"#utility.yul\":3987:4002   */\n  revert\n    /* \"#utility.yul\":4014:4334   */\ntag_43:\n    /* \"#utility.yul\":4058:4064   */\n  0x00\n    /* \"#utility.yul\":4095:4096   */\n  0x02\n    /* \"#utility.yul\":4089:4093   */\n  dup3\n    /* \"#utility.yul\":4085:4097   */\n  div\n    /* \"#utility.yul\":4075:4097   */\n  swap1\n  pop\n    /* \"#utility.yul\":4142:4143   */\n  0x01\n    /* \"#utility.yul\":4136:4140   */\n  dup3\n    /* \"#utility.yul\":4132:4144   */\n  and\n    /* \"#utility.yul\":4163:4181   */\n  dup1\n    /* \"#utility.yul\":4153:4234   */\n  tag_112\n  jumpi\n    /* \"#utility.yul\":4219:4223   */\n  0x7f\n    /* \"#utility.yul\":4211:4217   */\n  dup3\n    /* \"#utility.yul\":4207:4224   */\n  and\n    /* \"#utility.yul\":4197:4224   */\n  swap2\n  pop\n    /* \"#utility.yul\":4153:4234   */\ntag_112:\n    /* \"#utility.yul\":4281:4283   */\n  0x20\n    /* \"#utility.yul\":4273:4279   */\n  dup3\n    /* \"#utility.yul\":4270:4284   */\n  lt\n    /* \"#utility.yul\":4250:4268   */\n  dup2\n    /* \"#utility.yul\":4247:4285   */\n  sub\n    /* \"#utility.yul\":4244:4328   */\n  tag_113\n  jumpi\n    /* \"#utility.yul\":4300:4318   */\n  tag_114\n  tag_42\n  jump\t// in\ntag_114:\n    /* \"#utility.yul\":4244:4328   */\ntag_113:\n    /* \"#utility.yul\":4065:4334   */\n  pop\n    /* \"#utility.yul\":4014:4334   */\n  swap2\n  swap1\n  pop\n  jump\t// out\n    /* \"#utility.yul\":4340:4481   */\ntag_44:\n    /* \"#utility.yul\":4389:4393   */\n  0x00\n    /* \"#utility.yul\":4412:4415   */\n  dup2\n    /* \"#utility.yul\":4404:4415   */\n  swap1\n  pop\n    /* \"#utility.yul\":4435:4438   */\n  dup2\n    /* \"#utility.yul\":4432:4433   */\n  0x00\n    /* \"#utility.yul\":4425:4439   */\n  mstore\n    /* \"#utility.yul\":4469:4473   */\n  0x20\n    /* \"#utility.yul\":4466:4467   */\n  0x00\n    /* \"#utility.yul\":4456:4474   */\n  keccak256\n    /* \"#utility.yul\":4448:4474   */\n  swap1\n  pop\n    /* \"#utility.yul\":4340:4481   */\n  swap2\n  swap1\n  pop\n  jump\t// out\n    /* \"#utility.yul\":4487:4580   */\ntag_45:\n    /* \"#utility.yul\":4524:4530   */\n  0x00\n    /* \"#utility.yul\":4571:4573   */\n  0x20\n    /* \"#utility.yul\":4566:4568   */\n  0x1f\n    /* \"#utility.yul\":4559:4564   */\n  dup4\n    /* \"#utility.yul\":4555:4569   */\n  add\n    /* \"#utility.yul\":4551:4574   */\n  div\n    /* \"#utility.yul\":4541:4574   */\n  swap1\n  pop\n    /* \"#utility.yul\":4487:4580   */\n  swap2\n  swap1\n  pop\n  jump\t// out\n    /* \"#utility.yul\":4586:4693   */\ntag_46:\n    /* \"#utility.yul\":4630:4638   */\n  0x00\n    /* \"#utility.yul\":4680:4685   */\n  dup3\n    /* \"#utility.yul\":4674:4678   */\n  dup3\n    /* \"#utility.yul\":4670:4686   */\n  shl\n    /* \"#utility.yul\":4649:4686   */\n  swap1\n  pop\n    /* \"#utility.yul\":4586:4693   */\n  swap3\n  swap2\n  pop\n  pop\n  jump\t// out\n    /* \"#utility.yul\":4699:5092   */\ntag_47:\n    /* \"#utility.yul\":4768:4774   */\n  0x00\n    /* \"#utility.yul\":4818:4819   */\n  0x08\n    /* \"#utility.yul\":4806:4816   */\n  dup4\n    /* \"#utility.yul\":4802:4820   */\n  mul\n    /* \"#utility.yul\":4841:4938   */\n  tag_119\n    /* \"#utility.yul\":4871:4937   */\n  0xffffffffffffffffffffffffffffffffffffffffffffffffffffffffffffffff\n    /* \"#utility.yul\":4860:4869   */\n  dup3\n    /* \"#utility.yul\":4841:4938   */\n  tag_46\n  jump\t// in\ntag_119:\n    /* \"#utility.yul\":4959:4998   */\n  tag_120\n    /* \"#utility.yul\":4989:4997   */\n  dup7\n    /* \"#utility.yul\":4978:4987   */\n  dup4\n    /* \"#utility.yul\":4959:4998   */\n  tag_46\n  jump\t// in\ntag_120:\n    /* \"#utility.yul\":4947:4998   */\n  swap6\n  pop\n    /* \"#utility.yul\":5031:5035   */\n  dup1\n    /* \"#utility.yul\":5027:5036   */\n  not\n    /* \"#utility.yul\":5020:5025   */\n  dup5\n    /* \"#utility.yul\":5016:5037   */\n  and\n    /* \"#utility.yul\":5007:5037   */\n  swap4\n  pop\n    /* \"#utility.yul\":5080:5084   */\n  dup1\n    /* \"#utility.yul\":5070:5078   */\n  dup7\n    /* \"#utility.yul\":5066:5085   */\n  and\n    /* \"#utility.yul\":5059:5064   */\n  dup5\n    /* \"#utility.yul\":5056:5086   */\n  or\n    /* \"#utility.yul\":5046:5086   */\n  swap3\n  pop\n    /* \"#utility.yul\":4775:5092   */\n  pop\n  pop\n    /* \"#utility.yul\":4699:5092   */\n  swap4\n  swap3\n  pop\n  pop\n  pop\n  jump\t// out\n    /* \"#utility.yul\":5098:5158   */\ntag_48:\n    /* \"#utility.yul\":5126:5129   */\n  0x00\n    /* \"#utility.yul\":5147:5152   */\n  dup2\n    /* \"#utility.yul\":5140:5152   */\n  swap1\n  pop\n    /* \"#utility.yul\":5098:5158   */\n  swap2\n  swap1\n  pop\n  jump\t// out\n    /* \"#utility.yul\":5164:5306   */\ntag_49:\n    /* \"#utility.yul\":5214:5223   */\n  0x00\n    /* \"#utility.yul\":5247:5300   */\n  tag_123\n    /* \"#utility.yul\":5265:5299   */\n  tag_124\n    /* \"#utility.yul\":5274:5298   */\n  tag_125\n    /* \"#utility.yul\":5292:5297   */\n  dup5\n    /* \"#utility.yul\":5274:5298   */\n  tag_38\n  jump\t// in\ntag_125:\n    /* \"#utility.yul\":5265:5299   */\n  tag_48\n  jump\t// in\ntag_124:\n    /* \"#utility.yul\":5247:5300   */\n  tag_38\n  jump\t// in\ntag_123:\n    /* \"#utility.yul\":5234:5300   */\n  swap1\n  pop\n    /* \"#utility.yul\":5164:5306   */\n  swap2\n  swap1\n  pop\n  jump\t// out\n    /* \"#utility.yul\":5312:5387   */\ntag_50:\n    /* \"#utility.yul\":5355:5358   */\n  0x00\n    /* \"#utility.yul\":5376:5381   */\n  dup2\n    /* \"#utility.yul\":5369:5381   */\n  swap1\n  pop\n    /* \"#utility.yul\":5312:5387   */\n  swap2\n  swap1\n  pop\n  jump\t// out\n    /* \"#utility.yul\":5393:5662   */\ntag_51:\n    /* \"#utility.yul\":5503:5542   */\n  tag_128\n    /* \"#utility.yul\":5534:5541   */\n  dup4\n    /* \"#utility.yul\":5503:5542   */\n  tag_49\n  jump\t// in\ntag_128:\n    /* \"#utility.yul\":5564:5655   */\n  tag_129\n    /* \"#utility.yul\":5613:5654   */\n  tag_130\n    /* \"#utility.yul\":5637:5653   */\n  dup3\n    /* \"#utility.yul\":5613:5654   */\n  tag_50\n  jump\t// in\ntag_130:\n    /* \"#utility.yul\":5605:5611   */\n  dup5\n    /* \"#utility.yul\":5598:5602   */\n  dup5\n    /* \"#utility.yul\":5592:5603   */\n  sload\n    /* \"#utility.yul\":5564:5655   */\n  tag_47\n  jump\t// in\ntag_129:\n    /* \"#utility.yul\":5558:5562   */\n  dup3\n    /* \"#utility.yul\":5551:5656   */\n  sstore\n    /* \"#utility.yul\":5469:5662   */\n  pop\n    /* \"#utility.yul\":5393:5662   */\n  pop\n  pop\n  pop\n  jump\t// out\n    /* \"#utility.yul\":5668:5741   */\ntag_52:\n    /* \"#utility.yul\":5713:5716   */\n  0x00\n    /* \"#utility.yul\":5668:5741   */\n  swap1\n  jump\t// out\n    /* \"#utility.yul\":5747:5936   */\ntag_53:\n    /* \"#utility.yul\":5824:5856   */\n  tag_133\n  tag_52\n  jump\t// in\ntag_133:\n    /* \"#utility.yul\":5865:5930   */\n  tag_134\n    /* \"#utility.yul\":5923:5929   */\n  dup2\n    /* \"#utility.yul\":5915:5921   */\n  dup5\n    /* \"#utility.yul\":5909:5913   */\n  dup5\n    /* \"#utility.yul\":5865:5930   */\n  tag_51\n  jump\t// in\ntag_134:\n    /* \"#utility.yul\":5800:5936   */\n  pop\n    /* \"#utility.yul\":5747:5936   */\n  pop\n  pop\n  jump\t// out\n    /* \"#utility.yul\":5942:6128   */\ntag_54:\n    /* \"#utility.yul\":6002:6122   */\ntag_136:\n    /* \"#utility.yul\":6019:6022   */\n  dup2\n    /* \"#utility.yul\":6012:6017   */\n  dup2\n    /* \"#utility.yul\":6009:6023   */\n  lt\n    /* \"#utility.yul\":6002:6122   */\n  iszero\n  tag_138\n  jumpi\n    /* \"#utility.yul\":6073:6112   */\n  tag_139\n    /* \"#utility.yul\":6110:6111   */\n  0x00\n    /* \"#utility.yul\":6103:6108   */\n  dup3\n    /* \"#utility.yul\":6073:6112   */\n  tag_53\n  jump\t// in\ntag_139:\n    /* \"#utility.yul\":6046:6047   */\n  0x01\n    /* \"#utility.yul\":6039:6044   */\n  dup2\n    /* \"#utility.yul\":6035:6048   */\n  add\n    /* \"#utility.yul\":6026:6048   */\n  swap1\n  pop\n    /* \"#utility.yul\":6002:6122   */\n  jump(tag_136)\ntag_138:\n    /* \"#utility.yul\":5942:6128   */\n  pop\n  pop\n  jump\t// out\n    /* \"#utility.yul\":6134:6677   */\ntag_55:\n    /* \"#utility.yul\":6235:6237   */\n  0x1f\n    /* \"#utility.yul\":6230:6233   */\n  dup3\n    /* \"#utility.yul\":6227:6238   */\n  gt\n    /* \"#utility.yul\":6224:6670   */\n  iszero\n  tag_141\n  jumpi\n    /* \"#utility.yul\":6269:6307   */\n  tag_142\n    /* \"#utility.yul\":6301:6306   */\n  dup2\n    /* \"#utility.yul\":6269:6307   */\n  tag_44\n  jump\t// in\ntag_142:\n    /* \"#utility.yul\":6353:6382   */\n  tag_143\n    /* \"#utility.yul\":6371:6381   */\n  dup5\n    /* \"#utility.yul\":6353:6382   */\n  tag_45\n  jump\t// in\ntag_143:\n    /* \"#utility.yul\":6343:6351   */\n  dup2\n    /* \"#utility.yul\":6339:6383   */\n  add\n    /* \"#utility.yul\":6536:6538   */\n  0x20\n    /* \"#utility.yul\":6524:6534   */\n  dup6\n    /* \"#utility.yul\":6521:6539   */\n  lt\n    /* \"#utility.yul\":6518:6567   */\n  iszero\n  tag_144\n  jumpi\n    /* \"#utility.yul\":6557:6565   */\n  dup2\n    /* \"#utility.yul\":6542:6565   */\n  swap1\n  pop\n    /* \"#utility.yul\":6518:6567   */\ntag_144:\n    /* \"#utility.yul\":6580:6660   */\n  tag_145\n    /* \"#utility.yul\":6636:6658   */\n  tag_146\n    /* \"#utility.yul\":6654:6657   */\n  dup6\n    /* \"#utility.yul\":6636:6658   */\n  tag_45\n  jump\t// in\ntag_146:\n    /* \"#utility.yul\":6626:6634   */\n  dup4\n    /* \"#utility.yul\":6622:6659   */\n  add\n    /* \"#utility.yul\":6609:6620   */\n  dup3\n    /* \"#utility.yul\":6580:6660   */\n  tag_54\n  jump\t// in\ntag_145:\n    /* \"#utility.yul\":6239:6670   */\n  pop\n  pop\n    /* \"#utility.yul\":6224:6670   */\ntag_141:\n    /* \"#utility.yul\":6134:6677   */\n  pop\n  pop\n  pop\n  jump\t// out\n    /* \"#utility.yul\":6683:6800   */\ntag_56:\n    /* \"#utility.yul\":6737:6745   */\n  0x00\n    /* \"#utility.yul\":6787:6792   */\n  dup3\n    /* \"#utility.yul\":6781:6785   */\n  dup3\n    /* \"#utility.yul\":6777:6793   */\n  shr\n    /* \"#utility.yul\":6756:6793   */\n  swap1\n  pop\n    /* \"#utility.yul\":6683:6800   */\n  swap3\n  swap2\n  pop\n  pop\n  jump\t// out\n    /* \"#utility.yul\":6806:6975   */\ntag_57:\n    /* \"#utility.yul\":6850:6856   */\n  0x00\n    /* \"#utility.yul\":6883:6934   */\n  tag_149\n    /* \"#utility.yul\":6931:6932   */\n  0x00\n    /* \"#utility.yul\":6927:6933   */\n  not\n    /* \"#utility.yul\":6919:6924   */\n  dup5\n    /* \"#utility.yul\":6916:6917   */\n  0x08\n    /* \"#utility.yul\":6912:6925   */\n  mul\n    /* \"#utility.yul\":6883:6934   */\n  tag_56\n  jump\t// in\ntag_149:\n    /* \"#utility.yul\":6879:6935   */\n  not\n    /* \"#utility.yul\":6964:6968   */\n  dup1\n    /* \"#utility.yul\":6958:6962   */\n  dup4\n    /* \"#utility.yul\":6954:6969   */\n  and\n    /* \"#utility.yul\":6944:6969   */\n  swap2\n  pop\n    /* \"#utility.yul\":6857:6975   */\n  pop\n    /* \"#utility.yul\":6806:6975   */\n  swap3\n  swap2\n  pop\n  pop\n  jump\t// out\n    /* \"#utility.yul\":6980:7275   */\ntag_58:\n    /* \"#utility.yul\":7056:7060   */\n  0x00\n    /* \"#utility.yul\":7202:7231   */\n  tag_151\n    /* \"#utility.yul\":7227:7230   */\n  dup4\n    /* \"#utility.yul\":7221:7225   */\n  dup4\n    /* \"#utility.yul\":7202:7231   */\n  tag_57\n  jump\t// in\ntag_151:\n    /* \"#utility.yul\":7194:7231   */\n  swap2\n  pop\n    /* \"#utility.yul\":7264:7267   */\n  dup3\n    /* \"#utility.yul\":7261:7262   */\n  0x02\n    /* \"#utility.yul\":7257:7268   */\n  mul\n    /* \"#utility.yul\":7251:7255   */\n  dup3\n    /* \"#utility.yul\":7248:7269   */\n  or\n    /* \"#utility.yul\":7240:7269   */\n  swap1\n  pop\n    /* \"#utility.yul\":6980:7275   */\n  swap3\n  swap2\n  pop\n  pop\n  jump\t// out\n    /* \"#utility.yul\":7280:8675   */\ntag_7:\n    /* \"#utility.yul\":7397:7434   */\n  tag_153\n    /* \"#utility.yul\":7430:7433   */\n  dup3\n    /* \"#utility.yul\":7397:7434   */\n  tag_41\n  jump\t// in\ntag_153:\n    /* \"#utility.yul\":7499:7517   */\n  0xffffffffffffffff\n    /* \"#utility.yul\":7491:7497   */\n  dup2\n    /* \"#utility.yul\":7488:7518   */\n  gt\n    /* \"#utility.yul\":7485:7541   */\n  iszero\n  tag_154\n  jumpi\n    /* \"#utility.yul\":7521:7539   */\n  tag_155\n  tag_31\n  jump\t// in\ntag_155:\n    /* \"#utility.yul\":7485:7541   */\ntag_154:\n    /* \"#utility.yul\":7565:7603   */\n  tag_156\n    /* \"#utility.yul\":7597:7601   */\n  dup3\n    /* \"#utility.yul\":7591:7602   */\n  sload\n    /* \"#utility.yul\":7565:7603   */\n  tag_43\n  jump\t// in\ntag_156:\n    /* \"#utility.yul\":7650:7717   */\n  tag_157\n    /* \"#utility.yul\":7710:7716   */\n  dup3\n    /* \"#utility.yul\":7702:7708   */\n  dup3\n    /* \"#utility.yul\":7696:7700   */\n  dup6\n    /* \"#utility.yul\":7650:7717   */\n  tag_55\n  jump\t// in\ntag_157:\n    /* \"#utility.yul\":7744:7745   */\n  0x00\n    /* \"#utility.yul\":7768:7772   */\n  0x20\n    /* \"#utility.yul\":7755:7772   */\n  swap1\n  pop\n    /* \"#utility.yul\":7800:7802   */\n  0x1f\n    /* \"#utility.yul\":7792:7798   */\n  dup4\n    /* \"#utility.yul\":7789:7803   */\n  gt\n    /* \"#utility.yul\":7817:7818   */\n  0x01\n    /* \"#utility.yul\":7812:8430   */\n  dup2\n  eq\n  tag_159\n  jumpi\n    /* \"#utility.yul\":8474:8475   */\n  0x00\n    /* \"#utility.yul\":8491:8497   */\n  dup5\n    /* \"#utility.yul\":8488:8565   */\n  iszero\n  tag_160\n  jumpi\n    /* \"#utility.yul\":8540:8549   */\n  dup3\n    /* \"#utility.yul\":8535:8538   */\n  dup8\n    /* \"#utility.yul\":8531:8550   */\n  add\n    /* \"#utility.yul\":8525:8551   */\n  mload\n    /* \"#utility.yul\":8516:8551   */\n  swap1\n  pop\n    /* \"#utility.yul\":8488:8565   */\ntag_160:\n    /* \"#utility.yul\":8591:8658   */\n  tag_161\n    /* \"#utility.yul\":8651:8657   */\n  dup6\n    /* \"#utility.yul\":8644:8649   */\n  dup3\n    /* \"#utility.yul\":8591:8658   */\n  tag_58\n  jump\t// in\ntag_161:\n    /* \"#utility.yul\":8585:8589   */\n  dup7\n    /* \"#utility.yul\":8578:8659   */\n  sstore\n    /* \"#utility.yul\":8447:8669   */\n  pop\n    /* \"#utility.yul\":7782:8669   */\n  jump(tag_158)\n    /* \"#utility.yul\":7812:8430   */\ntag_159:\n    /* \"#utility.yul\":7864:7868   */\n  0x1f\n    /* \"#utility.yul\":7860:7869   */\n  not\n    /* \"#utility.yul\":7852:7858   */\n  dup5\n    /* \"#utility.yul\":7848:7870   */\n  and\n    /* \"#utility.yul\":7898:7935   */\n  tag_162\n    /* \"#utility.yul\":7930:7934   */\n  dup7\n    /* \"#utility.yul\":7898:7935   */\n  tag_44\n  jump\t// in\ntag_162:\n    /* \"#utility.yul\":7957:7958   */\n  0x00\n    /* \"#utility.yul\":7971:8179   */\ntag_163:\n    /* \"#utility.yul\":7985:7992   */\n  dup3\n    /* \"#utility.yul\":7982:7983   */\n  dup2\n    /* \"#utility.yul\":7979:7993   */\n  lt\n    /* \"#utility.yul\":7971:8179   */\n  iszero\n  tag_165\n  jumpi\n    /* \"#utility.yul\":8064:8073   */\n  dup5\n    /* \"#utility.yul\":8059:8062   */\n  dup10\n    /* \"#utility.yul\":8055:8074   */\n  add\n    /* \"#utility.yul\":8049:8075   */\n  mload\n    /* \"#utility.yul\":8041:8047   */\n  dup3\n    /* \"#utility.yul\":8034:8076   */\n  sstore\n    /* \"#utility.yul\":8115:8116   */\n  0x01\n    /* \"#utility.yul\":8107:8113   */\n  dup3\n    /* \"#utility.yul\":8103:8117   */\n  add\n    /* \"#utility.yul\":8093:8117   */\n  swap2\n  pop\n    /* \"#utility.yul\":8162:8164   */\n  0x20\n    /* \"#utility.yul\":8151:8160   */\n  dup6\n    /* \"#utility.yul\":8147:8165   */\n  add\n    /* \"#utility.yul\":8134:8165   */\n  swap5\n  pop\n    /* \"#utility.yul\":8008:8012   */\n  0x20\n    /* \"#utility.yul\":8005:8006   */\n  dup2\n    /* \"#utility.yul\":8001:8013   */\n  add\n    /* \"#utility.yul\":7996:8013   */\n  swap1\n  pop\n    /* \"#utility.yul\":7971:8179   */\n  jump(tag_163)\ntag_165:\n    /* \"#utility.yul\":8207:8213   */\n  dup7\n    /* \"#utility.yul\":8198:8205   */\n  dup4\n    /* \"#utility.yul\":8195:8214   */\n  lt\n    /* \"#utility.yul\":8192:8371   */\n  iszero\n  tag_166\n  jumpi\n    /* \"#utility.yul\":8265:8274   */\n  dup5\n    /* \"#utility.yul\":8260:8263   */\n  dup10\n    /* \"#utility.yul\":8256:8275   */\n  add\n    /* \"#utility.yul\":8250:8276   */\n  mload\n    /* \"#utility.yul\":8308:8356   */\n  tag_167\n    /* \"#utility.yul\":8350:8354   */\n  0x1f\n    /* \"#utility.yul\":8342:8348   */\n  dup10\n    /* \"#utility.yul\":8338:8355   */\n  and\n    /* \"#utility.yul\":8327:8336   */\n  dup3\n    /* \"#utility.yul\":8308:8356   */\n  tag_57\n  jump\t// in\ntag_167:\n    /* \"#utility.yul\":8300:8306   */\n  dup4\n    /* \"#utility.yul\":8293:8357   */\n  sstore\n    /* \"#utility.yul\":8215:8371   */\n  pop\n    /* \"#utility.yul\":8192:8371   */\ntag_166:\n    /* \"#utility.yul\":8417:8418   */\n  0x01\n    /* \"#utility.yul\":8413:8414   */\n  0x02\n    /* \"#utility.yul\":8405:8411   */\n  dup9\n    /* \"#utility.yul\":8401:8415   */\n  mul\n    /* \"#utility.yul\":8397:8419   */\n  add\n    /* \"#utility.yul\":8391:8395   */\n  dup9\n    /* \"#utility.yul\":8384:8420   */\n  sstore\n    /* \"#utility.yul\":7819:8430   */\n  pop\n  pop\n  pop\n    /* \"#utility.yul\":7782:8669   */\ntag_158:\n  pop\n    /* \"#utility.yul\":7372:8675   */\n  pop\n  pop\n  pop\n    /* \"#utility.yul\":7280:8675   */\n  pop\n  pop\n  jump\t// out\n    /* \"#utility.yul\":8681:8850   */\ntag_59:\n    /* \"#utility.yul\":8765:8776   */\n  0x00\n    /* \"#utility.yul\":8799:8805   */\n  dup3\n    /* \"#utility.yul\":8794:8797   */\n  dup3\n    /* \"#utility.yul\":8787:8806   */\n  mstore\n    /* \"#utility.yul\":8839:8843   */\n  0x20\n    /* \"#utility.yul\":8834:8837   */\n  dup3\n    /* \"#utility.yul\":8830:8844   */\n  add\n    /* \"#utility.yul\":8815:8844   */\n  swap1\n  pop\n    /* \"#utility.yul\":8681:8850   */\n  swap3\n  swap2\n  pop\n  pop\n  jump\t// out\n    /* \"#utility.yul\":8880:9711   */\ntag_60:\n    /* \"#utility.yul\":8965:8968   */\n  0x00\n    /* \"#utility.yul\":9002:9007   */\n  dup2\n    /* \"#utility.yul\":8996:9008   */\n  sload\n    /* \"#utility.yul\":9031:9067   */\n  tag_170\n    /* \"#utility.yul\":9057:9066   */\n  dup2\n    /* \"#utility.yul\":9031:9067   */\n  tag_43\n  jump\t// in\ntag_170:\n    /* \"#utility.yul\":9083:9154   */\n  tag_171\n    /* \"#utility.yul\":9147:9153   */\n  dup2\n    /* \"#utility.yul\":9142:9145   */\n  dup7\n    /* \"#utility.yul\":9083:9154   */\n  tag_59\n  jump\t// in\ntag_171:\n    /* \"#utility.yul\":9076:9154   */\n  swap5\n  pop\n    /* \"#utility.yul\":9185:9186   */\n  0x01\n    /* \"#utility.yul\":9174:9183   */\n  dup3\n    /* \"#utility.yul\":9170:9187   */\n  and\n    /* \"#utility.yul\":9201:9202   */\n  0x00\n    /* \"#utility.yul\":9196:9360   */\n  dup2\n  eq\n  tag_173\n  jumpi\n    /* \"#utility.yul\":9374:9375   */\n  0x01\n    /* \"#utility.yul\":9369:9705   */\n  dup2\n  eq\n  tag_174\n  jumpi\n    /* \"#utility.yul\":9163:9705   */\n  jump(tag_172)\n    /* \"#utility.yul\":9196:9360   */\ntag_173:\n    /* \"#utility.yul\":9280:9284   */\n  0xff\n    /* \"#utility.yul\":9276:9285   */\n  not\n    /* \"#utility.yul\":9265:9274   */\n  dup4\n    /* \"#utility.yul\":9261:9286   */\n  and\n    /* \"#utility.yul\":9256:9259   */\n  dup7\n    /* \"#utility.yul\":9249:9287   */\n  mstore\n    /* \"#utility.yul\":9340:9346   */\n  dup2\n    /* \"#utility.yul\":9333:9347   */\n  iszero\n    /* \"#utility.yul\":9326:9348   */\n  iszero\n    /* \"#utility.yul\":9320:9324   */\n  0x20\n    /* \"#utility.yul\":9316:9349   */\n  mul\n    /* \"#utility.yul\":9311:9314   */\n  dup7\n    /* \"#utility.yul\":9307:9350   */\n  add\n    /* \"#utility.yul\":9300:9350   */\n  swap4\n  pop\n    /* \"#utility.yul\":9196:9360   */\n  jump(tag_172)\n    /* \"#utility.yul\":9369:9705   */\ntag_174:\n    /* \"#utility.yul\":9436:9474   */\n  tag_175\n    /* \"#utility.yul\":9468:9473   */\n  dup6\n    /* \"#utility.yul\":9436:9474   */\n  tag_44\n  jump\t// in\ntag_175:\n    /* \"#utility.yul\":9496:9497   */\n  0x00\n    /* \"#utility.yul\":9510:9664   */\ntag_176:\n    /* \"#utility.yul\":9524:9530   */\n  dup4\n    /* \"#utility.yul\":9521:9522   */\n  dup2\n    /* \"#utility.yul\":9518:9531   */\n  lt\n    /* \"#utility.yul\":9510:9664   */\n  iszero\n  tag_178\n  jumpi\n    /* \"#utility.yul\":9598:9605   */\n  dup2\n    /* \"#utility.yul\":9592:9606   */\n  sload\n    /* \"#utility.yul\":9588:9589   */\n  dup2\n    /* \"#utility.yul\":9583:9586   */\n  dup10\n    /* \"#utility.yul\":9579:9590   */\n  add\n    /* \"#utility.yul\":9572:9607   */\n  mstore\n    /* \"#utility.yul\":9648:9649   */\n  0x01\n    /* \"#utility.yul\":9639:9646   */\n  dup3\n    /* \"#utility.yul\":9635:9650   */\n  add\n    /* \"#utility.yul\":9624:9650   */\n  swap2\n  pop\n    /* \"#utility.yul\":9546:9550   */\n  0x20\n    /* \"#utility.yul\":9543:9544   */\n  dup2\n    /* \"#utility.yul\":9539:9551   */\n  add\n    /* \"#utility.yul\":9534:9551   */\n  swap1\n  pop\n    /* \"#utility.yul\":9510:9664   */\n  jump(tag_176)\ntag_178:\n    /* \"#utility.yul\":9693:9694   */\n  dup1\n    /* \"#utility.yul\":9688:9691   */\n  dup9\n    /* \"#utility.yul\":9684:9695   */\n  add\n    /* \"#utility.yul\":9677:9695   */\n  swap6\n  pop\n    /* \"#utility.yul\":9376:9705   */\n  pop\n  pop\n    /* \"#utility.yul\":9163:9705   */\ntag_172:\n  pop\n    /* \"#utility.yul\":8969:9711   */\n  pop\n  pop\n    /* \"#utility.yul\":8880:9711   */\n  swap3\n  swap2\n  pop\n  pop\n  jump\t// out\n    /* \"#utility.yul\":9717:10024   */\ntag_13:\n    /* \"#utility.yul\":9827:9831   */\n  0x00\n    /* \"#utility.yul\":9865:9867   */\n  0x20\n    /* \"#utility.yul\":9854:9863   */\n  dup3\n    /* \"#utility.yul\":9850:9868   */\n  add\n    /* \"#utility.yul\":9842:9868   */\n  swap1\n  pop\n    /* \"#utility.yul\":9914:9923   */\n  dup2\n    /* \"#utility.yul\":9908:9912   */\n  dup2\n    /* \"#utility.yul\":9904:9924   */\n  sub\n    /* \"#utility.yul\":9900:9901   */\n  0x00\n    /* \"#utility.yul\":9889:9898   */\n  dup4\n    /* \"#utility.yul\":9885:9902   */\n  add\n    /* \"#utility.yul\":9878:9925   */\n  mstore\n    /* \"#utility.yul\":9942:10017   */\n  tag_180\n    /* \"#utility.yul\":10012:10016   */\n  dup2\n    /* \"#utility.yul\":10003:10009   */\n  dup5\n    /* \"#utility.yul\":9942:10017   */\n  tag_60\n  jump\t// in\ntag_180:\n    /* \"#utility.yul\":9934:10017   */\n  swap1\n  pop\n    /* \"#utility.yul\":9717:10024   */\n  swap3\n  swap2\n  pop\n  pop\n  jump\t// out\n    /* \"#utility.yul\":10030:10210   */\ntag_61:\n    /* \"#utility.yul\":10078:10155   */\n  0x4e487b7100000000000000000000000000000000000000000000000000000000\n    /* \"#utility.yul\":10075:10076   */\n  0x00\n    /* \"#utility.yul\":10068:10156   */\n  mstore\n    /* \"#utility.yul\":10175:10179   */\n  0x11\n    /* \"#utility.yul\":10172:10173   */\n  0x04\n    /* \"#utility.yul\":10165:10180   */\n  mstore\n    /* \"#utility.yul\":10199:10203   */\n  0x24\n    /* \"#utility.yul\":10196:10197   */\n  0x00\n    /* \"#utility.yul\":10189:10204   */\n  revert\n    /* \"#utility.yul\":10216:10407   */\ntag_15:\n    /* \"#utility.yul\":10256:10259   */\n  0x00\n    /* \"#utility.yul\":10275:10295   */\n  tag_183\n    /* \"#utility.yul\":10293:10294   */\n  dup3\n    /* \"#utility.yul\":10275:10295   */\n  tag_38\n  jump\t// in\ntag_183:\n    /* \"#utility.yul\":10270:10295   */\n  swap2\n  pop\n    /* \"#utility.yul\":10309:10329   */\n  tag_184\n    /* \"#utility.yul\":10327:10328   */\n  dup4\n    /* \"#utility.yul\":10309:10329   */\n  tag_38\n  jump\t// in\ntag_184:\n    /* \"#utility.yul\":10304:10329   */\n  swap3\n  pop\n    /* \"#utility.yul\":10352:10353   */\n  dup3\n    /* \"#utility.yul\":10349:10350   */\n  dup3\n    /* \"#utility.yul\":10345:10354   */\n  add\n    /* \"#utility.yul\":10338:10354   */\n  swap1\n  pop\n    /* \"#utility.yul\":10373:10376   */\n  dup1\n    /* \"#utility.yul\":10370:10371   */\n  dup3\n    /* \"#utility.yul\":10367:10377   */\n  gt\n    /* \"#utility.yul\":10364:10400   */\n  iszero\n  tag_185\n  jumpi\n    /* \"#utility.yul\":10380:10398   */\n  tag_186\n  tag_61\n  jump\t// in\ntag_186:\n    /* \"#utility.yul\":10364:10400   */\ntag_185:\n    /* \"#utility.yul\":10216:10407   */\n  swap3\n  swap2\n  pop\n  pop\n  jump\t// out\n    /* \"#utility.yul\":10413:10593   */\ntag_62:\n    /* \"#utility.yul\":10461:10538   */\n  0x4e487b7100000000000000000000000000000000000000000000000000000000\n    /* \"#utility.yul\":10458:10459   */\n  0x00\n    /* \"#utility.yul\":10451:10539   */\n  mstore\n    /* \"#utility.yul\":10558:10562   */\n  0x12\n    /* \"#utility.yul\":10555:10556   */\n  0x04\n    /* \"#utility.yul\":10548:10563   */\n  mstore\n    /* \"#utility.yul\":10582:10586   */\n  0x24\n    /* \"#utility.yul\":10579:10580   */\n  0x00\n    /* \"#utility.yul\":10572:10587   */\n  revert\n    /* \"#utility.yul\":10599:10784   */\ntag_19:\n    /* \"#utility.yul\":10639:10640   */\n  0x00\n    /* \"#utility.yul\":10656:10676   */\n  tag_189\n    /* \"#utility.yul\":10674:10675   */\n  dup3\n    /* \"#utility.yul\":10656:10676   */\n  tag_38\n  jump\t// in\ntag_189:\n    /* \"#utility.yul\":10651:10676   */\n  swap2\n  pop\n    /* \"#utility.yul\":10690:10710   */\n  tag_190\n    /* \"#utility.yul\":10708:10709   */\n  dup4\n    /* \"#utility.yul\":10690:10710   */\n  tag_38\n  jump\t// in\ntag_190:\n    /* \"#utility.yul\":10685:10710   */\n  swap3\n  pop\n    /* \"#utility.yul\":10729:10730   */\n  dup3\n    /* \"#utility.yul\":10719:10754   */\n  tag_191\n  jumpi\n    /* \"#utility.yul\":10734:10752   */\n  tag_192\n  tag_62\n  jump\t// in\ntag_192:\n    /* \"#utility.yul\":10719:10754   */\ntag_191:\n    /* \"#utility.yul\":10776:10777   */\n  dup3\n    /* \"#utility.yul\":10773:10774   */\n  dup3\n    /* \"#utility.yul\":10769:10778   */\n  div\n    /* \"#utility.yul\":10764:10778   */\n  swap1\n  pop\n    /* \"#utility.yul\":10599:10784   */\n  swap3\n  swap2\n  pop\n  pop\n  jump\t// out\n    /* \"#utility.yul\":10790:11200   */\ntag_21:\n    /* \"#utility.yul\":10830:10837   */\n  0x00\n    /* \"#utility.yul\":10853:10873   */\n  tag_194\n    /* \"#utility.yul\":10871:10872   */\n  dup3\n    /* \"#utility.yul\":10853:10873   */\n  tag_38\n  jump\t// in\ntag_194:\n    /* \"#utility.yul\":10848:10873   */\n  swap2\n  pop\n    /* \"#utility.yul\":10887:10907   */\n  tag_195\n    /* \"#utility.yul\":10905:10906   */\n  dup4\n    /* \"#utility.yul\":10887:10907   */\n  tag_38\n  jump\t// in\ntag_195:\n    /* \"#utility.yul\":10882:10907   */\n  swap3\n  pop\n    /* \"#utility.yul\":10942:10943   */\n  dup3\n    /* \"#utility.yul\":10939:10940   */\n  dup3\n    /* \"#utility.yul\":10935:10944   */\n  mul\n    /* \"#utility.yul\":10964:10994   */\n  tag_196\n    /* \"#utility.yul\":10982:10993   */\n  dup2\n    /* \"#utility.yul\":10964:10994   */\n  tag_38\n  jump\t// in\ntag_196:\n    /* \"#utility.yul\":10953:10994   */\n  swap2\n  pop\n    /* \"#utility.yul\":11143:11144   */\n  dup3\n    /* \"#utility.yul\":11134:11141   */\n  dup3\n    /* \"#utility.yul\":11130:11145   */\n  div\n    /* \"#utility.yul\":11127:11128   */\n  dup5\n    /* \"#utility.yul\":11124:11146   */\n  eq\n    /* \"#utility.yul\":11104:11105   */\n  dup4\n    /* \"#utility.yul\":11097:11106   */\n  iszero\n    /* \"#utility.yul\":11077:11160   */\n  or\n    /* \"#utility.yul\":11054:11193   */\n  tag_197\n  jumpi\n    /* \"#utility.yul\":11173:11191   */\n  tag_198\n  tag_61\n  jump\t// in\ntag_198:\n    /* \"#utility.yul\":11054:11193   */\ntag_197:\n    /* \"#utility.yul\":10838:11200   */\n  pop\n    /* \"#utility.yul\":10790:11200   */\n  swap3\n  swap2\n  pop\n  pop\n  jump\t// out\n    /* \"#utility.yul\":11206:11400   */\ntag_23:\n    /* \"#utility.yul\":11246:11250   */\n  0x00\n    /* \"#utility.yul\":11266:11286   */\n  tag_200\n    /* \"#utility.yul\":11284:11285   */\n  dup3\n    /* \"#utility.yul\":11266:11286   */\n  tag_38\n  jump\t// in\ntag_200:\n    /* \"#utility.yul\":11261:11286   */\n  swap2\n  pop\n    /* \"#utility.yul\":11300:11320   */\n  tag_201\n    /* \"#utility.yul\":11318:11319   */\n  dup4\n    /* \"#utility.yul\":11300:11320   */\n  tag_38\n  jump\t// in\ntag_201:\n    /* \"#utility.yul\":11295:11320   */\n  swap3\n  pop\n    /* \"#utility.yul\":11344:11345   */\n  dup3\n    /* \"#utility.yul\":11341:11342   */\n  dup3\n    /* \"#utility.yul\":11337:11346   */\n  sub\n    /* \"#utility.yul\":11329:11346   */\n  swap1\n  pop\n    /* \"#utility.yul\":11368:11369   */\n  dup2\n    /* \"#utility.yul\":11362:11366   */\n  dup2\n    /* \"#utility.yul\":11359:11370   */\n  gt\n    /* \"#utility.yul\":11356:11393   */\n  iszero\n  tag_202\n  jumpi\n    /* \"#utility.yul\":11373:11391   */\n  tag_203\n  tag_61\n  jump\t// in\ntag_203:\n    /* \"#utility.yul\":11356:11393   */\ntag_202:\n    /* \"#utility.yul\":11206:11400   */\n  swap3\n  swap2\n  pop\n  pop\n  jump\t// out\n    /* \"chapter10/RandomGame.sol\":505:3172  contract RandomGame {... */\ntag_10:\n  dataSize(sub_0)\n  dup1\n  dataOffset(sub_0)\n  0x00\n  codecopy\n  0x00\n  return\nstop\n\nsub_0: assembly {\n        /* \"chapter10/RandomGame.sol\":505:3172  contract RandomGame {... */\n      mstore(0x40, 0x80)\n      jumpi(tag_1, lt(calldatasize, 0x04))\n      shr(0xe0, calldataload(0x00))\n      dup1\n      0x79ed40bc\n      gt\n      tag_12\n      jumpi\n      dup1\n      0x79ed40bc\n      eq\n      tag_7\n      jumpi\n      dup1\n      0x8da5cb5b\n      eq\n      tag_8\n      jumpi\n      dup1\n      0x9f8743f7\n      eq\n      tag_9\n      jumpi\n      dup1\n      0xa86d2e19\n      eq\n      tag_10\n      jumpi\n      dup1\n      0xcf66b989\n      eq\n      tag_11\n      jumpi\n      jump(tag_2)\n    tag_12:\n      dup1\n      0x0df516d8\n      eq\n      tag_3\n      jumpi\n      dup1\n      0x12065fe0\n      eq\n      tag_4\n      jumpi\n      dup1\n      0x146ca531\n      eq\n      tag_5\n      jumpi\n      dup1\n      0x5ef5cc89\n      eq\n      tag_6\n      jumpi\n      jump(tag_2)\n    tag_1:\n      jumpi(tag_2, calldatasize)\n        /* \"chapter10/RandomGame.sol\":2006:2012  10**16 */\n      0x2386f26fc10000\n        /* \"chapter10/RandomGame.sol\":1993:2002  msg.value */\n      callvalue\n        /* \"chapter10/RandomGame.sol\":1993:2012  msg.value == 10**16 */\n      eq\n        /* \"chapter10/RandomGame.sol\":1985:2036  require(msg.value == 10**16, \"Must be 0.01 ether.\") */\n      tag_15\n      jumpi\n      mload(0x40)\n      0x08c379a000000000000000000000000000000000000000000000000000000000\n      dup2\n      mstore\n      0x04\n      add\n      tag_16\n      swap1\n      tag_17\n      jump\t// in\n    tag_16:\n      mload(0x40)\n      dup1\n      swap2\n      sub\n      swap1\n      revert\n    tag_15:\n        /* \"chapter10/RandomGame.sol\":2093:2098  false */\n      0x00\n        /* \"chapter10/RandomGame.sol\":2055:2098  paidAddressList[round][msg.sender] == false */\n      iszero\n      iszero\n        /* \"chapter10/RandomGame.sol\":2055:2070  paidAddressList */\n      0x00\n        /* \"chapter10/RandomGame.sol\":2055:2077  paidAddressList[round] */\n      dup1\n        /* \"chapter10/RandomGame.sol\":2071:2076  round */\n      sload(0x05)\n        /* \"chapter10/RandomGame.sol\":2055:2077  paidAddressList[round] */\n      dup2\n      mstore\n      0x20\n      add\n      swap1\n      dup2\n      mstore\n      0x20\n      add\n      0x00\n      keccak256\n        /* \"chapter10/RandomGame.sol\":2055:2089  paidAddressList[round][msg.sender] */\n      0x00\n        /* \"chapter10/RandomGame.sol\":2078:2088  msg.sender */\n      caller\n        /* \"chapter10/RandomGame.sol\":2055:2089  paidAddressList[round][msg.sender] */\n      0xffffffffffffffffffffffffffffffffffffffff\n      and\n      0xffffffffffffffffffffffffffffffffffffffff\n      and\n      dup2\n      mstore\n      0x20\n      add\n      swap1\n      dup2\n      mstore\n      0x20\n      add\n      0x00\n      keccak256\n      0x00\n      swap1\n      sload\n      swap1\n      0x0100\n      exp\n      swap1\n      div\n      0xff\n      and\n        /* \"chapter10/RandomGame.sol\":2055:2098  paidAddressList[round][msg.sender] == false */\n      iszero\n      iszero\n      eq\n        /* \"chapter10/RandomGame.sol\":2047:2126  require(paidAddressList[round][msg.sender] == false, \"Must be the first time.\") */\n      tag_18\n      jumpi\n      mload(0x40)\n      0x08c379a000000000000000000000000000000000000000000000000000000000\n      dup2\n      mstore\n      0x04\n      add\n      tag_19\n      swap1\n      tag_20\n      jump\t// in\n    tag_19:\n      mload(0x40)\n      dup1\n      swap2\n      sub\n      swap1\n      revert\n    tag_18:\n        /* \"chapter10/RandomGame.sol\":2175:2179  true */\n      0x01\n        /* \"chapter10/RandomGame.sol\":2137:2179  paidAddressList[round][msg.sender] == true */\n      iszero\n      iszero\n        /* \"chapter10/RandomGame.sol\":2137:2152  paidAddressList */\n      0x00\n        /* \"chapter10/RandomGame.sol\":2137:2159  paidAddressList[round] */\n      dup1\n        /* \"chapter10/RandomGame.sol\":2153:2158  round */\n      sload(0x05)\n        /* \"chapter10/RandomGame.sol\":2137:2159  paidAddressList[round] */\n      dup2\n      mstore\n      0x20\n      add\n      swap1\n      dup2\n      mstore\n      0x20\n      add\n      0x00\n      keccak256\n        /* \"chapter10/RandomGame.sol\":2137:2171  paidAddressList[round][msg.sender] */\n      0x00\n        /* \"chapter10/RandomGame.sol\":2160:2170  msg.sender */\n      caller\n        /* \"chapter10/RandomGame.sol\":2137:2171  paidAddressList[round][msg.sender] */\n      0xffffffffffffffffffffffffffffffffffffffff\n      and\n      0xffffffffffffffffffffffffffffffffffffffff\n      and\n      dup2\n      mstore\n      0x20\n      add\n      swap1\n      dup2\n      mstore\n      0x20\n      add\n      0x00\n      keccak256\n      0x00\n      swap1\n      sload\n      swap1\n      0x0100\n      exp\n      swap1\n      pop\n      pop\n        /* \"chapter10/RandomGame.sol\":2137:2179  paidAddressList[round][msg.sender] == true */\n      pop\n        /* \"chapter10/RandomGame.sol\":2192:2202  playNumber */\n      0x06\n      0x00\n        /* \"chapter10/RandomGame.sol\":2190:2202  ++playNumber */\n      dup2\n      sload\n      tag_21\n      swap1\n      tag_22\n      jump\t// in\n    tag_21:\n      swap2\n      swap1\n      pop\n      dup2\n      swap1\n      sstore\n      pop\n        /* \"chapter10/RandomGame.sol\":2232:2244  winnerNumber */\n      sload(0x02)\n        /* \"chapter10/RandomGame.sol\":2218:2228  playNumber */\n      sload(0x06)\n        /* \"chapter10/RandomGame.sol\":2218:2244  playNumber == winnerNumber */\n      sub\n        /* \"chapter10/RandomGame.sol\":2215:2593  if(playNumber == winnerNumber) {... */\n      tag_23\n      jumpi\n        /* \"chapter10/RandomGame.sol\":2262:2274  bool success */\n      0x00\n        /* \"chapter10/RandomGame.sol\":2279:2289  msg.sender */\n      caller\n        /* \"chapter10/RandomGame.sol\":2279:2294  msg.sender.call */\n      0xffffffffffffffffffffffffffffffffffffffff\n      and\n        /* \"chapter10/RandomGame.sol\":2302:2323  address(this).balance */\n      selfbalance\n        /* \"chapter10/RandomGame.sol\":2279:2328  msg.sender.call {value:address(this).balance}(\"\") */\n      mload(0x40)\n      tag_24\n      swap1\n      tag_25\n      jump\t// in\n    tag_24:\n      0x00\n      mload(0x40)\n      dup1\n      dup4\n      sub\n      dup2\n      dup6\n      dup8\n      gas\n      call\n      swap3\n      pop\n      pop\n      pop\n      returndatasize\n      dup1\n      0x00\n      dup2\n      eq\n      tag_28\n      jumpi\n      mload(0x40)\n      swap2\n      pop\n      and(add(returndatasize, 0x3f), not(0x1f))\n      dup3\n      add\n      0x40\n      mstore\n      returndatasize\n      dup3\n      mstore\n      returndatasize\n      0x00\n      0x20\n      dup5\n      add\n      returndatacopy\n      jump(tag_27)\n    tag_28:\n      0x60\n      swap2\n      pop\n    tag_27:\n      pop\n        /* \"chapter10/RandomGame.sol\":2261:2328  (bool success,) = msg.sender.call {value:address(this).balance}(\"\") */\n      pop\n      swap1\n      pop\n        /* \"chapter10/RandomGame.sol\":2351:2358  success */\n      dup1\n        /* \"chapter10/RandomGame.sol\":2343:2369  require(success, \"Failed\") */\n      tag_29\n      jumpi\n      mload(0x40)\n      0x08c379a000000000000000000000000000000000000000000000000000000000\n      dup2\n      mstore\n      0x04\n      add\n      tag_30\n      swap1\n      tag_31\n      jump\t// in\n    tag_30:\n      mload(0x40)\n      dup1\n      swap2\n      sub\n      swap1\n      revert\n    tag_29:\n        /* \"chapter10/RandomGame.sol\":2397:2398  0 */\n      0x00\n        /* \"chapter10/RandomGame.sol\":2384:2394  playNumber */\n      0x06\n        /* \"chapter10/RandomGame.sol\":2384:2398  playNumber = 0 */\n      dup2\n      swap1\n      sstore\n      pop\n        /* \"chapter10/RandomGame.sol\":2415:2420  round */\n      0x05\n      0x00\n        /* \"chapter10/RandomGame.sol\":2413:2420  ++round */\n      dup2\n      sload\n      tag_32\n      swap1\n      tag_22\n      jump\t// in\n    tag_32:\n      swap2\n      swap1\n      pop\n      dup2\n      swap1\n      sstore\n      pop\n        /* \"chapter10/RandomGame.sol\":2450:2464  randomNumber() */\n      tag_33\n        /* \"chapter10/RandomGame.sol\":2450:2462  randomNumber */\n      tag_34\n        /* \"chapter10/RandomGame.sol\":2450:2464  randomNumber() */\n      jump\t// in\n    tag_33:\n        /* \"chapter10/RandomGame.sol\":2435:2447  winnerNumber */\n      0x02\n        /* \"chapter10/RandomGame.sol\":2435:2464  winnerNumber = randomNumber() */\n      dup2\n      swap1\n      sstore\n      pop\n        /* \"chapter10/RandomGame.sol\":2498:2508  msg.sender */\n      caller\n        /* \"chapter10/RandomGame.sol\":2484:2509  WinnerAddress(msg.sender) */\n      0xffffffffffffffffffffffffffffffffffffffff\n      and\n      0xd7b5435fa0dd93954c7955210a67950d9385f8cd60631432712709e265ec99ca\n      mload(0x40)\n      mload(0x40)\n      dup1\n      swap2\n      sub\n      swap1\n      log2\n        /* \"chapter10/RandomGame.sol\":2246:2521  {... */\n      pop\n        /* \"chapter10/RandomGame.sol\":2215:2593  if(playNumber == winnerNumber) {... */\n      jump(tag_35)\n    tag_23:\n        /* \"chapter10/RandomGame.sol\":2559:2569  msg.sender */\n      caller\n        /* \"chapter10/RandomGame.sol\":2547:2581  PaidAddress(msg.sender, msg.value) */\n      0xffffffffffffffffffffffffffffffffffffffff\n      and\n      0x20384c35af44ae3e0536c765e1cee107339d7ca70b092472c816a3a62e4ba659\n        /* \"chapter10/RandomGame.sol\":2571:2580  msg.value */\n      callvalue\n        /* \"chapter10/RandomGame.sol\":2547:2581  PaidAddress(msg.sender, msg.value) */\n      mload(0x40)\n      tag_36\n      swap2\n      swap1\n      tag_37\n      jump\t// in\n    tag_36:\n      mload(0x40)\n      dup1\n      swap2\n      sub\n      swap1\n      log2\n        /* \"chapter10/RandomGame.sol\":2215:2593  if(playNumber == winnerNumber) {... */\n    tag_35:\n        /* \"chapter10/RandomGame.sol\":505:3172  contract RandomGame {... */\n      stop\n    tag_2:\n      0x00\n      dup1\n      revert\n        /* \"chapter10/RandomGame.sol\":1288:1314  uint public playNumber = 0 */\n    tag_3:\n      callvalue\n      dup1\n      iszero\n      tag_38\n      jumpi\n      0x00\n      dup1\n      revert\n    tag_38:\n      pop\n      tag_39\n      tag_40\n      jump\t// in\n    tag_39:\n      mload(0x40)\n      tag_41\n      swap2\n      swap1\n      tag_37\n      jump\t// in\n    tag_41:\n      mload(0x40)\n      dup1\n      swap2\n      sub\n      swap1\n      return\n        /* \"chapter10/RandomGame.sol\":3070:3169  function getBalance() public view returns (uint256) {... */\n    tag_4:\n      callvalue\n      dup1\n      iszero\n      tag_42\n      jumpi\n      0x00\n      dup1\n      revert\n    tag_42:\n      pop\n      tag_43\n      tag_44\n      jump\t// in\n    tag_43:\n      mload(0x40)\n      tag_45\n      swap2\n      swap1\n      tag_37\n      jump\t// in\n    tag_45:\n      mload(0x40)\n      dup1\n      swap2\n      sub\n      swap1\n      return\n        /* \"chapter10/RandomGame.sol\":1260:1281  uint public round = 1 */\n    tag_5:\n      callvalue\n      dup1\n      iszero\n      tag_46\n      jumpi\n      0x00\n      dup1\n      revert\n    tag_46:\n      pop\n      tag_47\n      tag_48\n      jump\t// in\n    tag_47:\n      mload(0x40)\n      tag_49\n      swap2\n      swap1\n      tag_37\n      jump\t// in\n    tag_49:\n      mload(0x40)\n      dup1\n      swap2\n      sub\n      swap1\n      return\n        /* \"chapter10/RandomGame.sol\":2608:2736  function setSecretKey(string memory _key1, uint _key2) public onlyOwner() {... */\n    tag_6:\n      callvalue\n      dup1\n      iszero\n      tag_50\n      jumpi\n      0x00\n      dup1\n      revert\n    tag_50:\n      pop\n      tag_51\n      0x04\n      dup1\n      calldatasize\n      sub\n      dup2\n      add\n      swap1\n      tag_52\n      swap2\n      swap1\n      tag_53\n      jump\t// in\n    tag_52:\n      tag_54\n      jump\t// in\n    tag_51:\n      stop\n        /* \"chapter10/RandomGame.sol\":2744:2860  function getSecretKey() public view onlyOwner() returns (string memory, uint) {... */\n    tag_7:\n      callvalue\n      dup1\n      iszero\n      tag_55\n      jumpi\n      0x00\n      dup1\n      revert\n    tag_55:\n      pop\n      tag_56\n      tag_57\n      jump\t// in\n    tag_56:\n      mload(0x40)\n      tag_58\n      swap3\n      swap2\n      swap1\n      tag_59\n      jump\t// in\n    tag_58:\n      mload(0x40)\n      dup1\n      swap2\n      sub\n      swap1\n      return\n        /* \"chapter10/RandomGame.sol\":1144:1164  address public owner */\n    tag_8:\n      callvalue\n      dup1\n      iszero\n      tag_60\n      jumpi\n      0x00\n      dup1\n      revert\n    tag_60:\n      pop\n      tag_61\n      tag_62\n      jump\t// in\n    tag_61:\n      mload(0x40)\n      tag_63\n      swap2\n      swap1\n      tag_64\n      jump\t// in\n    tag_63:\n      mload(0x40)\n      dup1\n      swap2\n      sub\n      swap1\n      return\n        /* \"chapter10/RandomGame.sol\":2982:3062  function getRound() public view returns(uint256) {... */\n    tag_9:\n      callvalue\n      dup1\n      iszero\n      tag_65\n      jumpi\n      0x00\n      dup1\n      revert\n    tag_65:\n      pop\n      tag_66\n      tag_67\n      jump\t// in\n    tag_66:\n      mload(0x40)\n      tag_68\n      swap2\n      swap1\n      tag_37\n      jump\t// in\n    tag_68:\n      mload(0x40)\n      dup1\n      swap2\n      sub\n      swap1\n      return\n        /* \"chapter10/RandomGame.sol\":2868:2974  function getWinnerNumber() public view onlyOwner() returns(uint256) {... */\n    tag_10:\n      callvalue\n      dup1\n      iszero\n      tag_69\n      jumpi\n      0x00\n      dup1\n      revert\n    tag_69:\n      pop\n      tag_70\n      tag_71\n      jump\t// in\n    tag_70:\n      mload(0x40)\n      tag_72\n      swap2\n      swap1\n      tag_37\n      jump\t// in\n    tag_72:\n      mload(0x40)\n      dup1\n      swap2\n      sub\n      swap1\n      return\n        /* \"chapter10/RandomGame.sol\":774:843  mapping (uint256 => mapping (address => bool)) public paidAddressList */\n    tag_11:\n      callvalue\n      dup1\n      iszero\n      tag_73\n      jumpi\n      0x00\n      dup1\n      revert\n    tag_73:\n      pop\n      tag_74\n      0x04\n      dup1\n      calldatasize\n      sub\n      dup2\n      add\n      swap1\n      tag_75\n      swap2\n      swap1\n      tag_76\n      jump\t// in\n    tag_75:\n      tag_77\n      jump\t// in\n    tag_74:\n      mload(0x40)\n      tag_78\n      swap2\n      swap1\n      tag_79\n      jump\t// in\n    tag_78:\n      mload(0x40)\n      dup1\n      swap2\n      sub\n      swap1\n      return\n        /* \"chapter10/RandomGame.sol\":1499:1939  function randomNumber() private view returns(uint) {... */\n    tag_34:\n        /* \"chapter10/RandomGame.sol\":1544:1548  uint */\n      0x00\n        /* \"chapter10/RandomGame.sol\":1561:1569  uint num */\n      dup1\n        /* \"chapter10/RandomGame.sol\":1635:1647  block.number */\n      number\n        /* \"chapter10/RandomGame.sol\":1616:1631  block.timestamp */\n      timestamp\n        /* \"chapter10/RandomGame.sol\":1608:1612  key2 */\n      sload(0x04)\n        /* \"chapter10/RandomGame.sol\":1598:1602  key1 */\n      0x03\n        /* \"chapter10/RandomGame.sol\":1587:1603  abi.encode(key1) */\n      add(0x20, mload(0x40))\n      tag_81\n      swap2\n      swap1\n      tag_82\n      jump\t// in\n    tag_81:\n      mload(0x40)\n      0x20\n      dup2\n      dup4\n      sub\n      sub\n      dup2\n      mstore\n      swap1\n      0x40\n      mstore\n        /* \"chapter10/RandomGame.sol\":1577:1604  keccak256(abi.encode(key1)) */\n      dup1\n      mload\n      swap1\n      0x20\n      add\n      keccak256\n        /* \"chapter10/RandomGame.sol\":1572:1605  uint(keccak256(abi.encode(key1))) */\n      0x00\n      shr\n        /* \"chapter10/RandomGame.sol\":1572:1612  uint(keccak256(abi.encode(key1))) + key2 */\n      tag_83\n      swap2\n      swap1\n      tag_84\n      jump\t// in\n    tag_83:\n        /* \"chapter10/RandomGame.sol\":1572:1632  uint(keccak256(abi.encode(key1))) + key2 + (block.timestamp) */\n      tag_85\n      swap2\n      swap1\n      tag_84\n      jump\t// in\n    tag_85:\n        /* \"chapter10/RandomGame.sol\":1572:1648  uint(keccak256(abi.encode(key1))) + key2 + (block.timestamp) +(block.number) */\n      tag_86\n      swap2\n      swap1\n      tag_84\n      jump\t// in\n    tag_86:\n        /* \"chapter10/RandomGame.sol\":1561:1648  uint num = uint(keccak256(abi.encode(key1))) + key2 + (block.timestamp) +(block.number) */\n      swap1\n      pop\n        /* \"chapter10/RandomGame.sol\":1930:1931  1 */\n      0x01\n        /* \"chapter10/RandomGame.sol\":1926:1927  2 */\n      0x02\n        /* \"chapter10/RandomGame.sol\":1923:1924  2 */\n      dup1\n        /* \"chapter10/RandomGame.sol\":1919:1922  num */\n      dup4\n        /* \"chapter10/RandomGame.sol\":1919:1924  num/2 */\n      tag_87\n      swap2\n      swap1\n      tag_88\n      jump\t// in\n    tag_87:\n        /* \"chapter10/RandomGame.sol\":1918:1927  (num/2)*2 */\n      tag_89\n      swap2\n      swap1\n      tag_90\n      jump\t// in\n    tag_89:\n        /* \"chapter10/RandomGame.sol\":1912:1915  num */\n      dup3\n        /* \"chapter10/RandomGame.sol\":1912:1927  num - (num/2)*2 */\n      tag_91\n      swap2\n      swap1\n      tag_92\n      jump\t// in\n    tag_91:\n        /* \"chapter10/RandomGame.sol\":1911:1931  (num - (num/2)*2) +1 */\n      tag_93\n      swap2\n      swap1\n      tag_84\n      jump\t// in\n    tag_93:\n        /* \"chapter10/RandomGame.sol\":1904:1931  return (num - (num/2)*2) +1 */\n      swap2\n      pop\n      pop\n        /* \"chapter10/RandomGame.sol\":1499:1939  function randomNumber() private view returns(uint) {... */\n      swap1\n      jump\t// out\n        /* \"chapter10/RandomGame.sol\":1288:1314  uint public playNumber = 0 */\n    tag_40:\n      sload(0x06)\n      dup2\n      jump\t// out\n        /* \"chapter10/RandomGame.sol\":3070:3169  function getBalance() public view returns (uint256) {... */\n    tag_44:\n        /* \"chapter10/RandomGame.sol\":3113:3120  uint256 */\n      0x00\n        /* \"chapter10/RandomGame.sol\":3140:3161  address(this).balance */\n      selfbalance\n        /* \"chapter10/RandomGame.sol\":3133:3161  return address(this).balance */\n      swap1\n      pop\n        /* \"chapter10/RandomGame.sol\":3070:3169  function getBalance() public view returns (uint256) {... */\n      swap1\n      jump\t// out\n        /* \"chapter10/RandomGame.sol\":1260:1281  uint public round = 1 */\n    tag_48:\n      sload(0x05)\n      dup2\n      jump\t// out\n        /* \"chapter10/RandomGame.sol\":2608:2736  function setSecretKey(string memory _key1, uint _key2) public onlyOwner() {... */\n    tag_54:\n        /* \"chapter10/RandomGame.sol\":704:709  owner */\n      0x01\n      0x00\n      swap1\n      sload\n      swap1\n      0x0100\n      exp\n      swap1\n      div\n      0xffffffffffffffffffffffffffffffffffffffff\n      and\n        /* \"chapter10/RandomGame.sol\":690:709  msg.sender == owner */\n      0xffffffffffffffffffffffffffffffffffffffff\n      and\n        /* \"chapter10/RandomGame.sol\":690:700  msg.sender */\n      caller\n        /* \"chapter10/RandomGame.sol\":690:709  msg.sender == owner */\n      0xffffffffffffffffffffffffffffffffffffffff\n      and\n      eq\n        /* \"chapter10/RandomGame.sol\":682:746  require(msg.sender == owner, \"Ownable: caller is not the owner\") */\n      tag_96\n      jumpi\n      mload(0x40)\n      0x08c379a000000000000000000000000000000000000000000000000000000000\n      dup2\n      mstore\n      0x04\n      add\n      tag_97\n      swap1\n      tag_98\n      jump\t// in\n    tag_97:\n      mload(0x40)\n      dup1\n      swap2\n      sub\n      swap1\n      revert\n    tag_96:\n        /* \"chapter10/RandomGame.sol\":2700:2705  _key1 */\n      dup2\n        /* \"chapter10/RandomGame.sol\":2693:2697  key1 */\n      0x03\n        /* \"chapter10/RandomGame.sol\":2693:2705  key1 = _key1 */\n      swap1\n      dup2\n      tag_100\n      swap2\n      swap1\n      tag_101\n      jump\t// in\n    tag_100:\n      pop\n        /* \"chapter10/RandomGame.sol\":2723:2728  _key2 */\n      dup1\n        /* \"chapter10/RandomGame.sol\":2716:2720  key2 */\n      0x04\n        /* \"chapter10/RandomGame.sol\":2716:2728  key2 = _key2 */\n      dup2\n      swap1\n      sstore\n      pop\n        /* \"chapter10/RandomGame.sol\":2608:2736  function setSecretKey(string memory _key1, uint _key2) public onlyOwner() {... */\n      pop\n      pop\n      jump\t// out\n        /* \"chapter10/RandomGame.sol\":2744:2860  function getSecretKey() public view onlyOwner() returns (string memory, uint) {... */\n    tag_57:\n        /* \"chapter10/RandomGame.sol\":2801:2814  string memory */\n      0x60\n        /* \"chapter10/RandomGame.sol\":2816:2820  uint */\n      0x00\n        /* \"chapter10/RandomGame.sol\":704:709  owner */\n      0x01\n      0x00\n      swap1\n      sload\n      swap1\n      0x0100\n      exp\n      swap1\n      div\n      0xffffffffffffffffffffffffffffffffffffffff\n      and\n        /* \"chapter10/RandomGame.sol\":690:709  msg.sender == owner */\n      0xffffffffffffffffffffffffffffffffffffffff\n      and\n        /* \"chapter10/RandomGame.sol\":690:700  msg.sender */\n      caller\n        /* \"chapter10/RandomGame.sol\":690:709  msg.sender == owner */\n      0xffffffffffffffffffffffffffffffffffffffff\n      and\n      eq\n        /* \"chapter10/RandomGame.sol\":682:746  require(msg.sender == owner, \"Ownable: caller is not the owner\") */\n      tag_103\n      jumpi\n      mload(0x40)\n      0x08c379a000000000000000000000000000000000000000000000000000000000\n      dup2\n      mstore\n      0x04\n      add\n      tag_104\n      swap1\n      tag_98\n      jump\t// in\n    tag_104:\n      mload(0x40)\n      dup1\n      swap2\n      sub\n      swap1\n      revert\n    tag_103:\n        /* \"chapter10/RandomGame.sol\":2841:2845  key1 */\n      0x03\n        /* \"chapter10/RandomGame.sol\":2847:2851  key2 */\n      sload(0x04)\n        /* \"chapter10/RandomGame.sol\":2833:2852  return (key1, key2) */\n      dup2\n      dup1\n      sload\n      tag_106\n      swap1\n      tag_107\n      jump\t// in\n    tag_106:\n      dup1\n      0x1f\n      add\n      0x20\n      dup1\n      swap2\n      div\n      mul\n      0x20\n      add\n      mload(0x40)\n      swap1\n      dup2\n      add\n      0x40\n      mstore\n      dup1\n      swap3\n      swap2\n      swap1\n      dup2\n      dup2\n      mstore\n      0x20\n      add\n      dup3\n      dup1\n      sload\n      tag_108\n      swap1\n      tag_107\n      jump\t// in\n    tag_108:\n      dup1\n      iszero\n      tag_109\n      jumpi\n      dup1\n      0x1f\n      lt\n      tag_110\n      jumpi\n      0x0100\n      dup1\n      dup4\n      sload\n      div\n      mul\n      dup4\n      mstore\n      swap2\n      0x20\n      add\n      swap2\n      jump(tag_109)\n    tag_110:\n      dup3\n      add\n      swap2\n      swap1\n      0x00\n      mstore\n      keccak256(0x00, 0x20)\n      swap1\n    tag_111:\n      dup2\n      sload\n      dup2\n      mstore\n      swap1\n      0x01\n      add\n      swap1\n      0x20\n      add\n      dup1\n      dup4\n      gt\n      tag_111\n      jumpi\n      dup3\n      swap1\n      sub\n      0x1f\n      and\n      dup3\n      add\n      swap2\n    tag_109:\n      pop\n      pop\n      pop\n      pop\n      pop\n      swap2\n      pop\n      swap2\n      pop\n      swap2\n      pop\n        /* \"chapter10/RandomGame.sol\":2744:2860  function getSecretKey() public view onlyOwner() returns (string memory, uint) {... */\n      swap1\n      swap2\n      jump\t// out\n        /* \"chapter10/RandomGame.sol\":1144:1164  address public owner */\n    tag_62:\n      0x01\n      0x00\n      swap1\n      sload\n      swap1\n      0x0100\n      exp\n      swap1\n      div\n      0xffffffffffffffffffffffffffffffffffffffff\n      and\n      dup2\n      jump\t// out\n        /* \"chapter10/RandomGame.sol\":2982:3062  function getRound() public view returns(uint256) {... */\n    tag_67:\n        /* \"chapter10/RandomGame.sol\":3022:3029  uint256 */\n      0x00\n        /* \"chapter10/RandomGame.sol\":3049:3054  round */\n      sload(0x05)\n        /* \"chapter10/RandomGame.sol\":3042:3054  return round */\n      swap1\n      pop\n        /* \"chapter10/RandomGame.sol\":2982:3062  function getRound() public view returns(uint256) {... */\n      swap1\n      jump\t// out\n        /* \"chapter10/RandomGame.sol\":2868:2974  function getWinnerNumber() public view onlyOwner() returns(uint256) {... */\n    tag_71:\n        /* \"chapter10/RandomGame.sol\":2927:2934  uint256 */\n      0x00\n        /* \"chapter10/RandomGame.sol\":704:709  owner */\n      0x01\n      0x00\n      swap1\n      sload\n      swap1\n      0x0100\n      exp\n      swap1\n      div\n      0xffffffffffffffffffffffffffffffffffffffff\n      and\n        /* \"chapter10/RandomGame.sol\":690:709  msg.sender == owner */\n      0xffffffffffffffffffffffffffffffffffffffff\n      and\n        /* \"chapter10/RandomGame.sol\":690:700  msg.sender */\n      caller\n        /* \"chapter10/RandomGame.sol\":690:709  msg.sender == owner */\n      0xffffffffffffffffffffffffffffffffffffffff\n      and\n      eq\n        /* \"chapter10/RandomGame.sol\":682:746  require(msg.sender == owner, \"Ownable: caller is not the owner\") */\n      tag_114\n      jumpi\n      mload(0x40)\n      0x08c379a000000000000000000000000000000000000000000000000000000000\n      dup2\n      mstore\n      0x04\n      add\n      tag_115\n      swap1\n      tag_98\n      jump\t// in\n    tag_115:\n      mload(0x40)\n      dup1\n      swap2\n      sub\n      swap1\n      revert\n    tag_114:\n        /* \"chapter10/RandomGame.sol\":2954:2966  winnerNumber */\n      sload(0x02)\n        /* \"chapter10/RandomGame.sol\":2947:2966  return winnerNumber */\n      swap1\n      pop\n        /* \"chapter10/RandomGame.sol\":2868:2974  function getWinnerNumber() public view onlyOwner() returns(uint256) {... */\n      swap1\n      jump\t// out\n        /* \"chapter10/RandomGame.sol\":774:843  mapping (uint256 => mapping (address => bool)) public paidAddressList */\n    tag_77:\n      mstore(0x20, 0x00)\n      dup2\n      0x00\n      mstore\n      mstore(0x20, keccak256(0x00, 0x40))\n      dup1\n      0x00\n      mstore\n      keccak256(0x00, 0x40)\n      0x00\n      swap2\n      pop\n      swap2\n      pop\n      swap1\n      sload\n      swap1\n      0x0100\n      exp\n      swap1\n      div\n      0xff\n      and\n      dup2\n      jump\t// out\n        /* \"#utility.yul\":7:176   */\n    tag_117:\n        /* \"#utility.yul\":91:102   */\n      0x00\n        /* \"#utility.yul\":125:131   */\n      dup3\n        /* \"#utility.yul\":120:123   */\n      dup3\n        /* \"#utility.yul\":113:132   */\n      mstore\n        /* \"#utility.yul\":165:169   */\n      0x20\n        /* \"#utility.yul\":160:163   */\n      dup3\n        /* \"#utility.yul\":156:170   */\n      add\n        /* \"#utility.yul\":141:170   */\n      swap1\n      pop\n        /* \"#utility.yul\":7:176   */\n      swap3\n      swap2\n      pop\n      pop\n      jump\t// out\n        /* \"#utility.yul\":182:351   */\n    tag_118:\n        /* \"#utility.yul\":322:343   */\n      0x4d75737420626520302e30312065746865722e00000000000000000000000000\n        /* \"#utility.yul\":318:319   */\n      0x00\n        /* \"#utility.yul\":310:316   */\n      dup3\n        /* \"#utility.yul\":306:320   */\n      add\n        /* \"#utility.yul\":299:344   */\n      mstore\n        /* \"#utility.yul\":182:351   */\n      pop\n      jump\t// out\n        /* \"#utility.yul\":357:723   */\n    tag_119:\n        /* \"#utility.yul\":499:502   */\n      0x00\n        /* \"#utility.yul\":520:587   */\n      tag_179\n        /* \"#utility.yul\":584:586   */\n      0x13\n        /* \"#utility.yul\":579:582   */\n      dup4\n        /* \"#utility.yul\":520:587   */\n      tag_117\n      jump\t// in\n    tag_179:\n        /* \"#utility.yul\":513:587   */\n      swap2\n      pop\n        /* \"#utility.yul\":596:689   */\n      tag_180\n        /* \"#utility.yul\":685:688   */\n      dup3\n        /* \"#utility.yul\":596:689   */\n      tag_118\n      jump\t// in\n    tag_180:\n        /* \"#utility.yul\":714:716   */\n      0x20\n        /* \"#utility.yul\":709:712   */\n      dup3\n        /* \"#utility.yul\":705:717   */\n      add\n        /* \"#utility.yul\":698:717   */\n      swap1\n      pop\n        /* \"#utility.yul\":357:723   */\n      swap2\n      swap1\n      pop\n      jump\t// out\n        /* \"#utility.yul\":729:1148   */\n    tag_17:\n        /* \"#utility.yul\":895:899   */\n      0x00\n        /* \"#utility.yul\":933:935   */\n      0x20\n        /* \"#utility.yul\":922:931   */\n      dup3\n        /* \"#utility.yul\":918:936   */\n      add\n        /* \"#utility.yul\":910:936   */\n      swap1\n      pop\n        /* \"#utility.yul\":982:991   */\n      dup2\n        /* \"#utility.yul\":976:980   */\n      dup2\n        /* \"#utility.yul\":972:992   */\n      sub\n        /* \"#utility.yul\":968:969   */\n      0x00\n        /* \"#utility.yul\":957:966   */\n      dup4\n        /* \"#utility.yul\":953:970   */\n      add\n        /* \"#utility.yul\":946:993   */\n      mstore\n        /* \"#utility.yul\":1010:1141   */\n      tag_182\n        /* \"#utility.yul\":1136:1140   */\n      dup2\n        /* \"#utility.yul\":1010:1141   */\n      tag_119\n      jump\t// in\n    tag_182:\n        /* \"#utility.yul\":1002:1141   */\n      swap1\n      pop\n        /* \"#utility.yul\":729:1148   */\n      swap2\n      swap1\n      pop\n      jump\t// out\n        /* \"#utility.yul\":1154:1327   */\n    tag_120:\n        /* \"#utility.yul\":1294:1319   */\n      0x4d757374206265207468652066697273742074696d652e000000000000000000\n        /* \"#utility.yul\":1290:1291   */\n      0x00\n        /* \"#utility.yul\":1282:1288   */\n      dup3\n        /* \"#utility.yul\":1278:1292   */\n      add\n        /* \"#utility.yul\":1271:1320   */\n      mstore\n        /* \"#utility.yul\":1154:1327   */\n      pop\n      jump\t// out\n        /* \"#utility.yul\":1333:1699   */\n    tag_121:\n        /* \"#utility.yul\":1475:1478   */\n      0x00\n        /* \"#utility.yul\":1496:1563   */\n      tag_185\n        /* \"#utility.yul\":1560:1562   */\n      0x17\n        /* \"#utility.yul\":1555:1558   */\n      dup4\n        /* \"#utility.yul\":1496:1563   */\n      tag_117\n      jump\t// in\n    tag_185:\n        /* \"#utility.yul\":1489:1563   */\n      swap2\n      pop\n        /* \"#utility.yul\":1572:1665   */\n      tag_186\n        /* \"#utility.yul\":1661:1664   */\n      dup3\n        /* \"#utility.yul\":1572:1665   */\n      tag_120\n      jump\t// in\n    tag_186:\n        /* \"#utility.yul\":1690:1692   */\n      0x20\n        /* \"#utility.yul\":1685:1688   */\n      dup3\n        /* \"#utility.yul\":1681:1693   */\n      add\n        /* \"#utility.yul\":1674:1693   */\n      swap1\n      pop\n        /* \"#utility.yul\":1333:1699   */\n      swap2\n      swap1\n      pop\n      jump\t// out\n        /* \"#utility.yul\":1705:2124   */\n    tag_20:\n        /* \"#utility.yul\":1871:1875   */\n      0x00\n        /* \"#utility.yul\":1909:1911   */\n      0x20\n        /* \"#utility.yul\":1898:1907   */\n      dup3\n        /* \"#utility.yul\":1894:1912   */\n      add\n        /* \"#utility.yul\":1886:1912   */\n      swap1\n      pop\n        /* \"#utility.yul\":1958:1967   */\n      dup2\n        /* \"#utility.yul\":1952:1956   */\n      dup2\n        /* \"#utility.yul\":1948:1968   */\n      sub\n        /* \"#utility.yul\":1944:1945   */\n      0x00\n        /* \"#utility.yul\":1933:1942   */\n      dup4\n        /* \"#utility.yul\":1929:1946   */\n      add\n        /* \"#utility.yul\":1922:1969   */\n      mstore\n        /* \"#utility.yul\":1986:2117   */\n      tag_188\n        /* \"#utility.yul\":2112:2116   */\n      dup2\n        /* \"#utility.yul\":1986:2117   */\n      tag_121\n      jump\t// in\n    tag_188:\n        /* \"#utility.yul\":1978:2117   */\n      swap1\n      pop\n        /* \"#utility.yul\":1705:2124   */\n      swap2\n      swap1\n      pop\n      jump\t// out\n        /* \"#utility.yul\":2130:2310   */\n    tag_122:\n        /* \"#utility.yul\":2178:2255   */\n      0x4e487b7100000000000000000000000000000000000000000000000000000000\n        /* \"#utility.yul\":2175:2176   */\n      0x00\n        /* \"#utility.yul\":2168:2256   */\n      mstore\n        /* \"#utility.yul\":2275:2279   */\n      0x11\n        /* \"#utility.yul\":2272:2273   */\n      0x04\n        /* \"#utility.yul\":2265:2280   */\n      mstore\n        /* \"#utility.yul\":2299:2303   */\n      0x24\n        /* \"#utility.yul\":2296:2297   */\n      0x00\n        /* \"#utility.yul\":2289:2304   */\n      revert\n        /* \"#utility.yul\":2316:2393   */\n    tag_123:\n        /* \"#utility.yul\":2353:2360   */\n      0x00\n        /* \"#utility.yul\":2382:2387   */\n      dup2\n        /* \"#utility.yul\":2371:2387   */\n      swap1\n      pop\n        /* \"#utility.yul\":2316:2393   */\n      swap2\n      swap1\n      pop\n      jump\t// out\n        /* \"#utility.yul\":2399:2632   */\n    tag_22:\n        /* \"#utility.yul\":2438:2441   */\n      0x00\n        /* \"#utility.yul\":2461:2485   */\n      tag_192\n        /* \"#utility.yul\":2479:2484   */\n      dup3\n        /* \"#utility.yul\":2461:2485   */\n      tag_123\n      jump\t// in\n    tag_192:\n        /* \"#utility.yul\":2452:2485   */\n      swap2\n      pop\n        /* \"#utility.yul\":2507:2573   */\n      0xffffffffffffffffffffffffffffffffffffffffffffffffffffffffffffffff\n        /* \"#utility.yul\":2500:2505   */\n      dup3\n        /* \"#utility.yul\":2497:2574   */\n      sub\n        /* \"#utility.yul\":2494:2597   */\n      tag_193\n      jumpi\n        /* \"#utility.yul\":2577:2595   */\n      tag_194\n      tag_122\n      jump\t// in\n    tag_194:\n        /* \"#utility.yul\":2494:2597   */\n    tag_193:\n        /* \"#utility.yul\":2624:2625   */\n      0x01\n        /* \"#utility.yul\":2617:2622   */\n      dup3\n        /* \"#utility.yul\":2613:2626   */\n      add\n        /* \"#utility.yul\":2606:2626   */\n      swap1\n      pop\n        /* \"#utility.yul\":2399:2632   */\n      swap2\n      swap1\n      pop\n      jump\t// out\n        /* \"#utility.yul\":2638:2785   */\n    tag_124:\n        /* \"#utility.yul\":2739:2750   */\n      0x00\n        /* \"#utility.yul\":2776:2779   */\n      dup2\n        /* \"#utility.yul\":2761:2779   */\n      swap1\n      pop\n        /* \"#utility.yul\":2638:2785   */\n      swap3\n      swap2\n      pop\n      pop\n      jump\t// out\n        /* \"#utility.yul\":2791:2905   */\n    tag_125:\n      pop\n      jump\t// out\n        /* \"#utility.yul\":2911:3309   */\n    tag_126:\n        /* \"#utility.yul\":3070:3073   */\n      0x00\n        /* \"#utility.yul\":3091:3174   */\n      tag_198\n        /* \"#utility.yul\":3172:3173   */\n      0x00\n        /* \"#utility.yul\":3167:3170   */\n      dup4\n        /* \"#utility.yul\":3091:3174   */\n      tag_124\n      jump\t// in\n    tag_198:\n        /* \"#utility.yul\":3084:3174   */\n      swap2\n      pop\n        /* \"#utility.yul\":3183:3276   */\n      tag_199\n        /* \"#utility.yul\":3272:3275   */\n      dup3\n        /* \"#utility.yul\":3183:3276   */\n      tag_125\n      jump\t// in\n    tag_199:\n        /* \"#utility.yul\":3301:3302   */\n      0x00\n        /* \"#utility.yul\":3296:3299   */\n      dup3\n        /* \"#utility.yul\":3292:3303   */\n      add\n        /* \"#utility.yul\":3285:3303   */\n      swap1\n      pop\n        /* \"#utility.yul\":2911:3309   */\n      swap2\n      swap1\n      pop\n      jump\t// out\n        /* \"#utility.yul\":3315:3694   */\n    tag_25:\n        /* \"#utility.yul\":3499:3502   */\n      0x00\n        /* \"#utility.yul\":3521:3668   */\n      tag_201\n        /* \"#utility.yul\":3664:3667   */\n      dup3\n        /* \"#utility.yul\":3521:3668   */\n      tag_126\n      jump\t// in\n    tag_201:\n        /* \"#utility.yul\":3514:3668   */\n      swap2\n      pop\n        /* \"#utility.yul\":3685:3688   */\n      dup2\n        /* \"#utility.yul\":3678:3688   */\n      swap1\n      pop\n        /* \"#utility.yul\":3315:3694   */\n      swap2\n      swap1\n      pop\n      jump\t// out\n        /* \"#utility.yul\":3700:3856   */\n    tag_127:\n        /* \"#utility.yul\":3840:3848   */\n      0x4661696c65640000000000000000000000000000000000000000000000000000\n        /* \"#utility.yul\":3836:3837   */\n      0x00\n        /* \"#utility.yul\":3828:3834   */\n      dup3\n        /* \"#utility.yul\":3824:3838   */\n      add\n        /* \"#utility.yul\":3817:3849   */\n      mstore\n        /* \"#utility.yul\":3700:3856   */\n      pop\n      jump\t// out\n        /* \"#utility.yul\":3862:4227   */\n    tag_128:\n        /* \"#utility.yul\":4004:4007   */\n      0x00\n        /* \"#utility.yul\":4025:4091   */\n      tag_204\n        /* \"#utility.yul\":4089:4090   */\n      0x06\n        /* \"#utility.yul\":4084:4087   */\n      dup4\n        /* \"#utility.yul\":4025:4091   */\n      tag_117\n      jump\t// in\n    tag_204:\n        /* \"#utility.yul\":4018:4091   */\n      swap2\n      pop\n        /* \"#utility.yul\":4100:4193   */\n      tag_205\n        /* \"#utility.yul\":4189:4192   */\n      dup3\n        /* \"#utility.yul\":4100:4193   */\n      tag_127\n      jump\t// in\n    tag_205:\n        /* \"#utility.yul\":4218:4220   */\n      0x20\n        /* \"#utility.yul\":4213:4216   */\n      dup3\n        /* \"#utility.yul\":4209:4221   */\n      add\n        /* \"#utility.yul\":4202:4221   */\n      swap1\n      pop\n        /* \"#utility.yul\":3862:4227   */\n      swap2\n      swap1\n      pop\n      jump\t// out\n        /* \"#utility.yul\":4233:4652   */\n    tag_31:\n        /* \"#utility.yul\":4399:4403   */\n      0x00\n        /* \"#utility.yul\":4437:4439   */\n      0x20\n        /* \"#utility.yul\":4426:4435   */\n      dup3\n        /* \"#utility.yul\":4422:4440   */\n      add\n        /* \"#utility.yul\":4414:4440   */\n      swap1\n      pop\n        /* \"#utility.yul\":4486:4495   */\n      dup2\n        /* \"#utility.yul\":4480:4484   */\n      dup2\n        /* \"#utility.yul\":4476:4496   */\n      sub\n        /* \"#utility.yul\":4472:4473   */\n      0x00\n        /* \"#utility.yul\":4461:4470   */\n      dup4\n        /* \"#utility.yul\":4457:4474   */\n      add\n        /* \"#utility.yul\":4450:4497   */\n      mstore\n        /* \"#utility.yul\":4514:4645   */\n      tag_207\n        /* \"#utility.yul\":4640:4644   */\n      dup2\n        /* \"#utility.yul\":4514:4645   */\n      tag_128\n      jump\t// in\n    tag_207:\n        /* \"#utility.yul\":4506:4645   */\n      swap1\n      pop\n        /* \"#utility.yul\":4233:4652   */\n      swap2\n      swap1\n      pop\n      jump\t// out\n        /* \"#utility.yul\":4658:4776   */\n    tag_129:\n        /* \"#utility.yul\":4745:4769   */\n      tag_209\n        /* \"#utility.yul\":4763:4768   */\n      dup2\n        /* \"#utility.yul\":4745:4769   */\n      tag_123\n      jump\t// in\n    tag_209:\n        /* \"#utility.yul\":4740:4743   */\n      dup3\n        /* \"#utility.yul\":4733:4770   */\n      mstore\n        /* \"#utility.yul\":4658:4776   */\n      pop\n      pop\n      jump\t// out\n        /* \"#utility.yul\":4782:5004   */\n    tag_37:\n        /* \"#utility.yul\":4875:4879   */\n      0x00\n        /* \"#utility.yul\":4913:4915   */\n      0x20\n        /* \"#utility.yul\":4902:4911   */\n      dup3\n        /* \"#utility.yul\":4898:4916   */\n      add\n        /* \"#utility.yul\":4890:4916   */\n      swap1\n      pop\n        /* \"#utility.yul\":4926:4997   */\n      tag_211\n        /* \"#utility.yul\":4994:4995   */\n      0x00\n        /* \"#utility.yul\":4983:4992   */\n      dup4\n        /* \"#utility.yul\":4979:4996   */\n      add\n        /* \"#utility.yul\":4970:4976   */\n      dup5\n        /* \"#utility.yul\":4926:4997   */\n      tag_129\n      jump\t// in\n    tag_211:\n        /* \"#utility.yul\":4782:5004   */\n      swap3\n      swap2\n      pop\n      pop\n      jump\t// out\n        /* \"#utility.yul\":5010:5085   */\n    tag_130:\n        /* \"#utility.yul\":5043:5049   */\n      0x00\n        /* \"#utility.yul\":5076:5078   */\n      0x40\n        /* \"#utility.yul\":5070:5079   */\n      mload\n        /* \"#utility.yul\":5060:5079   */\n      swap1\n      pop\n        /* \"#utility.yul\":5010:5085   */\n      swap1\n      jump\t// out\n        /* \"#utility.yul\":5091:5208   */\n    tag_131:\n        /* \"#utility.yul\":5200:5201   */\n      0x00\n        /* \"#utility.yul\":5197:5198   */\n      dup1\n        /* \"#utility.yul\":5190:5202   */\n      revert\n        /* \"#utility.yul\":5214:5331   */\n    tag_132:\n        /* \"#utility.yul\":5323:5324   */\n      0x00\n        /* \"#utility.yul\":5320:5321   */\n      dup1\n        /* \"#utility.yul\":5313:5325   */\n      revert\n        /* \"#utility.yul\":5337:5454   */\n    tag_133:\n        /* \"#utility.yul\":5446:5447   */\n      0x00\n        /* \"#utility.yul\":5443:5444   */\n      dup1\n        /* \"#utility.yul\":5436:5448   */\n      revert\n        /* \"#utility.yul\":5460:5577   */\n    tag_134:\n        /* \"#utility.yul\":5569:5570   */\n      0x00\n        /* \"#utility.yul\":5566:5567   */\n      dup1\n        /* \"#utility.yul\":5559:5571   */\n      revert\n        /* \"#utility.yul\":5583:5685   */\n    tag_135:\n        /* \"#utility.yul\":5624:5630   */\n      0x00\n        /* \"#utility.yul\":5675:5677   */\n      0x1f\n        /* \"#utility.yul\":5671:5678   */\n      not\n        /* \"#utility.yul\":5666:5668   */\n      0x1f\n        /* \"#utility.yul\":5659:5664   */\n      dup4\n        /* \"#utility.yul\":5655:5669   */\n      add\n        /* \"#utility.yul\":5651:5679   */\n      and\n        /* \"#utility.yul\":5641:5679   */\n      swap1\n      pop\n        /* \"#utility.yul\":5583:5685   */\n      swap2\n      swap1\n      pop\n      jump\t// out\n        /* \"#utility.yul\":5691:5871   */\n    tag_136:\n        /* \"#utility.yul\":5739:5816   */\n      0x4e487b7100000000000000000000000000000000000000000000000000000000\n        /* \"#utility.yul\":5736:5737   */\n      0x00\n        /* \"#utility.yul\":5729:5817   */\n      mstore\n        /* \"#utility.yul\":5836:5840   */\n      0x41\n        /* \"#utility.yul\":5833:5834   */\n      0x04\n        /* \"#utility.yul\":5826:5841   */\n      mstore\n        /* \"#utility.yul\":5860:5864   */\n      0x24\n        /* \"#utility.yul\":5857:5858   */\n      0x00\n        /* \"#utility.yul\":5850:5865   */\n      revert\n        /* \"#utility.yul\":5877:6158   */\n    tag_137:\n        /* \"#utility.yul\":5960:5987   */\n      tag_220\n        /* \"#utility.yul\":5982:5986   */\n      dup3\n        /* \"#utility.yul\":5960:5987   */\n      tag_135\n      jump\t// in\n    tag_220:\n        /* \"#utility.yul\":5952:5958   */\n      dup2\n        /* \"#utility.yul\":5948:5988   */\n      add\n        /* \"#utility.yul\":6090:6096   */\n      dup2\n        /* \"#utility.yul\":6078:6088   */\n      dup2\n        /* \"#utility.yul\":6075:6097   */\n      lt\n        /* \"#utility.yul\":6054:6072   */\n      0xffffffffffffffff\n        /* \"#utility.yul\":6042:6052   */\n      dup3\n        /* \"#utility.yul\":6039:6073   */\n      gt\n        /* \"#utility.yul\":6036:6098   */\n      or\n        /* \"#utility.yul\":6033:6121   */\n      iszero\n      tag_221\n      jumpi\n        /* \"#utility.yul\":6101:6119   */\n      tag_222\n      tag_136\n      jump\t// in\n    tag_222:\n        /* \"#utility.yul\":6033:6121   */\n    tag_221:\n        /* \"#utility.yul\":6141:6151   */\n      dup1\n        /* \"#utility.yul\":6137:6139   */\n      0x40\n        /* \"#utility.yul\":6130:6152   */\n      mstore\n        /* \"#utility.yul\":5920:6158   */\n      pop\n        /* \"#utility.yul\":5877:6158   */\n      pop\n      pop\n      jump\t// out\n        /* \"#utility.yul\":6164:6293   */\n    tag_138:\n        /* \"#utility.yul\":6198:6204   */\n      0x00\n        /* \"#utility.yul\":6225:6245   */\n      tag_224\n      tag_130\n      jump\t// in\n    tag_224:\n        /* \"#utility.yul\":6215:6245   */\n      swap1\n      pop\n        /* \"#utility.yul\":6254:6287   */\n      tag_225\n        /* \"#utility.yul\":6282:6286   */\n      dup3\n        /* \"#utility.yul\":6274:6280   */\n      dup3\n        /* \"#utility.yul\":6254:6287   */\n      tag_137\n      jump\t// in\n    tag_225:\n        /* \"#utility.yul\":6164:6293   */\n      swap2\n      swap1\n      pop\n      jump\t// out\n        /* \"#utility.yul\":6299:6607   */\n    tag_139:\n        /* \"#utility.yul\":6361:6365   */\n      0x00\n        /* \"#utility.yul\":6451:6469   */\n      0xffffffffffffffff\n        /* \"#utility.yul\":6443:6449   */\n      dup3\n        /* \"#utility.yul\":6440:6470   */\n      gt\n        /* \"#utility.yul\":6437:6493   */\n      iszero\n      tag_227\n      jumpi\n        /* \"#utility.yul\":6473:6491   */\n      tag_228\n      tag_136\n      jump\t// in\n    tag_228:\n        /* \"#utility.yul\":6437:6493   */\n    tag_227:\n        /* \"#utility.yul\":6511:6540   */\n      tag_229\n        /* \"#utility.yul\":6533:6539   */\n      dup3\n        /* \"#utility.yul\":6511:6540   */\n      tag_135\n      jump\t// in\n    tag_229:\n        /* \"#utility.yul\":6503:6540   */\n      swap1\n      pop\n        /* \"#utility.yul\":6595:6599   */\n      0x20\n        /* \"#utility.yul\":6589:6593   */\n      dup2\n        /* \"#utility.yul\":6585:6600   */\n      add\n        /* \"#utility.yul\":6577:6600   */\n      swap1\n      pop\n        /* \"#utility.yul\":6299:6607   */\n      swap2\n      swap1\n      pop\n      jump\t// out\n        /* \"#utility.yul\":6613:6759   */\n    tag_140:\n        /* \"#utility.yul\":6710:6716   */\n      dup3\n        /* \"#utility.yul\":6705:6708   */\n      dup2\n        /* \"#utility.yul\":6700:6703   */\n      dup4\n        /* \"#utility.yul\":6687:6717   */\n      calldatacopy\n        /* \"#utility.yul\":6751:6752   */\n      0x00\n        /* \"#utility.yul\":6742:6748   */\n      dup4\n        /* \"#utility.yul\":6737:6740   */\n      dup4\n        /* \"#utility.yul\":6733:6749   */\n      add\n        /* \"#utility.yul\":6726:6753   */\n      mstore\n        /* \"#utility.yul\":6613:6759   */\n      pop\n      pop\n      pop\n      jump\t// out\n        /* \"#utility.yul\":6765:7190   */\n    tag_141:\n        /* \"#utility.yul\":6843:6848   */\n      0x00\n        /* \"#utility.yul\":6868:6934   */\n      tag_232\n        /* \"#utility.yul\":6884:6933   */\n      tag_233\n        /* \"#utility.yul\":6926:6932   */\n      dup5\n        /* \"#utility.yul\":6884:6933   */\n      tag_139\n      jump\t// in\n    tag_233:\n        /* \"#utility.yul\":6868:6934   */\n      tag_138\n      jump\t// in\n    tag_232:\n        /* \"#utility.yul\":6859:6934   */\n      swap1\n      pop\n        /* \"#utility.yul\":6957:6963   */\n      dup3\n        /* \"#utility.yul\":6950:6955   */\n      dup2\n        /* \"#utility.yul\":6943:6964   */\n      mstore\n        /* \"#utility.yul\":6995:6999   */\n      0x20\n        /* \"#utility.yul\":6988:6993   */\n      dup2\n        /* \"#utility.yul\":6984:7000   */\n      add\n        /* \"#utility.yul\":7033:7036   */\n      dup5\n        /* \"#utility.yul\":7024:7030   */\n      dup5\n        /* \"#utility.yul\":7019:7022   */\n      dup5\n        /* \"#utility.yul\":7015:7031   */\n      add\n        /* \"#utility.yul\":7012:7037   */\n      gt\n        /* \"#utility.yul\":7009:7121   */\n      iszero\n      tag_234\n      jumpi\n        /* \"#utility.yul\":7040:7119   */\n      tag_235\n      tag_134\n      jump\t// in\n    tag_235:\n        /* \"#utility.yul\":7009:7121   */\n    tag_234:\n        /* \"#utility.yul\":7130:7184   */\n      tag_236\n        /* \"#utility.yul\":7177:7183   */\n      dup5\n        /* \"#utility.yul\":7172:7175   */\n      dup3\n        /* \"#utility.yul\":7167:7170   */\n      dup6\n        /* \"#utility.yul\":7130:7184   */\n      tag_140\n      jump\t// in\n    tag_236:\n        /* \"#utility.yul\":6849:7190   */\n      pop\n        /* \"#utility.yul\":6765:7190   */\n      swap4\n      swap3\n      pop\n      pop\n      pop\n      jump\t// out\n        /* \"#utility.yul\":7210:7550   */\n    tag_142:\n        /* \"#utility.yul\":7266:7271   */\n      0x00\n        /* \"#utility.yul\":7315:7318   */\n      dup3\n        /* \"#utility.yul\":7308:7312   */\n      0x1f\n        /* \"#utility.yul\":7300:7306   */\n      dup4\n        /* \"#utility.yul\":7296:7313   */\n      add\n        /* \"#utility.yul\":7292:7319   */\n      slt\n        /* \"#utility.yul\":7282:7404   */\n      tag_238\n      jumpi\n        /* \"#utility.yul\":7323:7402   */\n      tag_239\n      tag_133\n      jump\t// in\n    tag_239:\n        /* \"#utility.yul\":7282:7404   */\n    tag_238:\n        /* \"#utility.yul\":7440:7446   */\n      dup2\n        /* \"#utility.yul\":7427:7447   */\n      calldataload\n        /* \"#utility.yul\":7465:7544   */\n      tag_240\n        /* \"#utility.yul\":7540:7543   */\n      dup5\n        /* \"#utility.yul\":7532:7538   */\n      dup3\n        /* \"#utility.yul\":7525:7529   */\n      0x20\n        /* \"#utility.yul\":7517:7523   */\n      dup7\n        /* \"#utility.yul\":7513:7530   */\n      add\n        /* \"#utility.yul\":7465:7544   */\n      tag_141\n      jump\t// in\n    tag_240:\n        /* \"#utility.yul\":7456:7544   */\n      swap2\n      pop\n        /* \"#utility.yul\":7272:7550   */\n      pop\n        /* \"#utility.yul\":7210:7550   */\n      swap3\n      swap2\n      pop\n      pop\n      jump\t// out\n        /* \"#utility.yul\":7556:7678   */\n    tag_143:\n        /* \"#utility.yul\":7629:7653   */\n      tag_242\n        /* \"#utility.yul\":7647:7652   */\n      dup2\n        /* \"#utility.yul\":7629:7653   */\n      tag_123\n      jump\t// in\n    tag_242:\n        /* \"#utility.yul\":7622:7627   */\n      dup2\n        /* \"#utility.yul\":7619:7654   */\n      eq\n        /* \"#utility.yul\":7609:7672   */\n      tag_243\n      jumpi\n        /* \"#utility.yul\":7668:7669   */\n      0x00\n        /* \"#utility.yul\":7665:7666   */\n      dup1\n        /* \"#utility.yul\":7658:7670   */\n      revert\n        /* \"#utility.yul\":7609:7672   */\n    tag_243:\n        /* \"#utility.yul\":7556:7678   */\n      pop\n      jump\t// out\n        /* \"#utility.yul\":7684:7823   */\n    tag_144:\n        /* \"#utility.yul\":7730:7735   */\n      0x00\n        /* \"#utility.yul\":7768:7774   */\n      dup2\n        /* \"#utility.yul\":7755:7775   */\n      calldataload\n        /* \"#utility.yul\":7746:7775   */\n      swap1\n      pop\n        /* \"#utility.yul\":7784:7817   */\n      tag_245\n        /* \"#utility.yul\":7811:7816   */\n      dup2\n        /* \"#utility.yul\":7784:7817   */\n      tag_143\n      jump\t// in\n    tag_245:\n        /* \"#utility.yul\":7684:7823   */\n      swap3\n      swap2\n      pop\n      pop\n      jump\t// out\n        /* \"#utility.yul\":7829:8483   */\n    tag_53:\n        /* \"#utility.yul\":7907:7913   */\n      0x00\n        /* \"#utility.yul\":7915:7921   */\n      dup1\n        /* \"#utility.yul\":7964:7966   */\n      0x40\n        /* \"#utility.yul\":7952:7961   */\n      dup4\n        /* \"#utility.yul\":7943:7950   */\n      dup6\n        /* \"#utility.yul\":7939:7962   */\n      sub\n        /* \"#utility.yul\":7935:7967   */\n      slt\n        /* \"#utility.yul\":7932:8051   */\n      iszero\n      tag_247\n      jumpi\n        /* \"#utility.yul\":7970:8049   */\n      tag_248\n      tag_131\n      jump\t// in\n    tag_248:\n        /* \"#utility.yul\":7932:8051   */\n    tag_247:\n        /* \"#utility.yul\":8118:8119   */\n      0x00\n        /* \"#utility.yul\":8107:8116   */\n      dup4\n        /* \"#utility.yul\":8103:8120   */\n      add\n        /* \"#utility.yul\":8090:8121   */\n      calldataload\n        /* \"#utility.yul\":8148:8166   */\n      0xffffffffffffffff\n        /* \"#utility.yul\":8140:8146   */\n      dup2\n        /* \"#utility.yul\":8137:8167   */\n      gt\n        /* \"#utility.yul\":8134:8251   */\n      iszero\n      tag_249\n      jumpi\n        /* \"#utility.yul\":8170:8249   */\n      tag_250\n      tag_132\n      jump\t// in\n    tag_250:\n        /* \"#utility.yul\":8134:8251   */\n    tag_249:\n        /* \"#utility.yul\":8275:8338   */\n      tag_251\n        /* \"#utility.yul\":8330:8337   */\n      dup6\n        /* \"#utility.yul\":8321:8327   */\n      dup3\n        /* \"#utility.yul\":8310:8319   */\n      dup7\n        /* \"#utility.yul\":8306:8328   */\n      add\n        /* \"#utility.yul\":8275:8338   */\n      tag_142\n      jump\t// in\n    tag_251:\n        /* \"#utility.yul\":8265:8338   */\n      swap3\n      pop\n        /* \"#utility.yul\":8061:8348   */\n      pop\n        /* \"#utility.yul\":8387:8389   */\n      0x20\n        /* \"#utility.yul\":8413:8466   */\n      tag_252\n        /* \"#utility.yul\":8458:8465   */\n      dup6\n        /* \"#utility.yul\":8449:8455   */\n      dup3\n        /* \"#utility.yul\":8438:8447   */\n      dup7\n        /* \"#utility.yul\":8434:8456   */\n      add\n        /* \"#utility.yul\":8413:8466   */\n      tag_144\n      jump\t// in\n    tag_252:\n        /* \"#utility.yul\":8403:8466   */\n      swap2\n      pop\n        /* \"#utility.yul\":8358:8476   */\n      pop\n        /* \"#utility.yul\":7829:8483   */\n      swap3\n      pop\n      swap3\n      swap1\n      pop\n      jump\t// out\n        /* \"#utility.yul\":8489:8588   */\n    tag_145:\n        /* \"#utility.yul\":8541:8547   */\n      0x00\n        /* \"#utility.yul\":8575:8580   */\n      dup2\n        /* \"#utility.yul\":8569:8581   */\n      mload\n        /* \"#utility.yul\":8559:8581   */\n      swap1\n      pop\n        /* \"#utility.yul\":8489:8588   */\n      swap2\n      swap1\n      pop\n      jump\t// out\n        /* \"#utility.yul\":8594:8840   */\n    tag_146:\n        /* \"#utility.yul\":8675:8676   */\n      0x00\n        /* \"#utility.yul\":8685:8798   */\n    tag_255:\n        /* \"#utility.yul\":8699:8705   */\n      dup4\n        /* \"#utility.yul\":8696:8697   */\n      dup2\n        /* \"#utility.yul\":8693:8706   */\n      lt\n        /* \"#utility.yul\":8685:8798   */\n      iszero\n      tag_257\n      jumpi\n        /* \"#utility.yul\":8784:8785   */\n      dup1\n        /* \"#utility.yul\":8779:8782   */\n      dup3\n        /* \"#utility.yul\":8775:8786   */\n      add\n        /* \"#utility.yul\":8769:8787   */\n      mload\n        /* \"#utility.yul\":8765:8766   */\n      dup2\n        /* \"#utility.yul\":8760:8763   */\n      dup5\n        /* \"#utility.yul\":8756:8767   */\n      add\n        /* \"#utility.yul\":8749:8788   */\n      mstore\n        /* \"#utility.yul\":8721:8723   */\n      0x20\n        /* \"#utility.yul\":8718:8719   */\n      dup2\n        /* \"#utility.yul\":8714:8724   */\n      add\n        /* \"#utility.yul\":8709:8724   */\n      swap1\n      pop\n        /* \"#utility.yul\":8685:8798   */\n      jump(tag_255)\n    tag_257:\n        /* \"#utility.yul\":8832:8833   */\n      0x00\n        /* \"#utility.yul\":8823:8829   */\n      dup5\n        /* \"#utility.yul\":8818:8821   */\n      dup5\n        /* \"#utility.yul\":8814:8830   */\n      add\n        /* \"#utility.yul\":8807:8834   */\n      mstore\n        /* \"#utility.yul\":8656:8840   */\n      pop\n        /* \"#utility.yul\":8594:8840   */\n      pop\n      pop\n      pop\n      jump\t// out\n        /* \"#utility.yul\":8846:9223   */\n    tag_147:\n        /* \"#utility.yul\":8934:8937   */\n      0x00\n        /* \"#utility.yul\":8962:9001   */\n      tag_259\n        /* \"#utility.yul\":8995:9000   */\n      dup3\n        /* \"#utility.yul\":8962:9001   */\n      tag_145\n      jump\t// in\n    tag_259:\n        /* \"#utility.yul\":9017:9088   */\n      tag_260\n        /* \"#utility.yul\":9081:9087   */\n      dup2\n        /* \"#utility.yul\":9076:9079   */\n      dup6\n        /* \"#utility.yul\":9017:9088   */\n      tag_117\n      jump\t// in\n    tag_260:\n        /* \"#utility.yul\":9010:9088   */\n      swap4\n      pop\n        /* \"#utility.yul\":9097:9162   */\n      tag_261\n        /* \"#utility.yul\":9155:9161   */\n      dup2\n        /* \"#utility.yul\":9150:9153   */\n      dup6\n        /* \"#utility.yul\":9143:9147   */\n      0x20\n        /* \"#utility.yul\":9136:9141   */\n      dup7\n        /* \"#utility.yul\":9132:9148   */\n      add\n        /* \"#utility.yul\":9097:9162   */\n      tag_146\n      jump\t// in\n    tag_261:\n        /* \"#utility.yul\":9187:9216   */\n      tag_262\n        /* \"#utility.yul\":9209:9215   */\n      dup2\n        /* \"#utility.yul\":9187:9216   */\n      tag_135\n      jump\t// in\n    tag_262:\n        /* \"#utility.yul\":9182:9185   */\n      dup5\n        /* \"#utility.yul\":9178:9217   */\n      add\n        /* \"#utility.yul\":9171:9217   */\n      swap2\n      pop\n        /* \"#utility.yul\":8938:9223   */\n      pop\n        /* \"#utility.yul\":8846:9223   */\n      swap3\n      swap2\n      pop\n      pop\n      jump\t// out\n        /* \"#utility.yul\":9229:9652   */\n    tag_59:\n        /* \"#utility.yul\":9370:9374   */\n      0x00\n        /* \"#utility.yul\":9408:9410   */\n      0x40\n        /* \"#utility.yul\":9397:9406   */\n      dup3\n        /* \"#utility.yul\":9393:9411   */\n      add\n        /* \"#utility.yul\":9385:9411   */\n      swap1\n      pop\n        /* \"#utility.yul\":9457:9466   */\n      dup2\n        /* \"#utility.yul\":9451:9455   */\n      dup2\n        /* \"#utility.yul\":9447:9467   */\n      sub\n        /* \"#utility.yul\":9443:9444   */\n      0x00\n        /* \"#utility.yul\":9432:9441   */\n      dup4\n        /* \"#utility.yul\":9428:9445   */\n      add\n        /* \"#utility.yul\":9421:9468   */\n      mstore\n        /* \"#utility.yul\":9485:9563   */\n      tag_264\n        /* \"#utility.yul\":9558:9562   */\n      dup2\n        /* \"#utility.yul\":9549:9555   */\n      dup6\n        /* \"#utility.yul\":9485:9563   */\n      tag_147\n      jump\t// in\n    tag_264:\n        /* \"#utility.yul\":9477:9563   */\n      swap1\n      pop\n        /* \"#utility.yul\":9573:9645   */\n      tag_265\n        /* \"#utility.yul\":9641:9643   */\n      0x20\n        /* \"#utility.yul\":9630:9639   */\n      dup4\n        /* \"#utility.yul\":9626:9644   */\n      add\n        /* \"#utility.yul\":9617:9623   */\n      dup5\n        /* \"#utility.yul\":9573:9645   */\n      tag_129\n      jump\t// in\n    tag_265:\n        /* \"#utility.yul\":9229:9652   */\n      swap4\n      swap3\n      pop\n      pop\n      pop\n      jump\t// out\n        /* \"#utility.yul\":9658:9784   */\n    tag_148:\n        /* \"#utility.yul\":9695:9702   */\n      0x00\n        /* \"#utility.yul\":9735:9777   */\n      0xffffffffffffffffffffffffffffffffffffffff\n        /* \"#utility.yul\":9728:9733   */\n      dup3\n        /* \"#utility.yul\":9724:9778   */\n      and\n        /* \"#utility.yul\":9713:9778   */\n      swap1\n      pop\n        /* \"#utility.yul\":9658:9784   */\n      swap2\n      swap1\n      pop\n      jump\t// out\n        /* \"#utility.yul\":9790:9886   */\n    tag_149:\n        /* \"#utility.yul\":9827:9834   */\n      0x00\n        /* \"#utility.yul\":9856:9880   */\n      tag_268\n        /* \"#utility.yul\":9874:9879   */\n      dup3\n        /* \"#utility.yul\":9856:9880   */\n      tag_148\n      jump\t// in\n    tag_268:\n        /* \"#utility.yul\":9845:9880   */\n      swap1\n      pop\n        /* \"#utility.yul\":9790:9886   */\n      swap2\n      swap1\n      pop\n      jump\t// out\n        /* \"#utility.yul\":9892:10010   */\n    tag_150:\n        /* \"#utility.yul\":9979:10003   */\n      tag_270\n        /* \"#utility.yul\":9997:10002   */\n      dup2\n        /* \"#utility.yul\":9979:10003   */\n      tag_149\n      jump\t// in\n    tag_270:\n        /* \"#utility.yul\":9974:9977   */\n      dup3\n        /* \"#utility.yul\":9967:10004   */\n      mstore\n        /* \"#utility.yul\":9892:10010   */\n      pop\n      pop\n      jump\t// out\n        /* \"#utility.yul\":10016:10238   */\n    tag_64:\n        /* \"#utility.yul\":10109:10113   */\n      0x00\n        /* \"#utility.yul\":10147:10149   */\n      0x20\n        /* \"#utility.yul\":10136:10145   */\n      dup3\n        /* \"#utility.yul\":10132:10150   */\n      add\n        /* \"#utility.yul\":10124:10150   */\n      swap1\n      pop\n        /* \"#utility.yul\":10160:10231   */\n      tag_272\n        /* \"#utility.yul\":10228:10229   */\n      0x00\n        /* \"#utility.yul\":10217:10226   */\n      dup4\n        /* \"#utility.yul\":10213:10230   */\n      add\n        /* \"#utility.yul\":10204:10210   */\n      dup5\n        /* \"#utility.yul\":10160:10231   */\n      tag_150\n      jump\t// in\n    tag_272:\n        /* \"#utility.yul\":10016:10238   */\n      swap3\n      swap2\n      pop\n      pop\n      jump\t// out\n        /* \"#utility.yul\":10244:10366   */\n    tag_151:\n        /* \"#utility.yul\":10317:10341   */\n      tag_274\n        /* \"#utility.yul\":10335:10340   */\n      dup2\n        /* \"#utility.yul\":10317:10341   */\n      tag_149\n      jump\t// in\n    tag_274:\n        /* \"#utility.yul\":10310:10315   */\n      dup2\n        /* \"#utility.yul\":10307:10342   */\n      eq\n        /* \"#utility.yul\":10297:10360   */\n      tag_275\n      jumpi\n        /* \"#utility.yul\":10356:10357   */\n      0x00\n        /* \"#utility.yul\":10353:10354   */\n      dup1\n        /* \"#utility.yul\":10346:10358   */\n      revert\n        /* \"#utility.yul\":10297:10360   */\n    tag_275:\n        /* \"#utility.yul\":10244:10366   */\n      pop\n      jump\t// out\n        /* \"#utility.yul\":10372:10511   */\n    tag_152:\n        /* \"#utility.yul\":10418:10423   */\n      0x00\n        /* \"#utility.yul\":10456:10462   */\n      dup2\n        /* \"#utility.yul\":10443:10463   */\n      calldataload\n        /* \"#utility.yul\":10434:10463   */\n      swap1\n      pop\n        /* \"#utility.yul\":10472:10505   */\n      tag_277\n        /* \"#utility.yul\":10499:10504   */\n      dup2\n        /* \"#utility.yul\":10472:10505   */\n      tag_151\n      jump\t// in\n    tag_277:\n        /* \"#utility.yul\":10372:10511   */\n      swap3\n      swap2\n      pop\n      pop\n      jump\t// out\n        /* \"#utility.yul\":10517:10991   */\n    tag_76:\n        /* \"#utility.yul\":10585:10591   */\n      0x00\n        /* \"#utility.yul\":10593:10599   */\n      dup1\n        /* \"#utility.yul\":10642:10644   */\n      0x40\n        /* \"#utility.yul\":10630:10639   */\n      dup4\n        /* \"#utility.yul\":10621:10628   */\n      dup6\n        /* \"#utility.yul\":10617:10640   */\n      sub\n        /* \"#utility.yul\":10613:10645   */\n      slt\n        /* \"#utility.yul\":10610:10729   */\n      iszero\n      tag_279\n      jumpi\n        /* \"#utility.yul\":10648:10727   */\n      tag_280\n      tag_131\n      jump\t// in\n    tag_280:\n        /* \"#utility.yul\":10610:10729   */\n    tag_279:\n        /* \"#utility.yul\":10768:10769   */\n      0x00\n        /* \"#utility.yul\":10793:10846   */\n      tag_281\n        /* \"#utility.yul\":10838:10845   */\n      dup6\n        /* \"#utility.yul\":10829:10835   */\n      dup3\n        /* \"#utility.yul\":10818:10827   */\n      dup7\n        /* \"#utility.yul\":10814:10836   */\n      add\n        /* \"#utility.yul\":10793:10846   */\n      tag_144\n      jump\t// in\n    tag_281:\n        /* \"#utility.yul\":10783:10846   */\n      swap3\n      pop\n        /* \"#utility.yul\":10739:10856   */\n      pop\n        /* \"#utility.yul\":10895:10897   */\n      0x20\n        /* \"#utility.yul\":10921:10974   */\n      tag_282\n        /* \"#utility.yul\":10966:10973   */\n      dup6\n        /* \"#utility.yul\":10957:10963   */\n      dup3\n        /* \"#utility.yul\":10946:10955   */\n      dup7\n        /* \"#utility.yul\":10942:10964   */\n      add\n        /* \"#utility.yul\":10921:10974   */\n      tag_152\n      jump\t// in\n    tag_282:\n        /* \"#utility.yul\":10911:10974   */\n      swap2\n      pop\n        /* \"#utility.yul\":10866:10984   */\n      pop\n        /* \"#utility.yul\":10517:10991   */\n      swap3\n      pop\n      swap3\n      swap1\n      pop\n      jump\t// out\n        /* \"#utility.yul\":10997:11087   */\n    tag_153:\n        /* \"#utility.yul\":11031:11038   */\n      0x00\n        /* \"#utility.yul\":11074:11079   */\n      dup2\n        /* \"#utility.yul\":11067:11080   */\n      iszero\n        /* \"#utility.yul\":11060:11081   */\n      iszero\n        /* \"#utility.yul\":11049:11081   */\n      swap1\n      pop\n        /* \"#utility.yul\":10997:11087   */\n      swap2\n      swap1\n      pop\n      jump\t// out\n        /* \"#utility.yul\":11093:11202   */\n    tag_154:\n        /* \"#utility.yul\":11174:11195   */\n      tag_285\n        /* \"#utility.yul\":11189:11194   */\n      dup2\n        /* \"#utility.yul\":11174:11195   */\n      tag_153\n      jump\t// in\n    tag_285:\n        /* \"#utility.yul\":11169:11172   */\n      dup3\n        /* \"#utility.yul\":11162:11196   */\n      mstore\n        /* \"#utility.yul\":11093:11202   */\n      pop\n      pop\n      jump\t// out\n        /* \"#utility.yul\":11208:11418   */\n    tag_79:\n        /* \"#utility.yul\":11295:11299   */\n      0x00\n        /* \"#utility.yul\":11333:11335   */\n      0x20\n        /* \"#utility.yul\":11322:11331   */\n      dup3\n        /* \"#utility.yul\":11318:11336   */\n      add\n        /* \"#utility.yul\":11310:11336   */\n      swap1\n      pop\n        /* \"#utility.yul\":11346:11411   */\n      tag_287\n        /* \"#utility.yul\":11408:11409   */\n      0x00\n        /* \"#utility.yul\":11397:11406   */\n      dup4\n        /* \"#utility.yul\":11393:11410   */\n      add\n        /* \"#utility.yul\":11384:11390   */\n      dup5\n        /* \"#utility.yul\":11346:11411   */\n      tag_154\n      jump\t// in\n    tag_287:\n        /* \"#utility.yul\":11208:11418   */\n      swap3\n      swap2\n      pop\n      pop\n      jump\t// out\n        /* \"#utility.yul\":11424:11604   */\n    tag_155:\n        /* \"#utility.yul\":11472:11549   */\n      0x4e487b7100000000000000000000000000000000000000000000000000000000\n        /* \"#utility.yul\":11469:11470   */\n      0x00\n        /* \"#utility.yul\":11462:11550   */\n      mstore\n        /* \"#utility.yul\":11569:11573   */\n      0x22\n        /* \"#utility.yul\":11566:11567   */\n      0x04\n        /* \"#utility.yul\":11559:11574   */\n      mstore\n        /* \"#utility.yul\":11593:11597   */\n      0x24\n        /* \"#utility.yul\":11590:11591   */\n      0x00\n        /* \"#utility.yul\":11583:11598   */\n      revert\n        /* \"#utility.yul\":11610:11930   */\n    tag_107:\n        /* \"#utility.yul\":11654:11660   */\n      0x00\n        /* \"#utility.yul\":11691:11692   */\n      0x02\n        /* \"#utility.yul\":11685:11689   */\n      dup3\n        /* \"#utility.yul\":11681:11693   */\n      div\n        /* \"#utility.yul\":11671:11693   */\n      swap1\n      pop\n        /* \"#utility.yul\":11738:11739   */\n      0x01\n        /* \"#utility.yul\":11732:11736   */\n      dup3\n        /* \"#utility.yul\":11728:11740   */\n      and\n        /* \"#utility.yul\":11759:11777   */\n      dup1\n        /* \"#utility.yul\":11749:11830   */\n      tag_290\n      jumpi\n        /* \"#utility.yul\":11815:11819   */\n      0x7f\n        /* \"#utility.yul\":11807:11813   */\n      dup3\n        /* \"#utility.yul\":11803:11820   */\n      and\n        /* \"#utility.yul\":11793:11820   */\n      swap2\n      pop\n        /* \"#utility.yul\":11749:11830   */\n    tag_290:\n        /* \"#utility.yul\":11877:11879   */\n      0x20\n        /* \"#utility.yul\":11869:11875   */\n      dup3\n        /* \"#utility.yul\":11866:11880   */\n      lt\n        /* \"#utility.yul\":11846:11864   */\n      dup2\n        /* \"#utility.yul\":11843:11881   */\n      sub\n        /* \"#utility.yul\":11840:11924   */\n      tag_291\n      jumpi\n        /* \"#utility.yul\":11896:11914   */\n      tag_292\n      tag_155\n      jump\t// in\n    tag_292:\n        /* \"#utility.yul\":11840:11924   */\n    tag_291:\n        /* \"#utility.yul\":11661:11930   */\n      pop\n        /* \"#utility.yul\":11610:11930   */\n      swap2\n      swap1\n      pop\n      jump\t// out\n        /* \"#utility.yul\":11936:12077   */\n    tag_156:\n        /* \"#utility.yul\":11985:11989   */\n      0x00\n        /* \"#utility.yul\":12008:12011   */\n      dup2\n        /* \"#utility.yul\":12000:12011   */\n      swap1\n      pop\n        /* \"#utility.yul\":12031:12034   */\n      dup2\n        /* \"#utility.yul\":12028:12029   */\n      0x00\n        /* \"#utility.yul\":12021:12035   */\n      mstore\n        /* \"#utility.yul\":12065:12069   */\n      0x20\n        /* \"#utility.yul\":12062:12063   */\n      0x00\n        /* \"#utility.yul\":12052:12070   */\n      keccak256\n        /* \"#utility.yul\":12044:12070   */\n      swap1\n      pop\n        /* \"#utility.yul\":11936:12077   */\n      swap2\n      swap1\n      pop\n      jump\t// out\n        /* \"#utility.yul\":12107:12938   */\n    tag_157:\n        /* \"#utility.yul\":12192:12195   */\n      0x00\n        /* \"#utility.yul\":12229:12234   */\n      dup2\n        /* \"#utility.yul\":12223:12235   */\n      sload\n        /* \"#utility.yul\":12258:12294   */\n      tag_295\n        /* \"#utility.yul\":12284:12293   */\n      dup2\n        /* \"#utility.yul\":12258:12294   */\n      tag_107\n      jump\t// in\n    tag_295:\n        /* \"#utility.yul\":12310:12381   */\n      tag_296\n        /* \"#utility.yul\":12374:12380   */\n      dup2\n        /* \"#utility.yul\":12369:12372   */\n      dup7\n        /* \"#utility.yul\":12310:12381   */\n      tag_117\n      jump\t// in\n    tag_296:\n        /* \"#utility.yul\":12303:12381   */\n      swap5\n      pop\n        /* \"#utility.yul\":12412:12413   */\n      0x01\n        /* \"#utility.yul\":12401:12410   */\n      dup3\n        /* \"#utility.yul\":12397:12414   */\n      and\n        /* \"#utility.yul\":12428:12429   */\n      0x00\n        /* \"#utility.yul\":12423:12587   */\n      dup2\n      eq\n      tag_298\n      jumpi\n        /* \"#utility.yul\":12601:12602   */\n      0x01\n        /* \"#utility.yul\":12596:12932   */\n      dup2\n      eq\n      tag_299\n      jumpi\n        /* \"#utility.yul\":12390:12932   */\n      jump(tag_297)\n        /* \"#utility.yul\":12423:12587   */\n    tag_298:\n        /* \"#utility.yul\":12507:12511   */\n      0xff\n        /* \"#utility.yul\":12503:12512   */\n      not\n        /* \"#utility.yul\":12492:12501   */\n      dup4\n        /* \"#utility.yul\":12488:12513   */\n      and\n        /* \"#utility.yul\":12483:12486   */\n      dup7\n        /* \"#utility.yul\":12476:12514   */\n      mstore\n        /* \"#utility.yul\":12567:12573   */\n      dup2\n        /* \"#utility.yul\":12560:12574   */\n      iszero\n        /* \"#utility.yul\":12553:12575   */\n      iszero\n        /* \"#utility.yul\":12547:12551   */\n      0x20\n        /* \"#utility.yul\":12543:12576   */\n      mul\n        /* \"#utility.yul\":12538:12541   */\n      dup7\n        /* \"#utility.yul\":12534:12577   */\n      add\n        /* \"#utility.yul\":12527:12577   */\n      swap4\n      pop\n        /* \"#utility.yul\":12423:12587   */\n      jump(tag_297)\n        /* \"#utility.yul\":12596:12932   */\n    tag_299:\n        /* \"#utility.yul\":12663:12701   */\n      tag_300\n        /* \"#utility.yul\":12695:12700   */\n      dup6\n        /* \"#utility.yul\":12663:12701   */\n      tag_156\n      jump\t// in\n    tag_300:\n        /* \"#utility.yul\":12723:12724   */\n      0x00\n        /* \"#utility.yul\":12737:12891   */\n    tag_301:\n        /* \"#utility.yul\":12751:12757   */\n      dup4\n        /* \"#utility.yul\":12748:12749   */\n      dup2\n        /* \"#utility.yul\":12745:12758   */\n      lt\n        /* \"#utility.yul\":12737:12891   */\n      iszero\n      tag_303\n      jumpi\n        /* \"#utility.yul\":12825:12832   */\n      dup2\n        /* \"#utility.yul\":12819:12833   */\n      sload\n        /* \"#utility.yul\":12815:12816   */\n      dup2\n        /* \"#utility.yul\":12810:12813   */\n      dup10\n        /* \"#utility.yul\":12806:12817   */\n      add\n        /* \"#utility.yul\":12799:12834   */\n      mstore\n        /* \"#utility.yul\":12875:12876   */\n      0x01\n        /* \"#utility.yul\":12866:12873   */\n      dup3\n        /* \"#utility.yul\":12862:12877   */\n      add\n        /* \"#utility.yul\":12851:12877   */\n      swap2\n      pop\n        /* \"#utility.yul\":12773:12777   */\n      0x20\n        /* \"#utility.yul\":12770:12771   */\n      dup2\n        /* \"#utility.yul\":12766:12778   */\n      add\n        /* \"#utility.yul\":12761:12778   */\n      swap1\n      pop\n        /* \"#utility.yul\":12737:12891   */\n      jump(tag_301)\n    tag_303:\n        /* \"#utility.yul\":12920:12921   */\n      dup1\n        /* \"#utility.yul\":12915:12918   */\n      dup9\n        /* \"#utility.yul\":12911:12922   */\n      add\n        /* \"#utility.yul\":12904:12922   */\n      swap6\n      pop\n        /* \"#utility.yul\":12603:12932   */\n      pop\n      pop\n        /* \"#utility.yul\":12390:12932   */\n    tag_297:\n      pop\n        /* \"#utility.yul\":12196:12938   */\n      pop\n      pop\n        /* \"#utility.yul\":12107:12938   */\n      swap3\n      swap2\n      pop\n      pop\n      jump\t// out\n        /* \"#utility.yul\":12944:13251   */\n    tag_82:\n        /* \"#utility.yul\":13054:13058   */\n      0x00\n        /* \"#utility.yul\":13092:13094   */\n      0x20\n        /* \"#utility.yul\":13081:13090   */\n      dup3\n        /* \"#utility.yul\":13077:13095   */\n      add\n        /* \"#utility.yul\":13069:13095   */\n      swap1\n      pop\n        /* \"#utility.yul\":13141:13150   */\n      dup2\n        /* \"#utility.yul\":13135:13139   */\n      dup2\n        /* \"#utility.yul\":13131:13151   */\n      sub\n        /* \"#utility.yul\":13127:13128   */\n      0x00\n        /* \"#utility.yul\":13116:13125   */\n      dup4\n        /* \"#utility.yul\":13112:13129   */\n      add\n        /* \"#utility.yul\":13105:13152   */\n      mstore\n        /* \"#utility.yul\":13169:13244   */\n      tag_305\n        /* \"#utility.yul\":13239:13243   */\n      dup2\n        /* \"#utility.yul\":13230:13236   */\n      dup5\n        /* \"#utility.yul\":13169:13244   */\n      tag_157\n      jump\t// in\n    tag_305:\n        /* \"#utility.yul\":13161:13244   */\n      swap1\n      pop\n        /* \"#utility.yul\":12944:13251   */\n      swap3\n      swap2\n      pop\n      pop\n      jump\t// out\n        /* \"#utility.yul\":13257:13448   */\n    tag_84:\n        /* \"#utility.yul\":13297:13300   */\n      0x00\n        /* \"#utility.yul\":13316:13336   */\n      tag_307\n        /* \"#utility.yul\":13334:13335   */\n      dup3\n        /* \"#utility.yul\":13316:13336   */\n      tag_123\n      jump\t// in\n    tag_307:\n        /* \"#utility.yul\":13311:13336   */\n      swap2\n      pop\n        /* \"#utility.yul\":13350:13370   */\n      tag_308\n        /* \"#utility.yul\":13368:13369   */\n      dup4\n        /* \"#utility.yul\":13350:13370   */\n      tag_123\n      jump\t// in\n    tag_308:\n        /* \"#utility.yul\":13345:13370   */\n      swap3\n      pop\n        /* \"#utility.yul\":13393:13394   */\n      dup3\n        /* \"#utility.yul\":13390:13391   */\n      dup3\n        /* \"#utility.yul\":13386:13395   */\n      add\n        /* \"#utility.yul\":13379:13395   */\n      swap1\n      pop\n        /* \"#utility.yul\":13414:13417   */\n      dup1\n        /* \"#utility.yul\":13411:13412   */\n      dup3\n        /* \"#utility.yul\":13408:13418   */\n      gt\n        /* \"#utility.yul\":13405:13441   */\n      iszero\n      tag_309\n      jumpi\n        /* \"#utility.yul\":13421:13439   */\n      tag_310\n      tag_122\n      jump\t// in\n    tag_310:\n        /* \"#utility.yul\":13405:13441   */\n    tag_309:\n        /* \"#utility.yul\":13257:13448   */\n      swap3\n      swap2\n      pop\n      pop\n      jump\t// out\n        /* \"#utility.yul\":13454:13634   */\n    tag_158:\n        /* \"#utility.yul\":13502:13579   */\n      0x4e487b7100000000000000000000000000000000000000000000000000000000\n        /* \"#utility.yul\":13499:13500   */\n      0x00\n        /* \"#utility.yul\":13492:13580   */\n      mstore\n        /* \"#utility.yul\":13599:13603   */\n      0x12\n        /* \"#utility.yul\":13596:13597   */\n      0x04\n        /* \"#utility.yul\":13589:13604   */\n      mstore\n        /* \"#utility.yul\":13623:13627   */\n      0x24\n        /* \"#utility.yul\":13620:13621   */\n      0x00\n        /* \"#utility.yul\":13613:13628   */\n      revert\n        /* \"#utility.yul\":13640:13825   */\n    tag_88:\n        /* \"#utility.yul\":13680:13681   */\n      0x00\n        /* \"#utility.yul\":13697:13717   */\n      tag_313\n        /* \"#utility.yul\":13715:13716   */\n      dup3\n        /* \"#utility.yul\":13697:13717   */\n      tag_123\n      jump\t// in\n    tag_313:\n        /* \"#utility.yul\":13692:13717   */\n      swap2\n      pop\n        /* \"#utility.yul\":13731:13751   */\n      tag_314\n        /* \"#utility.yul\":13749:13750   */\n      dup4\n        /* \"#utility.yul\":13731:13751   */\n      tag_123\n      jump\t// in\n    tag_314:\n        /* \"#utility.yul\":13726:13751   */\n      swap3\n      pop\n        /* \"#utility.yul\":13770:13771   */\n      dup3\n        /* \"#utility.yul\":13760:13795   */\n      tag_315\n      jumpi\n        /* \"#utility.yul\":13775:13793   */\n      tag_316\n      tag_158\n      jump\t// in\n    tag_316:\n        /* \"#utility.yul\":13760:13795   */\n    tag_315:\n        /* \"#utility.yul\":13817:13818   */\n      dup3\n        /* \"#utility.yul\":13814:13815   */\n      dup3\n        /* \"#utility.yul\":13810:13819   */\n      div\n        /* \"#utility.yul\":13805:13819   */\n      swap1\n      pop\n        /* \"#utility.yul\":13640:13825   */\n      swap3\n      swap2\n      pop\n      pop\n      jump\t// out\n        /* \"#utility.yul\":13831:14241   */\n    tag_90:\n        /* \"#utility.yul\":13871:13878   */\n      0x00\n        /* \"#utility.yul\":13894:13914   */\n      tag_318\n        /* \"#utility.yul\":13912:13913   */\n      dup3\n        /* \"#utility.yul\":13894:13914   */\n      tag_123\n      jump\t// in\n    tag_318:\n        /* \"#utility.yul\":13889:13914   */\n      swap2\n      pop\n        /* \"#utility.yul\":13928:13948   */\n      tag_319\n        /* \"#utility.yul\":13946:13947   */\n      dup4\n        /* \"#utility.yul\":13928:13948   */\n      tag_123\n      jump\t// in\n    tag_319:\n        /* \"#utility.yul\":13923:13948   */\n      swap3\n      pop\n        /* \"#utility.yul\":13983:13984   */\n      dup3\n        /* \"#utility.yul\":13980:13981   */\n      dup3\n        /* \"#utility.yul\":13976:13985   */\n      mul\n        /* \"#utility.yul\":14005:14035   */\n      tag_320\n        /* \"#utility.yul\":14023:14034   */\n      dup2\n        /* \"#utility.yul\":14005:14035   */\n      tag_123\n      jump\t// in\n    tag_320:\n        /* \"#utility.yul\":13994:14035   */\n      swap2\n      pop\n        /* \"#utility.yul\":14184:14185   */\n      dup3\n        /* \"#utility.yul\":14175:14182   */\n      dup3\n        /* \"#utility.yul\":14171:14186   */\n      div\n        /* \"#utility.yul\":14168:14169   */\n      dup5\n        /* \"#utility.yul\":14165:14187   */\n      eq\n        /* \"#utility.yul\":14145:14146   */\n      dup4\n        /* \"#utility.yul\":14138:14147   */\n      iszero\n        /* \"#utility.yul\":14118:14201   */\n      or\n        /* \"#utility.yul\":14095:14234   */\n      tag_321\n      jumpi\n        /* \"#utility.yul\":14214:14232   */\n      tag_322\n      tag_122\n      jump\t// in\n    tag_322:\n        /* \"#utility.yul\":14095:14234   */\n    tag_321:\n        /* \"#utility.yul\":13879:14241   */\n      pop\n        /* \"#utility.yul\":13831:14241   */\n      swap3\n      swap2\n      pop\n      pop\n      jump\t// out\n        /* \"#utility.yul\":14247:14441   */\n    tag_92:\n        /* \"#utility.yul\":14287:14291   */\n      0x00\n        /* \"#utility.yul\":14307:14327   */\n      tag_324\n        /* \"#utility.yul\":14325:14326   */\n      dup3\n        /* \"#utility.yul\":14307:14327   */\n      tag_123\n      jump\t// in\n    tag_324:\n        /* \"#utility.yul\":14302:14327   */\n      swap2\n      pop\n        /* \"#utility.yul\":14341:14361   */\n      tag_325\n        /* \"#utility.yul\":14359:14360   */\n      dup4\n        /* \"#utility.yul\":14341:14361   */\n      tag_123\n      jump\t// in\n    tag_325:\n        /* \"#utility.yul\":14336:14361   */\n      swap3\n      pop\n        /* \"#utility.yul\":14385:14386   */\n      dup3\n        /* \"#utility.yul\":14382:14383   */\n      dup3\n        /* \"#utility.yul\":14378:14387   */\n      sub\n        /* \"#utility.yul\":14370:14387   */\n      swap1\n      pop\n        /* \"#utility.yul\":14409:14410   */\n      dup2\n        /* \"#utility.yul\":14403:14407   */\n      dup2\n        /* \"#utility.yul\":14400:14411   */\n      gt\n        /* \"#utility.yul\":14397:14434   */\n      iszero\n      tag_326\n      jumpi\n        /* \"#utility.yul\":14414:14432   */\n      tag_327\n      tag_122\n      jump\t// in\n    tag_327:\n        /* \"#utility.yul\":14397:14434   */\n    tag_326:\n        /* \"#utility.yul\":14247:14441   */\n      swap3\n      swap2\n      pop\n      pop\n      jump\t// out\n        /* \"#utility.yul\":14447:14629   */\n    tag_159:\n        /* \"#utility.yul\":14587:14621   */\n      0x4f776e61626c653a2063616c6c6572206973206e6f7420746865206f776e6572\n        /* \"#utility.yul\":14583:14584   */\n      0x00\n        /* \"#utility.yul\":14575:14581   */\n      dup3\n        /* \"#utility.yul\":14571:14585   */\n      add\n        /* \"#utility.yul\":14564:14622   */\n      mstore\n        /* \"#utility.yul\":14447:14629   */\n      pop\n      jump\t// out\n        /* \"#utility.yul\":14635:15001   */\n    tag_160:\n        /* \"#utility.yul\":14777:14780   */\n      0x00\n        /* \"#utility.yul\":14798:14865   */\n      tag_330\n        /* \"#utility.yul\":14862:14864   */\n      0x20\n        /* \"#utility.yul\":14857:14860   */\n      dup4\n        /* \"#utility.yul\":14798:14865   */\n      tag_117\n      jump\t// in\n    tag_330:\n        /* \"#utility.yul\":14791:14865   */\n      swap2\n      pop\n        /* \"#utility.yul\":14874:14967   */\n      tag_331\n        /* \"#utility.yul\":14963:14966   */\n      dup3\n        /* \"#utility.yul\":14874:14967   */\n      tag_159\n      jump\t// in\n    tag_331:\n        /* \"#utility.yul\":14992:14994   */\n      0x20\n        /* \"#utility.yul\":14987:14990   */\n      dup3\n        /* \"#utility.yul\":14983:14995   */\n      add\n        /* \"#utility.yul\":14976:14995   */\n      swap1\n      pop\n        /* \"#utility.yul\":14635:15001   */\n      swap2\n      swap1\n      pop\n      jump\t// out\n        /* \"#utility.yul\":15007:15426   */\n    tag_98:\n        /* \"#utility.yul\":15173:15177   */\n      0x00\n        /* \"#utility.yul\":15211:15213   */\n      0x20\n        /* \"#utility.yul\":15200:15209   */\n      dup3\n        /* \"#utility.yul\":15196:15214   */\n      add\n        /* \"#utility.yul\":15188:15214   */\n      swap1\n      pop\n        /* \"#utility.yul\":15260:15269   */\n      dup2\n        /* \"#utility.yul\":15254:15258   */\n      dup2\n        /* \"#utility.yul\":15250:15270   */\n      sub\n        /* \"#utility.yul\":15246:15247   */\n      0x00\n        /* \"#utility.yul\":15235:15244   */\n      dup4\n        /* \"#utility.yul\":15231:15248   */\n      add\n        /* \"#utility.yul\":15224:15271   */\n      mstore\n        /* \"#utility.yul\":15288:15419   */\n      tag_333\n        /* \"#utility.yul\":15414:15418   */\n      dup2\n        /* \"#utility.yul\":15288:15419   */\n      tag_160\n      jump\t// in\n    tag_333:\n        /* \"#utility.yul\":15280:15419   */\n      swap1\n      pop\n        /* \"#utility.yul\":15007:15426   */\n      swap2\n      swap1\n      pop\n      jump\t// out\n        /* \"#utility.yul\":15432:15525   */\n    tag_161:\n        /* \"#utility.yul\":15469:15475   */\n      0x00\n        /* \"#utility.yul\":15516:15518   */\n      0x20\n        /* \"#utility.yul\":15511:15513   */\n      0x1f\n        /* \"#utility.yul\":15504:15509   */\n      dup4\n        /* \"#utility.yul\":15500:15514   */\n      add\n        /* \"#utility.yul\":15496:15519   */\n      div\n        /* \"#utility.yul\":15486:15519   */\n      swap1\n      pop\n        /* \"#utility.yul\":15432:15525   */\n      swap2\n      swap1\n      pop\n      jump\t// out\n        /* \"#utility.yul\":15531:15638   */\n    tag_162:\n        /* \"#utility.yul\":15575:15583   */\n      0x00\n        /* \"#utility.yul\":15625:15630   */\n      dup3\n        /* \"#utility.yul\":15619:15623   */\n      dup3\n        /* \"#utility.yul\":15615:15631   */\n      shl\n        /* \"#utility.yul\":15594:15631   */\n      swap1\n      pop\n        /* \"#utility.yul\":15531:15638   */\n      swap3\n      swap2\n      pop\n      pop\n      jump\t// out\n        /* \"#utility.yul\":15644:16037   */\n    tag_163:\n        /* \"#utility.yul\":15713:15719   */\n      0x00\n        /* \"#utility.yul\":15763:15764   */\n      0x08\n        /* \"#utility.yul\":15751:15761   */\n      dup4\n        /* \"#utility.yul\":15747:15765   */\n      mul\n        /* \"#utility.yul\":15786:15883   */\n      tag_337\n        /* \"#utility.yul\":15816:15882   */\n      0xffffffffffffffffffffffffffffffffffffffffffffffffffffffffffffffff\n        /* \"#utility.yul\":15805:15814   */\n      dup3\n        /* \"#utility.yul\":15786:15883   */\n      tag_162\n      jump\t// in\n    tag_337:\n        /* \"#utility.yul\":15904:15943   */\n      tag_338\n        /* \"#utility.yul\":15934:15942   */\n      dup7\n        /* \"#utility.yul\":15923:15932   */\n      dup4\n        /* \"#utility.yul\":15904:15943   */\n      tag_162\n      jump\t// in\n    tag_338:\n        /* \"#utility.yul\":15892:15943   */\n      swap6\n      pop\n        /* \"#utility.yul\":15976:15980   */\n      dup1\n        /* \"#utility.yul\":15972:15981   */\n      not\n        /* \"#utility.yul\":15965:15970   */\n      dup5\n        /* \"#utility.yul\":15961:15982   */\n      and\n        /* \"#utility.yul\":15952:15982   */\n      swap4\n      pop\n        /* \"#utility.yul\":16025:16029   */\n      dup1\n        /* \"#utility.yul\":16015:16023   */\n      dup7\n        /* \"#utility.yul\":16011:16030   */\n      and\n        /* \"#utility.yul\":16004:16009   */\n      dup5\n        /* \"#utility.yul\":16001:16031   */\n      or\n        /* \"#utility.yul\":15991:16031   */\n      swap3\n      pop\n        /* \"#utility.yul\":15720:16037   */\n      pop\n      pop\n        /* \"#utility.yul\":15644:16037   */\n      swap4\n      swap3\n      pop\n      pop\n      pop\n      jump\t// out\n        /* \"#utility.yul\":16043:16103   */\n    tag_164:\n        /* \"#utility.yul\":16071:16074   */\n      0x00\n        /* \"#utility.yul\":16092:16097   */\n      dup2\n        /* \"#utility.yul\":16085:16097   */\n      swap1\n      pop\n        /* \"#utility.yul\":16043:16103   */\n      swap2\n      swap1\n      pop\n      jump\t// out\n        /* \"#utility.yul\":16109:16251   */\n    tag_165:\n        /* \"#utility.yul\":16159:16168   */\n      0x00\n        /* \"#utility.yul\":16192:16245   */\n      tag_341\n        /* \"#utility.yul\":16210:16244   */\n      tag_342\n        /* \"#utility.yul\":16219:16243   */\n      tag_343\n        /* \"#utility.yul\":16237:16242   */\n      dup5\n        /* \"#utility.yul\":16219:16243   */\n      tag_123\n      jump\t// in\n    tag_343:\n        /* \"#utility.yul\":16210:16244   */\n      tag_164\n      jump\t// in\n    tag_342:\n        /* \"#utility.yul\":16192:16245   */\n      tag_123\n      jump\t// in\n    tag_341:\n        /* \"#utility.yul\":16179:16245   */\n      swap1\n      pop\n        /* \"#utility.yul\":16109:16251   */\n      swap2\n      swap1\n      pop\n      jump\t// out\n        /* \"#utility.yul\":16257:16332   */\n    tag_166:\n        /* \"#utility.yul\":16300:16303   */\n      0x00\n        /* \"#utility.yul\":16321:16326   */\n      dup2\n        /* \"#utility.yul\":16314:16326   */\n      swap1\n      pop\n        /* \"#utility.yul\":16257:16332   */\n      swap2\n      swap1\n      pop\n      jump\t// out\n        /* \"#utility.yul\":16338:16607   */\n    tag_167:\n        /* \"#utility.yul\":16448:16487   */\n      tag_346\n        /* \"#utility.yul\":16479:16486   */\n      dup4\n        /* \"#utility.yul\":16448:16487   */\n      tag_165\n      jump\t// in\n    tag_346:\n        /* \"#utility.yul\":16509:16600   */\n      tag_347\n        /* \"#utility.yul\":16558:16599   */\n      tag_348\n        /* \"#utility.yul\":16582:16598   */\n      dup3\n        /* \"#utility.yul\":16558:16599   */\n      tag_166\n      jump\t// in\n    tag_348:\n        /* \"#utility.yul\":16550:16556   */\n      dup5\n        /* \"#utility.yul\":16543:16547   */\n      dup5\n        /* \"#utility.yul\":16537:16548   */\n      sload\n        /* \"#utility.yul\":16509:16600   */\n      tag_163\n      jump\t// in\n    tag_347:\n        /* \"#utility.yul\":16503:16507   */\n      dup3\n        /* \"#utility.yul\":16496:16601   */\n      sstore\n        /* \"#utility.yul\":16414:16607   */\n      pop\n        /* \"#utility.yul\":16338:16607   */\n      pop\n      pop\n      pop\n      jump\t// out\n        /* \"#utility.yul\":16613:16686   */\n    tag_168:\n        /* \"#utility.yul\":16658:16661   */\n      0x00\n        /* \"#utility.yul\":16613:16686   */\n      swap1\n      jump\t// out\n        /* \"#utility.yul\":16692:16881   */\n    tag_169:\n        /* \"#utility.yul\":16769:16801   */\n      tag_351\n      tag_168\n      jump\t// in\n    tag_351:\n        /* \"#utility.yul\":16810:16875   */\n      tag_352\n        /* \"#utility.yul\":16868:16874   */\n      dup2\n        /* \"#utility.yul\":16860:16866   */\n      dup5\n        /* \"#utility.yul\":16854:16858   */\n      dup5\n        /* \"#utility.yul\":16810:16875   */\n      tag_167\n      jump\t// in\n    tag_352:\n        /* \"#utility.yul\":16745:16881   */\n      pop\n        /* \"#utility.yul\":16692:16881   */\n      pop\n      pop\n      jump\t// out\n        /* \"#utility.yul\":16887:17073   */\n    tag_170:\n        /* \"#utility.yul\":16947:17067   */\n    tag_354:\n        /* \"#utility.yul\":16964:16967   */\n      dup2\n        /* \"#utility.yul\":16957:16962   */\n      dup2\n        /* \"#utility.yul\":16954:16968   */\n      lt\n        /* \"#utility.yul\":16947:17067   */\n      iszero\n      tag_356\n      jumpi\n        /* \"#utility.yul\":17018:17057   */\n      tag_357\n        /* \"#utility.yul\":17055:17056   */\n      0x00\n        /* \"#utility.yul\":17048:17053   */\n      dup3\n        /* \"#utility.yul\":17018:17057   */\n      tag_169\n      jump\t// in\n    tag_357:\n        /* \"#utility.yul\":16991:16992   */\n      0x01\n        /* \"#utility.yul\":16984:16989   */\n      dup2\n        /* \"#utility.yul\":16980:16993   */\n      add\n        /* \"#utility.yul\":16971:16993   */\n      swap1\n      pop\n        /* \"#utility.yul\":16947:17067   */\n      jump(tag_354)\n    tag_356:\n        /* \"#utility.yul\":16887:17073   */\n      pop\n      pop\n      jump\t// out\n        /* \"#utility.yul\":17079:17622   */\n    tag_171:\n        /* \"#utility.yul\":17180:17182   */\n      0x1f\n        /* \"#utility.yul\":17175:17178   */\n      dup3\n        /* \"#utility.yul\":17172:17183   */\n      gt\n        /* \"#utility.yul\":17169:17615   */\n      iszero\n      tag_359\n      jumpi\n        /* \"#utility.yul\":17214:17252   */\n      tag_360\n        /* \"#utility.yul\":17246:17251   */\n      dup2\n        /* \"#utility.yul\":17214:17252   */\n      tag_156\n      jump\t// in\n    tag_360:\n        /* \"#utility.yul\":17298:17327   */\n      tag_361\n        /* \"#utility.yul\":17316:17326   */\n      dup5\n        /* \"#utility.yul\":17298:17327   */\n      tag_161\n      jump\t// in\n    tag_361:\n        /* \"#utility.yul\":17288:17296   */\n      dup2\n        /* \"#utility.yul\":17284:17328   */\n      add\n        /* \"#utility.yul\":17481:17483   */\n      0x20\n        /* \"#utility.yul\":17469:17479   */\n      dup6\n        /* \"#utility.yul\":17466:17484   */\n      lt\n        /* \"#utility.yul\":17463:17512   */\n      iszero\n      tag_362\n      jumpi\n        /* \"#utility.yul\":17502:17510   */\n      dup2\n        /* \"#utility.yul\":17487:17510   */\n      swap1\n      pop\n        /* \"#utility.yul\":17463:17512   */\n    tag_362:\n        /* \"#utility.yul\":17525:17605   */\n      tag_363\n        /* \"#utility.yul\":17581:17603   */\n      tag_364\n        /* \"#utility.yul\":17599:17602   */\n      dup6\n        /* \"#utility.yul\":17581:17603   */\n      tag_161\n      jump\t// in\n    tag_364:\n        /* \"#utility.yul\":17571:17579   */\n      dup4\n        /* \"#utility.yul\":17567:17604   */\n      add\n        /* \"#utility.yul\":17554:17565   */\n      dup3\n        /* \"#utility.yul\":17525:17605   */\n      tag_170\n      jump\t// in\n    tag_363:\n        /* \"#utility.yul\":17184:17615   */\n      pop\n      pop\n        /* \"#utility.yul\":17169:17615   */\n    tag_359:\n        /* \"#utility.yul\":17079:17622   */\n      pop\n      pop\n      pop\n      jump\t// out\n        /* \"#utility.yul\":17628:17745   */\n    tag_172:\n        /* \"#utility.yul\":17682:17690   */\n      0x00\n        /* \"#utility.yul\":17732:17737   */\n      dup3\n        /* \"#utility.yul\":17726:17730   */\n      dup3\n        /* \"#utility.yul\":17722:17738   */\n      shr\n        /* \"#utility.yul\":17701:17738   */\n      swap1\n      pop\n        /* \"#utility.yul\":17628:17745   */\n      swap3\n      swap2\n      pop\n      pop\n      jump\t// out\n        /* \"#utility.yul\":17751:17920   */\n    tag_173:\n        /* \"#utility.yul\":17795:17801   */\n      0x00\n        /* \"#utility.yul\":17828:17879   */\n      tag_367\n        /* \"#utility.yul\":17876:17877   */\n      0x00\n        /* \"#utility.yul\":17872:17878   */\n      not\n        /* \"#utility.yul\":17864:17869   */\n      dup5\n        /* \"#utility.yul\":17861:17862   */\n      0x08\n        /* \"#utility.yul\":17857:17870   */\n      mul\n        /* \"#utility.yul\":17828:17879   */\n      tag_172\n      jump\t// in\n    tag_367:\n        /* \"#utility.yul\":17824:17880   */\n      not\n        /* \"#utility.yul\":17909:17913   */\n      dup1\n        /* \"#utility.yul\":17903:17907   */\n      dup4\n        /* \"#utility.yul\":17899:17914   */\n      and\n        /* \"#utility.yul\":17889:17914   */\n      swap2\n      pop\n        /* \"#utility.yul\":17802:17920   */\n      pop\n        /* \"#utility.yul\":17751:17920   */\n      swap3\n      swap2\n      pop\n      pop\n      jump\t// out\n        /* \"#utility.yul\":17925:18220   */\n    tag_174:\n        /* \"#utility.yul\":18001:18005   */\n      0x00\n        /* \"#utility.yul\":18147:18176   */\n      tag_369\n        /* \"#utility.yul\":18172:18175   */\n      dup4\n        /* \"#utility.yul\":18166:18170   */\n      dup4\n        /* \"#utility.yul\":18147:18176   */\n      tag_173\n      jump\t// in\n    tag_369:\n        /* \"#utility.yul\":18139:18176   */\n      swap2\n      pop\n        /* \"#utility.yul\":18209:18212   */\n      dup3\n        /* \"#utility.yul\":18206:18207   */\n      0x02\n        /* \"#utility.yul\":18202:18213   */\n      mul\n        /* \"#utility.yul\":18196:18200   */\n      dup3\n        /* \"#utility.yul\":18193:18214   */\n      or\n        /* \"#utility.yul\":18185:18214   */\n      swap1\n      pop\n        /* \"#utility.yul\":17925:18220   */\n      swap3\n      swap2\n      pop\n      pop\n      jump\t// out\n        /* \"#utility.yul\":18225:19620   */\n    tag_101:\n        /* \"#utility.yul\":18342:18379   */\n      tag_371\n        /* \"#utility.yul\":18375:18378   */\n      dup3\n        /* \"#utility.yul\":18342:18379   */\n      tag_145\n      jump\t// in\n    tag_371:\n        /* \"#utility.yul\":18444:18462   */\n      0xffffffffffffffff\n        /* \"#utility.yul\":18436:18442   */\n      dup2\n        /* \"#utility.yul\":18433:18463   */\n      gt\n        /* \"#utility.yul\":18430:18486   */\n      iszero\n      tag_372\n      jumpi\n        /* \"#utility.yul\":18466:18484   */\n      tag_373\n      tag_136\n      jump\t// in\n    tag_373:\n        /* \"#utility.yul\":18430:18486   */\n    tag_372:\n        /* \"#utility.yul\":18510:18548   */\n      tag_374\n        /* \"#utility.yul\":18542:18546   */\n      dup3\n        /* \"#utility.yul\":18536:18547   */\n      sload\n        /* \"#utility.yul\":18510:18548   */\n      tag_107\n      jump\t// in\n    tag_374:\n        /* \"#utility.yul\":18595:18662   */\n      tag_375\n        /* \"#utility.yul\":18655:18661   */\n      dup3\n        /* \"#utility.yul\":18647:18653   */\n      dup3\n        /* \"#utility.yul\":18641:18645   */\n      dup6\n        /* \"#utility.yul\":18595:18662   */\n      tag_171\n      jump\t// in\n    tag_375:\n        /* \"#utility.yul\":18689:18690   */\n      0x00\n        /* \"#utility.yul\":18713:18717   */\n      0x20\n        /* \"#utility.yul\":18700:18717   */\n      swap1\n      pop\n        /* \"#utility.yul\":18745:18747   */\n      0x1f\n        /* \"#utility.yul\":18737:18743   */\n      dup4\n        /* \"#utility.yul\":18734:18748   */\n      gt\n        /* \"#utility.yul\":18762:18763   */\n      0x01\n        /* \"#utility.yul\":18757:19375   */\n      dup2\n      eq\n      tag_377\n      jumpi\n        /* \"#utility.yul\":19419:19420   */\n      0x00\n        /* \"#utility.yul\":19436:19442   */\n      dup5\n        /* \"#utility.yul\":19433:19510   */\n      iszero\n      tag_378\n      jumpi\n        /* \"#utility.yul\":19485:19494   */\n      dup3\n        /* \"#utility.yul\":19480:19483   */\n      dup8\n        /* \"#utility.yul\":19476:19495   */\n      add\n        /* \"#utility.yul\":19470:19496   */\n      mload\n        /* \"#utility.yul\":19461:19496   */\n      swap1\n      pop\n        /* \"#utility.yul\":19433:19510   */\n    tag_378:\n        /* \"#utility.yul\":19536:19603   */\n      tag_379\n        /* \"#utility.yul\":19596:19602   */\n      dup6\n        /* \"#utility.yul\":19589:19594   */\n      dup3\n        /* \"#utility.yul\":19536:19603   */\n      tag_174\n      jump\t// in\n    tag_379:\n        /* \"#utility.yul\":19530:19534   */\n      dup7\n        /* \"#utility.yul\":19523:19604   */\n      sstore\n        /* \"#utility.yul\":19392:19614   */\n      pop\n        /* \"#utility.yul\":18727:19614   */\n      jump(tag_376)\n        /* \"#utility.yul\":18757:19375   */\n    tag_377:\n        /* \"#utility.yul\":18809:18813   */\n      0x1f\n        /* \"#utility.yul\":18805:18814   */\n      not\n        /* \"#utility.yul\":18797:18803   */\n      dup5\n        /* \"#utility.yul\":18793:18815   */\n      and\n        /* \"#utility.yul\":18843:18880   */\n      tag_380\n        /* \"#utility.yul\":18875:18879   */\n      dup7\n        /* \"#utility.yul\":18843:18880   */\n      tag_156\n      jump\t// in\n    tag_380:\n        /* \"#utility.yul\":18902:18903   */\n      0x00\n        /* \"#utility.yul\":18916:19124   */\n    tag_381:\n        /* \"#utility.yul\":18930:18937   */\n      dup3\n        /* \"#utility.yul\":18927:18928   */\n      dup2\n        /* \"#utility.yul\":18924:18938   */\n      lt\n        /* \"#utility.yul\":18916:19124   */\n      iszero\n      tag_383\n      jumpi\n        /* \"#utility.yul\":19009:19018   */\n      dup5\n        /* \"#utility.yul\":19004:19007   */\n      dup10\n        /* \"#utility.yul\":19000:19019   */\n      add\n        /* \"#utility.yul\":18994:19020   */\n      mload\n        /* \"#utility.yul\":18986:18992   */\n      dup3\n        /* \"#utility.yul\":18979:19021   */\n      sstore\n        /* \"#utility.yul\":19060:19061   */\n      0x01\n        /* \"#utility.yul\":19052:19058   */\n      dup3\n        /* \"#utility.yul\":19048:19062   */\n      add\n        /* \"#utility.yul\":19038:19062   */\n      swap2\n      pop\n        /* \"#utility.yul\":19107:19109   */\n      0x20\n        /* \"#utility.yul\":19096:19105   */\n      dup6\n        /* \"#utility.yul\":19092:19110   */\n      add\n        /* \"#utility.yul\":19079:19110   */\n      swap5\n      pop\n        /* \"#utility.yul\":18953:18957   */\n      0x20\n        /* \"#utility.yul\":18950:18951   */\n      dup2\n        /* \"#utility.yul\":18946:18958   */\n      add\n        /* \"#utility.yul\":18941:18958   */\n      swap1\n      pop\n        /* \"#utility.yul\":18916:19124   */\n      jump(tag_381)\n    tag_383:\n        /* \"#utility.yul\":19152:19158   */\n      dup7\n        /* \"#utility.yul\":19143:19150   */\n      dup4\n        /* \"#utility.yul\":19140:19159   */\n      lt\n        /* \"#utility.yul\":19137:19316   */\n      iszero\n      tag_384\n      jumpi\n        /* \"#utility.yul\":19210:19219   */\n      dup5\n        /* \"#utility.yul\":19205:19208   */\n      dup10\n        /* \"#utility.yul\":19201:19220   */\n      add\n        /* \"#utility.yul\":19195:19221   */\n      mload\n        /* \"#utility.yul\":19253:19301   */\n      tag_385\n        /* \"#utility.yul\":19295:19299   */\n      0x1f\n        /* \"#utility.yul\":19287:19293   */\n      dup10\n        /* \"#utility.yul\":19283:19300   */\n      and\n        /* \"#utility.yul\":19272:19281   */\n      dup3\n        /* \"#utility.yul\":19253:19301   */\n      tag_173\n      jump\t// in\n    tag_385:\n        /* \"#utility.yul\":19245:19251   */\n      dup4\n        /* \"#utility.yul\":19238:19302   */\n      sstore\n        /* \"#utility.yul\":19160:19316   */\n      pop\n        /* \"#utility.yul\":19137:19316   */\n    tag_384:\n        /* \"#utility.yul\":19362:19363   */\n      0x01\n        /* \"#utility.yul\":19358:19359   */\n      0x02\n        /* \"#utility.yul\":19350:19356   */\n      dup9\n        /* \"#utility.yul\":19346:19360   */\n      mul\n        /* \"#utility.yul\":19342:19364   */\n      add\n        /* \"#utility.yul\":19336:19340   */\n      dup9\n        /* \"#utility.yul\":19329:19365   */\n      sstore\n        /* \"#utility.yul\":18764:19375   */\n      pop\n      pop\n      pop\n        /* \"#utility.yul\":18727:19614   */\n    tag_376:\n      pop\n        /* \"#utility.yul\":18317:19620   */\n      pop\n      pop\n      pop\n        /* \"#utility.yul\":18225:19620   */\n      pop\n      pop\n      jump\t// out\n\n    auxdata: 0xa26469706673582212202485a248941e5a53631783a40f37723206405d97e2e824b4899eb97b8b5ea07764736f6c63430008170033\n}\n",
				"bytecode": {
					"linkReferences": {},
					"object": "60806040525f60025560016005555f6006553480156200001d575f80fd5b5060405162001b7e38038062001b7e83398181016040528101906200004391906200030d565b3360015f6101000a81548173ffffffffffffffffffffffffffffffffffffffff021916908373ffffffffffffffffffffffffffffffffffffffff16021790555081600390816200009491906200059f565b5080600481905550620000ac620000ba60201b60201c565b600281905550505062000891565b5f8043426004546003604051602001620000d5919062000720565b604051602081830303815290604052805190602001205f1c620000f991906200076f565b6200010591906200076f565b6200011191906200076f565b9050600160028083620001259190620007d6565b6200013191906200080d565b826200013e919062000857565b6200014a91906200076f565b91505090565b5f604051905090565b5f80fd5b5f80fd5b5f80fd5b5f80fd5b5f601f19601f8301169050919050565b7f4e487b71000000000000000000000000000000000000000000000000000000005f52604160045260245ffd5b620001b18262000169565b810181811067ffffffffffffffff82111715620001d357620001d262000179565b5b80604052505050565b5f620001e762000150565b9050620001f58282620001a6565b919050565b5f67ffffffffffffffff82111562000217576200021662000179565b5b620002228262000169565b9050602081019050919050565b5f5b838110156200024e57808201518184015260208101905062000231565b5f8484015250505050565b5f6200026f6200026984620001fa565b620001dc565b9050828152602081018484840111156200028e576200028d62000165565b5b6200029b8482856200022f565b509392505050565b5f82601f830112620002ba57620002b962000161565b5b8151620002cc84826020860162000259565b91505092915050565b5f819050919050565b620002e981620002d5565b8114620002f4575f80fd5b50565b5f815190506200030781620002de565b92915050565b5f806040838503121562000326576200032562000159565b5b5f83015167ffffffffffffffff8111156200034657620003456200015d565b5b6200035485828601620002a3565b92505060206200036785828601620002f7565b9150509250929050565b5f81519050919050565b7f4e487b71000000000000000000000000000000000000000000000000000000005f52602260045260245ffd5b5f6002820490506001821680620003c057607f821691505b602082108103620003d657620003d56200037b565b5b50919050565b5f819050815f5260205f209050919050565b5f6020601f8301049050919050565b5f82821b905092915050565b5f600883026200043a7fffffffffffffffffffffffffffffffffffffffffffffffffffffffffffffffff82620003fd565b620004468683620003fd565b95508019841693508086168417925050509392505050565b5f819050919050565b5f62000487620004816200047b84620002d5565b6200045e565b620002d5565b9050919050565b5f819050919050565b620004a28362000467565b620004ba620004b1826200048e565b84845462000409565b825550505050565b5f90565b620004d0620004c2565b620004dd81848462000497565b505050565b5b818110156200050457620004f85f82620004c6565b600181019050620004e3565b5050565b601f82111562000553576200051d81620003dc565b6200052884620003ee565b8101602085101562000538578190505b620005506200054785620003ee565b830182620004e2565b50505b505050565b5f82821c905092915050565b5f620005755f198460080262000558565b1980831691505092915050565b5f6200058f838362000564565b9150826002028217905092915050565b620005aa8262000371565b67ffffffffffffffff811115620005c657620005c562000179565b5b620005d28254620003a8565b620005df82828562000508565b5f60209050601f83116001811462000615575f841562000600578287015190505b6200060c858262000582565b8655506200067b565b601f1984166200062586620003dc565b5f5b828110156200064e5784890151825560018201915060208501945060208101905062000627565b868310156200066e57848901516200066a601f89168262000564565b8355505b6001600288020188555050505b505050505050565b5f82825260208201905092915050565b5f8154620006a181620003a8565b620006ad818662000683565b9450600182165f8114620006ca5760018114620006e15762000717565b60ff19831686528115156020028601935062000717565b620006ec85620003dc565b5f5b838110156200070f57815481890152600182019150602081019050620006ee565b808801955050505b50505092915050565b5f6020820190508181035f8301526200073a818462000693565b905092915050565b7f4e487b71000000000000000000000000000000000000000000000000000000005f52601160045260245ffd5b5f6200077b82620002d5565b91506200078883620002d5565b9250828201905080821115620007a357620007a262000742565b5b92915050565b7f4e487b71000000000000000000000000000000000000000000000000000000005f52601260045260245ffd5b5f620007e282620002d5565b9150620007ef83620002d5565b925082620008025762000801620007a9565b5b828204905092915050565b5f6200081982620002d5565b91506200082683620002d5565b92508282026200083681620002d5565b9150828204841483151762000850576200084f62000742565b5b5092915050565b5f6200086382620002d5565b91506200087083620002d5565b92508282039050818111156200088b576200088a62000742565b5b92915050565b6112df806200089f5f395ff3fe608060405260043610610089575f3560e01c806379ed40bc1161005857806379ed40bc146104095780638da5cb5b146104345780639f8743f71461045e578063a86d2e1914610488578063cf66b989146104b25761035f565b80630df516d81461036357806312065fe01461038d578063146ca531146103b75780635ef5cc89146103e15761035f565b3661035f57662386f26fc1000034146100d7576040517f08c379a00000000000000000000000000000000000000000000000000000000081526004016100ce906108a3565b60405180910390fd5b5f15155f8060055481526020019081526020015f205f3373ffffffffffffffffffffffffffffffffffffffff1673ffffffffffffffffffffffffffffffffffffffff1681526020019081526020015f205f9054906101000a900460ff16151514610176576040517f08c379a000000000000000000000000000000000000000000000000000000000815260040161016d9061090b565b60405180910390fd5b600115155f8060055481526020019081526020015f205f3373ffffffffffffffffffffffffffffffffffffffff1673ffffffffffffffffffffffffffffffffffffffff1681526020019081526020015f205f9054906101000a9050505060065f81546101e19061095f565b919050819055506002546006540361030e575f3373ffffffffffffffffffffffffffffffffffffffff1647604051610218906109d3565b5f6040518083038185875af1925050503d805f8114610252576040519150601f19603f3d011682016040523d82523d5f602084013e610257565b606091505b505090508061029b576040517f08c379a000000000000000000000000000000000000000000000000000000000815260040161029290610a31565b60405180910390fd5b5f60068190555060055f81546102b09061095f565b919050819055506102bf6104ee565b6002819055503373ffffffffffffffffffffffffffffffffffffffff167fd7b5435fa0dd93954c7955210a67950d9385f8cd60631432712709e265ec99ca60405160405180910390a25061035d565b3373ffffffffffffffffffffffffffffffffffffffff167f20384c35af44ae3e0536c765e1cee107339d7ca70b092472c816a3a62e4ba659346040516103549190610a5e565b60405180910390a25b005b5f80fd5b34801561036e575f80fd5b50610377610574565b6040516103849190610a5e565b60405180910390f35b348015610398575f80fd5b506103a161057a565b6040516103ae9190610a5e565b60405180910390f35b3480156103c2575f80fd5b506103cb610581565b6040516103d89190610a5e565b60405180910390f35b3480156103ec575f80fd5b5061040760048036038101906104029190610bee565b610587565b005b348015610414575f80fd5b5061041d610631565b60405161042b929190610cb2565b60405180910390f35b34801561043f575f80fd5b5061044861075a565b6040516104559190610d1f565b60405180910390f35b348015610469575f80fd5b5061047261077f565b60405161047f9190610a5e565b60405180910390f35b348015610493575f80fd5b5061049c610788565b6040516104a99190610a5e565b60405180910390f35b3480156104bd575f80fd5b506104d860048036038101906104d39190610d62565b610820565b6040516104e59190610dba565b60405180910390f35b5f80434260045460036040516020016105079190610ec3565b604051602081830303815290604052805190602001205f1c6105299190610ee3565b6105339190610ee3565b61053d9190610ee3565b905060016002808361054f9190610f43565b6105599190610f73565b826105649190610fb4565b61056e9190610ee3565b91505090565b60065481565b5f47905090565b60055481565b60015f9054906101000a900473ffffffffffffffffffffffffffffffffffffffff1673ffffffffffffffffffffffffffffffffffffffff163373ffffffffffffffffffffffffffffffffffffffff1614610616576040517f08c379a000000000000000000000000000000000000000000000000000000000815260040161060d90611031565b60405180910390fd5b816003908161062591906111da565b50806004819055505050565b60605f60015f9054906101000a900473ffffffffffffffffffffffffffffffffffffffff1673ffffffffffffffffffffffffffffffffffffffff163373ffffffffffffffffffffffffffffffffffffffff16146106c3576040517f08c379a00000000000000000000000000000000000000000000000000000000081526004016106ba90611031565b60405180910390fd5b60036004548180546106d490610e00565b80601f016020809104026020016040519081016040528092919081815260200182805461070090610e00565b801561074b5780601f106107225761010080835404028352916020019161074b565b820191905f5260205f20905b81548152906001019060200180831161072e57829003601f168201915b50505050509150915091509091565b60015f9054906101000a900473ffffffffffffffffffffffffffffffffffffffff1681565b5f600554905090565b5f60015f9054906101000a900473ffffffffffffffffffffffffffffffffffffffff1673ffffffffffffffffffffffffffffffffffffffff163373ffffffffffffffffffffffffffffffffffffffff1614610818576040517f08c379a000000000000000000000000000000000000000000000000000000000815260040161080f90611031565b60405180910390fd5b600254905090565b5f602052815f5260405f20602052805f5260405f205f915091509054906101000a900460ff1681565b5f82825260208201905092915050565b7f4d75737420626520302e30312065746865722e000000000000000000000000005f82015250565b5f61088d601383610849565b915061089882610859565b602082019050919050565b5f6020820190508181035f8301526108ba81610881565b9050919050565b7f4d757374206265207468652066697273742074696d652e0000000000000000005f82015250565b5f6108f5601783610849565b9150610900826108c1565b602082019050919050565b5f6020820190508181035f830152610922816108e9565b9050919050565b7f4e487b71000000000000000000000000000000000000000000000000000000005f52601160045260245ffd5b5f819050919050565b5f61096982610956565b91507fffffffffffffffffffffffffffffffffffffffffffffffffffffffffffffffff820361099b5761099a610929565b5b600182019050919050565b5f81905092915050565b50565b5f6109be5f836109a6565b91506109c9826109b0565b5f82019050919050565b5f6109dd826109b3565b9150819050919050565b7f4661696c656400000000000000000000000000000000000000000000000000005f82015250565b5f610a1b600683610849565b9150610a26826109e7565b602082019050919050565b5f6020820190508181035f830152610a4881610a0f565b9050919050565b610a5881610956565b82525050565b5f602082019050610a715f830184610a4f565b92915050565b5f604051905090565b5f80fd5b5f80fd5b5f80fd5b5f80fd5b5f601f19601f8301169050919050565b7f4e487b71000000000000000000000000000000000000000000000000000000005f52604160045260245ffd5b610ad682610a90565b810181811067ffffffffffffffff82111715610af557610af4610aa0565b5b80604052505050565b5f610b07610a77565b9050610b138282610acd565b919050565b5f67ffffffffffffffff821115610b3257610b31610aa0565b5b610b3b82610a90565b9050602081019050919050565b828183375f83830152505050565b5f610b68610b6384610b18565b610afe565b905082815260208101848484011115610b8457610b83610a8c565b5b610b8f848285610b48565b509392505050565b5f82601f830112610bab57610baa610a88565b5b8135610bbb848260208601610b56565b91505092915050565b610bcd81610956565b8114610bd7575f80fd5b50565b5f81359050610be881610bc4565b92915050565b5f8060408385031215610c0457610c03610a80565b5b5f83013567ffffffffffffffff811115610c2157610c20610a84565b5b610c2d85828601610b97565b9250506020610c3e85828601610bda565b9150509250929050565b5f81519050919050565b5f5b83811015610c6f578082015181840152602081019050610c54565b5f8484015250505050565b5f610c8482610c48565b610c8e8185610849565b9350610c9e818560208601610c52565b610ca781610a90565b840191505092915050565b5f6040820190508181035f830152610cca8185610c7a565b9050610cd96020830184610a4f565b9392505050565b5f73ffffffffffffffffffffffffffffffffffffffff82169050919050565b5f610d0982610ce0565b9050919050565b610d1981610cff565b82525050565b5f602082019050610d325f830184610d10565b92915050565b610d4181610cff565b8114610d4b575f80fd5b50565b5f81359050610d5c81610d38565b92915050565b5f8060408385031215610d7857610d77610a80565b5b5f610d8585828601610bda565b9250506020610d9685828601610d4e565b9150509250929050565b5f8115159050919050565b610db481610da0565b82525050565b5f602082019050610dcd5f830184610dab565b92915050565b7f4e487b71000000000000000000000000000000000000000000000000000000005f52602260045260245ffd5b5f6002820490506001821680610e1757607f821691505b602082108103610e2a57610e29610dd3565b5b50919050565b5f819050815f5260205f209050919050565b5f8154610e4e81610e00565b610e588186610849565b9450600182165f8114610e725760018114610e8857610eba565b60ff198316865281151560200286019350610eba565b610e9185610e30565b5f5b83811015610eb257815481890152600182019150602081019050610e93565b808801955050505b50505092915050565b5f6020820190508181035f830152610edb8184610e42565b905092915050565b5f610eed82610956565b9150610ef883610956565b9250828201905080821115610f1057610f0f610929565b5b92915050565b7f4e487b71000000000000000000000000000000000000000000000000000000005f52601260045260245ffd5b5f610f4d82610956565b9150610f5883610956565b925082610f6857610f67610f16565b5b828204905092915050565b5f610f7d82610956565b9150610f8883610956565b9250828202610f9681610956565b91508282048414831517610fad57610fac610929565b5b5092915050565b5f610fbe82610956565b9150610fc983610956565b9250828203905081811115610fe157610fe0610929565b5b92915050565b7f4f776e61626c653a2063616c6c6572206973206e6f7420746865206f776e65725f82015250565b5f61101b602083610849565b915061102682610fe7565b602082019050919050565b5f6020820190508181035f8301526110488161100f565b9050919050565b5f6020601f8301049050919050565b5f82821b905092915050565b5f600883026110997fffffffffffffffffffffffffffffffffffffffffffffffffffffffffffffffff8261105e565b6110a3868361105e565b95508019841693508086168417925050509392505050565b5f819050919050565b5f6110de6110d96110d484610956565b6110bb565b610956565b9050919050565b5f819050919050565b6110f7836110c4565b61110b611103826110e5565b84845461106a565b825550505050565b5f90565b61111f611113565b61112a8184846110ee565b505050565b5b8181101561114d576111425f82611117565b600181019050611130565b5050565b601f8211156111925761116381610e30565b61116c8461104f565b8101602085101561117b578190505b61118f6111878561104f565b83018261112f565b50505b505050565b5f82821c905092915050565b5f6111b25f1984600802611197565b1980831691505092915050565b5f6111ca83836111a3565b9150826002028217905092915050565b6111e382610c48565b67ffffffffffffffff8111156111fc576111fb610aa0565b5b6112068254610e00565b611211828285611151565b5f60209050601f831160018114611242575f8415611230578287015190505b61123a85826111bf565b8655506112a1565b601f19841661125086610e30565b5f5b8281101561127757848901518255600182019150602085019450602081019050611252565b868310156112945784890151611290601f8916826111a3565b8355505b6001600288020188555050505b50505050505056fea26469706673582212202485a248941e5a53631783a40f37723206405d97e2e824b4899eb97b8b5ea07764736f6c63430008170033",
					"opcodes": "PUSH1 0x80 PUSH1 0x40 MSTORE PUSH0 PUSH1 0x2 SSTORE PUSH1 0x1 PUSH1 0x5 SSTORE PUSH0 PUSH1 0x6 SSTORE CALLVALUE DUP1 ISZERO PUSH3 0x1D JUMPI PUSH0 DUP1 REVERT JUMPDEST POP PUSH1 0x40 MLOAD PUSH3 0x1B7E CODESIZE SUB DUP1 PUSH3 0x1B7E DUP4 CODECOPY DUP2 DUP2 ADD PUSH1 0x40 MSTORE DUP2 ADD SWAP1 PUSH3 0x43 SWAP2 SWAP1 PUSH3 0x30D JUMP JUMPDEST CALLER PUSH1 0x1 PUSH0 PUSH2 0x100 EXP DUP2 SLOAD DUP2 PUSH20 0xFFFFFFFFFFFFFFFFFFFFFFFFFFFFFFFFFFFFFFFF MUL NOT AND SWAP1 DUP4 PUSH20 0xFFFFFFFFFFFFFFFFFFFFFFFFFFFFFFFFFFFFFFFF AND MUL OR SWAP1 SSTORE POP DUP2 PUSH1 0x3 SWAP1 DUP2 PUSH3 0x94 SWAP2 SWAP1 PUSH3 0x59F JUMP JUMPDEST POP DUP1 PUSH1 0x4 DUP2 SWAP1 SSTORE POP PUSH3 0xAC PUSH3 0xBA PUSH1 0x20 SHL PUSH1 0x20 SHR JUMP JUMPDEST PUSH1 0x2 DUP2 SWAP1 SSTORE POP POP POP PUSH3 0x891 JUMP JUMPDEST PUSH0 DUP1 NUMBER TIMESTAMP PUSH1 0x4 SLOAD PUSH1 0x3 PUSH1 0x40 MLOAD PUSH1 0x20 ADD PUSH3 0xD5 SWAP2 SWAP1 PUSH3 0x720 JUMP JUMPDEST PUSH1 0x40 MLOAD PUSH1 0x20 DUP2 DUP4 SUB SUB DUP2 MSTORE SWAP1 PUSH1 0x40 MSTORE DUP1 MLOAD SWAP1 PUSH1 0x20 ADD KECCAK256 PUSH0 SHR PUSH3 0xF9 SWAP2 SWAP1 PUSH3 0x76F JUMP JUMPDEST PUSH3 0x105 SWAP2 SWAP1 PUSH3 0x76F JUMP JUMPDEST PUSH3 0x111 SWAP2 SWAP1 PUSH3 0x76F JUMP JUMPDEST SWAP1 POP PUSH1 0x1 PUSH1 0x2 DUP1 DUP4 PUSH3 0x125 SWAP2 SWAP1 PUSH3 0x7D6 JUMP JUMPDEST PUSH3 0x131 SWAP2 SWAP1 PUSH3 0x80D JUMP JUMPDEST DUP3 PUSH3 0x13E SWAP2 SWAP1 PUSH3 0x857 JUMP JUMPDEST PUSH3 0x14A SWAP2 SWAP1 PUSH3 0x76F JUMP JUMPDEST SWAP2 POP POP SWAP1 JUMP JUMPDEST PUSH0 PUSH1 0x40 MLOAD SWAP1 POP SWAP1 JUMP JUMPDEST PUSH0 DUP1 REVERT JUMPDEST PUSH0 DUP1 REVERT JUMPDEST PUSH0 DUP1 REVERT JUMPDEST PUSH0 DUP1 REVERT JUMPDEST PUSH0 PUSH1 0x1F NOT PUSH1 0x1F DUP4 ADD AND SWAP1 POP SWAP2 SWAP1 POP JUMP JUMPDEST PUSH32 0x4E487B7100000000000000000000000000000000000000000000000000000000 PUSH0 MSTORE PUSH1 0x41 PUSH1 0x4 MSTORE PUSH1 0x24 PUSH0 REVERT JUMPDEST PUSH3 0x1B1 DUP3 PUSH3 0x169 JUMP JUMPDEST DUP2 ADD DUP2 DUP2 LT PUSH8 0xFFFFFFFFFFFFFFFF DUP3 GT OR ISZERO PUSH3 0x1D3 JUMPI PUSH3 0x1D2 PUSH3 0x179 JUMP JUMPDEST JUMPDEST DUP1 PUSH1 0x40 MSTORE POP POP POP JUMP JUMPDEST PUSH0 PUSH3 0x1E7 PUSH3 0x150 JUMP JUMPDEST SWAP1 POP PUSH3 0x1F5 DUP3 DUP3 PUSH3 0x1A6 JUMP JUMPDEST SWAP2 SWAP1 POP JUMP JUMPDEST PUSH0 PUSH8 0xFFFFFFFFFFFFFFFF DUP3 GT ISZERO PUSH3 0x217 JUMPI PUSH3 0x216 PUSH3 0x179 JUMP JUMPDEST JUMPDEST PUSH3 0x222 DUP3 PUSH3 0x169 JUMP JUMPDEST SWAP1 POP PUSH1 0x20 DUP2 ADD SWAP1 POP SWAP2 SWAP1 POP JUMP JUMPDEST PUSH0 JUMPDEST DUP4 DUP2 LT ISZERO PUSH3 0x24E JUMPI DUP1 DUP3 ADD MLOAD DUP2 DUP5 ADD MSTORE PUSH1 0x20 DUP2 ADD SWAP1 POP PUSH3 0x231 JUMP JUMPDEST PUSH0 DUP5 DUP5 ADD MSTORE POP POP POP POP JUMP JUMPDEST PUSH0 PUSH3 0x26F PUSH3 0x269 DUP5 PUSH3 0x1FA JUMP JUMPDEST PUSH3 0x1DC JUMP JUMPDEST SWAP1 POP DUP3 DUP2 MSTORE PUSH1 0x20 DUP2 ADD DUP5 DUP5 DUP5 ADD GT ISZERO PUSH3 0x28E JUMPI PUSH3 0x28D PUSH3 0x165 JUMP JUMPDEST JUMPDEST PUSH3 0x29B DUP5 DUP3 DUP6 PUSH3 0x22F JUMP JUMPDEST POP SWAP4 SWAP3 POP POP POP JUMP JUMPDEST PUSH0 DUP3 PUSH1 0x1F DUP4 ADD SLT PUSH3 0x2BA JUMPI PUSH3 0x2B9 PUSH3 0x161 JUMP JUMPDEST JUMPDEST DUP2 MLOAD PUSH3 0x2CC DUP5 DUP3 PUSH1 0x20 DUP7 ADD PUSH3 0x259 JUMP JUMPDEST SWAP2 POP POP SWAP3 SWAP2 POP POP JUMP JUMPDEST PUSH0 DUP2 SWAP1 POP SWAP2 SWAP1 POP JUMP JUMPDEST PUSH3 0x2E9 DUP2 PUSH3 0x2D5 JUMP JUMPDEST DUP2 EQ PUSH3 0x2F4 JUMPI PUSH0 DUP1 REVERT JUMPDEST POP JUMP JUMPDEST PUSH0 DUP2 MLOAD SWAP1 POP PUSH3 0x307 DUP2 PUSH3 0x2DE JUMP JUMPDEST SWAP3 SWAP2 POP POP JUMP JUMPDEST PUSH0 DUP1 PUSH1 0x40 DUP4 DUP6 SUB SLT ISZERO PUSH3 0x326 JUMPI PUSH3 0x325 PUSH3 0x159 JUMP JUMPDEST JUMPDEST PUSH0 DUP4 ADD MLOAD PUSH8 0xFFFFFFFFFFFFFFFF DUP2 GT ISZERO PUSH3 0x346 JUMPI PUSH3 0x345 PUSH3 0x15D JUMP JUMPDEST JUMPDEST PUSH3 0x354 DUP6 DUP3 DUP7 ADD PUSH3 0x2A3 JUMP JUMPDEST SWAP3 POP POP PUSH1 0x20 PUSH3 0x367 DUP6 DUP3 DUP7 ADD PUSH3 0x2F7 JUMP JUMPDEST SWAP2 POP POP SWAP3 POP SWAP3 SWAP1 POP JUMP JUMPDEST PUSH0 DUP2 MLOAD SWAP1 POP SWAP2 SWAP1 POP JUMP JUMPDEST PUSH32 0x4E487B7100000000000000000000000000000000000000000000000000000000 PUSH0 MSTORE PUSH1 0x22 PUSH1 0x4 MSTORE PUSH1 0x24 PUSH0 REVERT JUMPDEST PUSH0 PUSH1 0x2 DUP3 DIV SWAP1 POP PUSH1 0x1 DUP3 AND DUP1 PUSH3 0x3C0 JUMPI PUSH1 0x7F DUP3 AND SWAP2 POP JUMPDEST PUSH1 0x20 DUP3 LT DUP2 SUB PUSH3 0x3D6 JUMPI PUSH3 0x3D5 PUSH3 0x37B JUMP JUMPDEST JUMPDEST POP SWAP2 SWAP1 POP JUMP JUMPDEST PUSH0 DUP2 SWAP1 POP DUP2 PUSH0 MSTORE PUSH1 0x20 PUSH0 KECCAK256 SWAP1 POP SWAP2 SWAP1 POP JUMP JUMPDEST PUSH0 PUSH1 0x20 PUSH1 0x1F DUP4 ADD DIV SWAP1 POP SWAP2 SWAP1 POP JUMP JUMPDEST PUSH0 DUP3 DUP3 SHL SWAP1 POP SWAP3 SWAP2 POP POP JUMP JUMPDEST PUSH0 PUSH1 0x8 DUP4 MUL PUSH3 0x43A PUSH32 0xFFFFFFFFFFFFFFFFFFFFFFFFFFFFFFFFFFFFFFFFFFFFFFFFFFFFFFFFFFFFFFFF DUP3 PUSH3 0x3FD JUMP JUMPDEST PUSH3 0x446 DUP7 DUP4 PUSH3 0x3FD JUMP JUMPDEST SWAP6 POP DUP1 NOT DUP5 AND SWAP4 POP DUP1 DUP7 AND DUP5 OR SWAP3 POP POP POP SWAP4 SWAP3 POP POP POP JUMP JUMPDEST PUSH0 DUP2 SWAP1 POP SWAP2 SWAP1 POP JUMP JUMPDEST PUSH0 PUSH3 0x487 PUSH3 0x481 PUSH3 0x47B DUP5 PUSH3 0x2D5 JUMP JUMPDEST PUSH3 0x45E JUMP JUMPDEST PUSH3 0x2D5 JUMP JUMPDEST SWAP1 POP SWAP2 SWAP1 POP JUMP JUMPDEST PUSH0 DUP2 SWAP1 POP SWAP2 SWAP1 POP JUMP JUMPDEST PUSH3 0x4A2 DUP4 PUSH3 0x467 JUMP JUMPDEST PUSH3 0x4BA PUSH3 0x4B1 DUP3 PUSH3 0x48E JUMP JUMPDEST DUP5 DUP5 SLOAD PUSH3 0x409 JUMP JUMPDEST DUP3 SSTORE POP POP POP POP JUMP JUMPDEST PUSH0 SWAP1 JUMP JUMPDEST PUSH3 0x4D0 PUSH3 0x4C2 JUMP JUMPDEST PUSH3 0x4DD DUP2 DUP5 DUP5 PUSH3 0x497 JUMP JUMPDEST POP POP POP JUMP JUMPDEST JUMPDEST DUP2 DUP2 LT ISZERO PUSH3 0x504 JUMPI PUSH3 0x4F8 PUSH0 DUP3 PUSH3 0x4C6 JUMP JUMPDEST PUSH1 0x1 DUP2 ADD SWAP1 POP PUSH3 0x4E3 JUMP JUMPDEST POP POP JUMP JUMPDEST PUSH1 0x1F DUP3 GT ISZERO PUSH3 0x553 JUMPI PUSH3 0x51D DUP2 PUSH3 0x3DC JUMP JUMPDEST PUSH3 0x528 DUP5 PUSH3 0x3EE JUMP JUMPDEST DUP2 ADD PUSH1 0x20 DUP6 LT ISZERO PUSH3 0x538 JUMPI DUP2 SWAP1 POP JUMPDEST PUSH3 0x550 PUSH3 0x547 DUP6 PUSH3 0x3EE JUMP JUMPDEST DUP4 ADD DUP3 PUSH3 0x4E2 JUMP JUMPDEST POP POP JUMPDEST POP POP POP JUMP JUMPDEST PUSH0 DUP3 DUP3 SHR SWAP1 POP SWAP3 SWAP2 POP POP JUMP JUMPDEST PUSH0 PUSH3 0x575 PUSH0 NOT DUP5 PUSH1 0x8 MUL PUSH3 0x558 JUMP JUMPDEST NOT DUP1 DUP4 AND SWAP2 POP POP SWAP3 SWAP2 POP POP JUMP JUMPDEST PUSH0 PUSH3 0x58F DUP4 DUP4 PUSH3 0x564 JUMP JUMPDEST SWAP2 POP DUP3 PUSH1 0x2 MUL DUP3 OR SWAP1 POP SWAP3 SWAP2 POP POP JUMP JUMPDEST PUSH3 0x5AA DUP3 PUSH3 0x371 JUMP JUMPDEST PUSH8 0xFFFFFFFFFFFFFFFF DUP2 GT ISZERO PUSH3 0x5C6 JUMPI PUSH3 0x5C5 PUSH3 0x179 JUMP JUMPDEST JUMPDEST PUSH3 0x5D2 DUP3 SLOAD PUSH3 0x3A8 JUMP JUMPDEST PUSH3 0x5DF DUP3 DUP3 DUP6 PUSH3 0x508 JUMP JUMPDEST PUSH0 PUSH1 0x20 SWAP1 POP PUSH1 0x1F DUP4 GT PUSH1 0x1 DUP2 EQ PUSH3 0x615 JUMPI PUSH0 DUP5 ISZERO PUSH3 0x600 JUMPI DUP3 DUP8 ADD MLOAD SWAP1 POP JUMPDEST PUSH3 0x60C DUP6 DUP3 PUSH3 0x582 JUMP JUMPDEST DUP7 SSTORE POP PUSH3 0x67B JUMP JUMPDEST PUSH1 0x1F NOT DUP5 AND PUSH3 0x625 DUP7 PUSH3 0x3DC JUMP JUMPDEST PUSH0 JUMPDEST DUP3 DUP2 LT ISZERO PUSH3 0x64E JUMPI DUP5 DUP10 ADD MLOAD DUP3 SSTORE PUSH1 0x1 DUP3 ADD SWAP2 POP PUSH1 0x20 DUP6 ADD SWAP5 POP PUSH1 0x20 DUP2 ADD SWAP1 POP PUSH3 0x627 JUMP JUMPDEST DUP7 DUP4 LT ISZERO PUSH3 0x66E JUMPI DUP5 DUP10 ADD MLOAD PUSH3 0x66A PUSH1 0x1F DUP10 AND DUP3 PUSH3 0x564 JUMP JUMPDEST DUP4 SSTORE POP JUMPDEST PUSH1 0x1 PUSH1 0x2 DUP9 MUL ADD DUP9 SSTORE POP POP POP JUMPDEST POP POP POP POP POP POP JUMP JUMPDEST PUSH0 DUP3 DUP3 MSTORE PUSH1 0x20 DUP3 ADD SWAP1 POP SWAP3 SWAP2 POP POP JUMP JUMPDEST PUSH0 DUP2 SLOAD PUSH3 0x6A1 DUP2 PUSH3 0x3A8 JUMP JUMPDEST PUSH3 0x6AD DUP2 DUP7 PUSH3 0x683 JUMP JUMPDEST SWAP5 POP PUSH1 0x1 DUP3 AND PUSH0 DUP2 EQ PUSH3 0x6CA JUMPI PUSH1 0x1 DUP2 EQ PUSH3 0x6E1 JUMPI PUSH3 0x717 JUMP JUMPDEST PUSH1 0xFF NOT DUP4 AND DUP7 MSTORE DUP2 ISZERO ISZERO PUSH1 0x20 MUL DUP7 ADD SWAP4 POP PUSH3 0x717 JUMP JUMPDEST PUSH3 0x6EC DUP6 PUSH3 0x3DC JUMP JUMPDEST PUSH0 JUMPDEST DUP4 DUP2 LT ISZERO PUSH3 0x70F JUMPI DUP2 SLOAD DUP2 DUP10 ADD MSTORE PUSH1 0x1 DUP3 ADD SWAP2 POP PUSH1 0x20 DUP2 ADD SWAP1 POP PUSH3 0x6EE JUMP JUMPDEST DUP1 DUP9 ADD SWAP6 POP POP POP JUMPDEST POP POP POP SWAP3 SWAP2 POP POP JUMP JUMPDEST PUSH0 PUSH1 0x20 DUP3 ADD SWAP1 POP DUP2 DUP2 SUB PUSH0 DUP4 ADD MSTORE PUSH3 0x73A DUP2 DUP5 PUSH3 0x693 JUMP JUMPDEST SWAP1 POP SWAP3 SWAP2 POP POP JUMP JUMPDEST PUSH32 0x4E487B7100000000000000000000000000000000000000000000000000000000 PUSH0 MSTORE PUSH1 0x11 PUSH1 0x4 MSTORE PUSH1 0x24 PUSH0 REVERT JUMPDEST PUSH0 PUSH3 0x77B DUP3 PUSH3 0x2D5 JUMP JUMPDEST SWAP2 POP PUSH3 0x788 DUP4 PUSH3 0x2D5 JUMP JUMPDEST SWAP3 POP DUP3 DUP3 ADD SWAP1 POP DUP1 DUP3 GT ISZERO PUSH3 0x7A3 JUMPI PUSH3 0x7A2 PUSH3 0x742 JUMP JUMPDEST JUMPDEST SWAP3 SWAP2 POP POP JUMP JUMPDEST PUSH32 0x4E487B7100000000000000000000000000000000000000000000000000000000 PUSH0 MSTORE PUSH1 0x12 PUSH1 0x4 MSTORE PUSH1 0x24 PUSH0 REVERT JUMPDEST PUSH0 PUSH3 0x7E2 DUP3 PUSH3 0x2D5 JUMP JUMPDEST SWAP2 POP PUSH3 0x7EF DUP4 PUSH3 0x2D5 JUMP JUMPDEST SWAP3 POP DUP3 PUSH3 0x802 JUMPI PUSH3 0x801 PUSH3 0x7A9 JUMP JUMPDEST JUMPDEST DUP3 DUP3 DIV SWAP1 POP SWAP3 SWAP2 POP POP JUMP JUMPDEST PUSH0 PUSH3 0x819 DUP3 PUSH3 0x2D5 JUMP JUMPDEST SWAP2 POP PUSH3 0x826 DUP4 PUSH3 0x2D5 JUMP JUMPDEST SWAP3 POP DUP3 DUP3 MUL PUSH3 0x836 DUP2 PUSH3 0x2D5 JUMP JUMPDEST SWAP2 POP DUP3 DUP3 DIV DUP5 EQ DUP4 ISZERO OR PUSH3 0x850 JUMPI PUSH3 0x84F PUSH3 0x742 JUMP JUMPDEST JUMPDEST POP SWAP3 SWAP2 POP POP JUMP JUMPDEST PUSH0 PUSH3 0x863 DUP3 PUSH3 0x2D5 JUMP JUMPDEST SWAP2 POP PUSH3 0x870 DUP4 PUSH3 0x2D5 JUMP JUMPDEST SWAP3 POP DUP3 DUP3 SUB SWAP1 POP DUP2 DUP2 GT ISZERO PUSH3 0x88B JUMPI PUSH3 0x88A PUSH3 0x742 JUMP JUMPDEST JUMPDEST SWAP3 SWAP2 POP POP JUMP JUMPDEST PUSH2 0x12DF DUP1 PUSH3 0x89F PUSH0 CODECOPY PUSH0 RETURN INVALID PUSH1 0x80 PUSH1 0x40 MSTORE PUSH1 0x4 CALLDATASIZE LT PUSH2 0x89 JUMPI PUSH0 CALLDATALOAD PUSH1 0xE0 SHR DUP1 PUSH4 0x79ED40BC GT PUSH2 0x58 JUMPI DUP1 PUSH4 0x79ED40BC EQ PUSH2 0x409 JUMPI DUP1 PUSH4 0x8DA5CB5B EQ PUSH2 0x434 JUMPI DUP1 PUSH4 0x9F8743F7 EQ PUSH2 0x45E JUMPI DUP1 PUSH4 0xA86D2E19 EQ PUSH2 0x488 JUMPI DUP1 PUSH4 0xCF66B989 EQ PUSH2 0x4B2 JUMPI PUSH2 0x35F JUMP JUMPDEST DUP1 PUSH4 0xDF516D8 EQ PUSH2 0x363 JUMPI DUP1 PUSH4 0x12065FE0 EQ PUSH2 0x38D JUMPI DUP1 PUSH4 0x146CA531 EQ PUSH2 0x3B7 JUMPI DUP1 PUSH4 0x5EF5CC89 EQ PUSH2 0x3E1 JUMPI PUSH2 0x35F JUMP JUMPDEST CALLDATASIZE PUSH2 0x35F JUMPI PUSH7 0x2386F26FC10000 CALLVALUE EQ PUSH2 0xD7 JUMPI PUSH1 0x40 MLOAD PUSH32 0x8C379A000000000000000000000000000000000000000000000000000000000 DUP2 MSTORE PUSH1 0x4 ADD PUSH2 0xCE SWAP1 PUSH2 0x8A3 JUMP JUMPDEST PUSH1 0x40 MLOAD DUP1 SWAP2 SUB SWAP1 REVERT JUMPDEST PUSH0 ISZERO ISZERO PUSH0 DUP1 PUSH1 0x5 SLOAD DUP2 MSTORE PUSH1 0x20 ADD SWAP1 DUP2 MSTORE PUSH1 0x20 ADD PUSH0 KECCAK256 PUSH0 CALLER PUSH20 0xFFFFFFFFFFFFFFFFFFFFFFFFFFFFFFFFFFFFFFFF AND PUSH20 0xFFFFFFFFFFFFFFFFFFFFFFFFFFFFFFFFFFFFFFFF AND DUP2 MSTORE PUSH1 0x20 ADD SWAP1 DUP2 MSTORE PUSH1 0x20 ADD PUSH0 KECCAK256 PUSH0 SWAP1 SLOAD SWAP1 PUSH2 0x100 EXP SWAP1 DIV PUSH1 0xFF AND ISZERO ISZERO EQ PUSH2 0x176 JUMPI PUSH1 0x40 MLOAD PUSH32 0x8C379A000000000000000000000000000000000000000000000000000000000 DUP2 MSTORE PUSH1 0x4 ADD PUSH2 0x16D SWAP1 PUSH2 0x90B JUMP JUMPDEST PUSH1 0x40 MLOAD DUP1 SWAP2 SUB SWAP1 REVERT JUMPDEST PUSH1 0x1 ISZERO ISZERO PUSH0 DUP1 PUSH1 0x5 SLOAD DUP2 MSTORE PUSH1 0x20 ADD SWAP1 DUP2 MSTORE PUSH1 0x20 ADD PUSH0 KECCAK256 PUSH0 CALLER PUSH20 0xFFFFFFFFFFFFFFFFFFFFFFFFFFFFFFFFFFFFFFFF AND PUSH20 0xFFFFFFFFFFFFFFFFFFFFFFFFFFFFFFFFFFFFFFFF AND DUP2 MSTORE PUSH1 0x20 ADD SWAP1 DUP2 MSTORE PUSH1 0x20 ADD PUSH0 KECCAK256 PUSH0 SWAP1 SLOAD SWAP1 PUSH2 0x100 EXP SWAP1 POP POP POP PUSH1 0x6 PUSH0 DUP2 SLOAD PUSH2 0x1E1 SWAP1 PUSH2 0x95F JUMP JUMPDEST SWAP2 SWAP1 POP DUP2 SWAP1 SSTORE POP PUSH1 0x2 SLOAD PUSH1 0x6 SLOAD SUB PUSH2 0x30E JUMPI PUSH0 CALLER PUSH20 0xFFFFFFFFFFFFFFFFFFFFFFFFFFFFFFFFFFFFFFFF AND SELFBALANCE PUSH1 0x40 MLOAD PUSH2 0x218 SWAP1 PUSH2 0x9D3 JUMP JUMPDEST PUSH0 PUSH1 0x40 MLOAD DUP1 DUP4 SUB DUP2 DUP6 DUP8 GAS CALL SWAP3 POP POP POP RETURNDATASIZE DUP1 PUSH0 DUP2 EQ PUSH2 0x252 JUMPI PUSH1 0x40 MLOAD SWAP2 POP PUSH1 0x1F NOT PUSH1 0x3F RETURNDATASIZE ADD AND DUP3 ADD PUSH1 0x40 MSTORE RETURNDATASIZE DUP3 MSTORE RETURNDATASIZE PUSH0 PUSH1 0x20 DUP5 ADD RETURNDATACOPY PUSH2 0x257 JUMP JUMPDEST PUSH1 0x60 SWAP2 POP JUMPDEST POP POP SWAP1 POP DUP1 PUSH2 0x29B JUMPI PUSH1 0x40 MLOAD PUSH32 0x8C379A000000000000000000000000000000000000000000000000000000000 DUP2 MSTORE PUSH1 0x4 ADD PUSH2 0x292 SWAP1 PUSH2 0xA31 JUMP JUMPDEST PUSH1 0x40 MLOAD DUP1 SWAP2 SUB SWAP1 REVERT JUMPDEST PUSH0 PUSH1 0x6 DUP2 SWAP1 SSTORE POP PUSH1 0x5 PUSH0 DUP2 SLOAD PUSH2 0x2B0 SWAP1 PUSH2 0x95F JUMP JUMPDEST SWAP2 SWAP1 POP DUP2 SWAP1 SSTORE POP PUSH2 0x2BF PUSH2 0x4EE JUMP JUMPDEST PUSH1 0x2 DUP2 SWAP1 SSTORE POP CALLER PUSH20 0xFFFFFFFFFFFFFFFFFFFFFFFFFFFFFFFFFFFFFFFF AND PUSH32 0xD7B5435FA0DD93954C7955210A67950D9385F8CD60631432712709E265EC99CA PUSH1 0x40 MLOAD PUSH1 0x40 MLOAD DUP1 SWAP2 SUB SWAP1 LOG2 POP PUSH2 0x35D JUMP JUMPDEST CALLER PUSH20 0xFFFFFFFFFFFFFFFFFFFFFFFFFFFFFFFFFFFFFFFF AND PUSH32 0x20384C35AF44AE3E0536C765E1CEE107339D7CA70B092472C816A3A62E4BA659 CALLVALUE PUSH1 0x40 MLOAD PUSH2 0x354 SWAP2 SWAP1 PUSH2 0xA5E JUMP JUMPDEST PUSH1 0x40 MLOAD DUP1 SWAP2 SUB SWAP1 LOG2 JUMPDEST STOP JUMPDEST PUSH0 DUP1 REVERT JUMPDEST CALLVALUE DUP1 ISZERO PUSH2 0x36E JUMPI PUSH0 DUP1 REVERT JUMPDEST POP PUSH2 0x377 PUSH2 0x574 JUMP JUMPDEST PUSH1 0x40 MLOAD PUSH2 0x384 SWAP2 SWAP1 PUSH2 0xA5E JUMP JUMPDEST PUSH1 0x40 MLOAD DUP1 SWAP2 SUB SWAP1 RETURN JUMPDEST CALLVALUE DUP1 ISZERO PUSH2 0x398 JUMPI PUSH0 DUP1 REVERT JUMPDEST POP PUSH2 0x3A1 PUSH2 0x57A JUMP JUMPDEST PUSH1 0x40 MLOAD PUSH2 0x3AE SWAP2 SWAP1 PUSH2 0xA5E JUMP JUMPDEST PUSH1 0x40 MLOAD DUP1 SWAP2 SUB SWAP1 RETURN JUMPDEST CALLVALUE DUP1 ISZERO PUSH2 0x3C2 JUMPI PUSH0 DUP1 REVERT JUMPDEST POP PUSH2 0x3CB PUSH2 0x581 JUMP JUMPDEST PUSH1 0x40 MLOAD PUSH2 0x3D8 SWAP2 SWAP1 PUSH2 0xA5E JUMP JUMPDEST PUSH1 0x40 MLOAD DUP1 SWAP2 SUB SWAP1 RETURN JUMPDEST CALLVALUE DUP1 ISZERO PUSH2 0x3EC JUMPI PUSH0 DUP1 REVERT JUMPDEST POP PUSH2 0x407 PUSH1 0x4 DUP1 CALLDATASIZE SUB DUP2 ADD SWAP1 PUSH2 0x402 SWAP2 SWAP1 PUSH2 0xBEE JUMP JUMPDEST PUSH2 0x587 JUMP JUMPDEST STOP JUMPDEST CALLVALUE DUP1 ISZERO PUSH2 0x414 JUMPI PUSH0 DUP1 REVERT JUMPDEST POP PUSH2 0x41D PUSH2 0x631 JUMP JUMPDEST PUSH1 0x40 MLOAD PUSH2 0x42B SWAP3 SWAP2 SWAP1 PUSH2 0xCB2 JUMP JUMPDEST PUSH1 0x40 MLOAD DUP1 SWAP2 SUB SWAP1 RETURN JUMPDEST CALLVALUE DUP1 ISZERO PUSH2 0x43F JUMPI PUSH0 DUP1 REVERT JUMPDEST POP PUSH2 0x448 PUSH2 0x75A JUMP JUMPDEST PUSH1 0x40 MLOAD PUSH2 0x455 SWAP2 SWAP1 PUSH2 0xD1F JUMP JUMPDEST PUSH1 0x40 MLOAD DUP1 SWAP2 SUB SWAP1 RETURN JUMPDEST CALLVALUE DUP1 ISZERO PUSH2 0x469 JUMPI PUSH0 DUP1 REVERT JUMPDEST POP PUSH2 0x472 PUSH2 0x77F JUMP JUMPDEST PUSH1 0x40 MLOAD PUSH2 0x47F SWAP2 SWAP1 PUSH2 0xA5E JUMP JUMPDEST PUSH1 0x40 MLOAD DUP1 SWAP2 SUB SWAP1 RETURN JUMPDEST CALLVALUE DUP1 ISZERO PUSH2 0x493 JUMPI PUSH0 DUP1 REVERT JUMPDEST POP PUSH2 0x49C PUSH2 0x788 JUMP JUMPDEST PUSH1 0x40 MLOAD PUSH2 0x4A9 SWAP2 SWAP1 PUSH2 0xA5E JUMP JUMPDEST PUSH1 0x40 MLOAD DUP1 SWAP2 SUB SWAP1 RETURN JUMPDEST CALLVALUE DUP1 ISZERO PUSH2 0x4BD JUMPI PUSH0 DUP1 REVERT JUMPDEST POP PUSH2 0x4D8 PUSH1 0x4 DUP1 CALLDATASIZE SUB DUP2 ADD SWAP1 PUSH2 0x4D3 SWAP2 SWAP1 PUSH2 0xD62 JUMP JUMPDEST PUSH2 0x820 JUMP JUMPDEST PUSH1 0x40 MLOAD PUSH2 0x4E5 SWAP2 SWAP1 PUSH2 0xDBA JUMP JUMPDEST PUSH1 0x40 MLOAD DUP1 SWAP2 SUB SWAP1 RETURN JUMPDEST PUSH0 DUP1 NUMBER TIMESTAMP PUSH1 0x4 SLOAD PUSH1 0x3 PUSH1 0x40 MLOAD PUSH1 0x20 ADD PUSH2 0x507 SWAP2 SWAP1 PUSH2 0xEC3 JUMP JUMPDEST PUSH1 0x40 MLOAD PUSH1 0x20 DUP2 DUP4 SUB SUB DUP2 MSTORE SWAP1 PUSH1 0x40 MSTORE DUP1 MLOAD SWAP1 PUSH1 0x20 ADD KECCAK256 PUSH0 SHR PUSH2 0x529 SWAP2 SWAP1 PUSH2 0xEE3 JUMP JUMPDEST PUSH2 0x533 SWAP2 SWAP1 PUSH2 0xEE3 JUMP JUMPDEST PUSH2 0x53D SWAP2 SWAP1 PUSH2 0xEE3 JUMP JUMPDEST SWAP1 POP PUSH1 0x1 PUSH1 0x2 DUP1 DUP4 PUSH2 0x54F SWAP2 SWAP1 PUSH2 0xF43 JUMP JUMPDEST PUSH2 0x559 SWAP2 SWAP1 PUSH2 0xF73 JUMP JUMPDEST DUP3 PUSH2 0x564 SWAP2 SWAP1 PUSH2 0xFB4 JUMP JUMPDEST PUSH2 0x56E SWAP2 SWAP1 PUSH2 0xEE3 JUMP JUMPDEST SWAP2 POP POP SWAP1 JUMP JUMPDEST PUSH1 0x6 SLOAD DUP2 JUMP JUMPDEST PUSH0 SELFBALANCE SWAP1 POP SWAP1 JUMP JUMPDEST PUSH1 0x5 SLOAD DUP2 JUMP JUMPDEST PUSH1 0x1 PUSH0 SWAP1 SLOAD SWAP1 PUSH2 0x100 EXP SWAP1 DIV PUSH20 0xFFFFFFFFFFFFFFFFFFFFFFFFFFFFFFFFFFFFFFFF AND PUSH20 0xFFFFFFFFFFFFFFFFFFFFFFFFFFFFFFFFFFFFFFFF AND CALLER PUSH20 0xFFFFFFFFFFFFFFFFFFFFFFFFFFFFFFFFFFFFFFFF AND EQ PUSH2 0x616 JUMPI PUSH1 0x40 MLOAD PUSH32 0x8C379A000000000000000000000000000000000000000000000000000000000 DUP2 MSTORE PUSH1 0x4 ADD PUSH2 0x60D SWAP1 PUSH2 0x1031 JUMP JUMPDEST PUSH1 0x40 MLOAD DUP1 SWAP2 SUB SWAP1 REVERT JUMPDEST DUP2 PUSH1 0x3 SWAP1 DUP2 PUSH2 0x625 SWAP2 SWAP1 PUSH2 0x11DA JUMP JUMPDEST POP DUP1 PUSH1 0x4 DUP2 SWAP1 SSTORE POP POP POP JUMP JUMPDEST PUSH1 0x60 PUSH0 PUSH1 0x1 PUSH0 SWAP1 SLOAD SWAP1 PUSH2 0x100 EXP SWAP1 DIV PUSH20 0xFFFFFFFFFFFFFFFFFFFFFFFFFFFFFFFFFFFFFFFF AND PUSH20 0xFFFFFFFFFFFFFFFFFFFFFFFFFFFFFFFFFFFFFFFF AND CALLER PUSH20 0xFFFFFFFFFFFFFFFFFFFFFFFFFFFFFFFFFFFFFFFF AND EQ PUSH2 0x6C3 JUMPI PUSH1 0x40 MLOAD PUSH32 0x8C379A000000000000000000000000000000000000000000000000000000000 DUP2 MSTORE PUSH1 0x4 ADD PUSH2 0x6BA SWAP1 PUSH2 0x1031 JUMP JUMPDEST PUSH1 0x40 MLOAD DUP1 SWAP2 SUB SWAP1 REVERT JUMPDEST PUSH1 0x3 PUSH1 0x4 SLOAD DUP2 DUP1 SLOAD PUSH2 0x6D4 SWAP1 PUSH2 0xE00 JUMP JUMPDEST DUP1 PUSH1 0x1F ADD PUSH1 0x20 DUP1 SWAP2 DIV MUL PUSH1 0x20 ADD PUSH1 0x40 MLOAD SWAP1 DUP2 ADD PUSH1 0x40 MSTORE DUP1 SWAP3 SWAP2 SWAP1 DUP2 DUP2 MSTORE PUSH1 0x20 ADD DUP3 DUP1 SLOAD PUSH2 0x700 SWAP1 PUSH2 0xE00 JUMP JUMPDEST DUP1 ISZERO PUSH2 0x74B JUMPI DUP1 PUSH1 0x1F LT PUSH2 0x722 JUMPI PUSH2 0x100 DUP1 DUP4 SLOAD DIV MUL DUP4 MSTORE SWAP2 PUSH1 0x20 ADD SWAP2 PUSH2 0x74B JUMP JUMPDEST DUP3 ADD SWAP2 SWAP1 PUSH0 MSTORE PUSH1 0x20 PUSH0 KECCAK256 SWAP1 JUMPDEST DUP2 SLOAD DUP2 MSTORE SWAP1 PUSH1 0x1 ADD SWAP1 PUSH1 0x20 ADD DUP1 DUP4 GT PUSH2 0x72E JUMPI DUP3 SWAP1 SUB PUSH1 0x1F AND DUP3 ADD SWAP2 JUMPDEST POP POP POP POP POP SWAP2 POP SWAP2 POP SWAP2 POP SWAP1 SWAP2 JUMP JUMPDEST PUSH1 0x1 PUSH0 SWAP1 SLOAD SWAP1 PUSH2 0x100 EXP SWAP1 DIV PUSH20 0xFFFFFFFFFFFFFFFFFFFFFFFFFFFFFFFFFFFFFFFF AND DUP2 JUMP JUMPDEST PUSH0 PUSH1 0x5 SLOAD SWAP1 POP SWAP1 JUMP JUMPDEST PUSH0 PUSH1 0x1 PUSH0 SWAP1 SLOAD SWAP1 PUSH2 0x100 EXP SWAP1 DIV PUSH20 0xFFFFFFFFFFFFFFFFFFFFFFFFFFFFFFFFFFFFFFFF AND PUSH20 0xFFFFFFFFFFFFFFFFFFFFFFFFFFFFFFFFFFFFFFFF AND CALLER PUSH20 0xFFFFFFFFFFFFFFFFFFFFFFFFFFFFFFFFFFFFFFFF AND EQ PUSH2 0x818 JUMPI PUSH1 0x40 MLOAD PUSH32 0x8C379A000000000000000000000000000000000000000000000000000000000 DUP2 MSTORE PUSH1 0x4 ADD PUSH2 0x80F SWAP1 PUSH2 0x1031 JUMP JUMPDEST PUSH1 0x40 MLOAD DUP1 SWAP2 SUB SWAP1 REVERT JUMPDEST PUSH1 0x2 SLOAD SWAP1 POP SWAP1 JUMP JUMPDEST PUSH0 PUSH1 0x20 MSTORE DUP2 PUSH0 MSTORE PUSH1 0x40 PUSH0 KECCAK256 PUSH1 0x20 MSTORE DUP1 PUSH0 MSTORE PUSH1 0x40 PUSH0 KECCAK256 PUSH0 SWAP2 POP SWAP2 POP SWAP1 SLOAD SWAP1 PUSH2 0x100 EXP SWAP1 DIV PUSH1 0xFF AND DUP2 JUMP JUMPDEST PUSH0 DUP3 DUP3 MSTORE PUSH1 0x20 DUP3 ADD SWAP1 POP SWAP3 SWAP2 POP POP JUMP JUMPDEST PUSH32 0x4D75737420626520302E30312065746865722E00000000000000000000000000 PUSH0 DUP3 ADD MSTORE POP JUMP JUMPDEST PUSH0 PUSH2 0x88D PUSH1 0x13 DUP4 PUSH2 0x849 JUMP JUMPDEST SWAP2 POP PUSH2 0x898 DUP3 PUSH2 0x859 JUMP JUMPDEST PUSH1 0x20 DUP3 ADD SWAP1 POP SWAP2 SWAP1 POP JUMP JUMPDEST PUSH0 PUSH1 0x20 DUP3 ADD SWAP1 POP DUP2 DUP2 SUB PUSH0 DUP4 ADD MSTORE PUSH2 0x8BA DUP2 PUSH2 0x881 JUMP JUMPDEST SWAP1 POP SWAP2 SWAP1 POP JUMP JUMPDEST PUSH32 0x4D757374206265207468652066697273742074696D652E000000000000000000 PUSH0 DUP3 ADD MSTORE POP JUMP JUMPDEST PUSH0 PUSH2 0x8F5 PUSH1 0x17 DUP4 PUSH2 0x849 JUMP JUMPDEST SWAP2 POP PUSH2 0x900 DUP3 PUSH2 0x8C1 JUMP JUMPDEST PUSH1 0x20 DUP3 ADD SWAP1 POP SWAP2 SWAP1 POP JUMP JUMPDEST PUSH0 PUSH1 0x20 DUP3 ADD SWAP1 POP DUP2 DUP2 SUB PUSH0 DUP4 ADD MSTORE PUSH2 0x922 DUP2 PUSH2 0x8E9 JUMP JUMPDEST SWAP1 POP SWAP2 SWAP1 POP JUMP JUMPDEST PUSH32 0x4E487B7100000000000000000000000000000000000000000000000000000000 PUSH0 MSTORE PUSH1 0x11 PUSH1 0x4 MSTORE PUSH1 0x24 PUSH0 REVERT JUMPDEST PUSH0 DUP2 SWAP1 POP SWAP2 SWAP1 POP JUMP JUMPDEST PUSH0 PUSH2 0x969 DUP3 PUSH2 0x956 JUMP JUMPDEST SWAP2 POP PUSH32 0xFFFFFFFFFFFFFFFFFFFFFFFFFFFFFFFFFFFFFFFFFFFFFFFFFFFFFFFFFFFFFFFF DUP3 SUB PUSH2 0x99B JUMPI PUSH2 0x99A PUSH2 0x929 JUMP JUMPDEST JUMPDEST PUSH1 0x1 DUP3 ADD SWAP1 POP SWAP2 SWAP1 POP JUMP JUMPDEST PUSH0 DUP2 SWAP1 POP SWAP3 SWAP2 POP POP JUMP JUMPDEST POP JUMP JUMPDEST PUSH0 PUSH2 0x9BE PUSH0 DUP4 PUSH2 0x9A6 JUMP JUMPDEST SWAP2 POP PUSH2 0x9C9 DUP3 PUSH2 0x9B0 JUMP JUMPDEST PUSH0 DUP3 ADD SWAP1 POP SWAP2 SWAP1 POP JUMP JUMPDEST PUSH0 PUSH2 0x9DD DUP3 PUSH2 0x9B3 JUMP JUMPDEST SWAP2 POP DUP2 SWAP1 POP SWAP2 SWAP1 POP JUMP JUMPDEST PUSH32 0x4661696C65640000000000000000000000000000000000000000000000000000 PUSH0 DUP3 ADD MSTORE POP JUMP JUMPDEST PUSH0 PUSH2 0xA1B PUSH1 0x6 DUP4 PUSH2 0x849 JUMP JUMPDEST SWAP2 POP PUSH2 0xA26 DUP3 PUSH2 0x9E7 JUMP JUMPDEST PUSH1 0x20 DUP3 ADD SWAP1 POP SWAP2 SWAP1 POP JUMP JUMPDEST PUSH0 PUSH1 0x20 DUP3 ADD SWAP1 POP DUP2 DUP2 SUB PUSH0 DUP4 ADD MSTORE PUSH2 0xA48 DUP2 PUSH2 0xA0F JUMP JUMPDEST SWAP1 POP SWAP2 SWAP1 POP JUMP JUMPDEST PUSH2 0xA58 DUP2 PUSH2 0x956 JUMP JUMPDEST DUP3 MSTORE POP POP JUMP JUMPDEST PUSH0 PUSH1 0x20 DUP3 ADD SWAP1 POP PUSH2 0xA71 PUSH0 DUP4 ADD DUP5 PUSH2 0xA4F JUMP JUMPDEST SWAP3 SWAP2 POP POP JUMP JUMPDEST PUSH0 PUSH1 0x40 MLOAD SWAP1 POP SWAP1 JUMP JUMPDEST PUSH0 DUP1 REVERT JUMPDEST PUSH0 DUP1 REVERT JUMPDEST PUSH0 DUP1 REVERT JUMPDEST PUSH0 DUP1 REVERT JUMPDEST PUSH0 PUSH1 0x1F NOT PUSH1 0x1F DUP4 ADD AND SWAP1 POP SWAP2 SWAP1 POP JUMP JUMPDEST PUSH32 0x4E487B7100000000000000000000000000000000000000000000000000000000 PUSH0 MSTORE PUSH1 0x41 PUSH1 0x4 MSTORE PUSH1 0x24 PUSH0 REVERT JUMPDEST PUSH2 0xAD6 DUP3 PUSH2 0xA90 JUMP JUMPDEST DUP2 ADD DUP2 DUP2 LT PUSH8 0xFFFFFFFFFFFFFFFF DUP3 GT OR ISZERO PUSH2 0xAF5 JUMPI PUSH2 0xAF4 PUSH2 0xAA0 JUMP JUMPDEST JUMPDEST DUP1 PUSH1 0x40 MSTORE POP POP POP JUMP JUMPDEST PUSH0 PUSH2 0xB07 PUSH2 0xA77 JUMP JUMPDEST SWAP1 POP PUSH2 0xB13 DUP3 DUP3 PUSH2 0xACD JUMP JUMPDEST SWAP2 SWAP1 POP JUMP JUMPDEST PUSH0 PUSH8 0xFFFFFFFFFFFFFFFF DUP3 GT ISZERO PUSH2 0xB32 JUMPI PUSH2 0xB31 PUSH2 0xAA0 JUMP JUMPDEST JUMPDEST PUSH2 0xB3B DUP3 PUSH2 0xA90 JUMP JUMPDEST SWAP1 POP PUSH1 0x20 DUP2 ADD SWAP1 POP SWAP2 SWAP1 POP JUMP JUMPDEST DUP3 DUP2 DUP4 CALLDATACOPY PUSH0 DUP4 DUP4 ADD MSTORE POP POP POP JUMP JUMPDEST PUSH0 PUSH2 0xB68 PUSH2 0xB63 DUP5 PUSH2 0xB18 JUMP JUMPDEST PUSH2 0xAFE JUMP JUMPDEST SWAP1 POP DUP3 DUP2 MSTORE PUSH1 0x20 DUP2 ADD DUP5 DUP5 DUP5 ADD GT ISZERO PUSH2 0xB84 JUMPI PUSH2 0xB83 PUSH2 0xA8C JUMP JUMPDEST JUMPDEST PUSH2 0xB8F DUP5 DUP3 DUP6 PUSH2 0xB48 JUMP JUMPDEST POP SWAP4 SWAP3 POP POP POP JUMP JUMPDEST PUSH0 DUP3 PUSH1 0x1F DUP4 ADD SLT PUSH2 0xBAB JUMPI PUSH2 0xBAA PUSH2 0xA88 JUMP JUMPDEST JUMPDEST DUP2 CALLDATALOAD PUSH2 0xBBB DUP5 DUP3 PUSH1 0x20 DUP7 ADD PUSH2 0xB56 JUMP JUMPDEST SWAP2 POP POP SWAP3 SWAP2 POP POP JUMP JUMPDEST PUSH2 0xBCD DUP2 PUSH2 0x956 JUMP JUMPDEST DUP2 EQ PUSH2 0xBD7 JUMPI PUSH0 DUP1 REVERT JUMPDEST POP JUMP JUMPDEST PUSH0 DUP2 CALLDATALOAD SWAP1 POP PUSH2 0xBE8 DUP2 PUSH2 0xBC4 JUMP JUMPDEST SWAP3 SWAP2 POP POP JUMP JUMPDEST PUSH0 DUP1 PUSH1 0x40 DUP4 DUP6 SUB SLT ISZERO PUSH2 0xC04 JUMPI PUSH2 0xC03 PUSH2 0xA80 JUMP JUMPDEST JUMPDEST PUSH0 DUP4 ADD CALLDATALOAD PUSH8 0xFFFFFFFFFFFFFFFF DUP2 GT ISZERO PUSH2 0xC21 JUMPI PUSH2 0xC20 PUSH2 0xA84 JUMP JUMPDEST JUMPDEST PUSH2 0xC2D DUP6 DUP3 DUP7 ADD PUSH2 0xB97 JUMP JUMPDEST SWAP3 POP POP PUSH1 0x20 PUSH2 0xC3E DUP6 DUP3 DUP7 ADD PUSH2 0xBDA JUMP JUMPDEST SWAP2 POP POP SWAP3 POP SWAP3 SWAP1 POP JUMP JUMPDEST PUSH0 DUP2 MLOAD SWAP1 POP SWAP2 SWAP1 POP JUMP JUMPDEST PUSH0 JUMPDEST DUP4 DUP2 LT ISZERO PUSH2 0xC6F JUMPI DUP1 DUP3 ADD MLOAD DUP2 DUP5 ADD MSTORE PUSH1 0x20 DUP2 ADD SWAP1 POP PUSH2 0xC54 JUMP JUMPDEST PUSH0 DUP5 DUP5 ADD MSTORE POP POP POP POP JUMP JUMPDEST PUSH0 PUSH2 0xC84 DUP3 PUSH2 0xC48 JUMP JUMPDEST PUSH2 0xC8E DUP2 DUP6 PUSH2 0x849 JUMP JUMPDEST SWAP4 POP PUSH2 0xC9E DUP2 DUP6 PUSH1 0x20 DUP7 ADD PUSH2 0xC52 JUMP JUMPDEST PUSH2 0xCA7 DUP2 PUSH2 0xA90 JUMP JUMPDEST DUP5 ADD SWAP2 POP POP SWAP3 SWAP2 POP POP JUMP JUMPDEST PUSH0 PUSH1 0x40 DUP3 ADD SWAP1 POP DUP2 DUP2 SUB PUSH0 DUP4 ADD MSTORE PUSH2 0xCCA DUP2 DUP6 PUSH2 0xC7A JUMP JUMPDEST SWAP1 POP PUSH2 0xCD9 PUSH1 0x20 DUP4 ADD DUP5 PUSH2 0xA4F JUMP JUMPDEST SWAP4 SWAP3 POP POP POP JUMP JUMPDEST PUSH0 PUSH20 0xFFFFFFFFFFFFFFFFFFFFFFFFFFFFFFFFFFFFFFFF DUP3 AND SWAP1 POP SWAP2 SWAP1 POP JUMP JUMPDEST PUSH0 PUSH2 0xD09 DUP3 PUSH2 0xCE0 JUMP JUMPDEST SWAP1 POP SWAP2 SWAP1 POP JUMP JUMPDEST PUSH2 0xD19 DUP2 PUSH2 0xCFF JUMP JUMPDEST DUP3 MSTORE POP POP JUMP JUMPDEST PUSH0 PUSH1 0x20 DUP3 ADD SWAP1 POP PUSH2 0xD32 PUSH0 DUP4 ADD DUP5 PUSH2 0xD10 JUMP JUMPDEST SWAP3 SWAP2 POP POP JUMP JUMPDEST PUSH2 0xD41 DUP2 PUSH2 0xCFF JUMP JUMPDEST DUP2 EQ PUSH2 0xD4B JUMPI PUSH0 DUP1 REVERT JUMPDEST POP JUMP JUMPDEST PUSH0 DUP2 CALLDATALOAD SWAP1 POP PUSH2 0xD5C DUP2 PUSH2 0xD38 JUMP JUMPDEST SWAP3 SWAP2 POP POP JUMP JUMPDEST PUSH0 DUP1 PUSH1 0x40 DUP4 DUP6 SUB SLT ISZERO PUSH2 0xD78 JUMPI PUSH2 0xD77 PUSH2 0xA80 JUMP JUMPDEST JUMPDEST PUSH0 PUSH2 0xD85 DUP6 DUP3 DUP7 ADD PUSH2 0xBDA JUMP JUMPDEST SWAP3 POP POP PUSH1 0x20 PUSH2 0xD96 DUP6 DUP3 DUP7 ADD PUSH2 0xD4E JUMP JUMPDEST SWAP2 POP POP SWAP3 POP SWAP3 SWAP1 POP JUMP JUMPDEST PUSH0 DUP2 ISZERO ISZERO SWAP1 POP SWAP2 SWAP1 POP JUMP JUMPDEST PUSH2 0xDB4 DUP2 PUSH2 0xDA0 JUMP JUMPDEST DUP3 MSTORE POP POP JUMP JUMPDEST PUSH0 PUSH1 0x20 DUP3 ADD SWAP1 POP PUSH2 0xDCD PUSH0 DUP4 ADD DUP5 PUSH2 0xDAB JUMP JUMPDEST SWAP3 SWAP2 POP POP JUMP JUMPDEST PUSH32 0x4E487B7100000000000000000000000000000000000000000000000000000000 PUSH0 MSTORE PUSH1 0x22 PUSH1 0x4 MSTORE PUSH1 0x24 PUSH0 REVERT JUMPDEST PUSH0 PUSH1 0x2 DUP3 DIV SWAP1 POP PUSH1 0x1 DUP3 AND DUP1 PUSH2 0xE17 JUMPI PUSH1 0x7F DUP3 AND SWAP2 POP JUMPDEST PUSH1 0x20 DUP3 LT DUP2 SUB PUSH2 0xE2A JUMPI PUSH2 0xE29 PUSH2 0xDD3 JUMP JUMPDEST JUMPDEST POP SWAP2 SWAP1 POP JUMP JUMPDEST PUSH0 DUP2 SWAP1 POP DUP2 PUSH0 MSTORE PUSH1 0x20 PUSH0 KECCAK256 SWAP1 POP SWAP2 SWAP1 POP JUMP JUMPDEST PUSH0 DUP2 SLOAD PUSH2 0xE4E DUP2 PUSH2 0xE00 JUMP JUMPDEST PUSH2 0xE58 DUP2 DUP7 PUSH2 0x849 JUMP JUMPDEST SWAP5 POP PUSH1 0x1 DUP3 AND PUSH0 DUP2 EQ PUSH2 0xE72 JUMPI PUSH1 0x1 DUP2 EQ PUSH2 0xE88 JUMPI PUSH2 0xEBA JUMP JUMPDEST PUSH1 0xFF NOT DUP4 AND DUP7 MSTORE DUP2 ISZERO ISZERO PUSH1 0x20 MUL DUP7 ADD SWAP4 POP PUSH2 0xEBA JUMP JUMPDEST PUSH2 0xE91 DUP6 PUSH2 0xE30 JUMP JUMPDEST PUSH0 JUMPDEST DUP4 DUP2 LT ISZERO PUSH2 0xEB2 JUMPI DUP2 SLOAD DUP2 DUP10 ADD MSTORE PUSH1 0x1 DUP3 ADD SWAP2 POP PUSH1 0x20 DUP2 ADD SWAP1 POP PUSH2 0xE93 JUMP JUMPDEST DUP1 DUP9 ADD SWAP6 POP POP POP JUMPDEST POP POP POP SWAP3 SWAP2 POP POP JUMP JUMPDEST PUSH0 PUSH1 0x20 DUP3 ADD SWAP1 POP DUP2 DUP2 SUB PUSH0 DUP4 ADD MSTORE PUSH2 0xEDB DUP2 DUP5 PUSH2 0xE42 JUMP JUMPDEST SWAP1 POP SWAP3 SWAP2 POP POP JUMP JUMPDEST PUSH0 PUSH2 0xEED DUP3 PUSH2 0x956 JUMP JUMPDEST SWAP2 POP PUSH2 0xEF8 DUP4 PUSH2 0x956 JUMP JUMPDEST SWAP3 POP DUP3 DUP3 ADD SWAP1 POP DUP1 DUP3 GT ISZERO PUSH2 0xF10 JUMPI PUSH2 0xF0F PUSH2 0x929 JUMP JUMPDEST JUMPDEST SWAP3 SWAP2 POP POP JUMP JUMPDEST PUSH32 0x4E487B7100000000000000000000000000000000000000000000000000000000 PUSH0 MSTORE PUSH1 0x12 PUSH1 0x4 MSTORE PUSH1 0x24 PUSH0 REVERT JUMPDEST PUSH0 PUSH2 0xF4D DUP3 PUSH2 0x956 JUMP JUMPDEST SWAP2 POP PUSH2 0xF58 DUP4 PUSH2 0x956 JUMP JUMPDEST SWAP3 POP DUP3 PUSH2 0xF68 JUMPI PUSH2 0xF67 PUSH2 0xF16 JUMP JUMPDEST JUMPDEST DUP3 DUP3 DIV SWAP1 POP SWAP3 SWAP2 POP POP JUMP JUMPDEST PUSH0 PUSH2 0xF7D DUP3 PUSH2 0x956 JUMP JUMPDEST SWAP2 POP PUSH2 0xF88 DUP4 PUSH2 0x956 JUMP JUMPDEST SWAP3 POP DUP3 DUP3 MUL PUSH2 0xF96 DUP2 PUSH2 0x956 JUMP JUMPDEST SWAP2 POP DUP3 DUP3 DIV DUP5 EQ DUP4 ISZERO OR PUSH2 0xFAD JUMPI PUSH2 0xFAC PUSH2 0x929 JUMP JUMPDEST JUMPDEST POP SWAP3 SWAP2 POP POP JUMP JUMPDEST PUSH0 PUSH2 0xFBE DUP3 PUSH2 0x956 JUMP JUMPDEST SWAP2 POP PUSH2 0xFC9 DUP4 PUSH2 0x956 JUMP JUMPDEST SWAP3 POP DUP3 DUP3 SUB SWAP1 POP DUP2 DUP2 GT ISZERO PUSH2 0xFE1 JUMPI PUSH2 0xFE0 PUSH2 0x929 JUMP JUMPDEST JUMPDEST SWAP3 SWAP2 POP POP JUMP JUMPDEST PUSH32 0x4F776E61626C653A2063616C6C6572206973206E6F7420746865206F776E6572 PUSH0 DUP3 ADD MSTORE POP JUMP JUMPDEST PUSH0 PUSH2 0x101B PUSH1 0x20 DUP4 PUSH2 0x849 JUMP JUMPDEST SWAP2 POP PUSH2 0x1026 DUP3 PUSH2 0xFE7 JUMP JUMPDEST PUSH1 0x20 DUP3 ADD SWAP1 POP SWAP2 SWAP1 POP JUMP JUMPDEST PUSH0 PUSH1 0x20 DUP3 ADD SWAP1 POP DUP2 DUP2 SUB PUSH0 DUP4 ADD MSTORE PUSH2 0x1048 DUP2 PUSH2 0x100F JUMP JUMPDEST SWAP1 POP SWAP2 SWAP1 POP JUMP JUMPDEST PUSH0 PUSH1 0x20 PUSH1 0x1F DUP4 ADD DIV SWAP1 POP SWAP2 SWAP1 POP JUMP JUMPDEST PUSH0 DUP3 DUP3 SHL SWAP1 POP SWAP3 SWAP2 POP POP JUMP JUMPDEST PUSH0 PUSH1 0x8 DUP4 MUL PUSH2 0x1099 PUSH32 0xFFFFFFFFFFFFFFFFFFFFFFFFFFFFFFFFFFFFFFFFFFFFFFFFFFFFFFFFFFFFFFFF DUP3 PUSH2 0x105E JUMP JUMPDEST PUSH2 0x10A3 DUP7 DUP4 PUSH2 0x105E JUMP JUMPDEST SWAP6 POP DUP1 NOT DUP5 AND SWAP4 POP DUP1 DUP7 AND DUP5 OR SWAP3 POP POP POP SWAP4 SWAP3 POP POP POP JUMP JUMPDEST PUSH0 DUP2 SWAP1 POP SWAP2 SWAP1 POP JUMP JUMPDEST PUSH0 PUSH2 0x10DE PUSH2 0x10D9 PUSH2 0x10D4 DUP5 PUSH2 0x956 JUMP JUMPDEST PUSH2 0x10BB JUMP JUMPDEST PUSH2 0x956 JUMP JUMPDEST SWAP1 POP SWAP2 SWAP1 POP JUMP JUMPDEST PUSH0 DUP2 SWAP1 POP SWAP2 SWAP1 POP JUMP JUMPDEST PUSH2 0x10F7 DUP4 PUSH2 0x10C4 JUMP JUMPDEST PUSH2 0x110B PUSH2 0x1103 DUP3 PUSH2 0x10E5 JUMP JUMPDEST DUP5 DUP5 SLOAD PUSH2 0x106A JUMP JUMPDEST DUP3 SSTORE POP POP POP POP JUMP JUMPDEST PUSH0 SWAP1 JUMP JUMPDEST PUSH2 0x111F PUSH2 0x1113 JUMP JUMPDEST PUSH2 0x112A DUP2 DUP5 DUP5 PUSH2 0x10EE JUMP JUMPDEST POP POP POP JUMP JUMPDEST JUMPDEST DUP2 DUP2 LT ISZERO PUSH2 0x114D JUMPI PUSH2 0x1142 PUSH0 DUP3 PUSH2 0x1117 JUMP JUMPDEST PUSH1 0x1 DUP2 ADD SWAP1 POP PUSH2 0x1130 JUMP JUMPDEST POP POP JUMP JUMPDEST PUSH1 0x1F DUP3 GT ISZERO PUSH2 0x1192 JUMPI PUSH2 0x1163 DUP2 PUSH2 0xE30 JUMP JUMPDEST PUSH2 0x116C DUP5 PUSH2 0x104F JUMP JUMPDEST DUP2 ADD PUSH1 0x20 DUP6 LT ISZERO PUSH2 0x117B JUMPI DUP2 SWAP1 POP JUMPDEST PUSH2 0x118F PUSH2 0x1187 DUP6 PUSH2 0x104F JUMP JUMPDEST DUP4 ADD DUP3 PUSH2 0x112F JUMP JUMPDEST POP POP JUMPDEST POP POP POP JUMP JUMPDEST PUSH0 DUP3 DUP3 SHR SWAP1 POP SWAP3 SWAP2 POP POP JUMP JUMPDEST PUSH0 PUSH2 0x11B2 PUSH0 NOT DUP5 PUSH1 0x8 MUL PUSH2 0x1197 JUMP JUMPDEST NOT DUP1 DUP4 AND SWAP2 POP POP SWAP3 SWAP2 POP POP JUMP JUMPDEST PUSH0 PUSH2 0x11CA DUP4 DUP4 PUSH2 0x11A3 JUMP JUMPDEST SWAP2 POP DUP3 PUSH1 0x2 MUL DUP3 OR SWAP1 POP SWAP3 SWAP2 POP POP JUMP JUMPDEST PUSH2 0x11E3 DUP3 PUSH2 0xC48 JUMP JUMPDEST PUSH8 0xFFFFFFFFFFFFFFFF DUP2 GT ISZERO PUSH2 0x11FC JUMPI PUSH2 0x11FB PUSH2 0xAA0 JUMP JUMPDEST JUMPDEST PUSH2 0x1206 DUP3 SLOAD PUSH2 0xE00 JUMP JUMPDEST PUSH2 0x1211 DUP3 DUP3 DUP6 PUSH2 0x1151 JUMP JUMPDEST PUSH0 PUSH1 0x20 SWAP1 POP PUSH1 0x1F DUP4 GT PUSH1 0x1 DUP2 EQ PUSH2 0x1242 JUMPI PUSH0 DUP5 ISZERO PUSH2 0x1230 JUMPI DUP3 DUP8 ADD MLOAD SWAP1 POP JUMPDEST PUSH2 0x123A DUP6 DUP3 PUSH2 0x11BF JUMP JUMPDEST DUP7 SSTORE POP PUSH2 0x12A1 JUMP JUMPDEST PUSH1 0x1F NOT DUP5 AND PUSH2 0x1250 DUP7 PUSH2 0xE30 JUMP JUMPDEST PUSH0 JUMPDEST DUP3 DUP2 LT ISZERO PUSH2 0x1277 JUMPI DUP5 DUP10 ADD MLOAD DUP3 SSTORE PUSH1 0x1 DUP3 ADD SWAP2 POP PUSH1 0x20 DUP6 ADD SWAP5 POP PUSH1 0x20 DUP2 ADD SWAP1 POP PUSH2 0x1252 JUMP JUMPDEST DUP7 DUP4 LT ISZERO PUSH2 0x1294 JUMPI DUP5 DUP10 ADD MLOAD PUSH2 0x1290 PUSH1 0x1F DUP10 AND DUP3 PUSH2 0x11A3 JUMP JUMPDEST DUP4 SSTORE POP JUMPDEST PUSH1 0x1 PUSH1 0x2 DUP9 MUL ADD DUP9 SSTORE POP POP POP JUMPDEST POP POP POP POP POP POP JUMP INVALID LOG2 PUSH5 0x6970667358 0x22 SLT KECCAK256 0x24 DUP6 LOG2 BASEFEE SWAP5 0x1E GAS MSTORE8 PUSH4 0x1783A40F CALLDATACOPY PUSH19 0x3206405D97E2E824B4899EB97B8B5EA0776473 PUSH16 0x6C634300081700330000000000000000 "
				},
				"gasEstimates": {
					"creation": {
						"codeDepositCost": "966200",
						"executionCost": "infinite",
						"totalCost": "infinite"
					},
					"external": {
						"getBalance()": "357",
						"getRound()": "2476",
						"getSecretKey()": "infinite",
						"getWinnerNumber()": "4667",
						"owner()": "2530",
						"paidAddressList(uint256,address)": "3158",
						"playNumber()": "2426",
						"round()": "2470",
						"setSecretKey(string,uint256)": "infinite"
					},
					"internal": {
						"randomNumber()": "infinite"
					}
				},
				"methodIdentifiers": {
					"getBalance()": "12065fe0",
					"getRound()": "9f8743f7",
					"getSecretKey()": "79ed40bc",
					"getWinnerNumber()": "a86d2e19",
					"owner()": "8da5cb5b",
					"paidAddressList(uint256,address)": "cf66b989",
					"playNumber()": "0df516d8",
					"round()": "146ca531",
					"setSecretKey(string,uint256)": "5ef5cc89"
				}
			},
			"storageLayout": {
				"storage": [
					{
						"astId": 29,
						"contract": "chapter10/RandomGame.sol:RandomGame",
						"label": "paidAddressList",
						"offset": 0,
						"slot": "0",
						"type": "t_mapping(t_uint256,t_mapping(t_address,t_bool))"
					},
					{
						"astId": 31,
						"contract": "chapter10/RandomGame.sol:RandomGame",
						"label": "owner",
						"offset": 0,
						"slot": "1",
						"type": "t_address"
					},
					{
						"astId": 34,
						"contract": "chapter10/RandomGame.sol:RandomGame",
						"label": "winnerNumber",
						"offset": 0,
						"slot": "2",
						"type": "t_uint256"
					},
					{
						"astId": 36,
						"contract": "chapter10/RandomGame.sol:RandomGame",
						"label": "key1",
						"offset": 0,
						"slot": "3",
						"type": "t_string_storage"
					},
					{
						"astId": 38,
						"contract": "chapter10/RandomGame.sol:RandomGame",
						"label": "key2",
						"offset": 0,
						"slot": "4",
						"type": "t_uint256"
					},
					{
						"astId": 41,
						"contract": "chapter10/RandomGame.sol:RandomGame",
						"label": "round",
						"offset": 0,
						"slot": "5",
						"type": "t_uint256"
					},
					{
						"astId": 44,
						"contract": "chapter10/RandomGame.sol:RandomGame",
						"label": "playNumber",
						"offset": 0,
						"slot": "6",
						"type": "t_uint256"
					}
				],
				"types": {
					"t_address": {
						"encoding": "inplace",
						"label": "address",
						"numberOfBytes": "20"
					},
					"t_bool": {
						"encoding": "inplace",
						"label": "bool",
						"numberOfBytes": "1"
					},
					"t_mapping(t_address,t_bool)": {
						"encoding": "mapping",
						"key": "t_address",
						"label": "mapping(address => bool)",
						"numberOfBytes": "32",
						"value": "t_bool"
					},
					"t_mapping(t_uint256,t_mapping(t_address,t_bool))": {
						"encoding": "mapping",
						"key": "t_uint256",
						"label": "mapping(uint256 => mapping(address => bool))",
						"numberOfBytes": "32",
						"value": "t_mapping(t_address,t_bool)"
					},
					"t_string_storage": {
						"encoding": "bytes",
						"label": "string",
						"numberOfBytes": "32"
					},
					"t_uint256": {
						"encoding": "inplace",
						"label": "uint256",
						"numberOfBytes": "32"
					}
				}
			},
			"userdoc": {
				"kind": "user",
				"methods": {},
				"version": 1
			}
		}
	}
}