{
	"chapter3/Ex3_15.sol": {
		"Ex3_15": {
			"abi": [
				{
					"inputs": [
						{
							"internalType": "string",
							"name": "str",
							"type": "string"
						}
					],
					"name": "myFun",
					"outputs": [
						{
							"internalType": "uint256",
							"name": "",
							"type": "uint256"
						},
						{
							"internalType": "string",
							"name": "",
							"type": "string"
						},
						{
							"internalType": "bytes",
							"name": "",
							"type": "bytes"
						}
					],
					"stateMutability": "pure",
					"type": "function"
				}
			],
			"devdoc": {
				"kind": "dev",
				"methods": {},
				"version": 1
			},
			"evm": {
				"assembly": "    /* \"chapter3/Ex3_15.sol\":886:1104  contract Ex3_15 {\r... */\n  mstore(0x40, 0x80)\n  callvalue\n  dup1\n  iszero\n  tag_1\n  jumpi\n  0x00\n  dup1\n  revert\ntag_1:\n  pop\n  dataSize(sub_0)\n  dup1\n  dataOffset(sub_0)\n  0x00\n  codecopy\n  0x00\n  return\nstop\n\nsub_0: assembly {\n        /* \"chapter3/Ex3_15.sol\":886:1104  contract Ex3_15 {\r... */\n      mstore(0x40, 0x80)\n      callvalue\n      dup1\n      iszero\n      tag_1\n      jumpi\n      0x00\n      dup1\n      revert\n    tag_1:\n      pop\n      jumpi(tag_2, lt(calldatasize, 0x04))\n      shr(0xe0, calldataload(0x00))\n      dup1\n      0xd2d1dd72\n      eq\n      tag_3\n      jumpi\n    tag_2:\n      0x00\n      dup1\n      revert\n        /* \"chapter3/Ex3_15.sol\":909:1101  function myFun(string memory str) public pure returns (uint, string memory, bytes memory) {\r... */\n    tag_3:\n      tag_4\n      0x04\n      dup1\n      calldatasize\n      sub\n      dup2\n      add\n      swap1\n      tag_5\n      swap2\n      swap1\n      tag_6\n      jump\t// in\n    tag_5:\n      tag_7\n      jump\t// in\n    tag_4:\n      mload(0x40)\n      tag_8\n      swap4\n      swap3\n      swap2\n      swap1\n      tag_9\n      jump\t// in\n    tag_8:\n      mload(0x40)\n      dup1\n      swap2\n      sub\n      swap1\n      return\n    tag_7:\n        /* \"chapter3/Ex3_15.sol\":964:968  uint */\n      0x00\n        /* \"chapter3/Ex3_15.sol\":970:983  string memory */\n      0x60\n        /* \"chapter3/Ex3_15.sol\":985:997  bytes memory */\n      dup1\n        /* \"chapter3/Ex3_15.sol\":1010:1018  uint num */\n      0x00\n        /* \"chapter3/Ex3_15.sol\":1021:1023  90 */\n      0x5a\n        /* \"chapter3/Ex3_15.sol\":1010:1023  uint num = 90 */\n      swap1\n      pop\n        /* \"chapter3/Ex3_15.sol\":1034:1050  bytes memory byt */\n      0x00\n        /* \"chapter3/Ex3_15.sol\":1034:1060  bytes memory byt = hex\"01\" */\n      mload(0x40)\n      dup1\n      0x40\n      add\n      0x40\n      mstore\n      dup1\n      0x01\n      dup2\n      mstore\n      0x20\n      add\n      0x0100000000000000000000000000000000000000000000000000000000000000\n      dup2\n      mstore\n      pop\n      swap1\n      pop\n        /* \"chapter3/Ex3_15.sol\":1079:1082  num */\n      dup2\n        /* \"chapter3/Ex3_15.sol\":1084:1087  str */\n      dup7\n        /* \"chapter3/Ex3_15.sol\":1089:1092  byt */\n      dup3\n        /* \"chapter3/Ex3_15.sol\":1071:1093  return (num, str, byt) */\n      swap5\n      pop\n      swap5\n      pop\n      swap5\n      pop\n      pop\n      pop\n        /* \"chapter3/Ex3_15.sol\":909:1101  function myFun(string memory str) public pure returns (uint, string memory, bytes memory) {\r... */\n      swap2\n      swap4\n      swap1\n      swap3\n      pop\n      jump\t// out\n        /* \"#utility.yul\":7:419   */\n    tag_12:\n        /* \"#utility.yul\":85:90   */\n      0x00\n        /* \"#utility.yul\":110:176   */\n      tag_14\n        /* \"#utility.yul\":126:175   */\n      tag_15\n        /* \"#utility.yul\":168:174   */\n      dup5\n        /* \"#utility.yul\":126:175   */\n      tag_16\n      jump\t// in\n    tag_15:\n        /* \"#utility.yul\":110:176   */\n      tag_17\n      jump\t// in\n    tag_14:\n        /* \"#utility.yul\":101:176   */\n      swap1\n      pop\n        /* \"#utility.yul\":199:205   */\n      dup3\n        /* \"#utility.yul\":192:197   */\n      dup2\n        /* \"#utility.yul\":185:206   */\n      mstore\n        /* \"#utility.yul\":237:241   */\n      0x20\n        /* \"#utility.yul\":230:235   */\n      dup2\n        /* \"#utility.yul\":226:242   */\n      add\n        /* \"#utility.yul\":275:278   */\n      dup5\n        /* \"#utility.yul\":266:272   */\n      dup5\n        /* \"#utility.yul\":261:264   */\n      dup5\n        /* \"#utility.yul\":257:273   */\n      add\n        /* \"#utility.yul\":254:279   */\n      gt\n        /* \"#utility.yul\":251:363   */\n      iszero\n      tag_18\n      jumpi\n        /* \"#utility.yul\":282:361   */\n      tag_19\n      tag_20\n      jump\t// in\n    tag_19:\n        /* \"#utility.yul\":251:363   */\n    tag_18:\n        /* \"#utility.yul\":372:413   */\n      tag_21\n        /* \"#utility.yul\":406:412   */\n      dup5\n        /* \"#utility.yul\":401:404   */\n      dup3\n        /* \"#utility.yul\":396:399   */\n      dup6\n        /* \"#utility.yul\":372:413   */\n      tag_22\n      jump\t// in\n    tag_21:\n        /* \"#utility.yul\":91:419   */\n      pop\n        /* \"#utility.yul\":7:419   */\n      swap4\n      swap3\n      pop\n      pop\n      pop\n      jump\t// out\n        /* \"#utility.yul\":439:779   */\n    tag_23:\n        /* \"#utility.yul\":495:500   */\n      0x00\n        /* \"#utility.yul\":544:547   */\n      dup3\n        /* \"#utility.yul\":537:541   */\n      0x1f\n        /* \"#utility.yul\":529:535   */\n      dup4\n        /* \"#utility.yul\":525:542   */\n      add\n        /* \"#utility.yul\":521:548   */\n      slt\n        /* \"#utility.yul\":511:633   */\n      tag_25\n      jumpi\n        /* \"#utility.yul\":552:631   */\n      tag_26\n      tag_27\n      jump\t// in\n    tag_26:\n        /* \"#utility.yul\":511:633   */\n    tag_25:\n        /* \"#utility.yul\":669:675   */\n      dup2\n        /* \"#utility.yul\":656:676   */\n      calldataload\n        /* \"#utility.yul\":694:773   */\n      tag_28\n        /* \"#utility.yul\":769:772   */\n      dup5\n        /* \"#utility.yul\":761:767   */\n      dup3\n        /* \"#utility.yul\":754:758   */\n      0x20\n        /* \"#utility.yul\":746:752   */\n      dup7\n        /* \"#utility.yul\":742:759   */\n      add\n        /* \"#utility.yul\":694:773   */\n      tag_12\n      jump\t// in\n    tag_28:\n        /* \"#utility.yul\":685:773   */\n      swap2\n      pop\n        /* \"#utility.yul\":501:779   */\n      pop\n        /* \"#utility.yul\":439:779   */\n      swap3\n      swap2\n      pop\n      pop\n      jump\t// out\n        /* \"#utility.yul\":785:1294   */\n    tag_6:\n        /* \"#utility.yul\":854:860   */\n      0x00\n        /* \"#utility.yul\":903:905   */\n      0x20\n        /* \"#utility.yul\":891:900   */\n      dup3\n        /* \"#utility.yul\":882:889   */\n      dup5\n        /* \"#utility.yul\":878:901   */\n      sub\n        /* \"#utility.yul\":874:906   */\n      slt\n        /* \"#utility.yul\":871:990   */\n      iszero\n      tag_30\n      jumpi\n        /* \"#utility.yul\":909:988   */\n      tag_31\n      tag_32\n      jump\t// in\n    tag_31:\n        /* \"#utility.yul\":871:990   */\n    tag_30:\n        /* \"#utility.yul\":1057:1058   */\n      0x00\n        /* \"#utility.yul\":1046:1055   */\n      dup3\n        /* \"#utility.yul\":1042:1059   */\n      add\n        /* \"#utility.yul\":1029:1060   */\n      calldataload\n        /* \"#utility.yul\":1087:1105   */\n      0xffffffffffffffff\n        /* \"#utility.yul\":1079:1085   */\n      dup2\n        /* \"#utility.yul\":1076:1106   */\n      gt\n        /* \"#utility.yul\":1073:1190   */\n      iszero\n      tag_33\n      jumpi\n        /* \"#utility.yul\":1109:1188   */\n      tag_34\n      tag_35\n      jump\t// in\n    tag_34:\n        /* \"#utility.yul\":1073:1190   */\n    tag_33:\n        /* \"#utility.yul\":1214:1277   */\n      tag_36\n        /* \"#utility.yul\":1269:1276   */\n      dup5\n        /* \"#utility.yul\":1260:1266   */\n      dup3\n        /* \"#utility.yul\":1249:1258   */\n      dup6\n        /* \"#utility.yul\":1245:1267   */\n      add\n        /* \"#utility.yul\":1214:1277   */\n      tag_23\n      jump\t// in\n    tag_36:\n        /* \"#utility.yul\":1204:1277   */\n      swap2\n      pop\n        /* \"#utility.yul\":1000:1287   */\n      pop\n        /* \"#utility.yul\":785:1294   */\n      swap3\n      swap2\n      pop\n      pop\n      jump\t// out\n        /* \"#utility.yul\":1300:1660   */\n    tag_37:\n        /* \"#utility.yul\":1386:1389   */\n      0x00\n        /* \"#utility.yul\":1414:1452   */\n      tag_39\n        /* \"#utility.yul\":1446:1451   */\n      dup3\n        /* \"#utility.yul\":1414:1452   */\n      tag_40\n      jump\t// in\n    tag_39:\n        /* \"#utility.yul\":1468:1538   */\n      tag_41\n        /* \"#utility.yul\":1531:1537   */\n      dup2\n        /* \"#utility.yul\":1526:1529   */\n      dup6\n        /* \"#utility.yul\":1468:1538   */\n      tag_42\n      jump\t// in\n    tag_41:\n        /* \"#utility.yul\":1461:1538   */\n      swap4\n      pop\n        /* \"#utility.yul\":1547:1599   */\n      tag_43\n        /* \"#utility.yul\":1592:1598   */\n      dup2\n        /* \"#utility.yul\":1587:1590   */\n      dup6\n        /* \"#utility.yul\":1580:1584   */\n      0x20\n        /* \"#utility.yul\":1573:1578   */\n      dup7\n        /* \"#utility.yul\":1569:1585   */\n      add\n        /* \"#utility.yul\":1547:1599   */\n      tag_44\n      jump\t// in\n    tag_43:\n        /* \"#utility.yul\":1624:1653   */\n      tag_45\n        /* \"#utility.yul\":1646:1652   */\n      dup2\n        /* \"#utility.yul\":1624:1653   */\n      tag_46\n      jump\t// in\n    tag_45:\n        /* \"#utility.yul\":1619:1622   */\n      dup5\n        /* \"#utility.yul\":1615:1654   */\n      add\n        /* \"#utility.yul\":1608:1654   */\n      swap2\n      pop\n        /* \"#utility.yul\":1390:1660   */\n      pop\n        /* \"#utility.yul\":1300:1660   */\n      swap3\n      swap2\n      pop\n      pop\n      jump\t// out\n        /* \"#utility.yul\":1666:2030   */\n    tag_47:\n        /* \"#utility.yul\":1754:1757   */\n      0x00\n        /* \"#utility.yul\":1782:1821   */\n      tag_49\n        /* \"#utility.yul\":1815:1820   */\n      dup3\n        /* \"#utility.yul\":1782:1821   */\n      tag_50\n      jump\t// in\n    tag_49:\n        /* \"#utility.yul\":1837:1908   */\n      tag_51\n        /* \"#utility.yul\":1901:1907   */\n      dup2\n        /* \"#utility.yul\":1896:1899   */\n      dup6\n        /* \"#utility.yul\":1837:1908   */\n      tag_52\n      jump\t// in\n    tag_51:\n        /* \"#utility.yul\":1830:1908   */\n      swap4\n      pop\n        /* \"#utility.yul\":1917:1969   */\n      tag_53\n        /* \"#utility.yul\":1962:1968   */\n      dup2\n        /* \"#utility.yul\":1957:1960   */\n      dup6\n        /* \"#utility.yul\":1950:1954   */\n      0x20\n        /* \"#utility.yul\":1943:1948   */\n      dup7\n        /* \"#utility.yul\":1939:1955   */\n      add\n        /* \"#utility.yul\":1917:1969   */\n      tag_44\n      jump\t// in\n    tag_53:\n        /* \"#utility.yul\":1994:2023   */\n      tag_54\n        /* \"#utility.yul\":2016:2022   */\n      dup2\n        /* \"#utility.yul\":1994:2023   */\n      tag_46\n      jump\t// in\n    tag_54:\n        /* \"#utility.yul\":1989:1992   */\n      dup5\n        /* \"#utility.yul\":1985:2024   */\n      add\n        /* \"#utility.yul\":1978:2024   */\n      swap2\n      pop\n        /* \"#utility.yul\":1758:2030   */\n      pop\n        /* \"#utility.yul\":1666:2030   */\n      swap3\n      swap2\n      pop\n      pop\n      jump\t// out\n        /* \"#utility.yul\":2036:2154   */\n    tag_55:\n        /* \"#utility.yul\":2123:2147   */\n      tag_57\n        /* \"#utility.yul\":2141:2146   */\n      dup2\n        /* \"#utility.yul\":2123:2147   */\n      tag_58\n      jump\t// in\n    tag_57:\n        /* \"#utility.yul\":2118:2121   */\n      dup3\n        /* \"#utility.yul\":2111:2148   */\n      mstore\n        /* \"#utility.yul\":2036:2154   */\n      pop\n      pop\n      jump\t// out\n        /* \"#utility.yul\":2160:2780   */\n    tag_9:\n        /* \"#utility.yul\":2347:2351   */\n      0x00\n        /* \"#utility.yul\":2385:2387   */\n      0x60\n        /* \"#utility.yul\":2374:2383   */\n      dup3\n        /* \"#utility.yul\":2370:2388   */\n      add\n        /* \"#utility.yul\":2362:2388   */\n      swap1\n      pop\n        /* \"#utility.yul\":2398:2469   */\n      tag_60\n        /* \"#utility.yul\":2466:2467   */\n      0x00\n        /* \"#utility.yul\":2455:2464   */\n      dup4\n        /* \"#utility.yul\":2451:2468   */\n      add\n        /* \"#utility.yul\":2442:2448   */\n      dup7\n        /* \"#utility.yul\":2398:2469   */\n      tag_55\n      jump\t// in\n    tag_60:\n        /* \"#utility.yul\":2516:2525   */\n      dup2\n        /* \"#utility.yul\":2510:2514   */\n      dup2\n        /* \"#utility.yul\":2506:2526   */\n      sub\n        /* \"#utility.yul\":2501:2503   */\n      0x20\n        /* \"#utility.yul\":2490:2499   */\n      dup4\n        /* \"#utility.yul\":2486:2504   */\n      add\n        /* \"#utility.yul\":2479:2527   */\n      mstore\n        /* \"#utility.yul\":2544:2622   */\n      tag_61\n        /* \"#utility.yul\":2617:2621   */\n      dup2\n        /* \"#utility.yul\":2608:2614   */\n      dup6\n        /* \"#utility.yul\":2544:2622   */\n      tag_47\n      jump\t// in\n    tag_61:\n        /* \"#utility.yul\":2536:2622   */\n      swap1\n      pop\n        /* \"#utility.yul\":2669:2678   */\n      dup2\n        /* \"#utility.yul\":2663:2667   */\n      dup2\n        /* \"#utility.yul\":2659:2679   */\n      sub\n        /* \"#utility.yul\":2654:2656   */\n      0x40\n        /* \"#utility.yul\":2643:2652   */\n      dup4\n        /* \"#utility.yul\":2639:2657   */\n      add\n        /* \"#utility.yul\":2632:2680   */\n      mstore\n        /* \"#utility.yul\":2697:2773   */\n      tag_62\n        /* \"#utility.yul\":2768:2772   */\n      dup2\n        /* \"#utility.yul\":2759:2765   */\n      dup5\n        /* \"#utility.yul\":2697:2773   */\n      tag_37\n      jump\t// in\n    tag_62:\n        /* \"#utility.yul\":2689:2773   */\n      swap1\n      pop\n        /* \"#utility.yul\":2160:2780   */\n      swap5\n      swap4\n      pop\n      pop\n      pop\n      pop\n      jump\t// out\n        /* \"#utility.yul\":2786:2915   */\n    tag_17:\n        /* \"#utility.yul\":2820:2826   */\n      0x00\n        /* \"#utility.yul\":2847:2867   */\n      tag_64\n      tag_65\n      jump\t// in\n    tag_64:\n        /* \"#utility.yul\":2837:2867   */\n      swap1\n      pop\n        /* \"#utility.yul\":2876:2909   */\n      tag_66\n        /* \"#utility.yul\":2904:2908   */\n      dup3\n        /* \"#utility.yul\":2896:2902   */\n      dup3\n        /* \"#utility.yul\":2876:2909   */\n      tag_67\n      jump\t// in\n    tag_66:\n        /* \"#utility.yul\":2786:2915   */\n      swap2\n      swap1\n      pop\n      jump\t// out\n        /* \"#utility.yul\":2921:2996   */\n    tag_65:\n        /* \"#utility.yul\":2954:2960   */\n      0x00\n        /* \"#utility.yul\":2987:2989   */\n      0x40\n        /* \"#utility.yul\":2981:2990   */\n      mload\n        /* \"#utility.yul\":2971:2990   */\n      swap1\n      pop\n        /* \"#utility.yul\":2921:2996   */\n      swap1\n      jump\t// out\n        /* \"#utility.yul\":3002:3310   */\n    tag_16:\n        /* \"#utility.yul\":3064:3068   */\n      0x00\n        /* \"#utility.yul\":3154:3172   */\n      0xffffffffffffffff\n        /* \"#utility.yul\":3146:3152   */\n      dup3\n        /* \"#utility.yul\":3143:3173   */\n      gt\n        /* \"#utility.yul\":3140:3196   */\n      iszero\n      tag_70\n      jumpi\n        /* \"#utility.yul\":3176:3194   */\n      tag_71\n      tag_72\n      jump\t// in\n    tag_71:\n        /* \"#utility.yul\":3140:3196   */\n    tag_70:\n        /* \"#utility.yul\":3214:3243   */\n      tag_73\n        /* \"#utility.yul\":3236:3242   */\n      dup3\n        /* \"#utility.yul\":3214:3243   */\n      tag_46\n      jump\t// in\n    tag_73:\n        /* \"#utility.yul\":3206:3243   */\n      swap1\n      pop\n        /* \"#utility.yul\":3298:3302   */\n      0x20\n        /* \"#utility.yul\":3292:3296   */\n      dup2\n        /* \"#utility.yul\":3288:3303   */\n      add\n        /* \"#utility.yul\":3280:3303   */\n      swap1\n      pop\n        /* \"#utility.yul\":3002:3310   */\n      swap2\n      swap1\n      pop\n      jump\t// out\n        /* \"#utility.yul\":3316:3414   */\n    tag_40:\n        /* \"#utility.yul\":3367:3373   */\n      0x00\n        /* \"#utility.yul\":3401:3406   */\n      dup2\n        /* \"#utility.yul\":3395:3407   */\n      mload\n        /* \"#utility.yul\":3385:3407   */\n      swap1\n      pop\n        /* \"#utility.yul\":3316:3414   */\n      swap2\n      swap1\n      pop\n      jump\t// out\n        /* \"#utility.yul\":3420:3519   */\n    tag_50:\n        /* \"#utility.yul\":3472:3478   */\n      0x00\n        /* \"#utility.yul\":3506:3511   */\n      dup2\n        /* \"#utility.yul\":3500:3512   */\n      mload\n        /* \"#utility.yul\":3490:3512   */\n      swap1\n      pop\n        /* \"#utility.yul\":3420:3519   */\n      swap2\n      swap1\n      pop\n      jump\t// out\n        /* \"#utility.yul\":3525:3693   */\n    tag_42:\n        /* \"#utility.yul\":3608:3619   */\n      0x00\n        /* \"#utility.yul\":3642:3648   */\n      dup3\n        /* \"#utility.yul\":3637:3640   */\n      dup3\n        /* \"#utility.yul\":3630:3649   */\n      mstore\n        /* \"#utility.yul\":3682:3686   */\n      0x20\n        /* \"#utility.yul\":3677:3680   */\n      dup3\n        /* \"#utility.yul\":3673:3687   */\n      add\n        /* \"#utility.yul\":3658:3687   */\n      swap1\n      pop\n        /* \"#utility.yul\":3525:3693   */\n      swap3\n      swap2\n      pop\n      pop\n      jump\t// out\n        /* \"#utility.yul\":3699:3868   */\n    tag_52:\n        /* \"#utility.yul\":3783:3794   */\n      0x00\n        /* \"#utility.yul\":3817:3823   */\n      dup3\n        /* \"#utility.yul\":3812:3815   */\n      dup3\n        /* \"#utility.yul\":3805:3824   */\n      mstore\n        /* \"#utility.yul\":3857:3861   */\n      0x20\n        /* \"#utility.yul\":3852:3855   */\n      dup3\n        /* \"#utility.yul\":3848:3862   */\n      add\n        /* \"#utility.yul\":3833:3862   */\n      swap1\n      pop\n        /* \"#utility.yul\":3699:3868   */\n      swap3\n      swap2\n      pop\n      pop\n      jump\t// out\n        /* \"#utility.yul\":3874:3951   */\n    tag_58:\n        /* \"#utility.yul\":3911:3918   */\n      0x00\n        /* \"#utility.yul\":3940:3945   */\n      dup2\n        /* \"#utility.yul\":3929:3945   */\n      swap1\n      pop\n        /* \"#utility.yul\":3874:3951   */\n      swap2\n      swap1\n      pop\n      jump\t// out\n        /* \"#utility.yul\":3957:4111   */\n    tag_22:\n        /* \"#utility.yul\":4041:4047   */\n      dup3\n        /* \"#utility.yul\":4036:4039   */\n      dup2\n        /* \"#utility.yul\":4031:4034   */\n      dup4\n        /* \"#utility.yul\":4018:4048   */\n      calldatacopy\n        /* \"#utility.yul\":4103:4104   */\n      0x00\n        /* \"#utility.yul\":4094:4100   */\n      dup4\n        /* \"#utility.yul\":4089:4092   */\n      dup4\n        /* \"#utility.yul\":4085:4101   */\n      add\n        /* \"#utility.yul\":4078:4105   */\n      mstore\n        /* \"#utility.yul\":3957:4111   */\n      pop\n      pop\n      pop\n      jump\t// out\n        /* \"#utility.yul\":4117:4424   */\n    tag_44:\n        /* \"#utility.yul\":4185:4186   */\n      0x00\n        /* \"#utility.yul\":4195:4308   */\n    tag_81:\n        /* \"#utility.yul\":4209:4215   */\n      dup4\n        /* \"#utility.yul\":4206:4207   */\n      dup2\n        /* \"#utility.yul\":4203:4216   */\n      lt\n        /* \"#utility.yul\":4195:4308   */\n      iszero\n      tag_83\n      jumpi\n        /* \"#utility.yul\":4294:4295   */\n      dup1\n        /* \"#utility.yul\":4289:4292   */\n      dup3\n        /* \"#utility.yul\":4285:4296   */\n      add\n        /* \"#utility.yul\":4279:4297   */\n      mload\n        /* \"#utility.yul\":4275:4276   */\n      dup2\n        /* \"#utility.yul\":4270:4273   */\n      dup5\n        /* \"#utility.yul\":4266:4277   */\n      add\n        /* \"#utility.yul\":4259:4298   */\n      mstore\n        /* \"#utility.yul\":4231:4233   */\n      0x20\n        /* \"#utility.yul\":4228:4229   */\n      dup2\n        /* \"#utility.yul\":4224:4234   */\n      add\n        /* \"#utility.yul\":4219:4234   */\n      swap1\n      pop\n        /* \"#utility.yul\":4195:4308   */\n      jump(tag_81)\n    tag_83:\n        /* \"#utility.yul\":4326:4332   */\n      dup4\n        /* \"#utility.yul\":4323:4324   */\n      dup2\n        /* \"#utility.yul\":4320:4333   */\n      gt\n        /* \"#utility.yul\":4317:4418   */\n      iszero\n      tag_84\n      jumpi\n        /* \"#utility.yul\":4406:4407   */\n      0x00\n        /* \"#utility.yul\":4397:4403   */\n      dup5\n        /* \"#utility.yul\":4392:4395   */\n      dup5\n        /* \"#utility.yul\":4388:4404   */\n      add\n        /* \"#utility.yul\":4381:4408   */\n      mstore\n        /* \"#utility.yul\":4317:4418   */\n    tag_84:\n        /* \"#utility.yul\":4166:4424   */\n      pop\n        /* \"#utility.yul\":4117:4424   */\n      pop\n      pop\n      pop\n      jump\t// out\n        /* \"#utility.yul\":4430:4711   */\n    tag_67:\n        /* \"#utility.yul\":4513:4540   */\n      tag_86\n        /* \"#utility.yul\":4535:4539   */\n      dup3\n        /* \"#utility.yul\":4513:4540   */\n      tag_46\n      jump\t// in\n    tag_86:\n        /* \"#utility.yul\":4505:4511   */\n      dup2\n        /* \"#utility.yul\":4501:4541   */\n      add\n        /* \"#utility.yul\":4643:4649   */\n      dup2\n        /* \"#utility.yul\":4631:4641   */\n      dup2\n        /* \"#utility.yul\":4628:4650   */\n      lt\n        /* \"#utility.yul\":4607:4625   */\n      0xffffffffffffffff\n        /* \"#utility.yul\":4595:4605   */\n      dup3\n        /* \"#utility.yul\":4592:4626   */\n      gt\n        /* \"#utility.yul\":4589:4651   */\n      or\n        /* \"#utility.yul\":4586:4674   */\n      iszero\n      tag_87\n      jumpi\n        /* \"#utility.yul\":4654:4672   */\n      tag_88\n      tag_72\n      jump\t// in\n    tag_88:\n        /* \"#utility.yul\":4586:4674   */\n    tag_87:\n        /* \"#utility.yul\":4694:4704   */\n      dup1\n        /* \"#utility.yul\":4690:4692   */\n      0x40\n        /* \"#utility.yul\":4683:4705   */\n      mstore\n        /* \"#utility.yul\":4473:4711   */\n      pop\n        /* \"#utility.yul\":4430:4711   */\n      pop\n      pop\n      jump\t// out\n        /* \"#utility.yul\":4717:4897   */\n    tag_72:\n        /* \"#utility.yul\":4765:4842   */\n      0x4e487b7100000000000000000000000000000000000000000000000000000000\n        /* \"#utility.yul\":4762:4763   */\n      0x00\n        /* \"#utility.yul\":4755:4843   */\n      mstore\n        /* \"#utility.yul\":4862:4866   */\n      0x41\n        /* \"#utility.yul\":4859:4860   */\n      0x04\n        /* \"#utility.yul\":4852:4867   */\n      mstore\n        /* \"#utility.yul\":4886:4890   */\n      0x24\n        /* \"#utility.yul\":4883:4884   */\n      0x00\n        /* \"#utility.yul\":4876:4891   */\n      revert\n        /* \"#utility.yul\":4903:5020   */\n    tag_27:\n        /* \"#utility.yul\":5012:5013   */\n      0x00\n        /* \"#utility.yul\":5009:5010   */\n      dup1\n        /* \"#utility.yul\":5002:5014   */\n      revert\n        /* \"#utility.yul\":5026:5143   */\n    tag_20:\n        /* \"#utility.yul\":5135:5136   */\n      0x00\n        /* \"#utility.yul\":5132:5133   */\n      dup1\n        /* \"#utility.yul\":5125:5137   */\n      revert\n        /* \"#utility.yul\":5149:5266   */\n    tag_35:\n        /* \"#utility.yul\":5258:5259   */\n      0x00\n        /* \"#utility.yul\":5255:5256   */\n      dup1\n        /* \"#utility.yul\":5248:5260   */\n      revert\n        /* \"#utility.yul\":5272:5389   */\n    tag_32:\n        /* \"#utility.yul\":5381:5382   */\n      0x00\n        /* \"#utility.yul\":5378:5379   */\n      dup1\n        /* \"#utility.yul\":5371:5383   */\n      revert\n        /* \"#utility.yul\":5395:5497   */\n    tag_46:\n        /* \"#utility.yul\":5436:5442   */\n      0x00\n        /* \"#utility.yul\":5487:5489   */\n      0x1f\n        /* \"#utility.yul\":5483:5490   */\n      not\n        /* \"#utility.yul\":5478:5480   */\n      0x1f\n        /* \"#utility.yul\":5471:5476   */\n      dup4\n        /* \"#utility.yul\":5467:5481   */\n      add\n        /* \"#utility.yul\":5463:5491   */\n      and\n        /* \"#utility.yul\":5453:5491   */\n      swap1\n      pop\n        /* \"#utility.yul\":5395:5497   */\n      swap2\n      swap1\n      pop\n      jump\t// out\n\n    auxdata: 0xa264697066735822122050ff2ff4a23ccec8df9f76a2bfc2d5baaa11021b581305a3b40e5e64017e90b464736f6c63430008070033\n}\n",
				"bytecode": {
					"linkReferences": {},
					"object": "608060405234801561001057600080fd5b506103cd806100206000396000f3fe608060405234801561001057600080fd5b506004361061002b5760003560e01c8063d2d1dd7214610030575b600080fd5b61004a60048036038101906100459190610129565b610062565b604051610059939291906101f3565b60405180910390f35b60006060806000605a905060006040518060400160405280600181526020017f0100000000000000000000000000000000000000000000000000000000000000815250905081868294509450945050509193909250565b60006100cc6100c78461025d565b610238565b9050828152602081018484840111156100e8576100e7610377565b5b6100f38482856102d0565b509392505050565b600082601f8301126101105761010f610372565b5b81356101208482602086016100b9565b91505092915050565b60006020828403121561013f5761013e610381565b5b600082013567ffffffffffffffff81111561015d5761015c61037c565b5b610169848285016100fb565b91505092915050565b600061017d8261028e565b61018781856102a4565b93506101978185602086016102df565b6101a081610386565b840191505092915050565b60006101b682610299565b6101c081856102b5565b93506101d08185602086016102df565b6101d981610386565b840191505092915050565b6101ed816102c6565b82525050565b600060608201905061020860008301866101e4565b818103602083015261021a81856101ab565b9050818103604083015261022e8184610172565b9050949350505050565b6000610242610253565b905061024e8282610312565b919050565b6000604051905090565b600067ffffffffffffffff82111561027857610277610343565b5b61028182610386565b9050602081019050919050565b600081519050919050565b600081519050919050565b600082825260208201905092915050565b600082825260208201905092915050565b6000819050919050565b82818337600083830152505050565b60005b838110156102fd5780820151818401526020810190506102e2565b8381111561030c576000848401525b50505050565b61031b82610386565b810181811067ffffffffffffffff8211171561033a57610339610343565b5b80604052505050565b7f4e487b7100000000000000000000000000000000000000000000000000000000600052604160045260246000fd5b600080fd5b600080fd5b600080fd5b600080fd5b6000601f19601f830116905091905056fea264697066735822122050ff2ff4a23ccec8df9f76a2bfc2d5baaa11021b581305a3b40e5e64017e90b464736f6c63430008070033",
					"opcodes": "PUSH1 0x80 PUSH1 0x40 MSTORE CALLVALUE DUP1 ISZERO PUSH2 0x10 JUMPI PUSH1 0x0 DUP1 REVERT JUMPDEST POP PUSH2 0x3CD DUP1 PUSH2 0x20 PUSH1 0x0 CODECOPY PUSH1 0x0 RETURN INVALID PUSH1 0x80 PUSH1 0x40 MSTORE CALLVALUE DUP1 ISZERO PUSH2 0x10 JUMPI PUSH1 0x0 DUP1 REVERT JUMPDEST POP PUSH1 0x4 CALLDATASIZE LT PUSH2 0x2B JUMPI PUSH1 0x0 CALLDATALOAD PUSH1 0xE0 SHR DUP1 PUSH4 0xD2D1DD72 EQ PUSH2 0x30 JUMPI JUMPDEST PUSH1 0x0 DUP1 REVERT JUMPDEST PUSH2 0x4A PUSH1 0x4 DUP1 CALLDATASIZE SUB DUP2 ADD SWAP1 PUSH2 0x45 SWAP2 SWAP1 PUSH2 0x129 JUMP JUMPDEST PUSH2 0x62 JUMP JUMPDEST PUSH1 0x40 MLOAD PUSH2 0x59 SWAP4 SWAP3 SWAP2 SWAP1 PUSH2 0x1F3 JUMP JUMPDEST PUSH1 0x40 MLOAD DUP1 SWAP2 SUB SWAP1 RETURN JUMPDEST PUSH1 0x0 PUSH1 0x60 DUP1 PUSH1 0x0 PUSH1 0x5A SWAP1 POP PUSH1 0x0 PUSH1 0x40 MLOAD DUP1 PUSH1 0x40 ADD PUSH1 0x40 MSTORE DUP1 PUSH1 0x1 DUP2 MSTORE PUSH1 0x20 ADD PUSH32 0x100000000000000000000000000000000000000000000000000000000000000 DUP2 MSTORE POP SWAP1 POP DUP2 DUP7 DUP3 SWAP5 POP SWAP5 POP SWAP5 POP POP POP SWAP2 SWAP4 SWAP1 SWAP3 POP JUMP JUMPDEST PUSH1 0x0 PUSH2 0xCC PUSH2 0xC7 DUP5 PUSH2 0x25D JUMP JUMPDEST PUSH2 0x238 JUMP JUMPDEST SWAP1 POP DUP3 DUP2 MSTORE PUSH1 0x20 DUP2 ADD DUP5 DUP5 DUP5 ADD GT ISZERO PUSH2 0xE8 JUMPI PUSH2 0xE7 PUSH2 0x377 JUMP JUMPDEST JUMPDEST PUSH2 0xF3 DUP5 DUP3 DUP6 PUSH2 0x2D0 JUMP JUMPDEST POP SWAP4 SWAP3 POP POP POP JUMP JUMPDEST PUSH1 0x0 DUP3 PUSH1 0x1F DUP4 ADD SLT PUSH2 0x110 JUMPI PUSH2 0x10F PUSH2 0x372 JUMP JUMPDEST JUMPDEST DUP2 CALLDATALOAD PUSH2 0x120 DUP5 DUP3 PUSH1 0x20 DUP7 ADD PUSH2 0xB9 JUMP JUMPDEST SWAP2 POP POP SWAP3 SWAP2 POP POP JUMP JUMPDEST PUSH1 0x0 PUSH1 0x20 DUP3 DUP5 SUB SLT ISZERO PUSH2 0x13F JUMPI PUSH2 0x13E PUSH2 0x381 JUMP JUMPDEST JUMPDEST PUSH1 0x0 DUP3 ADD CALLDATALOAD PUSH8 0xFFFFFFFFFFFFFFFF DUP2 GT ISZERO PUSH2 0x15D JUMPI PUSH2 0x15C PUSH2 0x37C JUMP JUMPDEST JUMPDEST PUSH2 0x169 DUP5 DUP3 DUP6 ADD PUSH2 0xFB JUMP JUMPDEST SWAP2 POP POP SWAP3 SWAP2 POP POP JUMP JUMPDEST PUSH1 0x0 PUSH2 0x17D DUP3 PUSH2 0x28E JUMP JUMPDEST PUSH2 0x187 DUP2 DUP6 PUSH2 0x2A4 JUMP JUMPDEST SWAP4 POP PUSH2 0x197 DUP2 DUP6 PUSH1 0x20 DUP7 ADD PUSH2 0x2DF JUMP JUMPDEST PUSH2 0x1A0 DUP2 PUSH2 0x386 JUMP JUMPDEST DUP5 ADD SWAP2 POP POP SWAP3 SWAP2 POP POP JUMP JUMPDEST PUSH1 0x0 PUSH2 0x1B6 DUP3 PUSH2 0x299 JUMP JUMPDEST PUSH2 0x1C0 DUP2 DUP6 PUSH2 0x2B5 JUMP JUMPDEST SWAP4 POP PUSH2 0x1D0 DUP2 DUP6 PUSH1 0x20 DUP7 ADD PUSH2 0x2DF JUMP JUMPDEST PUSH2 0x1D9 DUP2 PUSH2 0x386 JUMP JUMPDEST DUP5 ADD SWAP2 POP POP SWAP3 SWAP2 POP POP JUMP JUMPDEST PUSH2 0x1ED DUP2 PUSH2 0x2C6 JUMP JUMPDEST DUP3 MSTORE POP POP JUMP JUMPDEST PUSH1 0x0 PUSH1 0x60 DUP3 ADD SWAP1 POP PUSH2 0x208 PUSH1 0x0 DUP4 ADD DUP7 PUSH2 0x1E4 JUMP JUMPDEST DUP2 DUP2 SUB PUSH1 0x20 DUP4 ADD MSTORE PUSH2 0x21A DUP2 DUP6 PUSH2 0x1AB JUMP JUMPDEST SWAP1 POP DUP2 DUP2 SUB PUSH1 0x40 DUP4 ADD MSTORE PUSH2 0x22E DUP2 DUP5 PUSH2 0x172 JUMP JUMPDEST SWAP1 POP SWAP5 SWAP4 POP POP POP POP JUMP JUMPDEST PUSH1 0x0 PUSH2 0x242 PUSH2 0x253 JUMP JUMPDEST SWAP1 POP PUSH2 0x24E DUP3 DUP3 PUSH2 0x312 JUMP JUMPDEST SWAP2 SWAP1 POP JUMP JUMPDEST PUSH1 0x0 PUSH1 0x40 MLOAD SWAP1 POP SWAP1 JUMP JUMPDEST PUSH1 0x0 PUSH8 0xFFFFFFFFFFFFFFFF DUP3 GT ISZERO PUSH2 0x278 JUMPI PUSH2 0x277 PUSH2 0x343 JUMP JUMPDEST JUMPDEST PUSH2 0x281 DUP3 PUSH2 0x386 JUMP JUMPDEST SWAP1 POP PUSH1 0x20 DUP2 ADD SWAP1 POP SWAP2 SWAP1 POP JUMP JUMPDEST PUSH1 0x0 DUP2 MLOAD SWAP1 POP SWAP2 SWAP1 POP JUMP JUMPDEST PUSH1 0x0 DUP2 MLOAD SWAP1 POP SWAP2 SWAP1 POP JUMP JUMPDEST PUSH1 0x0 DUP3 DUP3 MSTORE PUSH1 0x20 DUP3 ADD SWAP1 POP SWAP3 SWAP2 POP POP JUMP JUMPDEST PUSH1 0x0 DUP3 DUP3 MSTORE PUSH1 0x20 DUP3 ADD SWAP1 POP SWAP3 SWAP2 POP POP JUMP JUMPDEST PUSH1 0x0 DUP2 SWAP1 POP SWAP2 SWAP1 POP JUMP JUMPDEST DUP3 DUP2 DUP4 CALLDATACOPY PUSH1 0x0 DUP4 DUP4 ADD MSTORE POP POP POP JUMP JUMPDEST PUSH1 0x0 JUMPDEST DUP4 DUP2 LT ISZERO PUSH2 0x2FD JUMPI DUP1 DUP3 ADD MLOAD DUP2 DUP5 ADD MSTORE PUSH1 0x20 DUP2 ADD SWAP1 POP PUSH2 0x2E2 JUMP JUMPDEST DUP4 DUP2 GT ISZERO PUSH2 0x30C JUMPI PUSH1 0x0 DUP5 DUP5 ADD MSTORE JUMPDEST POP POP POP POP JUMP JUMPDEST PUSH2 0x31B DUP3 PUSH2 0x386 JUMP JUMPDEST DUP2 ADD DUP2 DUP2 LT PUSH8 0xFFFFFFFFFFFFFFFF DUP3 GT OR ISZERO PUSH2 0x33A JUMPI PUSH2 0x339 PUSH2 0x343 JUMP JUMPDEST JUMPDEST DUP1 PUSH1 0x40 MSTORE POP POP POP JUMP JUMPDEST PUSH32 0x4E487B7100000000000000000000000000000000000000000000000000000000 PUSH1 0x0 MSTORE PUSH1 0x41 PUSH1 0x4 MSTORE PUSH1 0x24 PUSH1 0x0 REVERT JUMPDEST PUSH1 0x0 DUP1 REVERT JUMPDEST PUSH1 0x0 DUP1 REVERT JUMPDEST PUSH1 0x0 DUP1 REVERT JUMPDEST PUSH1 0x0 DUP1 REVERT JUMPDEST PUSH1 0x0 PUSH1 0x1F NOT PUSH1 0x1F DUP4 ADD AND SWAP1 POP SWAP2 SWAP1 POP JUMP INVALID LOG2 PUSH5 0x6970667358 0x22 SLT KECCAK256 POP SELFDESTRUCT 0x2F DELEGATECALL LOG2 EXTCODECOPY 0xCE 0xC8 0xDF SWAP16 PUSH23 0xA2BFC2D5BAAA11021B581305A3B40E5E64017E90B46473 PUSH16 0x6C634300080700330000000000000000 "
				},
				"gasEstimates": {
					"creation": {
						"codeDepositCost": "194600",
						"executionCost": "238",
						"totalCost": "194838"
					},
					"external": {
						"myFun(string)": "infinite"
					}
				},
				"methodIdentifiers": {
					"myFun(string)": "d2d1dd72"
				}
			},
			"storageLayout": {
				"storage": [],
				"types": null
			},
			"userdoc": {
				"kind": "user",
				"methods": {},
				"version": 1
			}
		}
	}
}