{
	"chapter3/Ex3_6.sol": {
		"Ex3_6": {
			"abi": [
				{
					"inputs": [],
					"name": "a",
					"outputs": [
						{
							"internalType": "uint256",
							"name": "",
							"type": "uint256"
						}
					],
					"stateMutability": "view",
					"type": "function"
				},
				{
					"inputs": [],
					"name": "b",
					"outputs": [
						{
							"internalType": "uint256",
							"name": "",
							"type": "uint256"
						}
					],
					"stateMutability": "view",
					"type": "function"
				},
				{
					"inputs": [],
					"name": "myFun",
					"outputs": [
						{
							"internalType": "uint256",
							"name": "",
							"type": "uint256"
						},
						{
							"internalType": "uint256",
							"name": "",
							"type": "uint256"
						}
					],
					"stateMutability": "nonpayable",
					"type": "function"
				}
			],
			"devdoc": {
				"kind": "dev",
				"methods": {},
				"version": 1
			},
			"evm": {
				"assembly": "    /* \"chapter3/Ex3_6.sol\":69:252  contract Ex3_6 {\r... */\n  mstore(0x40, 0x80)\n    /* \"chapter3/Ex3_6.sol\":107:108  3 */\n  0x03\n    /* \"chapter3/Ex3_6.sol\":91:108  uint public a = 3 */\n  0x00\n  sstore\n    /* \"chapter3/Ex3_6.sol\":131:132  5 */\n  0x05\n    /* \"chapter3/Ex3_6.sol\":115:132  uint public b = 5 */\n  0x01\n  sstore\n    /* \"chapter3/Ex3_6.sol\":69:252  contract Ex3_6 {\r... */\n  callvalue\n  dup1\n  iszero\n  tag_1\n  jumpi\n  0x00\n  dup1\n  revert\ntag_1:\n  pop\n  dataSize(sub_0)\n  dup1\n  dataOffset(sub_0)\n  0x00\n  codecopy\n  0x00\n  return\nstop\n\nsub_0: assembly {\n        /* \"chapter3/Ex3_6.sol\":69:252  contract Ex3_6 {\r... */\n      mstore(0x40, 0x80)\n      callvalue\n      dup1\n      iszero\n      tag_1\n      jumpi\n      0x00\n      dup1\n      revert\n    tag_1:\n      pop\n      jumpi(tag_2, lt(calldatasize, 0x04))\n      shr(0xe0, calldataload(0x00))\n      dup1\n      0x0dbe671f\n      eq\n      tag_3\n      jumpi\n      dup1\n      0x4df7e3d0\n      eq\n      tag_4\n      jumpi\n      dup1\n      0x75bbb4e7\n      eq\n      tag_5\n      jumpi\n    tag_2:\n      0x00\n      dup1\n      revert\n        /* \"chapter3/Ex3_6.sol\":91:108  uint public a = 3 */\n    tag_3:\n      tag_6\n      tag_7\n      jump\t// in\n    tag_6:\n      mload(0x40)\n      tag_8\n      swap2\n      swap1\n      tag_9\n      jump\t// in\n    tag_8:\n      mload(0x40)\n      dup1\n      swap2\n      sub\n      swap1\n      return\n        /* \"chapter3/Ex3_6.sol\":115:132  uint public b = 5 */\n    tag_4:\n      tag_10\n      tag_11\n      jump\t// in\n    tag_10:\n      mload(0x40)\n      tag_12\n      swap2\n      swap1\n      tag_9\n      jump\t// in\n    tag_12:\n      mload(0x40)\n      dup1\n      swap2\n      sub\n      swap1\n      return\n        /* \"chapter3/Ex3_6.sol\":139:249  function myFun() public returns(uint, uint) {\r... */\n    tag_5:\n      tag_13\n      tag_14\n      jump\t// in\n    tag_13:\n      mload(0x40)\n      tag_15\n      swap3\n      swap2\n      swap1\n      tag_16\n      jump\t// in\n    tag_15:\n      mload(0x40)\n      dup1\n      swap2\n      sub\n      swap1\n      return\n        /* \"chapter3/Ex3_6.sol\":91:108  uint public a = 3 */\n    tag_7:\n      sload(0x00)\n      dup2\n      jump\t// out\n        /* \"chapter3/Ex3_6.sol\":115:132  uint public b = 5 */\n    tag_11:\n      sload(0x01)\n      dup2\n      jump\t// out\n        /* \"chapter3/Ex3_6.sol\":139:249  function myFun() public returns(uint, uint) {\r... */\n    tag_14:\n        /* \"chapter3/Ex3_6.sol\":171:175  uint */\n      0x00\n        /* \"chapter3/Ex3_6.sol\":177:181  uint */\n      dup1\n        /* \"chapter3/Ex3_6.sol\":198:201  100 */\n      0x64\n        /* \"chapter3/Ex3_6.sol\":194:195  a */\n      0x00\n        /* \"chapter3/Ex3_6.sol\":194:201  a = 100 */\n      dup2\n      swap1\n      sstore\n      pop\n        /* \"chapter3/Ex3_6.sol\":216:217  0 */\n      0x00\n        /* \"chapter3/Ex3_6.sol\":212:213  b */\n      0x01\n        /* \"chapter3/Ex3_6.sol\":212:217  b = 0 */\n      dup2\n      swap1\n      sstore\n      pop\n        /* \"chapter3/Ex3_6.sol\":236:237  a */\n      sload(0x00)\n        /* \"chapter3/Ex3_6.sol\":239:240  b */\n      sload(0x01)\n        /* \"chapter3/Ex3_6.sol\":228:241  return (a, b) */\n      swap2\n      pop\n      swap2\n      pop\n        /* \"chapter3/Ex3_6.sol\":139:249  function myFun() public returns(uint, uint) {\r... */\n      swap1\n      swap2\n      jump\t// out\n        /* \"#utility.yul\":7:125   */\n    tag_19:\n        /* \"#utility.yul\":94:118   */\n      tag_21\n        /* \"#utility.yul\":112:117   */\n      dup2\n        /* \"#utility.yul\":94:118   */\n      tag_22\n      jump\t// in\n    tag_21:\n        /* \"#utility.yul\":89:92   */\n      dup3\n        /* \"#utility.yul\":82:119   */\n      mstore\n        /* \"#utility.yul\":7:125   */\n      pop\n      pop\n      jump\t// out\n        /* \"#utility.yul\":131:353   */\n    tag_9:\n        /* \"#utility.yul\":224:228   */\n      0x00\n        /* \"#utility.yul\":262:264   */\n      0x20\n        /* \"#utility.yul\":251:260   */\n      dup3\n        /* \"#utility.yul\":247:265   */\n      add\n        /* \"#utility.yul\":239:265   */\n      swap1\n      pop\n        /* \"#utility.yul\":275:346   */\n      tag_24\n        /* \"#utility.yul\":343:344   */\n      0x00\n        /* \"#utility.yul\":332:341   */\n      dup4\n        /* \"#utility.yul\":328:345   */\n      add\n        /* \"#utility.yul\":319:325   */\n      dup5\n        /* \"#utility.yul\":275:346   */\n      tag_19\n      jump\t// in\n    tag_24:\n        /* \"#utility.yul\":131:353   */\n      swap3\n      swap2\n      pop\n      pop\n      jump\t// out\n        /* \"#utility.yul\":359:691   */\n    tag_16:\n        /* \"#utility.yul\":480:484   */\n      0x00\n        /* \"#utility.yul\":518:520   */\n      0x40\n        /* \"#utility.yul\":507:516   */\n      dup3\n        /* \"#utility.yul\":503:521   */\n      add\n        /* \"#utility.yul\":495:521   */\n      swap1\n      pop\n        /* \"#utility.yul\":531:602   */\n      tag_26\n        /* \"#utility.yul\":599:600   */\n      0x00\n        /* \"#utility.yul\":588:597   */\n      dup4\n        /* \"#utility.yul\":584:601   */\n      add\n        /* \"#utility.yul\":575:581   */\n      dup6\n        /* \"#utility.yul\":531:602   */\n      tag_19\n      jump\t// in\n    tag_26:\n        /* \"#utility.yul\":612:684   */\n      tag_27\n        /* \"#utility.yul\":680:682   */\n      0x20\n        /* \"#utility.yul\":669:678   */\n      dup4\n        /* \"#utility.yul\":665:683   */\n      add\n        /* \"#utility.yul\":656:662   */\n      dup5\n        /* \"#utility.yul\":612:684   */\n      tag_19\n      jump\t// in\n    tag_27:\n        /* \"#utility.yul\":359:691   */\n      swap4\n      swap3\n      pop\n      pop\n      pop\n      jump\t// out\n        /* \"#utility.yul\":697:774   */\n    tag_22:\n        /* \"#utility.yul\":734:741   */\n      0x00\n        /* \"#utility.yul\":763:768   */\n      dup2\n        /* \"#utility.yul\":752:768   */\n      swap1\n      pop\n        /* \"#utility.yul\":697:774   */\n      swap2\n      swap1\n      pop\n      jump\t// out\n\n    auxdata: 0xa264697066735822122081b7a79d5ce7bb3a702cc5c4b5ee2d0af39238859ea892a8c986f6839982c14064736f6c63430008070033\n}\n",
				"bytecode": {
					"linkReferences": {},
					"object": "60806040526003600055600560015534801561001a57600080fd5b506101618061002a6000396000f3fe608060405234801561001057600080fd5b50600436106100415760003560e01c80630dbe671f146100465780634df7e3d01461006457806375bbb4e714610082575b600080fd5b61004e6100a1565b60405161005b91906100dd565b60405180910390f35b61006c6100a7565b60405161007991906100dd565b60405180910390f35b61008a6100ad565b6040516100989291906100f8565b60405180910390f35b60005481565b60015481565b60008060646000819055506000600181905550600054600154915091509091565b6100d781610121565b82525050565b60006020820190506100f260008301846100ce565b92915050565b600060408201905061010d60008301856100ce565b61011a60208301846100ce565b9392505050565b600081905091905056fea264697066735822122081b7a79d5ce7bb3a702cc5c4b5ee2d0af39238859ea892a8c986f6839982c14064736f6c63430008070033",
					"opcodes": "PUSH1 0x80 PUSH1 0x40 MSTORE PUSH1 0x3 PUSH1 0x0 SSTORE PUSH1 0x5 PUSH1 0x1 SSTORE CALLVALUE DUP1 ISZERO PUSH2 0x1A JUMPI PUSH1 0x0 DUP1 REVERT JUMPDEST POP PUSH2 0x161 DUP1 PUSH2 0x2A PUSH1 0x0 CODECOPY PUSH1 0x0 RETURN INVALID PUSH1 0x80 PUSH1 0x40 MSTORE CALLVALUE DUP1 ISZERO PUSH2 0x10 JUMPI PUSH1 0x0 DUP1 REVERT JUMPDEST POP PUSH1 0x4 CALLDATASIZE LT PUSH2 0x41 JUMPI PUSH1 0x0 CALLDATALOAD PUSH1 0xE0 SHR DUP1 PUSH4 0xDBE671F EQ PUSH2 0x46 JUMPI DUP1 PUSH4 0x4DF7E3D0 EQ PUSH2 0x64 JUMPI DUP1 PUSH4 0x75BBB4E7 EQ PUSH2 0x82 JUMPI JUMPDEST PUSH1 0x0 DUP1 REVERT JUMPDEST PUSH2 0x4E PUSH2 0xA1 JUMP JUMPDEST PUSH1 0x40 MLOAD PUSH2 0x5B SWAP2 SWAP1 PUSH2 0xDD JUMP JUMPDEST PUSH1 0x40 MLOAD DUP1 SWAP2 SUB SWAP1 RETURN JUMPDEST PUSH2 0x6C PUSH2 0xA7 JUMP JUMPDEST PUSH1 0x40 MLOAD PUSH2 0x79 SWAP2 SWAP1 PUSH2 0xDD JUMP JUMPDEST PUSH1 0x40 MLOAD DUP1 SWAP2 SUB SWAP1 RETURN JUMPDEST PUSH2 0x8A PUSH2 0xAD JUMP JUMPDEST PUSH1 0x40 MLOAD PUSH2 0x98 SWAP3 SWAP2 SWAP1 PUSH2 0xF8 JUMP JUMPDEST PUSH1 0x40 MLOAD DUP1 SWAP2 SUB SWAP1 RETURN JUMPDEST PUSH1 0x0 SLOAD DUP2 JUMP JUMPDEST PUSH1 0x1 SLOAD DUP2 JUMP JUMPDEST PUSH1 0x0 DUP1 PUSH1 0x64 PUSH1 0x0 DUP2 SWAP1 SSTORE POP PUSH1 0x0 PUSH1 0x1 DUP2 SWAP1 SSTORE POP PUSH1 0x0 SLOAD PUSH1 0x1 SLOAD SWAP2 POP SWAP2 POP SWAP1 SWAP2 JUMP JUMPDEST PUSH2 0xD7 DUP2 PUSH2 0x121 JUMP JUMPDEST DUP3 MSTORE POP POP JUMP JUMPDEST PUSH1 0x0 PUSH1 0x20 DUP3 ADD SWAP1 POP PUSH2 0xF2 PUSH1 0x0 DUP4 ADD DUP5 PUSH2 0xCE JUMP JUMPDEST SWAP3 SWAP2 POP POP JUMP JUMPDEST PUSH1 0x0 PUSH1 0x40 DUP3 ADD SWAP1 POP PUSH2 0x10D PUSH1 0x0 DUP4 ADD DUP6 PUSH2 0xCE JUMP JUMPDEST PUSH2 0x11A PUSH1 0x20 DUP4 ADD DUP5 PUSH2 0xCE JUMP JUMPDEST SWAP4 SWAP3 POP POP POP JUMP JUMPDEST PUSH1 0x0 DUP2 SWAP1 POP SWAP2 SWAP1 POP JUMP INVALID LOG2 PUSH5 0x6970667358 0x22 SLT KECCAK256 DUP2 0xB7 0xA7 SWAP14 0x5C 0xE7 0xBB GASPRICE PUSH17 0x2CC5C4B5EE2D0AF39238859EA892A8C986 0xF6 DUP4 SWAP10 DUP3 0xC1 BLOCKHASH PUSH5 0x736F6C6343 STOP ADDMOD SMOD STOP CALLER "
				},
				"gasEstimates": {
					"creation": {
						"codeDepositCost": "70600",
						"executionCost": "44335",
						"totalCost": "114935"
					},
					"external": {
						"a()": "2407",
						"b()": "2429",
						"myFun()": "infinite"
					}
				},
				"methodIdentifiers": {
					"a()": "0dbe671f",
					"b()": "4df7e3d0",
					"myFun()": "75bbb4e7"
				}
			},
			"storageLayout": {
				"storage": [
					{
						"astId": 4,
						"contract": "chapter3/Ex3_6.sol:Ex3_6",
						"label": "a",
						"offset": 0,
						"slot": "0",
						"type": "t_uint256"
					},
					{
						"astId": 7,
						"contract": "chapter3/Ex3_6.sol:Ex3_6",
						"label": "b",
						"offset": 0,
						"slot": "1",
						"type": "t_uint256"
					}
				],
				"types": {
					"t_uint256": {
						"encoding": "inplace",
						"label": "uint256",
						"numberOfBytes": "32"
					}
				}
			},
			"userdoc": {
				"kind": "user",
				"methods": {},
				"version": 1
			}
		}
	}
}