{
	"chapter3/Ex3_18.sol": {
		"Ex3_18": {
			"abi": [
				{
					"inputs": [],
					"name": "funExt",
					"outputs": [
						{
							"internalType": "uint256",
							"name": "",
							"type": "uint256"
						},
						{
							"internalType": "uint256",
							"name": "",
							"type": "uint256"
						},
						{
							"internalType": "uint256",
							"name": "",
							"type": "uint256"
						}
					],
					"stateMutability": "view",
					"type": "function"
				},
				{
					"inputs": [],
					"name": "funPub",
					"outputs": [
						{
							"internalType": "uint256",
							"name": "",
							"type": "uint256"
						},
						{
							"internalType": "uint256",
							"name": "",
							"type": "uint256"
						},
						{
							"internalType": "uint256",
							"name": "",
							"type": "uint256"
						}
					],
					"stateMutability": "view",
					"type": "function"
				},
				{
					"inputs": [],
					"name": "pub",
					"outputs": [
						{
							"internalType": "uint256",
							"name": "",
							"type": "uint256"
						}
					],
					"stateMutability": "view",
					"type": "function"
				}
			],
			"devdoc": {
				"kind": "dev",
				"methods": {},
				"version": 1
			},
			"evm": {
				"assembly": "    /* \"chapter3/Ex3_18.sol\":69:645  contract Ex3_18 {\r... */\n  mstore(0x40, 0x80)\n    /* \"chapter3/Ex3_18.sol\":110:111  1 */\n  0x01\n    /* \"chapter3/Ex3_18.sol\":92:111  uint public pub = 1 */\n  0x00\n  sstore\n    /* \"chapter3/Ex3_18.sol\":137:138  2 */\n  0x02\n    /* \"chapter3/Ex3_18.sol\":118:138  uint private pri = 2 */\n  0x01\n  sstore\n    /* \"chapter3/Ex3_18.sol\":167:168  3 */\n  0x03\n    /* \"chapter3/Ex3_18.sol\":145:168  uint internal inter = 3 */\n  0x02\n  sstore\n    /* \"chapter3/Ex3_18.sol\":69:645  contract Ex3_18 {\r... */\n  callvalue\n  dup1\n  iszero\n  tag_1\n  jumpi\n  0x00\n  dup1\n  revert\ntag_1:\n  pop\n  dataSize(sub_0)\n  dup1\n  dataOffset(sub_0)\n  0x00\n  codecopy\n  0x00\n  return\nstop\n\nsub_0: assembly {\n        /* \"chapter3/Ex3_18.sol\":69:645  contract Ex3_18 {\r... */\n      mstore(0x40, 0x80)\n      callvalue\n      dup1\n      iszero\n      tag_1\n      jumpi\n      0x00\n      dup1\n      revert\n    tag_1:\n      pop\n      jumpi(tag_2, lt(calldatasize, 0x04))\n      shr(0xe0, calldataload(0x00))\n      dup1\n      0x03383d95\n      eq\n      tag_3\n      jumpi\n      dup1\n      0x7defb410\n      eq\n      tag_4\n      jumpi\n      dup1\n      0xbfc3ef44\n      eq\n      tag_5\n      jumpi\n    tag_2:\n      0x00\n      dup1\n      revert\n        /* \"chapter3/Ex3_18.sol\":207:307  function funPub() public view returns (uint, uint, uint) {\r... */\n    tag_3:\n      tag_6\n      tag_7\n      jump\t// in\n    tag_6:\n      mload(0x40)\n      tag_8\n      swap4\n      swap3\n      swap2\n      swap1\n      tag_9\n      jump\t// in\n    tag_8:\n      mload(0x40)\n      dup1\n      swap2\n      sub\n      swap1\n      return\n        /* \"chapter3/Ex3_18.sol\":92:111  uint public pub = 1 */\n    tag_4:\n      tag_10\n      tag_11\n      jump\t// in\n    tag_10:\n      mload(0x40)\n      tag_12\n      swap2\n      swap1\n      tag_13\n      jump\t// in\n    tag_12:\n      mload(0x40)\n      dup1\n      swap2\n      sub\n      swap1\n      return\n        /* \"chapter3/Ex3_18.sol\":533:635  function funExt() external view returns (uint, uint, uint) {\r... */\n    tag_5:\n      tag_14\n      tag_15\n      jump\t// in\n    tag_14:\n      mload(0x40)\n      tag_16\n      swap4\n      swap3\n      swap2\n      swap1\n      tag_9\n      jump\t// in\n    tag_16:\n      mload(0x40)\n      dup1\n      swap2\n      sub\n      swap1\n      return\n        /* \"chapter3/Ex3_18.sol\":207:307  function funPub() public view returns (uint, uint, uint) {\r... */\n    tag_7:\n        /* \"chapter3/Ex3_18.sol\":246:250  uint */\n      0x00\n        /* \"chapter3/Ex3_18.sol\":252:256  uint */\n      dup1\n        /* \"chapter3/Ex3_18.sol\":258:262  uint */\n      0x00\n        /* \"chapter3/Ex3_18.sol\":283:286  pub */\n      dup1\n      sload\n        /* \"chapter3/Ex3_18.sol\":288:291  pri */\n      sload(0x01)\n        /* \"chapter3/Ex3_18.sol\":293:298  inter */\n      sload(0x02)\n        /* \"chapter3/Ex3_18.sol\":275:299  return (pub, pri, inter) */\n      swap3\n      pop\n      swap3\n      pop\n      swap3\n      pop\n        /* \"chapter3/Ex3_18.sol\":207:307  function funPub() public view returns (uint, uint, uint) {\r... */\n      swap1\n      swap2\n      swap3\n      jump\t// out\n        /* \"chapter3/Ex3_18.sol\":92:111  uint public pub = 1 */\n    tag_11:\n      sload(0x00)\n      dup2\n      jump\t// out\n        /* \"chapter3/Ex3_18.sol\":533:635  function funExt() external view returns (uint, uint, uint) {\r... */\n    tag_15:\n        /* \"chapter3/Ex3_18.sol\":574:578  uint */\n      0x00\n        /* \"chapter3/Ex3_18.sol\":580:584  uint */\n      dup1\n        /* \"chapter3/Ex3_18.sol\":586:590  uint */\n      0x00\n        /* \"chapter3/Ex3_18.sol\":611:614  pub */\n      dup1\n      sload\n        /* \"chapter3/Ex3_18.sol\":616:619  pri */\n      sload(0x01)\n        /* \"chapter3/Ex3_18.sol\":621:626  inter */\n      sload(0x02)\n        /* \"chapter3/Ex3_18.sol\":603:627  return (pub, pri, inter) */\n      swap3\n      pop\n      swap3\n      pop\n      swap3\n      pop\n        /* \"chapter3/Ex3_18.sol\":533:635  function funExt() external view returns (uint, uint, uint) {\r... */\n      swap1\n      swap2\n      swap3\n      jump\t// out\n        /* \"#utility.yul\":7:125   */\n    tag_20:\n        /* \"#utility.yul\":94:118   */\n      tag_22\n        /* \"#utility.yul\":112:117   */\n      dup2\n        /* \"#utility.yul\":94:118   */\n      tag_23\n      jump\t// in\n    tag_22:\n        /* \"#utility.yul\":89:92   */\n      dup3\n        /* \"#utility.yul\":82:119   */\n      mstore\n        /* \"#utility.yul\":7:125   */\n      pop\n      pop\n      jump\t// out\n        /* \"#utility.yul\":131:353   */\n    tag_13:\n        /* \"#utility.yul\":224:228   */\n      0x00\n        /* \"#utility.yul\":262:264   */\n      0x20\n        /* \"#utility.yul\":251:260   */\n      dup3\n        /* \"#utility.yul\":247:265   */\n      add\n        /* \"#utility.yul\":239:265   */\n      swap1\n      pop\n        /* \"#utility.yul\":275:346   */\n      tag_25\n        /* \"#utility.yul\":343:344   */\n      0x00\n        /* \"#utility.yul\":332:341   */\n      dup4\n        /* \"#utility.yul\":328:345   */\n      add\n        /* \"#utility.yul\":319:325   */\n      dup5\n        /* \"#utility.yul\":275:346   */\n      tag_20\n      jump\t// in\n    tag_25:\n        /* \"#utility.yul\":131:353   */\n      swap3\n      swap2\n      pop\n      pop\n      jump\t// out\n        /* \"#utility.yul\":359:801   */\n    tag_9:\n        /* \"#utility.yul\":508:512   */\n      0x00\n        /* \"#utility.yul\":546:548   */\n      0x60\n        /* \"#utility.yul\":535:544   */\n      dup3\n        /* \"#utility.yul\":531:549   */\n      add\n        /* \"#utility.yul\":523:549   */\n      swap1\n      pop\n        /* \"#utility.yul\":559:630   */\n      tag_27\n        /* \"#utility.yul\":627:628   */\n      0x00\n        /* \"#utility.yul\":616:625   */\n      dup4\n        /* \"#utility.yul\":612:629   */\n      add\n        /* \"#utility.yul\":603:609   */\n      dup7\n        /* \"#utility.yul\":559:630   */\n      tag_20\n      jump\t// in\n    tag_27:\n        /* \"#utility.yul\":640:712   */\n      tag_28\n        /* \"#utility.yul\":708:710   */\n      0x20\n        /* \"#utility.yul\":697:706   */\n      dup4\n        /* \"#utility.yul\":693:711   */\n      add\n        /* \"#utility.yul\":684:690   */\n      dup6\n        /* \"#utility.yul\":640:712   */\n      tag_20\n      jump\t// in\n    tag_28:\n        /* \"#utility.yul\":722:794   */\n      tag_29\n        /* \"#utility.yul\":790:792   */\n      0x40\n        /* \"#utility.yul\":779:788   */\n      dup4\n        /* \"#utility.yul\":775:793   */\n      add\n        /* \"#utility.yul\":766:772   */\n      dup5\n        /* \"#utility.yul\":722:794   */\n      tag_20\n      jump\t// in\n    tag_29:\n        /* \"#utility.yul\":359:801   */\n      swap5\n      swap4\n      pop\n      pop\n      pop\n      pop\n      jump\t// out\n        /* \"#utility.yul\":807:884   */\n    tag_23:\n        /* \"#utility.yul\":844:851   */\n      0x00\n        /* \"#utility.yul\":873:878   */\n      dup2\n        /* \"#utility.yul\":862:878   */\n      swap1\n      pop\n        /* \"#utility.yul\":807:884   */\n      swap2\n      swap1\n      pop\n      jump\t// out\n\n    auxdata: 0xa2646970667358221220417cf967c905717357662fb297dfca2f61be6e7e31aa4accb2fcbb0b9377c34e64736f6c63430008070033\n}\n",
				"bytecode": {
					"linkReferences": {},
					"object": "608060405260016000556002600155600360025534801561001f57600080fd5b5061017b8061002f6000396000f3fe608060405234801561001057600080fd5b50600436106100415760003560e01c806303383d95146100465780637defb41014610066578063bfc3ef4414610084575b600080fd5b61004e6100a4565b60405161005d93929190610104565b60405180910390f35b61006e6100bc565b60405161007b91906100e9565b60405180910390f35b61008c6100c2565b60405161009b93929190610104565b60405180910390f35b60008060008054600154600254925092509250909192565b60005481565b60008060008054600154600254925092509250909192565b6100e38161013b565b82525050565b60006020820190506100fe60008301846100da565b92915050565b600060608201905061011960008301866100da565b61012660208301856100da565b61013360408301846100da565b949350505050565b600081905091905056fea2646970667358221220417cf967c905717357662fb297dfca2f61be6e7e31aa4accb2fcbb0b9377c34e64736f6c63430008070033",
					"opcodes": "PUSH1 0x80 PUSH1 0x40 MSTORE PUSH1 0x1 PUSH1 0x0 SSTORE PUSH1 0x2 PUSH1 0x1 SSTORE PUSH1 0x3 PUSH1 0x2 SSTORE CALLVALUE DUP1 ISZERO PUSH2 0x1F JUMPI PUSH1 0x0 DUP1 REVERT JUMPDEST POP PUSH2 0x17B DUP1 PUSH2 0x2F PUSH1 0x0 CODECOPY PUSH1 0x0 RETURN INVALID PUSH1 0x80 PUSH1 0x40 MSTORE CALLVALUE DUP1 ISZERO PUSH2 0x10 JUMPI PUSH1 0x0 DUP1 REVERT JUMPDEST POP PUSH1 0x4 CALLDATASIZE LT PUSH2 0x41 JUMPI PUSH1 0x0 CALLDATALOAD PUSH1 0xE0 SHR DUP1 PUSH4 0x3383D95 EQ PUSH2 0x46 JUMPI DUP1 PUSH4 0x7DEFB410 EQ PUSH2 0x66 JUMPI DUP1 PUSH4 0xBFC3EF44 EQ PUSH2 0x84 JUMPI JUMPDEST PUSH1 0x0 DUP1 REVERT JUMPDEST PUSH2 0x4E PUSH2 0xA4 JUMP JUMPDEST PUSH1 0x40 MLOAD PUSH2 0x5D SWAP4 SWAP3 SWAP2 SWAP1 PUSH2 0x104 JUMP JUMPDEST PUSH1 0x40 MLOAD DUP1 SWAP2 SUB SWAP1 RETURN JUMPDEST PUSH2 0x6E PUSH2 0xBC JUMP JUMPDEST PUSH1 0x40 MLOAD PUSH2 0x7B SWAP2 SWAP1 PUSH2 0xE9 JUMP JUMPDEST PUSH1 0x40 MLOAD DUP1 SWAP2 SUB SWAP1 RETURN JUMPDEST PUSH2 0x8C PUSH2 0xC2 JUMP JUMPDEST PUSH1 0x40 MLOAD PUSH2 0x9B SWAP4 SWAP3 SWAP2 SWAP1 PUSH2 0x104 JUMP JUMPDEST PUSH1 0x40 MLOAD DUP1 SWAP2 SUB SWAP1 RETURN JUMPDEST PUSH1 0x0 DUP1 PUSH1 0x0 DUP1 SLOAD PUSH1 0x1 SLOAD PUSH1 0x2 SLOAD SWAP3 POP SWAP3 POP SWAP3 POP SWAP1 SWAP2 SWAP3 JUMP JUMPDEST PUSH1 0x0 SLOAD DUP2 JUMP JUMPDEST PUSH1 0x0 DUP1 PUSH1 0x0 DUP1 SLOAD PUSH1 0x1 SLOAD PUSH1 0x2 SLOAD SWAP3 POP SWAP3 POP SWAP3 POP SWAP1 SWAP2 SWAP3 JUMP JUMPDEST PUSH2 0xE3 DUP2 PUSH2 0x13B JUMP JUMPDEST DUP3 MSTORE POP POP JUMP JUMPDEST PUSH1 0x0 PUSH1 0x20 DUP3 ADD SWAP1 POP PUSH2 0xFE PUSH1 0x0 DUP4 ADD DUP5 PUSH2 0xDA JUMP JUMPDEST SWAP3 SWAP2 POP POP JUMP JUMPDEST PUSH1 0x0 PUSH1 0x60 DUP3 ADD SWAP1 POP PUSH2 0x119 PUSH1 0x0 DUP4 ADD DUP7 PUSH2 0xDA JUMP JUMPDEST PUSH2 0x126 PUSH1 0x20 DUP4 ADD DUP6 PUSH2 0xDA JUMP JUMPDEST PUSH2 0x133 PUSH1 0x40 DUP4 ADD DUP5 PUSH2 0xDA JUMP JUMPDEST SWAP5 SWAP4 POP POP POP POP JUMP JUMPDEST PUSH1 0x0 DUP2 SWAP1 POP SWAP2 SWAP1 POP JUMP INVALID LOG2 PUSH5 0x6970667358 0x22 SLT KECCAK256 COINBASE PUSH29 0xF967C905717357662FB297DFCA2F61BE6E7E31AA4ACCB2FCBB0B9377C3 0x4E PUSH5 0x736F6C6343 STOP ADDMOD SMOD STOP CALLER "
				},
				"gasEstimates": {
					"creation": {
						"codeDepositCost": "75800",
						"executionCost": "66441",
						"totalCost": "142241"
					},
					"external": {
						"funExt()": "infinite",
						"funPub()": "infinite",
						"pub()": "2429"
					},
					"internal": {
						"funInter()": "infinite",
						"funPriv()": "infinite"
					}
				},
				"methodIdentifiers": {
					"funExt()": "bfc3ef44",
					"funPub()": "03383d95",
					"pub()": "7defb410"
				}
			},
			"storageLayout": {
				"storage": [
					{
						"astId": 4,
						"contract": "chapter3/Ex3_18.sol:Ex3_18",
						"label": "pub",
						"offset": 0,
						"slot": "0",
						"type": "t_uint256"
					},
					{
						"astId": 7,
						"contract": "chapter3/Ex3_18.sol:Ex3_18",
						"label": "pri",
						"offset": 0,
						"slot": "1",
						"type": "t_uint256"
					},
					{
						"astId": 10,
						"contract": "chapter3/Ex3_18.sol:Ex3_18",
						"label": "inter",
						"offset": 0,
						"slot": "2",
						"type": "t_uint256"
					}
				],
				"types": {
					"t_uint256": {
						"encoding": "inplace",
						"label": "uint256",
						"numberOfBytes": "32"
					}
				}
			},
			"userdoc": {
				"kind": "user",
				"methods": {},
				"version": 1
			}
		}
	}
}