{
	"chapter2/Ex2_2.sol": {
		"Ex2_2": {
			"abi": [
				{
					"inputs": [],
					"name": "assignment",
					"outputs": [
						{
							"internalType": "string",
							"name": "",
							"type": "string"
						}
					],
					"stateMutability": "nonpayable",
					"type": "function"
				}
			],
			"devdoc": {
				"kind": "dev",
				"methods": {},
				"version": 1
			},
			"evm": {
				"assembly": "    /* \"chapter2/Ex2_2.sol\":69:234  contract Ex2_2 {... */\n  mstore(0x40, 0x80)\n    /* \"chapter2/Ex2_2.sol\":91:109  string a = \"Hello\" */\n  mload(0x40)\n  dup1\n  0x40\n  add\n  0x40\n  mstore\n  dup1\n  0x05\n  dup2\n  mstore\n  0x20\n  add\n  0x48656c6c6f000000000000000000000000000000000000000000000000000000\n  dup2\n  mstore\n  pop\n  0x00\n  swap1\n  dup2\n  tag_1\n  swap2\n  swap1\n  tag_2\n  jump\t// in\ntag_1:\n  pop\n    /* \"chapter2/Ex2_2.sol\":69:234  contract Ex2_2 {... */\n  callvalue\n  dup1\n  iszero\n  tag_3\n  jumpi\n  0x00\n  dup1\n  revert\ntag_3:\n  pop\n  jump(tag_4)\n    /* \"#utility.yul\":7:106   */\ntag_5:\n    /* \"#utility.yul\":59:65   */\n  0x00\n    /* \"#utility.yul\":93:98   */\n  dup2\n    /* \"#utility.yul\":87:99   */\n  mload\n    /* \"#utility.yul\":77:99   */\n  swap1\n  pop\n    /* \"#utility.yul\":7:106   */\n  swap2\n  swap1\n  pop\n  jump\t// out\n    /* \"#utility.yul\":112:292   */\ntag_6:\n    /* \"#utility.yul\":160:237   */\n  0x4e487b7100000000000000000000000000000000000000000000000000000000\n    /* \"#utility.yul\":157:158   */\n  0x00\n    /* \"#utility.yul\":150:238   */\n  mstore\n    /* \"#utility.yul\":257:261   */\n  0x41\n    /* \"#utility.yul\":254:255   */\n  0x04\n    /* \"#utility.yul\":247:262   */\n  mstore\n    /* \"#utility.yul\":281:285   */\n  0x24\n    /* \"#utility.yul\":278:279   */\n  0x00\n    /* \"#utility.yul\":271:286   */\n  revert\n    /* \"#utility.yul\":298:478   */\ntag_7:\n    /* \"#utility.yul\":346:423   */\n  0x4e487b7100000000000000000000000000000000000000000000000000000000\n    /* \"#utility.yul\":343:344   */\n  0x00\n    /* \"#utility.yul\":336:424   */\n  mstore\n    /* \"#utility.yul\":443:447   */\n  0x22\n    /* \"#utility.yul\":440:441   */\n  0x04\n    /* \"#utility.yul\":433:448   */\n  mstore\n    /* \"#utility.yul\":467:471   */\n  0x24\n    /* \"#utility.yul\":464:465   */\n  0x00\n    /* \"#utility.yul\":457:472   */\n  revert\n    /* \"#utility.yul\":484:804   */\ntag_8:\n    /* \"#utility.yul\":528:534   */\n  0x00\n    /* \"#utility.yul\":565:566   */\n  0x02\n    /* \"#utility.yul\":559:563   */\n  dup3\n    /* \"#utility.yul\":555:567   */\n  div\n    /* \"#utility.yul\":545:567   */\n  swap1\n  pop\n    /* \"#utility.yul\":612:613   */\n  0x01\n    /* \"#utility.yul\":606:610   */\n  dup3\n    /* \"#utility.yul\":602:614   */\n  and\n    /* \"#utility.yul\":633:651   */\n  dup1\n    /* \"#utility.yul\":623:704   */\n  tag_30\n  jumpi\n    /* \"#utility.yul\":689:693   */\n  0x7f\n    /* \"#utility.yul\":681:687   */\n  dup3\n    /* \"#utility.yul\":677:694   */\n  and\n    /* \"#utility.yul\":667:694   */\n  swap2\n  pop\n    /* \"#utility.yul\":623:704   */\ntag_30:\n    /* \"#utility.yul\":751:753   */\n  0x20\n    /* \"#utility.yul\":743:749   */\n  dup3\n    /* \"#utility.yul\":740:754   */\n  lt\n    /* \"#utility.yul\":720:738   */\n  dup2\n    /* \"#utility.yul\":717:755   */\n  sub\n    /* \"#utility.yul\":714:798   */\n  tag_31\n  jumpi\n    /* \"#utility.yul\":770:788   */\n  tag_32\n  tag_7\n  jump\t// in\ntag_32:\n    /* \"#utility.yul\":714:798   */\ntag_31:\n    /* \"#utility.yul\":535:804   */\n  pop\n    /* \"#utility.yul\":484:804   */\n  swap2\n  swap1\n  pop\n  jump\t// out\n    /* \"#utility.yul\":810:951   */\ntag_9:\n    /* \"#utility.yul\":859:863   */\n  0x00\n    /* \"#utility.yul\":882:885   */\n  dup2\n    /* \"#utility.yul\":874:885   */\n  swap1\n  pop\n    /* \"#utility.yul\":905:908   */\n  dup2\n    /* \"#utility.yul\":902:903   */\n  0x00\n    /* \"#utility.yul\":895:909   */\n  mstore\n    /* \"#utility.yul\":939:943   */\n  0x20\n    /* \"#utility.yul\":936:937   */\n  0x00\n    /* \"#utility.yul\":926:944   */\n  keccak256\n    /* \"#utility.yul\":918:944   */\n  swap1\n  pop\n    /* \"#utility.yul\":810:951   */\n  swap2\n  swap1\n  pop\n  jump\t// out\n    /* \"#utility.yul\":957:1050   */\ntag_10:\n    /* \"#utility.yul\":994:1000   */\n  0x00\n    /* \"#utility.yul\":1041:1043   */\n  0x20\n    /* \"#utility.yul\":1036:1038   */\n  0x1f\n    /* \"#utility.yul\":1029:1034   */\n  dup4\n    /* \"#utility.yul\":1025:1039   */\n  add\n    /* \"#utility.yul\":1021:1044   */\n  div\n    /* \"#utility.yul\":1011:1044   */\n  swap1\n  pop\n    /* \"#utility.yul\":957:1050   */\n  swap2\n  swap1\n  pop\n  jump\t// out\n    /* \"#utility.yul\":1056:1163   */\ntag_11:\n    /* \"#utility.yul\":1100:1108   */\n  0x00\n    /* \"#utility.yul\":1150:1155   */\n  dup3\n    /* \"#utility.yul\":1144:1148   */\n  dup3\n    /* \"#utility.yul\":1140:1156   */\n  shl\n    /* \"#utility.yul\":1119:1156   */\n  swap1\n  pop\n    /* \"#utility.yul\":1056:1163   */\n  swap3\n  swap2\n  pop\n  pop\n  jump\t// out\n    /* \"#utility.yul\":1169:1562   */\ntag_12:\n    /* \"#utility.yul\":1238:1244   */\n  0x00\n    /* \"#utility.yul\":1288:1289   */\n  0x08\n    /* \"#utility.yul\":1276:1286   */\n  dup4\n    /* \"#utility.yul\":1272:1290   */\n  mul\n    /* \"#utility.yul\":1311:1408   */\n  tag_37\n    /* \"#utility.yul\":1341:1407   */\n  0xffffffffffffffffffffffffffffffffffffffffffffffffffffffffffffffff\n    /* \"#utility.yul\":1330:1339   */\n  dup3\n    /* \"#utility.yul\":1311:1408   */\n  tag_11\n  jump\t// in\ntag_37:\n    /* \"#utility.yul\":1429:1468   */\n  tag_38\n    /* \"#utility.yul\":1459:1467   */\n  dup7\n    /* \"#utility.yul\":1448:1457   */\n  dup4\n    /* \"#utility.yul\":1429:1468   */\n  tag_11\n  jump\t// in\ntag_38:\n    /* \"#utility.yul\":1417:1468   */\n  swap6\n  pop\n    /* \"#utility.yul\":1501:1505   */\n  dup1\n    /* \"#utility.yul\":1497:1506   */\n  not\n    /* \"#utility.yul\":1490:1495   */\n  dup5\n    /* \"#utility.yul\":1486:1507   */\n  and\n    /* \"#utility.yul\":1477:1507   */\n  swap4\n  pop\n    /* \"#utility.yul\":1550:1554   */\n  dup1\n    /* \"#utility.yul\":1540:1548   */\n  dup7\n    /* \"#utility.yul\":1536:1555   */\n  and\n    /* \"#utility.yul\":1529:1534   */\n  dup5\n    /* \"#utility.yul\":1526:1556   */\n  or\n    /* \"#utility.yul\":1516:1556   */\n  swap3\n  pop\n    /* \"#utility.yul\":1245:1562   */\n  pop\n  pop\n    /* \"#utility.yul\":1169:1562   */\n  swap4\n  swap3\n  pop\n  pop\n  pop\n  jump\t// out\n    /* \"#utility.yul\":1568:1645   */\ntag_13:\n    /* \"#utility.yul\":1605:1612   */\n  0x00\n    /* \"#utility.yul\":1634:1639   */\n  dup2\n    /* \"#utility.yul\":1623:1639   */\n  swap1\n  pop\n    /* \"#utility.yul\":1568:1645   */\n  swap2\n  swap1\n  pop\n  jump\t// out\n    /* \"#utility.yul\":1651:1711   */\ntag_14:\n    /* \"#utility.yul\":1679:1682   */\n  0x00\n    /* \"#utility.yul\":1700:1705   */\n  dup2\n    /* \"#utility.yul\":1693:1705   */\n  swap1\n  pop\n    /* \"#utility.yul\":1651:1711   */\n  swap2\n  swap1\n  pop\n  jump\t// out\n    /* \"#utility.yul\":1717:1859   */\ntag_15:\n    /* \"#utility.yul\":1767:1776   */\n  0x00\n    /* \"#utility.yul\":1800:1853   */\n  tag_42\n    /* \"#utility.yul\":1818:1852   */\n  tag_43\n    /* \"#utility.yul\":1827:1851   */\n  tag_44\n    /* \"#utility.yul\":1845:1850   */\n  dup5\n    /* \"#utility.yul\":1827:1851   */\n  tag_13\n  jump\t// in\ntag_44:\n    /* \"#utility.yul\":1818:1852   */\n  tag_14\n  jump\t// in\ntag_43:\n    /* \"#utility.yul\":1800:1853   */\n  tag_13\n  jump\t// in\ntag_42:\n    /* \"#utility.yul\":1787:1853   */\n  swap1\n  pop\n    /* \"#utility.yul\":1717:1859   */\n  swap2\n  swap1\n  pop\n  jump\t// out\n    /* \"#utility.yul\":1865:1940   */\ntag_16:\n    /* \"#utility.yul\":1908:1911   */\n  0x00\n    /* \"#utility.yul\":1929:1934   */\n  dup2\n    /* \"#utility.yul\":1922:1934   */\n  swap1\n  pop\n    /* \"#utility.yul\":1865:1940   */\n  swap2\n  swap1\n  pop\n  jump\t// out\n    /* \"#utility.yul\":1946:2215   */\ntag_17:\n    /* \"#utility.yul\":2056:2095   */\n  tag_47\n    /* \"#utility.yul\":2087:2094   */\n  dup4\n    /* \"#utility.yul\":2056:2095   */\n  tag_15\n  jump\t// in\ntag_47:\n    /* \"#utility.yul\":2117:2208   */\n  tag_48\n    /* \"#utility.yul\":2166:2207   */\n  tag_49\n    /* \"#utility.yul\":2190:2206   */\n  dup3\n    /* \"#utility.yul\":2166:2207   */\n  tag_16\n  jump\t// in\ntag_49:\n    /* \"#utility.yul\":2158:2164   */\n  dup5\n    /* \"#utility.yul\":2151:2155   */\n  dup5\n    /* \"#utility.yul\":2145:2156   */\n  sload\n    /* \"#utility.yul\":2117:2208   */\n  tag_12\n  jump\t// in\ntag_48:\n    /* \"#utility.yul\":2111:2115   */\n  dup3\n    /* \"#utility.yul\":2104:2209   */\n  sstore\n    /* \"#utility.yul\":2022:2215   */\n  pop\n    /* \"#utility.yul\":1946:2215   */\n  pop\n  pop\n  pop\n  jump\t// out\n    /* \"#utility.yul\":2221:2294   */\ntag_18:\n    /* \"#utility.yul\":2266:2269   */\n  0x00\n    /* \"#utility.yul\":2221:2294   */\n  swap1\n  jump\t// out\n    /* \"#utility.yul\":2300:2489   */\ntag_19:\n    /* \"#utility.yul\":2377:2409   */\n  tag_52\n  tag_18\n  jump\t// in\ntag_52:\n    /* \"#utility.yul\":2418:2483   */\n  tag_53\n    /* \"#utility.yul\":2476:2482   */\n  dup2\n    /* \"#utility.yul\":2468:2474   */\n  dup5\n    /* \"#utility.yul\":2462:2466   */\n  dup5\n    /* \"#utility.yul\":2418:2483   */\n  tag_17\n  jump\t// in\ntag_53:\n    /* \"#utility.yul\":2353:2489   */\n  pop\n    /* \"#utility.yul\":2300:2489   */\n  pop\n  pop\n  jump\t// out\n    /* \"#utility.yul\":2495:2681   */\ntag_20:\n    /* \"#utility.yul\":2555:2675   */\ntag_55:\n    /* \"#utility.yul\":2572:2575   */\n  dup2\n    /* \"#utility.yul\":2565:2570   */\n  dup2\n    /* \"#utility.yul\":2562:2576   */\n  lt\n    /* \"#utility.yul\":2555:2675   */\n  iszero\n  tag_57\n  jumpi\n    /* \"#utility.yul\":2626:2665   */\n  tag_58\n    /* \"#utility.yul\":2663:2664   */\n  0x00\n    /* \"#utility.yul\":2656:2661   */\n  dup3\n    /* \"#utility.yul\":2626:2665   */\n  tag_19\n  jump\t// in\ntag_58:\n    /* \"#utility.yul\":2599:2600   */\n  0x01\n    /* \"#utility.yul\":2592:2597   */\n  dup2\n    /* \"#utility.yul\":2588:2601   */\n  add\n    /* \"#utility.yul\":2579:2601   */\n  swap1\n  pop\n    /* \"#utility.yul\":2555:2675   */\n  jump(tag_55)\ntag_57:\n    /* \"#utility.yul\":2495:2681   */\n  pop\n  pop\n  jump\t// out\n    /* \"#utility.yul\":2687:3230   */\ntag_21:\n    /* \"#utility.yul\":2788:2790   */\n  0x1f\n    /* \"#utility.yul\":2783:2786   */\n  dup3\n    /* \"#utility.yul\":2780:2791   */\n  gt\n    /* \"#utility.yul\":2777:3223   */\n  iszero\n  tag_60\n  jumpi\n    /* \"#utility.yul\":2822:2860   */\n  tag_61\n    /* \"#utility.yul\":2854:2859   */\n  dup2\n    /* \"#utility.yul\":2822:2860   */\n  tag_9\n  jump\t// in\ntag_61:\n    /* \"#utility.yul\":2906:2935   */\n  tag_62\n    /* \"#utility.yul\":2924:2934   */\n  dup5\n    /* \"#utility.yul\":2906:2935   */\n  tag_10\n  jump\t// in\ntag_62:\n    /* \"#utility.yul\":2896:2904   */\n  dup2\n    /* \"#utility.yul\":2892:2936   */\n  add\n    /* \"#utility.yul\":3089:3091   */\n  0x20\n    /* \"#utility.yul\":3077:3087   */\n  dup6\n    /* \"#utility.yul\":3074:3092   */\n  lt\n    /* \"#utility.yul\":3071:3120   */\n  iszero\n  tag_63\n  jumpi\n    /* \"#utility.yul\":3110:3118   */\n  dup2\n    /* \"#utility.yul\":3095:3118   */\n  swap1\n  pop\n    /* \"#utility.yul\":3071:3120   */\ntag_63:\n    /* \"#utility.yul\":3133:3213   */\n  tag_64\n    /* \"#utility.yul\":3189:3211   */\n  tag_65\n    /* \"#utility.yul\":3207:3210   */\n  dup6\n    /* \"#utility.yul\":3189:3211   */\n  tag_10\n  jump\t// in\ntag_65:\n    /* \"#utility.yul\":3179:3187   */\n  dup4\n    /* \"#utility.yul\":3175:3212   */\n  add\n    /* \"#utility.yul\":3162:3173   */\n  dup3\n    /* \"#utility.yul\":3133:3213   */\n  tag_20\n  jump\t// in\ntag_64:\n    /* \"#utility.yul\":2792:3223   */\n  pop\n  pop\n    /* \"#utility.yul\":2777:3223   */\ntag_60:\n    /* \"#utility.yul\":2687:3230   */\n  pop\n  pop\n  pop\n  jump\t// out\n    /* \"#utility.yul\":3236:3353   */\ntag_22:\n    /* \"#utility.yul\":3290:3298   */\n  0x00\n    /* \"#utility.yul\":3340:3345   */\n  dup3\n    /* \"#utility.yul\":3334:3338   */\n  dup3\n    /* \"#utility.yul\":3330:3346   */\n  shr\n    /* \"#utility.yul\":3309:3346   */\n  swap1\n  pop\n    /* \"#utility.yul\":3236:3353   */\n  swap3\n  swap2\n  pop\n  pop\n  jump\t// out\n    /* \"#utility.yul\":3359:3528   */\ntag_23:\n    /* \"#utility.yul\":3403:3409   */\n  0x00\n    /* \"#utility.yul\":3436:3487   */\n  tag_68\n    /* \"#utility.yul\":3484:3485   */\n  0x00\n    /* \"#utility.yul\":3480:3486   */\n  not\n    /* \"#utility.yul\":3472:3477   */\n  dup5\n    /* \"#utility.yul\":3469:3470   */\n  0x08\n    /* \"#utility.yul\":3465:3478   */\n  mul\n    /* \"#utility.yul\":3436:3487   */\n  tag_22\n  jump\t// in\ntag_68:\n    /* \"#utility.yul\":3432:3488   */\n  not\n    /* \"#utility.yul\":3517:3521   */\n  dup1\n    /* \"#utility.yul\":3511:3515   */\n  dup4\n    /* \"#utility.yul\":3507:3522   */\n  and\n    /* \"#utility.yul\":3497:3522   */\n  swap2\n  pop\n    /* \"#utility.yul\":3410:3528   */\n  pop\n    /* \"#utility.yul\":3359:3528   */\n  swap3\n  swap2\n  pop\n  pop\n  jump\t// out\n    /* \"#utility.yul\":3533:3828   */\ntag_24:\n    /* \"#utility.yul\":3609:3613   */\n  0x00\n    /* \"#utility.yul\":3755:3784   */\n  tag_70\n    /* \"#utility.yul\":3780:3783   */\n  dup4\n    /* \"#utility.yul\":3774:3778   */\n  dup4\n    /* \"#utility.yul\":3755:3784   */\n  tag_23\n  jump\t// in\ntag_70:\n    /* \"#utility.yul\":3747:3784   */\n  swap2\n  pop\n    /* \"#utility.yul\":3817:3820   */\n  dup3\n    /* \"#utility.yul\":3814:3815   */\n  0x02\n    /* \"#utility.yul\":3810:3821   */\n  mul\n    /* \"#utility.yul\":3804:3808   */\n  dup3\n    /* \"#utility.yul\":3801:3822   */\n  or\n    /* \"#utility.yul\":3793:3822   */\n  swap1\n  pop\n    /* \"#utility.yul\":3533:3828   */\n  swap3\n  swap2\n  pop\n  pop\n  jump\t// out\n    /* \"#utility.yul\":3833:5228   */\ntag_2:\n    /* \"#utility.yul\":3950:3987   */\n  tag_72\n    /* \"#utility.yul\":3983:3986   */\n  dup3\n    /* \"#utility.yul\":3950:3987   */\n  tag_5\n  jump\t// in\ntag_72:\n    /* \"#utility.yul\":4052:4070   */\n  0xffffffffffffffff\n    /* \"#utility.yul\":4044:4050   */\n  dup2\n    /* \"#utility.yul\":4041:4071   */\n  gt\n    /* \"#utility.yul\":4038:4094   */\n  iszero\n  tag_73\n  jumpi\n    /* \"#utility.yul\":4074:4092   */\n  tag_74\n  tag_6\n  jump\t// in\ntag_74:\n    /* \"#utility.yul\":4038:4094   */\ntag_73:\n    /* \"#utility.yul\":4118:4156   */\n  tag_75\n    /* \"#utility.yul\":4150:4154   */\n  dup3\n    /* \"#utility.yul\":4144:4155   */\n  sload\n    /* \"#utility.yul\":4118:4156   */\n  tag_8\n  jump\t// in\ntag_75:\n    /* \"#utility.yul\":4203:4270   */\n  tag_76\n    /* \"#utility.yul\":4263:4269   */\n  dup3\n    /* \"#utility.yul\":4255:4261   */\n  dup3\n    /* \"#utility.yul\":4249:4253   */\n  dup6\n    /* \"#utility.yul\":4203:4270   */\n  tag_21\n  jump\t// in\ntag_76:\n    /* \"#utility.yul\":4297:4298   */\n  0x00\n    /* \"#utility.yul\":4321:4325   */\n  0x20\n    /* \"#utility.yul\":4308:4325   */\n  swap1\n  pop\n    /* \"#utility.yul\":4353:4355   */\n  0x1f\n    /* \"#utility.yul\":4345:4351   */\n  dup4\n    /* \"#utility.yul\":4342:4356   */\n  gt\n    /* \"#utility.yul\":4370:4371   */\n  0x01\n    /* \"#utility.yul\":4365:4983   */\n  dup2\n  eq\n  tag_78\n  jumpi\n    /* \"#utility.yul\":5027:5028   */\n  0x00\n    /* \"#utility.yul\":5044:5050   */\n  dup5\n    /* \"#utility.yul\":5041:5118   */\n  iszero\n  tag_79\n  jumpi\n    /* \"#utility.yul\":5093:5102   */\n  dup3\n    /* \"#utility.yul\":5088:5091   */\n  dup8\n    /* \"#utility.yul\":5084:5103   */\n  add\n    /* \"#utility.yul\":5078:5104   */\n  mload\n    /* \"#utility.yul\":5069:5104   */\n  swap1\n  pop\n    /* \"#utility.yul\":5041:5118   */\ntag_79:\n    /* \"#utility.yul\":5144:5211   */\n  tag_80\n    /* \"#utility.yul\":5204:5210   */\n  dup6\n    /* \"#utility.yul\":5197:5202   */\n  dup3\n    /* \"#utility.yul\":5144:5211   */\n  tag_24\n  jump\t// in\ntag_80:\n    /* \"#utility.yul\":5138:5142   */\n  dup7\n    /* \"#utility.yul\":5131:5212   */\n  sstore\n    /* \"#utility.yul\":5000:5222   */\n  pop\n    /* \"#utility.yul\":4335:5222   */\n  jump(tag_77)\n    /* \"#utility.yul\":4365:4983   */\ntag_78:\n    /* \"#utility.yul\":4417:4421   */\n  0x1f\n    /* \"#utility.yul\":4413:4422   */\n  not\n    /* \"#utility.yul\":4405:4411   */\n  dup5\n    /* \"#utility.yul\":4401:4423   */\n  and\n    /* \"#utility.yul\":4451:4488   */\n  tag_81\n    /* \"#utility.yul\":4483:4487   */\n  dup7\n    /* \"#utility.yul\":4451:4488   */\n  tag_9\n  jump\t// in\ntag_81:\n    /* \"#utility.yul\":4510:4511   */\n  0x00\n    /* \"#utility.yul\":4524:4732   */\ntag_82:\n    /* \"#utility.yul\":4538:4545   */\n  dup3\n    /* \"#utility.yul\":4535:4536   */\n  dup2\n    /* \"#utility.yul\":4532:4546   */\n  lt\n    /* \"#utility.yul\":4524:4732   */\n  iszero\n  tag_84\n  jumpi\n    /* \"#utility.yul\":4617:4626   */\n  dup5\n    /* \"#utility.yul\":4612:4615   */\n  dup10\n    /* \"#utility.yul\":4608:4627   */\n  add\n    /* \"#utility.yul\":4602:4628   */\n  mload\n    /* \"#utility.yul\":4594:4600   */\n  dup3\n    /* \"#utility.yul\":4587:4629   */\n  sstore\n    /* \"#utility.yul\":4668:4669   */\n  0x01\n    /* \"#utility.yul\":4660:4666   */\n  dup3\n    /* \"#utility.yul\":4656:4670   */\n  add\n    /* \"#utility.yul\":4646:4670   */\n  swap2\n  pop\n    /* \"#utility.yul\":4715:4717   */\n  0x20\n    /* \"#utility.yul\":4704:4713   */\n  dup6\n    /* \"#utility.yul\":4700:4718   */\n  add\n    /* \"#utility.yul\":4687:4718   */\n  swap5\n  pop\n    /* \"#utility.yul\":4561:4565   */\n  0x20\n    /* \"#utility.yul\":4558:4559   */\n  dup2\n    /* \"#utility.yul\":4554:4566   */\n  add\n    /* \"#utility.yul\":4549:4566   */\n  swap1\n  pop\n    /* \"#utility.yul\":4524:4732   */\n  jump(tag_82)\ntag_84:\n    /* \"#utility.yul\":4760:4766   */\n  dup7\n    /* \"#utility.yul\":4751:4758   */\n  dup4\n    /* \"#utility.yul\":4748:4767   */\n  lt\n    /* \"#utility.yul\":4745:4924   */\n  iszero\n  tag_85\n  jumpi\n    /* \"#utility.yul\":4818:4827   */\n  dup5\n    /* \"#utility.yul\":4813:4816   */\n  dup10\n    /* \"#utility.yul\":4809:4828   */\n  add\n    /* \"#utility.yul\":4803:4829   */\n  mload\n    /* \"#utility.yul\":4861:4909   */\n  tag_86\n    /* \"#utility.yul\":4903:4907   */\n  0x1f\n    /* \"#utility.yul\":4895:4901   */\n  dup10\n    /* \"#utility.yul\":4891:4908   */\n  and\n    /* \"#utility.yul\":4880:4889   */\n  dup3\n    /* \"#utility.yul\":4861:4909   */\n  tag_23\n  jump\t// in\ntag_86:\n    /* \"#utility.yul\":4853:4859   */\n  dup4\n    /* \"#utility.yul\":4846:4910   */\n  sstore\n    /* \"#utility.yul\":4768:4924   */\n  pop\n    /* \"#utility.yul\":4745:4924   */\ntag_85:\n    /* \"#utility.yul\":4970:4971   */\n  0x01\n    /* \"#utility.yul\":4966:4967   */\n  0x02\n    /* \"#utility.yul\":4958:4964   */\n  dup9\n    /* \"#utility.yul\":4954:4968   */\n  mul\n    /* \"#utility.yul\":4950:4972   */\n  add\n    /* \"#utility.yul\":4944:4948   */\n  dup9\n    /* \"#utility.yul\":4937:4973   */\n  sstore\n    /* \"#utility.yul\":4372:4983   */\n  pop\n  pop\n  pop\n    /* \"#utility.yul\":4335:5222   */\ntag_77:\n  pop\n    /* \"#utility.yul\":3925:5228   */\n  pop\n  pop\n  pop\n    /* \"#utility.yul\":3833:5228   */\n  pop\n  pop\n  jump\t// out\n    /* \"chapter2/Ex2_2.sol\":69:234  contract Ex2_2 {... */\ntag_4:\n  dataSize(sub_0)\n  dup1\n  dataOffset(sub_0)\n  0x00\n  codecopy\n  0x00\n  return\nstop\n\nsub_0: assembly {\n        /* \"chapter2/Ex2_2.sol\":69:234  contract Ex2_2 {... */\n      mstore(0x40, 0x80)\n      callvalue\n      dup1\n      iszero\n      tag_1\n      jumpi\n      0x00\n      dup1\n      revert\n    tag_1:\n      pop\n      jumpi(tag_2, lt(calldatasize, 0x04))\n      shr(0xe0, calldataload(0x00))\n      dup1\n      0x71ca2ecf\n      eq\n      tag_3\n      jumpi\n    tag_2:\n      0x00\n      dup1\n      revert\n        /* \"chapter2/Ex2_2.sol\":118:231  function assignment() public returns (string memory) {... */\n    tag_3:\n      tag_4\n      tag_5\n      jump\t// in\n    tag_4:\n      mload(0x40)\n      tag_6\n      swap2\n      swap1\n      tag_7\n      jump\t// in\n    tag_6:\n      mload(0x40)\n      dup1\n      swap2\n      sub\n      swap1\n      return\n    tag_5:\n        /* \"chapter2/Ex2_2.sol\":156:169  string memory */\n      0x60\n        /* \"chapter2/Ex2_2.sol\":182:202  a = \"Hello Solidity\" */\n      mload(0x40)\n      dup1\n      0x40\n      add\n      0x40\n      mstore\n      dup1\n      0x0e\n      dup2\n      mstore\n      0x20\n      add\n      0x48656c6c6f20536f6c6964697479000000000000000000000000000000000000\n      dup2\n      mstore\n      pop\n        /* \"chapter2/Ex2_2.sol\":182:183  a */\n      0x00\n        /* \"chapter2/Ex2_2.sol\":182:202  a = \"Hello Solidity\" */\n      swap1\n      dup2\n      tag_9\n      swap2\n      swap1\n      tag_10\n      jump\t// in\n    tag_9:\n      pop\n        /* \"chapter2/Ex2_2.sol\":221:222  a */\n      0x00\n        /* \"chapter2/Ex2_2.sol\":213:223  return (a) */\n      dup1\n      sload\n      tag_11\n      swap1\n      tag_12\n      jump\t// in\n    tag_11:\n      dup1\n      0x1f\n      add\n      0x20\n      dup1\n      swap2\n      div\n      mul\n      0x20\n      add\n      mload(0x40)\n      swap1\n      dup2\n      add\n      0x40\n      mstore\n      dup1\n      swap3\n      swap2\n      swap1\n      dup2\n      dup2\n      mstore\n      0x20\n      add\n      dup3\n      dup1\n      sload\n      tag_13\n      swap1\n      tag_12\n      jump\t// in\n    tag_13:\n      dup1\n      iszero\n      tag_14\n      jumpi\n      dup1\n      0x1f\n      lt\n      tag_15\n      jumpi\n      0x0100\n      dup1\n      dup4\n      sload\n      div\n      mul\n      dup4\n      mstore\n      swap2\n      0x20\n      add\n      swap2\n      jump(tag_14)\n    tag_15:\n      dup3\n      add\n      swap2\n      swap1\n      0x00\n      mstore\n      keccak256(0x00, 0x20)\n      swap1\n    tag_16:\n      dup2\n      sload\n      dup2\n      mstore\n      swap1\n      0x01\n      add\n      swap1\n      0x20\n      add\n      dup1\n      dup4\n      gt\n      tag_16\n      jumpi\n      dup3\n      swap1\n      sub\n      0x1f\n      and\n      dup3\n      add\n      swap2\n    tag_14:\n      pop\n      pop\n      pop\n      pop\n      pop\n      swap1\n      pop\n        /* \"chapter2/Ex2_2.sol\":118:231  function assignment() public returns (string memory) {... */\n      swap1\n      jump\t// out\n        /* \"#utility.yul\":7:106   */\n    tag_17:\n        /* \"#utility.yul\":59:65   */\n      0x00\n        /* \"#utility.yul\":93:98   */\n      dup2\n        /* \"#utility.yul\":87:99   */\n      mload\n        /* \"#utility.yul\":77:99   */\n      swap1\n      pop\n        /* \"#utility.yul\":7:106   */\n      swap2\n      swap1\n      pop\n      jump\t// out\n        /* \"#utility.yul\":112:281   */\n    tag_18:\n        /* \"#utility.yul\":196:207   */\n      0x00\n        /* \"#utility.yul\":230:236   */\n      dup3\n        /* \"#utility.yul\":225:228   */\n      dup3\n        /* \"#utility.yul\":218:237   */\n      mstore\n        /* \"#utility.yul\":270:274   */\n      0x20\n        /* \"#utility.yul\":265:268   */\n      dup3\n        /* \"#utility.yul\":261:275   */\n      add\n        /* \"#utility.yul\":246:275   */\n      swap1\n      pop\n        /* \"#utility.yul\":112:281   */\n      swap3\n      swap2\n      pop\n      pop\n      jump\t// out\n        /* \"#utility.yul\":287:533   */\n    tag_19:\n        /* \"#utility.yul\":368:369   */\n      0x00\n        /* \"#utility.yul\":378:491   */\n    tag_44:\n        /* \"#utility.yul\":392:398   */\n      dup4\n        /* \"#utility.yul\":389:390   */\n      dup2\n        /* \"#utility.yul\":386:399   */\n      lt\n        /* \"#utility.yul\":378:491   */\n      iszero\n      tag_46\n      jumpi\n        /* \"#utility.yul\":477:478   */\n      dup1\n        /* \"#utility.yul\":472:475   */\n      dup3\n        /* \"#utility.yul\":468:479   */\n      add\n        /* \"#utility.yul\":462:480   */\n      mload\n        /* \"#utility.yul\":458:459   */\n      dup2\n        /* \"#utility.yul\":453:456   */\n      dup5\n        /* \"#utility.yul\":449:460   */\n      add\n        /* \"#utility.yul\":442:481   */\n      mstore\n        /* \"#utility.yul\":414:416   */\n      0x20\n        /* \"#utility.yul\":411:412   */\n      dup2\n        /* \"#utility.yul\":407:417   */\n      add\n        /* \"#utility.yul\":402:417   */\n      swap1\n      pop\n        /* \"#utility.yul\":378:491   */\n      jump(tag_44)\n    tag_46:\n        /* \"#utility.yul\":525:526   */\n      0x00\n        /* \"#utility.yul\":516:522   */\n      dup5\n        /* \"#utility.yul\":511:514   */\n      dup5\n        /* \"#utility.yul\":507:523   */\n      add\n        /* \"#utility.yul\":500:527   */\n      mstore\n        /* \"#utility.yul\":349:533   */\n      pop\n        /* \"#utility.yul\":287:533   */\n      pop\n      pop\n      pop\n      jump\t// out\n        /* \"#utility.yul\":539:641   */\n    tag_20:\n        /* \"#utility.yul\":580:586   */\n      0x00\n        /* \"#utility.yul\":631:633   */\n      0x1f\n        /* \"#utility.yul\":627:634   */\n      not\n        /* \"#utility.yul\":622:624   */\n      0x1f\n        /* \"#utility.yul\":615:620   */\n      dup4\n        /* \"#utility.yul\":611:625   */\n      add\n        /* \"#utility.yul\":607:635   */\n      and\n        /* \"#utility.yul\":597:635   */\n      swap1\n      pop\n        /* \"#utility.yul\":539:641   */\n      swap2\n      swap1\n      pop\n      jump\t// out\n        /* \"#utility.yul\":647:1024   */\n    tag_21:\n        /* \"#utility.yul\":735:738   */\n      0x00\n        /* \"#utility.yul\":763:802   */\n      tag_49\n        /* \"#utility.yul\":796:801   */\n      dup3\n        /* \"#utility.yul\":763:802   */\n      tag_17\n      jump\t// in\n    tag_49:\n        /* \"#utility.yul\":818:889   */\n      tag_50\n        /* \"#utility.yul\":882:888   */\n      dup2\n        /* \"#utility.yul\":877:880   */\n      dup6\n        /* \"#utility.yul\":818:889   */\n      tag_18\n      jump\t// in\n    tag_50:\n        /* \"#utility.yul\":811:889   */\n      swap4\n      pop\n        /* \"#utility.yul\":898:963   */\n      tag_51\n        /* \"#utility.yul\":956:962   */\n      dup2\n        /* \"#utility.yul\":951:954   */\n      dup6\n        /* \"#utility.yul\":944:948   */\n      0x20\n        /* \"#utility.yul\":937:942   */\n      dup7\n        /* \"#utility.yul\":933:949   */\n      add\n        /* \"#utility.yul\":898:963   */\n      tag_19\n      jump\t// in\n    tag_51:\n        /* \"#utility.yul\":988:1017   */\n      tag_52\n        /* \"#utility.yul\":1010:1016   */\n      dup2\n        /* \"#utility.yul\":988:1017   */\n      tag_20\n      jump\t// in\n    tag_52:\n        /* \"#utility.yul\":983:986   */\n      dup5\n        /* \"#utility.yul\":979:1018   */\n      add\n        /* \"#utility.yul\":972:1018   */\n      swap2\n      pop\n        /* \"#utility.yul\":739:1024   */\n      pop\n        /* \"#utility.yul\":647:1024   */\n      swap3\n      swap2\n      pop\n      pop\n      jump\t// out\n        /* \"#utility.yul\":1030:1343   */\n    tag_7:\n        /* \"#utility.yul\":1143:1147   */\n      0x00\n        /* \"#utility.yul\":1181:1183   */\n      0x20\n        /* \"#utility.yul\":1170:1179   */\n      dup3\n        /* \"#utility.yul\":1166:1184   */\n      add\n        /* \"#utility.yul\":1158:1184   */\n      swap1\n      pop\n        /* \"#utility.yul\":1230:1239   */\n      dup2\n        /* \"#utility.yul\":1224:1228   */\n      dup2\n        /* \"#utility.yul\":1220:1240   */\n      sub\n        /* \"#utility.yul\":1216:1217   */\n      0x00\n        /* \"#utility.yul\":1205:1214   */\n      dup4\n        /* \"#utility.yul\":1201:1218   */\n      add\n        /* \"#utility.yul\":1194:1241   */\n      mstore\n        /* \"#utility.yul\":1258:1336   */\n      tag_54\n        /* \"#utility.yul\":1331:1335   */\n      dup2\n        /* \"#utility.yul\":1322:1328   */\n      dup5\n        /* \"#utility.yul\":1258:1336   */\n      tag_21\n      jump\t// in\n    tag_54:\n        /* \"#utility.yul\":1250:1336   */\n      swap1\n      pop\n        /* \"#utility.yul\":1030:1343   */\n      swap3\n      swap2\n      pop\n      pop\n      jump\t// out\n        /* \"#utility.yul\":1349:1529   */\n    tag_22:\n        /* \"#utility.yul\":1397:1474   */\n      0x4e487b7100000000000000000000000000000000000000000000000000000000\n        /* \"#utility.yul\":1394:1395   */\n      0x00\n        /* \"#utility.yul\":1387:1475   */\n      mstore\n        /* \"#utility.yul\":1494:1498   */\n      0x41\n        /* \"#utility.yul\":1491:1492   */\n      0x04\n        /* \"#utility.yul\":1484:1499   */\n      mstore\n        /* \"#utility.yul\":1518:1522   */\n      0x24\n        /* \"#utility.yul\":1515:1516   */\n      0x00\n        /* \"#utility.yul\":1508:1523   */\n      revert\n        /* \"#utility.yul\":1535:1715   */\n    tag_23:\n        /* \"#utility.yul\":1583:1660   */\n      0x4e487b7100000000000000000000000000000000000000000000000000000000\n        /* \"#utility.yul\":1580:1581   */\n      0x00\n        /* \"#utility.yul\":1573:1661   */\n      mstore\n        /* \"#utility.yul\":1680:1684   */\n      0x22\n        /* \"#utility.yul\":1677:1678   */\n      0x04\n        /* \"#utility.yul\":1670:1685   */\n      mstore\n        /* \"#utility.yul\":1704:1708   */\n      0x24\n        /* \"#utility.yul\":1701:1702   */\n      0x00\n        /* \"#utility.yul\":1694:1709   */\n      revert\n        /* \"#utility.yul\":1721:2041   */\n    tag_12:\n        /* \"#utility.yul\":1765:1771   */\n      0x00\n        /* \"#utility.yul\":1802:1803   */\n      0x02\n        /* \"#utility.yul\":1796:1800   */\n      dup3\n        /* \"#utility.yul\":1792:1804   */\n      div\n        /* \"#utility.yul\":1782:1804   */\n      swap1\n      pop\n        /* \"#utility.yul\":1849:1850   */\n      0x01\n        /* \"#utility.yul\":1843:1847   */\n      dup3\n        /* \"#utility.yul\":1839:1851   */\n      and\n        /* \"#utility.yul\":1870:1888   */\n      dup1\n        /* \"#utility.yul\":1860:1941   */\n      tag_58\n      jumpi\n        /* \"#utility.yul\":1926:1930   */\n      0x7f\n        /* \"#utility.yul\":1918:1924   */\n      dup3\n        /* \"#utility.yul\":1914:1931   */\n      and\n        /* \"#utility.yul\":1904:1931   */\n      swap2\n      pop\n        /* \"#utility.yul\":1860:1941   */\n    tag_58:\n        /* \"#utility.yul\":1988:1990   */\n      0x20\n        /* \"#utility.yul\":1980:1986   */\n      dup3\n        /* \"#utility.yul\":1977:1991   */\n      lt\n        /* \"#utility.yul\":1957:1975   */\n      dup2\n        /* \"#utility.yul\":1954:1992   */\n      sub\n        /* \"#utility.yul\":1951:2035   */\n      tag_59\n      jumpi\n        /* \"#utility.yul\":2007:2025   */\n      tag_60\n      tag_23\n      jump\t// in\n    tag_60:\n        /* \"#utility.yul\":1951:2035   */\n    tag_59:\n        /* \"#utility.yul\":1772:2041   */\n      pop\n        /* \"#utility.yul\":1721:2041   */\n      swap2\n      swap1\n      pop\n      jump\t// out\n        /* \"#utility.yul\":2047:2188   */\n    tag_24:\n        /* \"#utility.yul\":2096:2100   */\n      0x00\n        /* \"#utility.yul\":2119:2122   */\n      dup2\n        /* \"#utility.yul\":2111:2122   */\n      swap1\n      pop\n        /* \"#utility.yul\":2142:2145   */\n      dup2\n        /* \"#utility.yul\":2139:2140   */\n      0x00\n        /* \"#utility.yul\":2132:2146   */\n      mstore\n        /* \"#utility.yul\":2176:2180   */\n      0x20\n        /* \"#utility.yul\":2173:2174   */\n      0x00\n        /* \"#utility.yul\":2163:2181   */\n      keccak256\n        /* \"#utility.yul\":2155:2181   */\n      swap1\n      pop\n        /* \"#utility.yul\":2047:2188   */\n      swap2\n      swap1\n      pop\n      jump\t// out\n        /* \"#utility.yul\":2194:2287   */\n    tag_25:\n        /* \"#utility.yul\":2231:2237   */\n      0x00\n        /* \"#utility.yul\":2278:2280   */\n      0x20\n        /* \"#utility.yul\":2273:2275   */\n      0x1f\n        /* \"#utility.yul\":2266:2271   */\n      dup4\n        /* \"#utility.yul\":2262:2276   */\n      add\n        /* \"#utility.yul\":2258:2281   */\n      div\n        /* \"#utility.yul\":2248:2281   */\n      swap1\n      pop\n        /* \"#utility.yul\":2194:2287   */\n      swap2\n      swap1\n      pop\n      jump\t// out\n        /* \"#utility.yul\":2293:2400   */\n    tag_26:\n        /* \"#utility.yul\":2337:2345   */\n      0x00\n        /* \"#utility.yul\":2387:2392   */\n      dup3\n        /* \"#utility.yul\":2381:2385   */\n      dup3\n        /* \"#utility.yul\":2377:2393   */\n      shl\n        /* \"#utility.yul\":2356:2393   */\n      swap1\n      pop\n        /* \"#utility.yul\":2293:2400   */\n      swap3\n      swap2\n      pop\n      pop\n      jump\t// out\n        /* \"#utility.yul\":2406:2799   */\n    tag_27:\n        /* \"#utility.yul\":2475:2481   */\n      0x00\n        /* \"#utility.yul\":2525:2526   */\n      0x08\n        /* \"#utility.yul\":2513:2523   */\n      dup4\n        /* \"#utility.yul\":2509:2527   */\n      mul\n        /* \"#utility.yul\":2548:2645   */\n      tag_65\n        /* \"#utility.yul\":2578:2644   */\n      0xffffffffffffffffffffffffffffffffffffffffffffffffffffffffffffffff\n        /* \"#utility.yul\":2567:2576   */\n      dup3\n        /* \"#utility.yul\":2548:2645   */\n      tag_26\n      jump\t// in\n    tag_65:\n        /* \"#utility.yul\":2666:2705   */\n      tag_66\n        /* \"#utility.yul\":2696:2704   */\n      dup7\n        /* \"#utility.yul\":2685:2694   */\n      dup4\n        /* \"#utility.yul\":2666:2705   */\n      tag_26\n      jump\t// in\n    tag_66:\n        /* \"#utility.yul\":2654:2705   */\n      swap6\n      pop\n        /* \"#utility.yul\":2738:2742   */\n      dup1\n        /* \"#utility.yul\":2734:2743   */\n      not\n        /* \"#utility.yul\":2727:2732   */\n      dup5\n        /* \"#utility.yul\":2723:2744   */\n      and\n        /* \"#utility.yul\":2714:2744   */\n      swap4\n      pop\n        /* \"#utility.yul\":2787:2791   */\n      dup1\n        /* \"#utility.yul\":2777:2785   */\n      dup7\n        /* \"#utility.yul\":2773:2792   */\n      and\n        /* \"#utility.yul\":2766:2771   */\n      dup5\n        /* \"#utility.yul\":2763:2793   */\n      or\n        /* \"#utility.yul\":2753:2793   */\n      swap3\n      pop\n        /* \"#utility.yul\":2482:2799   */\n      pop\n      pop\n        /* \"#utility.yul\":2406:2799   */\n      swap4\n      swap3\n      pop\n      pop\n      pop\n      jump\t// out\n        /* \"#utility.yul\":2805:2882   */\n    tag_28:\n        /* \"#utility.yul\":2842:2849   */\n      0x00\n        /* \"#utility.yul\":2871:2876   */\n      dup2\n        /* \"#utility.yul\":2860:2876   */\n      swap1\n      pop\n        /* \"#utility.yul\":2805:2882   */\n      swap2\n      swap1\n      pop\n      jump\t// out\n        /* \"#utility.yul\":2888:2948   */\n    tag_29:\n        /* \"#utility.yul\":2916:2919   */\n      0x00\n        /* \"#utility.yul\":2937:2942   */\n      dup2\n        /* \"#utility.yul\":2930:2942   */\n      swap1\n      pop\n        /* \"#utility.yul\":2888:2948   */\n      swap2\n      swap1\n      pop\n      jump\t// out\n        /* \"#utility.yul\":2954:3096   */\n    tag_30:\n        /* \"#utility.yul\":3004:3013   */\n      0x00\n        /* \"#utility.yul\":3037:3090   */\n      tag_70\n        /* \"#utility.yul\":3055:3089   */\n      tag_71\n        /* \"#utility.yul\":3064:3088   */\n      tag_72\n        /* \"#utility.yul\":3082:3087   */\n      dup5\n        /* \"#utility.yul\":3064:3088   */\n      tag_28\n      jump\t// in\n    tag_72:\n        /* \"#utility.yul\":3055:3089   */\n      tag_29\n      jump\t// in\n    tag_71:\n        /* \"#utility.yul\":3037:3090   */\n      tag_28\n      jump\t// in\n    tag_70:\n        /* \"#utility.yul\":3024:3090   */\n      swap1\n      pop\n        /* \"#utility.yul\":2954:3096   */\n      swap2\n      swap1\n      pop\n      jump\t// out\n        /* \"#utility.yul\":3102:3177   */\n    tag_31:\n        /* \"#utility.yul\":3145:3148   */\n      0x00\n        /* \"#utility.yul\":3166:3171   */\n      dup2\n        /* \"#utility.yul\":3159:3171   */\n      swap1\n      pop\n        /* \"#utility.yul\":3102:3177   */\n      swap2\n      swap1\n      pop\n      jump\t// out\n        /* \"#utility.yul\":3183:3452   */\n    tag_32:\n        /* \"#utility.yul\":3293:3332   */\n      tag_75\n        /* \"#utility.yul\":3324:3331   */\n      dup4\n        /* \"#utility.yul\":3293:3332   */\n      tag_30\n      jump\t// in\n    tag_75:\n        /* \"#utility.yul\":3354:3445   */\n      tag_76\n        /* \"#utility.yul\":3403:3444   */\n      tag_77\n        /* \"#utility.yul\":3427:3443   */\n      dup3\n        /* \"#utility.yul\":3403:3444   */\n      tag_31\n      jump\t// in\n    tag_77:\n        /* \"#utility.yul\":3395:3401   */\n      dup5\n        /* \"#utility.yul\":3388:3392   */\n      dup5\n        /* \"#utility.yul\":3382:3393   */\n      sload\n        /* \"#utility.yul\":3354:3445   */\n      tag_27\n      jump\t// in\n    tag_76:\n        /* \"#utility.yul\":3348:3352   */\n      dup3\n        /* \"#utility.yul\":3341:3446   */\n      sstore\n        /* \"#utility.yul\":3259:3452   */\n      pop\n        /* \"#utility.yul\":3183:3452   */\n      pop\n      pop\n      pop\n      jump\t// out\n        /* \"#utility.yul\":3458:3531   */\n    tag_33:\n        /* \"#utility.yul\":3503:3506   */\n      0x00\n        /* \"#utility.yul\":3458:3531   */\n      swap1\n      jump\t// out\n        /* \"#utility.yul\":3537:3726   */\n    tag_34:\n        /* \"#utility.yul\":3614:3646   */\n      tag_80\n      tag_33\n      jump\t// in\n    tag_80:\n        /* \"#utility.yul\":3655:3720   */\n      tag_81\n        /* \"#utility.yul\":3713:3719   */\n      dup2\n        /* \"#utility.yul\":3705:3711   */\n      dup5\n        /* \"#utility.yul\":3699:3703   */\n      dup5\n        /* \"#utility.yul\":3655:3720   */\n      tag_32\n      jump\t// in\n    tag_81:\n        /* \"#utility.yul\":3590:3726   */\n      pop\n        /* \"#utility.yul\":3537:3726   */\n      pop\n      pop\n      jump\t// out\n        /* \"#utility.yul\":3732:3918   */\n    tag_35:\n        /* \"#utility.yul\":3792:3912   */\n    tag_83:\n        /* \"#utility.yul\":3809:3812   */\n      dup2\n        /* \"#utility.yul\":3802:3807   */\n      dup2\n        /* \"#utility.yul\":3799:3813   */\n      lt\n        /* \"#utility.yul\":3792:3912   */\n      iszero\n      tag_85\n      jumpi\n        /* \"#utility.yul\":3863:3902   */\n      tag_86\n        /* \"#utility.yul\":3900:3901   */\n      0x00\n        /* \"#utility.yul\":3893:3898   */\n      dup3\n        /* \"#utility.yul\":3863:3902   */\n      tag_34\n      jump\t// in\n    tag_86:\n        /* \"#utility.yul\":3836:3837   */\n      0x01\n        /* \"#utility.yul\":3829:3834   */\n      dup2\n        /* \"#utility.yul\":3825:3838   */\n      add\n        /* \"#utility.yul\":3816:3838   */\n      swap1\n      pop\n        /* \"#utility.yul\":3792:3912   */\n      jump(tag_83)\n    tag_85:\n        /* \"#utility.yul\":3732:3918   */\n      pop\n      pop\n      jump\t// out\n        /* \"#utility.yul\":3924:4467   */\n    tag_36:\n        /* \"#utility.yul\":4025:4027   */\n      0x1f\n        /* \"#utility.yul\":4020:4023   */\n      dup3\n        /* \"#utility.yul\":4017:4028   */\n      gt\n        /* \"#utility.yul\":4014:4460   */\n      iszero\n      tag_88\n      jumpi\n        /* \"#utility.yul\":4059:4097   */\n      tag_89\n        /* \"#utility.yul\":4091:4096   */\n      dup2\n        /* \"#utility.yul\":4059:4097   */\n      tag_24\n      jump\t// in\n    tag_89:\n        /* \"#utility.yul\":4143:4172   */\n      tag_90\n        /* \"#utility.yul\":4161:4171   */\n      dup5\n        /* \"#utility.yul\":4143:4172   */\n      tag_25\n      jump\t// in\n    tag_90:\n        /* \"#utility.yul\":4133:4141   */\n      dup2\n        /* \"#utility.yul\":4129:4173   */\n      add\n        /* \"#utility.yul\":4326:4328   */\n      0x20\n        /* \"#utility.yul\":4314:4324   */\n      dup6\n        /* \"#utility.yul\":4311:4329   */\n      lt\n        /* \"#utility.yul\":4308:4357   */\n      iszero\n      tag_91\n      jumpi\n        /* \"#utility.yul\":4347:4355   */\n      dup2\n        /* \"#utility.yul\":4332:4355   */\n      swap1\n      pop\n        /* \"#utility.yul\":4308:4357   */\n    tag_91:\n        /* \"#utility.yul\":4370:4450   */\n      tag_92\n        /* \"#utility.yul\":4426:4448   */\n      tag_93\n        /* \"#utility.yul\":4444:4447   */\n      dup6\n        /* \"#utility.yul\":4426:4448   */\n      tag_25\n      jump\t// in\n    tag_93:\n        /* \"#utility.yul\":4416:4424   */\n      dup4\n        /* \"#utility.yul\":4412:4449   */\n      add\n        /* \"#utility.yul\":4399:4410   */\n      dup3\n        /* \"#utility.yul\":4370:4450   */\n      tag_35\n      jump\t// in\n    tag_92:\n        /* \"#utility.yul\":4029:4460   */\n      pop\n      pop\n        /* \"#utility.yul\":4014:4460   */\n    tag_88:\n        /* \"#utility.yul\":3924:4467   */\n      pop\n      pop\n      pop\n      jump\t// out\n        /* \"#utility.yul\":4473:4590   */\n    tag_37:\n        /* \"#utility.yul\":4527:4535   */\n      0x00\n        /* \"#utility.yul\":4577:4582   */\n      dup3\n        /* \"#utility.yul\":4571:4575   */\n      dup3\n        /* \"#utility.yul\":4567:4583   */\n      shr\n        /* \"#utility.yul\":4546:4583   */\n      swap1\n      pop\n        /* \"#utility.yul\":4473:4590   */\n      swap3\n      swap2\n      pop\n      pop\n      jump\t// out\n        /* \"#utility.yul\":4596:4765   */\n    tag_38:\n        /* \"#utility.yul\":4640:4646   */\n      0x00\n        /* \"#utility.yul\":4673:4724   */\n      tag_96\n        /* \"#utility.yul\":4721:4722   */\n      0x00\n        /* \"#utility.yul\":4717:4723   */\n      not\n        /* \"#utility.yul\":4709:4714   */\n      dup5\n        /* \"#utility.yul\":4706:4707   */\n      0x08\n        /* \"#utility.yul\":4702:4715   */\n      mul\n        /* \"#utility.yul\":4673:4724   */\n      tag_37\n      jump\t// in\n    tag_96:\n        /* \"#utility.yul\":4669:4725   */\n      not\n        /* \"#utility.yul\":4754:4758   */\n      dup1\n        /* \"#utility.yul\":4748:4752   */\n      dup4\n        /* \"#utility.yul\":4744:4759   */\n      and\n        /* \"#utility.yul\":4734:4759   */\n      swap2\n      pop\n        /* \"#utility.yul\":4647:4765   */\n      pop\n        /* \"#utility.yul\":4596:4765   */\n      swap3\n      swap2\n      pop\n      pop\n      jump\t// out\n        /* \"#utility.yul\":4770:5065   */\n    tag_39:\n        /* \"#utility.yul\":4846:4850   */\n      0x00\n        /* \"#utility.yul\":4992:5021   */\n      tag_98\n        /* \"#utility.yul\":5017:5020   */\n      dup4\n        /* \"#utility.yul\":5011:5015   */\n      dup4\n        /* \"#utility.yul\":4992:5021   */\n      tag_38\n      jump\t// in\n    tag_98:\n        /* \"#utility.yul\":4984:5021   */\n      swap2\n      pop\n        /* \"#utility.yul\":5054:5057   */\n      dup3\n        /* \"#utility.yul\":5051:5052   */\n      0x02\n        /* \"#utility.yul\":5047:5058   */\n      mul\n        /* \"#utility.yul\":5041:5045   */\n      dup3\n        /* \"#utility.yul\":5038:5059   */\n      or\n        /* \"#utility.yul\":5030:5059   */\n      swap1\n      pop\n        /* \"#utility.yul\":4770:5065   */\n      swap3\n      swap2\n      pop\n      pop\n      jump\t// out\n        /* \"#utility.yul\":5070:6465   */\n    tag_10:\n        /* \"#utility.yul\":5187:5224   */\n      tag_100\n        /* \"#utility.yul\":5220:5223   */\n      dup3\n        /* \"#utility.yul\":5187:5224   */\n      tag_17\n      jump\t// in\n    tag_100:\n        /* \"#utility.yul\":5289:5307   */\n      0xffffffffffffffff\n        /* \"#utility.yul\":5281:5287   */\n      dup2\n        /* \"#utility.yul\":5278:5308   */\n      gt\n        /* \"#utility.yul\":5275:5331   */\n      iszero\n      tag_101\n      jumpi\n        /* \"#utility.yul\":5311:5329   */\n      tag_102\n      tag_22\n      jump\t// in\n    tag_102:\n        /* \"#utility.yul\":5275:5331   */\n    tag_101:\n        /* \"#utility.yul\":5355:5393   */\n      tag_103\n        /* \"#utility.yul\":5387:5391   */\n      dup3\n        /* \"#utility.yul\":5381:5392   */\n      sload\n        /* \"#utility.yul\":5355:5393   */\n      tag_12\n      jump\t// in\n    tag_103:\n        /* \"#utility.yul\":5440:5507   */\n      tag_104\n        /* \"#utility.yul\":5500:5506   */\n      dup3\n        /* \"#utility.yul\":5492:5498   */\n      dup3\n        /* \"#utility.yul\":5486:5490   */\n      dup6\n        /* \"#utility.yul\":5440:5507   */\n      tag_36\n      jump\t// in\n    tag_104:\n        /* \"#utility.yul\":5534:5535   */\n      0x00\n        /* \"#utility.yul\":5558:5562   */\n      0x20\n        /* \"#utility.yul\":5545:5562   */\n      swap1\n      pop\n        /* \"#utility.yul\":5590:5592   */\n      0x1f\n        /* \"#utility.yul\":5582:5588   */\n      dup4\n        /* \"#utility.yul\":5579:5593   */\n      gt\n        /* \"#utility.yul\":5607:5608   */\n      0x01\n        /* \"#utility.yul\":5602:6220   */\n      dup2\n      eq\n      tag_106\n      jumpi\n        /* \"#utility.yul\":6264:6265   */\n      0x00\n        /* \"#utility.yul\":6281:6287   */\n      dup5\n        /* \"#utility.yul\":6278:6355   */\n      iszero\n      tag_107\n      jumpi\n        /* \"#utility.yul\":6330:6339   */\n      dup3\n        /* \"#utility.yul\":6325:6328   */\n      dup8\n        /* \"#utility.yul\":6321:6340   */\n      add\n        /* \"#utility.yul\":6315:6341   */\n      mload\n        /* \"#utility.yul\":6306:6341   */\n      swap1\n      pop\n        /* \"#utility.yul\":6278:6355   */\n    tag_107:\n        /* \"#utility.yul\":6381:6448   */\n      tag_108\n        /* \"#utility.yul\":6441:6447   */\n      dup6\n        /* \"#utility.yul\":6434:6439   */\n      dup3\n        /* \"#utility.yul\":6381:6448   */\n      tag_39\n      jump\t// in\n    tag_108:\n        /* \"#utility.yul\":6375:6379   */\n      dup7\n        /* \"#utility.yul\":6368:6449   */\n      sstore\n        /* \"#utility.yul\":6237:6459   */\n      pop\n        /* \"#utility.yul\":5572:6459   */\n      jump(tag_105)\n        /* \"#utility.yul\":5602:6220   */\n    tag_106:\n        /* \"#utility.yul\":5654:5658   */\n      0x1f\n        /* \"#utility.yul\":5650:5659   */\n      not\n        /* \"#utility.yul\":5642:5648   */\n      dup5\n        /* \"#utility.yul\":5638:5660   */\n      and\n        /* \"#utility.yul\":5688:5725   */\n      tag_109\n        /* \"#utility.yul\":5720:5724   */\n      dup7\n        /* \"#utility.yul\":5688:5725   */\n      tag_24\n      jump\t// in\n    tag_109:\n        /* \"#utility.yul\":5747:5748   */\n      0x00\n        /* \"#utility.yul\":5761:5969   */\n    tag_110:\n        /* \"#utility.yul\":5775:5782   */\n      dup3\n        /* \"#utility.yul\":5772:5773   */\n      dup2\n        /* \"#utility.yul\":5769:5783   */\n      lt\n        /* \"#utility.yul\":5761:5969   */\n      iszero\n      tag_112\n      jumpi\n        /* \"#utility.yul\":5854:5863   */\n      dup5\n        /* \"#utility.yul\":5849:5852   */\n      dup10\n        /* \"#utility.yul\":5845:5864   */\n      add\n        /* \"#utility.yul\":5839:5865   */\n      mload\n        /* \"#utility.yul\":5831:5837   */\n      dup3\n        /* \"#utility.yul\":5824:5866   */\n      sstore\n        /* \"#utility.yul\":5905:5906   */\n      0x01\n        /* \"#utility.yul\":5897:5903   */\n      dup3\n        /* \"#utility.yul\":5893:5907   */\n      add\n        /* \"#utility.yul\":5883:5907   */\n      swap2\n      pop\n        /* \"#utility.yul\":5952:5954   */\n      0x20\n        /* \"#utility.yul\":5941:5950   */\n      dup6\n        /* \"#utility.yul\":5937:5955   */\n      add\n        /* \"#utility.yul\":5924:5955   */\n      swap5\n      pop\n        /* \"#utility.yul\":5798:5802   */\n      0x20\n        /* \"#utility.yul\":5795:5796   */\n      dup2\n        /* \"#utility.yul\":5791:5803   */\n      add\n        /* \"#utility.yul\":5786:5803   */\n      swap1\n      pop\n        /* \"#utility.yul\":5761:5969   */\n      jump(tag_110)\n    tag_112:\n        /* \"#utility.yul\":5997:6003   */\n      dup7\n        /* \"#utility.yul\":5988:5995   */\n      dup4\n        /* \"#utility.yul\":5985:6004   */\n      lt\n        /* \"#utility.yul\":5982:6161   */\n      iszero\n      tag_113\n      jumpi\n        /* \"#utility.yul\":6055:6064   */\n      dup5\n        /* \"#utility.yul\":6050:6053   */\n      dup10\n        /* \"#utility.yul\":6046:6065   */\n      add\n        /* \"#utility.yul\":6040:6066   */\n      mload\n        /* \"#utility.yul\":6098:6146   */\n      tag_114\n        /* \"#utility.yul\":6140:6144   */\n      0x1f\n        /* \"#utility.yul\":6132:6138   */\n      dup10\n        /* \"#utility.yul\":6128:6145   */\n      and\n        /* \"#utility.yul\":6117:6126   */\n      dup3\n        /* \"#utility.yul\":6098:6146   */\n      tag_38\n      jump\t// in\n    tag_114:\n        /* \"#utility.yul\":6090:6096   */\n      dup4\n        /* \"#utility.yul\":6083:6147   */\n      sstore\n        /* \"#utility.yul\":6005:6161   */\n      pop\n        /* \"#utility.yul\":5982:6161   */\n    tag_113:\n        /* \"#utility.yul\":6207:6208   */\n      0x01\n        /* \"#utility.yul\":6203:6204   */\n      0x02\n        /* \"#utility.yul\":6195:6201   */\n      dup9\n        /* \"#utility.yul\":6191:6205   */\n      mul\n        /* \"#utility.yul\":6187:6209   */\n      add\n        /* \"#utility.yul\":6181:6185   */\n      dup9\n        /* \"#utility.yul\":6174:6210   */\n      sstore\n        /* \"#utility.yul\":5609:6220   */\n      pop\n      pop\n      pop\n        /* \"#utility.yul\":5572:6459   */\n    tag_105:\n      pop\n        /* \"#utility.yul\":5162:6465   */\n      pop\n      pop\n      pop\n        /* \"#utility.yul\":5070:6465   */\n      pop\n      pop\n      jump\t// out\n\n    auxdata: 0xa26469706673582212200b139aaa65587146f542bd207bb73cb0ebc108b531b838561bddd66b9f4c786a64736f6c63430008170033\n}\n",
				"bytecode": {
					"linkReferences": {},
					"object": "60806040526040518060400160405280600581526020017f48656c6c6f0000000000000000000000000000000000000000000000000000008152505f9081620000499190620002c1565b5034801562000056575f80fd5b50620003a5565b5f81519050919050565b7f4e487b71000000000000000000000000000000000000000000000000000000005f52604160045260245ffd5b7f4e487b71000000000000000000000000000000000000000000000000000000005f52602260045260245ffd5b5f6002820490506001821680620000d957607f821691505b602082108103620000ef57620000ee62000094565b5b50919050565b5f819050815f5260205f209050919050565b5f6020601f8301049050919050565b5f82821b905092915050565b5f60088302620001537fffffffffffffffffffffffffffffffffffffffffffffffffffffffffffffffff8262000116565b6200015f868362000116565b95508019841693508086168417925050509392505050565b5f819050919050565b5f819050919050565b5f620001a9620001a36200019d8462000177565b62000180565b62000177565b9050919050565b5f819050919050565b620001c48362000189565b620001dc620001d382620001b0565b84845462000122565b825550505050565b5f90565b620001f2620001e4565b620001ff818484620001b9565b505050565b5b8181101562000226576200021a5f82620001e8565b60018101905062000205565b5050565b601f82111562000275576200023f81620000f5565b6200024a8462000107565b810160208510156200025a578190505b62000272620002698562000107565b83018262000204565b50505b505050565b5f82821c905092915050565b5f620002975f19846008026200027a565b1980831691505092915050565b5f620002b1838362000286565b9150826002028217905092915050565b620002cc826200005d565b67ffffffffffffffff811115620002e857620002e762000067565b5b620002f48254620000c1565b620003018282856200022a565b5f60209050601f83116001811462000337575f841562000322578287015190505b6200032e8582620002a4565b8655506200039d565b601f1984166200034786620000f5565b5f5b82811015620003705784890151825560018201915060208501945060208101905062000349565b868310156200039057848901516200038c601f89168262000286565b8355505b6001600288020188555050505b505050505050565b6104fd80620003b35f395ff3fe608060405234801561000f575f80fd5b5060043610610029575f3560e01c806371ca2ecf1461002d575b5f80fd5b61003561004b565b60405161004291906101a8565b60405180910390f35b60606040518060400160405280600e81526020017f48656c6c6f20536f6c69646974790000000000000000000000000000000000008152505f908161009091906103f8565b505f805461009d90610222565b80601f01602080910402602001604051908101604052809291908181526020018280546100c990610222565b80156101145780601f106100eb57610100808354040283529160200191610114565b820191905f5260205f20905b8154815290600101906020018083116100f757829003601f168201915b5050505050905090565b5f81519050919050565b5f82825260208201905092915050565b5f5b8381101561015557808201518184015260208101905061013a565b5f8484015250505050565b5f601f19601f8301169050919050565b5f61017a8261011e565b6101848185610128565b9350610194818560208601610138565b61019d81610160565b840191505092915050565b5f6020820190508181035f8301526101c08184610170565b905092915050565b7f4e487b71000000000000000000000000000000000000000000000000000000005f52604160045260245ffd5b7f4e487b71000000000000000000000000000000000000000000000000000000005f52602260045260245ffd5b5f600282049050600182168061023957607f821691505b60208210810361024c5761024b6101f5565b5b50919050565b5f819050815f5260205f209050919050565b5f6020601f8301049050919050565b5f82821b905092915050565b5f600883026102ae7fffffffffffffffffffffffffffffffffffffffffffffffffffffffffffffffff82610273565b6102b88683610273565b95508019841693508086168417925050509392505050565b5f819050919050565b5f819050919050565b5f6102fc6102f76102f2846102d0565b6102d9565b6102d0565b9050919050565b5f819050919050565b610315836102e2565b61032961032182610303565b84845461027f565b825550505050565b5f90565b61033d610331565b61034881848461030c565b505050565b5b8181101561036b576103605f82610335565b60018101905061034e565b5050565b601f8211156103b05761038181610252565b61038a84610264565b81016020851015610399578190505b6103ad6103a585610264565b83018261034d565b50505b505050565b5f82821c905092915050565b5f6103d05f19846008026103b5565b1980831691505092915050565b5f6103e883836103c1565b9150826002028217905092915050565b6104018261011e565b67ffffffffffffffff81111561041a576104196101c8565b5b6104248254610222565b61042f82828561036f565b5f60209050601f831160018114610460575f841561044e578287015190505b61045885826103dd565b8655506104bf565b601f19841661046e86610252565b5f5b8281101561049557848901518255600182019150602085019450602081019050610470565b868310156104b257848901516104ae601f8916826103c1565b8355505b6001600288020188555050505b50505050505056fea26469706673582212200b139aaa65587146f542bd207bb73cb0ebc108b531b838561bddd66b9f4c786a64736f6c63430008170033",
					"opcodes": "PUSH1 0x80 PUSH1 0x40 MSTORE PUSH1 0x40 MLOAD DUP1 PUSH1 0x40 ADD PUSH1 0x40 MSTORE DUP1 PUSH1 0x5 DUP2 MSTORE PUSH1 0x20 ADD PUSH32 0x48656C6C6F000000000000000000000000000000000000000000000000000000 DUP2 MSTORE POP PUSH0 SWAP1 DUP2 PUSH3 0x49 SWAP2 SWAP1 PUSH3 0x2C1 JUMP JUMPDEST POP CALLVALUE DUP1 ISZERO PUSH3 0x56 JUMPI PUSH0 DUP1 REVERT JUMPDEST POP PUSH3 0x3A5 JUMP JUMPDEST PUSH0 DUP2 MLOAD SWAP1 POP SWAP2 SWAP1 POP JUMP JUMPDEST PUSH32 0x4E487B7100000000000000000000000000000000000000000000000000000000 PUSH0 MSTORE PUSH1 0x41 PUSH1 0x4 MSTORE PUSH1 0x24 PUSH0 REVERT JUMPDEST PUSH32 0x4E487B7100000000000000000000000000000000000000000000000000000000 PUSH0 MSTORE PUSH1 0x22 PUSH1 0x4 MSTORE PUSH1 0x24 PUSH0 REVERT JUMPDEST PUSH0 PUSH1 0x2 DUP3 DIV SWAP1 POP PUSH1 0x1 DUP3 AND DUP1 PUSH3 0xD9 JUMPI PUSH1 0x7F DUP3 AND SWAP2 POP JUMPDEST PUSH1 0x20 DUP3 LT DUP2 SUB PUSH3 0xEF JUMPI PUSH3 0xEE PUSH3 0x94 JUMP JUMPDEST JUMPDEST POP SWAP2 SWAP1 POP JUMP JUMPDEST PUSH0 DUP2 SWAP1 POP DUP2 PUSH0 MSTORE PUSH1 0x20 PUSH0 KECCAK256 SWAP1 POP SWAP2 SWAP1 POP JUMP JUMPDEST PUSH0 PUSH1 0x20 PUSH1 0x1F DUP4 ADD DIV SWAP1 POP SWAP2 SWAP1 POP JUMP JUMPDEST PUSH0 DUP3 DUP3 SHL SWAP1 POP SWAP3 SWAP2 POP POP JUMP JUMPDEST PUSH0 PUSH1 0x8 DUP4 MUL PUSH3 0x153 PUSH32 0xFFFFFFFFFFFFFFFFFFFFFFFFFFFFFFFFFFFFFFFFFFFFFFFFFFFFFFFFFFFFFFFF DUP3 PUSH3 0x116 JUMP JUMPDEST PUSH3 0x15F DUP7 DUP4 PUSH3 0x116 JUMP JUMPDEST SWAP6 POP DUP1 NOT DUP5 AND SWAP4 POP DUP1 DUP7 AND DUP5 OR SWAP3 POP POP POP SWAP4 SWAP3 POP POP POP JUMP JUMPDEST PUSH0 DUP2 SWAP1 POP SWAP2 SWAP1 POP JUMP JUMPDEST PUSH0 DUP2 SWAP1 POP SWAP2 SWAP1 POP JUMP JUMPDEST PUSH0 PUSH3 0x1A9 PUSH3 0x1A3 PUSH3 0x19D DUP5 PUSH3 0x177 JUMP JUMPDEST PUSH3 0x180 JUMP JUMPDEST PUSH3 0x177 JUMP JUMPDEST SWAP1 POP SWAP2 SWAP1 POP JUMP JUMPDEST PUSH0 DUP2 SWAP1 POP SWAP2 SWAP1 POP JUMP JUMPDEST PUSH3 0x1C4 DUP4 PUSH3 0x189 JUMP JUMPDEST PUSH3 0x1DC PUSH3 0x1D3 DUP3 PUSH3 0x1B0 JUMP JUMPDEST DUP5 DUP5 SLOAD PUSH3 0x122 JUMP JUMPDEST DUP3 SSTORE POP POP POP POP JUMP JUMPDEST PUSH0 SWAP1 JUMP JUMPDEST PUSH3 0x1F2 PUSH3 0x1E4 JUMP JUMPDEST PUSH3 0x1FF DUP2 DUP5 DUP5 PUSH3 0x1B9 JUMP JUMPDEST POP POP POP JUMP JUMPDEST JUMPDEST DUP2 DUP2 LT ISZERO PUSH3 0x226 JUMPI PUSH3 0x21A PUSH0 DUP3 PUSH3 0x1E8 JUMP JUMPDEST PUSH1 0x1 DUP2 ADD SWAP1 POP PUSH3 0x205 JUMP JUMPDEST POP POP JUMP JUMPDEST PUSH1 0x1F DUP3 GT ISZERO PUSH3 0x275 JUMPI PUSH3 0x23F DUP2 PUSH3 0xF5 JUMP JUMPDEST PUSH3 0x24A DUP5 PUSH3 0x107 JUMP JUMPDEST DUP2 ADD PUSH1 0x20 DUP6 LT ISZERO PUSH3 0x25A JUMPI DUP2 SWAP1 POP JUMPDEST PUSH3 0x272 PUSH3 0x269 DUP6 PUSH3 0x107 JUMP JUMPDEST DUP4 ADD DUP3 PUSH3 0x204 JUMP JUMPDEST POP POP JUMPDEST POP POP POP JUMP JUMPDEST PUSH0 DUP3 DUP3 SHR SWAP1 POP SWAP3 SWAP2 POP POP JUMP JUMPDEST PUSH0 PUSH3 0x297 PUSH0 NOT DUP5 PUSH1 0x8 MUL PUSH3 0x27A JUMP JUMPDEST NOT DUP1 DUP4 AND SWAP2 POP POP SWAP3 SWAP2 POP POP JUMP JUMPDEST PUSH0 PUSH3 0x2B1 DUP4 DUP4 PUSH3 0x286 JUMP JUMPDEST SWAP2 POP DUP3 PUSH1 0x2 MUL DUP3 OR SWAP1 POP SWAP3 SWAP2 POP POP JUMP JUMPDEST PUSH3 0x2CC DUP3 PUSH3 0x5D JUMP JUMPDEST PUSH8 0xFFFFFFFFFFFFFFFF DUP2 GT ISZERO PUSH3 0x2E8 JUMPI PUSH3 0x2E7 PUSH3 0x67 JUMP JUMPDEST JUMPDEST PUSH3 0x2F4 DUP3 SLOAD PUSH3 0xC1 JUMP JUMPDEST PUSH3 0x301 DUP3 DUP3 DUP6 PUSH3 0x22A JUMP JUMPDEST PUSH0 PUSH1 0x20 SWAP1 POP PUSH1 0x1F DUP4 GT PUSH1 0x1 DUP2 EQ PUSH3 0x337 JUMPI PUSH0 DUP5 ISZERO PUSH3 0x322 JUMPI DUP3 DUP8 ADD MLOAD SWAP1 POP JUMPDEST PUSH3 0x32E DUP6 DUP3 PUSH3 0x2A4 JUMP JUMPDEST DUP7 SSTORE POP PUSH3 0x39D JUMP JUMPDEST PUSH1 0x1F NOT DUP5 AND PUSH3 0x347 DUP7 PUSH3 0xF5 JUMP JUMPDEST PUSH0 JUMPDEST DUP3 DUP2 LT ISZERO PUSH3 0x370 JUMPI DUP5 DUP10 ADD MLOAD DUP3 SSTORE PUSH1 0x1 DUP3 ADD SWAP2 POP PUSH1 0x20 DUP6 ADD SWAP5 POP PUSH1 0x20 DUP2 ADD SWAP1 POP PUSH3 0x349 JUMP JUMPDEST DUP7 DUP4 LT ISZERO PUSH3 0x390 JUMPI DUP5 DUP10 ADD MLOAD PUSH3 0x38C PUSH1 0x1F DUP10 AND DUP3 PUSH3 0x286 JUMP JUMPDEST DUP4 SSTORE POP JUMPDEST PUSH1 0x1 PUSH1 0x2 DUP9 MUL ADD DUP9 SSTORE POP POP POP JUMPDEST POP POP POP POP POP POP JUMP JUMPDEST PUSH2 0x4FD DUP1 PUSH3 0x3B3 PUSH0 CODECOPY PUSH0 RETURN INVALID PUSH1 0x80 PUSH1 0x40 MSTORE CALLVALUE DUP1 ISZERO PUSH2 0xF JUMPI PUSH0 DUP1 REVERT JUMPDEST POP PUSH1 0x4 CALLDATASIZE LT PUSH2 0x29 JUMPI PUSH0 CALLDATALOAD PUSH1 0xE0 SHR DUP1 PUSH4 0x71CA2ECF EQ PUSH2 0x2D JUMPI JUMPDEST PUSH0 DUP1 REVERT JUMPDEST PUSH2 0x35 PUSH2 0x4B JUMP JUMPDEST PUSH1 0x40 MLOAD PUSH2 0x42 SWAP2 SWAP1 PUSH2 0x1A8 JUMP JUMPDEST PUSH1 0x40 MLOAD DUP1 SWAP2 SUB SWAP1 RETURN JUMPDEST PUSH1 0x60 PUSH1 0x40 MLOAD DUP1 PUSH1 0x40 ADD PUSH1 0x40 MSTORE DUP1 PUSH1 0xE DUP2 MSTORE PUSH1 0x20 ADD PUSH32 0x48656C6C6F20536F6C6964697479000000000000000000000000000000000000 DUP2 MSTORE POP PUSH0 SWAP1 DUP2 PUSH2 0x90 SWAP2 SWAP1 PUSH2 0x3F8 JUMP JUMPDEST POP PUSH0 DUP1 SLOAD PUSH2 0x9D SWAP1 PUSH2 0x222 JUMP JUMPDEST DUP1 PUSH1 0x1F ADD PUSH1 0x20 DUP1 SWAP2 DIV MUL PUSH1 0x20 ADD PUSH1 0x40 MLOAD SWAP1 DUP2 ADD PUSH1 0x40 MSTORE DUP1 SWAP3 SWAP2 SWAP1 DUP2 DUP2 MSTORE PUSH1 0x20 ADD DUP3 DUP1 SLOAD PUSH2 0xC9 SWAP1 PUSH2 0x222 JUMP JUMPDEST DUP1 ISZERO PUSH2 0x114 JUMPI DUP1 PUSH1 0x1F LT PUSH2 0xEB JUMPI PUSH2 0x100 DUP1 DUP4 SLOAD DIV MUL DUP4 MSTORE SWAP2 PUSH1 0x20 ADD SWAP2 PUSH2 0x114 JUMP JUMPDEST DUP3 ADD SWAP2 SWAP1 PUSH0 MSTORE PUSH1 0x20 PUSH0 KECCAK256 SWAP1 JUMPDEST DUP2 SLOAD DUP2 MSTORE SWAP1 PUSH1 0x1 ADD SWAP1 PUSH1 0x20 ADD DUP1 DUP4 GT PUSH2 0xF7 JUMPI DUP3 SWAP1 SUB PUSH1 0x1F AND DUP3 ADD SWAP2 JUMPDEST POP POP POP POP POP SWAP1 POP SWAP1 JUMP JUMPDEST PUSH0 DUP2 MLOAD SWAP1 POP SWAP2 SWAP1 POP JUMP JUMPDEST PUSH0 DUP3 DUP3 MSTORE PUSH1 0x20 DUP3 ADD SWAP1 POP SWAP3 SWAP2 POP POP JUMP JUMPDEST PUSH0 JUMPDEST DUP4 DUP2 LT ISZERO PUSH2 0x155 JUMPI DUP1 DUP3 ADD MLOAD DUP2 DUP5 ADD MSTORE PUSH1 0x20 DUP2 ADD SWAP1 POP PUSH2 0x13A JUMP JUMPDEST PUSH0 DUP5 DUP5 ADD MSTORE POP POP POP POP JUMP JUMPDEST PUSH0 PUSH1 0x1F NOT PUSH1 0x1F DUP4 ADD AND SWAP1 POP SWAP2 SWAP1 POP JUMP JUMPDEST PUSH0 PUSH2 0x17A DUP3 PUSH2 0x11E JUMP JUMPDEST PUSH2 0x184 DUP2 DUP6 PUSH2 0x128 JUMP JUMPDEST SWAP4 POP PUSH2 0x194 DUP2 DUP6 PUSH1 0x20 DUP7 ADD PUSH2 0x138 JUMP JUMPDEST PUSH2 0x19D DUP2 PUSH2 0x160 JUMP JUMPDEST DUP5 ADD SWAP2 POP POP SWAP3 SWAP2 POP POP JUMP JUMPDEST PUSH0 PUSH1 0x20 DUP3 ADD SWAP1 POP DUP2 DUP2 SUB PUSH0 DUP4 ADD MSTORE PUSH2 0x1C0 DUP2 DUP5 PUSH2 0x170 JUMP JUMPDEST SWAP1 POP SWAP3 SWAP2 POP POP JUMP JUMPDEST PUSH32 0x4E487B7100000000000000000000000000000000000000000000000000000000 PUSH0 MSTORE PUSH1 0x41 PUSH1 0x4 MSTORE PUSH1 0x24 PUSH0 REVERT JUMPDEST PUSH32 0x4E487B7100000000000000000000000000000000000000000000000000000000 PUSH0 MSTORE PUSH1 0x22 PUSH1 0x4 MSTORE PUSH1 0x24 PUSH0 REVERT JUMPDEST PUSH0 PUSH1 0x2 DUP3 DIV SWAP1 POP PUSH1 0x1 DUP3 AND DUP1 PUSH2 0x239 JUMPI PUSH1 0x7F DUP3 AND SWAP2 POP JUMPDEST PUSH1 0x20 DUP3 LT DUP2 SUB PUSH2 0x24C JUMPI PUSH2 0x24B PUSH2 0x1F5 JUMP JUMPDEST JUMPDEST POP SWAP2 SWAP1 POP JUMP JUMPDEST PUSH0 DUP2 SWAP1 POP DUP2 PUSH0 MSTORE PUSH1 0x20 PUSH0 KECCAK256 SWAP1 POP SWAP2 SWAP1 POP JUMP JUMPDEST PUSH0 PUSH1 0x20 PUSH1 0x1F DUP4 ADD DIV SWAP1 POP SWAP2 SWAP1 POP JUMP JUMPDEST PUSH0 DUP3 DUP3 SHL SWAP1 POP SWAP3 SWAP2 POP POP JUMP JUMPDEST PUSH0 PUSH1 0x8 DUP4 MUL PUSH2 0x2AE PUSH32 0xFFFFFFFFFFFFFFFFFFFFFFFFFFFFFFFFFFFFFFFFFFFFFFFFFFFFFFFFFFFFFFFF DUP3 PUSH2 0x273 JUMP JUMPDEST PUSH2 0x2B8 DUP7 DUP4 PUSH2 0x273 JUMP JUMPDEST SWAP6 POP DUP1 NOT DUP5 AND SWAP4 POP DUP1 DUP7 AND DUP5 OR SWAP3 POP POP POP SWAP4 SWAP3 POP POP POP JUMP JUMPDEST PUSH0 DUP2 SWAP1 POP SWAP2 SWAP1 POP JUMP JUMPDEST PUSH0 DUP2 SWAP1 POP SWAP2 SWAP1 POP JUMP JUMPDEST PUSH0 PUSH2 0x2FC PUSH2 0x2F7 PUSH2 0x2F2 DUP5 PUSH2 0x2D0 JUMP JUMPDEST PUSH2 0x2D9 JUMP JUMPDEST PUSH2 0x2D0 JUMP JUMPDEST SWAP1 POP SWAP2 SWAP1 POP JUMP JUMPDEST PUSH0 DUP2 SWAP1 POP SWAP2 SWAP1 POP JUMP JUMPDEST PUSH2 0x315 DUP4 PUSH2 0x2E2 JUMP JUMPDEST PUSH2 0x329 PUSH2 0x321 DUP3 PUSH2 0x303 JUMP JUMPDEST DUP5 DUP5 SLOAD PUSH2 0x27F JUMP JUMPDEST DUP3 SSTORE POP POP POP POP JUMP JUMPDEST PUSH0 SWAP1 JUMP JUMPDEST PUSH2 0x33D PUSH2 0x331 JUMP JUMPDEST PUSH2 0x348 DUP2 DUP5 DUP5 PUSH2 0x30C JUMP JUMPDEST POP POP POP JUMP JUMPDEST JUMPDEST DUP2 DUP2 LT ISZERO PUSH2 0x36B JUMPI PUSH2 0x360 PUSH0 DUP3 PUSH2 0x335 JUMP JUMPDEST PUSH1 0x1 DUP2 ADD SWAP1 POP PUSH2 0x34E JUMP JUMPDEST POP POP JUMP JUMPDEST PUSH1 0x1F DUP3 GT ISZERO PUSH2 0x3B0 JUMPI PUSH2 0x381 DUP2 PUSH2 0x252 JUMP JUMPDEST PUSH2 0x38A DUP5 PUSH2 0x264 JUMP JUMPDEST DUP2 ADD PUSH1 0x20 DUP6 LT ISZERO PUSH2 0x399 JUMPI DUP2 SWAP1 POP JUMPDEST PUSH2 0x3AD PUSH2 0x3A5 DUP6 PUSH2 0x264 JUMP JUMPDEST DUP4 ADD DUP3 PUSH2 0x34D JUMP JUMPDEST POP POP JUMPDEST POP POP POP JUMP JUMPDEST PUSH0 DUP3 DUP3 SHR SWAP1 POP SWAP3 SWAP2 POP POP JUMP JUMPDEST PUSH0 PUSH2 0x3D0 PUSH0 NOT DUP5 PUSH1 0x8 MUL PUSH2 0x3B5 JUMP JUMPDEST NOT DUP1 DUP4 AND SWAP2 POP POP SWAP3 SWAP2 POP POP JUMP JUMPDEST PUSH0 PUSH2 0x3E8 DUP4 DUP4 PUSH2 0x3C1 JUMP JUMPDEST SWAP2 POP DUP3 PUSH1 0x2 MUL DUP3 OR SWAP1 POP SWAP3 SWAP2 POP POP JUMP JUMPDEST PUSH2 0x401 DUP3 PUSH2 0x11E JUMP JUMPDEST PUSH8 0xFFFFFFFFFFFFFFFF DUP2 GT ISZERO PUSH2 0x41A JUMPI PUSH2 0x419 PUSH2 0x1C8 JUMP JUMPDEST JUMPDEST PUSH2 0x424 DUP3 SLOAD PUSH2 0x222 JUMP JUMPDEST PUSH2 0x42F DUP3 DUP3 DUP6 PUSH2 0x36F JUMP JUMPDEST PUSH0 PUSH1 0x20 SWAP1 POP PUSH1 0x1F DUP4 GT PUSH1 0x1 DUP2 EQ PUSH2 0x460 JUMPI PUSH0 DUP5 ISZERO PUSH2 0x44E JUMPI DUP3 DUP8 ADD MLOAD SWAP1 POP JUMPDEST PUSH2 0x458 DUP6 DUP3 PUSH2 0x3DD JUMP JUMPDEST DUP7 SSTORE POP PUSH2 0x4BF JUMP JUMPDEST PUSH1 0x1F NOT DUP5 AND PUSH2 0x46E DUP7 PUSH2 0x252 JUMP JUMPDEST PUSH0 JUMPDEST DUP3 DUP2 LT ISZERO PUSH2 0x495 JUMPI DUP5 DUP10 ADD MLOAD DUP3 SSTORE PUSH1 0x1 DUP3 ADD SWAP2 POP PUSH1 0x20 DUP6 ADD SWAP5 POP PUSH1 0x20 DUP2 ADD SWAP1 POP PUSH2 0x470 JUMP JUMPDEST DUP7 DUP4 LT ISZERO PUSH2 0x4B2 JUMPI DUP5 DUP10 ADD MLOAD PUSH2 0x4AE PUSH1 0x1F DUP10 AND DUP3 PUSH2 0x3C1 JUMP JUMPDEST DUP4 SSTORE POP JUMPDEST PUSH1 0x1 PUSH1 0x2 DUP9 MUL ADD DUP9 SSTORE POP POP POP JUMPDEST POP POP POP POP POP POP JUMP INVALID LOG2 PUSH5 0x6970667358 0x22 SLT KECCAK256 SIGNEXTEND SGT SWAP11 0xAA PUSH6 0x587146F542BD KECCAK256 PUSH28 0xB73CB0EBC108B531B838561BDDD66B9F4C786A64736F6C6343000817 STOP CALLER "
				},
				"gasEstimates": {
					"creation": {
						"codeDepositCost": "255400",
						"executionCost": "infinite",
						"totalCost": "infinite"
					},
					"external": {
						"assignment()": "infinite"
					}
				},
				"methodIdentifiers": {
					"assignment()": "71ca2ecf"
				}
			},
			"storageLayout": {
				"storage": [
					{
						"astId": 4,
						"contract": "chapter2/Ex2_2.sol:Ex2_2",
						"label": "a",
						"offset": 0,
						"slot": "0",
						"type": "t_string_storage"
					}
				],
				"types": {
					"t_string_storage": {
						"encoding": "bytes",
						"label": "string",
						"numberOfBytes": "32"
					}
				}
			},
			"userdoc": {
				"kind": "user",
				"methods": {},
				"version": 1
			}
		}
	}
}