{
	"data": {
		"bytecode": {
			"linkReferences": {},
			"object": "608060405234801561001057600080fd5b50610247806100206000396000f3fe608060405234801561001057600080fd5b50600436106100415760003560e01c80631fe4e68014610046578063508397101461009b57806356e2778c146100f0575b600080fd5b6100826004803603604081101561005c57600080fd5b81019080803560ff169060200190929190803560ff169060200190929190505050610145565b604051808260ff16815260200191505060405180910390f35b6100d7600480360360408110156100b157600080fd5b81019080803560ff169060200190929190803560ff169060200190929190505050610159565b604051808260ff16815260200191505060405180910390f35b61012c6004803603604081101561010657600080fd5b81019080803560ff169060200190929190803560ff169060200190929190505050610179565b604051808260ff16815260200191505060405180910390f35b60006101518383610186565b905092915050565b6000610171828460ff1661018690919063ffffffff16565b905092915050565b6000818301905092915050565b60008260ff1682840160ff161015610206576040517f08c379a00000000000000000000000000000000000000000000000000000000081526004018080602001828103825260188152602001807f45726f72723a206164646974696f6e206f766572666c6f77000000000000000081525060200191505060405180910390fd5b81830190509291505056fea264697066735822122006e7b1107eef8002a24840a50755fb6a94ef9c67422ec1afbb0fe45516f76bb264736f6c63430007060033",
			"opcodes": "PUSH1 0x80 PUSH1 0x40 MSTORE CALLVALUE DUP1 ISZERO PUSH2 0x10 JUMPI PUSH1 0x0 DUP1 REVERT JUMPDEST POP PUSH2 0x247 DUP1 PUSH2 0x20 PUSH1 0x0 CODECOPY PUSH1 0x0 RETURN INVALID PUSH1 0x80 PUSH1 0x40 MSTORE CALLVALUE DUP1 ISZERO PUSH2 0x10 JUMPI PUSH1 0x0 DUP1 REVERT JUMPDEST POP PUSH1 0x4 CALLDATASIZE LT PUSH2 0x41 JUMPI PUSH1 0x0 CALLDATALOAD PUSH1 0xE0 SHR DUP1 PUSH4 0x1FE4E680 EQ PUSH2 0x46 JUMPI DUP1 PUSH4 0x50839710 EQ PUSH2 0x9B JUMPI DUP1 PUSH4 0x56E2778C EQ PUSH2 0xF0 JUMPI JUMPDEST PUSH1 0x0 DUP1 REVERT JUMPDEST PUSH2 0x82 PUSH1 0x4 DUP1 CALLDATASIZE SUB PUSH1 0x40 DUP2 LT ISZERO PUSH2 0x5C JUMPI PUSH1 0x0 DUP1 REVERT JUMPDEST DUP2 ADD SWAP1 DUP1 DUP1 CALLDATALOAD PUSH1 0xFF AND SWAP1 PUSH1 0x20 ADD SWAP1 SWAP3 SWAP2 SWAP1 DUP1 CALLDATALOAD PUSH1 0xFF AND SWAP1 PUSH1 0x20 ADD SWAP1 SWAP3 SWAP2 SWAP1 POP POP POP PUSH2 0x145 JUMP JUMPDEST PUSH1 0x40 MLOAD DUP1 DUP3 PUSH1 0xFF AND DUP2 MSTORE PUSH1 0x20 ADD SWAP2 POP POP PUSH1 0x40 MLOAD DUP1 SWAP2 SUB SWAP1 RETURN JUMPDEST PUSH2 0xD7 PUSH1 0x4 DUP1 CALLDATASIZE SUB PUSH1 0x40 DUP2 LT ISZERO PUSH2 0xB1 JUMPI PUSH1 0x0 DUP1 REVERT JUMPDEST DUP2 ADD SWAP1 DUP1 DUP1 CALLDATALOAD PUSH1 0xFF AND SWAP1 PUSH1 0x20 ADD SWAP1 SWAP3 SWAP2 SWAP1 DUP1 CALLDATALOAD PUSH1 0xFF AND SWAP1 PUSH1 0x20 ADD SWAP1 SWAP3 SWAP2 SWAP1 POP POP POP PUSH2 0x159 JUMP JUMPDEST PUSH1 0x40 MLOAD DUP1 DUP3 PUSH1 0xFF AND DUP2 MSTORE PUSH1 0x20 ADD SWAP2 POP POP PUSH1 0x40 MLOAD DUP1 SWAP2 SUB SWAP1 RETURN JUMPDEST PUSH2 0x12C PUSH1 0x4 DUP1 CALLDATASIZE SUB PUSH1 0x40 DUP2 LT ISZERO PUSH2 0x106 JUMPI PUSH1 0x0 DUP1 REVERT JUMPDEST DUP2 ADD SWAP1 DUP1 DUP1 CALLDATALOAD PUSH1 0xFF AND SWAP1 PUSH1 0x20 ADD SWAP1 SWAP3 SWAP2 SWAP1 DUP1 CALLDATALOAD PUSH1 0xFF AND SWAP1 PUSH1 0x20 ADD SWAP1 SWAP3 SWAP2 SWAP1 POP POP POP PUSH2 0x179 JUMP JUMPDEST PUSH1 0x40 MLOAD DUP1 DUP3 PUSH1 0xFF AND DUP2 MSTORE PUSH1 0x20 ADD SWAP2 POP POP PUSH1 0x40 MLOAD DUP1 SWAP2 SUB SWAP1 RETURN JUMPDEST PUSH1 0x0 PUSH2 0x151 DUP4 DUP4 PUSH2 0x186 JUMP JUMPDEST SWAP1 POP SWAP3 SWAP2 POP POP JUMP JUMPDEST PUSH1 0x0 PUSH2 0x171 DUP3 DUP5 PUSH1 0xFF AND PUSH2 0x186 SWAP1 SWAP2 SWAP1 PUSH4 0xFFFFFFFF AND JUMP JUMPDEST SWAP1 POP SWAP3 SWAP2 POP POP JUMP JUMPDEST PUSH1 0x0 DUP2 DUP4 ADD SWAP1 POP SWAP3 SWAP2 POP POP JUMP JUMPDEST PUSH1 0x0 DUP3 PUSH1 0xFF AND DUP3 DUP5 ADD PUSH1 0xFF AND LT ISZERO PUSH2 0x206 JUMPI PUSH1 0x40 MLOAD PUSH32 0x8C379A000000000000000000000000000000000000000000000000000000000 DUP2 MSTORE PUSH1 0x4 ADD DUP1 DUP1 PUSH1 0x20 ADD DUP3 DUP2 SUB DUP3 MSTORE PUSH1 0x18 DUP2 MSTORE PUSH1 0x20 ADD DUP1 PUSH32 0x45726F72723A206164646974696F6E206F766572666C6F770000000000000000 DUP2 MSTORE POP PUSH1 0x20 ADD SWAP2 POP POP PUSH1 0x40 MLOAD DUP1 SWAP2 SUB SWAP1 REVERT JUMPDEST DUP2 DUP4 ADD SWAP1 POP SWAP3 SWAP2 POP POP JUMP INVALID LOG2 PUSH5 0x6970667358 0x22 SLT KECCAK256 MOD 0xE7 0xB1 LT PUSH31 0xEF8002A24840A50755FB6A94EF9C67422EC1AFBB0FE45516F76BB264736F6C PUSH4 0x43000706 STOP CALLER "
		},
		"gasEstimates": {
			"creation": {
				"codeDepositCost": "116600",
				"executionCost": "165",
				"totalCost": "116765"
			},
			"external": {
				"noOverflow(uint8,uint8)": "427",
				"noOverflow2(uint8,uint8)": "infinite",
				"overflow(uint8,uint8)": "375"
			}
		},
		"methodIdentifiers": {
			"noOverflow(uint8,uint8)": "1fe4e680",
			"noOverflow2(uint8,uint8)": "50839710",
			"overflow(uint8,uint8)": "56e2778c"
		}
	},
	"abi": [
		{
			"inputs": [
				{
					"internalType": "uint8",
					"name": "_num1",
					"type": "uint8"
				},
				{
					"internalType": "uint8",
					"name": "_num2",
					"type": "uint8"
				}
			],
			"name": "noOverflow",
			"outputs": [
				{
					"internalType": "uint8",
					"name": "",
					"type": "uint8"
				}
			],
			"stateMutability": "pure",
			"type": "function"
		},
		{
			"inputs": [
				{
					"internalType": "uint8",
					"name": "_num1",
					"type": "uint8"
				},
				{
					"internalType": "uint8",
					"name": "_num2",
					"type": "uint8"
				}
			],
			"name": "noOverflow2",
			"outputs": [
				{
					"internalType": "uint8",
					"name": "",
					"type": "uint8"
				}
			],
			"stateMutability": "pure",
			"type": "function"
		},
		{
			"inputs": [
				{
					"internalType": "uint8",
					"name": "_num1",
					"type": "uint8"
				},
				{
					"internalType": "uint8",
					"name": "_num2",
					"type": "uint8"
				}
			],
			"name": "overflow",
			"outputs": [
				{
					"internalType": "uint8",
					"name": "",
					"type": "uint8"
				}
			],
			"stateMutability": "pure",
			"type": "function"
		}
	]
}