{
	"chapter6/EX6_10.sol": {
		"ArtStudent": {
			"abi": [
				{
					"inputs": [],
					"name": "showCourses",
					"outputs": [
						{
							"internalType": "string[]",
							"name": "",
							"type": "string[]"
						}
					],
					"stateMutability": "nonpayable",
					"type": "function"
				}
			],
			"devdoc": {
				"kind": "dev",
				"methods": {},
				"version": 1
			},
			"evm": {
				"assembly": "    /* \"chapter6/EX6_10.sol\":329:528  contract ArtStudent is Student {... */\n  mstore(0x40, 0x80)\n  callvalue\n  dup1\n  iszero\n  tag_1\n  jumpi\n  0x00\n  dup1\n  revert\ntag_1:\n  pop\n  dataSize(sub_0)\n  dup1\n  dataOffset(sub_0)\n  0x00\n  codecopy\n  0x00\n  return\nstop\n\nsub_0: assembly {\n        /* \"chapter6/EX6_10.sol\":329:528  contract ArtStudent is Student {... */\n      mstore(0x40, 0x80)\n      callvalue\n      dup1\n      iszero\n      tag_1\n      jumpi\n      0x00\n      dup1\n      revert\n    tag_1:\n      pop\n      jumpi(tag_2, lt(calldatasize, 0x04))\n      shr(0xe0, calldataload(0x00))\n      dup1\n      0x44a034cd\n      eq\n      tag_3\n      jumpi\n    tag_2:\n      0x00\n      dup1\n      revert\n        /* \"chapter6/EX6_10.sol\":367:525  function showCourses() public override returns (string[] memory) {... */\n    tag_3:\n      tag_4\n      tag_5\n      jump\t// in\n    tag_4:\n      mload(0x40)\n      tag_6\n      swap2\n      swap1\n      tag_7\n      jump\t// in\n    tag_6:\n      mload(0x40)\n      dup1\n      swap2\n      sub\n      swap1\n      return\n    tag_5:\n        /* \"chapter6/EX6_10.sol\":415:430  string[] memory */\n      0x60\n        /* \"chapter6/EX6_10.sol\":443:462  super.showCourses() */\n      tag_9\n        /* \"chapter6/EX6_10.sol\":443:460  super.showCourses */\n      tag_10\n        /* \"chapter6/EX6_10.sol\":443:462  super.showCourses() */\n      jump\t// in\n    tag_9:\n      pop\n        /* \"chapter6/EX6_10.sol\":473:480  courses */\n      0x00\n        /* \"chapter6/EX6_10.sol\":473:492  courses.push(\"Art\") */\n      dup1\n      0x01\n      dup2\n      sload\n      add\n      dup1\n      dup3\n      sstore\n      dup1\n      swap2\n      pop\n      pop\n      0x01\n      swap1\n      sub\n      swap1\n      0x00\n      mstore\n      keccak256(0x00, 0x20)\n      add\n      0x00\n      mload(0x40)\n      dup1\n      0x40\n      add\n      0x40\n      mstore\n      dup1\n      0x03\n      dup2\n      mstore\n      0x20\n      add\n      0x4172740000000000000000000000000000000000000000000000000000000000\n      dup2\n      mstore\n      pop\n      swap1\n      swap2\n      swap1\n      swap2\n      pop\n      swap1\n      dup2\n      tag_12\n      swap2\n      swap1\n      tag_13\n      jump\t// in\n    tag_12:\n      pop\n        /* \"chapter6/EX6_10.sol\":510:517  courses */\n      0x00\n        /* \"chapter6/EX6_10.sol\":503:517  return courses */\n      dup1\n      sload\n      dup1\n      0x20\n      mul\n      0x20\n      add\n      mload(0x40)\n      swap1\n      dup2\n      add\n      0x40\n      mstore\n      dup1\n      swap3\n      swap2\n      swap1\n      dup2\n      dup2\n      mstore\n      0x20\n      add\n      0x00\n      swap1\n    tag_14:\n      dup3\n      dup3\n      lt\n      iszero\n      tag_15\n      jumpi\n      dup4\n      dup3\n      swap1\n      0x00\n      mstore\n      keccak256(0x00, 0x20)\n      add\n      dup1\n      sload\n      tag_17\n      swap1\n      tag_18\n      jump\t// in\n    tag_17:\n      dup1\n      0x1f\n      add\n      0x20\n      dup1\n      swap2\n      div\n      mul\n      0x20\n      add\n      mload(0x40)\n      swap1\n      dup2\n      add\n      0x40\n      mstore\n      dup1\n      swap3\n      swap2\n      swap1\n      dup2\n      dup2\n      mstore\n      0x20\n      add\n      dup3\n      dup1\n      sload\n      tag_19\n      swap1\n      tag_18\n      jump\t// in\n    tag_19:\n      dup1\n      iszero\n      tag_20\n      jumpi\n      dup1\n      0x1f\n      lt\n      tag_21\n      jumpi\n      0x0100\n      dup1\n      dup4\n      sload\n      div\n      mul\n      dup4\n      mstore\n      swap2\n      0x20\n      add\n      swap2\n      jump(tag_20)\n    tag_21:\n      dup3\n      add\n      swap2\n      swap1\n      0x00\n      mstore\n      keccak256(0x00, 0x20)\n      swap1\n    tag_22:\n      dup2\n      sload\n      dup2\n      mstore\n      swap1\n      0x01\n      add\n      swap1\n      0x20\n      add\n      dup1\n      dup4\n      gt\n      tag_22\n      jumpi\n      dup3\n      swap1\n      sub\n      0x1f\n      and\n      dup3\n      add\n      swap2\n    tag_20:\n      pop\n      pop\n      pop\n      pop\n      pop\n      dup2\n      mstore\n      0x20\n      add\n      swap1\n      0x01\n      add\n      swap1\n      jump(tag_14)\n    tag_15:\n      pop\n      pop\n      pop\n      pop\n      swap1\n      pop\n        /* \"chapter6/EX6_10.sol\":367:525  function showCourses() public override returns (string[] memory) {... */\n      swap1\n      jump\t// out\n        /* \"chapter6/EX6_10.sol\":132:320  function showCourses() public virtual returns (string[] memory) {... */\n    tag_10:\n        /* \"chapter6/EX6_10.sol\":179:194  string[] memory */\n      0x60\n        /* \"chapter6/EX6_10.sol\":214:221  courses */\n      0x00\n      dup1\n        /* \"chapter6/EX6_10.sol\":207:221  delete courses */\n      tag_24\n      swap2\n      swap1\n      tag_25\n      jump\t// in\n    tag_24:\n        /* \"chapter6/EX6_10.sol\":232:239  courses */\n      0x00\n        /* \"chapter6/EX6_10.sol\":232:255  courses.push(\"English\") */\n      dup1\n      0x01\n      dup2\n      sload\n      add\n      dup1\n      dup3\n      sstore\n      dup1\n      swap2\n      pop\n      pop\n      0x01\n      swap1\n      sub\n      swap1\n      0x00\n      mstore\n      keccak256(0x00, 0x20)\n      add\n      0x00\n      mload(0x40)\n      dup1\n      0x40\n      add\n      0x40\n      mstore\n      dup1\n      0x07\n      dup2\n      mstore\n      0x20\n      add\n      0x456e676c69736800000000000000000000000000000000000000000000000000\n      dup2\n      mstore\n      pop\n      swap1\n      swap2\n      swap1\n      swap2\n      pop\n      swap1\n      dup2\n      tag_27\n      swap2\n      swap1\n      tag_13\n      jump\t// in\n    tag_27:\n      pop\n        /* \"chapter6/EX6_10.sol\":266:273  courses */\n      0x00\n        /* \"chapter6/EX6_10.sol\":266:287  courses.push(\"Music\") */\n      dup1\n      0x01\n      dup2\n      sload\n      add\n      dup1\n      dup3\n      sstore\n      dup1\n      swap2\n      pop\n      pop\n      0x01\n      swap1\n      sub\n      swap1\n      0x00\n      mstore\n      keccak256(0x00, 0x20)\n      add\n      0x00\n      mload(0x40)\n      dup1\n      0x40\n      add\n      0x40\n      mstore\n      dup1\n      0x05\n      dup2\n      mstore\n      0x20\n      add\n      0x4d75736963000000000000000000000000000000000000000000000000000000\n      dup2\n      mstore\n      pop\n      swap1\n      swap2\n      swap1\n      swap2\n      pop\n      swap1\n      dup2\n      tag_29\n      swap2\n      swap1\n      tag_13\n      jump\t// in\n    tag_29:\n      pop\n        /* \"chapter6/EX6_10.sol\":305:312  courses */\n      0x00\n        /* \"chapter6/EX6_10.sol\":298:312  return courses */\n      dup1\n      sload\n      dup1\n      0x20\n      mul\n      0x20\n      add\n      mload(0x40)\n      swap1\n      dup2\n      add\n      0x40\n      mstore\n      dup1\n      swap3\n      swap2\n      swap1\n      dup2\n      dup2\n      mstore\n      0x20\n      add\n      0x00\n      swap1\n    tag_30:\n      dup3\n      dup3\n      lt\n      iszero\n      tag_31\n      jumpi\n      dup4\n      dup3\n      swap1\n      0x00\n      mstore\n      keccak256(0x00, 0x20)\n      add\n      dup1\n      sload\n      tag_33\n      swap1\n      tag_18\n      jump\t// in\n    tag_33:\n      dup1\n      0x1f\n      add\n      0x20\n      dup1\n      swap2\n      div\n      mul\n      0x20\n      add\n      mload(0x40)\n      swap1\n      dup2\n      add\n      0x40\n      mstore\n      dup1\n      swap3\n      swap2\n      swap1\n      dup2\n      dup2\n      mstore\n      0x20\n      add\n      dup3\n      dup1\n      sload\n      tag_34\n      swap1\n      tag_18\n      jump\t// in\n    tag_34:\n      dup1\n      iszero\n      tag_35\n      jumpi\n      dup1\n      0x1f\n      lt\n      tag_36\n      jumpi\n      0x0100\n      dup1\n      dup4\n      sload\n      div\n      mul\n      dup4\n      mstore\n      swap2\n      0x20\n      add\n      swap2\n      jump(tag_35)\n    tag_36:\n      dup3\n      add\n      swap2\n      swap1\n      0x00\n      mstore\n      keccak256(0x00, 0x20)\n      swap1\n    tag_37:\n      dup2\n      sload\n      dup2\n      mstore\n      swap1\n      0x01\n      add\n      swap1\n      0x20\n      add\n      dup1\n      dup4\n      gt\n      tag_37\n      jumpi\n      dup3\n      swap1\n      sub\n      0x1f\n      and\n      dup3\n      add\n      swap2\n    tag_35:\n      pop\n      pop\n      pop\n      pop\n      pop\n      dup2\n      mstore\n      0x20\n      add\n      swap1\n      0x01\n      add\n      swap1\n      jump(tag_30)\n    tag_31:\n      pop\n      pop\n      pop\n      pop\n      swap1\n      pop\n        /* \"chapter6/EX6_10.sol\":132:320  function showCourses() public virtual returns (string[] memory) {... */\n      swap1\n      jump\t// out\n    tag_25:\n      pop\n      dup1\n      sload\n      0x00\n      dup3\n      sstore\n      swap1\n      0x00\n      mstore\n      keccak256(0x00, 0x20)\n      swap1\n      dup2\n      add\n      swap1\n      tag_39\n      swap2\n      swap1\n      tag_40\n      jump\t// in\n    tag_39:\n      pop\n      jump\t// out\n    tag_40:\n    tag_41:\n      dup1\n      dup3\n      gt\n      iszero\n      tag_42\n      jumpi\n      0x00\n      dup2\n      dup2\n      tag_43\n      swap2\n      swap1\n      tag_44\n      jump\t// in\n    tag_43:\n      pop\n      0x01\n      add\n      jump(tag_41)\n    tag_42:\n      pop\n      swap1\n      jump\t// out\n    tag_44:\n      pop\n      dup1\n      sload\n      tag_45\n      swap1\n      tag_18\n      jump\t// in\n    tag_45:\n      0x00\n      dup3\n      sstore\n      dup1\n      0x1f\n      lt\n      tag_47\n      jumpi\n      pop\n      jump(tag_46)\n    tag_47:\n      0x1f\n      add\n      0x20\n      swap1\n      div\n      swap1\n      0x00\n      mstore\n      keccak256(0x00, 0x20)\n      swap1\n      dup2\n      add\n      swap1\n      tag_48\n      swap2\n      swap1\n      tag_49\n      jump\t// in\n    tag_48:\n    tag_46:\n      pop\n      jump\t// out\n    tag_49:\n    tag_50:\n      dup1\n      dup3\n      gt\n      iszero\n      tag_51\n      jumpi\n      0x00\n      dup2\n      0x00\n      swap1\n      sstore\n      pop\n      0x01\n      add\n      jump(tag_50)\n    tag_51:\n      pop\n      swap1\n      jump\t// out\n        /* \"#utility.yul\":7:131   */\n    tag_52:\n        /* \"#utility.yul\":84:90   */\n      0x00\n        /* \"#utility.yul\":118:123   */\n      dup2\n        /* \"#utility.yul\":112:124   */\n      mload\n        /* \"#utility.yul\":102:124   */\n      swap1\n      pop\n        /* \"#utility.yul\":7:131   */\n      swap2\n      swap1\n      pop\n      jump\t// out\n        /* \"#utility.yul\":137:331   */\n    tag_53:\n        /* \"#utility.yul\":246:257   */\n      0x00\n        /* \"#utility.yul\":280:286   */\n      dup3\n        /* \"#utility.yul\":275:278   */\n      dup3\n        /* \"#utility.yul\":268:287   */\n      mstore\n        /* \"#utility.yul\":320:324   */\n      0x20\n        /* \"#utility.yul\":315:318   */\n      dup3\n        /* \"#utility.yul\":311:325   */\n      add\n        /* \"#utility.yul\":296:325   */\n      swap1\n      pop\n        /* \"#utility.yul\":137:331   */\n      swap3\n      swap2\n      pop\n      pop\n      jump\t// out\n        /* \"#utility.yul\":337:479   */\n    tag_54:\n        /* \"#utility.yul\":414:418   */\n      0x00\n        /* \"#utility.yul\":437:440   */\n      dup2\n        /* \"#utility.yul\":429:440   */\n      swap1\n      pop\n        /* \"#utility.yul\":467:471   */\n      0x20\n        /* \"#utility.yul\":462:465   */\n      dup3\n        /* \"#utility.yul\":458:472   */\n      add\n        /* \"#utility.yul\":450:472   */\n      swap1\n      pop\n        /* \"#utility.yul\":337:479   */\n      swap2\n      swap1\n      pop\n      jump\t// out\n        /* \"#utility.yul\":485:584   */\n    tag_55:\n        /* \"#utility.yul\":537:543   */\n      0x00\n        /* \"#utility.yul\":571:576   */\n      dup2\n        /* \"#utility.yul\":565:577   */\n      mload\n        /* \"#utility.yul\":555:577   */\n      swap1\n      pop\n        /* \"#utility.yul\":485:584   */\n      swap2\n      swap1\n      pop\n      jump\t// out\n        /* \"#utility.yul\":590:749   */\n    tag_56:\n        /* \"#utility.yul\":664:675   */\n      0x00\n        /* \"#utility.yul\":698:704   */\n      dup3\n        /* \"#utility.yul\":693:696   */\n      dup3\n        /* \"#utility.yul\":686:705   */\n      mstore\n        /* \"#utility.yul\":738:742   */\n      0x20\n        /* \"#utility.yul\":733:736   */\n      dup3\n        /* \"#utility.yul\":729:743   */\n      add\n        /* \"#utility.yul\":714:743   */\n      swap1\n      pop\n        /* \"#utility.yul\":590:749   */\n      swap3\n      swap2\n      pop\n      pop\n      jump\t// out\n        /* \"#utility.yul\":755:1001   */\n    tag_57:\n        /* \"#utility.yul\":836:837   */\n      0x00\n        /* \"#utility.yul\":846:959   */\n    tag_88:\n        /* \"#utility.yul\":860:866   */\n      dup4\n        /* \"#utility.yul\":857:858   */\n      dup2\n        /* \"#utility.yul\":854:867   */\n      lt\n        /* \"#utility.yul\":846:959   */\n      iszero\n      tag_90\n      jumpi\n        /* \"#utility.yul\":945:946   */\n      dup1\n        /* \"#utility.yul\":940:943   */\n      dup3\n        /* \"#utility.yul\":936:947   */\n      add\n        /* \"#utility.yul\":930:948   */\n      mload\n        /* \"#utility.yul\":926:927   */\n      dup2\n        /* \"#utility.yul\":921:924   */\n      dup5\n        /* \"#utility.yul\":917:928   */\n      add\n        /* \"#utility.yul\":910:949   */\n      mstore\n        /* \"#utility.yul\":882:884   */\n      0x20\n        /* \"#utility.yul\":879:880   */\n      dup2\n        /* \"#utility.yul\":875:885   */\n      add\n        /* \"#utility.yul\":870:885   */\n      swap1\n      pop\n        /* \"#utility.yul\":846:959   */\n      jump(tag_88)\n    tag_90:\n        /* \"#utility.yul\":993:994   */\n      0x00\n        /* \"#utility.yul\":984:990   */\n      dup5\n        /* \"#utility.yul\":979:982   */\n      dup5\n        /* \"#utility.yul\":975:991   */\n      add\n        /* \"#utility.yul\":968:995   */\n      mstore\n        /* \"#utility.yul\":817:1001   */\n      pop\n        /* \"#utility.yul\":755:1001   */\n      pop\n      pop\n      pop\n      jump\t// out\n        /* \"#utility.yul\":1007:1109   */\n    tag_58:\n        /* \"#utility.yul\":1048:1054   */\n      0x00\n        /* \"#utility.yul\":1099:1101   */\n      0x1f\n        /* \"#utility.yul\":1095:1102   */\n      not\n        /* \"#utility.yul\":1090:1092   */\n      0x1f\n        /* \"#utility.yul\":1083:1088   */\n      dup4\n        /* \"#utility.yul\":1079:1093   */\n      add\n        /* \"#utility.yul\":1075:1103   */\n      and\n        /* \"#utility.yul\":1065:1103   */\n      swap1\n      pop\n        /* \"#utility.yul\":1007:1109   */\n      swap2\n      swap1\n      pop\n      jump\t// out\n        /* \"#utility.yul\":1115:1472   */\n    tag_59:\n        /* \"#utility.yul\":1193:1196   */\n      0x00\n        /* \"#utility.yul\":1221:1260   */\n      tag_93\n        /* \"#utility.yul\":1254:1259   */\n      dup3\n        /* \"#utility.yul\":1221:1260   */\n      tag_55\n      jump\t// in\n    tag_93:\n        /* \"#utility.yul\":1276:1337   */\n      tag_94\n        /* \"#utility.yul\":1330:1336   */\n      dup2\n        /* \"#utility.yul\":1325:1328   */\n      dup6\n        /* \"#utility.yul\":1276:1337   */\n      tag_56\n      jump\t// in\n    tag_94:\n        /* \"#utility.yul\":1269:1337   */\n      swap4\n      pop\n        /* \"#utility.yul\":1346:1411   */\n      tag_95\n        /* \"#utility.yul\":1404:1410   */\n      dup2\n        /* \"#utility.yul\":1399:1402   */\n      dup6\n        /* \"#utility.yul\":1392:1396   */\n      0x20\n        /* \"#utility.yul\":1385:1390   */\n      dup7\n        /* \"#utility.yul\":1381:1397   */\n      add\n        /* \"#utility.yul\":1346:1411   */\n      tag_57\n      jump\t// in\n    tag_95:\n        /* \"#utility.yul\":1436:1465   */\n      tag_96\n        /* \"#utility.yul\":1458:1464   */\n      dup2\n        /* \"#utility.yul\":1436:1465   */\n      tag_58\n      jump\t// in\n    tag_96:\n        /* \"#utility.yul\":1431:1434   */\n      dup5\n        /* \"#utility.yul\":1427:1466   */\n      add\n        /* \"#utility.yul\":1420:1466   */\n      swap2\n      pop\n        /* \"#utility.yul\":1197:1472   */\n      pop\n        /* \"#utility.yul\":1115:1472   */\n      swap3\n      swap2\n      pop\n      pop\n      jump\t// out\n        /* \"#utility.yul\":1478:1674   */\n    tag_60:\n        /* \"#utility.yul\":1567:1577   */\n      0x00\n        /* \"#utility.yul\":1602:1668   */\n      tag_98\n        /* \"#utility.yul\":1664:1667   */\n      dup4\n        /* \"#utility.yul\":1656:1662   */\n      dup4\n        /* \"#utility.yul\":1602:1668   */\n      tag_59\n      jump\t// in\n    tag_98:\n        /* \"#utility.yul\":1588:1668   */\n      swap1\n      pop\n        /* \"#utility.yul\":1478:1674   */\n      swap3\n      swap2\n      pop\n      pop\n      jump\t// out\n        /* \"#utility.yul\":1680:1803   */\n    tag_61:\n        /* \"#utility.yul\":1760:1764   */\n      0x00\n        /* \"#utility.yul\":1792:1796   */\n      0x20\n        /* \"#utility.yul\":1787:1790   */\n      dup3\n        /* \"#utility.yul\":1783:1797   */\n      add\n        /* \"#utility.yul\":1775:1797   */\n      swap1\n      pop\n        /* \"#utility.yul\":1680:1803   */\n      swap2\n      swap1\n      pop\n      jump\t// out\n        /* \"#utility.yul\":1837:2828   */\n    tag_62:\n        /* \"#utility.yul\":1976:1979   */\n      0x00\n        /* \"#utility.yul\":2005:2069   */\n      tag_101\n        /* \"#utility.yul\":2063:2068   */\n      dup3\n        /* \"#utility.yul\":2005:2069   */\n      tag_52\n      jump\t// in\n    tag_101:\n        /* \"#utility.yul\":2085:2181   */\n      tag_102\n        /* \"#utility.yul\":2174:2180   */\n      dup2\n        /* \"#utility.yul\":2169:2172   */\n      dup6\n        /* \"#utility.yul\":2085:2181   */\n      tag_53\n      jump\t// in\n    tag_102:\n        /* \"#utility.yul\":2078:2181   */\n      swap4\n      pop\n        /* \"#utility.yul\":2207:2210   */\n      dup4\n        /* \"#utility.yul\":2252:2256   */\n      0x20\n        /* \"#utility.yul\":2244:2250   */\n      dup3\n        /* \"#utility.yul\":2240:2257   */\n      mul\n        /* \"#utility.yul\":2235:2238   */\n      dup6\n        /* \"#utility.yul\":2231:2258   */\n      add\n        /* \"#utility.yul\":2282:2348   */\n      tag_103\n        /* \"#utility.yul\":2342:2347   */\n      dup6\n        /* \"#utility.yul\":2282:2348   */\n      tag_54\n      jump\t// in\n    tag_103:\n        /* \"#utility.yul\":2371:2378   */\n      dup1\n        /* \"#utility.yul\":2402:2403   */\n      0x00\n        /* \"#utility.yul\":2387:2783   */\n    tag_104:\n        /* \"#utility.yul\":2412:2418   */\n      dup6\n        /* \"#utility.yul\":2409:2410   */\n      dup2\n        /* \"#utility.yul\":2406:2419   */\n      lt\n        /* \"#utility.yul\":2387:2783   */\n      iszero\n      tag_106\n      jumpi\n        /* \"#utility.yul\":2483:2492   */\n      dup5\n        /* \"#utility.yul\":2477:2481   */\n      dup5\n        /* \"#utility.yul\":2473:2493   */\n      sub\n        /* \"#utility.yul\":2468:2471   */\n      dup10\n        /* \"#utility.yul\":2461:2494   */\n      mstore\n        /* \"#utility.yul\":2534:2540   */\n      dup2\n        /* \"#utility.yul\":2528:2541   */\n      mload\n        /* \"#utility.yul\":2562:2646   */\n      tag_107\n        /* \"#utility.yul\":2641:2645   */\n      dup6\n        /* \"#utility.yul\":2626:2639   */\n      dup3\n        /* \"#utility.yul\":2562:2646   */\n      tag_60\n      jump\t// in\n    tag_107:\n        /* \"#utility.yul\":2554:2646   */\n      swap5\n      pop\n        /* \"#utility.yul\":2669:2739   */\n      tag_108\n        /* \"#utility.yul\":2732:2738   */\n      dup4\n        /* \"#utility.yul\":2669:2739   */\n      tag_61\n      jump\t// in\n    tag_108:\n        /* \"#utility.yul\":2659:2739   */\n      swap3\n      pop\n        /* \"#utility.yul\":2768:2772   */\n      0x20\n        /* \"#utility.yul\":2763:2766   */\n      dup11\n        /* \"#utility.yul\":2759:2773   */\n      add\n        /* \"#utility.yul\":2752:2773   */\n      swap10\n      pop\n        /* \"#utility.yul\":2447:2783   */\n      pop\n        /* \"#utility.yul\":2434:2435   */\n      0x01\n        /* \"#utility.yul\":2431:2432   */\n      dup2\n        /* \"#utility.yul\":2427:2436   */\n      add\n        /* \"#utility.yul\":2422:2436   */\n      swap1\n      pop\n        /* \"#utility.yul\":2387:2783   */\n      jump(tag_104)\n    tag_106:\n        /* \"#utility.yul\":2391:2405   */\n      pop\n        /* \"#utility.yul\":2799:2803   */\n      dup3\n        /* \"#utility.yul\":2792:2803   */\n      swap8\n      pop\n        /* \"#utility.yul\":2819:2822   */\n      dup8\n        /* \"#utility.yul\":2812:2822   */\n      swap6\n      pop\n        /* \"#utility.yul\":1981:2828   */\n      pop\n      pop\n      pop\n      pop\n      pop\n        /* \"#utility.yul\":1837:2828   */\n      swap3\n      swap2\n      pop\n      pop\n      jump\t// out\n        /* \"#utility.yul\":2834:3247   */\n    tag_7:\n        /* \"#utility.yul\":2997:3001   */\n      0x00\n        /* \"#utility.yul\":3035:3037   */\n      0x20\n        /* \"#utility.yul\":3024:3033   */\n      dup3\n        /* \"#utility.yul\":3020:3038   */\n      add\n        /* \"#utility.yul\":3012:3038   */\n      swap1\n      pop\n        /* \"#utility.yul\":3084:3093   */\n      dup2\n        /* \"#utility.yul\":3078:3082   */\n      dup2\n        /* \"#utility.yul\":3074:3094   */\n      sub\n        /* \"#utility.yul\":3070:3071   */\n      0x00\n        /* \"#utility.yul\":3059:3068   */\n      dup4\n        /* \"#utility.yul\":3055:3072   */\n      add\n        /* \"#utility.yul\":3048:3095   */\n      mstore\n        /* \"#utility.yul\":3112:3240   */\n      tag_110\n        /* \"#utility.yul\":3235:3239   */\n      dup2\n        /* \"#utility.yul\":3226:3232   */\n      dup5\n        /* \"#utility.yul\":3112:3240   */\n      tag_62\n      jump\t// in\n    tag_110:\n        /* \"#utility.yul\":3104:3240   */\n      swap1\n      pop\n        /* \"#utility.yul\":2834:3247   */\n      swap3\n      swap2\n      pop\n      pop\n      jump\t// out\n        /* \"#utility.yul\":3253:3433   */\n    tag_63:\n        /* \"#utility.yul\":3301:3378   */\n      0x4e487b7100000000000000000000000000000000000000000000000000000000\n        /* \"#utility.yul\":3298:3299   */\n      0x00\n        /* \"#utility.yul\":3291:3379   */\n      mstore\n        /* \"#utility.yul\":3398:3402   */\n      0x41\n        /* \"#utility.yul\":3395:3396   */\n      0x04\n        /* \"#utility.yul\":3388:3403   */\n      mstore\n        /* \"#utility.yul\":3422:3426   */\n      0x24\n        /* \"#utility.yul\":3419:3420   */\n      0x00\n        /* \"#utility.yul\":3412:3427   */\n      revert\n        /* \"#utility.yul\":3439:3619   */\n    tag_64:\n        /* \"#utility.yul\":3487:3564   */\n      0x4e487b7100000000000000000000000000000000000000000000000000000000\n        /* \"#utility.yul\":3484:3485   */\n      0x00\n        /* \"#utility.yul\":3477:3565   */\n      mstore\n        /* \"#utility.yul\":3584:3588   */\n      0x22\n        /* \"#utility.yul\":3581:3582   */\n      0x04\n        /* \"#utility.yul\":3574:3589   */\n      mstore\n        /* \"#utility.yul\":3608:3612   */\n      0x24\n        /* \"#utility.yul\":3605:3606   */\n      0x00\n        /* \"#utility.yul\":3598:3613   */\n      revert\n        /* \"#utility.yul\":3625:3945   */\n    tag_18:\n        /* \"#utility.yul\":3669:3675   */\n      0x00\n        /* \"#utility.yul\":3706:3707   */\n      0x02\n        /* \"#utility.yul\":3700:3704   */\n      dup3\n        /* \"#utility.yul\":3696:3708   */\n      div\n        /* \"#utility.yul\":3686:3708   */\n      swap1\n      pop\n        /* \"#utility.yul\":3753:3754   */\n      0x01\n        /* \"#utility.yul\":3747:3751   */\n      dup3\n        /* \"#utility.yul\":3743:3755   */\n      and\n        /* \"#utility.yul\":3774:3792   */\n      dup1\n        /* \"#utility.yul\":3764:3845   */\n      tag_114\n      jumpi\n        /* \"#utility.yul\":3830:3834   */\n      0x7f\n        /* \"#utility.yul\":3822:3828   */\n      dup3\n        /* \"#utility.yul\":3818:3835   */\n      and\n        /* \"#utility.yul\":3808:3835   */\n      swap2\n      pop\n        /* \"#utility.yul\":3764:3845   */\n    tag_114:\n        /* \"#utility.yul\":3892:3894   */\n      0x20\n        /* \"#utility.yul\":3884:3890   */\n      dup3\n        /* \"#utility.yul\":3881:3895   */\n      lt\n        /* \"#utility.yul\":3861:3879   */\n      dup2\n        /* \"#utility.yul\":3858:3896   */\n      sub\n        /* \"#utility.yul\":3855:3939   */\n      tag_115\n      jumpi\n        /* \"#utility.yul\":3911:3929   */\n      tag_116\n      tag_64\n      jump\t// in\n    tag_116:\n        /* \"#utility.yul\":3855:3939   */\n    tag_115:\n        /* \"#utility.yul\":3676:3945   */\n      pop\n        /* \"#utility.yul\":3625:3945   */\n      swap2\n      swap1\n      pop\n      jump\t// out\n        /* \"#utility.yul\":3951:4092   */\n    tag_65:\n        /* \"#utility.yul\":4000:4004   */\n      0x00\n        /* \"#utility.yul\":4023:4026   */\n      dup2\n        /* \"#utility.yul\":4015:4026   */\n      swap1\n      pop\n        /* \"#utility.yul\":4046:4049   */\n      dup2\n        /* \"#utility.yul\":4043:4044   */\n      0x00\n        /* \"#utility.yul\":4036:4050   */\n      mstore\n        /* \"#utility.yul\":4080:4084   */\n      0x20\n        /* \"#utility.yul\":4077:4078   */\n      0x00\n        /* \"#utility.yul\":4067:4085   */\n      keccak256\n        /* \"#utility.yul\":4059:4085   */\n      swap1\n      pop\n        /* \"#utility.yul\":3951:4092   */\n      swap2\n      swap1\n      pop\n      jump\t// out\n        /* \"#utility.yul\":4098:4191   */\n    tag_66:\n        /* \"#utility.yul\":4135:4141   */\n      0x00\n        /* \"#utility.yul\":4182:4184   */\n      0x20\n        /* \"#utility.yul\":4177:4179   */\n      0x1f\n        /* \"#utility.yul\":4170:4175   */\n      dup4\n        /* \"#utility.yul\":4166:4180   */\n      add\n        /* \"#utility.yul\":4162:4185   */\n      div\n        /* \"#utility.yul\":4152:4185   */\n      swap1\n      pop\n        /* \"#utility.yul\":4098:4191   */\n      swap2\n      swap1\n      pop\n      jump\t// out\n        /* \"#utility.yul\":4197:4304   */\n    tag_67:\n        /* \"#utility.yul\":4241:4249   */\n      0x00\n        /* \"#utility.yul\":4291:4296   */\n      dup3\n        /* \"#utility.yul\":4285:4289   */\n      dup3\n        /* \"#utility.yul\":4281:4297   */\n      shl\n        /* \"#utility.yul\":4260:4297   */\n      swap1\n      pop\n        /* \"#utility.yul\":4197:4304   */\n      swap3\n      swap2\n      pop\n      pop\n      jump\t// out\n        /* \"#utility.yul\":4310:4703   */\n    tag_68:\n        /* \"#utility.yul\":4379:4385   */\n      0x00\n        /* \"#utility.yul\":4429:4430   */\n      0x08\n        /* \"#utility.yul\":4417:4427   */\n      dup4\n        /* \"#utility.yul\":4413:4431   */\n      mul\n        /* \"#utility.yul\":4452:4549   */\n      tag_121\n        /* \"#utility.yul\":4482:4548   */\n      0xffffffffffffffffffffffffffffffffffffffffffffffffffffffffffffffff\n        /* \"#utility.yul\":4471:4480   */\n      dup3\n        /* \"#utility.yul\":4452:4549   */\n      tag_67\n      jump\t// in\n    tag_121:\n        /* \"#utility.yul\":4570:4609   */\n      tag_122\n        /* \"#utility.yul\":4600:4608   */\n      dup7\n        /* \"#utility.yul\":4589:4598   */\n      dup4\n        /* \"#utility.yul\":4570:4609   */\n      tag_67\n      jump\t// in\n    tag_122:\n        /* \"#utility.yul\":4558:4609   */\n      swap6\n      pop\n        /* \"#utility.yul\":4642:4646   */\n      dup1\n        /* \"#utility.yul\":4638:4647   */\n      not\n        /* \"#utility.yul\":4631:4636   */\n      dup5\n        /* \"#utility.yul\":4627:4648   */\n      and\n        /* \"#utility.yul\":4618:4648   */\n      swap4\n      pop\n        /* \"#utility.yul\":4691:4695   */\n      dup1\n        /* \"#utility.yul\":4681:4689   */\n      dup7\n        /* \"#utility.yul\":4677:4696   */\n      and\n        /* \"#utility.yul\":4670:4675   */\n      dup5\n        /* \"#utility.yul\":4667:4697   */\n      or\n        /* \"#utility.yul\":4657:4697   */\n      swap3\n      pop\n        /* \"#utility.yul\":4386:4703   */\n      pop\n      pop\n        /* \"#utility.yul\":4310:4703   */\n      swap4\n      swap3\n      pop\n      pop\n      pop\n      jump\t// out\n        /* \"#utility.yul\":4709:4786   */\n    tag_69:\n        /* \"#utility.yul\":4746:4753   */\n      0x00\n        /* \"#utility.yul\":4775:4780   */\n      dup2\n        /* \"#utility.yul\":4764:4780   */\n      swap1\n      pop\n        /* \"#utility.yul\":4709:4786   */\n      swap2\n      swap1\n      pop\n      jump\t// out\n        /* \"#utility.yul\":4792:4852   */\n    tag_70:\n        /* \"#utility.yul\":4820:4823   */\n      0x00\n        /* \"#utility.yul\":4841:4846   */\n      dup2\n        /* \"#utility.yul\":4834:4846   */\n      swap1\n      pop\n        /* \"#utility.yul\":4792:4852   */\n      swap2\n      swap1\n      pop\n      jump\t// out\n        /* \"#utility.yul\":4858:5000   */\n    tag_71:\n        /* \"#utility.yul\":4908:4917   */\n      0x00\n        /* \"#utility.yul\":4941:4994   */\n      tag_126\n        /* \"#utility.yul\":4959:4993   */\n      tag_127\n        /* \"#utility.yul\":4968:4992   */\n      tag_128\n        /* \"#utility.yul\":4986:4991   */\n      dup5\n        /* \"#utility.yul\":4968:4992   */\n      tag_69\n      jump\t// in\n    tag_128:\n        /* \"#utility.yul\":4959:4993   */\n      tag_70\n      jump\t// in\n    tag_127:\n        /* \"#utility.yul\":4941:4994   */\n      tag_69\n      jump\t// in\n    tag_126:\n        /* \"#utility.yul\":4928:4994   */\n      swap1\n      pop\n        /* \"#utility.yul\":4858:5000   */\n      swap2\n      swap1\n      pop\n      jump\t// out\n        /* \"#utility.yul\":5006:5081   */\n    tag_72:\n        /* \"#utility.yul\":5049:5052   */\n      0x00\n        /* \"#utility.yul\":5070:5075   */\n      dup2\n        /* \"#utility.yul\":5063:5075   */\n      swap1\n      pop\n        /* \"#utility.yul\":5006:5081   */\n      swap2\n      swap1\n      pop\n      jump\t// out\n        /* \"#utility.yul\":5087:5356   */\n    tag_73:\n        /* \"#utility.yul\":5197:5236   */\n      tag_131\n        /* \"#utility.yul\":5228:5235   */\n      dup4\n        /* \"#utility.yul\":5197:5236   */\n      tag_71\n      jump\t// in\n    tag_131:\n        /* \"#utility.yul\":5258:5349   */\n      tag_132\n        /* \"#utility.yul\":5307:5348   */\n      tag_133\n        /* \"#utility.yul\":5331:5347   */\n      dup3\n        /* \"#utility.yul\":5307:5348   */\n      tag_72\n      jump\t// in\n    tag_133:\n        /* \"#utility.yul\":5299:5305   */\n      dup5\n        /* \"#utility.yul\":5292:5296   */\n      dup5\n        /* \"#utility.yul\":5286:5297   */\n      sload\n        /* \"#utility.yul\":5258:5349   */\n      tag_68\n      jump\t// in\n    tag_132:\n        /* \"#utility.yul\":5252:5256   */\n      dup3\n        /* \"#utility.yul\":5245:5350   */\n      sstore\n        /* \"#utility.yul\":5163:5356   */\n      pop\n        /* \"#utility.yul\":5087:5356   */\n      pop\n      pop\n      pop\n      jump\t// out\n        /* \"#utility.yul\":5362:5435   */\n    tag_74:\n        /* \"#utility.yul\":5407:5410   */\n      0x00\n        /* \"#utility.yul\":5362:5435   */\n      swap1\n      jump\t// out\n        /* \"#utility.yul\":5441:5630   */\n    tag_75:\n        /* \"#utility.yul\":5518:5550   */\n      tag_136\n      tag_74\n      jump\t// in\n    tag_136:\n        /* \"#utility.yul\":5559:5624   */\n      tag_137\n        /* \"#utility.yul\":5617:5623   */\n      dup2\n        /* \"#utility.yul\":5609:5615   */\n      dup5\n        /* \"#utility.yul\":5603:5607   */\n      dup5\n        /* \"#utility.yul\":5559:5624   */\n      tag_73\n      jump\t// in\n    tag_137:\n        /* \"#utility.yul\":5494:5630   */\n      pop\n        /* \"#utility.yul\":5441:5630   */\n      pop\n      pop\n      jump\t// out\n        /* \"#utility.yul\":5636:5822   */\n    tag_76:\n        /* \"#utility.yul\":5696:5816   */\n    tag_139:\n        /* \"#utility.yul\":5713:5716   */\n      dup2\n        /* \"#utility.yul\":5706:5711   */\n      dup2\n        /* \"#utility.yul\":5703:5717   */\n      lt\n        /* \"#utility.yul\":5696:5816   */\n      iszero\n      tag_141\n      jumpi\n        /* \"#utility.yul\":5767:5806   */\n      tag_142\n        /* \"#utility.yul\":5804:5805   */\n      0x00\n        /* \"#utility.yul\":5797:5802   */\n      dup3\n        /* \"#utility.yul\":5767:5806   */\n      tag_75\n      jump\t// in\n    tag_142:\n        /* \"#utility.yul\":5740:5741   */\n      0x01\n        /* \"#utility.yul\":5733:5738   */\n      dup2\n        /* \"#utility.yul\":5729:5742   */\n      add\n        /* \"#utility.yul\":5720:5742   */\n      swap1\n      pop\n        /* \"#utility.yul\":5696:5816   */\n      jump(tag_139)\n    tag_141:\n        /* \"#utility.yul\":5636:5822   */\n      pop\n      pop\n      jump\t// out\n        /* \"#utility.yul\":5828:6371   */\n    tag_77:\n        /* \"#utility.yul\":5929:5931   */\n      0x1f\n        /* \"#utility.yul\":5924:5927   */\n      dup3\n        /* \"#utility.yul\":5921:5932   */\n      gt\n        /* \"#utility.yul\":5918:6364   */\n      iszero\n      tag_144\n      jumpi\n        /* \"#utility.yul\":5963:6001   */\n      tag_145\n        /* \"#utility.yul\":5995:6000   */\n      dup2\n        /* \"#utility.yul\":5963:6001   */\n      tag_65\n      jump\t// in\n    tag_145:\n        /* \"#utility.yul\":6047:6076   */\n      tag_146\n        /* \"#utility.yul\":6065:6075   */\n      dup5\n        /* \"#utility.yul\":6047:6076   */\n      tag_66\n      jump\t// in\n    tag_146:\n        /* \"#utility.yul\":6037:6045   */\n      dup2\n        /* \"#utility.yul\":6033:6077   */\n      add\n        /* \"#utility.yul\":6230:6232   */\n      0x20\n        /* \"#utility.yul\":6218:6228   */\n      dup6\n        /* \"#utility.yul\":6215:6233   */\n      lt\n        /* \"#utility.yul\":6212:6261   */\n      iszero\n      tag_147\n      jumpi\n        /* \"#utility.yul\":6251:6259   */\n      dup2\n        /* \"#utility.yul\":6236:6259   */\n      swap1\n      pop\n        /* \"#utility.yul\":6212:6261   */\n    tag_147:\n        /* \"#utility.yul\":6274:6354   */\n      tag_148\n        /* \"#utility.yul\":6330:6352   */\n      tag_149\n        /* \"#utility.yul\":6348:6351   */\n      dup6\n        /* \"#utility.yul\":6330:6352   */\n      tag_66\n      jump\t// in\n    tag_149:\n        /* \"#utility.yul\":6320:6328   */\n      dup4\n        /* \"#utility.yul\":6316:6353   */\n      add\n        /* \"#utility.yul\":6303:6314   */\n      dup3\n        /* \"#utility.yul\":6274:6354   */\n      tag_76\n      jump\t// in\n    tag_148:\n        /* \"#utility.yul\":5933:6364   */\n      pop\n      pop\n        /* \"#utility.yul\":5918:6364   */\n    tag_144:\n        /* \"#utility.yul\":5828:6371   */\n      pop\n      pop\n      pop\n      jump\t// out\n        /* \"#utility.yul\":6377:6494   */\n    tag_78:\n        /* \"#utility.yul\":6431:6439   */\n      0x00\n        /* \"#utility.yul\":6481:6486   */\n      dup3\n        /* \"#utility.yul\":6475:6479   */\n      dup3\n        /* \"#utility.yul\":6471:6487   */\n      shr\n        /* \"#utility.yul\":6450:6487   */\n      swap1\n      pop\n        /* \"#utility.yul\":6377:6494   */\n      swap3\n      swap2\n      pop\n      pop\n      jump\t// out\n        /* \"#utility.yul\":6500:6669   */\n    tag_79:\n        /* \"#utility.yul\":6544:6550   */\n      0x00\n        /* \"#utility.yul\":6577:6628   */\n      tag_152\n        /* \"#utility.yul\":6625:6626   */\n      0x00\n        /* \"#utility.yul\":6621:6627   */\n      not\n        /* \"#utility.yul\":6613:6618   */\n      dup5\n        /* \"#utility.yul\":6610:6611   */\n      0x08\n        /* \"#utility.yul\":6606:6619   */\n      mul\n        /* \"#utility.yul\":6577:6628   */\n      tag_78\n      jump\t// in\n    tag_152:\n        /* \"#utility.yul\":6573:6629   */\n      not\n        /* \"#utility.yul\":6658:6662   */\n      dup1\n        /* \"#utility.yul\":6652:6656   */\n      dup4\n        /* \"#utility.yul\":6648:6663   */\n      and\n        /* \"#utility.yul\":6638:6663   */\n      swap2\n      pop\n        /* \"#utility.yul\":6551:6669   */\n      pop\n        /* \"#utility.yul\":6500:6669   */\n      swap3\n      swap2\n      pop\n      pop\n      jump\t// out\n        /* \"#utility.yul\":6674:6969   */\n    tag_80:\n        /* \"#utility.yul\":6750:6754   */\n      0x00\n        /* \"#utility.yul\":6896:6925   */\n      tag_154\n        /* \"#utility.yul\":6921:6924   */\n      dup4\n        /* \"#utility.yul\":6915:6919   */\n      dup4\n        /* \"#utility.yul\":6896:6925   */\n      tag_79\n      jump\t// in\n    tag_154:\n        /* \"#utility.yul\":6888:6925   */\n      swap2\n      pop\n        /* \"#utility.yul\":6958:6961   */\n      dup3\n        /* \"#utility.yul\":6955:6956   */\n      0x02\n        /* \"#utility.yul\":6951:6962   */\n      mul\n        /* \"#utility.yul\":6945:6949   */\n      dup3\n        /* \"#utility.yul\":6942:6963   */\n      or\n        /* \"#utility.yul\":6934:6963   */\n      swap1\n      pop\n        /* \"#utility.yul\":6674:6969   */\n      swap3\n      swap2\n      pop\n      pop\n      jump\t// out\n        /* \"#utility.yul\":6974:8369   */\n    tag_13:\n        /* \"#utility.yul\":7091:7128   */\n      tag_156\n        /* \"#utility.yul\":7124:7127   */\n      dup3\n        /* \"#utility.yul\":7091:7128   */\n      tag_55\n      jump\t// in\n    tag_156:\n        /* \"#utility.yul\":7193:7211   */\n      0xffffffffffffffff\n        /* \"#utility.yul\":7185:7191   */\n      dup2\n        /* \"#utility.yul\":7182:7212   */\n      gt\n        /* \"#utility.yul\":7179:7235   */\n      iszero\n      tag_157\n      jumpi\n        /* \"#utility.yul\":7215:7233   */\n      tag_158\n      tag_63\n      jump\t// in\n    tag_158:\n        /* \"#utility.yul\":7179:7235   */\n    tag_157:\n        /* \"#utility.yul\":7259:7297   */\n      tag_159\n        /* \"#utility.yul\":7291:7295   */\n      dup3\n        /* \"#utility.yul\":7285:7296   */\n      sload\n        /* \"#utility.yul\":7259:7297   */\n      tag_18\n      jump\t// in\n    tag_159:\n        /* \"#utility.yul\":7344:7411   */\n      tag_160\n        /* \"#utility.yul\":7404:7410   */\n      dup3\n        /* \"#utility.yul\":7396:7402   */\n      dup3\n        /* \"#utility.yul\":7390:7394   */\n      dup6\n        /* \"#utility.yul\":7344:7411   */\n      tag_77\n      jump\t// in\n    tag_160:\n        /* \"#utility.yul\":7438:7439   */\n      0x00\n        /* \"#utility.yul\":7462:7466   */\n      0x20\n        /* \"#utility.yul\":7449:7466   */\n      swap1\n      pop\n        /* \"#utility.yul\":7494:7496   */\n      0x1f\n        /* \"#utility.yul\":7486:7492   */\n      dup4\n        /* \"#utility.yul\":7483:7497   */\n      gt\n        /* \"#utility.yul\":7511:7512   */\n      0x01\n        /* \"#utility.yul\":7506:8124   */\n      dup2\n      eq\n      tag_162\n      jumpi\n        /* \"#utility.yul\":8168:8169   */\n      0x00\n        /* \"#utility.yul\":8185:8191   */\n      dup5\n        /* \"#utility.yul\":8182:8259   */\n      iszero\n      tag_163\n      jumpi\n        /* \"#utility.yul\":8234:8243   */\n      dup3\n        /* \"#utility.yul\":8229:8232   */\n      dup8\n        /* \"#utility.yul\":8225:8244   */\n      add\n        /* \"#utility.yul\":8219:8245   */\n      mload\n        /* \"#utility.yul\":8210:8245   */\n      swap1\n      pop\n        /* \"#utility.yul\":8182:8259   */\n    tag_163:\n        /* \"#utility.yul\":8285:8352   */\n      tag_164\n        /* \"#utility.yul\":8345:8351   */\n      dup6\n        /* \"#utility.yul\":8338:8343   */\n      dup3\n        /* \"#utility.yul\":8285:8352   */\n      tag_80\n      jump\t// in\n    tag_164:\n        /* \"#utility.yul\":8279:8283   */\n      dup7\n        /* \"#utility.yul\":8272:8353   */\n      sstore\n        /* \"#utility.yul\":8141:8363   */\n      pop\n        /* \"#utility.yul\":7476:8363   */\n      jump(tag_161)\n        /* \"#utility.yul\":7506:8124   */\n    tag_162:\n        /* \"#utility.yul\":7558:7562   */\n      0x1f\n        /* \"#utility.yul\":7554:7563   */\n      not\n        /* \"#utility.yul\":7546:7552   */\n      dup5\n        /* \"#utility.yul\":7542:7564   */\n      and\n        /* \"#utility.yul\":7592:7629   */\n      tag_165\n        /* \"#utility.yul\":7624:7628   */\n      dup7\n        /* \"#utility.yul\":7592:7629   */\n      tag_65\n      jump\t// in\n    tag_165:\n        /* \"#utility.yul\":7651:7652   */\n      0x00\n        /* \"#utility.yul\":7665:7873   */\n    tag_166:\n        /* \"#utility.yul\":7679:7686   */\n      dup3\n        /* \"#utility.yul\":7676:7677   */\n      dup2\n        /* \"#utility.yul\":7673:7687   */\n      lt\n        /* \"#utility.yul\":7665:7873   */\n      iszero\n      tag_168\n      jumpi\n        /* \"#utility.yul\":7758:7767   */\n      dup5\n        /* \"#utility.yul\":7753:7756   */\n      dup10\n        /* \"#utility.yul\":7749:7768   */\n      add\n        /* \"#utility.yul\":7743:7769   */\n      mload\n        /* \"#utility.yul\":7735:7741   */\n      dup3\n        /* \"#utility.yul\":7728:7770   */\n      sstore\n        /* \"#utility.yul\":7809:7810   */\n      0x01\n        /* \"#utility.yul\":7801:7807   */\n      dup3\n        /* \"#utility.yul\":7797:7811   */\n      add\n        /* \"#utility.yul\":7787:7811   */\n      swap2\n      pop\n        /* \"#utility.yul\":7856:7858   */\n      0x20\n        /* \"#utility.yul\":7845:7854   */\n      dup6\n        /* \"#utility.yul\":7841:7859   */\n      add\n        /* \"#utility.yul\":7828:7859   */\n      swap5\n      pop\n        /* \"#utility.yul\":7702:7706   */\n      0x20\n        /* \"#utility.yul\":7699:7700   */\n      dup2\n        /* \"#utility.yul\":7695:7707   */\n      add\n        /* \"#utility.yul\":7690:7707   */\n      swap1\n      pop\n        /* \"#utility.yul\":7665:7873   */\n      jump(tag_166)\n    tag_168:\n        /* \"#utility.yul\":7901:7907   */\n      dup7\n        /* \"#utility.yul\":7892:7899   */\n      dup4\n        /* \"#utility.yul\":7889:7908   */\n      lt\n        /* \"#utility.yul\":7886:8065   */\n      iszero\n      tag_169\n      jumpi\n        /* \"#utility.yul\":7959:7968   */\n      dup5\n        /* \"#utility.yul\":7954:7957   */\n      dup10\n        /* \"#utility.yul\":7950:7969   */\n      add\n        /* \"#utility.yul\":7944:7970   */\n      mload\n        /* \"#utility.yul\":8002:8050   */\n      tag_170\n        /* \"#utility.yul\":8044:8048   */\n      0x1f\n        /* \"#utility.yul\":8036:8042   */\n      dup10\n        /* \"#utility.yul\":8032:8049   */\n      and\n        /* \"#utility.yul\":8021:8030   */\n      dup3\n        /* \"#utility.yul\":8002:8050   */\n      tag_79\n      jump\t// in\n    tag_170:\n        /* \"#utility.yul\":7994:8000   */\n      dup4\n        /* \"#utility.yul\":7987:8051   */\n      sstore\n        /* \"#utility.yul\":7909:8065   */\n      pop\n        /* \"#utility.yul\":7886:8065   */\n    tag_169:\n        /* \"#utility.yul\":8111:8112   */\n      0x01\n        /* \"#utility.yul\":8107:8108   */\n      0x02\n        /* \"#utility.yul\":8099:8105   */\n      dup9\n        /* \"#utility.yul\":8095:8109   */\n      mul\n        /* \"#utility.yul\":8091:8113   */\n      add\n        /* \"#utility.yul\":8085:8089   */\n      dup9\n        /* \"#utility.yul\":8078:8114   */\n      sstore\n        /* \"#utility.yul\":7513:8124   */\n      pop\n      pop\n      pop\n        /* \"#utility.yul\":7476:8363   */\n    tag_161:\n      pop\n        /* \"#utility.yul\":7066:8369   */\n      pop\n      pop\n      pop\n        /* \"#utility.yul\":6974:8369   */\n      pop\n      pop\n      jump\t// out\n\n    auxdata: 0xa2646970667358221220e04058c48a9ae4b19178276c72c15e840be904c42ac88da180fac4956058746264736f6c63430008170033\n}\n",
				"bytecode": {
					"linkReferences": {},
					"object": "608060405234801561000f575f80fd5b506108628061001d5f395ff3fe608060405234801561000f575f80fd5b5060043610610029575f3560e01c806344a034cd1461002d575b5f80fd5b61003561004b565b604051610042919061050d565b60405180910390f35b606061005561018a565b505f8060018154018082558091505060019003905f5260205f20015f6040518060400160405280600381526020017f4172740000000000000000000000000000000000000000000000000000000000815250909190915090816100b8919061075d565b505f805480602002602001604051908101604052809291908181526020015f905b82821015610181578382905f5260205f200180546100f690610587565b80601f016020809104026020016040519081016040528092919081815260200182805461012290610587565b801561016d5780601f106101445761010080835404028352916020019161016d565b820191905f5260205f20905b81548152906001019060200180831161015057829003601f168201915b5050505050815260200190600101906100d9565b50505050905090565b60605f80610198919061032f565b5f8060018154018082558091505060019003905f5260205f20015f6040518060400160405280600781526020017f456e676c69736800000000000000000000000000000000000000000000000000815250909190915090816101fa919061075d565b505f8060018154018082558091505060019003905f5260205f20015f6040518060400160405280600581526020017f4d757369630000000000000000000000000000000000000000000000000000008152509091909150908161025d919061075d565b505f805480602002602001604051908101604052809291908181526020015f905b82821015610326578382905f5260205f2001805461029b90610587565b80601f01602080910402602001604051908101604052809291908181526020018280546102c790610587565b80156103125780601f106102e957610100808354040283529160200191610312565b820191905f5260205f20905b8154815290600101906020018083116102f557829003601f168201915b50505050508152602001906001019061027e565b50505050905090565b5080545f8255905f5260205f209081019061034a919061034d565b50565b5b8082111561036c575f81816103639190610370565b5060010161034e565b5090565b50805461037c90610587565b5f825580601f1061038d57506103aa565b601f0160209004905f5260205f20908101906103a991906103ad565b5b50565b5b808211156103c4575f815f9055506001016103ae565b5090565b5f81519050919050565b5f82825260208201905092915050565b5f819050602082019050919050565b5f81519050919050565b5f82825260208201905092915050565b5f5b8381101561042857808201518184015260208101905061040d565b5f8484015250505050565b5f601f19601f8301169050919050565b5f61044d826103f1565b61045781856103fb565b935061046781856020860161040b565b61047081610433565b840191505092915050565b5f6104868383610443565b905092915050565b5f602082019050919050565b5f6104a4826103c8565b6104ae81856103d2565b9350836020820285016104c0856103e2565b805f5b858110156104fb57848403895281516104dc858261047b565b94506104e78361048e565b925060208a019950506001810190506104c3565b50829750879550505050505092915050565b5f6020820190508181035f830152610525818461049a565b905092915050565b7f4e487b71000000000000000000000000000000000000000000000000000000005f52604160045260245ffd5b7f4e487b71000000000000000000000000000000000000000000000000000000005f52602260045260245ffd5b5f600282049050600182168061059e57607f821691505b6020821081036105b1576105b061055a565b5b50919050565b5f819050815f5260205f209050919050565b5f6020601f8301049050919050565b5f82821b905092915050565b5f600883026106137fffffffffffffffffffffffffffffffffffffffffffffffffffffffffffffffff826105d8565b61061d86836105d8565b95508019841693508086168417925050509392505050565b5f819050919050565b5f819050919050565b5f61066161065c61065784610635565b61063e565b610635565b9050919050565b5f819050919050565b61067a83610647565b61068e61068682610668565b8484546105e4565b825550505050565b5f90565b6106a2610696565b6106ad818484610671565b505050565b5b818110156106d0576106c55f8261069a565b6001810190506106b3565b5050565b601f821115610715576106e6816105b7565b6106ef846105c9565b810160208510156106fe578190505b61071261070a856105c9565b8301826106b2565b50505b505050565b5f82821c905092915050565b5f6107355f198460080261071a565b1980831691505092915050565b5f61074d8383610726565b9150826002028217905092915050565b610766826103f1565b67ffffffffffffffff81111561077f5761077e61052d565b5b6107898254610587565b6107948282856106d4565b5f60209050601f8311600181146107c5575f84156107b3578287015190505b6107bd8582610742565b865550610824565b601f1984166107d3866105b7565b5f5b828110156107fa578489015182556001820191506020850194506020810190506107d5565b868310156108175784890151610813601f891682610726565b8355505b6001600288020188555050505b50505050505056fea2646970667358221220e04058c48a9ae4b19178276c72c15e840be904c42ac88da180fac4956058746264736f6c63430008170033",
					"opcodes": "PUSH1 0x80 PUSH1 0x40 MSTORE CALLVALUE DUP1 ISZERO PUSH2 0xF JUMPI PUSH0 DUP1 REVERT JUMPDEST POP PUSH2 0x862 DUP1 PUSH2 0x1D PUSH0 CODECOPY PUSH0 RETURN INVALID PUSH1 0x80 PUSH1 0x40 MSTORE CALLVALUE DUP1 ISZERO PUSH2 0xF JUMPI PUSH0 DUP1 REVERT JUMPDEST POP PUSH1 0x4 CALLDATASIZE LT PUSH2 0x29 JUMPI PUSH0 CALLDATALOAD PUSH1 0xE0 SHR DUP1 PUSH4 0x44A034CD EQ PUSH2 0x2D JUMPI JUMPDEST PUSH0 DUP1 REVERT JUMPDEST PUSH2 0x35 PUSH2 0x4B JUMP JUMPDEST PUSH1 0x40 MLOAD PUSH2 0x42 SWAP2 SWAP1 PUSH2 0x50D JUMP JUMPDEST PUSH1 0x40 MLOAD DUP1 SWAP2 SUB SWAP1 RETURN JUMPDEST PUSH1 0x60 PUSH2 0x55 PUSH2 0x18A JUMP JUMPDEST POP PUSH0 DUP1 PUSH1 0x1 DUP2 SLOAD ADD DUP1 DUP3 SSTORE DUP1 SWAP2 POP POP PUSH1 0x1 SWAP1 SUB SWAP1 PUSH0 MSTORE PUSH1 0x20 PUSH0 KECCAK256 ADD PUSH0 PUSH1 0x40 MLOAD DUP1 PUSH1 0x40 ADD PUSH1 0x40 MSTORE DUP1 PUSH1 0x3 DUP2 MSTORE PUSH1 0x20 ADD PUSH32 0x4172740000000000000000000000000000000000000000000000000000000000 DUP2 MSTORE POP SWAP1 SWAP2 SWAP1 SWAP2 POP SWAP1 DUP2 PUSH2 0xB8 SWAP2 SWAP1 PUSH2 0x75D JUMP JUMPDEST POP PUSH0 DUP1 SLOAD DUP1 PUSH1 0x20 MUL PUSH1 0x20 ADD PUSH1 0x40 MLOAD SWAP1 DUP2 ADD PUSH1 0x40 MSTORE DUP1 SWAP3 SWAP2 SWAP1 DUP2 DUP2 MSTORE PUSH1 0x20 ADD PUSH0 SWAP1 JUMPDEST DUP3 DUP3 LT ISZERO PUSH2 0x181 JUMPI DUP4 DUP3 SWAP1 PUSH0 MSTORE PUSH1 0x20 PUSH0 KECCAK256 ADD DUP1 SLOAD PUSH2 0xF6 SWAP1 PUSH2 0x587 JUMP JUMPDEST DUP1 PUSH1 0x1F ADD PUSH1 0x20 DUP1 SWAP2 DIV MUL PUSH1 0x20 ADD PUSH1 0x40 MLOAD SWAP1 DUP2 ADD PUSH1 0x40 MSTORE DUP1 SWAP3 SWAP2 SWAP1 DUP2 DUP2 MSTORE PUSH1 0x20 ADD DUP3 DUP1 SLOAD PUSH2 0x122 SWAP1 PUSH2 0x587 JUMP JUMPDEST DUP1 ISZERO PUSH2 0x16D JUMPI DUP1 PUSH1 0x1F LT PUSH2 0x144 JUMPI PUSH2 0x100 DUP1 DUP4 SLOAD DIV MUL DUP4 MSTORE SWAP2 PUSH1 0x20 ADD SWAP2 PUSH2 0x16D JUMP JUMPDEST DUP3 ADD SWAP2 SWAP1 PUSH0 MSTORE PUSH1 0x20 PUSH0 KECCAK256 SWAP1 JUMPDEST DUP2 SLOAD DUP2 MSTORE SWAP1 PUSH1 0x1 ADD SWAP1 PUSH1 0x20 ADD DUP1 DUP4 GT PUSH2 0x150 JUMPI DUP3 SWAP1 SUB PUSH1 0x1F AND DUP3 ADD SWAP2 JUMPDEST POP POP POP POP POP DUP2 MSTORE PUSH1 0x20 ADD SWAP1 PUSH1 0x1 ADD SWAP1 PUSH2 0xD9 JUMP JUMPDEST POP POP POP POP SWAP1 POP SWAP1 JUMP JUMPDEST PUSH1 0x60 PUSH0 DUP1 PUSH2 0x198 SWAP2 SWAP1 PUSH2 0x32F JUMP JUMPDEST PUSH0 DUP1 PUSH1 0x1 DUP2 SLOAD ADD DUP1 DUP3 SSTORE DUP1 SWAP2 POP POP PUSH1 0x1 SWAP1 SUB SWAP1 PUSH0 MSTORE PUSH1 0x20 PUSH0 KECCAK256 ADD PUSH0 PUSH1 0x40 MLOAD DUP1 PUSH1 0x40 ADD PUSH1 0x40 MSTORE DUP1 PUSH1 0x7 DUP2 MSTORE PUSH1 0x20 ADD PUSH32 0x456E676C69736800000000000000000000000000000000000000000000000000 DUP2 MSTORE POP SWAP1 SWAP2 SWAP1 SWAP2 POP SWAP1 DUP2 PUSH2 0x1FA SWAP2 SWAP1 PUSH2 0x75D JUMP JUMPDEST POP PUSH0 DUP1 PUSH1 0x1 DUP2 SLOAD ADD DUP1 DUP3 SSTORE DUP1 SWAP2 POP POP PUSH1 0x1 SWAP1 SUB SWAP1 PUSH0 MSTORE PUSH1 0x20 PUSH0 KECCAK256 ADD PUSH0 PUSH1 0x40 MLOAD DUP1 PUSH1 0x40 ADD PUSH1 0x40 MSTORE DUP1 PUSH1 0x5 DUP2 MSTORE PUSH1 0x20 ADD PUSH32 0x4D75736963000000000000000000000000000000000000000000000000000000 DUP2 MSTORE POP SWAP1 SWAP2 SWAP1 SWAP2 POP SWAP1 DUP2 PUSH2 0x25D SWAP2 SWAP1 PUSH2 0x75D JUMP JUMPDEST POP PUSH0 DUP1 SLOAD DUP1 PUSH1 0x20 MUL PUSH1 0x20 ADD PUSH1 0x40 MLOAD SWAP1 DUP2 ADD PUSH1 0x40 MSTORE DUP1 SWAP3 SWAP2 SWAP1 DUP2 DUP2 MSTORE PUSH1 0x20 ADD PUSH0 SWAP1 JUMPDEST DUP3 DUP3 LT ISZERO PUSH2 0x326 JUMPI DUP4 DUP3 SWAP1 PUSH0 MSTORE PUSH1 0x20 PUSH0 KECCAK256 ADD DUP1 SLOAD PUSH2 0x29B SWAP1 PUSH2 0x587 JUMP JUMPDEST DUP1 PUSH1 0x1F ADD PUSH1 0x20 DUP1 SWAP2 DIV MUL PUSH1 0x20 ADD PUSH1 0x40 MLOAD SWAP1 DUP2 ADD PUSH1 0x40 MSTORE DUP1 SWAP3 SWAP2 SWAP1 DUP2 DUP2 MSTORE PUSH1 0x20 ADD DUP3 DUP1 SLOAD PUSH2 0x2C7 SWAP1 PUSH2 0x587 JUMP JUMPDEST DUP1 ISZERO PUSH2 0x312 JUMPI DUP1 PUSH1 0x1F LT PUSH2 0x2E9 JUMPI PUSH2 0x100 DUP1 DUP4 SLOAD DIV MUL DUP4 MSTORE SWAP2 PUSH1 0x20 ADD SWAP2 PUSH2 0x312 JUMP JUMPDEST DUP3 ADD SWAP2 SWAP1 PUSH0 MSTORE PUSH1 0x20 PUSH0 KECCAK256 SWAP1 JUMPDEST DUP2 SLOAD DUP2 MSTORE SWAP1 PUSH1 0x1 ADD SWAP1 PUSH1 0x20 ADD DUP1 DUP4 GT PUSH2 0x2F5 JUMPI DUP3 SWAP1 SUB PUSH1 0x1F AND DUP3 ADD SWAP2 JUMPDEST POP POP POP POP POP DUP2 MSTORE PUSH1 0x20 ADD SWAP1 PUSH1 0x1 ADD SWAP1 PUSH2 0x27E JUMP JUMPDEST POP POP POP POP SWAP1 POP SWAP1 JUMP JUMPDEST POP DUP1 SLOAD PUSH0 DUP3 SSTORE SWAP1 PUSH0 MSTORE PUSH1 0x20 PUSH0 KECCAK256 SWAP1 DUP2 ADD SWAP1 PUSH2 0x34A SWAP2 SWAP1 PUSH2 0x34D JUMP JUMPDEST POP JUMP JUMPDEST JUMPDEST DUP1 DUP3 GT ISZERO PUSH2 0x36C JUMPI PUSH0 DUP2 DUP2 PUSH2 0x363 SWAP2 SWAP1 PUSH2 0x370 JUMP JUMPDEST POP PUSH1 0x1 ADD PUSH2 0x34E JUMP JUMPDEST POP SWAP1 JUMP JUMPDEST POP DUP1 SLOAD PUSH2 0x37C SWAP1 PUSH2 0x587 JUMP JUMPDEST PUSH0 DUP3 SSTORE DUP1 PUSH1 0x1F LT PUSH2 0x38D JUMPI POP PUSH2 0x3AA JUMP JUMPDEST PUSH1 0x1F ADD PUSH1 0x20 SWAP1 DIV SWAP1 PUSH0 MSTORE PUSH1 0x20 PUSH0 KECCAK256 SWAP1 DUP2 ADD SWAP1 PUSH2 0x3A9 SWAP2 SWAP1 PUSH2 0x3AD JUMP JUMPDEST JUMPDEST POP JUMP JUMPDEST JUMPDEST DUP1 DUP3 GT ISZERO PUSH2 0x3C4 JUMPI PUSH0 DUP2 PUSH0 SWAP1 SSTORE POP PUSH1 0x1 ADD PUSH2 0x3AE JUMP JUMPDEST POP SWAP1 JUMP JUMPDEST PUSH0 DUP2 MLOAD SWAP1 POP SWAP2 SWAP1 POP JUMP JUMPDEST PUSH0 DUP3 DUP3 MSTORE PUSH1 0x20 DUP3 ADD SWAP1 POP SWAP3 SWAP2 POP POP JUMP JUMPDEST PUSH0 DUP2 SWAP1 POP PUSH1 0x20 DUP3 ADD SWAP1 POP SWAP2 SWAP1 POP JUMP JUMPDEST PUSH0 DUP2 MLOAD SWAP1 POP SWAP2 SWAP1 POP JUMP JUMPDEST PUSH0 DUP3 DUP3 MSTORE PUSH1 0x20 DUP3 ADD SWAP1 POP SWAP3 SWAP2 POP POP JUMP JUMPDEST PUSH0 JUMPDEST DUP4 DUP2 LT ISZERO PUSH2 0x428 JUMPI DUP1 DUP3 ADD MLOAD DUP2 DUP5 ADD MSTORE PUSH1 0x20 DUP2 ADD SWAP1 POP PUSH2 0x40D JUMP JUMPDEST PUSH0 DUP5 DUP5 ADD MSTORE POP POP POP POP JUMP JUMPDEST PUSH0 PUSH1 0x1F NOT PUSH1 0x1F DUP4 ADD AND SWAP1 POP SWAP2 SWAP1 POP JUMP JUMPDEST PUSH0 PUSH2 0x44D DUP3 PUSH2 0x3F1 JUMP JUMPDEST PUSH2 0x457 DUP2 DUP6 PUSH2 0x3FB JUMP JUMPDEST SWAP4 POP PUSH2 0x467 DUP2 DUP6 PUSH1 0x20 DUP7 ADD PUSH2 0x40B JUMP JUMPDEST PUSH2 0x470 DUP2 PUSH2 0x433 JUMP JUMPDEST DUP5 ADD SWAP2 POP POP SWAP3 SWAP2 POP POP JUMP JUMPDEST PUSH0 PUSH2 0x486 DUP4 DUP4 PUSH2 0x443 JUMP JUMPDEST SWAP1 POP SWAP3 SWAP2 POP POP JUMP JUMPDEST PUSH0 PUSH1 0x20 DUP3 ADD SWAP1 POP SWAP2 SWAP1 POP JUMP JUMPDEST PUSH0 PUSH2 0x4A4 DUP3 PUSH2 0x3C8 JUMP JUMPDEST PUSH2 0x4AE DUP2 DUP6 PUSH2 0x3D2 JUMP JUMPDEST SWAP4 POP DUP4 PUSH1 0x20 DUP3 MUL DUP6 ADD PUSH2 0x4C0 DUP6 PUSH2 0x3E2 JUMP JUMPDEST DUP1 PUSH0 JUMPDEST DUP6 DUP2 LT ISZERO PUSH2 0x4FB JUMPI DUP5 DUP5 SUB DUP10 MSTORE DUP2 MLOAD PUSH2 0x4DC DUP6 DUP3 PUSH2 0x47B JUMP JUMPDEST SWAP5 POP PUSH2 0x4E7 DUP4 PUSH2 0x48E JUMP JUMPDEST SWAP3 POP PUSH1 0x20 DUP11 ADD SWAP10 POP POP PUSH1 0x1 DUP2 ADD SWAP1 POP PUSH2 0x4C3 JUMP JUMPDEST POP DUP3 SWAP8 POP DUP8 SWAP6 POP POP POP POP POP POP SWAP3 SWAP2 POP POP JUMP JUMPDEST PUSH0 PUSH1 0x20 DUP3 ADD SWAP1 POP DUP2 DUP2 SUB PUSH0 DUP4 ADD MSTORE PUSH2 0x525 DUP2 DUP5 PUSH2 0x49A JUMP JUMPDEST SWAP1 POP SWAP3 SWAP2 POP POP JUMP JUMPDEST PUSH32 0x4E487B7100000000000000000000000000000000000000000000000000000000 PUSH0 MSTORE PUSH1 0x41 PUSH1 0x4 MSTORE PUSH1 0x24 PUSH0 REVERT JUMPDEST PUSH32 0x4E487B7100000000000000000000000000000000000000000000000000000000 PUSH0 MSTORE PUSH1 0x22 PUSH1 0x4 MSTORE PUSH1 0x24 PUSH0 REVERT JUMPDEST PUSH0 PUSH1 0x2 DUP3 DIV SWAP1 POP PUSH1 0x1 DUP3 AND DUP1 PUSH2 0x59E JUMPI PUSH1 0x7F DUP3 AND SWAP2 POP JUMPDEST PUSH1 0x20 DUP3 LT DUP2 SUB PUSH2 0x5B1 JUMPI PUSH2 0x5B0 PUSH2 0x55A JUMP JUMPDEST JUMPDEST POP SWAP2 SWAP1 POP JUMP JUMPDEST PUSH0 DUP2 SWAP1 POP DUP2 PUSH0 MSTORE PUSH1 0x20 PUSH0 KECCAK256 SWAP1 POP SWAP2 SWAP1 POP JUMP JUMPDEST PUSH0 PUSH1 0x20 PUSH1 0x1F DUP4 ADD DIV SWAP1 POP SWAP2 SWAP1 POP JUMP JUMPDEST PUSH0 DUP3 DUP3 SHL SWAP1 POP SWAP3 SWAP2 POP POP JUMP JUMPDEST PUSH0 PUSH1 0x8 DUP4 MUL PUSH2 0x613 PUSH32 0xFFFFFFFFFFFFFFFFFFFFFFFFFFFFFFFFFFFFFFFFFFFFFFFFFFFFFFFFFFFFFFFF DUP3 PUSH2 0x5D8 JUMP JUMPDEST PUSH2 0x61D DUP7 DUP4 PUSH2 0x5D8 JUMP JUMPDEST SWAP6 POP DUP1 NOT DUP5 AND SWAP4 POP DUP1 DUP7 AND DUP5 OR SWAP3 POP POP POP SWAP4 SWAP3 POP POP POP JUMP JUMPDEST PUSH0 DUP2 SWAP1 POP SWAP2 SWAP1 POP JUMP JUMPDEST PUSH0 DUP2 SWAP1 POP SWAP2 SWAP1 POP JUMP JUMPDEST PUSH0 PUSH2 0x661 PUSH2 0x65C PUSH2 0x657 DUP5 PUSH2 0x635 JUMP JUMPDEST PUSH2 0x63E JUMP JUMPDEST PUSH2 0x635 JUMP JUMPDEST SWAP1 POP SWAP2 SWAP1 POP JUMP JUMPDEST PUSH0 DUP2 SWAP1 POP SWAP2 SWAP1 POP JUMP JUMPDEST PUSH2 0x67A DUP4 PUSH2 0x647 JUMP JUMPDEST PUSH2 0x68E PUSH2 0x686 DUP3 PUSH2 0x668 JUMP JUMPDEST DUP5 DUP5 SLOAD PUSH2 0x5E4 JUMP JUMPDEST DUP3 SSTORE POP POP POP POP JUMP JUMPDEST PUSH0 SWAP1 JUMP JUMPDEST PUSH2 0x6A2 PUSH2 0x696 JUMP JUMPDEST PUSH2 0x6AD DUP2 DUP5 DUP5 PUSH2 0x671 JUMP JUMPDEST POP POP POP JUMP JUMPDEST JUMPDEST DUP2 DUP2 LT ISZERO PUSH2 0x6D0 JUMPI PUSH2 0x6C5 PUSH0 DUP3 PUSH2 0x69A JUMP JUMPDEST PUSH1 0x1 DUP2 ADD SWAP1 POP PUSH2 0x6B3 JUMP JUMPDEST POP POP JUMP JUMPDEST PUSH1 0x1F DUP3 GT ISZERO PUSH2 0x715 JUMPI PUSH2 0x6E6 DUP2 PUSH2 0x5B7 JUMP JUMPDEST PUSH2 0x6EF DUP5 PUSH2 0x5C9 JUMP JUMPDEST DUP2 ADD PUSH1 0x20 DUP6 LT ISZERO PUSH2 0x6FE JUMPI DUP2 SWAP1 POP JUMPDEST PUSH2 0x712 PUSH2 0x70A DUP6 PUSH2 0x5C9 JUMP JUMPDEST DUP4 ADD DUP3 PUSH2 0x6B2 JUMP JUMPDEST POP POP JUMPDEST POP POP POP JUMP JUMPDEST PUSH0 DUP3 DUP3 SHR SWAP1 POP SWAP3 SWAP2 POP POP JUMP JUMPDEST PUSH0 PUSH2 0x735 PUSH0 NOT DUP5 PUSH1 0x8 MUL PUSH2 0x71A JUMP JUMPDEST NOT DUP1 DUP4 AND SWAP2 POP POP SWAP3 SWAP2 POP POP JUMP JUMPDEST PUSH0 PUSH2 0x74D DUP4 DUP4 PUSH2 0x726 JUMP JUMPDEST SWAP2 POP DUP3 PUSH1 0x2 MUL DUP3 OR SWAP1 POP SWAP3 SWAP2 POP POP JUMP JUMPDEST PUSH2 0x766 DUP3 PUSH2 0x3F1 JUMP JUMPDEST PUSH8 0xFFFFFFFFFFFFFFFF DUP2 GT ISZERO PUSH2 0x77F JUMPI PUSH2 0x77E PUSH2 0x52D JUMP JUMPDEST JUMPDEST PUSH2 0x789 DUP3 SLOAD PUSH2 0x587 JUMP JUMPDEST PUSH2 0x794 DUP3 DUP3 DUP6 PUSH2 0x6D4 JUMP JUMPDEST PUSH0 PUSH1 0x20 SWAP1 POP PUSH1 0x1F DUP4 GT PUSH1 0x1 DUP2 EQ PUSH2 0x7C5 JUMPI PUSH0 DUP5 ISZERO PUSH2 0x7B3 JUMPI DUP3 DUP8 ADD MLOAD SWAP1 POP JUMPDEST PUSH2 0x7BD DUP6 DUP3 PUSH2 0x742 JUMP JUMPDEST DUP7 SSTORE POP PUSH2 0x824 JUMP JUMPDEST PUSH1 0x1F NOT DUP5 AND PUSH2 0x7D3 DUP7 PUSH2 0x5B7 JUMP JUMPDEST PUSH0 JUMPDEST DUP3 DUP2 LT ISZERO PUSH2 0x7FA JUMPI DUP5 DUP10 ADD MLOAD DUP3 SSTORE PUSH1 0x1 DUP3 ADD SWAP2 POP PUSH1 0x20 DUP6 ADD SWAP5 POP PUSH1 0x20 DUP2 ADD SWAP1 POP PUSH2 0x7D5 JUMP JUMPDEST DUP7 DUP4 LT ISZERO PUSH2 0x817 JUMPI DUP5 DUP10 ADD MLOAD PUSH2 0x813 PUSH1 0x1F DUP10 AND DUP3 PUSH2 0x726 JUMP JUMPDEST DUP4 SSTORE POP JUMPDEST PUSH1 0x1 PUSH1 0x2 DUP9 MUL ADD DUP9 SSTORE POP POP POP JUMPDEST POP POP POP POP POP POP JUMP INVALID LOG2 PUSH5 0x6970667358 0x22 SLT KECCAK256 0xE0 BLOCKHASH PC 0xC4 DUP11 SWAP11 0xE4 0xB1 SWAP2 PUSH25 0x276C72C15E840BE904C42AC88DA180FAC4956058746264736F PUSH13 0x63430008170033000000000000 "
				},
				"gasEstimates": {
					"creation": {
						"codeDepositCost": "429200",
						"executionCost": "466",
						"totalCost": "429666"
					},
					"external": {
						"showCourses()": "infinite"
					}
				},
				"methodIdentifiers": {
					"showCourses()": "44a034cd"
				}
			},
			"storageLayout": {
				"storage": [
					{
						"astId": 4,
						"contract": "chapter6/EX6_10.sol:ArtStudent",
						"label": "courses",
						"offset": 0,
						"slot": "0",
						"type": "t_array(t_string_storage)dyn_storage"
					}
				],
				"types": {
					"t_array(t_string_storage)dyn_storage": {
						"base": "t_string_storage",
						"encoding": "dynamic_array",
						"label": "string[]",
						"numberOfBytes": "32"
					},
					"t_string_storage": {
						"encoding": "bytes",
						"label": "string",
						"numberOfBytes": "32"
					}
				}
			},
			"userdoc": {
				"kind": "user",
				"methods": {},
				"version": 1
			}
		}
	}
}