{
	"chapter6/Ex6_4.sol": {
		"Computer": {
			"abi": [
				{
					"inputs": [],
					"stateMutability": "nonpayable",
					"type": "constructor"
				},
				{
					"inputs": [],
					"name": "getAllNames",
					"outputs": [
						{
							"internalType": "string",
							"name": "",
							"type": "string"
						},
						{
							"internalType": "string",
							"name": "",
							"type": "string"
						}
					],
					"stateMutability": "view",
					"type": "function"
				},
				{
					"inputs": [],
					"name": "monitor",
					"outputs": [
						{
							"internalType": "contract Monitor",
							"name": "",
							"type": "address"
						}
					],
					"stateMutability": "view",
					"type": "function"
				},
				{
					"inputs": [],
					"name": "start",
					"outputs": [
						{
							"internalType": "string",
							"name": "",
							"type": "string"
						},
						{
							"internalType": "string",
							"name": "",
							"type": "string"
						}
					],
					"stateMutability": "view",
					"type": "function"
				},
				{
					"inputs": [],
					"name": "system",
					"outputs": [
						{
							"internalType": "contract System",
							"name": "",
							"type": "address"
						}
					],
					"stateMutability": "view",
					"type": "function"
				}
			],
			"devdoc": {
				"kind": "dev",
				"methods": {},
				"version": 1
			},
			"evm": {
				"assembly": "    /* \"chapter6/Ex6_4.sol\":434:884  contract Computer {... */\n  mstore(0x40, 0x80)\n    /* \"chapter6/Ex6_4.sol\":517:611  constructor() {... */\n  callvalue\n  dup1\n  iszero\n  tag_1\n  jumpi\n  0x00\n  dup1\n  revert\ntag_1:\n  pop\n    /* \"chapter6/Ex6_4.sol\":552:571  new Monitor(\"DW12\") */\n  mload(0x40)\n  tag_4\n  swap1\n  tag_5\n  jump\t// in\ntag_4:\n  tag_6\n  swap1\n  tag_7\n  jump\t// in\ntag_6:\n  mload(0x40)\n  dup1\n  swap2\n  sub\n  swap1\n  0x00\n  create\n  dup1\n  iszero\n  dup1\n  iszero\n  tag_8\n  jumpi\n  returndatasize\n  0x00\n  dup1\n  returndatacopy\n  revert(0x00, returndatasize)\ntag_8:\n  pop\n    /* \"chapter6/Ex6_4.sol\":542:549  monitor */\n  0x00\n  dup1\n    /* \"chapter6/Ex6_4.sol\":542:571  monitor = new Monitor(\"DW12\") */\n  0x0100\n  exp\n  dup2\n  sload\n  dup2\n  0xffffffffffffffffffffffffffffffffffffffff\n  mul\n  not\n  and\n  swap1\n  dup4\n  0xffffffffffffffffffffffffffffffffffffffff\n  and\n  mul\n  or\n  swap1\n  sstore\n  pop\n    /* \"chapter6/Ex6_4.sol\":591:603  new System() */\n  mload(0x40)\n  tag_9\n  swap1\n  tag_10\n  jump\t// in\ntag_9:\n  mload(0x40)\n  dup1\n  swap2\n  sub\n  swap1\n  0x00\n  create\n  dup1\n  iszero\n  dup1\n  iszero\n  tag_11\n  jumpi\n  returndatasize\n  0x00\n  dup1\n  returndatacopy\n  revert(0x00, returndatasize)\ntag_11:\n  pop\n    /* \"chapter6/Ex6_4.sol\":582:588  system */\n  0x01\n  0x00\n    /* \"chapter6/Ex6_4.sol\":582:603  system = new System() */\n  0x0100\n  exp\n  dup2\n  sload\n  dup2\n  0xffffffffffffffffffffffffffffffffffffffff\n  mul\n  not\n  and\n  swap1\n  dup4\n  0xffffffffffffffffffffffffffffffffffffffff\n  and\n  mul\n  or\n  swap1\n  sstore\n  pop\n    /* \"chapter6/Ex6_4.sol\":434:884  contract Computer {... */\n  jump(tag_12)\ntag_5:\n  dataSize(sub_1)\n  dup1\n  dataOffset(sub_1)\n  dup4\n  codecopy\n  add\n  swap1\n  jump\t// out\ntag_10:\n  dataSize(sub_2)\n  dup1\n  dataOffset(sub_2)\n  dup4\n  codecopy\n  add\n  swap1\n  jump\t// out\n    /* \"#utility.yul\":7:176   */\ntag_13:\n    /* \"#utility.yul\":91:102   */\n  0x00\n    /* \"#utility.yul\":125:131   */\n  dup3\n    /* \"#utility.yul\":120:123   */\n  dup3\n    /* \"#utility.yul\":113:132   */\n  mstore\n    /* \"#utility.yul\":165:169   */\n  0x20\n    /* \"#utility.yul\":160:163   */\n  dup3\n    /* \"#utility.yul\":156:170   */\n  add\n    /* \"#utility.yul\":141:170   */\n  swap1\n  pop\n    /* \"#utility.yul\":7:176   */\n  swap3\n  swap2\n  pop\n  pop\n  jump\t// out\n    /* \"#utility.yul\":182:336   */\ntag_14:\n    /* \"#utility.yul\":322:328   */\n  0x4457313200000000000000000000000000000000000000000000000000000000\n    /* \"#utility.yul\":318:319   */\n  0x00\n    /* \"#utility.yul\":310:316   */\n  dup3\n    /* \"#utility.yul\":306:320   */\n  add\n    /* \"#utility.yul\":299:329   */\n  mstore\n    /* \"#utility.yul\":182:336   */\n  pop\n  jump\t// out\n    /* \"#utility.yul\":342:707   */\ntag_15:\n    /* \"#utility.yul\":484:487   */\n  0x00\n    /* \"#utility.yul\":505:571   */\n  tag_20\n    /* \"#utility.yul\":569:570   */\n  0x04\n    /* \"#utility.yul\":564:567   */\n  dup4\n    /* \"#utility.yul\":505:571   */\n  tag_13\n  jump\t// in\ntag_20:\n    /* \"#utility.yul\":498:571   */\n  swap2\n  pop\n    /* \"#utility.yul\":580:673   */\n  tag_21\n    /* \"#utility.yul\":669:672   */\n  dup3\n    /* \"#utility.yul\":580:673   */\n  tag_14\n  jump\t// in\ntag_21:\n    /* \"#utility.yul\":698:700   */\n  0x20\n    /* \"#utility.yul\":693:696   */\n  dup3\n    /* \"#utility.yul\":689:701   */\n  add\n    /* \"#utility.yul\":682:701   */\n  swap1\n  pop\n    /* \"#utility.yul\":342:707   */\n  swap2\n  swap1\n  pop\n  jump\t// out\n    /* \"#utility.yul\":713:1132   */\ntag_7:\n    /* \"#utility.yul\":879:883   */\n  0x00\n    /* \"#utility.yul\":917:919   */\n  0x20\n    /* \"#utility.yul\":906:915   */\n  dup3\n    /* \"#utility.yul\":902:920   */\n  add\n    /* \"#utility.yul\":894:920   */\n  swap1\n  pop\n    /* \"#utility.yul\":966:975   */\n  dup2\n    /* \"#utility.yul\":960:964   */\n  dup2\n    /* \"#utility.yul\":956:976   */\n  sub\n    /* \"#utility.yul\":952:953   */\n  0x00\n    /* \"#utility.yul\":941:950   */\n  dup4\n    /* \"#utility.yul\":937:954   */\n  add\n    /* \"#utility.yul\":930:977   */\n  mstore\n    /* \"#utility.yul\":994:1125   */\n  tag_23\n    /* \"#utility.yul\":1120:1124   */\n  dup2\n    /* \"#utility.yul\":994:1125   */\n  tag_15\n  jump\t// in\ntag_23:\n    /* \"#utility.yul\":986:1125   */\n  swap1\n  pop\n    /* \"#utility.yul\":713:1132   */\n  swap2\n  swap1\n  pop\n  jump\t// out\n    /* \"chapter6/Ex6_4.sol\":434:884  contract Computer {... */\ntag_12:\n  dataSize(sub_0)\n  dup1\n  dataOffset(sub_0)\n  0x00\n  codecopy\n  0x00\n  return\nstop\n\nsub_0: assembly {\n        /* \"chapter6/Ex6_4.sol\":434:884  contract Computer {... */\n      mstore(0x40, 0x80)\n      callvalue\n      dup1\n      iszero\n      tag_1\n      jumpi\n      0x00\n      dup1\n      revert\n    tag_1:\n      pop\n      jumpi(tag_2, lt(calldatasize, 0x04))\n      shr(0xe0, calldataload(0x00))\n      dup1\n      0x3241992a\n      eq\n      tag_3\n      jumpi\n      dup1\n      0x95bf75fd\n      eq\n      tag_4\n      jumpi\n      dup1\n      0xbe9a6555\n      eq\n      tag_5\n      jumpi\n      dup1\n      0xfb825e5f\n      eq\n      tag_6\n      jumpi\n    tag_2:\n      0x00\n      dup1\n      revert\n        /* \"chapter6/Ex6_4.sol\":459:481  Monitor public monitor */\n    tag_3:\n      tag_7\n      tag_8\n      jump\t// in\n    tag_7:\n      mload(0x40)\n      tag_9\n      swap2\n      swap1\n      tag_10\n      jump\t// in\n    tag_9:\n      mload(0x40)\n      dup1\n      swap2\n      sub\n      swap1\n      return\n        /* \"chapter6/Ex6_4.sol\":488:508  System public system */\n    tag_4:\n      tag_11\n      tag_12\n      jump\t// in\n    tag_11:\n      mload(0x40)\n      tag_13\n      swap2\n      swap1\n      tag_14\n      jump\t// in\n    tag_13:\n      mload(0x40)\n      dup1\n      swap2\n      sub\n      swap1\n      return\n        /* \"chapter6/Ex6_4.sol\":756:881  function start() public view returns(string memory, string memory) {... */\n    tag_5:\n      tag_15\n      tag_16\n      jump\t// in\n    tag_15:\n      mload(0x40)\n      tag_17\n      swap3\n      swap2\n      swap1\n      tag_18\n      jump\t// in\n    tag_17:\n      mload(0x40)\n      dup1\n      swap2\n      sub\n      swap1\n      return\n        /* \"chapter6/Ex6_4.sol\":619:748  function getAllNames() public view returns(string memory, string memory) {... */\n    tag_6:\n      tag_19\n      tag_20\n      jump\t// in\n    tag_19:\n      mload(0x40)\n      tag_21\n      swap3\n      swap2\n      swap1\n      tag_18\n      jump\t// in\n    tag_21:\n      mload(0x40)\n      dup1\n      swap2\n      sub\n      swap1\n      return\n        /* \"chapter6/Ex6_4.sol\":459:481  Monitor public monitor */\n    tag_8:\n      0x00\n      dup1\n      sload\n      swap1\n      0x0100\n      exp\n      swap1\n      div\n      0xffffffffffffffffffffffffffffffffffffffff\n      and\n      dup2\n      jump\t// out\n        /* \"chapter6/Ex6_4.sol\":488:508  System public system */\n    tag_12:\n      0x01\n      0x00\n      swap1\n      sload\n      swap1\n      0x0100\n      exp\n      swap1\n      div\n      0xffffffffffffffffffffffffffffffffffffffff\n      and\n      dup2\n      jump\t// out\n        /* \"chapter6/Ex6_4.sol\":756:881  function start() public view returns(string memory, string memory) {... */\n    tag_16:\n        /* \"chapter6/Ex6_4.sol\":793:806  string memory */\n      0x60\n        /* \"chapter6/Ex6_4.sol\":808:821  string memory */\n      dup1\n        /* \"chapter6/Ex6_4.sol\":841:848  monitor */\n      0x00\n      dup1\n      sload\n      swap1\n      0x0100\n      exp\n      swap1\n      div\n      0xffffffffffffffffffffffffffffffffffffffff\n      and\n        /* \"chapter6/Ex6_4.sol\":841:853  monitor.show */\n      0xffffffffffffffffffffffffffffffffffffffff\n      and\n      0xcc80f6f3\n        /* \"chapter6/Ex6_4.sol\":841:855  monitor.show() */\n      mload(0x40)\n      dup2\n      0xffffffff\n      and\n      0xe0\n      shl\n      dup2\n      mstore\n      0x04\n      add\n      0x00\n      mload(0x40)\n      dup1\n      dup4\n      sub\n      dup2\n      dup7\n      gas\n      staticcall\n      iszero\n      dup1\n      iszero\n      tag_24\n      jumpi\n      returndatasize\n      0x00\n      dup1\n      returndatacopy\n      revert(0x00, returndatasize)\n    tag_24:\n      pop\n      pop\n      pop\n      pop\n      mload(0x40)\n      returndatasize\n      0x00\n      dup3\n      returndatacopy\n      returndatasize\n      not(0x1f)\n      0x1f\n      dup3\n      add\n      and\n      dup3\n      add\n      dup1\n      0x40\n      mstore\n      pop\n      dup2\n      add\n      swap1\n      tag_25\n      swap2\n      swap1\n      tag_26\n      jump\t// in\n    tag_25:\n        /* \"chapter6/Ex6_4.sol\":857:863  system */\n      0x01\n      0x00\n      swap1\n      sload\n      swap1\n      0x0100\n      exp\n      swap1\n      div\n      0xffffffffffffffffffffffffffffffffffffffff\n      and\n        /* \"chapter6/Ex6_4.sol\":857:870  system.turnOn */\n      0xffffffffffffffffffffffffffffffffffffffff\n      and\n      0xba33ed7d\n        /* \"chapter6/Ex6_4.sol\":857:872  system.turnOn() */\n      mload(0x40)\n      dup2\n      0xffffffff\n      and\n      0xe0\n      shl\n      dup2\n      mstore\n      0x04\n      add\n      0x00\n      mload(0x40)\n      dup1\n      dup4\n      sub\n      dup2\n      dup7\n      gas\n      staticcall\n      iszero\n      dup1\n      iszero\n      tag_28\n      jumpi\n      returndatasize\n      0x00\n      dup1\n      returndatacopy\n      revert(0x00, returndatasize)\n    tag_28:\n      pop\n      pop\n      pop\n      pop\n      mload(0x40)\n      returndatasize\n      0x00\n      dup3\n      returndatacopy\n      returndatasize\n      not(0x1f)\n      0x1f\n      dup3\n      add\n      and\n      dup3\n      add\n      dup1\n      0x40\n      mstore\n      pop\n      dup2\n      add\n      swap1\n      tag_29\n      swap2\n      swap1\n      tag_26\n      jump\t// in\n    tag_29:\n        /* \"chapter6/Ex6_4.sol\":834:873  return(monitor.show(), system.turnOn()) */\n      swap2\n      pop\n      swap2\n      pop\n        /* \"chapter6/Ex6_4.sol\":756:881  function start() public view returns(string memory, string memory) {... */\n      swap1\n      swap2\n      jump\t// out\n        /* \"chapter6/Ex6_4.sol\":619:748  function getAllNames() public view returns(string memory, string memory) {... */\n    tag_20:\n        /* \"chapter6/Ex6_4.sol\":662:675  string memory */\n      0x60\n        /* \"chapter6/Ex6_4.sol\":677:690  string memory */\n      dup1\n        /* \"chapter6/Ex6_4.sol\":710:717  monitor */\n      0x00\n      dup1\n      sload\n      swap1\n      0x0100\n      exp\n      swap1\n      div\n      0xffffffffffffffffffffffffffffffffffffffff\n      and\n        /* \"chapter6/Ex6_4.sol\":710:722  monitor.name */\n      0xffffffffffffffffffffffffffffffffffffffff\n      and\n      0x06fdde03\n        /* \"chapter6/Ex6_4.sol\":710:724  monitor.name() */\n      mload(0x40)\n      dup2\n      0xffffffff\n      and\n      0xe0\n      shl\n      dup2\n      mstore\n      0x04\n      add\n      0x00\n      mload(0x40)\n      dup1\n      dup4\n      sub\n      dup2\n      dup7\n      gas\n      staticcall\n      iszero\n      dup1\n      iszero\n      tag_32\n      jumpi\n      returndatasize\n      0x00\n      dup1\n      returndatacopy\n      revert(0x00, returndatasize)\n    tag_32:\n      pop\n      pop\n      pop\n      pop\n      mload(0x40)\n      returndatasize\n      0x00\n      dup3\n      returndatacopy\n      returndatasize\n      not(0x1f)\n      0x1f\n      dup3\n      add\n      and\n      dup3\n      add\n      dup1\n      0x40\n      mstore\n      pop\n      dup2\n      add\n      swap1\n      tag_33\n      swap2\n      swap1\n      tag_26\n      jump\t// in\n    tag_33:\n        /* \"chapter6/Ex6_4.sol\":726:732  system */\n      0x01\n      0x00\n      swap1\n      sload\n      swap1\n      0x0100\n      exp\n      swap1\n      div\n      0xffffffffffffffffffffffffffffffffffffffff\n      and\n        /* \"chapter6/Ex6_4.sol\":726:737  system.name */\n      0xffffffffffffffffffffffffffffffffffffffff\n      and\n      0x06fdde03\n        /* \"chapter6/Ex6_4.sol\":726:739  system.name() */\n      mload(0x40)\n      dup2\n      0xffffffff\n      and\n      0xe0\n      shl\n      dup2\n      mstore\n      0x04\n      add\n      0x00\n      mload(0x40)\n      dup1\n      dup4\n      sub\n      dup2\n      dup7\n      gas\n      staticcall\n      iszero\n      dup1\n      iszero\n      tag_35\n      jumpi\n      returndatasize\n      0x00\n      dup1\n      returndatacopy\n      revert(0x00, returndatasize)\n    tag_35:\n      pop\n      pop\n      pop\n      pop\n      mload(0x40)\n      returndatasize\n      0x00\n      dup3\n      returndatacopy\n      returndatasize\n      not(0x1f)\n      0x1f\n      dup3\n      add\n      and\n      dup3\n      add\n      dup1\n      0x40\n      mstore\n      pop\n      dup2\n      add\n      swap1\n      tag_36\n      swap2\n      swap1\n      tag_26\n      jump\t// in\n    tag_36:\n        /* \"chapter6/Ex6_4.sol\":703:740  return(monitor.name(), system.name()) */\n      swap2\n      pop\n      swap2\n      pop\n        /* \"chapter6/Ex6_4.sol\":619:748  function getAllNames() public view returns(string memory, string memory) {... */\n      swap1\n      swap2\n      jump\t// out\n        /* \"#utility.yul\":7:133   */\n    tag_37:\n        /* \"#utility.yul\":44:51   */\n      0x00\n        /* \"#utility.yul\":84:126   */\n      0xffffffffffffffffffffffffffffffffffffffff\n        /* \"#utility.yul\":77:82   */\n      dup3\n        /* \"#utility.yul\":73:127   */\n      and\n        /* \"#utility.yul\":62:127   */\n      swap1\n      pop\n        /* \"#utility.yul\":7:133   */\n      swap2\n      swap1\n      pop\n      jump\t// out\n        /* \"#utility.yul\":139:199   */\n    tag_38:\n        /* \"#utility.yul\":167:170   */\n      0x00\n        /* \"#utility.yul\":188:193   */\n      dup2\n        /* \"#utility.yul\":181:193   */\n      swap1\n      pop\n        /* \"#utility.yul\":139:199   */\n      swap2\n      swap1\n      pop\n      jump\t// out\n        /* \"#utility.yul\":205:347   */\n    tag_39:\n        /* \"#utility.yul\":255:264   */\n      0x00\n        /* \"#utility.yul\":288:341   */\n      tag_65\n        /* \"#utility.yul\":306:340   */\n      tag_66\n        /* \"#utility.yul\":315:339   */\n      tag_67\n        /* \"#utility.yul\":333:338   */\n      dup5\n        /* \"#utility.yul\":315:339   */\n      tag_37\n      jump\t// in\n    tag_67:\n        /* \"#utility.yul\":306:340   */\n      tag_38\n      jump\t// in\n    tag_66:\n        /* \"#utility.yul\":288:341   */\n      tag_37\n      jump\t// in\n    tag_65:\n        /* \"#utility.yul\":275:341   */\n      swap1\n      pop\n        /* \"#utility.yul\":205:347   */\n      swap2\n      swap1\n      pop\n      jump\t// out\n        /* \"#utility.yul\":353:479   */\n    tag_40:\n        /* \"#utility.yul\":403:412   */\n      0x00\n        /* \"#utility.yul\":436:473   */\n      tag_69\n        /* \"#utility.yul\":467:472   */\n      dup3\n        /* \"#utility.yul\":436:473   */\n      tag_39\n      jump\t// in\n    tag_69:\n        /* \"#utility.yul\":423:473   */\n      swap1\n      pop\n        /* \"#utility.yul\":353:479   */\n      swap2\n      swap1\n      pop\n      jump\t// out\n        /* \"#utility.yul\":485:625   */\n    tag_41:\n        /* \"#utility.yul\":549:558   */\n      0x00\n        /* \"#utility.yul\":582:619   */\n      tag_71\n        /* \"#utility.yul\":613:618   */\n      dup3\n        /* \"#utility.yul\":582:619   */\n      tag_40\n      jump\t// in\n    tag_71:\n        /* \"#utility.yul\":569:619   */\n      swap1\n      pop\n        /* \"#utility.yul\":485:625   */\n      swap2\n      swap1\n      pop\n      jump\t// out\n        /* \"#utility.yul\":631:790   */\n    tag_42:\n        /* \"#utility.yul\":732:783   */\n      tag_73\n        /* \"#utility.yul\":777:782   */\n      dup2\n        /* \"#utility.yul\":732:783   */\n      tag_41\n      jump\t// in\n    tag_73:\n        /* \"#utility.yul\":727:730   */\n      dup3\n        /* \"#utility.yul\":720:784   */\n      mstore\n        /* \"#utility.yul\":631:790   */\n      pop\n      pop\n      jump\t// out\n        /* \"#utility.yul\":796:1046   */\n    tag_10:\n        /* \"#utility.yul\":903:907   */\n      0x00\n        /* \"#utility.yul\":941:943   */\n      0x20\n        /* \"#utility.yul\":930:939   */\n      dup3\n        /* \"#utility.yul\":926:944   */\n      add\n        /* \"#utility.yul\":918:944   */\n      swap1\n      pop\n        /* \"#utility.yul\":954:1039   */\n      tag_75\n        /* \"#utility.yul\":1036:1037   */\n      0x00\n        /* \"#utility.yul\":1025:1034   */\n      dup4\n        /* \"#utility.yul\":1021:1038   */\n      add\n        /* \"#utility.yul\":1012:1018   */\n      dup5\n        /* \"#utility.yul\":954:1039   */\n      tag_42\n      jump\t// in\n    tag_75:\n        /* \"#utility.yul\":796:1046   */\n      swap3\n      swap2\n      pop\n      pop\n      jump\t// out\n        /* \"#utility.yul\":1052:1191   */\n    tag_43:\n        /* \"#utility.yul\":1115:1124   */\n      0x00\n        /* \"#utility.yul\":1148:1185   */\n      tag_77\n        /* \"#utility.yul\":1179:1184   */\n      dup3\n        /* \"#utility.yul\":1148:1185   */\n      tag_40\n      jump\t// in\n    tag_77:\n        /* \"#utility.yul\":1135:1185   */\n      swap1\n      pop\n        /* \"#utility.yul\":1052:1191   */\n      swap2\n      swap1\n      pop\n      jump\t// out\n        /* \"#utility.yul\":1197:1354   */\n    tag_44:\n        /* \"#utility.yul\":1297:1347   */\n      tag_79\n        /* \"#utility.yul\":1341:1346   */\n      dup2\n        /* \"#utility.yul\":1297:1347   */\n      tag_43\n      jump\t// in\n    tag_79:\n        /* \"#utility.yul\":1292:1295   */\n      dup3\n        /* \"#utility.yul\":1285:1348   */\n      mstore\n        /* \"#utility.yul\":1197:1354   */\n      pop\n      pop\n      jump\t// out\n        /* \"#utility.yul\":1360:1608   */\n    tag_14:\n        /* \"#utility.yul\":1466:1470   */\n      0x00\n        /* \"#utility.yul\":1504:1506   */\n      0x20\n        /* \"#utility.yul\":1493:1502   */\n      dup3\n        /* \"#utility.yul\":1489:1507   */\n      add\n        /* \"#utility.yul\":1481:1507   */\n      swap1\n      pop\n        /* \"#utility.yul\":1517:1601   */\n      tag_81\n        /* \"#utility.yul\":1598:1599   */\n      0x00\n        /* \"#utility.yul\":1587:1596   */\n      dup4\n        /* \"#utility.yul\":1583:1600   */\n      add\n        /* \"#utility.yul\":1574:1580   */\n      dup5\n        /* \"#utility.yul\":1517:1601   */\n      tag_44\n      jump\t// in\n    tag_81:\n        /* \"#utility.yul\":1360:1608   */\n      swap3\n      swap2\n      pop\n      pop\n      jump\t// out\n        /* \"#utility.yul\":1614:1713   */\n    tag_45:\n        /* \"#utility.yul\":1666:1672   */\n      0x00\n        /* \"#utility.yul\":1700:1705   */\n      dup2\n        /* \"#utility.yul\":1694:1706   */\n      mload\n        /* \"#utility.yul\":1684:1706   */\n      swap1\n      pop\n        /* \"#utility.yul\":1614:1713   */\n      swap2\n      swap1\n      pop\n      jump\t// out\n        /* \"#utility.yul\":1719:1888   */\n    tag_46:\n        /* \"#utility.yul\":1803:1814   */\n      0x00\n        /* \"#utility.yul\":1837:1843   */\n      dup3\n        /* \"#utility.yul\":1832:1835   */\n      dup3\n        /* \"#utility.yul\":1825:1844   */\n      mstore\n        /* \"#utility.yul\":1877:1881   */\n      0x20\n        /* \"#utility.yul\":1872:1875   */\n      dup3\n        /* \"#utility.yul\":1868:1882   */\n      add\n        /* \"#utility.yul\":1853:1882   */\n      swap1\n      pop\n        /* \"#utility.yul\":1719:1888   */\n      swap3\n      swap2\n      pop\n      pop\n      jump\t// out\n        /* \"#utility.yul\":1894:2140   */\n    tag_47:\n        /* \"#utility.yul\":1975:1976   */\n      0x00\n        /* \"#utility.yul\":1985:2098   */\n    tag_85:\n        /* \"#utility.yul\":1999:2005   */\n      dup4\n        /* \"#utility.yul\":1996:1997   */\n      dup2\n        /* \"#utility.yul\":1993:2006   */\n      lt\n        /* \"#utility.yul\":1985:2098   */\n      iszero\n      tag_87\n      jumpi\n        /* \"#utility.yul\":2084:2085   */\n      dup1\n        /* \"#utility.yul\":2079:2082   */\n      dup3\n        /* \"#utility.yul\":2075:2086   */\n      add\n        /* \"#utility.yul\":2069:2087   */\n      mload\n        /* \"#utility.yul\":2065:2066   */\n      dup2\n        /* \"#utility.yul\":2060:2063   */\n      dup5\n        /* \"#utility.yul\":2056:2067   */\n      add\n        /* \"#utility.yul\":2049:2088   */\n      mstore\n        /* \"#utility.yul\":2021:2023   */\n      0x20\n        /* \"#utility.yul\":2018:2019   */\n      dup2\n        /* \"#utility.yul\":2014:2024   */\n      add\n        /* \"#utility.yul\":2009:2024   */\n      swap1\n      pop\n        /* \"#utility.yul\":1985:2098   */\n      jump(tag_85)\n    tag_87:\n        /* \"#utility.yul\":2132:2133   */\n      0x00\n        /* \"#utility.yul\":2123:2129   */\n      dup5\n        /* \"#utility.yul\":2118:2121   */\n      dup5\n        /* \"#utility.yul\":2114:2130   */\n      add\n        /* \"#utility.yul\":2107:2134   */\n      mstore\n        /* \"#utility.yul\":1956:2140   */\n      pop\n        /* \"#utility.yul\":1894:2140   */\n      pop\n      pop\n      pop\n      jump\t// out\n        /* \"#utility.yul\":2146:2248   */\n    tag_48:\n        /* \"#utility.yul\":2187:2193   */\n      0x00\n        /* \"#utility.yul\":2238:2240   */\n      0x1f\n        /* \"#utility.yul\":2234:2241   */\n      not\n        /* \"#utility.yul\":2229:2231   */\n      0x1f\n        /* \"#utility.yul\":2222:2227   */\n      dup4\n        /* \"#utility.yul\":2218:2232   */\n      add\n        /* \"#utility.yul\":2214:2242   */\n      and\n        /* \"#utility.yul\":2204:2242   */\n      swap1\n      pop\n        /* \"#utility.yul\":2146:2248   */\n      swap2\n      swap1\n      pop\n      jump\t// out\n        /* \"#utility.yul\":2254:2631   */\n    tag_49:\n        /* \"#utility.yul\":2342:2345   */\n      0x00\n        /* \"#utility.yul\":2370:2409   */\n      tag_90\n        /* \"#utility.yul\":2403:2408   */\n      dup3\n        /* \"#utility.yul\":2370:2409   */\n      tag_45\n      jump\t// in\n    tag_90:\n        /* \"#utility.yul\":2425:2496   */\n      tag_91\n        /* \"#utility.yul\":2489:2495   */\n      dup2\n        /* \"#utility.yul\":2484:2487   */\n      dup6\n        /* \"#utility.yul\":2425:2496   */\n      tag_46\n      jump\t// in\n    tag_91:\n        /* \"#utility.yul\":2418:2496   */\n      swap4\n      pop\n        /* \"#utility.yul\":2505:2570   */\n      tag_92\n        /* \"#utility.yul\":2563:2569   */\n      dup2\n        /* \"#utility.yul\":2558:2561   */\n      dup6\n        /* \"#utility.yul\":2551:2555   */\n      0x20\n        /* \"#utility.yul\":2544:2549   */\n      dup7\n        /* \"#utility.yul\":2540:2556   */\n      add\n        /* \"#utility.yul\":2505:2570   */\n      tag_47\n      jump\t// in\n    tag_92:\n        /* \"#utility.yul\":2595:2624   */\n      tag_93\n        /* \"#utility.yul\":2617:2623   */\n      dup2\n        /* \"#utility.yul\":2595:2624   */\n      tag_48\n      jump\t// in\n    tag_93:\n        /* \"#utility.yul\":2590:2593   */\n      dup5\n        /* \"#utility.yul\":2586:2625   */\n      add\n        /* \"#utility.yul\":2579:2625   */\n      swap2\n      pop\n        /* \"#utility.yul\":2346:2631   */\n      pop\n        /* \"#utility.yul\":2254:2631   */\n      swap3\n      swap2\n      pop\n      pop\n      jump\t// out\n        /* \"#utility.yul\":2637:3151   */\n    tag_18:\n        /* \"#utility.yul\":2798:2802   */\n      0x00\n        /* \"#utility.yul\":2836:2838   */\n      0x40\n        /* \"#utility.yul\":2825:2834   */\n      dup3\n        /* \"#utility.yul\":2821:2839   */\n      add\n        /* \"#utility.yul\":2813:2839   */\n      swap1\n      pop\n        /* \"#utility.yul\":2885:2894   */\n      dup2\n        /* \"#utility.yul\":2879:2883   */\n      dup2\n        /* \"#utility.yul\":2875:2895   */\n      sub\n        /* \"#utility.yul\":2871:2872   */\n      0x00\n        /* \"#utility.yul\":2860:2869   */\n      dup4\n        /* \"#utility.yul\":2856:2873   */\n      add\n        /* \"#utility.yul\":2849:2896   */\n      mstore\n        /* \"#utility.yul\":2913:2991   */\n      tag_95\n        /* \"#utility.yul\":2986:2990   */\n      dup2\n        /* \"#utility.yul\":2977:2983   */\n      dup6\n        /* \"#utility.yul\":2913:2991   */\n      tag_49\n      jump\t// in\n    tag_95:\n        /* \"#utility.yul\":2905:2991   */\n      swap1\n      pop\n        /* \"#utility.yul\":3038:3047   */\n      dup2\n        /* \"#utility.yul\":3032:3036   */\n      dup2\n        /* \"#utility.yul\":3028:3048   */\n      sub\n        /* \"#utility.yul\":3023:3025   */\n      0x20\n        /* \"#utility.yul\":3012:3021   */\n      dup4\n        /* \"#utility.yul\":3008:3026   */\n      add\n        /* \"#utility.yul\":3001:3049   */\n      mstore\n        /* \"#utility.yul\":3066:3144   */\n      tag_96\n        /* \"#utility.yul\":3139:3143   */\n      dup2\n        /* \"#utility.yul\":3130:3136   */\n      dup5\n        /* \"#utility.yul\":3066:3144   */\n      tag_49\n      jump\t// in\n    tag_96:\n        /* \"#utility.yul\":3058:3144   */\n      swap1\n      pop\n        /* \"#utility.yul\":2637:3151   */\n      swap4\n      swap3\n      pop\n      pop\n      pop\n      jump\t// out\n        /* \"#utility.yul\":3157:3232   */\n    tag_50:\n        /* \"#utility.yul\":3190:3196   */\n      0x00\n        /* \"#utility.yul\":3223:3225   */\n      0x40\n        /* \"#utility.yul\":3217:3226   */\n      mload\n        /* \"#utility.yul\":3207:3226   */\n      swap1\n      pop\n        /* \"#utility.yul\":3157:3232   */\n      swap1\n      jump\t// out\n        /* \"#utility.yul\":3238:3355   */\n    tag_51:\n        /* \"#utility.yul\":3347:3348   */\n      0x00\n        /* \"#utility.yul\":3344:3345   */\n      dup1\n        /* \"#utility.yul\":3337:3349   */\n      revert\n        /* \"#utility.yul\":3361:3478   */\n    tag_52:\n        /* \"#utility.yul\":3470:3471   */\n      0x00\n        /* \"#utility.yul\":3467:3468   */\n      dup1\n        /* \"#utility.yul\":3460:3472   */\n      revert\n        /* \"#utility.yul\":3484:3601   */\n    tag_53:\n        /* \"#utility.yul\":3593:3594   */\n      0x00\n        /* \"#utility.yul\":3590:3591   */\n      dup1\n        /* \"#utility.yul\":3583:3595   */\n      revert\n        /* \"#utility.yul\":3607:3724   */\n    tag_54:\n        /* \"#utility.yul\":3716:3717   */\n      0x00\n        /* \"#utility.yul\":3713:3714   */\n      dup1\n        /* \"#utility.yul\":3706:3718   */\n      revert\n        /* \"#utility.yul\":3730:3910   */\n    tag_55:\n        /* \"#utility.yul\":3778:3855   */\n      0x4e487b7100000000000000000000000000000000000000000000000000000000\n        /* \"#utility.yul\":3775:3776   */\n      0x00\n        /* \"#utility.yul\":3768:3856   */\n      mstore\n        /* \"#utility.yul\":3875:3879   */\n      0x41\n        /* \"#utility.yul\":3872:3873   */\n      0x04\n        /* \"#utility.yul\":3865:3880   */\n      mstore\n        /* \"#utility.yul\":3899:3903   */\n      0x24\n        /* \"#utility.yul\":3896:3897   */\n      0x00\n        /* \"#utility.yul\":3889:3904   */\n      revert\n        /* \"#utility.yul\":3916:4197   */\n    tag_56:\n        /* \"#utility.yul\":3999:4026   */\n      tag_104\n        /* \"#utility.yul\":4021:4025   */\n      dup3\n        /* \"#utility.yul\":3999:4026   */\n      tag_48\n      jump\t// in\n    tag_104:\n        /* \"#utility.yul\":3991:3997   */\n      dup2\n        /* \"#utility.yul\":3987:4027   */\n      add\n        /* \"#utility.yul\":4129:4135   */\n      dup2\n        /* \"#utility.yul\":4117:4127   */\n      dup2\n        /* \"#utility.yul\":4114:4136   */\n      lt\n        /* \"#utility.yul\":4093:4111   */\n      0xffffffffffffffff\n        /* \"#utility.yul\":4081:4091   */\n      dup3\n        /* \"#utility.yul\":4078:4112   */\n      gt\n        /* \"#utility.yul\":4075:4137   */\n      or\n        /* \"#utility.yul\":4072:4160   */\n      iszero\n      tag_105\n      jumpi\n        /* \"#utility.yul\":4140:4158   */\n      tag_106\n      tag_55\n      jump\t// in\n    tag_106:\n        /* \"#utility.yul\":4072:4160   */\n    tag_105:\n        /* \"#utility.yul\":4180:4190   */\n      dup1\n        /* \"#utility.yul\":4176:4178   */\n      0x40\n        /* \"#utility.yul\":4169:4191   */\n      mstore\n        /* \"#utility.yul\":3959:4197   */\n      pop\n        /* \"#utility.yul\":3916:4197   */\n      pop\n      pop\n      jump\t// out\n        /* \"#utility.yul\":4203:4332   */\n    tag_57:\n        /* \"#utility.yul\":4237:4243   */\n      0x00\n        /* \"#utility.yul\":4264:4284   */\n      tag_108\n      tag_50\n      jump\t// in\n    tag_108:\n        /* \"#utility.yul\":4254:4284   */\n      swap1\n      pop\n        /* \"#utility.yul\":4293:4326   */\n      tag_109\n        /* \"#utility.yul\":4321:4325   */\n      dup3\n        /* \"#utility.yul\":4313:4319   */\n      dup3\n        /* \"#utility.yul\":4293:4326   */\n      tag_56\n      jump\t// in\n    tag_109:\n        /* \"#utility.yul\":4203:4332   */\n      swap2\n      swap1\n      pop\n      jump\t// out\n        /* \"#utility.yul\":4338:4646   */\n    tag_58:\n        /* \"#utility.yul\":4400:4404   */\n      0x00\n        /* \"#utility.yul\":4490:4508   */\n      0xffffffffffffffff\n        /* \"#utility.yul\":4482:4488   */\n      dup3\n        /* \"#utility.yul\":4479:4509   */\n      gt\n        /* \"#utility.yul\":4476:4532   */\n      iszero\n      tag_111\n      jumpi\n        /* \"#utility.yul\":4512:4530   */\n      tag_112\n      tag_55\n      jump\t// in\n    tag_112:\n        /* \"#utility.yul\":4476:4532   */\n    tag_111:\n        /* \"#utility.yul\":4550:4579   */\n      tag_113\n        /* \"#utility.yul\":4572:4578   */\n      dup3\n        /* \"#utility.yul\":4550:4579   */\n      tag_48\n      jump\t// in\n    tag_113:\n        /* \"#utility.yul\":4542:4579   */\n      swap1\n      pop\n        /* \"#utility.yul\":4634:4638   */\n      0x20\n        /* \"#utility.yul\":4628:4632   */\n      dup2\n        /* \"#utility.yul\":4624:4639   */\n      add\n        /* \"#utility.yul\":4616:4639   */\n      swap1\n      pop\n        /* \"#utility.yul\":4338:4646   */\n      swap2\n      swap1\n      pop\n      jump\t// out\n        /* \"#utility.yul\":4652:5086   */\n    tag_59:\n        /* \"#utility.yul\":4741:4746   */\n      0x00\n        /* \"#utility.yul\":4766:4832   */\n      tag_115\n        /* \"#utility.yul\":4782:4831   */\n      tag_116\n        /* \"#utility.yul\":4824:4830   */\n      dup5\n        /* \"#utility.yul\":4782:4831   */\n      tag_58\n      jump\t// in\n    tag_116:\n        /* \"#utility.yul\":4766:4832   */\n      tag_57\n      jump\t// in\n    tag_115:\n        /* \"#utility.yul\":4757:4832   */\n      swap1\n      pop\n        /* \"#utility.yul\":4855:4861   */\n      dup3\n        /* \"#utility.yul\":4848:4853   */\n      dup2\n        /* \"#utility.yul\":4841:4862   */\n      mstore\n        /* \"#utility.yul\":4893:4897   */\n      0x20\n        /* \"#utility.yul\":4886:4891   */\n      dup2\n        /* \"#utility.yul\":4882:4898   */\n      add\n        /* \"#utility.yul\":4931:4934   */\n      dup5\n        /* \"#utility.yul\":4922:4928   */\n      dup5\n        /* \"#utility.yul\":4917:4920   */\n      dup5\n        /* \"#utility.yul\":4913:4929   */\n      add\n        /* \"#utility.yul\":4910:4935   */\n      gt\n        /* \"#utility.yul\":4907:5019   */\n      iszero\n      tag_117\n      jumpi\n        /* \"#utility.yul\":4938:5017   */\n      tag_118\n      tag_54\n      jump\t// in\n    tag_118:\n        /* \"#utility.yul\":4907:5019   */\n    tag_117:\n        /* \"#utility.yul\":5028:5080   */\n      tag_119\n        /* \"#utility.yul\":5073:5079   */\n      dup5\n        /* \"#utility.yul\":5068:5071   */\n      dup3\n        /* \"#utility.yul\":5063:5066   */\n      dup6\n        /* \"#utility.yul\":5028:5080   */\n      tag_47\n      jump\t// in\n    tag_119:\n        /* \"#utility.yul\":4747:5086   */\n      pop\n        /* \"#utility.yul\":4652:5086   */\n      swap4\n      swap3\n      pop\n      pop\n      pop\n      jump\t// out\n        /* \"#utility.yul\":5106:5461   */\n    tag_60:\n        /* \"#utility.yul\":5173:5178   */\n      0x00\n        /* \"#utility.yul\":5222:5225   */\n      dup3\n        /* \"#utility.yul\":5215:5219   */\n      0x1f\n        /* \"#utility.yul\":5207:5213   */\n      dup4\n        /* \"#utility.yul\":5203:5220   */\n      add\n        /* \"#utility.yul\":5199:5226   */\n      slt\n        /* \"#utility.yul\":5189:5311   */\n      tag_121\n      jumpi\n        /* \"#utility.yul\":5230:5309   */\n      tag_122\n      tag_53\n      jump\t// in\n    tag_122:\n        /* \"#utility.yul\":5189:5311   */\n    tag_121:\n        /* \"#utility.yul\":5340:5346   */\n      dup2\n        /* \"#utility.yul\":5334:5347   */\n      mload\n        /* \"#utility.yul\":5365:5455   */\n      tag_123\n        /* \"#utility.yul\":5451:5454   */\n      dup5\n        /* \"#utility.yul\":5443:5449   */\n      dup3\n        /* \"#utility.yul\":5436:5440   */\n      0x20\n        /* \"#utility.yul\":5428:5434   */\n      dup7\n        /* \"#utility.yul\":5424:5441   */\n      add\n        /* \"#utility.yul\":5365:5455   */\n      tag_59\n      jump\t// in\n    tag_123:\n        /* \"#utility.yul\":5356:5455   */\n      swap2\n      pop\n        /* \"#utility.yul\":5179:5461   */\n      pop\n        /* \"#utility.yul\":5106:5461   */\n      swap3\n      swap2\n      pop\n      pop\n      jump\t// out\n        /* \"#utility.yul\":5467:5991   */\n    tag_26:\n        /* \"#utility.yul\":5547:5553   */\n      0x00\n        /* \"#utility.yul\":5596:5598   */\n      0x20\n        /* \"#utility.yul\":5584:5593   */\n      dup3\n        /* \"#utility.yul\":5575:5582   */\n      dup5\n        /* \"#utility.yul\":5571:5594   */\n      sub\n        /* \"#utility.yul\":5567:5599   */\n      slt\n        /* \"#utility.yul\":5564:5683   */\n      iszero\n      tag_125\n      jumpi\n        /* \"#utility.yul\":5602:5681   */\n      tag_126\n      tag_51\n      jump\t// in\n    tag_126:\n        /* \"#utility.yul\":5564:5683   */\n    tag_125:\n        /* \"#utility.yul\":5743:5744   */\n      0x00\n        /* \"#utility.yul\":5732:5741   */\n      dup3\n        /* \"#utility.yul\":5728:5745   */\n      add\n        /* \"#utility.yul\":5722:5746   */\n      mload\n        /* \"#utility.yul\":5773:5791   */\n      0xffffffffffffffff\n        /* \"#utility.yul\":5765:5771   */\n      dup2\n        /* \"#utility.yul\":5762:5792   */\n      gt\n        /* \"#utility.yul\":5759:5876   */\n      iszero\n      tag_127\n      jumpi\n        /* \"#utility.yul\":5795:5874   */\n      tag_128\n      tag_52\n      jump\t// in\n    tag_128:\n        /* \"#utility.yul\":5759:5876   */\n    tag_127:\n        /* \"#utility.yul\":5900:5974   */\n      tag_129\n        /* \"#utility.yul\":5966:5973   */\n      dup5\n        /* \"#utility.yul\":5957:5963   */\n      dup3\n        /* \"#utility.yul\":5946:5955   */\n      dup6\n        /* \"#utility.yul\":5942:5964   */\n      add\n        /* \"#utility.yul\":5900:5974   */\n      tag_60\n      jump\t// in\n    tag_129:\n        /* \"#utility.yul\":5890:5974   */\n      swap2\n      pop\n        /* \"#utility.yul\":5693:5984   */\n      pop\n        /* \"#utility.yul\":5467:5991   */\n      swap3\n      swap2\n      pop\n      pop\n      jump\t// out\n\n    auxdata: 0xa26469706673582212204b300516a19f8d004ca94d0fb6e69e60d53c368e01e2dceefd73d5e22582225d64736f6c63430008170033\n}\n\nsub_1: assembly {\n        /* \"chapter6/Ex6_4.sol\":72:278  contract Monitor {... */\n      mstore(0x40, 0x80)\n        /* \"chapter6/Ex6_4.sol\":121:185  constructor(string memory _name) {... */\n      callvalue\n      dup1\n      iszero\n      tag_1\n      jumpi\n      0x00\n      dup1\n      revert\n    tag_1:\n      pop\n      mload(0x40)\n      sub(codesize, bytecodeSize)\n      dup1\n      bytecodeSize\n      dup4\n      codecopy\n      dup2\n      dup2\n      add\n      0x40\n      mstore\n      dup2\n      add\n      swap1\n      tag_2\n      swap2\n      swap1\n      tag_3\n      jump\t// in\n    tag_2:\n        /* \"chapter6/Ex6_4.sol\":172:177  _name */\n      dup1\n        /* \"chapter6/Ex6_4.sol\":165:169  name */\n      0x00\n        /* \"chapter6/Ex6_4.sol\":165:177  name = _name */\n      swap1\n      dup2\n      tag_6\n      swap2\n      swap1\n      tag_7\n      jump\t// in\n    tag_6:\n      pop\n        /* \"chapter6/Ex6_4.sol\":121:185  constructor(string memory _name) {... */\n      pop\n        /* \"chapter6/Ex6_4.sol\":72:278  contract Monitor {... */\n      jump(tag_8)\n        /* \"#utility.yul\":7:82   */\n    tag_9:\n        /* \"#utility.yul\":40:46   */\n      0x00\n        /* \"#utility.yul\":73:75   */\n      0x40\n        /* \"#utility.yul\":67:76   */\n      mload\n        /* \"#utility.yul\":57:76   */\n      swap1\n      pop\n        /* \"#utility.yul\":7:82   */\n      swap1\n      jump\t// out\n        /* \"#utility.yul\":88:205   */\n    tag_10:\n        /* \"#utility.yul\":197:198   */\n      0x00\n        /* \"#utility.yul\":194:195   */\n      dup1\n        /* \"#utility.yul\":187:199   */\n      revert\n        /* \"#utility.yul\":211:328   */\n    tag_11:\n        /* \"#utility.yul\":320:321   */\n      0x00\n        /* \"#utility.yul\":317:318   */\n      dup1\n        /* \"#utility.yul\":310:322   */\n      revert\n        /* \"#utility.yul\":334:451   */\n    tag_12:\n        /* \"#utility.yul\":443:444   */\n      0x00\n        /* \"#utility.yul\":440:441   */\n      dup1\n        /* \"#utility.yul\":433:445   */\n      revert\n        /* \"#utility.yul\":457:574   */\n    tag_13:\n        /* \"#utility.yul\":566:567   */\n      0x00\n        /* \"#utility.yul\":563:564   */\n      dup1\n        /* \"#utility.yul\":556:568   */\n      revert\n        /* \"#utility.yul\":580:682   */\n    tag_14:\n        /* \"#utility.yul\":621:627   */\n      0x00\n        /* \"#utility.yul\":672:674   */\n      0x1f\n        /* \"#utility.yul\":668:675   */\n      not\n        /* \"#utility.yul\":663:665   */\n      0x1f\n        /* \"#utility.yul\":656:661   */\n      dup4\n        /* \"#utility.yul\":652:666   */\n      add\n        /* \"#utility.yul\":648:676   */\n      and\n        /* \"#utility.yul\":638:676   */\n      swap1\n      pop\n        /* \"#utility.yul\":580:682   */\n      swap2\n      swap1\n      pop\n      jump\t// out\n        /* \"#utility.yul\":688:868   */\n    tag_15:\n        /* \"#utility.yul\":736:813   */\n      0x4e487b7100000000000000000000000000000000000000000000000000000000\n        /* \"#utility.yul\":733:734   */\n      0x00\n        /* \"#utility.yul\":726:814   */\n      mstore\n        /* \"#utility.yul\":833:837   */\n      0x41\n        /* \"#utility.yul\":830:831   */\n      0x04\n        /* \"#utility.yul\":823:838   */\n      mstore\n        /* \"#utility.yul\":857:861   */\n      0x24\n        /* \"#utility.yul\":854:855   */\n      0x00\n        /* \"#utility.yul\":847:862   */\n      revert\n        /* \"#utility.yul\":874:1155   */\n    tag_16:\n        /* \"#utility.yul\":957:984   */\n      tag_50\n        /* \"#utility.yul\":979:983   */\n      dup3\n        /* \"#utility.yul\":957:984   */\n      tag_14\n      jump\t// in\n    tag_50:\n        /* \"#utility.yul\":949:955   */\n      dup2\n        /* \"#utility.yul\":945:985   */\n      add\n        /* \"#utility.yul\":1087:1093   */\n      dup2\n        /* \"#utility.yul\":1075:1085   */\n      dup2\n        /* \"#utility.yul\":1072:1094   */\n      lt\n        /* \"#utility.yul\":1051:1069   */\n      0xffffffffffffffff\n        /* \"#utility.yul\":1039:1049   */\n      dup3\n        /* \"#utility.yul\":1036:1070   */\n      gt\n        /* \"#utility.yul\":1033:1095   */\n      or\n        /* \"#utility.yul\":1030:1118   */\n      iszero\n      tag_51\n      jumpi\n        /* \"#utility.yul\":1098:1116   */\n      tag_52\n      tag_15\n      jump\t// in\n    tag_52:\n        /* \"#utility.yul\":1030:1118   */\n    tag_51:\n        /* \"#utility.yul\":1138:1148   */\n      dup1\n        /* \"#utility.yul\":1134:1136   */\n      0x40\n        /* \"#utility.yul\":1127:1149   */\n      mstore\n        /* \"#utility.yul\":917:1155   */\n      pop\n        /* \"#utility.yul\":874:1155   */\n      pop\n      pop\n      jump\t// out\n        /* \"#utility.yul\":1161:1290   */\n    tag_17:\n        /* \"#utility.yul\":1195:1201   */\n      0x00\n        /* \"#utility.yul\":1222:1242   */\n      tag_54\n      tag_9\n      jump\t// in\n    tag_54:\n        /* \"#utility.yul\":1212:1242   */\n      swap1\n      pop\n        /* \"#utility.yul\":1251:1284   */\n      tag_55\n        /* \"#utility.yul\":1279:1283   */\n      dup3\n        /* \"#utility.yul\":1271:1277   */\n      dup3\n        /* \"#utility.yul\":1251:1284   */\n      tag_16\n      jump\t// in\n    tag_55:\n        /* \"#utility.yul\":1161:1290   */\n      swap2\n      swap1\n      pop\n      jump\t// out\n        /* \"#utility.yul\":1296:1604   */\n    tag_18:\n        /* \"#utility.yul\":1358:1362   */\n      0x00\n        /* \"#utility.yul\":1448:1466   */\n      0xffffffffffffffff\n        /* \"#utility.yul\":1440:1446   */\n      dup3\n        /* \"#utility.yul\":1437:1467   */\n      gt\n        /* \"#utility.yul\":1434:1490   */\n      iszero\n      tag_57\n      jumpi\n        /* \"#utility.yul\":1470:1488   */\n      tag_58\n      tag_15\n      jump\t// in\n    tag_58:\n        /* \"#utility.yul\":1434:1490   */\n    tag_57:\n        /* \"#utility.yul\":1508:1537   */\n      tag_59\n        /* \"#utility.yul\":1530:1536   */\n      dup3\n        /* \"#utility.yul\":1508:1537   */\n      tag_14\n      jump\t// in\n    tag_59:\n        /* \"#utility.yul\":1500:1537   */\n      swap1\n      pop\n        /* \"#utility.yul\":1592:1596   */\n      0x20\n        /* \"#utility.yul\":1586:1590   */\n      dup2\n        /* \"#utility.yul\":1582:1597   */\n      add\n        /* \"#utility.yul\":1574:1597   */\n      swap1\n      pop\n        /* \"#utility.yul\":1296:1604   */\n      swap2\n      swap1\n      pop\n      jump\t// out\n        /* \"#utility.yul\":1610:1856   */\n    tag_19:\n        /* \"#utility.yul\":1691:1692   */\n      0x00\n        /* \"#utility.yul\":1701:1814   */\n    tag_61:\n        /* \"#utility.yul\":1715:1721   */\n      dup4\n        /* \"#utility.yul\":1712:1713   */\n      dup2\n        /* \"#utility.yul\":1709:1722   */\n      lt\n        /* \"#utility.yul\":1701:1814   */\n      iszero\n      tag_63\n      jumpi\n        /* \"#utility.yul\":1800:1801   */\n      dup1\n        /* \"#utility.yul\":1795:1798   */\n      dup3\n        /* \"#utility.yul\":1791:1802   */\n      add\n        /* \"#utility.yul\":1785:1803   */\n      mload\n        /* \"#utility.yul\":1781:1782   */\n      dup2\n        /* \"#utility.yul\":1776:1779   */\n      dup5\n        /* \"#utility.yul\":1772:1783   */\n      add\n        /* \"#utility.yul\":1765:1804   */\n      mstore\n        /* \"#utility.yul\":1737:1739   */\n      0x20\n        /* \"#utility.yul\":1734:1735   */\n      dup2\n        /* \"#utility.yul\":1730:1740   */\n      add\n        /* \"#utility.yul\":1725:1740   */\n      swap1\n      pop\n        /* \"#utility.yul\":1701:1814   */\n      jump(tag_61)\n    tag_63:\n        /* \"#utility.yul\":1848:1849   */\n      0x00\n        /* \"#utility.yul\":1839:1845   */\n      dup5\n        /* \"#utility.yul\":1834:1837   */\n      dup5\n        /* \"#utility.yul\":1830:1846   */\n      add\n        /* \"#utility.yul\":1823:1850   */\n      mstore\n        /* \"#utility.yul\":1672:1856   */\n      pop\n        /* \"#utility.yul\":1610:1856   */\n      pop\n      pop\n      pop\n      jump\t// out\n        /* \"#utility.yul\":1862:2296   */\n    tag_20:\n        /* \"#utility.yul\":1951:1956   */\n      0x00\n        /* \"#utility.yul\":1976:2042   */\n      tag_65\n        /* \"#utility.yul\":1992:2041   */\n      tag_66\n        /* \"#utility.yul\":2034:2040   */\n      dup5\n        /* \"#utility.yul\":1992:2041   */\n      tag_18\n      jump\t// in\n    tag_66:\n        /* \"#utility.yul\":1976:2042   */\n      tag_17\n      jump\t// in\n    tag_65:\n        /* \"#utility.yul\":1967:2042   */\n      swap1\n      pop\n        /* \"#utility.yul\":2065:2071   */\n      dup3\n        /* \"#utility.yul\":2058:2063   */\n      dup2\n        /* \"#utility.yul\":2051:2072   */\n      mstore\n        /* \"#utility.yul\":2103:2107   */\n      0x20\n        /* \"#utility.yul\":2096:2101   */\n      dup2\n        /* \"#utility.yul\":2092:2108   */\n      add\n        /* \"#utility.yul\":2141:2144   */\n      dup5\n        /* \"#utility.yul\":2132:2138   */\n      dup5\n        /* \"#utility.yul\":2127:2130   */\n      dup5\n        /* \"#utility.yul\":2123:2139   */\n      add\n        /* \"#utility.yul\":2120:2145   */\n      gt\n        /* \"#utility.yul\":2117:2229   */\n      iszero\n      tag_67\n      jumpi\n        /* \"#utility.yul\":2148:2227   */\n      tag_68\n      tag_13\n      jump\t// in\n    tag_68:\n        /* \"#utility.yul\":2117:2229   */\n    tag_67:\n        /* \"#utility.yul\":2238:2290   */\n      tag_69\n        /* \"#utility.yul\":2283:2289   */\n      dup5\n        /* \"#utility.yul\":2278:2281   */\n      dup3\n        /* \"#utility.yul\":2273:2276   */\n      dup6\n        /* \"#utility.yul\":2238:2290   */\n      tag_19\n      jump\t// in\n    tag_69:\n        /* \"#utility.yul\":1957:2296   */\n      pop\n        /* \"#utility.yul\":1862:2296   */\n      swap4\n      swap3\n      pop\n      pop\n      pop\n      jump\t// out\n        /* \"#utility.yul\":2316:2671   */\n    tag_21:\n        /* \"#utility.yul\":2383:2388   */\n      0x00\n        /* \"#utility.yul\":2432:2435   */\n      dup3\n        /* \"#utility.yul\":2425:2429   */\n      0x1f\n        /* \"#utility.yul\":2417:2423   */\n      dup4\n        /* \"#utility.yul\":2413:2430   */\n      add\n        /* \"#utility.yul\":2409:2436   */\n      slt\n        /* \"#utility.yul\":2399:2521   */\n      tag_71\n      jumpi\n        /* \"#utility.yul\":2440:2519   */\n      tag_72\n      tag_12\n      jump\t// in\n    tag_72:\n        /* \"#utility.yul\":2399:2521   */\n    tag_71:\n        /* \"#utility.yul\":2550:2556   */\n      dup2\n        /* \"#utility.yul\":2544:2557   */\n      mload\n        /* \"#utility.yul\":2575:2665   */\n      tag_73\n        /* \"#utility.yul\":2661:2664   */\n      dup5\n        /* \"#utility.yul\":2653:2659   */\n      dup3\n        /* \"#utility.yul\":2646:2650   */\n      0x20\n        /* \"#utility.yul\":2638:2644   */\n      dup7\n        /* \"#utility.yul\":2634:2651   */\n      add\n        /* \"#utility.yul\":2575:2665   */\n      tag_20\n      jump\t// in\n    tag_73:\n        /* \"#utility.yul\":2566:2665   */\n      swap2\n      pop\n        /* \"#utility.yul\":2389:2671   */\n      pop\n        /* \"#utility.yul\":2316:2671   */\n      swap3\n      swap2\n      pop\n      pop\n      jump\t// out\n        /* \"#utility.yul\":2677:3201   */\n    tag_3:\n        /* \"#utility.yul\":2757:2763   */\n      0x00\n        /* \"#utility.yul\":2806:2808   */\n      0x20\n        /* \"#utility.yul\":2794:2803   */\n      dup3\n        /* \"#utility.yul\":2785:2792   */\n      dup5\n        /* \"#utility.yul\":2781:2804   */\n      sub\n        /* \"#utility.yul\":2777:2809   */\n      slt\n        /* \"#utility.yul\":2774:2893   */\n      iszero\n      tag_75\n      jumpi\n        /* \"#utility.yul\":2812:2891   */\n      tag_76\n      tag_10\n      jump\t// in\n    tag_76:\n        /* \"#utility.yul\":2774:2893   */\n    tag_75:\n        /* \"#utility.yul\":2953:2954   */\n      0x00\n        /* \"#utility.yul\":2942:2951   */\n      dup3\n        /* \"#utility.yul\":2938:2955   */\n      add\n        /* \"#utility.yul\":2932:2956   */\n      mload\n        /* \"#utility.yul\":2983:3001   */\n      0xffffffffffffffff\n        /* \"#utility.yul\":2975:2981   */\n      dup2\n        /* \"#utility.yul\":2972:3002   */\n      gt\n        /* \"#utility.yul\":2969:3086   */\n      iszero\n      tag_77\n      jumpi\n        /* \"#utility.yul\":3005:3084   */\n      tag_78\n      tag_11\n      jump\t// in\n    tag_78:\n        /* \"#utility.yul\":2969:3086   */\n    tag_77:\n        /* \"#utility.yul\":3110:3184   */\n      tag_79\n        /* \"#utility.yul\":3176:3183   */\n      dup5\n        /* \"#utility.yul\":3167:3173   */\n      dup3\n        /* \"#utility.yul\":3156:3165   */\n      dup6\n        /* \"#utility.yul\":3152:3174   */\n      add\n        /* \"#utility.yul\":3110:3184   */\n      tag_21\n      jump\t// in\n    tag_79:\n        /* \"#utility.yul\":3100:3184   */\n      swap2\n      pop\n        /* \"#utility.yul\":2903:3194   */\n      pop\n        /* \"#utility.yul\":2677:3201   */\n      swap3\n      swap2\n      pop\n      pop\n      jump\t// out\n        /* \"#utility.yul\":3207:3306   */\n    tag_22:\n        /* \"#utility.yul\":3259:3265   */\n      0x00\n        /* \"#utility.yul\":3293:3298   */\n      dup2\n        /* \"#utility.yul\":3287:3299   */\n      mload\n        /* \"#utility.yul\":3277:3299   */\n      swap1\n      pop\n        /* \"#utility.yul\":3207:3306   */\n      swap2\n      swap1\n      pop\n      jump\t// out\n        /* \"#utility.yul\":3312:3492   */\n    tag_23:\n        /* \"#utility.yul\":3360:3437   */\n      0x4e487b7100000000000000000000000000000000000000000000000000000000\n        /* \"#utility.yul\":3357:3358   */\n      0x00\n        /* \"#utility.yul\":3350:3438   */\n      mstore\n        /* \"#utility.yul\":3457:3461   */\n      0x22\n        /* \"#utility.yul\":3454:3455   */\n      0x04\n        /* \"#utility.yul\":3447:3462   */\n      mstore\n        /* \"#utility.yul\":3481:3485   */\n      0x24\n        /* \"#utility.yul\":3478:3479   */\n      0x00\n        /* \"#utility.yul\":3471:3486   */\n      revert\n        /* \"#utility.yul\":3498:3818   */\n    tag_24:\n        /* \"#utility.yul\":3542:3548   */\n      0x00\n        /* \"#utility.yul\":3579:3580   */\n      0x02\n        /* \"#utility.yul\":3573:3577   */\n      dup3\n        /* \"#utility.yul\":3569:3581   */\n      div\n        /* \"#utility.yul\":3559:3581   */\n      swap1\n      pop\n        /* \"#utility.yul\":3626:3627   */\n      0x01\n        /* \"#utility.yul\":3620:3624   */\n      dup3\n        /* \"#utility.yul\":3616:3628   */\n      and\n        /* \"#utility.yul\":3647:3665   */\n      dup1\n        /* \"#utility.yul\":3637:3718   */\n      tag_83\n      jumpi\n        /* \"#utility.yul\":3703:3707   */\n      0x7f\n        /* \"#utility.yul\":3695:3701   */\n      dup3\n        /* \"#utility.yul\":3691:3708   */\n      and\n        /* \"#utility.yul\":3681:3708   */\n      swap2\n      pop\n        /* \"#utility.yul\":3637:3718   */\n    tag_83:\n        /* \"#utility.yul\":3765:3767   */\n      0x20\n        /* \"#utility.yul\":3757:3763   */\n      dup3\n        /* \"#utility.yul\":3754:3768   */\n      lt\n        /* \"#utility.yul\":3734:3752   */\n      dup2\n        /* \"#utility.yul\":3731:3769   */\n      sub\n        /* \"#utility.yul\":3728:3812   */\n      tag_84\n      jumpi\n        /* \"#utility.yul\":3784:3802   */\n      tag_85\n      tag_23\n      jump\t// in\n    tag_85:\n        /* \"#utility.yul\":3728:3812   */\n    tag_84:\n        /* \"#utility.yul\":3549:3818   */\n      pop\n        /* \"#utility.yul\":3498:3818   */\n      swap2\n      swap1\n      pop\n      jump\t// out\n        /* \"#utility.yul\":3824:3965   */\n    tag_25:\n        /* \"#utility.yul\":3873:3877   */\n      0x00\n        /* \"#utility.yul\":3896:3899   */\n      dup2\n        /* \"#utility.yul\":3888:3899   */\n      swap1\n      pop\n        /* \"#utility.yul\":3919:3922   */\n      dup2\n        /* \"#utility.yul\":3916:3917   */\n      0x00\n        /* \"#utility.yul\":3909:3923   */\n      mstore\n        /* \"#utility.yul\":3953:3957   */\n      0x20\n        /* \"#utility.yul\":3950:3951   */\n      0x00\n        /* \"#utility.yul\":3940:3958   */\n      keccak256\n        /* \"#utility.yul\":3932:3958   */\n      swap1\n      pop\n        /* \"#utility.yul\":3824:3965   */\n      swap2\n      swap1\n      pop\n      jump\t// out\n        /* \"#utility.yul\":3971:4064   */\n    tag_26:\n        /* \"#utility.yul\":4008:4014   */\n      0x00\n        /* \"#utility.yul\":4055:4057   */\n      0x20\n        /* \"#utility.yul\":4050:4052   */\n      0x1f\n        /* \"#utility.yul\":4043:4048   */\n      dup4\n        /* \"#utility.yul\":4039:4053   */\n      add\n        /* \"#utility.yul\":4035:4058   */\n      div\n        /* \"#utility.yul\":4025:4058   */\n      swap1\n      pop\n        /* \"#utility.yul\":3971:4064   */\n      swap2\n      swap1\n      pop\n      jump\t// out\n        /* \"#utility.yul\":4070:4177   */\n    tag_27:\n        /* \"#utility.yul\":4114:4122   */\n      0x00\n        /* \"#utility.yul\":4164:4169   */\n      dup3\n        /* \"#utility.yul\":4158:4162   */\n      dup3\n        /* \"#utility.yul\":4154:4170   */\n      shl\n        /* \"#utility.yul\":4133:4170   */\n      swap1\n      pop\n        /* \"#utility.yul\":4070:4177   */\n      swap3\n      swap2\n      pop\n      pop\n      jump\t// out\n        /* \"#utility.yul\":4183:4576   */\n    tag_28:\n        /* \"#utility.yul\":4252:4258   */\n      0x00\n        /* \"#utility.yul\":4302:4303   */\n      0x08\n        /* \"#utility.yul\":4290:4300   */\n      dup4\n        /* \"#utility.yul\":4286:4304   */\n      mul\n        /* \"#utility.yul\":4325:4422   */\n      tag_90\n        /* \"#utility.yul\":4355:4421   */\n      0xffffffffffffffffffffffffffffffffffffffffffffffffffffffffffffffff\n        /* \"#utility.yul\":4344:4353   */\n      dup3\n        /* \"#utility.yul\":4325:4422   */\n      tag_27\n      jump\t// in\n    tag_90:\n        /* \"#utility.yul\":4443:4482   */\n      tag_91\n        /* \"#utility.yul\":4473:4481   */\n      dup7\n        /* \"#utility.yul\":4462:4471   */\n      dup4\n        /* \"#utility.yul\":4443:4482   */\n      tag_27\n      jump\t// in\n    tag_91:\n        /* \"#utility.yul\":4431:4482   */\n      swap6\n      pop\n        /* \"#utility.yul\":4515:4519   */\n      dup1\n        /* \"#utility.yul\":4511:4520   */\n      not\n        /* \"#utility.yul\":4504:4509   */\n      dup5\n        /* \"#utility.yul\":4500:4521   */\n      and\n        /* \"#utility.yul\":4491:4521   */\n      swap4\n      pop\n        /* \"#utility.yul\":4564:4568   */\n      dup1\n        /* \"#utility.yul\":4554:4562   */\n      dup7\n        /* \"#utility.yul\":4550:4569   */\n      and\n        /* \"#utility.yul\":4543:4548   */\n      dup5\n        /* \"#utility.yul\":4540:4570   */\n      or\n        /* \"#utility.yul\":4530:4570   */\n      swap3\n      pop\n        /* \"#utility.yul\":4259:4576   */\n      pop\n      pop\n        /* \"#utility.yul\":4183:4576   */\n      swap4\n      swap3\n      pop\n      pop\n      pop\n      jump\t// out\n        /* \"#utility.yul\":4582:4659   */\n    tag_29:\n        /* \"#utility.yul\":4619:4626   */\n      0x00\n        /* \"#utility.yul\":4648:4653   */\n      dup2\n        /* \"#utility.yul\":4637:4653   */\n      swap1\n      pop\n        /* \"#utility.yul\":4582:4659   */\n      swap2\n      swap1\n      pop\n      jump\t// out\n        /* \"#utility.yul\":4665:4725   */\n    tag_30:\n        /* \"#utility.yul\":4693:4696   */\n      0x00\n        /* \"#utility.yul\":4714:4719   */\n      dup2\n        /* \"#utility.yul\":4707:4719   */\n      swap1\n      pop\n        /* \"#utility.yul\":4665:4725   */\n      swap2\n      swap1\n      pop\n      jump\t// out\n        /* \"#utility.yul\":4731:4873   */\n    tag_31:\n        /* \"#utility.yul\":4781:4790   */\n      0x00\n        /* \"#utility.yul\":4814:4867   */\n      tag_95\n        /* \"#utility.yul\":4832:4866   */\n      tag_96\n        /* \"#utility.yul\":4841:4865   */\n      tag_97\n        /* \"#utility.yul\":4859:4864   */\n      dup5\n        /* \"#utility.yul\":4841:4865   */\n      tag_29\n      jump\t// in\n    tag_97:\n        /* \"#utility.yul\":4832:4866   */\n      tag_30\n      jump\t// in\n    tag_96:\n        /* \"#utility.yul\":4814:4867   */\n      tag_29\n      jump\t// in\n    tag_95:\n        /* \"#utility.yul\":4801:4867   */\n      swap1\n      pop\n        /* \"#utility.yul\":4731:4873   */\n      swap2\n      swap1\n      pop\n      jump\t// out\n        /* \"#utility.yul\":4879:4954   */\n    tag_32:\n        /* \"#utility.yul\":4922:4925   */\n      0x00\n        /* \"#utility.yul\":4943:4948   */\n      dup2\n        /* \"#utility.yul\":4936:4948   */\n      swap1\n      pop\n        /* \"#utility.yul\":4879:4954   */\n      swap2\n      swap1\n      pop\n      jump\t// out\n        /* \"#utility.yul\":4960:5229   */\n    tag_33:\n        /* \"#utility.yul\":5070:5109   */\n      tag_100\n        /* \"#utility.yul\":5101:5108   */\n      dup4\n        /* \"#utility.yul\":5070:5109   */\n      tag_31\n      jump\t// in\n    tag_100:\n        /* \"#utility.yul\":5131:5222   */\n      tag_101\n        /* \"#utility.yul\":5180:5221   */\n      tag_102\n        /* \"#utility.yul\":5204:5220   */\n      dup3\n        /* \"#utility.yul\":5180:5221   */\n      tag_32\n      jump\t// in\n    tag_102:\n        /* \"#utility.yul\":5172:5178   */\n      dup5\n        /* \"#utility.yul\":5165:5169   */\n      dup5\n        /* \"#utility.yul\":5159:5170   */\n      sload\n        /* \"#utility.yul\":5131:5222   */\n      tag_28\n      jump\t// in\n    tag_101:\n        /* \"#utility.yul\":5125:5129   */\n      dup3\n        /* \"#utility.yul\":5118:5223   */\n      sstore\n        /* \"#utility.yul\":5036:5229   */\n      pop\n        /* \"#utility.yul\":4960:5229   */\n      pop\n      pop\n      pop\n      jump\t// out\n        /* \"#utility.yul\":5235:5308   */\n    tag_34:\n        /* \"#utility.yul\":5280:5283   */\n      0x00\n        /* \"#utility.yul\":5235:5308   */\n      swap1\n      jump\t// out\n        /* \"#utility.yul\":5314:5503   */\n    tag_35:\n        /* \"#utility.yul\":5391:5423   */\n      tag_105\n      tag_34\n      jump\t// in\n    tag_105:\n        /* \"#utility.yul\":5432:5497   */\n      tag_106\n        /* \"#utility.yul\":5490:5496   */\n      dup2\n        /* \"#utility.yul\":5482:5488   */\n      dup5\n        /* \"#utility.yul\":5476:5480   */\n      dup5\n        /* \"#utility.yul\":5432:5497   */\n      tag_33\n      jump\t// in\n    tag_106:\n        /* \"#utility.yul\":5367:5503   */\n      pop\n        /* \"#utility.yul\":5314:5503   */\n      pop\n      pop\n      jump\t// out\n        /* \"#utility.yul\":5509:5695   */\n    tag_36:\n        /* \"#utility.yul\":5569:5689   */\n    tag_108:\n        /* \"#utility.yul\":5586:5589   */\n      dup2\n        /* \"#utility.yul\":5579:5584   */\n      dup2\n        /* \"#utility.yul\":5576:5590   */\n      lt\n        /* \"#utility.yul\":5569:5689   */\n      iszero\n      tag_110\n      jumpi\n        /* \"#utility.yul\":5640:5679   */\n      tag_111\n        /* \"#utility.yul\":5677:5678   */\n      0x00\n        /* \"#utility.yul\":5670:5675   */\n      dup3\n        /* \"#utility.yul\":5640:5679   */\n      tag_35\n      jump\t// in\n    tag_111:\n        /* \"#utility.yul\":5613:5614   */\n      0x01\n        /* \"#utility.yul\":5606:5611   */\n      dup2\n        /* \"#utility.yul\":5602:5615   */\n      add\n        /* \"#utility.yul\":5593:5615   */\n      swap1\n      pop\n        /* \"#utility.yul\":5569:5689   */\n      jump(tag_108)\n    tag_110:\n        /* \"#utility.yul\":5509:5695   */\n      pop\n      pop\n      jump\t// out\n        /* \"#utility.yul\":5701:6244   */\n    tag_37:\n        /* \"#utility.yul\":5802:5804   */\n      0x1f\n        /* \"#utility.yul\":5797:5800   */\n      dup3\n        /* \"#utility.yul\":5794:5805   */\n      gt\n        /* \"#utility.yul\":5791:6237   */\n      iszero\n      tag_113\n      jumpi\n        /* \"#utility.yul\":5836:5874   */\n      tag_114\n        /* \"#utility.yul\":5868:5873   */\n      dup2\n        /* \"#utility.yul\":5836:5874   */\n      tag_25\n      jump\t// in\n    tag_114:\n        /* \"#utility.yul\":5920:5949   */\n      tag_115\n        /* \"#utility.yul\":5938:5948   */\n      dup5\n        /* \"#utility.yul\":5920:5949   */\n      tag_26\n      jump\t// in\n    tag_115:\n        /* \"#utility.yul\":5910:5918   */\n      dup2\n        /* \"#utility.yul\":5906:5950   */\n      add\n        /* \"#utility.yul\":6103:6105   */\n      0x20\n        /* \"#utility.yul\":6091:6101   */\n      dup6\n        /* \"#utility.yul\":6088:6106   */\n      lt\n        /* \"#utility.yul\":6085:6134   */\n      iszero\n      tag_116\n      jumpi\n        /* \"#utility.yul\":6124:6132   */\n      dup2\n        /* \"#utility.yul\":6109:6132   */\n      swap1\n      pop\n        /* \"#utility.yul\":6085:6134   */\n    tag_116:\n        /* \"#utility.yul\":6147:6227   */\n      tag_117\n        /* \"#utility.yul\":6203:6225   */\n      tag_118\n        /* \"#utility.yul\":6221:6224   */\n      dup6\n        /* \"#utility.yul\":6203:6225   */\n      tag_26\n      jump\t// in\n    tag_118:\n        /* \"#utility.yul\":6193:6201   */\n      dup4\n        /* \"#utility.yul\":6189:6226   */\n      add\n        /* \"#utility.yul\":6176:6187   */\n      dup3\n        /* \"#utility.yul\":6147:6227   */\n      tag_36\n      jump\t// in\n    tag_117:\n        /* \"#utility.yul\":5806:6237   */\n      pop\n      pop\n        /* \"#utility.yul\":5791:6237   */\n    tag_113:\n        /* \"#utility.yul\":5701:6244   */\n      pop\n      pop\n      pop\n      jump\t// out\n        /* \"#utility.yul\":6250:6367   */\n    tag_38:\n        /* \"#utility.yul\":6304:6312   */\n      0x00\n        /* \"#utility.yul\":6354:6359   */\n      dup3\n        /* \"#utility.yul\":6348:6352   */\n      dup3\n        /* \"#utility.yul\":6344:6360   */\n      shr\n        /* \"#utility.yul\":6323:6360   */\n      swap1\n      pop\n        /* \"#utility.yul\":6250:6367   */\n      swap3\n      swap2\n      pop\n      pop\n      jump\t// out\n        /* \"#utility.yul\":6373:6542   */\n    tag_39:\n        /* \"#utility.yul\":6417:6423   */\n      0x00\n        /* \"#utility.yul\":6450:6501   */\n      tag_121\n        /* \"#utility.yul\":6498:6499   */\n      0x00\n        /* \"#utility.yul\":6494:6500   */\n      not\n        /* \"#utility.yul\":6486:6491   */\n      dup5\n        /* \"#utility.yul\":6483:6484   */\n      0x08\n        /* \"#utility.yul\":6479:6492   */\n      mul\n        /* \"#utility.yul\":6450:6501   */\n      tag_38\n      jump\t// in\n    tag_121:\n        /* \"#utility.yul\":6446:6502   */\n      not\n        /* \"#utility.yul\":6531:6535   */\n      dup1\n        /* \"#utility.yul\":6525:6529   */\n      dup4\n        /* \"#utility.yul\":6521:6536   */\n      and\n        /* \"#utility.yul\":6511:6536   */\n      swap2\n      pop\n        /* \"#utility.yul\":6424:6542   */\n      pop\n        /* \"#utility.yul\":6373:6542   */\n      swap3\n      swap2\n      pop\n      pop\n      jump\t// out\n        /* \"#utility.yul\":6547:6842   */\n    tag_40:\n        /* \"#utility.yul\":6623:6627   */\n      0x00\n        /* \"#utility.yul\":6769:6798   */\n      tag_123\n        /* \"#utility.yul\":6794:6797   */\n      dup4\n        /* \"#utility.yul\":6788:6792   */\n      dup4\n        /* \"#utility.yul\":6769:6798   */\n      tag_39\n      jump\t// in\n    tag_123:\n        /* \"#utility.yul\":6761:6798   */\n      swap2\n      pop\n        /* \"#utility.yul\":6831:6834   */\n      dup3\n        /* \"#utility.yul\":6828:6829   */\n      0x02\n        /* \"#utility.yul\":6824:6835   */\n      mul\n        /* \"#utility.yul\":6818:6822   */\n      dup3\n        /* \"#utility.yul\":6815:6836   */\n      or\n        /* \"#utility.yul\":6807:6836   */\n      swap1\n      pop\n        /* \"#utility.yul\":6547:6842   */\n      swap3\n      swap2\n      pop\n      pop\n      jump\t// out\n        /* \"#utility.yul\":6847:8242   */\n    tag_7:\n        /* \"#utility.yul\":6964:7001   */\n      tag_125\n        /* \"#utility.yul\":6997:7000   */\n      dup3\n        /* \"#utility.yul\":6964:7001   */\n      tag_22\n      jump\t// in\n    tag_125:\n        /* \"#utility.yul\":7066:7084   */\n      0xffffffffffffffff\n        /* \"#utility.yul\":7058:7064   */\n      dup2\n        /* \"#utility.yul\":7055:7085   */\n      gt\n        /* \"#utility.yul\":7052:7108   */\n      iszero\n      tag_126\n      jumpi\n        /* \"#utility.yul\":7088:7106   */\n      tag_127\n      tag_15\n      jump\t// in\n    tag_127:\n        /* \"#utility.yul\":7052:7108   */\n    tag_126:\n        /* \"#utility.yul\":7132:7170   */\n      tag_128\n        /* \"#utility.yul\":7164:7168   */\n      dup3\n        /* \"#utility.yul\":7158:7169   */\n      sload\n        /* \"#utility.yul\":7132:7170   */\n      tag_24\n      jump\t// in\n    tag_128:\n        /* \"#utility.yul\":7217:7284   */\n      tag_129\n        /* \"#utility.yul\":7277:7283   */\n      dup3\n        /* \"#utility.yul\":7269:7275   */\n      dup3\n        /* \"#utility.yul\":7263:7267   */\n      dup6\n        /* \"#utility.yul\":7217:7284   */\n      tag_37\n      jump\t// in\n    tag_129:\n        /* \"#utility.yul\":7311:7312   */\n      0x00\n        /* \"#utility.yul\":7335:7339   */\n      0x20\n        /* \"#utility.yul\":7322:7339   */\n      swap1\n      pop\n        /* \"#utility.yul\":7367:7369   */\n      0x1f\n        /* \"#utility.yul\":7359:7365   */\n      dup4\n        /* \"#utility.yul\":7356:7370   */\n      gt\n        /* \"#utility.yul\":7384:7385   */\n      0x01\n        /* \"#utility.yul\":7379:7997   */\n      dup2\n      eq\n      tag_131\n      jumpi\n        /* \"#utility.yul\":8041:8042   */\n      0x00\n        /* \"#utility.yul\":8058:8064   */\n      dup5\n        /* \"#utility.yul\":8055:8132   */\n      iszero\n      tag_132\n      jumpi\n        /* \"#utility.yul\":8107:8116   */\n      dup3\n        /* \"#utility.yul\":8102:8105   */\n      dup8\n        /* \"#utility.yul\":8098:8117   */\n      add\n        /* \"#utility.yul\":8092:8118   */\n      mload\n        /* \"#utility.yul\":8083:8118   */\n      swap1\n      pop\n        /* \"#utility.yul\":8055:8132   */\n    tag_132:\n        /* \"#utility.yul\":8158:8225   */\n      tag_133\n        /* \"#utility.yul\":8218:8224   */\n      dup6\n        /* \"#utility.yul\":8211:8216   */\n      dup3\n        /* \"#utility.yul\":8158:8225   */\n      tag_40\n      jump\t// in\n    tag_133:\n        /* \"#utility.yul\":8152:8156   */\n      dup7\n        /* \"#utility.yul\":8145:8226   */\n      sstore\n        /* \"#utility.yul\":8014:8236   */\n      pop\n        /* \"#utility.yul\":7349:8236   */\n      jump(tag_130)\n        /* \"#utility.yul\":7379:7997   */\n    tag_131:\n        /* \"#utility.yul\":7431:7435   */\n      0x1f\n        /* \"#utility.yul\":7427:7436   */\n      not\n        /* \"#utility.yul\":7419:7425   */\n      dup5\n        /* \"#utility.yul\":7415:7437   */\n      and\n        /* \"#utility.yul\":7465:7502   */\n      tag_134\n        /* \"#utility.yul\":7497:7501   */\n      dup7\n        /* \"#utility.yul\":7465:7502   */\n      tag_25\n      jump\t// in\n    tag_134:\n        /* \"#utility.yul\":7524:7525   */\n      0x00\n        /* \"#utility.yul\":7538:7746   */\n    tag_135:\n        /* \"#utility.yul\":7552:7559   */\n      dup3\n        /* \"#utility.yul\":7549:7550   */\n      dup2\n        /* \"#utility.yul\":7546:7560   */\n      lt\n        /* \"#utility.yul\":7538:7746   */\n      iszero\n      tag_137\n      jumpi\n        /* \"#utility.yul\":7631:7640   */\n      dup5\n        /* \"#utility.yul\":7626:7629   */\n      dup10\n        /* \"#utility.yul\":7622:7641   */\n      add\n        /* \"#utility.yul\":7616:7642   */\n      mload\n        /* \"#utility.yul\":7608:7614   */\n      dup3\n        /* \"#utility.yul\":7601:7643   */\n      sstore\n        /* \"#utility.yul\":7682:7683   */\n      0x01\n        /* \"#utility.yul\":7674:7680   */\n      dup3\n        /* \"#utility.yul\":7670:7684   */\n      add\n        /* \"#utility.yul\":7660:7684   */\n      swap2\n      pop\n        /* \"#utility.yul\":7729:7731   */\n      0x20\n        /* \"#utility.yul\":7718:7727   */\n      dup6\n        /* \"#utility.yul\":7714:7732   */\n      add\n        /* \"#utility.yul\":7701:7732   */\n      swap5\n      pop\n        /* \"#utility.yul\":7575:7579   */\n      0x20\n        /* \"#utility.yul\":7572:7573   */\n      dup2\n        /* \"#utility.yul\":7568:7580   */\n      add\n        /* \"#utility.yul\":7563:7580   */\n      swap1\n      pop\n        /* \"#utility.yul\":7538:7746   */\n      jump(tag_135)\n    tag_137:\n        /* \"#utility.yul\":7774:7780   */\n      dup7\n        /* \"#utility.yul\":7765:7772   */\n      dup4\n        /* \"#utility.yul\":7762:7781   */\n      lt\n        /* \"#utility.yul\":7759:7938   */\n      iszero\n      tag_138\n      jumpi\n        /* \"#utility.yul\":7832:7841   */\n      dup5\n        /* \"#utility.yul\":7827:7830   */\n      dup10\n        /* \"#utility.yul\":7823:7842   */\n      add\n        /* \"#utility.yul\":7817:7843   */\n      mload\n        /* \"#utility.yul\":7875:7923   */\n      tag_139\n        /* \"#utility.yul\":7917:7921   */\n      0x1f\n        /* \"#utility.yul\":7909:7915   */\n      dup10\n        /* \"#utility.yul\":7905:7922   */\n      and\n        /* \"#utility.yul\":7894:7903   */\n      dup3\n        /* \"#utility.yul\":7875:7923   */\n      tag_39\n      jump\t// in\n    tag_139:\n        /* \"#utility.yul\":7867:7873   */\n      dup4\n        /* \"#utility.yul\":7860:7924   */\n      sstore\n        /* \"#utility.yul\":7782:7938   */\n      pop\n        /* \"#utility.yul\":7759:7938   */\n    tag_138:\n        /* \"#utility.yul\":7984:7985   */\n      0x01\n        /* \"#utility.yul\":7980:7981   */\n      0x02\n        /* \"#utility.yul\":7972:7978   */\n      dup9\n        /* \"#utility.yul\":7968:7982   */\n      mul\n        /* \"#utility.yul\":7964:7986   */\n      add\n        /* \"#utility.yul\":7958:7962   */\n      dup9\n        /* \"#utility.yul\":7951:7987   */\n      sstore\n        /* \"#utility.yul\":7386:7997   */\n      pop\n      pop\n      pop\n        /* \"#utility.yul\":7349:8236   */\n    tag_130:\n      pop\n        /* \"#utility.yul\":6939:8242   */\n      pop\n      pop\n      pop\n        /* \"#utility.yul\":6847:8242   */\n      pop\n      pop\n      jump\t// out\n        /* \"chapter6/Ex6_4.sol\":72:278  contract Monitor {... */\n    tag_8:\n      dataSize(sub_0)\n      dup1\n      dataOffset(sub_0)\n      0x00\n      codecopy\n      0x00\n      return\n    stop\n\n    sub_0: assembly {\n            /* \"chapter6/Ex6_4.sol\":72:278  contract Monitor {... */\n          mstore(0x40, 0x80)\n          callvalue\n          dup1\n          iszero\n          tag_1\n          jumpi\n          0x00\n          dup1\n          revert\n        tag_1:\n          pop\n          jumpi(tag_2, lt(calldatasize, 0x04))\n          shr(0xe0, calldataload(0x00))\n          dup1\n          0x06fdde03\n          eq\n          tag_3\n          jumpi\n          dup1\n          0xcc80f6f3\n          eq\n          tag_4\n          jumpi\n        tag_2:\n          0x00\n          dup1\n          revert\n            /* \"chapter6/Ex6_4.sol\":96:114  string public name */\n        tag_3:\n          tag_5\n          tag_6\n          jump\t// in\n        tag_5:\n          mload(0x40)\n          tag_7\n          swap2\n          swap1\n          tag_8\n          jump\t// in\n        tag_7:\n          mload(0x40)\n          dup1\n          swap2\n          sub\n          swap1\n          return\n            /* \"chapter6/Ex6_4.sol\":191:275  function show() public pure returns (string memory) {... */\n        tag_4:\n          tag_9\n          tag_10\n          jump\t// in\n        tag_9:\n          mload(0x40)\n          tag_11\n          swap2\n          swap1\n          tag_8\n          jump\t// in\n        tag_11:\n          mload(0x40)\n          dup1\n          swap2\n          sub\n          swap1\n          return\n            /* \"chapter6/Ex6_4.sol\":96:114  string public name */\n        tag_6:\n          0x00\n          dup1\n          sload\n          tag_12\n          swap1\n          tag_13\n          jump\t// in\n        tag_12:\n          dup1\n          0x1f\n          add\n          0x20\n          dup1\n          swap2\n          div\n          mul\n          0x20\n          add\n          mload(0x40)\n          swap1\n          dup2\n          add\n          0x40\n          mstore\n          dup1\n          swap3\n          swap2\n          swap1\n          dup2\n          dup2\n          mstore\n          0x20\n          add\n          dup3\n          dup1\n          sload\n          tag_14\n          swap1\n          tag_13\n          jump\t// in\n        tag_14:\n          dup1\n          iszero\n          tag_15\n          jumpi\n          dup1\n          0x1f\n          lt\n          tag_16\n          jumpi\n          0x0100\n          dup1\n          dup4\n          sload\n          div\n          mul\n          dup4\n          mstore\n          swap2\n          0x20\n          add\n          swap2\n          jump(tag_15)\n        tag_16:\n          dup3\n          add\n          swap2\n          swap1\n          0x00\n          mstore\n          keccak256(0x00, 0x20)\n          swap1\n        tag_17:\n          dup2\n          sload\n          dup2\n          mstore\n          swap1\n          0x01\n          add\n          swap1\n          0x20\n          add\n          dup1\n          dup4\n          gt\n          tag_17\n          jumpi\n          dup3\n          swap1\n          sub\n          0x1f\n          and\n          dup3\n          add\n          swap2\n        tag_15:\n          pop\n          pop\n          pop\n          pop\n          pop\n          dup2\n          jump\t// out\n            /* \"chapter6/Ex6_4.sol\":191:275  function show() public pure returns (string memory) {... */\n        tag_10:\n            /* \"chapter6/Ex6_4.sol\":228:241  string memory */\n          0x60\n            /* \"chapter6/Ex6_4.sol\":254:267  return \"show\" */\n          mload(0x40)\n          dup1\n          0x40\n          add\n          0x40\n          mstore\n          dup1\n          0x04\n          dup2\n          mstore\n          0x20\n          add\n          0x73686f7700000000000000000000000000000000000000000000000000000000\n          dup2\n          mstore\n          pop\n          swap1\n          pop\n            /* \"chapter6/Ex6_4.sol\":191:275  function show() public pure returns (string memory) {... */\n          swap1\n          jump\t// out\n            /* \"#utility.yul\":7:106   */\n        tag_19:\n            /* \"#utility.yul\":59:65   */\n          0x00\n            /* \"#utility.yul\":93:98   */\n          dup2\n            /* \"#utility.yul\":87:99   */\n          mload\n            /* \"#utility.yul\":77:99   */\n          swap1\n          pop\n            /* \"#utility.yul\":7:106   */\n          swap2\n          swap1\n          pop\n          jump\t// out\n            /* \"#utility.yul\":112:281   */\n        tag_20:\n            /* \"#utility.yul\":196:207   */\n          0x00\n            /* \"#utility.yul\":230:236   */\n          dup3\n            /* \"#utility.yul\":225:228   */\n          dup3\n            /* \"#utility.yul\":218:237   */\n          mstore\n            /* \"#utility.yul\":270:274   */\n          0x20\n            /* \"#utility.yul\":265:268   */\n          dup3\n            /* \"#utility.yul\":261:275   */\n          add\n            /* \"#utility.yul\":246:275   */\n          swap1\n          pop\n            /* \"#utility.yul\":112:281   */\n          swap3\n          swap2\n          pop\n          pop\n          jump\t// out\n            /* \"#utility.yul\":287:533   */\n        tag_21:\n            /* \"#utility.yul\":368:369   */\n          0x00\n            /* \"#utility.yul\":378:491   */\n        tag_29:\n            /* \"#utility.yul\":392:398   */\n          dup4\n            /* \"#utility.yul\":389:390   */\n          dup2\n            /* \"#utility.yul\":386:399   */\n          lt\n            /* \"#utility.yul\":378:491   */\n          iszero\n          tag_31\n          jumpi\n            /* \"#utility.yul\":477:478   */\n          dup1\n            /* \"#utility.yul\":472:475   */\n          dup3\n            /* \"#utility.yul\":468:479   */\n          add\n            /* \"#utility.yul\":462:480   */\n          mload\n            /* \"#utility.yul\":458:459   */\n          dup2\n            /* \"#utility.yul\":453:456   */\n          dup5\n            /* \"#utility.yul\":449:460   */\n          add\n            /* \"#utility.yul\":442:481   */\n          mstore\n            /* \"#utility.yul\":414:416   */\n          0x20\n            /* \"#utility.yul\":411:412   */\n          dup2\n            /* \"#utility.yul\":407:417   */\n          add\n            /* \"#utility.yul\":402:417   */\n          swap1\n          pop\n            /* \"#utility.yul\":378:491   */\n          jump(tag_29)\n        tag_31:\n            /* \"#utility.yul\":525:526   */\n          0x00\n            /* \"#utility.yul\":516:522   */\n          dup5\n            /* \"#utility.yul\":511:514   */\n          dup5\n            /* \"#utility.yul\":507:523   */\n          add\n            /* \"#utility.yul\":500:527   */\n          mstore\n            /* \"#utility.yul\":349:533   */\n          pop\n            /* \"#utility.yul\":287:533   */\n          pop\n          pop\n          pop\n          jump\t// out\n            /* \"#utility.yul\":539:641   */\n        tag_22:\n            /* \"#utility.yul\":580:586   */\n          0x00\n            /* \"#utility.yul\":631:633   */\n          0x1f\n            /* \"#utility.yul\":627:634   */\n          not\n            /* \"#utility.yul\":622:624   */\n          0x1f\n            /* \"#utility.yul\":615:620   */\n          dup4\n            /* \"#utility.yul\":611:625   */\n          add\n            /* \"#utility.yul\":607:635   */\n          and\n            /* \"#utility.yul\":597:635   */\n          swap1\n          pop\n            /* \"#utility.yul\":539:641   */\n          swap2\n          swap1\n          pop\n          jump\t// out\n            /* \"#utility.yul\":647:1024   */\n        tag_23:\n            /* \"#utility.yul\":735:738   */\n          0x00\n            /* \"#utility.yul\":763:802   */\n          tag_34\n            /* \"#utility.yul\":796:801   */\n          dup3\n            /* \"#utility.yul\":763:802   */\n          tag_19\n          jump\t// in\n        tag_34:\n            /* \"#utility.yul\":818:889   */\n          tag_35\n            /* \"#utility.yul\":882:888   */\n          dup2\n            /* \"#utility.yul\":877:880   */\n          dup6\n            /* \"#utility.yul\":818:889   */\n          tag_20\n          jump\t// in\n        tag_35:\n            /* \"#utility.yul\":811:889   */\n          swap4\n          pop\n            /* \"#utility.yul\":898:963   */\n          tag_36\n            /* \"#utility.yul\":956:962   */\n          dup2\n            /* \"#utility.yul\":951:954   */\n          dup6\n            /* \"#utility.yul\":944:948   */\n          0x20\n            /* \"#utility.yul\":937:942   */\n          dup7\n            /* \"#utility.yul\":933:949   */\n          add\n            /* \"#utility.yul\":898:963   */\n          tag_21\n          jump\t// in\n        tag_36:\n            /* \"#utility.yul\":988:1017   */\n          tag_37\n            /* \"#utility.yul\":1010:1016   */\n          dup2\n            /* \"#utility.yul\":988:1017   */\n          tag_22\n          jump\t// in\n        tag_37:\n            /* \"#utility.yul\":983:986   */\n          dup5\n            /* \"#utility.yul\":979:1018   */\n          add\n            /* \"#utility.yul\":972:1018   */\n          swap2\n          pop\n            /* \"#utility.yul\":739:1024   */\n          pop\n            /* \"#utility.yul\":647:1024   */\n          swap3\n          swap2\n          pop\n          pop\n          jump\t// out\n            /* \"#utility.yul\":1030:1343   */\n        tag_8:\n            /* \"#utility.yul\":1143:1147   */\n          0x00\n            /* \"#utility.yul\":1181:1183   */\n          0x20\n            /* \"#utility.yul\":1170:1179   */\n          dup3\n            /* \"#utility.yul\":1166:1184   */\n          add\n            /* \"#utility.yul\":1158:1184   */\n          swap1\n          pop\n            /* \"#utility.yul\":1230:1239   */\n          dup2\n            /* \"#utility.yul\":1224:1228   */\n          dup2\n            /* \"#utility.yul\":1220:1240   */\n          sub\n            /* \"#utility.yul\":1216:1217   */\n          0x00\n            /* \"#utility.yul\":1205:1214   */\n          dup4\n            /* \"#utility.yul\":1201:1218   */\n          add\n            /* \"#utility.yul\":1194:1241   */\n          mstore\n            /* \"#utility.yul\":1258:1336   */\n          tag_39\n            /* \"#utility.yul\":1331:1335   */\n          dup2\n            /* \"#utility.yul\":1322:1328   */\n          dup5\n            /* \"#utility.yul\":1258:1336   */\n          tag_23\n          jump\t// in\n        tag_39:\n            /* \"#utility.yul\":1250:1336   */\n          swap1\n          pop\n            /* \"#utility.yul\":1030:1343   */\n          swap3\n          swap2\n          pop\n          pop\n          jump\t// out\n            /* \"#utility.yul\":1349:1529   */\n        tag_24:\n            /* \"#utility.yul\":1397:1474   */\n          0x4e487b7100000000000000000000000000000000000000000000000000000000\n            /* \"#utility.yul\":1394:1395   */\n          0x00\n            /* \"#utility.yul\":1387:1475   */\n          mstore\n            /* \"#utility.yul\":1494:1498   */\n          0x22\n            /* \"#utility.yul\":1491:1492   */\n          0x04\n            /* \"#utility.yul\":1484:1499   */\n          mstore\n            /* \"#utility.yul\":1518:1522   */\n          0x24\n            /* \"#utility.yul\":1515:1516   */\n          0x00\n            /* \"#utility.yul\":1508:1523   */\n          revert\n            /* \"#utility.yul\":1535:1855   */\n        tag_13:\n            /* \"#utility.yul\":1579:1585   */\n          0x00\n            /* \"#utility.yul\":1616:1617   */\n          0x02\n            /* \"#utility.yul\":1610:1614   */\n          dup3\n            /* \"#utility.yul\":1606:1618   */\n          div\n            /* \"#utility.yul\":1596:1618   */\n          swap1\n          pop\n            /* \"#utility.yul\":1663:1664   */\n          0x01\n            /* \"#utility.yul\":1657:1661   */\n          dup3\n            /* \"#utility.yul\":1653:1665   */\n          and\n            /* \"#utility.yul\":1684:1702   */\n          dup1\n            /* \"#utility.yul\":1674:1755   */\n          tag_42\n          jumpi\n            /* \"#utility.yul\":1740:1744   */\n          0x7f\n            /* \"#utility.yul\":1732:1738   */\n          dup3\n            /* \"#utility.yul\":1728:1745   */\n          and\n            /* \"#utility.yul\":1718:1745   */\n          swap2\n          pop\n            /* \"#utility.yul\":1674:1755   */\n        tag_42:\n            /* \"#utility.yul\":1802:1804   */\n          0x20\n            /* \"#utility.yul\":1794:1800   */\n          dup3\n            /* \"#utility.yul\":1791:1805   */\n          lt\n            /* \"#utility.yul\":1771:1789   */\n          dup2\n            /* \"#utility.yul\":1768:1806   */\n          sub\n            /* \"#utility.yul\":1765:1849   */\n          tag_43\n          jumpi\n            /* \"#utility.yul\":1821:1839   */\n          tag_44\n          tag_24\n          jump\t// in\n        tag_44:\n            /* \"#utility.yul\":1765:1849   */\n        tag_43:\n            /* \"#utility.yul\":1586:1855   */\n          pop\n            /* \"#utility.yul\":1535:1855   */\n          swap2\n          swap1\n          pop\n          jump\t// out\n\n        auxdata: 0xa2646970667358221220ad342dd3e41369f3318a8803a61bcf4243f3807a8dc70ce147c8540797d8e59264736f6c63430008170033\n    }\n}\n\nsub_2: assembly {\n        /* \"chapter6/Ex6_4.sol\":282:430  contract System {... */\n      mstore(0x40, 0x80)\n        /* \"chapter6/Ex6_4.sol\":305:332  string public name = \"XG12\" */\n      mload(0x40)\n      dup1\n      0x40\n      add\n      0x40\n      mstore\n      dup1\n      0x04\n      dup2\n      mstore\n      0x20\n      add\n      0x5847313200000000000000000000000000000000000000000000000000000000\n      dup2\n      mstore\n      pop\n      0x00\n      swap1\n      dup2\n      tag_1\n      swap2\n      swap1\n      tag_2\n      jump\t// in\n    tag_1:\n      pop\n        /* \"chapter6/Ex6_4.sol\":282:430  contract System {... */\n      callvalue\n      dup1\n      iszero\n      tag_3\n      jumpi\n      0x00\n      dup1\n      revert\n    tag_3:\n      pop\n      jump(tag_4)\n        /* \"#utility.yul\":7:106   */\n    tag_5:\n        /* \"#utility.yul\":59:65   */\n      0x00\n        /* \"#utility.yul\":93:98   */\n      dup2\n        /* \"#utility.yul\":87:99   */\n      mload\n        /* \"#utility.yul\":77:99   */\n      swap1\n      pop\n        /* \"#utility.yul\":7:106   */\n      swap2\n      swap1\n      pop\n      jump\t// out\n        /* \"#utility.yul\":112:292   */\n    tag_6:\n        /* \"#utility.yul\":160:237   */\n      0x4e487b7100000000000000000000000000000000000000000000000000000000\n        /* \"#utility.yul\":157:158   */\n      0x00\n        /* \"#utility.yul\":150:238   */\n      mstore\n        /* \"#utility.yul\":257:261   */\n      0x41\n        /* \"#utility.yul\":254:255   */\n      0x04\n        /* \"#utility.yul\":247:262   */\n      mstore\n        /* \"#utility.yul\":281:285   */\n      0x24\n        /* \"#utility.yul\":278:279   */\n      0x00\n        /* \"#utility.yul\":271:286   */\n      revert\n        /* \"#utility.yul\":298:478   */\n    tag_7:\n        /* \"#utility.yul\":346:423   */\n      0x4e487b7100000000000000000000000000000000000000000000000000000000\n        /* \"#utility.yul\":343:344   */\n      0x00\n        /* \"#utility.yul\":336:424   */\n      mstore\n        /* \"#utility.yul\":443:447   */\n      0x22\n        /* \"#utility.yul\":440:441   */\n      0x04\n        /* \"#utility.yul\":433:448   */\n      mstore\n        /* \"#utility.yul\":467:471   */\n      0x24\n        /* \"#utility.yul\":464:465   */\n      0x00\n        /* \"#utility.yul\":457:472   */\n      revert\n        /* \"#utility.yul\":484:804   */\n    tag_8:\n        /* \"#utility.yul\":528:534   */\n      0x00\n        /* \"#utility.yul\":565:566   */\n      0x02\n        /* \"#utility.yul\":559:563   */\n      dup3\n        /* \"#utility.yul\":555:567   */\n      div\n        /* \"#utility.yul\":545:567   */\n      swap1\n      pop\n        /* \"#utility.yul\":612:613   */\n      0x01\n        /* \"#utility.yul\":606:610   */\n      dup3\n        /* \"#utility.yul\":602:614   */\n      and\n        /* \"#utility.yul\":633:651   */\n      dup1\n        /* \"#utility.yul\":623:704   */\n      tag_30\n      jumpi\n        /* \"#utility.yul\":689:693   */\n      0x7f\n        /* \"#utility.yul\":681:687   */\n      dup3\n        /* \"#utility.yul\":677:694   */\n      and\n        /* \"#utility.yul\":667:694   */\n      swap2\n      pop\n        /* \"#utility.yul\":623:704   */\n    tag_30:\n        /* \"#utility.yul\":751:753   */\n      0x20\n        /* \"#utility.yul\":743:749   */\n      dup3\n        /* \"#utility.yul\":740:754   */\n      lt\n        /* \"#utility.yul\":720:738   */\n      dup2\n        /* \"#utility.yul\":717:755   */\n      sub\n        /* \"#utility.yul\":714:798   */\n      tag_31\n      jumpi\n        /* \"#utility.yul\":770:788   */\n      tag_32\n      tag_7\n      jump\t// in\n    tag_32:\n        /* \"#utility.yul\":714:798   */\n    tag_31:\n        /* \"#utility.yul\":535:804   */\n      pop\n        /* \"#utility.yul\":484:804   */\n      swap2\n      swap1\n      pop\n      jump\t// out\n        /* \"#utility.yul\":810:951   */\n    tag_9:\n        /* \"#utility.yul\":859:863   */\n      0x00\n        /* \"#utility.yul\":882:885   */\n      dup2\n        /* \"#utility.yul\":874:885   */\n      swap1\n      pop\n        /* \"#utility.yul\":905:908   */\n      dup2\n        /* \"#utility.yul\":902:903   */\n      0x00\n        /* \"#utility.yul\":895:909   */\n      mstore\n        /* \"#utility.yul\":939:943   */\n      0x20\n        /* \"#utility.yul\":936:937   */\n      0x00\n        /* \"#utility.yul\":926:944   */\n      keccak256\n        /* \"#utility.yul\":918:944   */\n      swap1\n      pop\n        /* \"#utility.yul\":810:951   */\n      swap2\n      swap1\n      pop\n      jump\t// out\n        /* \"#utility.yul\":957:1050   */\n    tag_10:\n        /* \"#utility.yul\":994:1000   */\n      0x00\n        /* \"#utility.yul\":1041:1043   */\n      0x20\n        /* \"#utility.yul\":1036:1038   */\n      0x1f\n        /* \"#utility.yul\":1029:1034   */\n      dup4\n        /* \"#utility.yul\":1025:1039   */\n      add\n        /* \"#utility.yul\":1021:1044   */\n      div\n        /* \"#utility.yul\":1011:1044   */\n      swap1\n      pop\n        /* \"#utility.yul\":957:1050   */\n      swap2\n      swap1\n      pop\n      jump\t// out\n        /* \"#utility.yul\":1056:1163   */\n    tag_11:\n        /* \"#utility.yul\":1100:1108   */\n      0x00\n        /* \"#utility.yul\":1150:1155   */\n      dup3\n        /* \"#utility.yul\":1144:1148   */\n      dup3\n        /* \"#utility.yul\":1140:1156   */\n      shl\n        /* \"#utility.yul\":1119:1156   */\n      swap1\n      pop\n        /* \"#utility.yul\":1056:1163   */\n      swap3\n      swap2\n      pop\n      pop\n      jump\t// out\n        /* \"#utility.yul\":1169:1562   */\n    tag_12:\n        /* \"#utility.yul\":1238:1244   */\n      0x00\n        /* \"#utility.yul\":1288:1289   */\n      0x08\n        /* \"#utility.yul\":1276:1286   */\n      dup4\n        /* \"#utility.yul\":1272:1290   */\n      mul\n        /* \"#utility.yul\":1311:1408   */\n      tag_37\n        /* \"#utility.yul\":1341:1407   */\n      0xffffffffffffffffffffffffffffffffffffffffffffffffffffffffffffffff\n        /* \"#utility.yul\":1330:1339   */\n      dup3\n        /* \"#utility.yul\":1311:1408   */\n      tag_11\n      jump\t// in\n    tag_37:\n        /* \"#utility.yul\":1429:1468   */\n      tag_38\n        /* \"#utility.yul\":1459:1467   */\n      dup7\n        /* \"#utility.yul\":1448:1457   */\n      dup4\n        /* \"#utility.yul\":1429:1468   */\n      tag_11\n      jump\t// in\n    tag_38:\n        /* \"#utility.yul\":1417:1468   */\n      swap6\n      pop\n        /* \"#utility.yul\":1501:1505   */\n      dup1\n        /* \"#utility.yul\":1497:1506   */\n      not\n        /* \"#utility.yul\":1490:1495   */\n      dup5\n        /* \"#utility.yul\":1486:1507   */\n      and\n        /* \"#utility.yul\":1477:1507   */\n      swap4\n      pop\n        /* \"#utility.yul\":1550:1554   */\n      dup1\n        /* \"#utility.yul\":1540:1548   */\n      dup7\n        /* \"#utility.yul\":1536:1555   */\n      and\n        /* \"#utility.yul\":1529:1534   */\n      dup5\n        /* \"#utility.yul\":1526:1556   */\n      or\n        /* \"#utility.yul\":1516:1556   */\n      swap3\n      pop\n        /* \"#utility.yul\":1245:1562   */\n      pop\n      pop\n        /* \"#utility.yul\":1169:1562   */\n      swap4\n      swap3\n      pop\n      pop\n      pop\n      jump\t// out\n        /* \"#utility.yul\":1568:1645   */\n    tag_13:\n        /* \"#utility.yul\":1605:1612   */\n      0x00\n        /* \"#utility.yul\":1634:1639   */\n      dup2\n        /* \"#utility.yul\":1623:1639   */\n      swap1\n      pop\n        /* \"#utility.yul\":1568:1645   */\n      swap2\n      swap1\n      pop\n      jump\t// out\n        /* \"#utility.yul\":1651:1711   */\n    tag_14:\n        /* \"#utility.yul\":1679:1682   */\n      0x00\n        /* \"#utility.yul\":1700:1705   */\n      dup2\n        /* \"#utility.yul\":1693:1705   */\n      swap1\n      pop\n        /* \"#utility.yul\":1651:1711   */\n      swap2\n      swap1\n      pop\n      jump\t// out\n        /* \"#utility.yul\":1717:1859   */\n    tag_15:\n        /* \"#utility.yul\":1767:1776   */\n      0x00\n        /* \"#utility.yul\":1800:1853   */\n      tag_42\n        /* \"#utility.yul\":1818:1852   */\n      tag_43\n        /* \"#utility.yul\":1827:1851   */\n      tag_44\n        /* \"#utility.yul\":1845:1850   */\n      dup5\n        /* \"#utility.yul\":1827:1851   */\n      tag_13\n      jump\t// in\n    tag_44:\n        /* \"#utility.yul\":1818:1852   */\n      tag_14\n      jump\t// in\n    tag_43:\n        /* \"#utility.yul\":1800:1853   */\n      tag_13\n      jump\t// in\n    tag_42:\n        /* \"#utility.yul\":1787:1853   */\n      swap1\n      pop\n        /* \"#utility.yul\":1717:1859   */\n      swap2\n      swap1\n      pop\n      jump\t// out\n        /* \"#utility.yul\":1865:1940   */\n    tag_16:\n        /* \"#utility.yul\":1908:1911   */\n      0x00\n        /* \"#utility.yul\":1929:1934   */\n      dup2\n        /* \"#utility.yul\":1922:1934   */\n      swap1\n      pop\n        /* \"#utility.yul\":1865:1940   */\n      swap2\n      swap1\n      pop\n      jump\t// out\n        /* \"#utility.yul\":1946:2215   */\n    tag_17:\n        /* \"#utility.yul\":2056:2095   */\n      tag_47\n        /* \"#utility.yul\":2087:2094   */\n      dup4\n        /* \"#utility.yul\":2056:2095   */\n      tag_15\n      jump\t// in\n    tag_47:\n        /* \"#utility.yul\":2117:2208   */\n      tag_48\n        /* \"#utility.yul\":2166:2207   */\n      tag_49\n        /* \"#utility.yul\":2190:2206   */\n      dup3\n        /* \"#utility.yul\":2166:2207   */\n      tag_16\n      jump\t// in\n    tag_49:\n        /* \"#utility.yul\":2158:2164   */\n      dup5\n        /* \"#utility.yul\":2151:2155   */\n      dup5\n        /* \"#utility.yul\":2145:2156   */\n      sload\n        /* \"#utility.yul\":2117:2208   */\n      tag_12\n      jump\t// in\n    tag_48:\n        /* \"#utility.yul\":2111:2115   */\n      dup3\n        /* \"#utility.yul\":2104:2209   */\n      sstore\n        /* \"#utility.yul\":2022:2215   */\n      pop\n        /* \"#utility.yul\":1946:2215   */\n      pop\n      pop\n      pop\n      jump\t// out\n        /* \"#utility.yul\":2221:2294   */\n    tag_18:\n        /* \"#utility.yul\":2266:2269   */\n      0x00\n        /* \"#utility.yul\":2221:2294   */\n      swap1\n      jump\t// out\n        /* \"#utility.yul\":2300:2489   */\n    tag_19:\n        /* \"#utility.yul\":2377:2409   */\n      tag_52\n      tag_18\n      jump\t// in\n    tag_52:\n        /* \"#utility.yul\":2418:2483   */\n      tag_53\n        /* \"#utility.yul\":2476:2482   */\n      dup2\n        /* \"#utility.yul\":2468:2474   */\n      dup5\n        /* \"#utility.yul\":2462:2466   */\n      dup5\n        /* \"#utility.yul\":2418:2483   */\n      tag_17\n      jump\t// in\n    tag_53:\n        /* \"#utility.yul\":2353:2489   */\n      pop\n        /* \"#utility.yul\":2300:2489   */\n      pop\n      pop\n      jump\t// out\n        /* \"#utility.yul\":2495:2681   */\n    tag_20:\n        /* \"#utility.yul\":2555:2675   */\n    tag_55:\n        /* \"#utility.yul\":2572:2575   */\n      dup2\n        /* \"#utility.yul\":2565:2570   */\n      dup2\n        /* \"#utility.yul\":2562:2576   */\n      lt\n        /* \"#utility.yul\":2555:2675   */\n      iszero\n      tag_57\n      jumpi\n        /* \"#utility.yul\":2626:2665   */\n      tag_58\n        /* \"#utility.yul\":2663:2664   */\n      0x00\n        /* \"#utility.yul\":2656:2661   */\n      dup3\n        /* \"#utility.yul\":2626:2665   */\n      tag_19\n      jump\t// in\n    tag_58:\n        /* \"#utility.yul\":2599:2600   */\n      0x01\n        /* \"#utility.yul\":2592:2597   */\n      dup2\n        /* \"#utility.yul\":2588:2601   */\n      add\n        /* \"#utility.yul\":2579:2601   */\n      swap1\n      pop\n        /* \"#utility.yul\":2555:2675   */\n      jump(tag_55)\n    tag_57:\n        /* \"#utility.yul\":2495:2681   */\n      pop\n      pop\n      jump\t// out\n        /* \"#utility.yul\":2687:3230   */\n    tag_21:\n        /* \"#utility.yul\":2788:2790   */\n      0x1f\n        /* \"#utility.yul\":2783:2786   */\n      dup3\n        /* \"#utility.yul\":2780:2791   */\n      gt\n        /* \"#utility.yul\":2777:3223   */\n      iszero\n      tag_60\n      jumpi\n        /* \"#utility.yul\":2822:2860   */\n      tag_61\n        /* \"#utility.yul\":2854:2859   */\n      dup2\n        /* \"#utility.yul\":2822:2860   */\n      tag_9\n      jump\t// in\n    tag_61:\n        /* \"#utility.yul\":2906:2935   */\n      tag_62\n        /* \"#utility.yul\":2924:2934   */\n      dup5\n        /* \"#utility.yul\":2906:2935   */\n      tag_10\n      jump\t// in\n    tag_62:\n        /* \"#utility.yul\":2896:2904   */\n      dup2\n        /* \"#utility.yul\":2892:2936   */\n      add\n        /* \"#utility.yul\":3089:3091   */\n      0x20\n        /* \"#utility.yul\":3077:3087   */\n      dup6\n        /* \"#utility.yul\":3074:3092   */\n      lt\n        /* \"#utility.yul\":3071:3120   */\n      iszero\n      tag_63\n      jumpi\n        /* \"#utility.yul\":3110:3118   */\n      dup2\n        /* \"#utility.yul\":3095:3118   */\n      swap1\n      pop\n        /* \"#utility.yul\":3071:3120   */\n    tag_63:\n        /* \"#utility.yul\":3133:3213   */\n      tag_64\n        /* \"#utility.yul\":3189:3211   */\n      tag_65\n        /* \"#utility.yul\":3207:3210   */\n      dup6\n        /* \"#utility.yul\":3189:3211   */\n      tag_10\n      jump\t// in\n    tag_65:\n        /* \"#utility.yul\":3179:3187   */\n      dup4\n        /* \"#utility.yul\":3175:3212   */\n      add\n        /* \"#utility.yul\":3162:3173   */\n      dup3\n        /* \"#utility.yul\":3133:3213   */\n      tag_20\n      jump\t// in\n    tag_64:\n        /* \"#utility.yul\":2792:3223   */\n      pop\n      pop\n        /* \"#utility.yul\":2777:3223   */\n    tag_60:\n        /* \"#utility.yul\":2687:3230   */\n      pop\n      pop\n      pop\n      jump\t// out\n        /* \"#utility.yul\":3236:3353   */\n    tag_22:\n        /* \"#utility.yul\":3290:3298   */\n      0x00\n        /* \"#utility.yul\":3340:3345   */\n      dup3\n        /* \"#utility.yul\":3334:3338   */\n      dup3\n        /* \"#utility.yul\":3330:3346   */\n      shr\n        /* \"#utility.yul\":3309:3346   */\n      swap1\n      pop\n        /* \"#utility.yul\":3236:3353   */\n      swap3\n      swap2\n      pop\n      pop\n      jump\t// out\n        /* \"#utility.yul\":3359:3528   */\n    tag_23:\n        /* \"#utility.yul\":3403:3409   */\n      0x00\n        /* \"#utility.yul\":3436:3487   */\n      tag_68\n        /* \"#utility.yul\":3484:3485   */\n      0x00\n        /* \"#utility.yul\":3480:3486   */\n      not\n        /* \"#utility.yul\":3472:3477   */\n      dup5\n        /* \"#utility.yul\":3469:3470   */\n      0x08\n        /* \"#utility.yul\":3465:3478   */\n      mul\n        /* \"#utility.yul\":3436:3487   */\n      tag_22\n      jump\t// in\n    tag_68:\n        /* \"#utility.yul\":3432:3488   */\n      not\n        /* \"#utility.yul\":3517:3521   */\n      dup1\n        /* \"#utility.yul\":3511:3515   */\n      dup4\n        /* \"#utility.yul\":3507:3522   */\n      and\n        /* \"#utility.yul\":3497:3522   */\n      swap2\n      pop\n        /* \"#utility.yul\":3410:3528   */\n      pop\n        /* \"#utility.yul\":3359:3528   */\n      swap3\n      swap2\n      pop\n      pop\n      jump\t// out\n        /* \"#utility.yul\":3533:3828   */\n    tag_24:\n        /* \"#utility.yul\":3609:3613   */\n      0x00\n        /* \"#utility.yul\":3755:3784   */\n      tag_70\n        /* \"#utility.yul\":3780:3783   */\n      dup4\n        /* \"#utility.yul\":3774:3778   */\n      dup4\n        /* \"#utility.yul\":3755:3784   */\n      tag_23\n      jump\t// in\n    tag_70:\n        /* \"#utility.yul\":3747:3784   */\n      swap2\n      pop\n        /* \"#utility.yul\":3817:3820   */\n      dup3\n        /* \"#utility.yul\":3814:3815   */\n      0x02\n        /* \"#utility.yul\":3810:3821   */\n      mul\n        /* \"#utility.yul\":3804:3808   */\n      dup3\n        /* \"#utility.yul\":3801:3822   */\n      or\n        /* \"#utility.yul\":3793:3822   */\n      swap1\n      pop\n        /* \"#utility.yul\":3533:3828   */\n      swap3\n      swap2\n      pop\n      pop\n      jump\t// out\n        /* \"#utility.yul\":3833:5228   */\n    tag_2:\n        /* \"#utility.yul\":3950:3987   */\n      tag_72\n        /* \"#utility.yul\":3983:3986   */\n      dup3\n        /* \"#utility.yul\":3950:3987   */\n      tag_5\n      jump\t// in\n    tag_72:\n        /* \"#utility.yul\":4052:4070   */\n      0xffffffffffffffff\n        /* \"#utility.yul\":4044:4050   */\n      dup2\n        /* \"#utility.yul\":4041:4071   */\n      gt\n        /* \"#utility.yul\":4038:4094   */\n      iszero\n      tag_73\n      jumpi\n        /* \"#utility.yul\":4074:4092   */\n      tag_74\n      tag_6\n      jump\t// in\n    tag_74:\n        /* \"#utility.yul\":4038:4094   */\n    tag_73:\n        /* \"#utility.yul\":4118:4156   */\n      tag_75\n        /* \"#utility.yul\":4150:4154   */\n      dup3\n        /* \"#utility.yul\":4144:4155   */\n      sload\n        /* \"#utility.yul\":4118:4156   */\n      tag_8\n      jump\t// in\n    tag_75:\n        /* \"#utility.yul\":4203:4270   */\n      tag_76\n        /* \"#utility.yul\":4263:4269   */\n      dup3\n        /* \"#utility.yul\":4255:4261   */\n      dup3\n        /* \"#utility.yul\":4249:4253   */\n      dup6\n        /* \"#utility.yul\":4203:4270   */\n      tag_21\n      jump\t// in\n    tag_76:\n        /* \"#utility.yul\":4297:4298   */\n      0x00\n        /* \"#utility.yul\":4321:4325   */\n      0x20\n        /* \"#utility.yul\":4308:4325   */\n      swap1\n      pop\n        /* \"#utility.yul\":4353:4355   */\n      0x1f\n        /* \"#utility.yul\":4345:4351   */\n      dup4\n        /* \"#utility.yul\":4342:4356   */\n      gt\n        /* \"#utility.yul\":4370:4371   */\n      0x01\n        /* \"#utility.yul\":4365:4983   */\n      dup2\n      eq\n      tag_78\n      jumpi\n        /* \"#utility.yul\":5027:5028   */\n      0x00\n        /* \"#utility.yul\":5044:5050   */\n      dup5\n        /* \"#utility.yul\":5041:5118   */\n      iszero\n      tag_79\n      jumpi\n        /* \"#utility.yul\":5093:5102   */\n      dup3\n        /* \"#utility.yul\":5088:5091   */\n      dup8\n        /* \"#utility.yul\":5084:5103   */\n      add\n        /* \"#utility.yul\":5078:5104   */\n      mload\n        /* \"#utility.yul\":5069:5104   */\n      swap1\n      pop\n        /* \"#utility.yul\":5041:5118   */\n    tag_79:\n        /* \"#utility.yul\":5144:5211   */\n      tag_80\n        /* \"#utility.yul\":5204:5210   */\n      dup6\n        /* \"#utility.yul\":5197:5202   */\n      dup3\n        /* \"#utility.yul\":5144:5211   */\n      tag_24\n      jump\t// in\n    tag_80:\n        /* \"#utility.yul\":5138:5142   */\n      dup7\n        /* \"#utility.yul\":5131:5212   */\n      sstore\n        /* \"#utility.yul\":5000:5222   */\n      pop\n        /* \"#utility.yul\":4335:5222   */\n      jump(tag_77)\n        /* \"#utility.yul\":4365:4983   */\n    tag_78:\n        /* \"#utility.yul\":4417:4421   */\n      0x1f\n        /* \"#utility.yul\":4413:4422   */\n      not\n        /* \"#utility.yul\":4405:4411   */\n      dup5\n        /* \"#utility.yul\":4401:4423   */\n      and\n        /* \"#utility.yul\":4451:4488   */\n      tag_81\n        /* \"#utility.yul\":4483:4487   */\n      dup7\n        /* \"#utility.yul\":4451:4488   */\n      tag_9\n      jump\t// in\n    tag_81:\n        /* \"#utility.yul\":4510:4511   */\n      0x00\n        /* \"#utility.yul\":4524:4732   */\n    tag_82:\n        /* \"#utility.yul\":4538:4545   */\n      dup3\n        /* \"#utility.yul\":4535:4536   */\n      dup2\n        /* \"#utility.yul\":4532:4546   */\n      lt\n        /* \"#utility.yul\":4524:4732   */\n      iszero\n      tag_84\n      jumpi\n        /* \"#utility.yul\":4617:4626   */\n      dup5\n        /* \"#utility.yul\":4612:4615   */\n      dup10\n        /* \"#utility.yul\":4608:4627   */\n      add\n        /* \"#utility.yul\":4602:4628   */\n      mload\n        /* \"#utility.yul\":4594:4600   */\n      dup3\n        /* \"#utility.yul\":4587:4629   */\n      sstore\n        /* \"#utility.yul\":4668:4669   */\n      0x01\n        /* \"#utility.yul\":4660:4666   */\n      dup3\n        /* \"#utility.yul\":4656:4670   */\n      add\n        /* \"#utility.yul\":4646:4670   */\n      swap2\n      pop\n        /* \"#utility.yul\":4715:4717   */\n      0x20\n        /* \"#utility.yul\":4704:4713   */\n      dup6\n        /* \"#utility.yul\":4700:4718   */\n      add\n        /* \"#utility.yul\":4687:4718   */\n      swap5\n      pop\n        /* \"#utility.yul\":4561:4565   */\n      0x20\n        /* \"#utility.yul\":4558:4559   */\n      dup2\n        /* \"#utility.yul\":4554:4566   */\n      add\n        /* \"#utility.yul\":4549:4566   */\n      swap1\n      pop\n        /* \"#utility.yul\":4524:4732   */\n      jump(tag_82)\n    tag_84:\n        /* \"#utility.yul\":4760:4766   */\n      dup7\n        /* \"#utility.yul\":4751:4758   */\n      dup4\n        /* \"#utility.yul\":4748:4767   */\n      lt\n        /* \"#utility.yul\":4745:4924   */\n      iszero\n      tag_85\n      jumpi\n        /* \"#utility.yul\":4818:4827   */\n      dup5\n        /* \"#utility.yul\":4813:4816   */\n      dup10\n        /* \"#utility.yul\":4809:4828   */\n      add\n        /* \"#utility.yul\":4803:4829   */\n      mload\n        /* \"#utility.yul\":4861:4909   */\n      tag_86\n        /* \"#utility.yul\":4903:4907   */\n      0x1f\n        /* \"#utility.yul\":4895:4901   */\n      dup10\n        /* \"#utility.yul\":4891:4908   */\n      and\n        /* \"#utility.yul\":4880:4889   */\n      dup3\n        /* \"#utility.yul\":4861:4909   */\n      tag_23\n      jump\t// in\n    tag_86:\n        /* \"#utility.yul\":4853:4859   */\n      dup4\n        /* \"#utility.yul\":4846:4910   */\n      sstore\n        /* \"#utility.yul\":4768:4924   */\n      pop\n        /* \"#utility.yul\":4745:4924   */\n    tag_85:\n        /* \"#utility.yul\":4970:4971   */\n      0x01\n        /* \"#utility.yul\":4966:4967   */\n      0x02\n        /* \"#utility.yul\":4958:4964   */\n      dup9\n        /* \"#utility.yul\":4954:4968   */\n      mul\n        /* \"#utility.yul\":4950:4972   */\n      add\n        /* \"#utility.yul\":4944:4948   */\n      dup9\n        /* \"#utility.yul\":4937:4973   */\n      sstore\n        /* \"#utility.yul\":4372:4983   */\n      pop\n      pop\n      pop\n        /* \"#utility.yul\":4335:5222   */\n    tag_77:\n      pop\n        /* \"#utility.yul\":3925:5228   */\n      pop\n      pop\n      pop\n        /* \"#utility.yul\":3833:5228   */\n      pop\n      pop\n      jump\t// out\n        /* \"chapter6/Ex6_4.sol\":282:430  contract System {... */\n    tag_4:\n      dataSize(sub_0)\n      dup1\n      dataOffset(sub_0)\n      0x00\n      codecopy\n      0x00\n      return\n    stop\n\n    sub_0: assembly {\n            /* \"chapter6/Ex6_4.sol\":282:430  contract System {... */\n          mstore(0x40, 0x80)\n          callvalue\n          dup1\n          iszero\n          tag_1\n          jumpi\n          0x00\n          dup1\n          revert\n        tag_1:\n          pop\n          jumpi(tag_2, lt(calldatasize, 0x04))\n          shr(0xe0, calldataload(0x00))\n          dup1\n          0x06fdde03\n          eq\n          tag_3\n          jumpi\n          dup1\n          0xba33ed7d\n          eq\n          tag_4\n          jumpi\n        tag_2:\n          0x00\n          dup1\n          revert\n            /* \"chapter6/Ex6_4.sol\":305:332  string public name = \"XG12\" */\n        tag_3:\n          tag_5\n          tag_6\n          jump\t// in\n        tag_5:\n          mload(0x40)\n          tag_7\n          swap2\n          swap1\n          tag_8\n          jump\t// in\n        tag_7:\n          mload(0x40)\n          dup1\n          swap2\n          sub\n          swap1\n          return\n            /* \"chapter6/Ex6_4.sol\":339:427  function turnOn() public pure returns (string memory) {... */\n        tag_4:\n          tag_9\n          tag_10\n          jump\t// in\n        tag_9:\n          mload(0x40)\n          tag_11\n          swap2\n          swap1\n          tag_8\n          jump\t// in\n        tag_11:\n          mload(0x40)\n          dup1\n          swap2\n          sub\n          swap1\n          return\n            /* \"chapter6/Ex6_4.sol\":305:332  string public name = \"XG12\" */\n        tag_6:\n          0x00\n          dup1\n          sload\n          tag_12\n          swap1\n          tag_13\n          jump\t// in\n        tag_12:\n          dup1\n          0x1f\n          add\n          0x20\n          dup1\n          swap2\n          div\n          mul\n          0x20\n          add\n          mload(0x40)\n          swap1\n          dup2\n          add\n          0x40\n          mstore\n          dup1\n          swap3\n          swap2\n          swap1\n          dup2\n          dup2\n          mstore\n          0x20\n          add\n          dup3\n          dup1\n          sload\n          tag_14\n          swap1\n          tag_13\n          jump\t// in\n        tag_14:\n          dup1\n          iszero\n          tag_15\n          jumpi\n          dup1\n          0x1f\n          lt\n          tag_16\n          jumpi\n          0x0100\n          dup1\n          dup4\n          sload\n          div\n          mul\n          dup4\n          mstore\n          swap2\n          0x20\n          add\n          swap2\n          jump(tag_15)\n        tag_16:\n          dup3\n          add\n          swap2\n          swap1\n          0x00\n          mstore\n          keccak256(0x00, 0x20)\n          swap1\n        tag_17:\n          dup2\n          sload\n          dup2\n          mstore\n          swap1\n          0x01\n          add\n          swap1\n          0x20\n          add\n          dup1\n          dup4\n          gt\n          tag_17\n          jumpi\n          dup3\n          swap1\n          sub\n          0x1f\n          and\n          dup3\n          add\n          swap2\n        tag_15:\n          pop\n          pop\n          pop\n          pop\n          pop\n          dup2\n          jump\t// out\n            /* \"chapter6/Ex6_4.sol\":339:427  function turnOn() public pure returns (string memory) {... */\n        tag_10:\n            /* \"chapter6/Ex6_4.sol\":378:391  string memory */\n          0x60\n            /* \"chapter6/Ex6_4.sol\":404:419  return \"turnOn\" */\n          mload(0x40)\n          dup1\n          0x40\n          add\n          0x40\n          mstore\n          dup1\n          0x06\n          dup2\n          mstore\n          0x20\n          add\n          0x7475726e4f6e0000000000000000000000000000000000000000000000000000\n          dup2\n          mstore\n          pop\n          swap1\n          pop\n            /* \"chapter6/Ex6_4.sol\":339:427  function turnOn() public pure returns (string memory) {... */\n          swap1\n          jump\t// out\n            /* \"#utility.yul\":7:106   */\n        tag_19:\n            /* \"#utility.yul\":59:65   */\n          0x00\n            /* \"#utility.yul\":93:98   */\n          dup2\n            /* \"#utility.yul\":87:99   */\n          mload\n            /* \"#utility.yul\":77:99   */\n          swap1\n          pop\n            /* \"#utility.yul\":7:106   */\n          swap2\n          swap1\n          pop\n          jump\t// out\n            /* \"#utility.yul\":112:281   */\n        tag_20:\n            /* \"#utility.yul\":196:207   */\n          0x00\n            /* \"#utility.yul\":230:236   */\n          dup3\n            /* \"#utility.yul\":225:228   */\n          dup3\n            /* \"#utility.yul\":218:237   */\n          mstore\n            /* \"#utility.yul\":270:274   */\n          0x20\n            /* \"#utility.yul\":265:268   */\n          dup3\n            /* \"#utility.yul\":261:275   */\n          add\n            /* \"#utility.yul\":246:275   */\n          swap1\n          pop\n            /* \"#utility.yul\":112:281   */\n          swap3\n          swap2\n          pop\n          pop\n          jump\t// out\n            /* \"#utility.yul\":287:533   */\n        tag_21:\n            /* \"#utility.yul\":368:369   */\n          0x00\n            /* \"#utility.yul\":378:491   */\n        tag_29:\n            /* \"#utility.yul\":392:398   */\n          dup4\n            /* \"#utility.yul\":389:390   */\n          dup2\n            /* \"#utility.yul\":386:399   */\n          lt\n            /* \"#utility.yul\":378:491   */\n          iszero\n          tag_31\n          jumpi\n            /* \"#utility.yul\":477:478   */\n          dup1\n            /* \"#utility.yul\":472:475   */\n          dup3\n            /* \"#utility.yul\":468:479   */\n          add\n            /* \"#utility.yul\":462:480   */\n          mload\n            /* \"#utility.yul\":458:459   */\n          dup2\n            /* \"#utility.yul\":453:456   */\n          dup5\n            /* \"#utility.yul\":449:460   */\n          add\n            /* \"#utility.yul\":442:481   */\n          mstore\n            /* \"#utility.yul\":414:416   */\n          0x20\n            /* \"#utility.yul\":411:412   */\n          dup2\n            /* \"#utility.yul\":407:417   */\n          add\n            /* \"#utility.yul\":402:417   */\n          swap1\n          pop\n            /* \"#utility.yul\":378:491   */\n          jump(tag_29)\n        tag_31:\n            /* \"#utility.yul\":525:526   */\n          0x00\n            /* \"#utility.yul\":516:522   */\n          dup5\n            /* \"#utility.yul\":511:514   */\n          dup5\n            /* \"#utility.yul\":507:523   */\n          add\n            /* \"#utility.yul\":500:527   */\n          mstore\n            /* \"#utility.yul\":349:533   */\n          pop\n            /* \"#utility.yul\":287:533   */\n          pop\n          pop\n          pop\n          jump\t// out\n            /* \"#utility.yul\":539:641   */\n        tag_22:\n            /* \"#utility.yul\":580:586   */\n          0x00\n            /* \"#utility.yul\":631:633   */\n          0x1f\n            /* \"#utility.yul\":627:634   */\n          not\n            /* \"#utility.yul\":622:624   */\n          0x1f\n            /* \"#utility.yul\":615:620   */\n          dup4\n            /* \"#utility.yul\":611:625   */\n          add\n            /* \"#utility.yul\":607:635   */\n          and\n            /* \"#utility.yul\":597:635   */\n          swap1\n          pop\n            /* \"#utility.yul\":539:641   */\n          swap2\n          swap1\n          pop\n          jump\t// out\n            /* \"#utility.yul\":647:1024   */\n        tag_23:\n            /* \"#utility.yul\":735:738   */\n          0x00\n            /* \"#utility.yul\":763:802   */\n          tag_34\n            /* \"#utility.yul\":796:801   */\n          dup3\n            /* \"#utility.yul\":763:802   */\n          tag_19\n          jump\t// in\n        tag_34:\n            /* \"#utility.yul\":818:889   */\n          tag_35\n            /* \"#utility.yul\":882:888   */\n          dup2\n            /* \"#utility.yul\":877:880   */\n          dup6\n            /* \"#utility.yul\":818:889   */\n          tag_20\n          jump\t// in\n        tag_35:\n            /* \"#utility.yul\":811:889   */\n          swap4\n          pop\n            /* \"#utility.yul\":898:963   */\n          tag_36\n            /* \"#utility.yul\":956:962   */\n          dup2\n            /* \"#utility.yul\":951:954   */\n          dup6\n            /* \"#utility.yul\":944:948   */\n          0x20\n            /* \"#utility.yul\":937:942   */\n          dup7\n            /* \"#utility.yul\":933:949   */\n          add\n            /* \"#utility.yul\":898:963   */\n          tag_21\n          jump\t// in\n        tag_36:\n            /* \"#utility.yul\":988:1017   */\n          tag_37\n            /* \"#utility.yul\":1010:1016   */\n          dup2\n            /* \"#utility.yul\":988:1017   */\n          tag_22\n          jump\t// in\n        tag_37:\n            /* \"#utility.yul\":983:986   */\n          dup5\n            /* \"#utility.yul\":979:1018   */\n          add\n            /* \"#utility.yul\":972:1018   */\n          swap2\n          pop\n            /* \"#utility.yul\":739:1024   */\n          pop\n            /* \"#utility.yul\":647:1024   */\n          swap3\n          swap2\n          pop\n          pop\n          jump\t// out\n            /* \"#utility.yul\":1030:1343   */\n        tag_8:\n            /* \"#utility.yul\":1143:1147   */\n          0x00\n            /* \"#utility.yul\":1181:1183   */\n          0x20\n            /* \"#utility.yul\":1170:1179   */\n          dup3\n            /* \"#utility.yul\":1166:1184   */\n          add\n            /* \"#utility.yul\":1158:1184   */\n          swap1\n          pop\n            /* \"#utility.yul\":1230:1239   */\n          dup2\n            /* \"#utility.yul\":1224:1228   */\n          dup2\n            /* \"#utility.yul\":1220:1240   */\n          sub\n            /* \"#utility.yul\":1216:1217   */\n          0x00\n            /* \"#utility.yul\":1205:1214   */\n          dup4\n            /* \"#utility.yul\":1201:1218   */\n          add\n            /* \"#utility.yul\":1194:1241   */\n          mstore\n            /* \"#utility.yul\":1258:1336   */\n          tag_39\n            /* \"#utility.yul\":1331:1335   */\n          dup2\n            /* \"#utility.yul\":1322:1328   */\n          dup5\n            /* \"#utility.yul\":1258:1336   */\n          tag_23\n          jump\t// in\n        tag_39:\n            /* \"#utility.yul\":1250:1336   */\n          swap1\n          pop\n            /* \"#utility.yul\":1030:1343   */\n          swap3\n          swap2\n          pop\n          pop\n          jump\t// out\n            /* \"#utility.yul\":1349:1529   */\n        tag_24:\n            /* \"#utility.yul\":1397:1474   */\n          0x4e487b7100000000000000000000000000000000000000000000000000000000\n            /* \"#utility.yul\":1394:1395   */\n          0x00\n            /* \"#utility.yul\":1387:1475   */\n          mstore\n            /* \"#utility.yul\":1494:1498   */\n          0x22\n            /* \"#utility.yul\":1491:1492   */\n          0x04\n            /* \"#utility.yul\":1484:1499   */\n          mstore\n            /* \"#utility.yul\":1518:1522   */\n          0x24\n            /* \"#utility.yul\":1515:1516   */\n          0x00\n            /* \"#utility.yul\":1508:1523   */\n          revert\n            /* \"#utility.yul\":1535:1855   */\n        tag_13:\n            /* \"#utility.yul\":1579:1585   */\n          0x00\n            /* \"#utility.yul\":1616:1617   */\n          0x02\n            /* \"#utility.yul\":1610:1614   */\n          dup3\n            /* \"#utility.yul\":1606:1618   */\n          div\n            /* \"#utility.yul\":1596:1618   */\n          swap1\n          pop\n            /* \"#utility.yul\":1663:1664   */\n          0x01\n            /* \"#utility.yul\":1657:1661   */\n          dup3\n            /* \"#utility.yul\":1653:1665   */\n          and\n            /* \"#utility.yul\":1684:1702   */\n          dup1\n            /* \"#utility.yul\":1674:1755   */\n          tag_42\n          jumpi\n            /* \"#utility.yul\":1740:1744   */\n          0x7f\n            /* \"#utility.yul\":1732:1738   */\n          dup3\n            /* \"#utility.yul\":1728:1745   */\n          and\n            /* \"#utility.yul\":1718:1745   */\n          swap2\n          pop\n            /* \"#utility.yul\":1674:1755   */\n        tag_42:\n            /* \"#utility.yul\":1802:1804   */\n          0x20\n            /* \"#utility.yul\":1794:1800   */\n          dup3\n            /* \"#utility.yul\":1791:1805   */\n          lt\n            /* \"#utility.yul\":1771:1789   */\n          dup2\n            /* \"#utility.yul\":1768:1806   */\n          sub\n            /* \"#utility.yul\":1765:1849   */\n          tag_43\n          jumpi\n            /* \"#utility.yul\":1821:1839   */\n          tag_44\n          tag_24\n          jump\t// in\n        tag_44:\n            /* \"#utility.yul\":1765:1849   */\n        tag_43:\n            /* \"#utility.yul\":1586:1855   */\n          pop\n            /* \"#utility.yul\":1535:1855   */\n          swap2\n          swap1\n          pop\n          jump\t// out\n\n        auxdata: 0xa26469706673582212203e1329460919b942ff9e75d268d7d76e1028a4c22a0591bb5513055b9bc305d664736f6c63430008170033\n    }\n}\n",
				"bytecode": {
					"linkReferences": {},
					"object": "608060405234801561000f575f80fd5b5060405161001c906100e7565b6100259061015b565b604051809103905ff08015801561003e573d5f803e3d5ffd5b505f806101000a81548173ffffffffffffffffffffffffffffffffffffffff021916908373ffffffffffffffffffffffffffffffffffffffff160217905550604051610089906100f4565b604051809103905ff0801580156100a2573d5f803e3d5ffd5b5060015f6101000a81548173ffffffffffffffffffffffffffffffffffffffff021916908373ffffffffffffffffffffffffffffffffffffffff160217905550610179565b6107568061082383390190565b6105e880610f7983390190565b5f82825260208201905092915050565b7f44573132000000000000000000000000000000000000000000000000000000005f82015250565b5f610145600483610101565b915061015082610111565b602082019050919050565b5f6020820190508181035f83015261017281610139565b9050919050565b61069d806101865f395ff3fe608060405234801561000f575f80fd5b506004361061004a575f3560e01c80633241992a1461004e57806395bf75fd1461006c578063be9a65551461008a578063fb825e5f146100a9575b5f80fd5b6100566100c8565b60405161006391906103e0565b60405180910390f35b6100746100eb565b6040516100819190610419565b60405180910390f35b610092610110565b6040516100a09291906104bc565b60405180910390f35b6100b161023b565b6040516100bf9291906104bc565b60405180910390f35b5f8054906101000a900473ffffffffffffffffffffffffffffffffffffffff1681565b60015f9054906101000a900473ffffffffffffffffffffffffffffffffffffffff1681565b6060805f8054906101000a900473ffffffffffffffffffffffffffffffffffffffff1673ffffffffffffffffffffffffffffffffffffffff1663cc80f6f36040518163ffffffff1660e01b81526004015f60405180830381865afa15801561017a573d5f803e3d5ffd5b505050506040513d5f823e3d601f19601f820116820180604052508101906101a29190610620565b60015f9054906101000a900473ffffffffffffffffffffffffffffffffffffffff1673ffffffffffffffffffffffffffffffffffffffff1663ba33ed7d6040518163ffffffff1660e01b81526004015f60405180830381865afa15801561020b573d5f803e3d5ffd5b505050506040513d5f823e3d601f19601f820116820180604052508101906102339190610620565b915091509091565b6060805f8054906101000a900473ffffffffffffffffffffffffffffffffffffffff1673ffffffffffffffffffffffffffffffffffffffff166306fdde036040518163ffffffff1660e01b81526004015f60405180830381865afa1580156102a5573d5f803e3d5ffd5b505050506040513d5f823e3d601f19601f820116820180604052508101906102cd9190610620565b60015f9054906101000a900473ffffffffffffffffffffffffffffffffffffffff1673ffffffffffffffffffffffffffffffffffffffff166306fdde036040518163ffffffff1660e01b81526004015f60405180830381865afa158015610336573d5f803e3d5ffd5b505050506040513d5f823e3d601f19601f8201168201806040525081019061035e9190610620565b915091509091565b5f73ffffffffffffffffffffffffffffffffffffffff82169050919050565b5f819050919050565b5f6103a86103a361039e84610366565b610385565b610366565b9050919050565b5f6103b98261038e565b9050919050565b5f6103ca826103af565b9050919050565b6103da816103c0565b82525050565b5f6020820190506103f35f8301846103d1565b92915050565b5f610403826103af565b9050919050565b610413816103f9565b82525050565b5f60208201905061042c5f83018461040a565b92915050565b5f81519050919050565b5f82825260208201905092915050565b5f5b8381101561046957808201518184015260208101905061044e565b5f8484015250505050565b5f601f19601f8301169050919050565b5f61048e82610432565b610498818561043c565b93506104a881856020860161044c565b6104b181610474565b840191505092915050565b5f6040820190508181035f8301526104d48185610484565b905081810360208301526104e88184610484565b90509392505050565b5f604051905090565b5f80fd5b5f80fd5b5f80fd5b5f80fd5b7f4e487b71000000000000000000000000000000000000000000000000000000005f52604160045260245ffd5b61054082610474565b810181811067ffffffffffffffff8211171561055f5761055e61050a565b5b80604052505050565b5f6105716104f1565b905061057d8282610537565b919050565b5f67ffffffffffffffff82111561059c5761059b61050a565b5b6105a582610474565b9050602081019050919050565b5f6105c46105bf84610582565b610568565b9050828152602081018484840111156105e0576105df610506565b5b6105eb84828561044c565b509392505050565b5f82601f83011261060757610606610502565b5b81516106178482602086016105b2565b91505092915050565b5f60208284031215610635576106346104fa565b5b5f82015167ffffffffffffffff811115610652576106516104fe565b5b61065e848285016105f3565b9150509291505056fea26469706673582212204b300516a19f8d004ca94d0fb6e69e60d53c368e01e2dceefd73d5e22582225d64736f6c63430008170033608060405234801561000f575f80fd5b50604051610756380380610756833981810160405281019061003191906101ad565b805f908161003f9190610401565b50506104d0565b5f604051905090565b5f80fd5b5f80fd5b5f80fd5b5f80fd5b5f601f19601f8301169050919050565b7f4e487b71000000000000000000000000000000000000000000000000000000005f52604160045260245ffd5b6100a58261005f565b810181811067ffffffffffffffff821117156100c4576100c361006f565b5b80604052505050565b5f6100d6610046565b90506100e2828261009c565b919050565b5f67ffffffffffffffff8211156101015761010061006f565b5b61010a8261005f565b9050602081019050919050565b5f5b83811015610134578082015181840152602081019050610119565b5f8484015250505050565b5f61015161014c846100e7565b6100cd565b90508281526020810184848401111561016d5761016c61005b565b5b610178848285610117565b509392505050565b5f82601f83011261019457610193610057565b5b81516101a484826020860161013f565b91505092915050565b5f602082840312156101c2576101c161004f565b5b5f82015167ffffffffffffffff8111156101df576101de610053565b5b6101eb84828501610180565b91505092915050565b5f81519050919050565b7f4e487b71000000000000000000000000000000000000000000000000000000005f52602260045260245ffd5b5f600282049050600182168061024257607f821691505b602082108103610255576102546101fe565b5b50919050565b5f819050815f5260205f209050919050565b5f6020601f8301049050919050565b5f82821b905092915050565b5f600883026102b77fffffffffffffffffffffffffffffffffffffffffffffffffffffffffffffffff8261027c565b6102c1868361027c565b95508019841693508086168417925050509392505050565b5f819050919050565b5f819050919050565b5f6103056103006102fb846102d9565b6102e2565b6102d9565b9050919050565b5f819050919050565b61031e836102eb565b61033261032a8261030c565b848454610288565b825550505050565b5f90565b61034661033a565b610351818484610315565b505050565b5b81811015610374576103695f8261033e565b600181019050610357565b5050565b601f8211156103b95761038a8161025b565b6103938461026d565b810160208510156103a2578190505b6103b66103ae8561026d565b830182610356565b50505b505050565b5f82821c905092915050565b5f6103d95f19846008026103be565b1980831691505092915050565b5f6103f183836103ca565b9150826002028217905092915050565b61040a826101f4565b67ffffffffffffffff8111156104235761042261006f565b5b61042d825461022b565b610438828285610378565b5f60209050601f831160018114610469575f8415610457578287015190505b61046185826103e6565b8655506104c8565b601f1984166104778661025b565b5f5b8281101561049e57848901518255600182019150602085019450602081019050610479565b868310156104bb57848901516104b7601f8916826103ca565b8355505b6001600288020188555050505b505050505050565b610279806104dd5f395ff3fe608060405234801561000f575f80fd5b5060043610610034575f3560e01c806306fdde0314610038578063cc80f6f314610056575b5f80fd5b610040610074565b60405161004d91906101c6565b60405180910390f35b61005e6100ff565b60405161006b91906101c6565b60405180910390f35b5f805461008090610213565b80601f01602080910402602001604051908101604052809291908181526020018280546100ac90610213565b80156100f75780601f106100ce576101008083540402835291602001916100f7565b820191905f5260205f20905b8154815290600101906020018083116100da57829003601f168201915b505050505081565b60606040518060400160405280600481526020017f73686f7700000000000000000000000000000000000000000000000000000000815250905090565b5f81519050919050565b5f82825260208201905092915050565b5f5b83811015610173578082015181840152602081019050610158565b5f8484015250505050565b5f601f19601f8301169050919050565b5f6101988261013c565b6101a28185610146565b93506101b2818560208601610156565b6101bb8161017e565b840191505092915050565b5f6020820190508181035f8301526101de818461018e565b905092915050565b7f4e487b71000000000000000000000000000000000000000000000000000000005f52602260045260245ffd5b5f600282049050600182168061022a57607f821691505b60208210810361023d5761023c6101e6565b5b5091905056fea2646970667358221220ad342dd3e41369f3318a8803a61bcf4243f3807a8dc70ce147c8540797d8e59264736f6c6343000817003360806040526040518060400160405280600481526020017f58473132000000000000000000000000000000000000000000000000000000008152505f90816100479190610293565b50348015610053575f80fd5b50610362565b5f81519050919050565b7f4e487b71000000000000000000000000000000000000000000000000000000005f52604160045260245ffd5b7f4e487b71000000000000000000000000000000000000000000000000000000005f52602260045260245ffd5b5f60028204905060018216806100d457607f821691505b6020821081036100e7576100e6610090565b5b50919050565b5f819050815f5260205f209050919050565b5f6020601f8301049050919050565b5f82821b905092915050565b5f600883026101497fffffffffffffffffffffffffffffffffffffffffffffffffffffffffffffffff8261010e565b610153868361010e565b95508019841693508086168417925050509392505050565b5f819050919050565b5f819050919050565b5f61019761019261018d8461016b565b610174565b61016b565b9050919050565b5f819050919050565b6101b08361017d565b6101c46101bc8261019e565b84845461011a565b825550505050565b5f90565b6101d86101cc565b6101e38184846101a7565b505050565b5b81811015610206576101fb5f826101d0565b6001810190506101e9565b5050565b601f82111561024b5761021c816100ed565b610225846100ff565b81016020851015610234578190505b610248610240856100ff565b8301826101e8565b50505b505050565b5f82821c905092915050565b5f61026b5f1984600802610250565b1980831691505092915050565b5f610283838361025c565b9150826002028217905092915050565b61029c82610059565b67ffffffffffffffff8111156102b5576102b4610063565b5b6102bf82546100bd565b6102ca82828561020a565b5f60209050601f8311600181146102fb575f84156102e9578287015190505b6102f38582610278565b86555061035a565b601f198416610309866100ed565b5f5b828110156103305784890151825560018201915060208501945060208101905061030b565b8683101561034d5784890151610349601f89168261025c565b8355505b6001600288020188555050505b505050505050565b6102798061036f5f395ff3fe608060405234801561000f575f80fd5b5060043610610034575f3560e01c806306fdde0314610038578063ba33ed7d14610056575b5f80fd5b610040610074565b60405161004d91906101c6565b60405180910390f35b61005e6100ff565b60405161006b91906101c6565b60405180910390f35b5f805461008090610213565b80601f01602080910402602001604051908101604052809291908181526020018280546100ac90610213565b80156100f75780601f106100ce576101008083540402835291602001916100f7565b820191905f5260205f20905b8154815290600101906020018083116100da57829003601f168201915b505050505081565b60606040518060400160405280600681526020017f7475726e4f6e0000000000000000000000000000000000000000000000000000815250905090565b5f81519050919050565b5f82825260208201905092915050565b5f5b83811015610173578082015181840152602081019050610158565b5f8484015250505050565b5f601f19601f8301169050919050565b5f6101988261013c565b6101a28185610146565b93506101b2818560208601610156565b6101bb8161017e565b840191505092915050565b5f6020820190508181035f8301526101de818461018e565b905092915050565b7f4e487b71000000000000000000000000000000000000000000000000000000005f52602260045260245ffd5b5f600282049050600182168061022a57607f821691505b60208210810361023d5761023c6101e6565b5b5091905056fea26469706673582212203e1329460919b942ff9e75d268d7d76e1028a4c22a0591bb5513055b9bc305d664736f6c63430008170033",
					"opcodes": "PUSH1 0x80 PUSH1 0x40 MSTORE CALLVALUE DUP1 ISZERO PUSH2 0xF JUMPI PUSH0 DUP1 REVERT JUMPDEST POP PUSH1 0x40 MLOAD PUSH2 0x1C SWAP1 PUSH2 0xE7 JUMP JUMPDEST PUSH2 0x25 SWAP1 PUSH2 0x15B JUMP JUMPDEST PUSH1 0x40 MLOAD DUP1 SWAP2 SUB SWAP1 PUSH0 CREATE DUP1 ISZERO DUP1 ISZERO PUSH2 0x3E JUMPI RETURNDATASIZE PUSH0 DUP1 RETURNDATACOPY RETURNDATASIZE PUSH0 REVERT JUMPDEST POP PUSH0 DUP1 PUSH2 0x100 EXP DUP2 SLOAD DUP2 PUSH20 0xFFFFFFFFFFFFFFFFFFFFFFFFFFFFFFFFFFFFFFFF MUL NOT AND SWAP1 DUP4 PUSH20 0xFFFFFFFFFFFFFFFFFFFFFFFFFFFFFFFFFFFFFFFF AND MUL OR SWAP1 SSTORE POP PUSH1 0x40 MLOAD PUSH2 0x89 SWAP1 PUSH2 0xF4 JUMP JUMPDEST PUSH1 0x40 MLOAD DUP1 SWAP2 SUB SWAP1 PUSH0 CREATE DUP1 ISZERO DUP1 ISZERO PUSH2 0xA2 JUMPI RETURNDATASIZE PUSH0 DUP1 RETURNDATACOPY RETURNDATASIZE PUSH0 REVERT JUMPDEST POP PUSH1 0x1 PUSH0 PUSH2 0x100 EXP DUP2 SLOAD DUP2 PUSH20 0xFFFFFFFFFFFFFFFFFFFFFFFFFFFFFFFFFFFFFFFF MUL NOT AND SWAP1 DUP4 PUSH20 0xFFFFFFFFFFFFFFFFFFFFFFFFFFFFFFFFFFFFFFFF AND MUL OR SWAP1 SSTORE POP PUSH2 0x179 JUMP JUMPDEST PUSH2 0x756 DUP1 PUSH2 0x823 DUP4 CODECOPY ADD SWAP1 JUMP JUMPDEST PUSH2 0x5E8 DUP1 PUSH2 0xF79 DUP4 CODECOPY ADD SWAP1 JUMP JUMPDEST PUSH0 DUP3 DUP3 MSTORE PUSH1 0x20 DUP3 ADD SWAP1 POP SWAP3 SWAP2 POP POP JUMP JUMPDEST PUSH32 0x4457313200000000000000000000000000000000000000000000000000000000 PUSH0 DUP3 ADD MSTORE POP JUMP JUMPDEST PUSH0 PUSH2 0x145 PUSH1 0x4 DUP4 PUSH2 0x101 JUMP JUMPDEST SWAP2 POP PUSH2 0x150 DUP3 PUSH2 0x111 JUMP JUMPDEST PUSH1 0x20 DUP3 ADD SWAP1 POP SWAP2 SWAP1 POP JUMP JUMPDEST PUSH0 PUSH1 0x20 DUP3 ADD SWAP1 POP DUP2 DUP2 SUB PUSH0 DUP4 ADD MSTORE PUSH2 0x172 DUP2 PUSH2 0x139 JUMP JUMPDEST SWAP1 POP SWAP2 SWAP1 POP JUMP JUMPDEST PUSH2 0x69D DUP1 PUSH2 0x186 PUSH0 CODECOPY PUSH0 RETURN INVALID PUSH1 0x80 PUSH1 0x40 MSTORE CALLVALUE DUP1 ISZERO PUSH2 0xF JUMPI PUSH0 DUP1 REVERT JUMPDEST POP PUSH1 0x4 CALLDATASIZE LT PUSH2 0x4A JUMPI PUSH0 CALLDATALOAD PUSH1 0xE0 SHR DUP1 PUSH4 0x3241992A EQ PUSH2 0x4E JUMPI DUP1 PUSH4 0x95BF75FD EQ PUSH2 0x6C JUMPI DUP1 PUSH4 0xBE9A6555 EQ PUSH2 0x8A JUMPI DUP1 PUSH4 0xFB825E5F EQ PUSH2 0xA9 JUMPI JUMPDEST PUSH0 DUP1 REVERT JUMPDEST PUSH2 0x56 PUSH2 0xC8 JUMP JUMPDEST PUSH1 0x40 MLOAD PUSH2 0x63 SWAP2 SWAP1 PUSH2 0x3E0 JUMP JUMPDEST PUSH1 0x40 MLOAD DUP1 SWAP2 SUB SWAP1 RETURN JUMPDEST PUSH2 0x74 PUSH2 0xEB JUMP JUMPDEST PUSH1 0x40 MLOAD PUSH2 0x81 SWAP2 SWAP1 PUSH2 0x419 JUMP JUMPDEST PUSH1 0x40 MLOAD DUP1 SWAP2 SUB SWAP1 RETURN JUMPDEST PUSH2 0x92 PUSH2 0x110 JUMP JUMPDEST PUSH1 0x40 MLOAD PUSH2 0xA0 SWAP3 SWAP2 SWAP1 PUSH2 0x4BC JUMP JUMPDEST PUSH1 0x40 MLOAD DUP1 SWAP2 SUB SWAP1 RETURN JUMPDEST PUSH2 0xB1 PUSH2 0x23B JUMP JUMPDEST PUSH1 0x40 MLOAD PUSH2 0xBF SWAP3 SWAP2 SWAP1 PUSH2 0x4BC JUMP JUMPDEST PUSH1 0x40 MLOAD DUP1 SWAP2 SUB SWAP1 RETURN JUMPDEST PUSH0 DUP1 SLOAD SWAP1 PUSH2 0x100 EXP SWAP1 DIV PUSH20 0xFFFFFFFFFFFFFFFFFFFFFFFFFFFFFFFFFFFFFFFF AND DUP2 JUMP JUMPDEST PUSH1 0x1 PUSH0 SWAP1 SLOAD SWAP1 PUSH2 0x100 EXP SWAP1 DIV PUSH20 0xFFFFFFFFFFFFFFFFFFFFFFFFFFFFFFFFFFFFFFFF AND DUP2 JUMP JUMPDEST PUSH1 0x60 DUP1 PUSH0 DUP1 SLOAD SWAP1 PUSH2 0x100 EXP SWAP1 DIV PUSH20 0xFFFFFFFFFFFFFFFFFFFFFFFFFFFFFFFFFFFFFFFF AND PUSH20 0xFFFFFFFFFFFFFFFFFFFFFFFFFFFFFFFFFFFFFFFF AND PUSH4 0xCC80F6F3 PUSH1 0x40 MLOAD DUP2 PUSH4 0xFFFFFFFF AND PUSH1 0xE0 SHL DUP2 MSTORE PUSH1 0x4 ADD PUSH0 PUSH1 0x40 MLOAD DUP1 DUP4 SUB DUP2 DUP7 GAS STATICCALL ISZERO DUP1 ISZERO PUSH2 0x17A JUMPI RETURNDATASIZE PUSH0 DUP1 RETURNDATACOPY RETURNDATASIZE PUSH0 REVERT JUMPDEST POP POP POP POP PUSH1 0x40 MLOAD RETURNDATASIZE PUSH0 DUP3 RETURNDATACOPY RETURNDATASIZE PUSH1 0x1F NOT PUSH1 0x1F DUP3 ADD AND DUP3 ADD DUP1 PUSH1 0x40 MSTORE POP DUP2 ADD SWAP1 PUSH2 0x1A2 SWAP2 SWAP1 PUSH2 0x620 JUMP JUMPDEST PUSH1 0x1 PUSH0 SWAP1 SLOAD SWAP1 PUSH2 0x100 EXP SWAP1 DIV PUSH20 0xFFFFFFFFFFFFFFFFFFFFFFFFFFFFFFFFFFFFFFFF AND PUSH20 0xFFFFFFFFFFFFFFFFFFFFFFFFFFFFFFFFFFFFFFFF AND PUSH4 0xBA33ED7D PUSH1 0x40 MLOAD DUP2 PUSH4 0xFFFFFFFF AND PUSH1 0xE0 SHL DUP2 MSTORE PUSH1 0x4 ADD PUSH0 PUSH1 0x40 MLOAD DUP1 DUP4 SUB DUP2 DUP7 GAS STATICCALL ISZERO DUP1 ISZERO PUSH2 0x20B JUMPI RETURNDATASIZE PUSH0 DUP1 RETURNDATACOPY RETURNDATASIZE PUSH0 REVERT JUMPDEST POP POP POP POP PUSH1 0x40 MLOAD RETURNDATASIZE PUSH0 DUP3 RETURNDATACOPY RETURNDATASIZE PUSH1 0x1F NOT PUSH1 0x1F DUP3 ADD AND DUP3 ADD DUP1 PUSH1 0x40 MSTORE POP DUP2 ADD SWAP1 PUSH2 0x233 SWAP2 SWAP1 PUSH2 0x620 JUMP JUMPDEST SWAP2 POP SWAP2 POP SWAP1 SWAP2 JUMP JUMPDEST PUSH1 0x60 DUP1 PUSH0 DUP1 SLOAD SWAP1 PUSH2 0x100 EXP SWAP1 DIV PUSH20 0xFFFFFFFFFFFFFFFFFFFFFFFFFFFFFFFFFFFFFFFF AND PUSH20 0xFFFFFFFFFFFFFFFFFFFFFFFFFFFFFFFFFFFFFFFF AND PUSH4 0x6FDDE03 PUSH1 0x40 MLOAD DUP2 PUSH4 0xFFFFFFFF AND PUSH1 0xE0 SHL DUP2 MSTORE PUSH1 0x4 ADD PUSH0 PUSH1 0x40 MLOAD DUP1 DUP4 SUB DUP2 DUP7 GAS STATICCALL ISZERO DUP1 ISZERO PUSH2 0x2A5 JUMPI RETURNDATASIZE PUSH0 DUP1 RETURNDATACOPY RETURNDATASIZE PUSH0 REVERT JUMPDEST POP POP POP POP PUSH1 0x40 MLOAD RETURNDATASIZE PUSH0 DUP3 RETURNDATACOPY RETURNDATASIZE PUSH1 0x1F NOT PUSH1 0x1F DUP3 ADD AND DUP3 ADD DUP1 PUSH1 0x40 MSTORE POP DUP2 ADD SWAP1 PUSH2 0x2CD SWAP2 SWAP1 PUSH2 0x620 JUMP JUMPDEST PUSH1 0x1 PUSH0 SWAP1 SLOAD SWAP1 PUSH2 0x100 EXP SWAP1 DIV PUSH20 0xFFFFFFFFFFFFFFFFFFFFFFFFFFFFFFFFFFFFFFFF AND PUSH20 0xFFFFFFFFFFFFFFFFFFFFFFFFFFFFFFFFFFFFFFFF AND PUSH4 0x6FDDE03 PUSH1 0x40 MLOAD DUP2 PUSH4 0xFFFFFFFF AND PUSH1 0xE0 SHL DUP2 MSTORE PUSH1 0x4 ADD PUSH0 PUSH1 0x40 MLOAD DUP1 DUP4 SUB DUP2 DUP7 GAS STATICCALL ISZERO DUP1 ISZERO PUSH2 0x336 JUMPI RETURNDATASIZE PUSH0 DUP1 RETURNDATACOPY RETURNDATASIZE PUSH0 REVERT JUMPDEST POP POP POP POP PUSH1 0x40 MLOAD RETURNDATASIZE PUSH0 DUP3 RETURNDATACOPY RETURNDATASIZE PUSH1 0x1F NOT PUSH1 0x1F DUP3 ADD AND DUP3 ADD DUP1 PUSH1 0x40 MSTORE POP DUP2 ADD SWAP1 PUSH2 0x35E SWAP2 SWAP1 PUSH2 0x620 JUMP JUMPDEST SWAP2 POP SWAP2 POP SWAP1 SWAP2 JUMP JUMPDEST PUSH0 PUSH20 0xFFFFFFFFFFFFFFFFFFFFFFFFFFFFFFFFFFFFFFFF DUP3 AND SWAP1 POP SWAP2 SWAP1 POP JUMP JUMPDEST PUSH0 DUP2 SWAP1 POP SWAP2 SWAP1 POP JUMP JUMPDEST PUSH0 PUSH2 0x3A8 PUSH2 0x3A3 PUSH2 0x39E DUP5 PUSH2 0x366 JUMP JUMPDEST PUSH2 0x385 JUMP JUMPDEST PUSH2 0x366 JUMP JUMPDEST SWAP1 POP SWAP2 SWAP1 POP JUMP JUMPDEST PUSH0 PUSH2 0x3B9 DUP3 PUSH2 0x38E JUMP JUMPDEST SWAP1 POP SWAP2 SWAP1 POP JUMP JUMPDEST PUSH0 PUSH2 0x3CA DUP3 PUSH2 0x3AF JUMP JUMPDEST SWAP1 POP SWAP2 SWAP1 POP JUMP JUMPDEST PUSH2 0x3DA DUP2 PUSH2 0x3C0 JUMP JUMPDEST DUP3 MSTORE POP POP JUMP JUMPDEST PUSH0 PUSH1 0x20 DUP3 ADD SWAP1 POP PUSH2 0x3F3 PUSH0 DUP4 ADD DUP5 PUSH2 0x3D1 JUMP JUMPDEST SWAP3 SWAP2 POP POP JUMP JUMPDEST PUSH0 PUSH2 0x403 DUP3 PUSH2 0x3AF JUMP JUMPDEST SWAP1 POP SWAP2 SWAP1 POP JUMP JUMPDEST PUSH2 0x413 DUP2 PUSH2 0x3F9 JUMP JUMPDEST DUP3 MSTORE POP POP JUMP JUMPDEST PUSH0 PUSH1 0x20 DUP3 ADD SWAP1 POP PUSH2 0x42C PUSH0 DUP4 ADD DUP5 PUSH2 0x40A JUMP JUMPDEST SWAP3 SWAP2 POP POP JUMP JUMPDEST PUSH0 DUP2 MLOAD SWAP1 POP SWAP2 SWAP1 POP JUMP JUMPDEST PUSH0 DUP3 DUP3 MSTORE PUSH1 0x20 DUP3 ADD SWAP1 POP SWAP3 SWAP2 POP POP JUMP JUMPDEST PUSH0 JUMPDEST DUP4 DUP2 LT ISZERO PUSH2 0x469 JUMPI DUP1 DUP3 ADD MLOAD DUP2 DUP5 ADD MSTORE PUSH1 0x20 DUP2 ADD SWAP1 POP PUSH2 0x44E JUMP JUMPDEST PUSH0 DUP5 DUP5 ADD MSTORE POP POP POP POP JUMP JUMPDEST PUSH0 PUSH1 0x1F NOT PUSH1 0x1F DUP4 ADD AND SWAP1 POP SWAP2 SWAP1 POP JUMP JUMPDEST PUSH0 PUSH2 0x48E DUP3 PUSH2 0x432 JUMP JUMPDEST PUSH2 0x498 DUP2 DUP6 PUSH2 0x43C JUMP JUMPDEST SWAP4 POP PUSH2 0x4A8 DUP2 DUP6 PUSH1 0x20 DUP7 ADD PUSH2 0x44C JUMP JUMPDEST PUSH2 0x4B1 DUP2 PUSH2 0x474 JUMP JUMPDEST DUP5 ADD SWAP2 POP POP SWAP3 SWAP2 POP POP JUMP JUMPDEST PUSH0 PUSH1 0x40 DUP3 ADD SWAP1 POP DUP2 DUP2 SUB PUSH0 DUP4 ADD MSTORE PUSH2 0x4D4 DUP2 DUP6 PUSH2 0x484 JUMP JUMPDEST SWAP1 POP DUP2 DUP2 SUB PUSH1 0x20 DUP4 ADD MSTORE PUSH2 0x4E8 DUP2 DUP5 PUSH2 0x484 JUMP JUMPDEST SWAP1 POP SWAP4 SWAP3 POP POP POP JUMP JUMPDEST PUSH0 PUSH1 0x40 MLOAD SWAP1 POP SWAP1 JUMP JUMPDEST PUSH0 DUP1 REVERT JUMPDEST PUSH0 DUP1 REVERT JUMPDEST PUSH0 DUP1 REVERT JUMPDEST PUSH0 DUP1 REVERT JUMPDEST PUSH32 0x4E487B7100000000000000000000000000000000000000000000000000000000 PUSH0 MSTORE PUSH1 0x41 PUSH1 0x4 MSTORE PUSH1 0x24 PUSH0 REVERT JUMPDEST PUSH2 0x540 DUP3 PUSH2 0x474 JUMP JUMPDEST DUP2 ADD DUP2 DUP2 LT PUSH8 0xFFFFFFFFFFFFFFFF DUP3 GT OR ISZERO PUSH2 0x55F JUMPI PUSH2 0x55E PUSH2 0x50A JUMP JUMPDEST JUMPDEST DUP1 PUSH1 0x40 MSTORE POP POP POP JUMP JUMPDEST PUSH0 PUSH2 0x571 PUSH2 0x4F1 JUMP JUMPDEST SWAP1 POP PUSH2 0x57D DUP3 DUP3 PUSH2 0x537 JUMP JUMPDEST SWAP2 SWAP1 POP JUMP JUMPDEST PUSH0 PUSH8 0xFFFFFFFFFFFFFFFF DUP3 GT ISZERO PUSH2 0x59C JUMPI PUSH2 0x59B PUSH2 0x50A JUMP JUMPDEST JUMPDEST PUSH2 0x5A5 DUP3 PUSH2 0x474 JUMP JUMPDEST SWAP1 POP PUSH1 0x20 DUP2 ADD SWAP1 POP SWAP2 SWAP1 POP JUMP JUMPDEST PUSH0 PUSH2 0x5C4 PUSH2 0x5BF DUP5 PUSH2 0x582 JUMP JUMPDEST PUSH2 0x568 JUMP JUMPDEST SWAP1 POP DUP3 DUP2 MSTORE PUSH1 0x20 DUP2 ADD DUP5 DUP5 DUP5 ADD GT ISZERO PUSH2 0x5E0 JUMPI PUSH2 0x5DF PUSH2 0x506 JUMP JUMPDEST JUMPDEST PUSH2 0x5EB DUP5 DUP3 DUP6 PUSH2 0x44C JUMP JUMPDEST POP SWAP4 SWAP3 POP POP POP JUMP JUMPDEST PUSH0 DUP3 PUSH1 0x1F DUP4 ADD SLT PUSH2 0x607 JUMPI PUSH2 0x606 PUSH2 0x502 JUMP JUMPDEST JUMPDEST DUP2 MLOAD PUSH2 0x617 DUP5 DUP3 PUSH1 0x20 DUP7 ADD PUSH2 0x5B2 JUMP JUMPDEST SWAP2 POP POP SWAP3 SWAP2 POP POP JUMP JUMPDEST PUSH0 PUSH1 0x20 DUP3 DUP5 SUB SLT ISZERO PUSH2 0x635 JUMPI PUSH2 0x634 PUSH2 0x4FA JUMP JUMPDEST JUMPDEST PUSH0 DUP3 ADD MLOAD PUSH8 0xFFFFFFFFFFFFFFFF DUP2 GT ISZERO PUSH2 0x652 JUMPI PUSH2 0x651 PUSH2 0x4FE JUMP JUMPDEST JUMPDEST PUSH2 0x65E DUP5 DUP3 DUP6 ADD PUSH2 0x5F3 JUMP JUMPDEST SWAP2 POP POP SWAP3 SWAP2 POP POP JUMP INVALID LOG2 PUSH5 0x6970667358 0x22 SLT KECCAK256 0x4B ADDRESS SDIV AND LOG1 SWAP16 DUP14 STOP 0x4C 0xA9 0x4D 0xF 0xB6 0xE6 SWAP15 PUSH1 0xD5 EXTCODECOPY CALLDATASIZE DUP15 ADD 0xE2 0xDC 0xEE REVERT PUSH20 0xD5E22582225D64736F6C63430008170033608060 BLOCKHASH MSTORE CALLVALUE DUP1 ISZERO PUSH2 0xF JUMPI PUSH0 DUP1 REVERT JUMPDEST POP PUSH1 0x40 MLOAD PUSH2 0x756 CODESIZE SUB DUP1 PUSH2 0x756 DUP4 CODECOPY DUP2 DUP2 ADD PUSH1 0x40 MSTORE DUP2 ADD SWAP1 PUSH2 0x31 SWAP2 SWAP1 PUSH2 0x1AD JUMP JUMPDEST DUP1 PUSH0 SWAP1 DUP2 PUSH2 0x3F SWAP2 SWAP1 PUSH2 0x401 JUMP JUMPDEST POP POP PUSH2 0x4D0 JUMP JUMPDEST PUSH0 PUSH1 0x40 MLOAD SWAP1 POP SWAP1 JUMP JUMPDEST PUSH0 DUP1 REVERT JUMPDEST PUSH0 DUP1 REVERT JUMPDEST PUSH0 DUP1 REVERT JUMPDEST PUSH0 DUP1 REVERT JUMPDEST PUSH0 PUSH1 0x1F NOT PUSH1 0x1F DUP4 ADD AND SWAP1 POP SWAP2 SWAP1 POP JUMP JUMPDEST PUSH32 0x4E487B7100000000000000000000000000000000000000000000000000000000 PUSH0 MSTORE PUSH1 0x41 PUSH1 0x4 MSTORE PUSH1 0x24 PUSH0 REVERT JUMPDEST PUSH2 0xA5 DUP3 PUSH2 0x5F JUMP JUMPDEST DUP2 ADD DUP2 DUP2 LT PUSH8 0xFFFFFFFFFFFFFFFF DUP3 GT OR ISZERO PUSH2 0xC4 JUMPI PUSH2 0xC3 PUSH2 0x6F JUMP JUMPDEST JUMPDEST DUP1 PUSH1 0x40 MSTORE POP POP POP JUMP JUMPDEST PUSH0 PUSH2 0xD6 PUSH2 0x46 JUMP JUMPDEST SWAP1 POP PUSH2 0xE2 DUP3 DUP3 PUSH2 0x9C JUMP JUMPDEST SWAP2 SWAP1 POP JUMP JUMPDEST PUSH0 PUSH8 0xFFFFFFFFFFFFFFFF DUP3 GT ISZERO PUSH2 0x101 JUMPI PUSH2 0x100 PUSH2 0x6F JUMP JUMPDEST JUMPDEST PUSH2 0x10A DUP3 PUSH2 0x5F JUMP JUMPDEST SWAP1 POP PUSH1 0x20 DUP2 ADD SWAP1 POP SWAP2 SWAP1 POP JUMP JUMPDEST PUSH0 JUMPDEST DUP4 DUP2 LT ISZERO PUSH2 0x134 JUMPI DUP1 DUP3 ADD MLOAD DUP2 DUP5 ADD MSTORE PUSH1 0x20 DUP2 ADD SWAP1 POP PUSH2 0x119 JUMP JUMPDEST PUSH0 DUP5 DUP5 ADD MSTORE POP POP POP POP JUMP JUMPDEST PUSH0 PUSH2 0x151 PUSH2 0x14C DUP5 PUSH2 0xE7 JUMP JUMPDEST PUSH2 0xCD JUMP JUMPDEST SWAP1 POP DUP3 DUP2 MSTORE PUSH1 0x20 DUP2 ADD DUP5 DUP5 DUP5 ADD GT ISZERO PUSH2 0x16D JUMPI PUSH2 0x16C PUSH2 0x5B JUMP JUMPDEST JUMPDEST PUSH2 0x178 DUP5 DUP3 DUP6 PUSH2 0x117 JUMP JUMPDEST POP SWAP4 SWAP3 POP POP POP JUMP JUMPDEST PUSH0 DUP3 PUSH1 0x1F DUP4 ADD SLT PUSH2 0x194 JUMPI PUSH2 0x193 PUSH2 0x57 JUMP JUMPDEST JUMPDEST DUP2 MLOAD PUSH2 0x1A4 DUP5 DUP3 PUSH1 0x20 DUP7 ADD PUSH2 0x13F JUMP JUMPDEST SWAP2 POP POP SWAP3 SWAP2 POP POP JUMP JUMPDEST PUSH0 PUSH1 0x20 DUP3 DUP5 SUB SLT ISZERO PUSH2 0x1C2 JUMPI PUSH2 0x1C1 PUSH2 0x4F JUMP JUMPDEST JUMPDEST PUSH0 DUP3 ADD MLOAD PUSH8 0xFFFFFFFFFFFFFFFF DUP2 GT ISZERO PUSH2 0x1DF JUMPI PUSH2 0x1DE PUSH2 0x53 JUMP JUMPDEST JUMPDEST PUSH2 0x1EB DUP5 DUP3 DUP6 ADD PUSH2 0x180 JUMP JUMPDEST SWAP2 POP POP SWAP3 SWAP2 POP POP JUMP JUMPDEST PUSH0 DUP2 MLOAD SWAP1 POP SWAP2 SWAP1 POP JUMP JUMPDEST PUSH32 0x4E487B7100000000000000000000000000000000000000000000000000000000 PUSH0 MSTORE PUSH1 0x22 PUSH1 0x4 MSTORE PUSH1 0x24 PUSH0 REVERT JUMPDEST PUSH0 PUSH1 0x2 DUP3 DIV SWAP1 POP PUSH1 0x1 DUP3 AND DUP1 PUSH2 0x242 JUMPI PUSH1 0x7F DUP3 AND SWAP2 POP JUMPDEST PUSH1 0x20 DUP3 LT DUP2 SUB PUSH2 0x255 JUMPI PUSH2 0x254 PUSH2 0x1FE JUMP JUMPDEST JUMPDEST POP SWAP2 SWAP1 POP JUMP JUMPDEST PUSH0 DUP2 SWAP1 POP DUP2 PUSH0 MSTORE PUSH1 0x20 PUSH0 KECCAK256 SWAP1 POP SWAP2 SWAP1 POP JUMP JUMPDEST PUSH0 PUSH1 0x20 PUSH1 0x1F DUP4 ADD DIV SWAP1 POP SWAP2 SWAP1 POP JUMP JUMPDEST PUSH0 DUP3 DUP3 SHL SWAP1 POP SWAP3 SWAP2 POP POP JUMP JUMPDEST PUSH0 PUSH1 0x8 DUP4 MUL PUSH2 0x2B7 PUSH32 0xFFFFFFFFFFFFFFFFFFFFFFFFFFFFFFFFFFFFFFFFFFFFFFFFFFFFFFFFFFFFFFFF DUP3 PUSH2 0x27C JUMP JUMPDEST PUSH2 0x2C1 DUP7 DUP4 PUSH2 0x27C JUMP JUMPDEST SWAP6 POP DUP1 NOT DUP5 AND SWAP4 POP DUP1 DUP7 AND DUP5 OR SWAP3 POP POP POP SWAP4 SWAP3 POP POP POP JUMP JUMPDEST PUSH0 DUP2 SWAP1 POP SWAP2 SWAP1 POP JUMP JUMPDEST PUSH0 DUP2 SWAP1 POP SWAP2 SWAP1 POP JUMP JUMPDEST PUSH0 PUSH2 0x305 PUSH2 0x300 PUSH2 0x2FB DUP5 PUSH2 0x2D9 JUMP JUMPDEST PUSH2 0x2E2 JUMP JUMPDEST PUSH2 0x2D9 JUMP JUMPDEST SWAP1 POP SWAP2 SWAP1 POP JUMP JUMPDEST PUSH0 DUP2 SWAP1 POP SWAP2 SWAP1 POP JUMP JUMPDEST PUSH2 0x31E DUP4 PUSH2 0x2EB JUMP JUMPDEST PUSH2 0x332 PUSH2 0x32A DUP3 PUSH2 0x30C JUMP JUMPDEST DUP5 DUP5 SLOAD PUSH2 0x288 JUMP JUMPDEST DUP3 SSTORE POP POP POP POP JUMP JUMPDEST PUSH0 SWAP1 JUMP JUMPDEST PUSH2 0x346 PUSH2 0x33A JUMP JUMPDEST PUSH2 0x351 DUP2 DUP5 DUP5 PUSH2 0x315 JUMP JUMPDEST POP POP POP JUMP JUMPDEST JUMPDEST DUP2 DUP2 LT ISZERO PUSH2 0x374 JUMPI PUSH2 0x369 PUSH0 DUP3 PUSH2 0x33E JUMP JUMPDEST PUSH1 0x1 DUP2 ADD SWAP1 POP PUSH2 0x357 JUMP JUMPDEST POP POP JUMP JUMPDEST PUSH1 0x1F DUP3 GT ISZERO PUSH2 0x3B9 JUMPI PUSH2 0x38A DUP2 PUSH2 0x25B JUMP JUMPDEST PUSH2 0x393 DUP5 PUSH2 0x26D JUMP JUMPDEST DUP2 ADD PUSH1 0x20 DUP6 LT ISZERO PUSH2 0x3A2 JUMPI DUP2 SWAP1 POP JUMPDEST PUSH2 0x3B6 PUSH2 0x3AE DUP6 PUSH2 0x26D JUMP JUMPDEST DUP4 ADD DUP3 PUSH2 0x356 JUMP JUMPDEST POP POP JUMPDEST POP POP POP JUMP JUMPDEST PUSH0 DUP3 DUP3 SHR SWAP1 POP SWAP3 SWAP2 POP POP JUMP JUMPDEST PUSH0 PUSH2 0x3D9 PUSH0 NOT DUP5 PUSH1 0x8 MUL PUSH2 0x3BE JUMP JUMPDEST NOT DUP1 DUP4 AND SWAP2 POP POP SWAP3 SWAP2 POP POP JUMP JUMPDEST PUSH0 PUSH2 0x3F1 DUP4 DUP4 PUSH2 0x3CA JUMP JUMPDEST SWAP2 POP DUP3 PUSH1 0x2 MUL DUP3 OR SWAP1 POP SWAP3 SWAP2 POP POP JUMP JUMPDEST PUSH2 0x40A DUP3 PUSH2 0x1F4 JUMP JUMPDEST PUSH8 0xFFFFFFFFFFFFFFFF DUP2 GT ISZERO PUSH2 0x423 JUMPI PUSH2 0x422 PUSH2 0x6F JUMP JUMPDEST JUMPDEST PUSH2 0x42D DUP3 SLOAD PUSH2 0x22B JUMP JUMPDEST PUSH2 0x438 DUP3 DUP3 DUP6 PUSH2 0x378 JUMP JUMPDEST PUSH0 PUSH1 0x20 SWAP1 POP PUSH1 0x1F DUP4 GT PUSH1 0x1 DUP2 EQ PUSH2 0x469 JUMPI PUSH0 DUP5 ISZERO PUSH2 0x457 JUMPI DUP3 DUP8 ADD MLOAD SWAP1 POP JUMPDEST PUSH2 0x461 DUP6 DUP3 PUSH2 0x3E6 JUMP JUMPDEST DUP7 SSTORE POP PUSH2 0x4C8 JUMP JUMPDEST PUSH1 0x1F NOT DUP5 AND PUSH2 0x477 DUP7 PUSH2 0x25B JUMP JUMPDEST PUSH0 JUMPDEST DUP3 DUP2 LT ISZERO PUSH2 0x49E JUMPI DUP5 DUP10 ADD MLOAD DUP3 SSTORE PUSH1 0x1 DUP3 ADD SWAP2 POP PUSH1 0x20 DUP6 ADD SWAP5 POP PUSH1 0x20 DUP2 ADD SWAP1 POP PUSH2 0x479 JUMP JUMPDEST DUP7 DUP4 LT ISZERO PUSH2 0x4BB JUMPI DUP5 DUP10 ADD MLOAD PUSH2 0x4B7 PUSH1 0x1F DUP10 AND DUP3 PUSH2 0x3CA JUMP JUMPDEST DUP4 SSTORE POP JUMPDEST PUSH1 0x1 PUSH1 0x2 DUP9 MUL ADD DUP9 SSTORE POP POP POP JUMPDEST POP POP POP POP POP POP JUMP JUMPDEST PUSH2 0x279 DUP1 PUSH2 0x4DD PUSH0 CODECOPY PUSH0 RETURN INVALID PUSH1 0x80 PUSH1 0x40 MSTORE CALLVALUE DUP1 ISZERO PUSH2 0xF JUMPI PUSH0 DUP1 REVERT JUMPDEST POP PUSH1 0x4 CALLDATASIZE LT PUSH2 0x34 JUMPI PUSH0 CALLDATALOAD PUSH1 0xE0 SHR DUP1 PUSH4 0x6FDDE03 EQ PUSH2 0x38 JUMPI DUP1 PUSH4 0xCC80F6F3 EQ PUSH2 0x56 JUMPI JUMPDEST PUSH0 DUP1 REVERT JUMPDEST PUSH2 0x40 PUSH2 0x74 JUMP JUMPDEST PUSH1 0x40 MLOAD PUSH2 0x4D SWAP2 SWAP1 PUSH2 0x1C6 JUMP JUMPDEST PUSH1 0x40 MLOAD DUP1 SWAP2 SUB SWAP1 RETURN JUMPDEST PUSH2 0x5E PUSH2 0xFF JUMP JUMPDEST PUSH1 0x40 MLOAD PUSH2 0x6B SWAP2 SWAP1 PUSH2 0x1C6 JUMP JUMPDEST PUSH1 0x40 MLOAD DUP1 SWAP2 SUB SWAP1 RETURN JUMPDEST PUSH0 DUP1 SLOAD PUSH2 0x80 SWAP1 PUSH2 0x213 JUMP JUMPDEST DUP1 PUSH1 0x1F ADD PUSH1 0x20 DUP1 SWAP2 DIV MUL PUSH1 0x20 ADD PUSH1 0x40 MLOAD SWAP1 DUP2 ADD PUSH1 0x40 MSTORE DUP1 SWAP3 SWAP2 SWAP1 DUP2 DUP2 MSTORE PUSH1 0x20 ADD DUP3 DUP1 SLOAD PUSH2 0xAC SWAP1 PUSH2 0x213 JUMP JUMPDEST DUP1 ISZERO PUSH2 0xF7 JUMPI DUP1 PUSH1 0x1F LT PUSH2 0xCE JUMPI PUSH2 0x100 DUP1 DUP4 SLOAD DIV MUL DUP4 MSTORE SWAP2 PUSH1 0x20 ADD SWAP2 PUSH2 0xF7 JUMP JUMPDEST DUP3 ADD SWAP2 SWAP1 PUSH0 MSTORE PUSH1 0x20 PUSH0 KECCAK256 SWAP1 JUMPDEST DUP2 SLOAD DUP2 MSTORE SWAP1 PUSH1 0x1 ADD SWAP1 PUSH1 0x20 ADD DUP1 DUP4 GT PUSH2 0xDA JUMPI DUP3 SWAP1 SUB PUSH1 0x1F AND DUP3 ADD SWAP2 JUMPDEST POP POP POP POP POP DUP2 JUMP JUMPDEST PUSH1 0x60 PUSH1 0x40 MLOAD DUP1 PUSH1 0x40 ADD PUSH1 0x40 MSTORE DUP1 PUSH1 0x4 DUP2 MSTORE PUSH1 0x20 ADD PUSH32 0x73686F7700000000000000000000000000000000000000000000000000000000 DUP2 MSTORE POP SWAP1 POP SWAP1 JUMP JUMPDEST PUSH0 DUP2 MLOAD SWAP1 POP SWAP2 SWAP1 POP JUMP JUMPDEST PUSH0 DUP3 DUP3 MSTORE PUSH1 0x20 DUP3 ADD SWAP1 POP SWAP3 SWAP2 POP POP JUMP JUMPDEST PUSH0 JUMPDEST DUP4 DUP2 LT ISZERO PUSH2 0x173 JUMPI DUP1 DUP3 ADD MLOAD DUP2 DUP5 ADD MSTORE PUSH1 0x20 DUP2 ADD SWAP1 POP PUSH2 0x158 JUMP JUMPDEST PUSH0 DUP5 DUP5 ADD MSTORE POP POP POP POP JUMP JUMPDEST PUSH0 PUSH1 0x1F NOT PUSH1 0x1F DUP4 ADD AND SWAP1 POP SWAP2 SWAP1 POP JUMP JUMPDEST PUSH0 PUSH2 0x198 DUP3 PUSH2 0x13C JUMP JUMPDEST PUSH2 0x1A2 DUP2 DUP6 PUSH2 0x146 JUMP JUMPDEST SWAP4 POP PUSH2 0x1B2 DUP2 DUP6 PUSH1 0x20 DUP7 ADD PUSH2 0x156 JUMP JUMPDEST PUSH2 0x1BB DUP2 PUSH2 0x17E JUMP JUMPDEST DUP5 ADD SWAP2 POP POP SWAP3 SWAP2 POP POP JUMP JUMPDEST PUSH0 PUSH1 0x20 DUP3 ADD SWAP1 POP DUP2 DUP2 SUB PUSH0 DUP4 ADD MSTORE PUSH2 0x1DE DUP2 DUP5 PUSH2 0x18E JUMP JUMPDEST SWAP1 POP SWAP3 SWAP2 POP POP JUMP JUMPDEST PUSH32 0x4E487B7100000000000000000000000000000000000000000000000000000000 PUSH0 MSTORE PUSH1 0x22 PUSH1 0x4 MSTORE PUSH1 0x24 PUSH0 REVERT JUMPDEST PUSH0 PUSH1 0x2 DUP3 DIV SWAP1 POP PUSH1 0x1 DUP3 AND DUP1 PUSH2 0x22A JUMPI PUSH1 0x7F DUP3 AND SWAP2 POP JUMPDEST PUSH1 0x20 DUP3 LT DUP2 SUB PUSH2 0x23D JUMPI PUSH2 0x23C PUSH2 0x1E6 JUMP JUMPDEST JUMPDEST POP SWAP2 SWAP1 POP JUMP INVALID LOG2 PUSH5 0x6970667358 0x22 SLT KECCAK256 0xAD CALLVALUE 0x2D 0xD3 0xE4 SGT PUSH10 0xF3318A8803A61BCF4243 RETURN DUP1 PUSH27 0x8DC70CE147C8540797D8E59264736F6C6343000817003360806040 MSTORE PUSH1 0x40 MLOAD DUP1 PUSH1 0x40 ADD PUSH1 0x40 MSTORE DUP1 PUSH1 0x4 DUP2 MSTORE PUSH1 0x20 ADD PUSH32 0x5847313200000000000000000000000000000000000000000000000000000000 DUP2 MSTORE POP PUSH0 SWAP1 DUP2 PUSH2 0x47 SWAP2 SWAP1 PUSH2 0x293 JUMP JUMPDEST POP CALLVALUE DUP1 ISZERO PUSH2 0x53 JUMPI PUSH0 DUP1 REVERT JUMPDEST POP PUSH2 0x362 JUMP JUMPDEST PUSH0 DUP2 MLOAD SWAP1 POP SWAP2 SWAP1 POP JUMP JUMPDEST PUSH32 0x4E487B7100000000000000000000000000000000000000000000000000000000 PUSH0 MSTORE PUSH1 0x41 PUSH1 0x4 MSTORE PUSH1 0x24 PUSH0 REVERT JUMPDEST PUSH32 0x4E487B7100000000000000000000000000000000000000000000000000000000 PUSH0 MSTORE PUSH1 0x22 PUSH1 0x4 MSTORE PUSH1 0x24 PUSH0 REVERT JUMPDEST PUSH0 PUSH1 0x2 DUP3 DIV SWAP1 POP PUSH1 0x1 DUP3 AND DUP1 PUSH2 0xD4 JUMPI PUSH1 0x7F DUP3 AND SWAP2 POP JUMPDEST PUSH1 0x20 DUP3 LT DUP2 SUB PUSH2 0xE7 JUMPI PUSH2 0xE6 PUSH2 0x90 JUMP JUMPDEST JUMPDEST POP SWAP2 SWAP1 POP JUMP JUMPDEST PUSH0 DUP2 SWAP1 POP DUP2 PUSH0 MSTORE PUSH1 0x20 PUSH0 KECCAK256 SWAP1 POP SWAP2 SWAP1 POP JUMP JUMPDEST PUSH0 PUSH1 0x20 PUSH1 0x1F DUP4 ADD DIV SWAP1 POP SWAP2 SWAP1 POP JUMP JUMPDEST PUSH0 DUP3 DUP3 SHL SWAP1 POP SWAP3 SWAP2 POP POP JUMP JUMPDEST PUSH0 PUSH1 0x8 DUP4 MUL PUSH2 0x149 PUSH32 0xFFFFFFFFFFFFFFFFFFFFFFFFFFFFFFFFFFFFFFFFFFFFFFFFFFFFFFFFFFFFFFFF DUP3 PUSH2 0x10E JUMP JUMPDEST PUSH2 0x153 DUP7 DUP4 PUSH2 0x10E JUMP JUMPDEST SWAP6 POP DUP1 NOT DUP5 AND SWAP4 POP DUP1 DUP7 AND DUP5 OR SWAP3 POP POP POP SWAP4 SWAP3 POP POP POP JUMP JUMPDEST PUSH0 DUP2 SWAP1 POP SWAP2 SWAP1 POP JUMP JUMPDEST PUSH0 DUP2 SWAP1 POP SWAP2 SWAP1 POP JUMP JUMPDEST PUSH0 PUSH2 0x197 PUSH2 0x192 PUSH2 0x18D DUP5 PUSH2 0x16B JUMP JUMPDEST PUSH2 0x174 JUMP JUMPDEST PUSH2 0x16B JUMP JUMPDEST SWAP1 POP SWAP2 SWAP1 POP JUMP JUMPDEST PUSH0 DUP2 SWAP1 POP SWAP2 SWAP1 POP JUMP JUMPDEST PUSH2 0x1B0 DUP4 PUSH2 0x17D JUMP JUMPDEST PUSH2 0x1C4 PUSH2 0x1BC DUP3 PUSH2 0x19E JUMP JUMPDEST DUP5 DUP5 SLOAD PUSH2 0x11A JUMP JUMPDEST DUP3 SSTORE POP POP POP POP JUMP JUMPDEST PUSH0 SWAP1 JUMP JUMPDEST PUSH2 0x1D8 PUSH2 0x1CC JUMP JUMPDEST PUSH2 0x1E3 DUP2 DUP5 DUP5 PUSH2 0x1A7 JUMP JUMPDEST POP POP POP JUMP JUMPDEST JUMPDEST DUP2 DUP2 LT ISZERO PUSH2 0x206 JUMPI PUSH2 0x1FB PUSH0 DUP3 PUSH2 0x1D0 JUMP JUMPDEST PUSH1 0x1 DUP2 ADD SWAP1 POP PUSH2 0x1E9 JUMP JUMPDEST POP POP JUMP JUMPDEST PUSH1 0x1F DUP3 GT ISZERO PUSH2 0x24B JUMPI PUSH2 0x21C DUP2 PUSH2 0xED JUMP JUMPDEST PUSH2 0x225 DUP5 PUSH2 0xFF JUMP JUMPDEST DUP2 ADD PUSH1 0x20 DUP6 LT ISZERO PUSH2 0x234 JUMPI DUP2 SWAP1 POP JUMPDEST PUSH2 0x248 PUSH2 0x240 DUP6 PUSH2 0xFF JUMP JUMPDEST DUP4 ADD DUP3 PUSH2 0x1E8 JUMP JUMPDEST POP POP JUMPDEST POP POP POP JUMP JUMPDEST PUSH0 DUP3 DUP3 SHR SWAP1 POP SWAP3 SWAP2 POP POP JUMP JUMPDEST PUSH0 PUSH2 0x26B PUSH0 NOT DUP5 PUSH1 0x8 MUL PUSH2 0x250 JUMP JUMPDEST NOT DUP1 DUP4 AND SWAP2 POP POP SWAP3 SWAP2 POP POP JUMP JUMPDEST PUSH0 PUSH2 0x283 DUP4 DUP4 PUSH2 0x25C JUMP JUMPDEST SWAP2 POP DUP3 PUSH1 0x2 MUL DUP3 OR SWAP1 POP SWAP3 SWAP2 POP POP JUMP JUMPDEST PUSH2 0x29C DUP3 PUSH2 0x59 JUMP JUMPDEST PUSH8 0xFFFFFFFFFFFFFFFF DUP2 GT ISZERO PUSH2 0x2B5 JUMPI PUSH2 0x2B4 PUSH2 0x63 JUMP JUMPDEST JUMPDEST PUSH2 0x2BF DUP3 SLOAD PUSH2 0xBD JUMP JUMPDEST PUSH2 0x2CA DUP3 DUP3 DUP6 PUSH2 0x20A JUMP JUMPDEST PUSH0 PUSH1 0x20 SWAP1 POP PUSH1 0x1F DUP4 GT PUSH1 0x1 DUP2 EQ PUSH2 0x2FB JUMPI PUSH0 DUP5 ISZERO PUSH2 0x2E9 JUMPI DUP3 DUP8 ADD MLOAD SWAP1 POP JUMPDEST PUSH2 0x2F3 DUP6 DUP3 PUSH2 0x278 JUMP JUMPDEST DUP7 SSTORE POP PUSH2 0x35A JUMP JUMPDEST PUSH1 0x1F NOT DUP5 AND PUSH2 0x309 DUP7 PUSH2 0xED JUMP JUMPDEST PUSH0 JUMPDEST DUP3 DUP2 LT ISZERO PUSH2 0x330 JUMPI DUP5 DUP10 ADD MLOAD DUP3 SSTORE PUSH1 0x1 DUP3 ADD SWAP2 POP PUSH1 0x20 DUP6 ADD SWAP5 POP PUSH1 0x20 DUP2 ADD SWAP1 POP PUSH2 0x30B JUMP JUMPDEST DUP7 DUP4 LT ISZERO PUSH2 0x34D JUMPI DUP5 DUP10 ADD MLOAD PUSH2 0x349 PUSH1 0x1F DUP10 AND DUP3 PUSH2 0x25C JUMP JUMPDEST DUP4 SSTORE POP JUMPDEST PUSH1 0x1 PUSH1 0x2 DUP9 MUL ADD DUP9 SSTORE POP POP POP JUMPDEST POP POP POP POP POP POP JUMP JUMPDEST PUSH2 0x279 DUP1 PUSH2 0x36F PUSH0 CODECOPY PUSH0 RETURN INVALID PUSH1 0x80 PUSH1 0x40 MSTORE CALLVALUE DUP1 ISZERO PUSH2 0xF JUMPI PUSH0 DUP1 REVERT JUMPDEST POP PUSH1 0x4 CALLDATASIZE LT PUSH2 0x34 JUMPI PUSH0 CALLDATALOAD PUSH1 0xE0 SHR DUP1 PUSH4 0x6FDDE03 EQ PUSH2 0x38 JUMPI DUP1 PUSH4 0xBA33ED7D EQ PUSH2 0x56 JUMPI JUMPDEST PUSH0 DUP1 REVERT JUMPDEST PUSH2 0x40 PUSH2 0x74 JUMP JUMPDEST PUSH1 0x40 MLOAD PUSH2 0x4D SWAP2 SWAP1 PUSH2 0x1C6 JUMP JUMPDEST PUSH1 0x40 MLOAD DUP1 SWAP2 SUB SWAP1 RETURN JUMPDEST PUSH2 0x5E PUSH2 0xFF JUMP JUMPDEST PUSH1 0x40 MLOAD PUSH2 0x6B SWAP2 SWAP1 PUSH2 0x1C6 JUMP JUMPDEST PUSH1 0x40 MLOAD DUP1 SWAP2 SUB SWAP1 RETURN JUMPDEST PUSH0 DUP1 SLOAD PUSH2 0x80 SWAP1 PUSH2 0x213 JUMP JUMPDEST DUP1 PUSH1 0x1F ADD PUSH1 0x20 DUP1 SWAP2 DIV MUL PUSH1 0x20 ADD PUSH1 0x40 MLOAD SWAP1 DUP2 ADD PUSH1 0x40 MSTORE DUP1 SWAP3 SWAP2 SWAP1 DUP2 DUP2 MSTORE PUSH1 0x20 ADD DUP3 DUP1 SLOAD PUSH2 0xAC SWAP1 PUSH2 0x213 JUMP JUMPDEST DUP1 ISZERO PUSH2 0xF7 JUMPI DUP1 PUSH1 0x1F LT PUSH2 0xCE JUMPI PUSH2 0x100 DUP1 DUP4 SLOAD DIV MUL DUP4 MSTORE SWAP2 PUSH1 0x20 ADD SWAP2 PUSH2 0xF7 JUMP JUMPDEST DUP3 ADD SWAP2 SWAP1 PUSH0 MSTORE PUSH1 0x20 PUSH0 KECCAK256 SWAP1 JUMPDEST DUP2 SLOAD DUP2 MSTORE SWAP1 PUSH1 0x1 ADD SWAP1 PUSH1 0x20 ADD DUP1 DUP4 GT PUSH2 0xDA JUMPI DUP3 SWAP1 SUB PUSH1 0x1F AND DUP3 ADD SWAP2 JUMPDEST POP POP POP POP POP DUP2 JUMP JUMPDEST PUSH1 0x60 PUSH1 0x40 MLOAD DUP1 PUSH1 0x40 ADD PUSH1 0x40 MSTORE DUP1 PUSH1 0x6 DUP2 MSTORE PUSH1 0x20 ADD PUSH32 0x7475726E4F6E0000000000000000000000000000000000000000000000000000 DUP2 MSTORE POP SWAP1 POP SWAP1 JUMP JUMPDEST PUSH0 DUP2 MLOAD SWAP1 POP SWAP2 SWAP1 POP JUMP JUMPDEST PUSH0 DUP3 DUP3 MSTORE PUSH1 0x20 DUP3 ADD SWAP1 POP SWAP3 SWAP2 POP POP JUMP JUMPDEST PUSH0 JUMPDEST DUP4 DUP2 LT ISZERO PUSH2 0x173 JUMPI DUP1 DUP3 ADD MLOAD DUP2 DUP5 ADD MSTORE PUSH1 0x20 DUP2 ADD SWAP1 POP PUSH2 0x158 JUMP JUMPDEST PUSH0 DUP5 DUP5 ADD MSTORE POP POP POP POP JUMP JUMPDEST PUSH0 PUSH1 0x1F NOT PUSH1 0x1F DUP4 ADD AND SWAP1 POP SWAP2 SWAP1 POP JUMP JUMPDEST PUSH0 PUSH2 0x198 DUP3 PUSH2 0x13C JUMP JUMPDEST PUSH2 0x1A2 DUP2 DUP6 PUSH2 0x146 JUMP JUMPDEST SWAP4 POP PUSH2 0x1B2 DUP2 DUP6 PUSH1 0x20 DUP7 ADD PUSH2 0x156 JUMP JUMPDEST PUSH2 0x1BB DUP2 PUSH2 0x17E JUMP JUMPDEST DUP5 ADD SWAP2 POP POP SWAP3 SWAP2 POP POP JUMP JUMPDEST PUSH0 PUSH1 0x20 DUP3 ADD SWAP1 POP DUP2 DUP2 SUB PUSH0 DUP4 ADD MSTORE PUSH2 0x1DE DUP2 DUP5 PUSH2 0x18E JUMP JUMPDEST SWAP1 POP SWAP3 SWAP2 POP POP JUMP JUMPDEST PUSH32 0x4E487B7100000000000000000000000000000000000000000000000000000000 PUSH0 MSTORE PUSH1 0x22 PUSH1 0x4 MSTORE PUSH1 0x24 PUSH0 REVERT JUMPDEST PUSH0 PUSH1 0x2 DUP3 DIV SWAP1 POP PUSH1 0x1 DUP3 AND DUP1 PUSH2 0x22A JUMPI PUSH1 0x7F DUP3 AND SWAP2 POP JUMPDEST PUSH1 0x20 DUP3 LT DUP2 SUB PUSH2 0x23D JUMPI PUSH2 0x23C PUSH2 0x1E6 JUMP JUMPDEST JUMPDEST POP SWAP2 SWAP1 POP JUMP INVALID LOG2 PUSH5 0x6970667358 0x22 SLT KECCAK256 RETURNDATACOPY SGT 0x29 CHAINID MULMOD NOT 0xB9 TIMESTAMP SELFDESTRUCT SWAP15 PUSH22 0xD268D7D76E1028A4C22A0591BB5513055B9BC305D664 PUSH20 0x6F6C634300081700330000000000000000000000 "
				},
				"gasEstimates": {
					"creation": {
						"codeDepositCost": "338600",
						"executionCost": "infinite",
						"totalCost": "infinite"
					},
					"external": {
						"getAllNames()": "infinite",
						"monitor()": "infinite",
						"start()": "infinite",
						"system()": "infinite"
					}
				},
				"methodIdentifiers": {
					"getAllNames()": "fb825e5f",
					"monitor()": "3241992a",
					"start()": "be9a6555",
					"system()": "95bf75fd"
				}
			},
			"storageLayout": {
				"storage": [
					{
						"astId": 37,
						"contract": "chapter6/Ex6_4.sol:Computer",
						"label": "monitor",
						"offset": 0,
						"slot": "0",
						"type": "t_contract(Monitor)22"
					},
					{
						"astId": 40,
						"contract": "chapter6/Ex6_4.sol:Computer",
						"label": "system",
						"offset": 0,
						"slot": "1",
						"type": "t_contract(System)34"
					}
				],
				"types": {
					"t_contract(Monitor)22": {
						"encoding": "inplace",
						"label": "contract Monitor",
						"numberOfBytes": "20"
					},
					"t_contract(System)34": {
						"encoding": "inplace",
						"label": "contract System",
						"numberOfBytes": "20"
					}
				}
			},
			"userdoc": {
				"kind": "user",
				"methods": {},
				"version": 1
			}
		}
	}
}