{
	"data": {
		"bytecode": {
			"linkReferences": {},
			"object": "608060405260035f555f54600155348015610018575f80fd5b506104a8806100265f395ff3fe608060405234801561000f575f80fd5b506004361061004a575f3560e01c80630dbe671f1461004e5780634df7e3d01461006c5780639023c4d11461008a578063d19fd469146100bb575b5f80fd5b6100566100da565b6040516100639190610147565b60405180910390f35b6100746100df565b6040516100819190610147565b60405180910390f35b6100a4600480360381019061009f91906102eb565b6100e5565b6040516100b29291906103e9565b60405180910390f35b6100c3610119565b6040516100d192919061041e565b60405180910390f35b5f5481565b60015481565b6060805f839050600b815f8151811061010157610100610445565b5b60200260200101818152505083819250925050915091565b5f8060055f819055505f54600154915091509091565b5f819050919050565b6101418161012f565b82525050565b5f60208201905061015a5f830184610138565b92915050565b5f604051905090565b5f80fd5b5f80fd5b5f80fd5b5f601f19601f8301169050919050565b7f4e487b71000000000000000000000000000000000000000000000000000000005f52604160045260245ffd5b6101bb82610175565b810181811067ffffffffffffffff821117156101da576101d9610185565b5b80604052505050565b5f6101ec610160565b90506101f882826101b2565b919050565b5f67ffffffffffffffff82111561021757610216610185565b5b602082029050602081019050919050565b5f80fd5b6102358161012f565b811461023f575f80fd5b50565b5f813590506102508161022c565b92915050565b5f610268610263846101fd565b6101e3565b9050808382526020820190506020840283018581111561028b5761028a610228565b5b835b818110156102b457806102a08882610242565b84526020840193505060208101905061028d565b5050509392505050565b5f82601f8301126102d2576102d1610171565b5b81356102e2848260208601610256565b91505092915050565b5f60208284031215610300576102ff610169565b5b5f82013567ffffffffffffffff81111561031d5761031c61016d565b5b610329848285016102be565b91505092915050565b5f81519050919050565b5f82825260208201905092915050565b5f819050602082019050919050565b6103648161012f565b82525050565b5f610375838361035b565b60208301905092915050565b5f602082019050919050565b5f61039782610332565b6103a1818561033c565b93506103ac8361034c565b805f5b838110156103dc5781516103c3888261036a565b97506103ce83610381565b9250506001810190506103af565b5085935050505092915050565b5f6040820190508181035f830152610401818561038d565b90508181036020830152610415818461038d565b90509392505050565b5f6040820190506104315f830185610138565b61043e6020830184610138565b9392505050565b7f4e487b71000000000000000000000000000000000000000000000000000000005f52603260045260245ffdfea264697066735822122017dc35db0fab7d400e73c44ced8a4a05318269912bb26c477bb0105aef93125c64736f6c63430008160033",
			"opcodes": "PUSH1 0x80 PUSH1 0x40 MSTORE PUSH1 0x3 PUSH0 SSTORE PUSH0 SLOAD PUSH1 0x1 SSTORE CALLVALUE DUP1 ISZERO PUSH2 0x18 JUMPI PUSH0 DUP1 REVERT JUMPDEST POP PUSH2 0x4A8 DUP1 PUSH2 0x26 PUSH0 CODECOPY PUSH0 RETURN INVALID PUSH1 0x80 PUSH1 0x40 MSTORE CALLVALUE DUP1 ISZERO PUSH2 0xF JUMPI PUSH0 DUP1 REVERT JUMPDEST POP PUSH1 0x4 CALLDATASIZE LT PUSH2 0x4A JUMPI PUSH0 CALLDATALOAD PUSH1 0xE0 SHR DUP1 PUSH4 0xDBE671F EQ PUSH2 0x4E JUMPI DUP1 PUSH4 0x4DF7E3D0 EQ PUSH2 0x6C JUMPI DUP1 PUSH4 0x9023C4D1 EQ PUSH2 0x8A JUMPI DUP1 PUSH4 0xD19FD469 EQ PUSH2 0xBB JUMPI JUMPDEST PUSH0 DUP1 REVERT JUMPDEST PUSH2 0x56 PUSH2 0xDA JUMP JUMPDEST PUSH1 0x40 MLOAD PUSH2 0x63 SWAP2 SWAP1 PUSH2 0x147 JUMP JUMPDEST PUSH1 0x40 MLOAD DUP1 SWAP2 SUB SWAP1 RETURN JUMPDEST PUSH2 0x74 PUSH2 0xDF JUMP JUMPDEST PUSH1 0x40 MLOAD PUSH2 0x81 SWAP2 SWAP1 PUSH2 0x147 JUMP JUMPDEST PUSH1 0x40 MLOAD DUP1 SWAP2 SUB SWAP1 RETURN JUMPDEST PUSH2 0xA4 PUSH1 0x4 DUP1 CALLDATASIZE SUB DUP2 ADD SWAP1 PUSH2 0x9F SWAP2 SWAP1 PUSH2 0x2EB JUMP JUMPDEST PUSH2 0xE5 JUMP JUMPDEST PUSH1 0x40 MLOAD PUSH2 0xB2 SWAP3 SWAP2 SWAP1 PUSH2 0x3E9 JUMP JUMPDEST PUSH1 0x40 MLOAD DUP1 SWAP2 SUB SWAP1 RETURN JUMPDEST PUSH2 0xC3 PUSH2 0x119 JUMP JUMPDEST PUSH1 0x40 MLOAD PUSH2 0xD1 SWAP3 SWAP2 SWAP1 PUSH2 0x41E JUMP JUMPDEST PUSH1 0x40 MLOAD DUP1 SWAP2 SUB SWAP1 RETURN JUMPDEST PUSH0 SLOAD DUP2 JUMP JUMPDEST PUSH1 0x1 SLOAD DUP2 JUMP JUMPDEST PUSH1 0x60 DUP1 PUSH0 DUP4 SWAP1 POP PUSH1 0xB DUP2 PUSH0 DUP2 MLOAD DUP2 LT PUSH2 0x101 JUMPI PUSH2 0x100 PUSH2 0x445 JUMP JUMPDEST JUMPDEST PUSH1 0x20 MUL PUSH1 0x20 ADD ADD DUP2 DUP2 MSTORE POP POP DUP4 DUP2 SWAP3 POP SWAP3 POP POP SWAP2 POP SWAP2 JUMP JUMPDEST PUSH0 DUP1 PUSH1 0x5 PUSH0 DUP2 SWAP1 SSTORE POP PUSH0 SLOAD PUSH1 0x1 SLOAD SWAP2 POP SWAP2 POP SWAP1 SWAP2 JUMP JUMPDEST PUSH0 DUP2 SWAP1 POP SWAP2 SWAP1 POP JUMP JUMPDEST PUSH2 0x141 DUP2 PUSH2 0x12F JUMP JUMPDEST DUP3 MSTORE POP POP JUMP JUMPDEST PUSH0 PUSH1 0x20 DUP3 ADD SWAP1 POP PUSH2 0x15A PUSH0 DUP4 ADD DUP5 PUSH2 0x138 JUMP JUMPDEST SWAP3 SWAP2 POP POP JUMP JUMPDEST PUSH0 PUSH1 0x40 MLOAD SWAP1 POP SWAP1 JUMP JUMPDEST PUSH0 DUP1 REVERT JUMPDEST PUSH0 DUP1 REVERT JUMPDEST PUSH0 DUP1 REVERT JUMPDEST PUSH0 PUSH1 0x1F NOT PUSH1 0x1F DUP4 ADD AND SWAP1 POP SWAP2 SWAP1 POP JUMP JUMPDEST PUSH32 0x4E487B7100000000000000000000000000000000000000000000000000000000 PUSH0 MSTORE PUSH1 0x41 PUSH1 0x4 MSTORE PUSH1 0x24 PUSH0 REVERT JUMPDEST PUSH2 0x1BB DUP3 PUSH2 0x175 JUMP JUMPDEST DUP2 ADD DUP2 DUP2 LT PUSH8 0xFFFFFFFFFFFFFFFF DUP3 GT OR ISZERO PUSH2 0x1DA JUMPI PUSH2 0x1D9 PUSH2 0x185 JUMP JUMPDEST JUMPDEST DUP1 PUSH1 0x40 MSTORE POP POP POP JUMP JUMPDEST PUSH0 PUSH2 0x1EC PUSH2 0x160 JUMP JUMPDEST SWAP1 POP PUSH2 0x1F8 DUP3 DUP3 PUSH2 0x1B2 JUMP JUMPDEST SWAP2 SWAP1 POP JUMP JUMPDEST PUSH0 PUSH8 0xFFFFFFFFFFFFFFFF DUP3 GT ISZERO PUSH2 0x217 JUMPI PUSH2 0x216 PUSH2 0x185 JUMP JUMPDEST JUMPDEST PUSH1 0x20 DUP3 MUL SWAP1 POP PUSH1 0x20 DUP2 ADD SWAP1 POP SWAP2 SWAP1 POP JUMP JUMPDEST PUSH0 DUP1 REVERT JUMPDEST PUSH2 0x235 DUP2 PUSH2 0x12F JUMP JUMPDEST DUP2 EQ PUSH2 0x23F JUMPI PUSH0 DUP1 REVERT JUMPDEST POP JUMP JUMPDEST PUSH0 DUP2 CALLDATALOAD SWAP1 POP PUSH2 0x250 DUP2 PUSH2 0x22C JUMP JUMPDEST SWAP3 SWAP2 POP POP JUMP JUMPDEST PUSH0 PUSH2 0x268 PUSH2 0x263 DUP5 PUSH2 0x1FD JUMP JUMPDEST PUSH2 0x1E3 JUMP JUMPDEST SWAP1 POP DUP1 DUP4 DUP3 MSTORE PUSH1 0x20 DUP3 ADD SWAP1 POP PUSH1 0x20 DUP5 MUL DUP4 ADD DUP6 DUP2 GT ISZERO PUSH2 0x28B JUMPI PUSH2 0x28A PUSH2 0x228 JUMP JUMPDEST JUMPDEST DUP4 JUMPDEST DUP2 DUP2 LT ISZERO PUSH2 0x2B4 JUMPI DUP1 PUSH2 0x2A0 DUP9 DUP3 PUSH2 0x242 JUMP JUMPDEST DUP5 MSTORE PUSH1 0x20 DUP5 ADD SWAP4 POP POP PUSH1 0x20 DUP2 ADD SWAP1 POP PUSH2 0x28D JUMP JUMPDEST POP POP POP SWAP4 SWAP3 POP POP POP JUMP JUMPDEST PUSH0 DUP3 PUSH1 0x1F DUP4 ADD SLT PUSH2 0x2D2 JUMPI PUSH2 0x2D1 PUSH2 0x171 JUMP JUMPDEST JUMPDEST DUP2 CALLDATALOAD PUSH2 0x2E2 DUP5 DUP3 PUSH1 0x20 DUP7 ADD PUSH2 0x256 JUMP JUMPDEST SWAP2 POP POP SWAP3 SWAP2 POP POP JUMP JUMPDEST PUSH0 PUSH1 0x20 DUP3 DUP5 SUB SLT ISZERO PUSH2 0x300 JUMPI PUSH2 0x2FF PUSH2 0x169 JUMP JUMPDEST JUMPDEST PUSH0 DUP3 ADD CALLDATALOAD PUSH8 0xFFFFFFFFFFFFFFFF DUP2 GT ISZERO PUSH2 0x31D JUMPI PUSH2 0x31C PUSH2 0x16D JUMP JUMPDEST JUMPDEST PUSH2 0x329 DUP5 DUP3 DUP6 ADD PUSH2 0x2BE JUMP JUMPDEST SWAP2 POP POP SWAP3 SWAP2 POP POP JUMP JUMPDEST PUSH0 DUP2 MLOAD SWAP1 POP SWAP2 SWAP1 POP JUMP JUMPDEST PUSH0 DUP3 DUP3 MSTORE PUSH1 0x20 DUP3 ADD SWAP1 POP SWAP3 SWAP2 POP POP JUMP JUMPDEST PUSH0 DUP2 SWAP1 POP PUSH1 0x20 DUP3 ADD SWAP1 POP SWAP2 SWAP1 POP JUMP JUMPDEST PUSH2 0x364 DUP2 PUSH2 0x12F JUMP JUMPDEST DUP3 MSTORE POP POP JUMP JUMPDEST PUSH0 PUSH2 0x375 DUP4 DUP4 PUSH2 0x35B JUMP JUMPDEST PUSH1 0x20 DUP4 ADD SWAP1 POP SWAP3 SWAP2 POP POP JUMP JUMPDEST PUSH0 PUSH1 0x20 DUP3 ADD SWAP1 POP SWAP2 SWAP1 POP JUMP JUMPDEST PUSH0 PUSH2 0x397 DUP3 PUSH2 0x332 JUMP JUMPDEST PUSH2 0x3A1 DUP2 DUP6 PUSH2 0x33C JUMP JUMPDEST SWAP4 POP PUSH2 0x3AC DUP4 PUSH2 0x34C JUMP JUMPDEST DUP1 PUSH0 JUMPDEST DUP4 DUP2 LT ISZERO PUSH2 0x3DC JUMPI DUP2 MLOAD PUSH2 0x3C3 DUP9 DUP3 PUSH2 0x36A JUMP JUMPDEST SWAP8 POP PUSH2 0x3CE DUP4 PUSH2 0x381 JUMP JUMPDEST SWAP3 POP POP PUSH1 0x1 DUP2 ADD SWAP1 POP PUSH2 0x3AF JUMP JUMPDEST POP DUP6 SWAP4 POP POP POP POP SWAP3 SWAP2 POP POP JUMP JUMPDEST PUSH0 PUSH1 0x40 DUP3 ADD SWAP1 POP DUP2 DUP2 SUB PUSH0 DUP4 ADD MSTORE PUSH2 0x401 DUP2 DUP6 PUSH2 0x38D JUMP JUMPDEST SWAP1 POP DUP2 DUP2 SUB PUSH1 0x20 DUP4 ADD MSTORE PUSH2 0x415 DUP2 DUP5 PUSH2 0x38D JUMP JUMPDEST SWAP1 POP SWAP4 SWAP3 POP POP POP JUMP JUMPDEST PUSH0 PUSH1 0x40 DUP3 ADD SWAP1 POP PUSH2 0x431 PUSH0 DUP4 ADD DUP6 PUSH2 0x138 JUMP JUMPDEST PUSH2 0x43E PUSH1 0x20 DUP4 ADD DUP5 PUSH2 0x138 JUMP JUMPDEST SWAP4 SWAP3 POP POP POP JUMP JUMPDEST PUSH32 0x4E487B7100000000000000000000000000000000000000000000000000000000 PUSH0 MSTORE PUSH1 0x32 PUSH1 0x4 MSTORE PUSH1 0x24 PUSH0 REVERT INVALID LOG2 PUSH5 0x6970667358 0x22 SLT KECCAK256 OR 0xDC CALLDATALOAD 0xDB 0xF 0xAB PUSH30 0x400E73C44CED8A4A05318269912BB26C477BB0105AEF93125C64736F6C63 NUMBER STOP ADDMOD AND STOP CALLER "
		},
		"gasEstimates": {
			"creation": {
				"codeDepositCost": "238400",
				"executionCost": "46589",
				"totalCost": "284989"
			},
			"external": {
				"a()": "2402",
				"b()": "2425",
				"changeA()": "infinite",
				"changeInput(uint256[])": "infinite"
			}
		},
		"methodIdentifiers": {
			"a()": "0dbe671f",
			"b()": "4df7e3d0",
			"changeA()": "d19fd469",
			"changeInput(uint256[])": "9023c4d1"
		}
	},
	"abi": [
		{
			"inputs": [],
			"name": "a",
			"outputs": [
				{
					"internalType": "uint256",
					"name": "",
					"type": "uint256"
				}
			],
			"stateMutability": "view",
			"type": "function"
		},
		{
			"inputs": [],
			"name": "b",
			"outputs": [
				{
					"internalType": "uint256",
					"name": "",
					"type": "uint256"
				}
			],
			"stateMutability": "view",
			"type": "function"
		},
		{
			"inputs": [],
			"name": "changeA",
			"outputs": [
				{
					"internalType": "uint256",
					"name": "",
					"type": "uint256"
				},
				{
					"internalType": "uint256",
					"name": "",
					"type": "uint256"
				}
			],
			"stateMutability": "nonpayable",
			"type": "function"
		},
		{
			"inputs": [
				{
					"internalType": "uint256[]",
					"name": "_input",
					"type": "uint256[]"
				}
			],
			"name": "changeInput",
			"outputs": [
				{
					"internalType": "uint256[]",
					"name": "",
					"type": "uint256[]"
				},
				{
					"internalType": "uint256[]",
					"name": "",
					"type": "uint256[]"
				}
			],
			"stateMutability": "pure",
			"type": "function"
		}
	]
}