{
	"data": {
		"bytecode": {
			"linkReferences": {},
			"object": "6080604052601060f81b6000806101000a81548160ff021916908360f81c021790555034801561002e57600080fd5b506101798061003e6000396000f3fe608060405234801561001057600080fd5b50600436106100365760003560e01c806316e640481461003b5780631f2a63c014610059575b600080fd5b610043610077565b60405161005091906100fc565b60405180910390f35b6100616100b2565b60405161006e91906100fc565b60405180910390f35b6000600160008054906101000a900460f81b7effffffffffffffffffffffffffffffffffffffffffffffffffffffffffffff1916901b905090565b6000600160008054906101000a900460f81b7effffffffffffffffffffffffffffffffffffffffffffffffffffffffffffff1916901c905090565b6100f681610117565b82525050565b600060208201905061011160008301846100ed565b92915050565b60007fff000000000000000000000000000000000000000000000000000000000000008216905091905056fea264697066735822122057838700f2a008c4328b2b8b51278ed001a1d4922f6140ad09fbbfce459e326164736f6c63430008070033",
			"opcodes": "PUSH1 0x80 PUSH1 0x40 MSTORE PUSH1 0x10 PUSH1 0xF8 SHL PUSH1 0x0 DUP1 PUSH2 0x100 EXP DUP2 SLOAD DUP2 PUSH1 0xFF MUL NOT AND SWAP1 DUP4 PUSH1 0xF8 SHR MUL OR SWAP1 SSTORE POP CALLVALUE DUP1 ISZERO PUSH2 0x2E JUMPI PUSH1 0x0 DUP1 REVERT JUMPDEST POP PUSH2 0x179 DUP1 PUSH2 0x3E PUSH1 0x0 CODECOPY PUSH1 0x0 RETURN INVALID PUSH1 0x80 PUSH1 0x40 MSTORE CALLVALUE DUP1 ISZERO PUSH2 0x10 JUMPI PUSH1 0x0 DUP1 REVERT JUMPDEST POP PUSH1 0x4 CALLDATASIZE LT PUSH2 0x36 JUMPI PUSH1 0x0 CALLDATALOAD PUSH1 0xE0 SHR DUP1 PUSH4 0x16E64048 EQ PUSH2 0x3B JUMPI DUP1 PUSH4 0x1F2A63C0 EQ PUSH2 0x59 JUMPI JUMPDEST PUSH1 0x0 DUP1 REVERT JUMPDEST PUSH2 0x43 PUSH2 0x77 JUMP JUMPDEST PUSH1 0x40 MLOAD PUSH2 0x50 SWAP2 SWAP1 PUSH2 0xFC JUMP JUMPDEST PUSH1 0x40 MLOAD DUP1 SWAP2 SUB SWAP1 RETURN JUMPDEST PUSH2 0x61 PUSH2 0xB2 JUMP JUMPDEST PUSH1 0x40 MLOAD PUSH2 0x6E SWAP2 SWAP1 PUSH2 0xFC JUMP JUMPDEST PUSH1 0x40 MLOAD DUP1 SWAP2 SUB SWAP1 RETURN JUMPDEST PUSH1 0x0 PUSH1 0x1 PUSH1 0x0 DUP1 SLOAD SWAP1 PUSH2 0x100 EXP SWAP1 DIV PUSH1 0xF8 SHL PUSH31 0xFFFFFFFFFFFFFFFFFFFFFFFFFFFFFFFFFFFFFFFFFFFFFFFFFFFFFFFFFFFFFF NOT AND SWAP1 SHL SWAP1 POP SWAP1 JUMP JUMPDEST PUSH1 0x0 PUSH1 0x1 PUSH1 0x0 DUP1 SLOAD SWAP1 PUSH2 0x100 EXP SWAP1 DIV PUSH1 0xF8 SHL PUSH31 0xFFFFFFFFFFFFFFFFFFFFFFFFFFFFFFFFFFFFFFFFFFFFFFFFFFFFFFFFFFFFFF NOT AND SWAP1 SHR SWAP1 POP SWAP1 JUMP JUMPDEST PUSH2 0xF6 DUP2 PUSH2 0x117 JUMP JUMPDEST DUP3 MSTORE POP POP JUMP JUMPDEST PUSH1 0x0 PUSH1 0x20 DUP3 ADD SWAP1 POP PUSH2 0x111 PUSH1 0x0 DUP4 ADD DUP5 PUSH2 0xED JUMP JUMPDEST SWAP3 SWAP2 POP POP JUMP JUMPDEST PUSH1 0x0 PUSH32 0xFF00000000000000000000000000000000000000000000000000000000000000 DUP3 AND SWAP1 POP SWAP2 SWAP1 POP JUMP INVALID LOG2 PUSH5 0x6970667358 0x22 SLT KECCAK256 JUMPI DUP4 DUP8 STOP CALLCODE LOG0 ADDMOD 0xC4 ORIGIN DUP12 0x2B DUP12 MLOAD 0x27 DUP15 0xD0 ADD LOG1 0xD4 SWAP3 0x2F PUSH2 0x40AD MULMOD 0xFB 0xBF 0xCE GASLIMIT SWAP15 ORIGIN PUSH2 0x6473 PUSH16 0x6C634300080700330000000000000000 "
		},
		"gasEstimates": {
			"creation": {
				"codeDepositCost": "75400",
				"executionCost": "24396",
				"totalCost": "99796"
			},
			"external": {
				"left()": "2472",
				"right()": "2494"
			}
		},
		"methodIdentifiers": {
			"left()": "16e64048",
			"right()": "1f2a63c0"
		}
	},
	"abi": [
		{
			"inputs": [],
			"name": "left",
			"outputs": [
				{
					"internalType": "bytes1",
					"name": "",
					"type": "bytes1"
				}
			],
			"stateMutability": "view",
			"type": "function"
		},
		{
			"inputs": [],
			"name": "right",
			"outputs": [
				{
					"internalType": "bytes1",
					"name": "",
					"type": "bytes1"
				}
			],
			"stateMutability": "view",
			"type": "function"
		}
	]
}